:1000000005C100000C9410250C943B250C9466252A
:100010000C9491250C94BC250C94E7250C94122685
:100020000C943D2624C1000022C1000020C1000024
:100030001EC100001CC100001AC1000018C1000050
:1000400016C1000014C1000012C1000010C1000060
:100050000EC100000CC100000AC100000C9468260B
:1000600006C100000C9490290C94C62900C1000020
:10007000FEC00000FCC00000FAC00000F8C0000094
:10008000F6C00000F4C00000F2C00000F0C00000A4
:100090000C941C2A0C94522AEAC00000E8C000000C
:1000A000E6C00000E4C00000E2C00000E0C00000C4
:1000B000DEC00000DCC00000DAC00000D8C00000D4
:1000C000D6C00000D4C000000C944F210C94A82A84
:1000D0000C94DE2ACCC000000C94342B0C946A2BB8
:1000E000C6C0000000000A0B02090C0D0E08070331
:1000F00004010000000000000000000000000000FB
:1001000000000000000000000000000000000000EF
:1001100012111000000000000000000000000000AC
:100120000000000000000000000001021020200874
:100130000810204010204080020102010804020142
:1001400001020408102040808040201008040201B1
:10015000800402018040201008040201080402010A
:100160000102040810204080010204081020408091
:1001700005050505070508080808020202020A0A23
:100180000808040404040101010101010101030341
:10019000030303030303040707070C0C0C0C0C0CEC
:1001A0000C0C0202020206060606060606060B0BE9
:1001B0000B0B0B0B0B0B000020002300260029006B
:1001C0002C002F003200000100000301060109018C
:1001D00000002200250028002B002E0031003400F2
:1001E00002010000050108010B01000021002400AC
:1001F00027002A002D003000330001010000040117
:1002000007010A01EF297B2A072B932B11241FBE1C
:10021000CFEFD1E2DEBFCDBF00E00CBF12E0A0E027
:10022000B2E0ECEBF8E500E00BBF02C007900D92E6
:10023000AA3EB107D9F728E0AAEEB2E001C01D92AC
:10024000A630B207E1F711E0C6E0D1E000E006C059
:1002500021970109802FFE010E941F2CC230D10777
:1002600080E00807A9F70E946A220C945C2CC8CE93
:1002700090E080E008950F931F93009709F483C0E6
:100280006115710509F47FC00091100210911102EF
:1002900020911202309113020E3F1F4F2F4F3F4FFC
:1002A00009F062C04FEF5FEFBA0140931002509324
:1002B0001102609312027093130240911002509148
:1002C00011026091120270911302DC011296ED91FD
:1002D000FC9180819181A281B38180934E039093A0
:1002E0004F03A0935003B093510384819581A6815D
:1002F000B78180934A0390934B03A0934C03B09330
:100300004D0380859185A285B385809346039093A4
:100310004703A0934803B093490384859585A68538
:10032000B7858093420390934303A0934403B09313
:10033000450310923E0310923F0310924003109227
:100340004103ACD483E796E09093EB028093EA02FA
:10035000A4D3009731F421E030E03093530320938D
:1003600052031F910F9108950091100210911102F4
:100370002091120230911302DB010D931D932D93F6
:100380003C9313979ACF8FEF9FEFEBCF8F929F9273
:10039000AF92BF92CF92DF92EF92FF921F93CF93D3
:1003A000DF934B015C011091550382E090E0909344
:1003B00053038093520381149104A104B10441F4C6
:1003C00080915503811104C080915403C1E08111D3
:1003D000C0E0C12CD12C760180915503811106C05B
:1003E00080915403811102C0CC23D1F083E090E0CE
:1003F0009093530380935203CC2371F1CCE9DFEF48
:10040000111101C0D4D7CE01DF91CF911F91FF9080
:10041000EF90DF90CF90BF90AF909F908F90089516
:100420006AE070E080E090E00E94D72680E1C80E8C
:1004300087E2D81EE11CF11C8FEF88169806A806EB
:10044000B80631F0C1E08C149D04AE04BF0408F07E
:10045000C0E080E04ED3C0CFD0E0C0E0D1CFCF929B
:10046000DF92EF92FF921F93CF93DF938F3F91051F
:1004700011F008F041C02091520330915303233012
:10048000310539F020915203309153032130310569
:1004900031F424E030E030935303209352036A0197
:1004A0007B01EC01892BA9F011E0AE01C701B60177
:1004B000F3D2AB01BC0190E080E01123F9F0CE0152
:1004C000DF91CF911F91FF90EF90DF90CF900C9430
:1004D000EC0B8091EA029091EB02892B29F30E94A8
:1004E000F30B029709F7E091EA02F091EB0290E03A
:1004F00080E01995182FD9CF8FEF9FEFDF91CF9123
:100500001F91FF90EF90DF90CF90089580E0F1C2AF
:10051000CF93DF9386E090E0909353038093520350
:1005200041D3EC011092EB021092EA02D8D610925D
:10053000530310925203CE01DF91CF910895809121
:100540005403089580913D030895609310027093C1
:100550001102809312029093130290E080E00895BC
:100560004F925F926F927F928F929F92AF92BF92C3
:10057000CF92DF92EF92FF920F931F93CF931F9230
:10058000C1E0CF9388E0882E82E0982EAA24A3941D
:10059000B12C24E0C22E22E0D22EEE24E394F12CE2
:1005A0000FE012E021E030E04EE052E064EF77E04F
:1005B00080EF97E00E94592040910C0250910D026B
:1005C000A091F007B091F1079A010E94272C609347
:1005D000E8077093E9078093EA079093EB07C090D0
:1005E000FC07D090FD07E090FE07F090FF076C1924
:1005F0007D098E099F096093E0077093E10780935E
:10060000E2079093E307A091F207B091F3070E94ED
:10061000272C6093EC077093ED078093EE0790937F
:10062000EF07C0900008D0900108E0900208F09019
:1006300003086C197D098E099F096093E407709384
:10064000E5078093E6079093E7071F92CF9344E076
:10065000C42E42E0D42EEE24E394F12C21E030E0CD
:100660004EE052E064EF77E080EF97E00E947E205A
:100670008091E8079091E907A091EA07B091EB0714
:100680008093FC079093FD07A093FE07B093FF07AC
:100690008091EC079091ED07A091EE07B091EF07E4
:1006A0008093000890930108A0930208B093030878
:1006B000C0901403D0901503E0901603F090170338
:1006C0008FEFC81AD80AE80AF80AC0921403D09229
:1006D0001503E0921603F09217030F900F900F90FE
:1006E0000F90C114D104E104F10499F4809118032E
:1006F00090911903A0911A03B0911B030196A11DBB
:10070000B11D8093180390931903A0931A03B0931B
:100710001B0380901C0390901D03A0901E03B090BB
:100720001F03609118037091190380911A0390912F
:100730001B030E947D23A50194010E94332420E025
:1007400030E040E85FE40E9433242B013C01C70104
:10075000B6010E947D23A50194010E9433249B01D0
:10076000AC01C301B2010E94E422609310037093B4
:1007700011038093120390931303CF911F910F9154
:10078000FF90EF90DF90CF90BF90AF909F908F90B1
:100790007F906F905F904F900895EAEFF2E08BE2C8
:1007A000DF011D928A95E9F780E090E0A0E8BFEBB9
:1007B00086A397A3A0A7B1A78DEC9CECACE4BEE305
:1007C00082A393A3A4A3B5A38CE89EE5AEE6B2E30F
:1007D00084839583A683B78389E99CE6A8E2BBE37B
:1007E00080879187A287B3878EE99FE7A8E2B2E866
:1007F00084879587A687B78783EF9CECA0EBB4E846
:10080000808B918BA28BB38BAEEEB2E0B383A283CD
:100810008CEE92E011969C938E938DE392E09093F0
:10082000ED028093EC028EE093E015969C938E93FC
:1008300014978EEF92E013969C938E93129780E11B
:1008400093E017969C938E931697E0EEF7E084E181
:10085000DF011D928A95E9F7E4EFF7E088E0DF0118
:100860001D928A95E9F78091000290910102A09172
:100870000202B091030280879187A287B3878487A1
:100880009587A687B787089508954F925F926F92D4
:100890007F928F929F92AF92BF92CF92DF92EF9210
:1008A000FF920F931F93F8944090310350903203BE
:1008B0006090330370903403C0902503D0902603DA
:1008C000E0902703F0902803452B09F0A6C09B0178
:1008D000AC01241935094609570929013A0100914B
:1008E0002D0310912E0320912F03309130034801E6
:1008F0005901840C951CA61CB71C80169106A206F3
:10090000B306A0F40091290310912A0320912B0330
:1009100030912C030F5F1F4F2F4F3F4F0093290340
:1009200010932A0320932B0330932C0380922D03E2
:1009300090922E03A0922F03B092300300912903CE
:1009400010912A0320912B0330912C0380923503C0
:1009500090923603A0923703B09238030093390384
:1009600010933A0320933B0330933C03609331038D
:10097000709332038093330390933403A301920165
:1009800060E47DE083E090E00E94EE2B6C0D7D1D25
:100990008E1D9F1D6093250370932603809327036C
:1009A00090932803009110021091110220911202DD
:1009B000309113020F3F1F4F2F4F3F4FF1F0009127
:1009C00010021091110220911202309113020E3F79
:1009D0001F4F2F4F3F4F89F0C0901002D09011024F
:1009E000E0901202F090130221E08C149D04AE04FA
:1009F000BF0408F420E020933D0378941F910F91E9
:100A0000FF90EF90DF90CF90BF90AF909F908F902E
:100A10007F906F905F904F9008954B015C01841818
:100A20009508A608B708A3019201261B370B480BAF
:100A3000590B6415750586059705E0F08216930637
:100A4000A406B50640F420E030E0A9018114910429
:100A5000A104B104A1F460E47DE083E090E00E9491
:100A6000EE2BA7019601261B370B480B590BCA0129
:100A7000B901C3CF82169306A406B50660F7A50197
:100A8000940160E47DE083E090E00E94EE2B6C0D29
:100A90007D1D8E1D9F1DB1CFF8CECF93DF9300D06B
:100AA0001F92CDB7DEB71C821B821A821982BE014B
:100AB0006F5F7F4FCE0103960E94A11F69817A81EB
:100AC0008B819C810E94D418009761F4BE016F5FF6
:100AD0007F4FCE0103960E94AD1F69817A818B8181
:100AE0009C8126D50F900F900F900F90DF91CF91A2
:100AF0000895FF920F931F93CF93DF93082F60E029
:100B000070E0CB010E94D726FF24F3940E94BD170A
:100B1000EC01892B89F010E0CE3F8FEFD80769F008
:100B2000002361F160E070E0CB010E94D72681E0F4
:100B300090E0892B59F322C011E01DD5EC01892BDF
:100B400021F0CE3F8FEFD80759F711111EC011E0E9
:100B5000229609F410E00E946D17EC01892B21F018
:100B6000CE3F8FEFD807E1F6111111C011E0CE3F53
:100B70008FEFD80709F410E001110BC0CE01DF910F
:100B8000CF911F910F91FF90089511E0E4CF11E0F4
:100B9000F3CF60E070E0CB010E94D7261F25812FA4
:100BA00090E0C7CFCF93DF931ED6D0E0C0E0892B73
:100BB00071F06AE070E080E090E00E94D72681E06A
:100BC00098DF11D62196C03D27E0D20781F710D6D5
:100BD0000E942819109255031092540310924E034C
:100BE00010924F03109250031092510310924A0337
:100BF00010924B0310924C0310924D031092460337
:100C00001092470310924803109249031092420336
:100C100010924303109244031092450310923E0336
:100C200010923F0310924003109241034EEF5FEF8A
:100C30006FEF7FEF40931002509311026093120206
:100C40007093130210923D03E5E3F3E028E0DF0127
:100C50001D922A95E9F710923103109232031092F7
:100C600033031092340310922D0310922E0310922E
:100C70002F03109230031092290310922A0310922E
:100C80002B0310922C03109225031092260310922E
:100C9000270310922803DF91CF91089510926103EA
:100CA0001092620310926303109264031092600327
:100CB0008091690390916A0390935F0380935E0330
:100CC00010925D0310925C03109258031092590326
:100CD00010925A0310925B03109266031092650300
:100CE00090E080E00895CF92DF92EF92FF920F9311
:100CF0001F93CF938C01892B09F055C02091690374
:100D000030916A0380915E0390915F034091690383
:100D100050916A0350935F0340935E03281739078D
:100D200081F010925D0310925C03109258031092B0
:100D3000590310925A0310925B03109266031092AB
:100D400065038091690390916A03019761F5809131
:100D5000650390916603892B21F48091140281111F
:100D600012C080916503909166030197E1F4809130
:100D7000580390915903A0915A03B0915B030197D6
:100D8000A105B10581F410925803109259031092F5
:100D90005A0310925B031092140282E090E0909349
:100DA0006603809365038091690390916A030197BC
:100DB00009F01CC180917F039091800380179107F7
:100DC00009F014C180917B0390917C03A0917D0375
:100DD000B0917E03009709F409C120917A03211193
:100DE0000DC040917B0350917C0360917D03709115
:100DF0007E03452B462B472B09F4F8C02091650351
:100E0000309166032230310509F0F0C020915C0377
:100E10002111ECC0FC01C080D180E280F380809180
:100E20006003882309F4D3C080916C0390916D0313
:100E3000892B09F4FDC020916C0330916D0381E092
:100E40002230310509F080E020916C0330916D0370
:100E5000C1E02130310549F020916C0330916D03E0
:100E6000C1E02230310509F0C0E0882309F456C002
:100E70002091760330917703409178035091790364
:100E8000C701B6010E942F2487FD14C0209176036C
:100E90003091770340917803509179036091610319
:100EA0007091620380916303909164030E944823D0
:100EB00087FD22C02091760330917703409178031B
:100EC00050917903C701B6010E942F24181634F5FA
:100ED0002091760330917703409178035091790304
:100EE0006091610370916203809163039091640348
:100EF0000E944823811112C080916E0390916F036C
:100F0000A0917003B0917103892B8A2B8B2B19F45C
:100F100081E080935D0381E080935C03CC2309F43E
:100F200056C0209176033091770340917803509119
:100F30007903C701B6010E94482387FF14C020919E
:100F40007603309177034091780350917903609153
:100F500061037091620380916303909164030E9426
:100F60002F2487FF22C02091760330917703409190
:100F7000780350917903C701B6010E94482381117B
:100F800026C02091760330917703409178035091E9
:100F90007903609161037091620380916303909182
:100FA00064030E942F24181694F480916E0390918C
:100FB0006F03A0917003B0917103892B8A2B8B2B47
:100FC00019F481E080935D0381E080935C0381E00C
:100FD00090915C03911180E080936003C092610363
:100FE000D0926203E0926303F0926403012B09F054
:100FF00067C18091650390916603892BD9F41092A3
:101000006B0310925C0380911402882379F082E0D4
:1010100090E09093660380936503109214022091F0
:10102000690330916A0381E0232BE9F080E01BC063
:1010300081E00ACF1092140280916B03882349F05B
:1010400010925D03109266031092650310926B0379
:10105000EDCF8091690390916A03892BE1F0809133
:101060005C0310925C03209165033091660322308B
:10107000310509F45EC088F42115310509F448C032
:101080002130310509F4F3C010925D0310925C0326
:1010900010926B0338C081E0E6CF2330310509F4AC
:1010A000B1C02430310581F7409158035091590364
:1010B00060915A0370915B034115510561057105FB
:1010C00061F04150510961097109409358035093EF
:1010D000590360935A0370935B03409158035091F6
:1010E000590360915A0370915B03452B462B472BA4
:1010F000D9F420916703309168032130310509F05C
:1011000046C010925D0310926603109265030CC0F6
:1011100080911402882341F082E090E0909366036E
:1011200080936503109214021092560380915D0320
:10113000CEC08823C9F380916E0390916F03A09174
:101140007003B0917103181619061A061B060CF0ED
:101150007DC08091690390916A03019709F076C080
:1011600080916E0390916F03A0917003B091710311
:101170008093580390935903A0935A03B0935B0351
:1011800083E090E09093660380936503CDCF409118
:101190007203509173036091740370917503452B32
:1011A000462B472BA9F010925D038091720390911A
:1011B0007303A0917403B0917503809358039093C7
:1011C0005903A0935A03B0935B0381E090E0DACF18
:1011D000882399F08091150290911602A091170230
:1011E000B09118028093580390935903A0935A0327
:1011F000B0935B0384E090E0C5CF10925D0382E082
:1012000090E0C0CF8091580390915903A0915A0368
:10121000B0915B030097A105B10559F00197A109B1
:10122000B1098093580390935903A0935A03B09344
:101230005B038091580390915903A0915A03B09198
:101240005B03892B8A2B8B2B09F06ECF80911502C3
:1012500090911602A0911702B0911802892B8A2B47
:101260008B2B09F44ECF81E080935D03B3CF409187
:1012700058035091590360915A0370915B034115D3
:1012800051056105710561F041505109610971090C
:10129000409358035093590360935A0370935B0330
:1012A000409158035091590360915A0370915B0328
:1012B000452B462B472B09F037CF8111C7CF9FCF46
:1012C00080915603882309F431CF80915703CF9141
:1012D0001F910F91FF90EF90DF90CF9008951092A3
:1012E00061031092620310926303109264031092E0
:1012F0006003109266031092650310925F031092D0
:101300005E031092800310927F0310925D0310928F
:101310005C03109258031092590310925A031092D2
:101320005B03109257031092560310927B031092A6
:101330007C0310927D0310927E0310927A03109228
:10134000760310927703109278031092790388EE57
:1013500093E0A0E0B0E08093150290931602A09372
:101360001702B09318021092720310927303109236
:1013700074031092750310926E0310926F03109213
:1013800070031092710310926D0310926C0381E050
:101390008093140210926B0310926A0310926903F7
:1013A000109268031092670390E080E008958091A6
:1013B000690390916A03892B19F58091140288239F
:1013C00051F080916B03811106C081E08093570337
:1013D00080935603089520916B033091140281E0AD
:1013E00090E0332311F090E080E030E082239323FB
:1013F000892B21F01092570381E0EACF1092560317
:10140000089582E090E0FA01918380838FEF9FEF4F
:101410000895CF93DF93EA01009711F00E943F1ADD
:101420001982188290E080E0DF91CF910895DB016E
:10143000009719F48FEF8C9308952EEF2C93FC01F5
:101440003F96EF30F10508F034C08827E55DF54F91
:101450008F4F0C941F2C570A550A530A510A4F0AF2
:101460004B0A4D0A490A470A450A420A3E0A3A0A05
:10147000400A590A80E311968C93089589E2FBCFC4
:1014800082E2F9CF11961C92089583E2F4CF81E2B3
:10149000F2CF81E1F0CF87E2EECF8AE2ECCF80E1BC
:1014A000EACF84E2E8CF88E2E6CF86E2E4CF81E3C8
:1014B000E2CF80E2E0CF80918D0390918E0308957A
:1014C00090938E0380938D03089580918C030895EB
:1014D00090918C03892B80938C030895982F90957D
:1014E00080918C03892380938C03089580918B03D2
:1014F00008958091890390918A030895611571057B
:1015000059F0FB0130E020E070E060E0241735077F
:1015100019F06115710511F0CB010895A081B18119
:10152000A817B90709F4BF012F5F3F4F3696EECFDA
:1015300080918F0381111CC041D247D290938203C6
:10154000809381030E94B0130E94C213909386037C
:10155000809385030E94D5160E94DC169093840325
:101560008093830381E080938F0390E080E008956F
:1015700084EF9FEF08958F929F92AF92BF92CF9288
:10158000DF92EF92FF920F931F93CF93DF9300D0E0
:1015900000D000D01F92CDB7DEB71A861986188604
:1015A0001F821E821D821C821B821A8219828091D8
:1015B0008F0307EF1FEF882309F48BC08E010D5FA7
:1015C0001F4F9E012B5F3F4FAE01495F5F4FBE0132
:1015D000675F7F4F90E080E00E9459188C01009770
:1015E00021F00596029708F0C7C089859A85009773
:1015F00009F4EFC0ED80FE802B813C812E0D3F1D54
:101600004F8158854217530708F4E3C0E80EF91ECE
:10161000D7014C9120918D0330918E03232B09F437
:1016200094C0413F08F069C08CE1840F8D3008F40C
:1016300083C08DE2840F803108F481C088E3840F79
:101640008B3008F47FC097E1C92E9AE0D92EE1E0F3
:10165000FAE06D817E81AE014F5F5F4F89859A858B
:1016600019955C01C114D104A1F189809A8081147B
:10167000910479F18B819C818815990508F484C0C7
:1016800010E000E04B815C8170E060E0C7010E94E7
:10169000552C01151105E9F449815A8169857A852E
:1016A0008D819E81680F791FC501F6011995E9802A
:1016B000FA800D811E812F81388549855A856FEF0B
:1016C0007FEF81E090E00E94F4178C01892B09F0F4
:1016D00053C0C8012A960FB6F894DEBF0FBECDBF27
:1016E000DF91CF911F910F91FF90EF90DF90CF90FE
:1016F000BF90AF909F908F90089530E020E0220F30
:10170000331FF901EF57FC4F0190F081E02D309726
:1017100009F499CF842F90E01995009709F493CF9D
:10172000DC011296ED91FC9113971496CD90DC900C
:10173000309709F08ECF1EC021E030E0E0CF22E0EC
:1017400030E0DDCF23E030E0DACFD12CC12CE9E06E
:10175000FAE04F3F09F07DCFE0918103F0918203E1
:10176000309719F404EF1FEF0CC08FEF90E019953C
:101770000097B1F604EF1FEF89859A85009709F469
:10178000A8CF0E943F1AA5CF0E9423198C018985FA
:101790009A850E943F1A70E060E0C4010E94BC1864
:1017A00098878F830E94F1179E838D836F81788540
:1017B0006115710559F0C8010E94D51B9A87898768
:1017C00006EF1FEF892B09F05BCF5CCF08EF1FEF0F
:1017D00059CF08EF1FEFD0CF20918F032111D7C72A
:1017E00087EF9FEF089580918D0390918E03089568
:1017F0000E94E1160E943B16EDD0E1E8F3E088E09C
:10180000DF011D928A95E9F710928F0390E080E046
:10181000089586E090E0FA019183808390E080E073
:10182000089547E050E060E472E068CEDF92EF9206
:10183000FF920F931F93CF93DF938A01EC01C60FA2
:10184000D71FE0909303F0909403D9800E940B1966
:10185000D816190678F082E090E0F8019183808331
:101860008EEF9FEFDF91CF911F910F91FF90EF903F
:10187000DF900895EF2841F482E090E0F801918331
:10188000808384EF9FEFEECF89818093920390E075
:101890000196F8019183808390E080E0E3CFCF93BD
:1018A000DF93EA010E944F15882321F00E94181946
:1018B0000E94501582E090E0998388838BEF9FEF20
:1018C000DF91CF910895CF93DF93EB0186E0FB0189
:1018D00011928A95E9F78FEF8883F7DD898306DE19
:1018E0008A8307DE9D838C83DF91CF910895CF9308
:1018F000DF93EA010E945215811109C082E090E055
:101900009983888385EF9FEFDF91CF91089590E0D1
:1019100080E0D6DD81E090E09983888390E080E0EC
:10192000F3CF0F931F93CF93DF93EA018C01060F40
:10193000171F0E94521581110BC082E090E099831D
:10194000888385EF9FEFDF91CF911F910F910895CD
:10195000F8018181823038F082E090E099838883B9
:101960008EEF9FEFF0CF81E090E0AADD88E090E07D
:101970009983888390E080E0E6CFCF93DF93009750
:10198000D1F4EB01FB01329686E0DF011D928A95CE
:10199000E9F78FEF888385E089831A820E940B190B
:1019A0008B830E940A199D838C8381E08E838F83B1
:1019B000DF91CF910895DF91CF9139CD81E19CE006
:1019C0009093910380939003089580919003909158
:1019D00091030895109291031092900308958091BD
:1019E0009303909194030895411105C06115710509
:1019F0008105910561F06093930370939403809344
:101A00009503909396034093970381E0089580E0B7
:101A10000895FF920F931F93CF93DF938A01EC01F8
:101A2000C60FD71FF9800E940B19F816190668F027
:101A300082E090E0F801918380838EEF9FEFDF9149
:101A4000CF911F910F91FF9008956C817D818E81C0
:101A50009F814B81C9DF811108C082E090E0F801CD
:101A60009183808384EF9FEFEACF898180939203F3
:101A700090E00196F8019183808390E080E0DFCFD1
:101A8000CF93DF93EA01FC01E60FF71F64817581B4
:101A9000868197814381A8DF811109C082E090E0AF
:101AA0009983888384EF9FEFDF91CF91089581E040
:101AB00090E09983888390E080E0F6CFE3E9F3E05B
:101AC0004081518162817381480F511D611D711DDB
:101AD00040835183628373830895CF93C0919203AF
:101AE0004C2F50E0609193037091940301960E94F3
:101AF0004C2C8C2FE3DF10929203CF910895009726
:101B000099F480919303909194032FEFFB0120832C
:101B1000892B59F02091920330E02F5F3F4F24171B
:101B2000350719F4CB01D9CF82CC0895009799F4E9
:101B300080919303909194032FEFFB012083892BD5
:101B400059F02091920330E02F5F3F4F2417350763
:101B500019F4CB01C2CF6BCC08952DE0AC01249FCA
:101B6000C001259F900D1124E0919C03F0919D03ED
:101B7000E80FF91F238134812250310981E022309E
:101B8000310508F080E008950F931F93CF93DF9302
:101B900000919E0310919F03D0E0C0E080E00C17FD
:101BA0001D0749F491E0811190E0892FDF91CF91D9
:101BB0001F910F9108958111F5CFCE01CEDF2196AF
:101BC000EECFA0919C03B0919D03109729F1209135
:101BD0009E0330919F0382179307F0F45DE0589FB6
:101BE0009001599F300D1124A20FB31FED91FC916C
:101BF0001197309789F012968C91681768F485E0F8
:101C0000689FE00DF11D112480819181892B21F0C5
:101C100081E09281491708F080E00895EF92FF92E9
:101C20000F931F93CF93DF93EA01FC01E60FF71F99
:101C300002811381E480F5804F2D6E2DC801C1DF34
:101C400081110DC082E090E0998388838EEF9FEF31
:101C5000DF91CF911F910F91FF90EF900895C801F0
:101C60007CDF882339F082E090E09983888388EFD5
:101C70009FEFEECF1093200200931F02E09221020B
:101C8000F092220281E090E09983888390E080E0E6
:101C9000DFCFCF92DF92EF92FF920F931F93CF93FC
:101CA000DF937A01EC01C60FD71FC0901F02D090BE
:101CB00020020091210210912202412F602FC601C3
:101CC00080DF811110C082E090E0F7019183808372
:101CD0008AEF9FEFDF91CF911F910F91FF90EF90CF
:101CE000DF90CF900895C60138DF882341F082E06D
:101CF00090E0F7019183808388EF9FEFEBCF4C81D9
:101D00005D816E817F819A8189818F3F41F082E080
:101D100090E0F701918380838EEF9FEFDBCFEDE0C2
:101D2000EC9D9001ED9D300D1124E0919C03F0910C
:101D30009D03E20FF31F0190F081E02D25E0029F4B
:101D4000E00DF11D11240190F081E02D27E0129F9C
:101D5000E00DF11D1124808391838B818283438365
:101D60005483658376831F5F1093220281E090E0A5
:101D7000F7019183808390E080E0ACCFEF92FF92F7
:101D80000F931F93CF93DF937A018C01060F171FD8
:101D9000C0919C03D0919D03209781F021E030E019
:101DA000F8018281938140919E0350919F03841793
:101DB000950710F030E020E0232B71F482E090E0F2
:101DC000F701918380838EEF9FEFDF91CF911F9179
:101DD0000F91FF90EF9008954DE0489F9001499F2B
:101DE000300D1124C20FD31FB8DE882341F082E0EA
:101DF00090E0F7019183808388EF9FEFE6CFF801B1
:101E00002481358120383105C8F687818111D6CFEC
:101E10004181842F90E08F7E009741F082E090E036
:101E2000F7019183808386EF9FEFCFCF4F833E836F
:101E30002D83268128871986223010F421E02887F7
:101E400021E030E0F70131832083BFCF88E090E0CC
:101E5000FA019183808390E080E00895FB018FEF89
:101E6000808381E181838FEF9FEF9383828380E87A
:101E700090E095838483168217820895FB018FEF8B
:101E8000808391E0918382839383848384E3858339
:101E900081E090E09783868308954BE050E06AE606
:101EA00072E02CCB8F929F92BF92CF92DF92EF92F3
:101EB000FF920F931F93CF93DF93EA01FC01E60F8C
:101EC000F71F828193810481B580E0919C03F0919A
:101ED0009D03309791F482E090E0998388838CEFA2
:101EE0009FEFDF91CF911F910F91FF90EF90DF90C7
:101EF000CF90BF909F908F90089520919E03309136
:101F00009F038217930738F082E090E099838883DB
:101F10008EEF9FEFE6CF2DE0289F6001299FD00C28
:101F20001124EC0DFD1DE080F180E114F10499F223
:101F30008281081748F785E0089F80011124E00E90
:101F4000F11EF70180819181892B29F6BB20E1F2F6
:101F5000F7E0BF9E40011124C4010E94F419F7016B
:101F600091838083E0919C03F0919D03EC0DFD1D16
:101F70000190F081E02DE00FF11F808191810097A9
:101F800039F482E090E0998388838DEF9FEFA9CFA9
:101F9000A40170E060E00E94552C80919C03909118
:101FA0009D03C80ED91EF60180819181080F191F6B
:101FB000F801B28281E090E09983888390E080E02C
:101FC00090CFAF92BF92CF92DF92FF920F931F9369
:101FD000CF93DF93EA01FC01E60FF71F8281938123
:101FE000F48000919C0310919D030115110581F46B
:101FF00082E090E0998388838CEF9FEFDF91CF910F
:102000001F910F91FF90DF90CF90BF90AF900895F8
:1020100020919E0330919F038217930738F082E04E
:1020200090E0998388838EEF9FEFE8CF2FEF2F0DFD
:102030002C3FA8F72DE0289F6001299FD00C112488
:102040000C0D1D1DF80180819181892B89F6F5E029
:10205000FF9E50011124C5010E94F419F8019183DB
:102060008083E0919C03F0919D03EC0DFD1D808128
:102070009181009739F482E090E0998388838DEF15
:102080009FEFBCCFA50170E060E00E94552CE0916D
:102090009C03F0919D03EC0DFD1DF28281E090E028
:1020A0009983888390E080E0A9CFCF92DF92EF926E
:1020B000FF920F931F93CF93DF93860F971FFC011F
:1020C0000281138180919C0390919D03892B81F063
:1020D00082E090E0FA01918380838CEF9FEFDF91A3
:1020E000CF911F910F91FF90EF90DF90CF900895C7
:1020F000C801B0E0A0E00197A109B1098F3F9F4F4F
:10210000A105B10540F082E090E0FA01918380835F
:102110008EEF9FEFE4CF7A018DE0809F6001819F79
:10212000D00C1124C6010E94F419EC01009741F46F
:1021300082E090E0F701918380838DEF9FEFCFCF16
:10214000A60170E060E00E94552CD0939D03C093DF
:102150009C0310939F0300939E0390E080E02FEF79
:102160003FEF8017910741F481E090E0F701918300
:10217000808390E080E0B3CF3C872B8701962D963B
:10218000F0CFCF92DF92EF92FF920F931F93CF93F6
:10219000DF93EC01D12CC12C10E000E0F12CE12CFC
:1021A0008A818017110609F0BCF4AE01455F5F4FCC
:1021B00063E070E0C7010E946B1A009721F02FEFD7
:1021C0003FEF3C872B87DF91CF911F910F91FF90BD
:1021D000EF90DF90CF900895E881F981EC0DFD1D1F
:1021E00023813481C90101960115110519F44F812C
:1021F00044FD049661E070E0BFD7E816F90608F4E4
:102200007C010F5F1F4F85E0C80ED11CC9CFF89429
:1022100020919A0330919B0381E02115310509F04B
:1022200080E0232B09F0789408954F925F926F928B
:102230007F928F929F92AF92BF92CF92DF92EF9256
:10224000FF920F931F93CF93DF933C01660E771E8F
:10225000F301828193814C01B12CA12CC0919C038C
:10226000D0919D03209769F021E030E060919E03BA
:1022700070919F038617970710F030E020E0232B22
:10228000C1F482E090E0FA01918380838EEF9FEFAA
:10229000DF91CF911F910F91FF90EF90DF90CF9042
:1022A000BF90AF909F908F907F906F905F904F9076
:1022B00008958092230290922402A0922502B09267
:1022C00026026DE0689F9001699F300D1124C20FB6
:1022D000D31FF3018181833040F082E090E0FA0166
:1022E0009183808386EF9FEFD3CF2A012B813C819E
:1022F000232BF1F4288139819F8191FF2EC0232B5C
:1023000009F464C02091A1039A81422F490F5527F7
:10231000551FBA0141E050E06138710514F050E0FA
:1023200040E0452B09F452C02A87920F9093A103F5
:102330008150823008F476C06ADF882309F4C5C072
:10234000F3018181813009F480C008F470C08230CB
:1023500009F4B3C090E080E08EC0232BB9F1209146
:10236000A0039A81E22FE90FFF27FF1F41E050E011
:10237000ED3FF10514F050E040E0452B39F12A879C
:10238000920F9093A003D4CFA081B181A20FB31F6D
:1023900011966C91060F111D0196295F3F4F84170E
:1023A000950794F3C114D104C9F48F8184FF16C03A
:1023B00031D721E0A8014B5F5F4F8417950708F4E0
:1023C00020E0A7014B5F5F4F21110EC082E090E03B
:1023D000F2019183808387EF9FEF5ACF1BD721E0D3
:1023E000A8014F5F5F4FE9CF88819981E80EF91E00
:1023F000F70114830383FFEFCF1ADF0A7A018A8182
:102400008C151D0409F00CF497CFE881F981EE0DCD
:10241000FF1D428150E030E020E010E000E090E05D
:1024200080E0BDCFF12CE12CD12CC12CE8CF81E094
:1024300090E09C838B83A8DB882309F48BCF81E019
:1024400090E03ED880E44AD885CF8B859C85019664
:1024500051F083E090E09C838B8382E090E030D861
:1024600080E436D877CF89288A288B2879F4CE0162
:1024700088DE009771F3789422E030E0F201318336
:102480002083892BF9F08DEF9FEF02CF2D813E81C4
:102490008091190290911A0228173907D1F660919C
:1024A0001D0270911E02AE01455F5F4F80911B02BD
:1024B00090911C020E94941BDCCF82E090E09C83F0
:1024C0008B8348CF90E080E0E3CE82E090E0F201A1
:1024D0009183808385EF9FEFDBCE8F929F92AF92A7
:1024E000BF92CF92DF92EF92FF920F931F93CF9301
:1024F000DF93EA018C01060F171FF80181818330F9
:1025000098F082E090E09983888386EF9FEFDF91D7
:10251000CF911F910F91FF90EF90DF90CF90BF90E0
:10252000AF909F908F90089580919C0390919D0310
:10253000892B61F081E090E020919E0330919F0310
:10254000232B11F490E080E0892B39F482E090E0B5
:10255000998388838EEF9FEFDACF59DE882309F4C1
:10256000D5C0F8018181813009F48BC0E8F0823058
:1025700099F420919E0330919F03E0919C03F09188
:102580009D0390E080E041E050E02817390709F012
:10259000B3C0FADA811117C0789481E090E0998392
:1025A000888390E080E0B3CF20919E0330919F0319
:1025B000E0919C03F0919D0390E080E041E050E0C9
:1025C0002817390741F481E090E00E94600A80E416
:1025D0000E946E0AE1CF63817481672B11F05483EE
:1025E000438301963D96ECCFE0919C03F0919D03CF
:1025F000E00FF11F238134812230310561F42385FE
:1026000034852F3F3F4F39F4C114D104E104F10464
:1026100009F5CF01B6DDEFEFCE1ADE0AEE0AFE0AAB
:10262000035F1F4F40919E0350919F0370E060E055
:10263000C416D506E606F70664F50097A9F2789465
:10264000892B09F4AACF82E090E0998388838DEFEB
:102650009FEF5DCF458156812091190230911A027A
:1026600042175307C1F6AF01455F5F4F60911D02EE
:1026700070911E0280911B0290911C020E94941B7B
:10268000CACF10E000E090E080E0C12CD12C7601B0
:10269000C9CF0097A1F610E000E0812C912C5401E5
:1026A00083E0E82EF12C1AC0E0919C03F0919D0389
:1026B000E00FF11F83819481029749F4F482E38251
:1026C00082E090E00E94600A80E40E94680AFFEFC6
:1026D0008F1A9F0AAF0ABF0A035F1F4F80919E03A4
:1026E00090919F03B0E0A0E088169906AA06BB0669
:1026F000DCF290E080E0A3CF6381748162307105E9
:1027000011F45483438301963D963FCF82E090E0DD
:102710009983888385EF9FEFFACE0097B9F48FEF06
:10272000FB01808320912302309124024DE0429FDF
:10273000C001439F900D1124E0919C03F0919D03F3
:10274000E80FF91F8285FB01818308950C94170A15
:1027500088E090E0FA019183808390E080E0089522
:1027600010929B0310929A03ECE9F3E086E0DF01FC
:102770001D928A95E9F78DE49FE0909399038093E9
:1027800098030895809198039091990308952F924A
:102790003F924F925F926F927F928F929F92AF92F1
:1027A000BF92CF92DF92EF92FF920F931F93CF933E
:1027B000DF93CDB7DEB762970FB6F894DEBF0FBEDA
:1027C000CDBFF89420919A0330919B032F5F3F4F28
:1027D00030939B0320939A03789420919C0330912B
:1027E0009D033B832A83232B09F456C120919E032A
:1027F00030919F03232B09F44FC14D875E876F876C
:10280000788B9C878B878A819B819A8B898BD12C33
:10281000C12C198210E000E080919E0390919F03EB
:10282000C816D90618F43981332329F1F894809118
:102830009A0390919B03019790939B0380939A0333
:102840007894C80162960FB6F894DEBF0FBECDBF74
:10285000DF91CF911F910F91FF90EF90DF90CF907C
:10286000BF90AF909F908F907F906F905F904F90B0
:102870003F902F900895B60190E080E029D388879B
:10288000A989BA8917968C91179781FD8DC01396E7
:102890008D919C911497039709F086C01596ED9140
:1028A000FC91FF83EE832B853C85E217F30709F04B
:1028B0007BC0712C612C512C412C63C092D39A8720
:1028C000898710E04114510431F4A989BA89179617
:1028D0001C9112951170A989BA89ED91FC91E60DB0
:1028E000F71D23803480111169C0BFEF2B1A3B0AFA
:1028F00061E070E0C10140D45C01A989BA891B96EE
:102900008D919C918F3F980709F45CC0B5014DD71C
:102910004C01009709F4BBC0E985FA85E80FF91F5F
:10292000A989BA891A968C91840D808311114DC0A2
:102930008F010F5F1F4F8091190290911A02AE8193
:10294000BF81A817B90709F09DC081E090E0B88564
:10295000BB2311F090E080E0710109851A85950193
:10296000A401B6019195819591093ED38C01892BE3
:1029700011F0C40184D58FEF481A580A95E0690E0A
:10298000711CA989BA8912968C918415150429F0B5
:1029900024F0B981BB2309F491CFE885EE2321F01F
:1029A000B60190E080E096D2FFEFCF1ADF0A2989C6
:1029B0003A89235F3F4F3A8B298B2ECFE5E02E0ECD
:1029C000311C96CFC50110D5A3CF8D859E85AF85CF
:1029D000B88981839283A383B4838F010B5F1F4FD8
:1029E000AACFE080F180EC81FD81EE0EFF1ED701C1
:1029F00013966D917C9114978C918F3FE1F1E1E0FA
:102A0000F0E002C0EE0FFF1F8A95E2F7CF01092E1A
:102A1000000CAA0BBB0BFB014081518162817381C9
:102A200084239523A623B72321E0892B8A2B8B2B84
:102A300009F420E0D8012C93D70111968C91080F4E
:102A4000111DEA81FB813196FB83EA832C813D8154
:102A5000295F3F4F3D832C83A989BA89ED91FC9171
:102A6000E60DF71D82812A813B818217130611F042
:102A70000CF0B7CF6ACFF701418150E0C8010E9446
:102A80004C2CDACF1D821C821B821A82E5CF31E0EA
:102A9000398306EF1FEF6FCF10E000E0C7CEB7CB52
:102AA000789408952F923F924F925F926F927F9207
:102AB0009F92AF92BF92CF92DF92EF92FF920F93CD
:102AC0001F93CF93DF9300D000D0CDB7DEB7009136
:102AD0009C0310919D03992493940115110509F409
:102AE0003EC0A0909E03B0909F0391DB982E882358
:102AF000B1F110929D0310929C0310929F031092CB
:102B00009E031092A0031092A1038FEF9FEFDC01B0
:102B10008093230290932402A0932502B09326026F
:102B200078947AD31E830D83C12CD12C7601C501F4
:102B3000B0E0A0E089839A83AB83BC8322242A94EB
:102B4000322C89819A81AB81BC81C816D906EA06EC
:102B5000FB06F4F0C80193D480E40E946E0A892D2C
:102B600026960FB6F894DEBF0FBECDBFDF91CF9192
:102B70001F910F91FF90EF90DF90CF90BF90AF909B
:102B80009F907F906F905F904F903F902F9008950F
:102B9000C114D104E104F10409F5D8011B968D910B
:102BA0009C918F3F980709F040D5F8013486238621
:102BB000ED81FE8180819181B12CA12C412C512C81
:102BC0003201892B69F5BFEFCB1ADB0AEB0AFB0A4E
:102BD000ED81FE813D96FE83ED83B3CFAD81BE8155
:102BE00015962D913C9116978091190290911A0299
:102BF00028173907E9F61B968D919C91C4D5D8CF3B
:102C00008A0D9B1DDC018D919C91009709F037D4B2
:102C1000BFEF4B1A5B0A6B0A7B0AE5E0AE0EB11CF4
:102C2000AD81BE818D919C91119712964C9150E08F
:102C300070E060E044165506660677060CF31FD474
:102C4000C2CFCF93DF93EA012DDF811109C082E06B
:102C500090E09983888385EF9FEFDF91CF9108956E
:102C600081E090E00E94600A81E090E0998388838F
:102C700090E080E0F2CF16DF109299031092980353
:102C8000089542E050E06CEA72E00C947E0AFF92F4
:102C90000F931F93CF93DF938A01EC01C60FD71FC9
:102CA000F980B9D20897F816190671F068F082E039
:102CB00090E0F801918380838EEF9FEFDF91CF91B9
:102CC0001F910F91FF9008956C817D818E819F816E
:102CD0004B810E94F40C811108C082E090E0F80161
:102CE0009183808384EF9FEFE9CFF9800E94EF0CFE
:102CF0004F2D50E0BE01685F7F4F0E944C2C8981B0
:102D00000E945E0D81E090E0F8019183808390E065
:102D100080E0D4CFDF92EF92FF920F931F93CF9377
:102D2000DF938A01EC01C60FD71F0E94EF0C7C01D4
:102D3000D98071D2DD2059F0029721E030E0D81619
:102D4000190619F010F030E020E0232B79F482E02E
:102D500090E0F801918380838EEF9FEFDF91CF9118
:102D60001F910F91FF90EF90DF900895EF2841F4AD
:102D700082E090E0F8019183808384EF9FEFEECFB3
:102D8000F9800E94EF0C4F2D50E0BE016E5F7F4F27
:102D90000E944C2C89810E945E0D81E090E0F80138
:102DA0009183808390E080E0D9CF81E496E1909395
:102DB000A3038093A20308958091A2039091A3039B
:102DC00008950895FC0111821082938382830895EF
:102DD000DB011D921C92DC011296ED91FC91139780
:102DE0007183608313967C936E9312970895FC0110
:102DF00080819181DB018D939C93A081B18110979B
:102E000041F08D919C9191838083892B11F4F38300
:102E1000E2830895FC0180819181DB018D939C9375
:102E2000892B11F473836283718360830895FC019D
:102E300011821082938382830895CF93DF931F9230
:102E40001F92CDB7DEB71A821982F894BE016F5F68
:102E50007F4F89EA93E0CBDF89819A81009709F05F
:102E60000ED389819A81892B89F7BE016F5F7F4FCD
:102E70008DEA93E0BCDF89819A81009709F0FFD247
:102E800089819A81892B89F778940F900F90DF912F
:102E9000CF910895CF93DF931F921F92CDB7DEB7E6
:102EA0001A821982F894BE016F5F7F4F85EA93E022
:102EB0009EDF89819A81009709F0E1D289819A8108
:102EC000892B89F778940F900F90DF91CF91089517
:102ED00081E0089590E080E00895EF92FF920F93D3
:102EE0001F93CF93DF931F921F92CDB7DEB71A8245
:102EF00019828091A40307EF1FEF8823A1F1F894B2
:102F0000BE016F5F7F4F8DEA93E071DF7894898116
:102F10009A81EE24E394F12C892B51F4F894BE01AC
:102F20006F5F7F4F89EA93E062DF7894F12CE12CA8
:102F300089819A810EEF1FEF0097A9F0FC01428171
:102F4000538164E070E031D68C01892B61F0F894F4
:102F500069817A81C701880F991F880F991F87554A
:102F60009C4F58DF7894C8010F900F90DF91CF915C
:102F70001F910F91FF90EF9008950F931F93CF93A0
:102F8000DF9300D01F92CDB7DEB71C821B821A825E
:102F900019828091A40307EF1FEF8823C1F0AE01CF
:102FA0004D5F5F4F64E070E0CE01019671D68C01F9
:102FB000892B69F4E981FA818B819C8193838283D7
:102FC000F89469817A8185EA93E002DF7894C801F8
:102FD0000F900F900F900F90DF91CF911F910F9155
:102FE000089576D7049608958F929F92AF92BF92DC
:102FF000CF92DF92EF92FF920F931F93CF93DF93C5
:103000001F921F92CDB7DEB71A821982BC016F5F83
:103010007F4F6330710598F0AA24AA94BA2CC50199
:103020000F900F90DF91CF911F910F91FF90EF9034
:10303000DF90CF90BF90AF909F908F9008954115F3
:10304000510551F3480159018A016C01CADF881505
:10305000990511F7E114F104F9F28E0D9F1DA816E0
:10306000B906D0F28091A4038823F1F0F894B50159
:10307000645071099701AE014F5F5F4FC80104961C
:103080009CD65C01892B71F489819A81F801938324
:103090008283C601880F991F880F991FB801875531
:1030A0009C4F96DE7894BBCF87EFA82EBB24BA94B2
:1030B000B6CFAF92BF92CF92DF92EF92FF920F9373
:1030C0001F93CF93DF931F921F92CDB7DEB71A8263
:1030D0001982892B09F047C06115710509F443C0B5
:1030E0004115510509F43FC02115310509F43BC0D4
:1030F00001151105C1F18091A4038823B9F179016B
:103100006A015B01F894BE016F5F7F4F85EA93E02F
:103110006EDE789489819A81009759F1DC011296CC
:103120006D917C91A801049661D68C01E981FA81A8
:10313000D501ED93FC93828193810496F6019183EE
:1031400080834FDFD7018D939C93C8010F900F9020
:10315000DF91CF911F910F91FF90EF90DF90CF9073
:10316000BF90AF9008950FEF1FEFEFCF07EF1FEF66
:10317000ECCF0EEF1FEFE9CFCF93DF93EC01672B7E
:1031800071F4AFD68C179D0760F0A2D62496C80FB5
:10319000D91FA1D68C0F9D1FDF91CF9108959ED688
:1031A000F1CF90E080E0F8CF0F931F93CF93DF93A0
:1031B0002091A40321112BC08B01EC0189EA93E03B
:1031C00001DE8DEA93E0FEDD85EA93E0FBDD86D04B
:1031D0000097C1F486D670E060E0CEDF47E252E0AF
:1031E00062E070E078D1009769F4809127029091B5
:1031F000280289D6B801CE01BED4009719F421E087
:103200002093A403DF91CF911F910F91089584EF34
:103210009FEFF8CF63C665C6CF93DF9365D6EC0109
:10322000892B11F40ADE36DECE01DF91CF910895AD
:10323000CF93DF9359D6EC01892B09F4FEDDCE0143
:10324000DF91CF91089580912702909128020895EF
:10325000CF93DF938091A403D0E0C0E08823D1F026
:1032600057D6EC01892BB1F4E8DD14DE80912702FA
:1032700090912802DAD1E9D2EC01892B59F489EA3C
:1032800093E0D5DD8DEA93E0D2DD85EA93E0CFDDF2
:103290001092A403CE01DF91CF910895CF93DF93D5
:1032A0000097A1F4DF91CF910895EC011A82198261
:1032B000A883309711F0928381832F5F3F4FFC01E9
:1032C000860F971F4217530781F7ECCF30E020E0BD
:1032D000F0E0E0E0AFEF6F5F7F4FF4CFCF92DF928F
:1032E000EF92FF920F931F93CF93DF930EEC14E0B6
:1032F0000C7F88EBE82E82E0F82E9EEBC92E92E040
:10330000D92EC5E1D5E0D7014D915D917D01F60142
:10331000619171916F01198308835D834C835B8395
:103320004A837F836E839B012F5F3F4F249FC001A1
:10333000259F900D349F900D112499878887C8018F
:10334000ADDF88859985080F191F2A96FEEBEF16C9
:10335000F2E0FF06C1F6E3EBF3E088E191E0DF0184
:103360009C011D9221503040E1F71092B20310925F
:10337000B103109234051092330510923805109263
:103380003705109236051092350510923A051092C5
:10339000390510923C0510923B0510923E051092A3
:1033A0003D05109242051092410510924005109281
:1033B0003F05109244051092430510924605109265
:1033C00045051092120510921105109214051092E5
:1033D000130590E080E0DF91CF911F910F91FF9056
:1033E000EF90DF90CF900895009761F1F8948131CC
:1033F000910580F48091170590911805892B29F586
:103400008091210590912205892B31F021E081E006
:1034100090E00BC08197A8F480912B0590912C052A
:10342000892B79F022E082E090E0EAE0E89FD00189
:10343000E99FB00D1124AB5EBA4F8D919C9100971E
:1034400041F4789490E080E0089520E090E080E0FE
:10345000ECCFE29FF0011124EB5EFA4FDC011196F4
:103460004D915C9151834083428153814150510978
:1034700053834283FC012193CF01789408950097F0
:1034800049F1DC018E91853041F4E0911305F09112
:1034900014053097F9F0CD0119948530D8F4282F10
:1034A00030E0F8948FEF8C938AE0829FF001839F45
:1034B000F00D1124EB5EFA4F8081918112969C935E
:1034C0008E931197B183A083828193810196938318
:1034D000828378940895CF92DF92EF92FF920F93B8
:1034E0001F93CF93DF939C0186EB93E08C7F411574
:1034F000510509F497C02115310509F493C06115F0
:10350000710509F48FC07A01AB01B9016D5F7F4F7E
:103510006C7F9B012F5F3F4F249F8001259F100DE3
:10352000349F100D1124F894209133053091340507
:10353000232B59F420913B0530913C052115310591
:1035400069F12017310708F056C020913D053091F0
:103550003E05232B91F420913B0530913C05820FD1
:10356000931F20914505309146052115310509F439
:103570003FC02017310708F052C07894CFEFDFEF3B
:1035800086EF9FEFF701D183C083DF91CF911F9129
:103590000F91FF90EF90DF90CF900895C3E0D0E0BF
:1035A000C090B103D090B20325E131E02C193D0960
:1035B0002017310710F32AE02C9FF0012D9FF00D0A
:1035C0001124EB5EFA4F91838083558344835383A8
:1035D0004283778366831187008760DE0C0D1D1D93
:1035E0001093B2030093B103789490E080E0CACFC7
:1035F000C4E0D0E0D5CFC3E0D0E02AE02C9FF001BA
:103600002D9FF00D1124EB5EFA4F9183808355833B
:103610004483538342837783668340DEE5CFC4E0EF
:10362000D0E0EBCF8FEF9FEFB0CFFF920F931F93C0
:10363000CF93DF939C01235031092230310508F0EC
:1036400070C0EC01F89484E09AE09C9FD0019D9FAB
:10365000B00D1124A35EBA4F082F10E0909FF00127
:10366000919FF00D1124EB5EFA4F20813181C0173C
:10367000D10714F1FF24F394232B41F52AE0209F76
:10368000F001219FF00D1124EB5EFA4F8091B10300
:103690009091B20340855185841B950B9093B203A2
:1036A0008093B1032C9FF0012D9FF00D1124EB5E50
:1036B000FA4F118610861CC0232B39F42D913C91B2
:1036C0001197232BA9F48150C7CFF12C8AE08C9F4E
:1036D000F0018D9FF00D1124EB5EFA4F408551856E
:1036E00070E060E0808191810E94552CF110C6CF7E
:1036F0008AE08C9FF0018D9FF00D1124EB5EFA4F54
:10370000118210821582148213821282178216820D
:10371000789490E080E0DF91CF911F910F91FF901E
:1037200008958FEF9FEFF7CF4115510549F10097AD
:1037300039F16115710521F1F8942091110530914D
:103740001205232BB9F42091130530911405232B76
:1037500089F490931205809311057093140560937A
:103760001305789425E030E090E080E0FA013183A1
:103770002083089578942FEF3FEF86EF9FEFF6CFE9
:103780008FEF9FEF0895059769F4F8941092120552
:10379000109211051092140510921305789490E080
:1037A00080E008958FEF9FEF08956115710519F47A
:1037B000F0E0E0E011C08530910581F4E091110561
:1037C000F09112053097A1F3CB010196199500975E
:1037D00079F3FC0185E08193CF0108959C0123508A
:1037E00031092230310520F72AE0289FD001299F96
:1037F000B00D1124AB5EBA4F2D913C911197232B44
:10380000B9F216962D913C9117972617370780F23B
:10381000F89412962D913C9113972115310529F0BA
:10382000ED91FC911197309711F47894C1CF4181BB
:10383000528111965C934E932150310913963C931B
:103840002E93129781937894C7CFEBECF4E086E443
:10385000DF011D928A95E9F7E3EBF3E088E191E05F
:10386000DF019C011D9221503040E1F71092B2031C
:103870001092B103E5E1F5E082E3DF011D928A9544
:10388000E9F7E1E1F5E084E0DF011D928A95E9F7CF
:1038900090E080E00895CF93DF93C0912902D0910A
:1038A0002A02CF3FDC0759F45BD590932A0280931C
:1038B000290297FF09C0D0932A02C093290284EFFE
:1038C0009FEFDF91CF91089590E080E0FACF8230B2
:1038D000910528F48093470590E080E008958FEFEC
:1038E0009FEF08954F925F926F927F92AF92BF9237
:1038F000CF92DF92EF92FF920F931F93CF93DF93BC
:103900001F921F92CDB7DEB71A821982009709F471
:1039100079C06115710509F475C0209129023091B3
:103920002A0207EF1FEF2F3F3F4F09F445C06B01FD
:103930005C01412C512C3201F12CE12C10E000E013
:103940009E012F5F3F4FA6014E195F09B5016E0D15
:103950007F1D8091290290912A0260D5892B09F060
:103960004BC089819A81009741F4E114F10429F454
:1039700020914705222309F442C0E80EF91EEC14F9
:10398000FD04D0F480E8481684E858068EE1680605
:10399000710420F560E070E0CB010E94D7262AE098
:1039A000420E511C611C711C0A3F4FEF140721F09D
:1039B000043F8FEF1807A1F4C8010F900F90DF911B
:1039C000CF911F910F91FF90EF90DF90CF90BF901C
:1039D000AF907F906F905F904F90089501EF1FEF31
:1039E00081E090E0013F2FEF120711F090E080E0BE
:1039F000892B09F4A5CFE0CF04EF1FEFDDCF0AEF4D
:103A00001FEFDACF0FEF1FEFD7CF4F925F926F927A
:103A10007F92AF92BF92CF92DF92EF92FF920F937D
:103A20001F93CF93DF931F921F92CDB7DEB71A82F9
:103A30001982009709F479C06115710509F475C000
:103A40002091290230912A0207EF1FEF2F3F3F4FAD
:103A500009F445C06B015C01412C512C3201F12C61
:103A6000E12C10E000E09E012F5F3F4FA6014E19B0
:103A70005F09B5016E0D7F1D8091290290912A0288
:103A800083D4892B09F04BC089819A81009741F436
:103A9000E114F10429F420914705222309F442C0DE
:103AA000E80EF91EEC14FD04D0F480E8481686E90F
:103AB000580688E96806710420F560E070E0CB01E3
:103AC0000E94D7262AE0420E511C611C711C0E3F39
:103AD0004FEF140721F0043F8FEF1807A1F4C8013E
:103AE0000F900F90DF91CF911F910F91FF90EF906A
:103AF000DF90CF90BF90AF907F906F905F904F908E
:103B0000089502EF1FEF81E090E0023F2FEF1207D0
:103B100011F090E080E0892B09F4A5CFE0CF04EF0D
:103B20001FEFDDCF0EEF1FEFDACF0FEF1FEFD7CF75
:103B30008091290290912A028F3F980749F008D47A
:103B4000892B49F48FEF9FEF90932A0280932902EB
:103B500090E080E0089584EF9FEF0895FC01680FE6
:103B6000791F90E080E0E617F70709F408952191A6
:103B7000820F911DF8CF20914805211113C08BDED3
:103B8000009791F410924E0510924D0510924C053D
:103B900010924B0510924A051092490521E020939E
:103BA0004805089584EF9FEF0895AF92BF92CF929A
:103BB000DF92EF92FF920F931F93CF93DF930097C3
:103BC00009F460C04630510508F45CC020914805F6
:103BD000C7EFDFEF222309F449C08C01060F171F3E
:103BE000F801C080D180C114D10409F44EC09601FF
:103BF0002A5F3F4F4217530708F447C07C0180916A
:103C00004D0590914E0593838283B6016C5F7F4F83
:103C10005801A60EB71EC801A1DFF501918380836C
:103C200064E070E0C8015EDEEC01892BF9F481E00C
:103C300090E04DDEB601C801049654DEEC01892BFC
:103C400091F462E070E0C5014DDEEC01892B59F47E
:103C5000C70115DC80914D0590914E05019690931A
:103C60004E0580934D0590E080E031DECE01DF917E
:103C7000CF911F910F91FF90EF90DF90CF90BF9069
:103C8000AF900895CFEFDFEFF1CFC9EFDFEFEECFC9
:103C90006F927F928F929F92AF92BF92CF92DF925C
:103CA000EF92FF920F931F93CF93DF9300D01F9259
:103CB000CDB7DEB7009709F47AC04115510509F474
:103CC00076C02091480507EF1FEF222309F44DC06D
:103CD0003A017B015C0164E070E0CE01019695DE63
:103CE0008C01892B09F041C009811A810115110548
:103CF00009F45AC0480186E0880E911CB701680D8E
:103D0000791D80912B0290912C024FDD6C01009760
:103D100009F450C0A70170E060E00E94552C898131
:103D20009A81AB81BC81EC0CFD1CF70181939193CE
:103D3000A193B1937F0181E090E0C9DDB801C70193
:103D400064DE892B31F562E070E0C701800F911FBE
:103D50005CDE8C01892BE9F490E080E0B8DDF501B0
:103D6000D182C082F30191828082C8010F900F90AE
:103D70000F900F90DF91CF911F910F91FF90EF90D7
:103D8000DF90CF90BF90AF909F908F907F906F907B
:103D9000089590E080E09BDDF50111821082F3012F
:103DA00011821082C6016BDB09EF1FEFDECF0FEF30
:103DB0001FEFDBCF06EF1FEFD8CF0097A1F0411523
:103DC000510589F02115310571F0F90136966E170C
:103DD0007F0748F0DC012D933C93DA01ED93FC93CF
:103DE00090E080E008958FEF9FEF0895AF92BF922B
:103DF000CF92DF92EF92FF920F931F93CF93DF93B7
:103E0000009709F45FC04115510509F45BC06530A6
:103E1000710508F457C020914805C7EFDFEF222352
:103E200091F1DC01CD90DC9011971296ED91FC910F
:103E300096012A5F3F4FC9EFDFEF2617370719F5C5
:103E4000C0914905D0914A05209749F521E030E01D
:103E500030934A05209349057A018C01F0934C0573
:103E6000E0934B055601B4E0AB0EB11CB50176DE14
:103E70000A0D1B1DF801208131818217930729F556
:103E8000D701CD92DC92CE01DF91CF911F910F919E
:103E9000FF90EF90DF90CF90BF90AF90089520916A
:103EA0004B0530914C052F5F3F4FCCEFDFEFE21712
:103EB000F30790F2CBEFDFEF2E173F0768F2D0E069
:103EC000C0E0CACFCFEFDFEFDECFC3EFDFEFDBCF56
:103ED00084E090E0089582E090E008958CEF9FEFF9
:103EE000089580E290E0089510924E0510924D05DD
:103EF00010924C0510924B0510924A0510924905FC
:103F000090E080E0089590932C0280932B02089516
:103F100080914805882391F00BDE009789F4109278
:103F20004E0510924D0510924C0510924B051092C3
:103F30004A051092490510924805089590E080E0E6
:103F40000895009749F06115710531F0FC01118267
:103F50001082FB01118210820895F3CFCF93DF937B
:103F600080914F05909150050E943E28EC01809170
:103F70005105909152050E943E28019771F480915D
:103F8000530590915405219771F40196909354052F
:103F900080935305DF91CF910895809153059091BF
:103FA0005405CD2B91F30197F1CFCF93DF938091FF
:103FB0005705909158050E943E28EC0180915905C3
:103FC00090915A050E943E28019771F480915B05FB
:103FD00090915C05219771F4019690935C05809314
:103FE0005B05DF91CF91089580915B0590915C0511
:103FF000CD2B91F30197F1CFCF93DF9380915905AA
:1040000090915A050E943E28EC01809157059091AD
:1040100058050E943E28019771F480915B059091AC
:104020005C05CD2B71F4019690935C0580935B0544
:10403000DF91CF91089580915B0590915C05219768
:1040400091F30197F1CFCF93DF9380915105909138
:1040500052050E943E28EC0180914F059091500539
:104060000E943E28019771F4809153059091540568
:10407000CD2B71F401969093540580935305DF91F5
:10408000CF9108958091530590915405219791F314
:104090000197F1CF02978431910540F48C539D4FE5
:1040A000FC018081082E000C990B08958FEF9FEF83
:1040B00008950F931F93CF93DF93CDB7DEB78C0195
:1040C00020E030E040E85FE3FB01608171818281A4
:1040D0009381DED281110DC08091530590915405DA
:1040E000F8019183808380915B0590915C059383B7
:1040F0008283DF91CF911F910F9108958F929F92AC
:10410000AF92BF92CF92DF92EF92FF920F931F93E5
:10411000CF93DF93CDB7DEB77B015A0120E030E0CB
:1041200040E85FE3FB016081718182819381B0D2BD
:10413000882309F483C0F501808190E090935005B5
:1041400080934F05F801808190E090935205809311
:104150005105F60160817181828193819DD27093B6
:10416000580560935705F4016081718182819381C4
:1041700093D270935A056093590580914F059091A1
:10418000500560E012D7809151059091520560E092
:104190000CD7809157059091580560E006D7809123
:1041A000590590915A0560E000D780914F05909194
:1041B000500561E036D7809151059091520561E03C
:1041C00030D7809157059091580561E02AD78091AA
:1041D000590590915A0561E024D780914F0590913F
:1041E000500558DF41E050E063E270E2A0D38091D7
:1041F0005105909152054EDF41E050E06EEA7FE1BB
:1042000096D3809157059091580544DF41E050E0E6
:104210006CEF7FE18CD38091590590915A053ADF7C
:1042200041E050E065ED7FE182D380E090E0A0E8DE
:10423000BFE3F70180839183A283B383DF91CF91A2
:104240001F910F91FF90EF90DF90CF90BF90AF90B4
:104250009F908F90089540E855E260E070E090E014
:1042600080E000C08130910571F01CF4892B39F099
:1042700008958230910559F0039769F0089526E07A
:104280008CE695E0EDC726E089E096E0FBCF26E0DE
:1042900086EA96E0F7CF26E083E497E0F3CF1F921B
:1042A0000F920FB60F9211240BB60F922F933F93DC
:1042B0004F935F936F937F938F939F93AF93BF932E
:1042C000EF93FF938BEC93EF909325018093240160
:1042D000B9D0FF91EF91BF91AF919F918F917F9155
:1042E0006F915F914F913F912F910F900BBE0F9067
:1042F0000FBE0F901F9018958BEC93EF90932501B4
:1043000080932401A3E7B0E08C918E7F8C93E0E250
:10431000F1E080818C7F8083E1E2F1E08081877E23
:10432000808380818560808380818D7F80838C9174
:1043300081608C930895E3E7F0E0808190819E7F17
:1043400090838170089581E0089510925F0508952B
:1043500068EE73E080E090E02AD590E080E0089578
:1043600026E040E050E16EE070E08CE695E078D722
:104370008CE695E0ABD6892B21F08CE695E0C0D693
:10438000F7CF90E080E00895CF92DF92EF92FF9216
:104390000F931F93CF93DF936B017A01E901198289
:1043A00018828CE695E092D6892B69F18601CC249F
:1043B000C39482E0D82E80915F05811110C08CE6F5
:1043C00095E09ED60297B9F7C0925F05F801D192A9
:1043D0008F0188819981019699838883ECCF8881A8
:1043E00099818E159F0578F48CE695E089D68F3FEC
:1043F0009807A9F3F80181938F018881998101962B
:1044000099838883ECCF90E080E0DF91CF911F917A
:104410000F91FF90EF90DF90CF9008950F931F932F
:10442000CF93DF93EA0189018CE695E00E94C02BCF
:10443000F801D183C08390E080E0DF91CF911F919C
:104440000F910895CF92DF92EF92FF92CF93DF9377
:104450008091600591E0980F90936005882379F032
:1044600021E030E030936205209361058093600580
:10447000DF91CF91FF90EF90DF90CF9008957894E7
:10448000C0913E02D0913F026E8D7F8D88A199A18F
:1044900034D120E030E040E85FE4E5D16B017C01FD
:1044A0006A8D7B8D8C8D9D8D28D19B01AC01C701C0
:1044B000B6018AD0F6D06B017C010E94B002B70130
:1044C000A60190E080E00E942F02F89480916005A0
:1044D0008150CCCFCF93DF9310920508109204083F
:1044E0009CD4B9DEC0913E02D0913F02198218825D
:1044F0006FEF7FEFCB010E94A50270E060E090E0DB
:1045000080E00E9438010097A9F50E94CD03F8943D
:104510007894BE016A5D7F4F8A819B810E943B0136
:10452000892B59F46FEF7FEFCB010E94C6010E94E7
:104530009F02882311F081E08AA7F894DDDE0E94B3
:10454000A202811104C00E949F0291E0811190E0BB
:104550009093040878940E945B0AEC01789480910F
:10456000040881110AC00E9444040E948802F89441
:1045700090E080E0DF91CF9108950E9486020E9432
:10458000A20291E0811106C00E949F0291E0811178
:1045900001C090E0909305089091050881E0911189
:1045A00080E080930408809105088111C4DE219782
:1045B00029F40E945B0A892B09F4C7DE0E945B0A7A
:1045C000EC01C1DECCCF5058BB27AA270ED00DC1BD
:1045D000FED030F003D120F031F49F3F11F41EF4EF
:1045E000F3C00EF4E095E7FBE9C0E92F0FD180F3AB
:1045F000BA17620773078407950718F071F49EF5E0
:1046000027C10EF4E0950B2EBA2FA02D0B01B90196
:1046100090010C01CA01A0011124FF27591B99F038
:10462000593F50F4503E68F11A16F040A22F232F44
:10463000342F4427585FF3CF469537952795A79594
:10464000F0405395C9F77EF41F16BA0B620B730B3B
:10465000840BBAF09150A1F0FF0FBB1F661F771FAC
:10466000881FC2F70EC0BA0F621F731F841F48F461
:10467000879577956795B795F7959E3F08F0B3CFE7
:104680009395880F08F09927EE0F979587950895D1
:1046900071D008F481E0089504D06894B111D9C0B4
:1046A0000895BCD088F09F5790F0B92F9927B75143
:1046B000A0F0D1F0660F771F881F991F1AF0BA95E6
:1046C000C9F712C0B13081F0C3D0B1E00895C0C0C5
:1046D000672F782F8827B85F39F0B93FCCF38695DC
:1046E00077956795B395D9F73EF490958095709539
:1046F00061957F4F8F4F9F4F0895E89409C097FBB6
:104700003EF490958095709561957F4F8F4F9F4FA8
:104710009923A9F0F92F96E9BB279395F6958795EC
:1047200077956795B795F111F8CFFAF4BB0F11F4AF
:1047300060FF1BC06F5F7F4F8F4F9F4F16C0882356
:1047400011F096E911C0772321F09EE8872F762F8C
:1047500005C0662371F096E8862F70E060E02AF0CD
:104760009A95660F771F881FDAF7880F96958795B9
:1047700097F90895990F0008550FAA0BE0E8FEEF8E
:1047800016161706E807F907C0F012161306E40715
:10479000F50798F0621B730B840B950B39F40A260E
:1047A00061F0232B242B252B21F408950A2609F4EC
:1047B000A140A6958FEF811D811D089597F99F67F0
:1047C00080E870E060E008959FEF80EC0895002499
:1047D0000A941616170618060906089500240A9466
:1047E00012161306140605060895092E0394000CEC
:1047F00011F4882352F0BB0F40F4BF2B11F460FF7B
:1048000004C06F5F7F4F8F4F9F4F089557FD9058A3
:10481000440F551F59F05F3F71F04795880F97FB84
:10482000991F61F09F3F79F087950895121613063E
:104830001406551FF2CF4695F1DF08C0161617066D
:104840001806991FF1CF86957105610508940895A2
:10485000E894BB2766277727CB0197F908958ADF6D
:1048600008F48FEF08950BD0C0CFB1DF28F0B6DF8A
:1048700018F0952309F0A2CFA7CF1124EACFC6DF05
:10488000A0F3959FD1F3950F50E0551F629FF00163
:10489000729FBB27F00DB11D639FAA27F00DB11DBC
:1048A000AA1F649F6627B00DA11D661F829F222745
:1048B000B00DA11D621F739FB00DA11D621F839FCC
:1048C000A00D611D221F749F3327A00D611D231FA2
:1048D000849F600D211D822F762F6A2F11249F57F0
:1048E00050408AF0E1F088234AF0EE0FFF1FBB1F13
:1048F000661F771F881F91505040A9F79E3F5105B2
:1049000070F05CCFA6CF5F3FECF3983EDCF386956A
:1049100077956795B795F795E7959F5FC1F7FE2B5C
:10492000880F911D9695879597F908950895883079
:1049300008F075C0E82FF0E0EE0FFF1FE35DFD4FBC
:10494000718360838150873008F03CC0E82FF0E02D
:104950008827E355FB4D8F4F72C7EA24B424BC244B
:10496000C824D524F6240325809169008C7F482B28
:1049700040936900E89A089580916900837F440F0D
:10498000551F440F551F482B40936900E99A08951D
:10499000809169008F7C74E0440F551F7A95E1F790
:1049A000482B40936900EA9A0895809169008F73BB
:1049B00066E0440F551F6A95E1F7482B4093690064
:1049C000EB9A089580916A008C7F482B40936A008F
:1049D000EC9A089580916A00837F440F551F440F1D
:1049E000551F482B40936A00ED9A089580916A0004
:1049F0008F7C24E0440F551F2A95E1F7482B409304
:104A00006A00EE9A089580916A008F7396E0440FD1
:104A1000551F9A95E1F7482B40936A00EF9A089545
:104A20001F920F920FB60F9211240BB60F922F9375
:104A30003F934F935F936F937F938F939F93AF9326
:104A4000BF93EF93FF93E0913102F09132021995F9
:104A5000FF91EF91BF91AF919F918F917F916F9156
:104A60005F914F913F912F910F900BBE0F900FBE12
:104A70000F901F9018951F920F920FB60F9211244E
:104A80000BB60F922F933F934F935F936F937F9348
:104A90008F939F93AF93BF93EF93FF93E091330274
:104AA000F09134021995FF91EF91BF91AF919F91D1
:104AB0008F917F916F915F914F913F912F910F90C7
:104AC0000BBE0F900FBE0F901F9018951F920F9264
:104AD0000FB60F9211240BB60F922F933F934F9363
:104AE0005F936F937F938F939F93AF93BF93EF9356
:104AF000FF93E0913502F09136021995FF91EF9105
:104B0000BF91AF919F918F917F916F915F914F91E5
:104B10003F912F910F900BBE0F900FBE0F901F90E3
:104B200018951F920F920FB60F9211240BB60F9289
:104B30002F933F934F935F936F937F938F939F93A5
:104B4000AF93BF93EF93FF93E0913702F091380258
:104B50001995FF91EF91BF91AF919F918F917F91A7
:104B60006F915F914F913F912F910F900BBE0F90DE
:104B70000FBE0F901F9018951F920F920FB60F92B5
:104B800011240BB60F922F933F934F935F936F9324
:104B90007F938F939F93AF93BF93EF93FF93E09196
:104BA0002D02F0912E021995FF91EF91BF91AF91D7
:104BB0009F918F917F916F915F914F913F912F9135
:104BC0000F900BBE0F900FBE0F901F9018951F9265
:104BD0000F920FB60F9211240BB60F922F933F93A3
:104BE0004F935F936F937F938F939F93AF93BF93F5
:104BF000EF93FF93E0912F02F09130021995FF910E
:104C0000EF91BF91AF919F918F917F916F915F9144
:104C10004F913F912F910F900BBE0F900FBE0F90B1
:104C20001F9018951F920F920FB60F9211240BB67A
:104C30000F922F933F934F935F936F937F938F9335
:104C40009F93AF93BF93EF93FF93E0913902F0915D
:104C50003A021995FF91EF91BF91AF919F918F917A
:104C60007F916F915F914F913F912F910F900BBE6C
:104C70000F900FBE0F901F9018951F920F920FB6B6
:104C80000F9211240BB60F922F933F934F935F9384
:104C90006F937F938F939F93AF93BF93EF93FF9304
:104CA000E0913B02F0913C021995FF91EF91BF9189
:104CB000AF919F918F917F916F915F914F913F91B4
:104CC0002F910F900BBE0F900FBE0F901F90189555
:104CD0001F920F920FB60F9211242F933F938F9331
:104CE0009F93AF93BF938091640590916505A091C8
:104CF0006605B09167053091630523E0230F2D37DA
:104D000058F50196A11DB11D20936305809364059C
:104D100090936505A0936605B0936705809168053B
:104D200090916905A0916A05B0916B050196A11D4E
:104D3000B11D8093680590936905A0936A05B093AF
:104D40006B05BF91AF919F918F913F912F910F90E4
:104D50000FBE0F901F90189526E8230F0296A11DF5
:104D6000B11DD2CF3FB7F894809168059091690545
:104D7000A0916A05B0916B0526B5A89B05C02F3F91
:104D800019F00196A11DB11D3FBFBA2FA92F982F71
:104D90008827BC01CD01620F711D811D911D42E06C
:104DA000660F771F881F991F4A95D1F708958F9234
:104DB0009F92AF92BF92CF92DF92EF92FF926B01E0
:104DC0007C01D0DF4B015C01C114D104E104F1048A
:104DD000D9F003D5C7DF681979098A099B09683EAC
:104DE00073408105910580F321E0C21AD108E108E2
:104DF000F10888EE880E83E0981EA11CB11CC11436
:104E0000D104E104F10431F7FF90EF90DF90CF90EF
:104E1000BF90AF909F908F900895789484B58260F2
:104E200084BD84B5816084BD85B5826085BD85B54E
:104E3000816085BDEEE6F0E0808181608083E1E8FD
:104E4000F0E0108280818260808380818160808335
:104E5000E0E8F0E0808181608083E1EBF0E0808138
:104E600084608083E0EBF0E0808181608083E1E911
:104E7000F0E0808182608083808181608083E0E9CE
:104E8000F0E0808181608083E1EAF0E080818260EF
:104E90008083808181608083E0EAF0E080818160AE
:104EA0008083E1E2F1E080818260808380818160A3
:104EB0008083E0E2F1E0808181608083EAE7F0E0D6
:104EC0008081846080838081826080838081816032
:104ED00080838081806880831092C1000895815012
:104EE000823108F059C0E82FF0E08827E658F84DE5
:104EF0008F4FA5C49A279E278C2792279627CC27C9
:104F0000A127A727AB27B127B527B927BF27C327D5
:104F1000CC27C727CD27D127809180008F7780931A
:104F200080000895809180008F7DF9CF809180006E
:104F3000877FF5CF84B58F7784BD089584B58F7D45
:104F4000FBCF8091B0008F778093B000089580915F
:104F5000B0008F7DF9CF809190008F778093900083
:104F60000895809190008F7DF9CF80919000877F88
:104F7000F5CF8091A0008F778093A0000895809155
:104F8000A0008F7DF9CF8091A000877FF5CF809121
:104F900020018F77809320010895809120018F7DDB
:104FA000F9CF80912001877FF5CFCF93DF9390E0F9
:104FB000FC01E65DFE4F249180599E4FFC018491D7
:104FC0008823C9F090E0880F991FFC01E651FE4F3D
:104FD000A591B491FC01E053FE4FC591D4916111AC
:104FE0000DC09FB7F8948C91209582238C93888173
:104FF000282328839FBFDF91CF910895623051F419
:105000009FB7F8943C91822F809583238C93E881FD
:105010002E2BEFCF8FB7F894EC912E2B2C938FBFC4
:10502000EACF1F93CF93DF93282F30E0F901EC51A3
:10503000FF4F8491F901E65DFE4FD491F901E059EB
:10504000FE4FC491CC23A1F0162F811148DFEC2F25
:10505000F0E0EE0FFF1FE053FE4FA591B4918FB724
:10506000F894EC91111108C0D095DE23DC938FBF2A
:10507000DF91CF911F910895DE2BF8CFCF93DF936F
:10508000282F30E0F901EC51FF4F8491F901E65DE2
:10509000FE4FD491F901E059FE4FC491CC2399F011
:1050A00081111DDFEC2FF0E0EE0FFF1FEA54FE4FE1
:1050B000A591B491EC91ED2381E090E009F480E0BA
:1050C000DF91CF91089580E090E0FACFFC01918DBF
:1050D000228D892F90E0805C9F4F821B91098F73F6
:1050E00099270895FC01918D828D981731F0828D5A
:1050F000E80FF11D858D90E008958FEF9FEF0895E3
:10510000FC01918D828D981761F0A28DAE0FBF2F9B
:10511000B11D5D968C91928D9F5F9F73928F90E0F1
:1051200008958FEF9FEF0895FC01538D448D252F37
:1051300030E0842F90E0821B930B541710F0CF9631
:10514000089501970895FC01A48DA80FB92FB11DF2
:10515000A35ABF4F2C91848D90E001968F739927AD
:10516000848FA689B7892C93A089B1898C9183708B
:1051700080648C93938D848D981306C00288F38984
:10518000E02D80818F7D80830895CF93DF93EC01A4
:10519000888D8823B1F0AA89BB89E889F9898C9127
:1051A00085FD03C0808186FD0CC00FB607FCF7CFDC
:1051B0008C9185FFF2CF808185FFEDCFCE01C3DFDB
:1051C000EACFDF91CF910895EF92FF920F931F9353
:1051D000CF93DF93EC0181E0888F9B8D8C8D9813AA
:1051E0001AC0E889F989808185FF15C09FB7F894B6
:1051F000EE89FF896083E889F98980818370806402
:1052000080839FBF81E090E0DF91CF911F910F914C
:10521000FF90EF900895F62E0B8D10E00F5F1F4F5B
:105220000F731127E02E8C8D8E110BC00FB607FC6B
:10523000FACFE889F989808185FFF5CFCE0183DF38
:10524000F2CFEB8DEC0FFD2FF11DE35AFF4FF082F3
:105250009FB7F8940B8FEA89FB8980818062D0CF59
:10526000CF92DF92EF92FF921F93CF93DF93EC01E7
:105270006A017B01122FE889F98982E08083C114D9
:1052800081EED806E104F10499F060E079E08DE365
:1052900090E0A7019601B1D221503109410951098D
:1052A0005695479537952795211580E1380790F059
:1052B000E889F989108260E874E88EE190E0A7013E
:1052C00096019BD2215031094109510956954795C4
:1052D00037952795EC85FD853083EE85FF85208306
:1052E000188EEC89FD891083EA89FB8980818061B1
:1052F0008083EA89FB89808188608083EA89FB89D1
:10530000808180688083EA89FB8980818F7D8083AA
:10531000DF91CF911F91FF90EF90DF90CF90089594
:105320001F920F920FB60F9211240BB60F922F936C
:105330008F939F93EF93FF93E0917C05F0917D0510
:105340008081E0918205F091830582FD1DC09081EE
:10535000809185058F5F8F7320918605821741F0BC
:10536000E0918505F0E0E459FA4F958F809385052B
:10537000FF91EF919F918F912F910F900BBE0F9006
:105380000FBE0F901F9018958081F2CF1F920F9241
:105390000FB60F9211240BB60F922F933F934F939A
:1053A0005F936F937F938F939F93AF93BF93EF938D
:1053B000FF938CE695E0C7DEFF91EF91BF91AF912F
:1053C0009F918F917F916F915F914F913F912F911D
:1053D0000F900BBE0F900FBE0F901F901895ECE62C
:1053E000F5E01382128288EE93E0A0E0B0E08483BF
:1053F0009583A683B7838CED92E09183808385ECBF
:1054000090E09587848784EC90E09787868780EC8E
:1054100090E0918B808B81EC90E0938B828B82EC7F
:1054200090E0958B848B86EC90E0978B868B118E29
:10543000128E138E148E08951F920F920FB60F9234
:1054400011240BB60F922F938F939F93EF93FF939B
:10545000E0911906F0911A068081E0911F06F09103
:10546000200682FD1DC09081809122068F5F8F7380
:1054700020912306821741F0E0912206F0E0E75FD9
:10548000F94F958F80932206FF91EF919F918F9115
:105490002F910F900BBE0F900FBE0F901F9018957D
:1054A0008081F2CF1F920F920FB60F9211240BB68C
:1054B0000F922F933F934F935F936F937F938F93AD
:1054C0009F93AF93BF93EF93FF9389E096E03BDE0A
:1054D000FF91EF91BF91AF919F918F917F916F91CC
:1054E0005F914F913F912F910F900BBE0F900FBE88
:1054F0000F901F901895E9E0F6E01382128288EE73
:1055000093E0A0E0B0E084839583A683B7838CED1D
:1055100092E0918380838DEC90E0958784878CEC7A
:1055200090E09787868788EC90E0918B808B89EC60
:1055300090E0938B828B8AEC90E0958B848B8EEC41
:1055400090E0978B868B118E128E138E148E089599
:105550001F920F920FB60F9211240BB60F922F933A
:105560008F939F93EF93FF93E091B606F091B70668
:105570008081E091BC06F091BD0682FD1DC0908146
:105580008091BF068F5F8F732091C006821741F014
:10559000E091BF06F0E0EA55F94F958F8093BF0682
:1055A000FF91EF919F918F912F910F900BBE0F90D4
:1055B0000FBE0F901F9018958081F2CF1F920F920F
:1055C0000FB60F9211240BB60F922F933F934F9368
:1055D0005F936F937F938F939F93AF93BF93EF935B
:1055E000FF9386EA96E0AFDDFF91EF91BF91AF9117
:1055F0009F918F917F916F915F914F913F912F91EB
:105600000F900BBE0F900FBE0F901F901895E6EAFB
:10561000F6E01382128288EE93E0A0E0B0E084838B
:105620009583A683B7838CED92E09183808385ED8B
:1056300090E09587848784ED90E09787868780ED5A
:1056400090E0918B808B81ED90E0938B828B82ED4B
:1056500090E0958B848B86ED90E0978B868B118EF6
:10566000128E138E148E08951F920F920FB60F9202
:1056700011240BB60F922F938F939F93EF93FF9369
:10568000E0915307F09154078081E0915907F09120
:105690005A0782FD1DC0908180915C078F5F8F73D8
:1056A00020915D07821741F0E0915C07F0E0ED5B2F
:1056B000F84F958F80935C07FF91EF919F918F91A9
:1056C0002F910F900BBE0F900FBE0F901F9018954B
:1056D0008081F2CF1F920F920FB60F9211240BB65A
:1056E0000F922F933F934F935F936F937F938F937B
:1056F0009F93AF93BF93EF93FF9383E497E023DDF2
:10570000FF91EF91BF91AF919F918F917F916F9199
:105710005F914F913F912F910F900BBE0F900FBE55
:105720000F901F901895E3E4F7E01382128288EE41
:1057300093E0A0E0B0E084839583A683B7838CEDEB
:1057400092E09183808385E391E09587848784E369
:1057500091E09787868780E391E0918B808B81E34E
:1057600091E0938B828B82E391E0958B848B86E32F
:1057700091E0978B868B118E128E138E148E089566
:10578000AF92BF92CF92DF92EF92FF920F931F934F
:10579000CF93DF936C017B018B01040F151FEB018D
:1057A0005E01AE18BF08C017D10759F06991D60144
:1057B000ED91FC910190F081E02DC6011995892BA6
:1057C00079F7C501DF91CF911F910F91FF90EF9075
:1057D000DF90CF90BF90AF9008950895DB018F9335
:1057E0009F9350D0BF91AF91A29F800D911DA39F19
:1057F000900DB29F900D11240895A1E21A2EAA1BBC
:10580000BB1BFD010DC0AA1FBB1FEE1FFF1FA21770
:10581000B307E407F50720F0A21BB30BE40BF50B6D
:10582000661F771F881F991F1A9469F760957095F6
:10583000809590959B01AC01BD01CF010895EE0FBD
:10584000FF1F881F8BBF0790F691E02D199405D09C
:10585000332312F48A1B9B0B10C0A29FB001B39F8D
:10586000C001A39F700D811D1124911DB29F700D69
:10587000811D1124911D0895F0DFB7FF0895821B4B
:10588000930B0895EADFA59F900DB49F900DA49F00
:10589000800D911D11240895FB01DC0102C00190CF
:1058A0000D9241505040D8F70895DC0101C06D932E
:0C58B00041505040E0F70895F894FFCFFD
:1058BC000000000000009041000098419352020348
:1058CC00FEFFFFFF01E8030000FFFF00000000FFE8
:1058DC00FFFFFFFFFFFFFFFFFFFFFFFFFF96249679
:1058EC002496249624962496249624962401FA022F
:1058FC00FF00910CBD0CFE00770C170AFD00090C83
:10590C00630CFC004F0C170AF600400D170AF5004B
:10591C00160C7F0DF400090D960DDE0015118D137C
:10592C00DD006D12170ADA00260F2E0FD900A8130E
:10593C003E0FE2000E0E170AE100490E170AE000B6
:10594C00BE0E170AD6002116170AD5005510170AD5
:10595C00D400E10F170AD300520F170AF0008A1671
:10596C00170AED004716170A01000100010010008C
:10597C00100020000001FFFFFFFFFFFFFFFFFFFFF4
:10598C00FFFFFFFF0504030200000000E428C02B0A
:0A599C009428C52866288028722888
:00000001FF
