:1000000005C100000C94E22B0C940D2C0C94382CA0
:100010000C94632C0C948E2C0C94B92C0C94E42C22
:100020000C940F2D24C1000022C1000020C100004B
:100030001EC100001CC100001AC1000018C1000050
:1000400016C1000014C1000012C1000010C1000060
:100050000EC100000CC100000AC100000C943A2D32
:1000600006C100000C9436310C946C3100C10000C4
:10007000FEC00000FCC00000FAC00000F8C0000094
:10008000F6C00000F4C00000F2C00000F0C00000A4
:100090000C94C2310C94F831EAC00000E8C00000B2
:1000A000E6C00000E4C00000E2C00000E0C00000C4
:1000B000DEC00000DCC00000DAC00000D8C00000D4
:1000C000D6C00000D4C000000C94B6270C944E3269
:1000D0000C948432CCC000000C94DA320C941033AF
:1000E000C6C0000000000A0B02090C0D0E08070331
:1000F00004010000000000000000000000000000FB
:1001000000000000000000000000000000000000EF
:1001100012111000000000000000000000000000AC
:100120000000000000000000000001021020200874
:100130000810204010204080020102010804020142
:1001400001020408102040808040201008040201B1
:10015000800402018040201008040201080402010A
:100160000102040810204080010204081020408091
:1001700005050505070508080808020202020A0A23
:100180000808040404040101010101010101030341
:10019000030303030303040707070C0C0C0C0C0CEC
:1001A0000C0C0202020206060606060606060B0BE9
:1001B0000B0B0B0B0B0B000020002300260029006B
:1001C0002C002F003200000100000301060109018C
:1001D00000002200250028002B002E0031003400F2
:1001E00002010000050108010B01000021002400AC
:1001F00027002A002D003000330001010000040117
:1002000007010A0195312132AD32393311241FBE65
:10021000CFEFD1E2DEBFCDBF00E00CBF13E0A0E026
:10022000B2E0EAEEF7E600E00BBF02C007900D92E5
:10023000A234B107D9F728E0A2E4B3E001C01D92CF
:10024000A93DB207E1F711E0C6E0D1E000E006C049
:1002500021970109802FFE010E94B633C230D107D9
:1002600080E00807A9F70E94D2280C94F333C8CE87
:10027000CF92DF92EF92FF92CF93882351F16A01E0
:100280007B01CFEFC80F20E030E0A901CB01B60120
:100290000E94B12987FF11C0C701B60190580E9482
:1002A000222A9B01AC016C2F70E090E080E0CF919E
:1002B000FF90EF90DF90CF90B2C0C701B6010E94CF
:1002C0001D2A8C2FCF91FF90EF90DF90CF900C9450
:1002D000412ECF91FF90EF90DF90CF9008950F9334
:1002E0001F938B019C0183E0369527951795079501
:1002F0008A95D1F70E5B1C4F462F477021E030E006
:10030000F90102C0EE0FFF1F4A95E2F7AF01F801B5
:1003100020812423CB010196211102C090E080E0CE
:100320001F910F9108950F931F938B019C0183E000
:1003300036952795179507958A95D1F7677081E0CF
:1003400090E001C0880F6A95EAF7F801EE5BFC4F78
:100350002081452B31F48095822380831F910F915A
:100360000895822BFACF2F923F924F925F926F9215
:100370007F928F929F92AF92BF92CF92DF92EF9235
:10038000FF920F931F93CF93DF93D62EC72E782E15
:10039000692E49015A01280161E08D2D0E947B2FB1
:1003A000CD2DDC2D8E010F5F1F4FA8016D2D7C2DF3
:1003B000872D962DB8DF20E030E0A901C201B701FA
:1003C0000E94002B181664F4C201B7010E94222A71
:1003D0002B01C501B4010E94222AA201CE0123D023
:1003E000C801DF91CF911F910F91FF90EF90DF90A7
:1003F000CF90BF90AF909F908F907F906F905F90C5
:100400004F903F902F900895882341F08150682F9E
:1004100070E090E080E050E040E085CF0895862FC6
:10042000B9010C94412E9C01FC01EC51FF4FE49169
:10043000E150E231E0F4F0E08827EE5DFD4F8F4FB0
:100440000C94B63334023B023E0255026A02370274
:100450007F028B028F02A602BB02D002E702FC02DF
:100460003702110328033D0384B5806884BD60E032
:10047000822F0C94B72F84B58062F8CF80918000D2
:100480008C7F82608093800080918100807E80617B
:10049000682B609381005093870040938600809181
:1004A0008000806880938000E2CF809180008C7F04
:1004B00082608093800080918100807E8061682BC3
:1004C0006093810050938700409386008091800064
:1004D0008062E8CF809180008C7F82608093800072
:1004E00080918100807E8061682B609381005093B1
:1004F000870040938600809180008860D3CF8091F0
:10050000B00080688093B0008091B100887F682B34
:100510006093B100ACCF8091B0008062F3CF809146
:1005200090008C7F82608093900080919100807E0B
:100530008061682B609391005093970040939600E0
:100540008091900080688093900091CF809190007E
:100550008C7F82608093900080919100807E80618A
:10056000682B609391005093970040939600809180
:1005700090008062E8CF809190008C7F82608093B1
:10058000900080919100807E8061682B6093910043
:100590005093970040939600809190008860D3CF4D
:1005A0008091A0008C7F82608093A0008091A10048
:1005B000807E8061682B6093A1005093A7004093D8
:1005C000A6008091A00080688093A00050CF809109
:1005D000A0008C7F82608093A0008091A100807E2B
:1005E0008061682B6093A1005093A7004093A60000
:1005F0008091A0008062E8CF8091A0008C7F826013
:100600008093A0008091A100807E8061682B609320
:10061000A1005093A7004093A6008091A00088609D
:10062000D3CF809120018C7F8260809320018091C4
:100630002101807E8061682B609321015093270106
:1006400040932601809120018068809320010FCF84
:10065000809120018C7F8260809320018091210114
:10066000807E8061682B6093210150932701409325
:100670002601809120018062E8CF809120018C7F4B
:1006800082608093200180912101807E8061682BAF
:10069000609321015093270140932601809120010E
:1006A0008860D3CF90E080E008950F931F93009768
:1006B00009F488C06115710509F484C000916802CD
:1006C0001091690220916A0230916B020E3F1F4F18
:1006D0002F4F3F4F09F067C04FEF5FEFBA014093D4
:1006E00068025093690260936A0270936B024091B2
:1006F00068025091690260916A0270916B02DC019C
:100700001296ED91FC9180819181A281B3818093B9
:10071000B9039093BA03A093BB03B093BC03848145
:100720009581A681B7818093B5039093B603A0937A
:10073000B703B093B80380859185A285B385809374
:10074000B1039093B203A093B303B093B403848531
:100750009585A685B7858093AD039093AE03A0934E
:10076000AF03B093B0031092A9031092AA031092A2
:10077000AB031092AC030E94BC0C81EE9CE0909302
:100780004C0380934B0390934E0380934D03F3D718
:10079000009731F421E030E03093BE032093BD0395
:1007A0001F910F91089500916802109169022091A4
:1007B0006A0230916B02DB010D931D932D933C93E4
:1007C000139795CF8FEF9FEFEBCF8F929F92AF92C2
:1007D000BF92CF92DF92EF92FF921F93CF93DF935E
:1007E0004B015C011091C00382E090E09093BE0346
:1007F0008093BD0381149104A104B10441F480915C
:10080000C003811104C08091BF03C1E08111C0E029
:10081000C12CD12C76018091C003811106C080913A
:10082000BF03811102C0CC23D9F083E090E0909304
:10083000BE038093BD03CC2379F1CCE9DFEF111126
:1008400002C00E944510CE01DF91CF911F91FF9011
:10085000EF90DF90CF90BF90AF909F908F900895D2
:100860006AE070E080E090E00E94A92D80E1C80E6F
:1008700087E2D81EE11CF11C8FEF88169806A806A7
:10088000B80631F0C1E08C149D04AE04BF0408F03A
:10089000C0E080E09CD7BFCFD0E0C0E0D0CFCF9207
:1008A000DF92EF92FF920F931F93CF93DF938F3FCF
:1008B000910511F008F045C02091BD033091BE03B1
:1008C0002330310539F02091BD033091BE03213032
:1008D000310531F424E030E03093BE032093BD03B2
:1008E0006A017B01EC0182309105B0F011E0AE01AC
:1008F000C701B6013FD7AB01BC0190E080E01123F6
:1009000011F1CE01DF91CF911F910F91FF90EF90E8
:10091000DF90CF900C945A128C01000F111F055BD1
:100920001C4FD8018D919C91892B01F30E9461127B
:100930000297E1F6D801ED91FC91CE011995182F9F
:10094000D6CF8FEF9FEFDF91CF911F910F91FF9047
:10095000EF90DF90CF90089580E039C7CF93DF9379
:1009600086E090E09093BE038093BD0389D7EC01AD
:10097000EBE4F3E084E0DF011D928A95E9F70E9441
:10098000DD0F1092BE031092BD03CE01DF91CF9117
:1009900008958091BF0308958091A80308956093FE
:1009A00068027093690280936A0290936B0290E0F0
:1009B00080E008952F923F924F925F926F927F92C4
:1009C0008F929F92AF92BF92CF92DF92EF92FF925F
:1009D0000F931F93CF93DF9300D000D000D01F92CE
:1009E000CDB7DEB71F9281E08F9368E3862E62E079
:1009F000962EAA24A394B12CE4E3CE2EE2E0DE2EC0
:100A0000EE24E394F12C07E612E021E030E046E624
:100A100052E065EB78E081E998E00E94B7264091CA
:100A2000640250916502A0919108B09192089A01D8
:100A30000E94BE336093890870938A0880938B0864
:100A400090938C080091C9081091CA082091CB0896
:100A50003091CC08601B710B820B930B6093810863
:100A6000709382088093830890938408A0919308E0
:100A7000B09194089A010E94BE3360938D087093E0
:100A80008E0880938F08909390080091CD08109164
:100A9000CE082091CF083091D008601B710B820BDB
:100AA000930B6093850870938608809387089093D2
:100AB00088080091B9081091BA08C0907B03D090C3
:100AC0007C03E0907D03F0907E03D80154968D90D6
:100AD0009D90AD90BC9057970F900F90A7019601F5
:100AE000C501B4010E94B12987FF59C2109275084F
:100AF0001092760810927708109278088091750805
:100B000090917608A0917708B09178088093790841
:100B100090937A08A0937B08B0937C0880937D081B
:100B200090937E08A0937F08B093800868E070E0FF
:100B300080E090E0D4DB7C019093B4088093B3080C
:100B40002091750830917608409177085091780887
:100B500060913C0270913D0280913E0290913F0273
:100B60000E94042B5B016C01009140021091410234
:100B7000B0914202BD83E0914302E9839B01AC0145
:100B8000B8018B2F9E2F0E94B12987FD16C00091BE
:100B9000440210914502F0914602FD838091470284
:100BA00089839501A601B8018F2F99810E94002B9E
:100BB00018161CF08501CD82D98220E030E04FE785
:100BC00053E4B8018D8199810E94B12918160CF463
:100BD000FDC220E030E0A901B8018D8199810E9419
:100BE000002B87FF04C000E010E01D821982A801DD
:100BF0006D817981C7013CDB69E070E080E090E0C5
:100C00006EDB7C019093AC088093AB08A0907508D4
:100C1000B0907608C0907708D0907808009148028C
:100C200010914902B0914A02BD83E0914B02E983E1
:100C300098014B2F5E2FB501C6010E94002B18169C
:100C4000B4F000914C0210914D02F0914E02FD83E0
:100C500080914F02898398014F2F582FB501C6010B
:100C60000E94B12987FD03C08501CD82D98220E091
:100C700030E04FE753E4B8018D8199810E94B1299A
:100C800018160CF4AAC220E030E0A901B8018D8149
:100C900099810E94002B87FF04C000E010E01D82B4
:100CA0001982A8016D817981C701E2DA6AE070E0FA
:100CB00080E090E014DB7C019093A4088093A3086B
:100CC0002091750830917608409177085091780806
:100CD00060915002709151028091520290915302A2
:100CE0000E94042B5B016C0100915402109155028B
:100CF000B0915602BD83E0915702E9839B01AC019C
:100D0000B8018B2F9E2F0E94B12987FD16C000913C
:100D1000580210915902F0915A02FD8380915B02B2
:100D200089839501A601B8018F2F99810E94002B1C
:100D300018161CF08501CD82D98220E030E04FE703
:100D400053E4B8018D8199810E94B12918160CF4E1
:100D50004BC220E030E0A901B8018D8199810E9449
:100D6000002B87FF04C000E010E01D821982A8015B
:100D70006D817981C7017CDA6BE070E080E090E002
:100D8000AEDA7C0190939C0880939B08A090750834
:100D9000B0907608C0907708D090780800915C02F7
:100DA00010915D02B0915E02BD83E0915F02E98324
:100DB00098014B2F5E2FB501C6010E94002B18161B
:100DC000B4F00091600210916102F0916202FD8323
:100DD00080916302898398014F2F582FB501C60176
:100DE0000E94B12987FD03C08501CD82D98220E010
:100DF00030E04FE753E4B8018D8199810E94B12919
:100E000018160CF4F8C120E030E0A901B8018D817A
:100E100099810E94002B87FF04C000E010E01D8232
:100E20001982A8016D817981C70122DA1F9281E0C0
:100E30008F9388E3882E82E0982EAA24A394B12C65
:100E400024E3C22E22E0D22EEE24E394F12C07E616
:100E500012E021E030E046E652E065EB78E081E91F
:100E600098E00E94DC268091890890918A08A091E0
:100E70008B08B0918C088093C9089093CA08A093FE
:100E8000CB08B093CC0880918D0890918E08A091EA
:100E90008F08B09190088093CD089093CE08A093CE
:100EA000CF08B093D008C0907F03D0908003E0902B
:100EB0008103F0908203BFEFCB1ADB0AEB0AFB0A37
:100EC000C0927F03D0928003E0928103F09282036C
:100ED0000F900F90C114D104E104F10499F48091B2
:100EE000830390918403A0918503B09186030196BA
:100EF000A11DB11D8093830390938403A093850368
:100F0000B09386038090870390908803A090890314
:100F1000B0908A036091830370918403809185036C
:100F2000909186030E944E2AA50194010E94042BF1
:100F300020E030E040E85FE40E94042B2B013C01FC
:100F4000C701B6010E944E2AA50194010E94042BFC
:100F50009B01AC01C301B2010E944D2960937B0348
:100F600070937C0380937D0390937E032A960FB643
:100F7000F894DEBF0FBECDBFDF91CF911F910F91CF
:100F8000FF90EF90DF90CF90BF90AF909F908F90A9
:100F90007F906F905F904F903F902F900895A701A2
:100FA0009601F80160817181828193810E94002BFA
:100FB00087FF9AC0A7019601C501B4010E94B1291B
:100FC00018160CF094C08091D1089091D2089A83A1
:100FD00089835C01AA0CBB1CAA0CBB1C48018A0CAF
:100FE0009B1CA7019601D4016D917D918D919C91DF
:100FF0000E94002BB4E0AB0EB11CA00EB11E18165F
:101000000CF065C0F4E08F1A9108A7019601D40195
:1010100014966D917D918D919C9117970E94002B54
:1010200018160CF449C02090BB083090BC08898188
:101030009A819093D2088093D108880F991F880FC6
:10104000991F9A878987FC01E00FF11F408051802A
:101050006280738004969A838983FC01E00FF11FFC
:1010600080819181A281B3818D839E83AF83B88774
:101070009C01AD01C301B2010E94B129811146C09A
:10108000A3019201C701B6010E94B12987FF34C0B4
:10109000A985BA85A20DB31DBA83A9838D919D91AF
:1010A0000D90BC91A02D8093750890937608A09325
:1010B0007708B093780822CDE981FA813197FA83D5
:1010C000E983A0CFE981FA813196FA83E983D501DA
:1010D0006D917D918D919D915D01A70196010E9479
:1010E000B12918167CF79FCF1A8219829CCFE4E0B1
:1010F000F0E0FA83E98397CFE981FA812E0E3F1E53
:10110000F10180819181A281B381CDCF89859A85BA
:10111000820D931DDC018D909D90AD90BC90E98176
:10112000FA812E0E3F1ED1018D919D910D90BC91A3
:10113000A02D89839A83AB83BC839C01AD01C5013B
:10114000B4010E94B1298823C1F1A70196016D81E4
:101150007E818F8198850E944C296B017C01A301BF
:1011600092016D817E818F8198850E944C299B011F
:10117000AC01C701B6010E94B5296B017C01AC012D
:101180009B0160E070E080E89FE30E944C29298188
:101190003A814B815C810E94042B2B013C01A5010B
:1011A0009401C701B6010E94042B9B01AC01C3014D
:1011B000B2010E944D294B015C018092750890920A
:1011C0007608A0927708B092780898CC00E010E0FA
:1011D0009FE79D83A3E4A9830ACD00E010E09FE789
:1011E0009D83A3E4A9835DCD00E010E09FE79D838C
:1011F000A3E4A983BCCD00E010E09FE79D83A3E4B6
:10120000A9830FCE8F929F92AF92BF92DF92EF92FF
:10121000FF920F931F93CF93DF93E5E6F3E08BE20A
:10122000DF011D928A95E9F780E090E0A0EFB1E43C
:1012300086A397A3A0A7B1A78AE097EDA3E2BCE39A
:1012400082A393A3A4A3B5A388E394E2A8E3B4E99B
:1012500084839583A683B78384E99DE1A9E9B1E3FB
:1012600080879187A287B38782ED9AEAA7E2BFE1E0
:1012700084879587A687B78783E293E4ABEDBFE1C8
:10128000808B918BA28BB38BA9E5B3E0B383A28350
:10129000EFE4F3E01196FC93EE9385E992E09183FD
:1012A00080839383828395838483978386839187C6
:1012B000808789E793E015969C938E93149789E62F
:1012C00093E013969C938E9312978BE793E0179677
:1012D0009C938E931697E5E7F8E080E2DF011D927C
:1012E0008A95E9F7C5E9D8E082E4FE0111928A9572
:1012F000E9F788E192E09DA38CA380E092E09FA3B0
:101300008EA3DD24D394D092D608812C912C540145
:101310008394898E9A8EAB8EBC8EE12CF12C870142
:10132000A801970168E070E080E090E01CD89F8FF2
:101330008E8FDD8E188AD092D5081D8A898A9A8A66
:10134000AB8ABC8AA801970169E070E080E090E078
:101350000AD89F8B8E8BDD8A1886DFAE1D86898624
:101360009A86AB86BC86A80197016AE070E080E0AF
:1013700090E00E94B3019F878E87DD861882DEAEE3
:101380001D8289829A82AB82BC82A80197016BE0A0
:1013900070E080E090E00E94B3019F838E83DD8245
:1013A000E8A2F9A20AA31BA3809130029091310216
:1013B000A0913202B09133028CAB9DABAEABBFAB10
:1013C00088AF99AFAAAFBBAFDF91CF911F910F91BB
:1013D000FF90EF90DF90BF90AF909F908F90089517
:1013E0008091AD0881112EC081E08093AD0880917D
:1013F000AE089091AF08A091B008B091B1080197E4
:10140000A105B105F9F48091B2088823D9F068E00C
:1014100070E080E090E00E946F019093B4088093A8
:10142000B30840E050E0BA010E94380168E070E083
:1014300080E090E00E946F019093B4088093B3081D
:101440000E9404028091A50881112EC081E0809342
:10145000A5088091A6089091A708A091A808B0912E
:10146000A9080197A105B105F9F48091AA0888237C
:10147000D9F069E070E080E090E00E946F01909305
:10148000AC088093AB0840E050E0BA010E943801FC
:1014900069E070E080E090E00E946F019093AC08FA
:1014A0008093AB080E94040280919D0881112EC098
:1014B00081E080939D0880919E0890919F08A09163
:1014C000A008B091A1080197A105B105F9F4809198
:1014D000A2088823D9F06AE070E080E090E00E94E2
:1014E0006F019093A4088093A30840E050E0BA01F4
:1014F0000E9438016AE070E080E090E00E946F0195
:101500009093A4088093A3080E94040280919508F8
:1015100081112EC081E0809395088091960890916A
:101520009708A0919808B09199080197A105B10575
:10153000F9F480919A088823D9F06BE070E080E09C
:1015400090E00E946F0190939C0880939B0840E07C
:1015500050E0BA010E9438016BE070E080E090E05A
:101560000E946F0190939C0880939B080C94040246
:1015700008954F925F926F927F928F929F92AF9257
:10158000BF92CF92DF92EF92FF920F931F93F89446
:1015900040909C0350909D0360909E0370909F0329
:1015A000C0909003D0909103E0909203F090930349
:1015B000452B09F0A4C09B01AC012419350946094B
:1015C000570929013A01009198031091990320913C
:1015D0009A0330919B0348015901840C951CA61C69
:1015E000B71C80169106A206B306A0F400919403DE
:1015F0001091950320919603309197030F5F1F4F31
:101600002F4F3F4F0093940310939503209396031D
:10161000309397038092980390929903A0929A0333
:10162000B0929B030091940310919503209196032F
:10163000309197038092A0039092A103A092A203FD
:10164000B092A3030093A4031093A5032093A603D1
:101650003093A70360939C0370939D0380939E0334
:1016600090939F03A0E1B7E2A30192010E94D933B6
:101670006C0D7D1D8E1D9F1D6093900370939103D3
:1016800080939203909393030091680210916902F2
:1016900020916A0230916B020F3F1F4F2F4F3F4F37
:1016A000F1F0009168021091690220916A02309174
:1016B0006B020E3F1F4F2F4F3F4F89F0C0906802C3
:1016C000D0906902E0906A02F0906B0221E08C14E5
:1016D0009D04AE04BF0408F420E02093A80378948E
:1016E0001F910F91FF90EF90DF90CF90BF90AF9040
:1016F0009F908F907F906F905F904F9008954B01D7
:101700005C0184189508A608B708A3019201261B5E
:10171000370B480B590B6415750586059705D0F0F6
:1017200082169306A406B50640F420E030E0A90135
:1017300081149104A104B10491F4A0E1B7E20E94E4
:10174000D933A7019601261B370B480B590BCA0149
:10175000B901C5CF82169306A406B50670F7A0E1BD
:10176000B7E2A50194010E94D9336C0D7D1D8E1D39
:101770009F1DB5CFFECECF93DF9300D01F92CDB784
:10178000DEB71C821B821A821982BE016F5F7F4FF7
:10179000CE0103960E94FF2569817A818B819C810D
:1017A0000E94461F009761F4BE016F5F7F4FCE011C
:1017B00003960E940B2669817A818B819C8126D5B4
:1017C0000F900F900F900F90DF91CF910895FF929F
:1017D0000F931F93CF93DF93082F60E070E0CB014E
:1017E0000E94A92DFF24F3940E942F1EEC01892B47
:1017F00089F010E0CE3F8FEFD80769F0002361F148
:1018000060E070E0CB010E94A92D81E090E0892B7F
:1018100059F322C011E01DD5EC01892B21F0CE3FF8
:101820008FEFD80759F711111EC011E0229609F465
:1018300010E00E94DF1DEC01892B21F0CE3F8FEFDD
:10184000D807E1F6111111C011E0CE3F8FEFD80794
:1018500009F410E001110BC0CE01DF91CF911F916F
:101860000F91FF90089511E0E4CF11E0F3CF60E015
:1018700070E0CB010E94A92D1F25812F90E0C7CFDA
:10188000CF93DF931ED6D0E0C0E0892B71F06AE0E1
:1018900070E080E090E00E94A92D81E098DF11D6F1
:1018A0002196C03D27E0D20781F710D60E949A1FEB
:1018B0001092C0031092BF031092B9031092BA03A2
:1018C0001092BB031092BC031092B5031092B603A2
:1018D0001092B7031092B8031092B1031092B203A2
:1018E0001092B3031092B4031092AD031092AE03A2
:1018F0001092AF031092B0031092A9031092AA03A2
:101900001092AB031092AC034EEF5FEF6FEF7FEFDF
:10191000409368025093690260936A0270936B026D
:101920001092A803E0EAF3E028E0DF011D922A9577
:10193000E9F710929C0310929D0310929E0310925F
:101940009F03109298031092990310929A03109299
:101950009B03109294031092950310929603109299
:101960009703109290031092910310929203109299
:101970009303DF91CF9108951092CC031092CD0381
:101980001092CE031092CF031092CB038091D40318
:101990009091D5039093CA038093C9031092C80312
:1019A0001092C7031092C3031092C4031092C50390
:1019B0001092C6031092D1031092D00390E080E001
:1019C0000895CF92DF92EF92FF920F931F93CF93E0
:1019D0008C01892B09F055C02091D4033091D50397
:1019E0008091C9039091CA034091D4035091D503CB
:1019F0005093CA034093C9032817390781F0109206
:101A0000C8031092C7031092C3031092C40310922C
:101A1000C5031092C6031092D1031092D003809197
:101A2000D4039091D503019761F58091D0039091F3
:101A3000D103892B21F480916C02811112C0809115
:101A4000D0039091D1030197E1F48091C303909169
:101A5000C403A091C503B091C6030197A105B105C8
:101A600081F41092C3031092C4031092C503109224
:101A7000C60310926C0282E090E09093D1038093B1
:101A8000D0038091D4039091D503019709F01CC134
:101A90008091EA039091EB038017910709F014C13C
:101AA0008091E6039091E703A091E803B091E903E8
:101AB000009709F409C12091E50321110DC040915F
:101AC000E6035091E7036091E8037091E903452B29
:101AD000462B472B09F4F8C02091D0033091D10355
:101AE0002230310509F0F0C02091C7032111ECC06C
:101AF000FC01C080D180E280F3808091CB038823F9
:101B000009F4D3C08091D7039091D803892B09F4AD
:101B1000FDC02091D7033091D80381E022303105F8
:101B200009F080E02091D7033091D803C1E0213043
:101B3000310549F02091D7033091D803C1E022301C
:101B4000310509F0C0E0882309F456C02091E10373
:101B50003091E2034091E3035091E403C701B601E1
:101B60000E94002B87FD14C02091E1033091E20315
:101B70004091E3035091E4036091CC037091CD0355
:101B80008091CE039091CF030E94B12987FD22C09E
:101B90002091E1033091E2034091E3035091E4038B
:101BA000C701B6010E94002B181634F52091E103FD
:101BB0003091E2034091E3035091E4036091CC0340
:101BC0007091CD038091CE039091CF030E94B129F3
:101BD000811112C08091D9039091DA03A091DB03A7
:101BE000B091DC03892B8A2B8B2B19F481E0809335
:101BF000C80381E08093C703CC2309F456C0209129
:101C0000E1033091E2034091E3035091E403C70103
:101C1000B6010E94B12987FF14C02091E1033091E1
:101C2000E2034091E3035091E4036091CC0370918F
:101C3000CD038091CE039091CF030E94002B87FFAC
:101C400022C02091E1033091E2034091E3035091DF
:101C5000E403C701B6010E94B129811126C0209179
:101C6000E1033091E2034091E3035091E40360917A
:101C7000CC037091CD038091CE039091CF030E944D
:101C8000002B181694F48091D9039091DA03A09157
:101C9000DB03B091DC03892B8A2B8B2B19F481E0B9
:101CA0008093C80381E08093C70381E09091C703CC
:101CB000911180E08093CB03C092CC03D092CD03EE
:101CC000E092CE03F092CF03012B09F067C180911F
:101CD000D0039091D103892BD9F41092D60310929E
:101CE000C70380916C02882379F082E090E09093A2
:101CF000D1038093D00310926C022091D4033091D1
:101D0000D50381E0232BE9F080E01BC081E00ACFFE
:101D100010926C028091D603882349F01092C80378
:101D20001092D1031092D0031092D603EDCF809180
:101D3000D4039091D503892BE1F08091C7031092D1
:101D4000C7032091D0033091D1032230310509F42B
:101D50005EC088F42115310509F448C021303105F1
:101D600009F4F3C01092C8031092C7031092D6036F
:101D700038C081E0E6CF2330310509F4B1C024300A
:101D8000310581F74091C3035091C4036091C503AD
:101D90007091C603411551056105710561F041500F
:101DA0005109610971094093C3035093C4036093BF
:101DB000C5037093C6034091C3035091C40360915F
:101DC000C5037091C603452B462B472BD9F42091B0
:101DD000D2033091D3032130310509F046C010926F
:101DE000C8031092D1031092D0030CC080916C02F2
:101DF000882341F082E090E09093D1038093D00358
:101E000010926C021092C1038091C803CEC0882347
:101E1000C9F38091D9039091DA03A091DB03B091CB
:101E2000DC03181619061A061B060CF07DC08091FB
:101E3000D4039091D503019709F076C08091D9031E
:101E40009091DA03A091DB03B091DC038093C3038C
:101E50009093C403A093C503B093C60383E090E0BE
:101E60009093D1038093D003CDCF4091DD03509167
:101E7000DE036091DF037091E003452B462B472B77
:101E8000A9F01092C8038091DD039091DE03A09128
:101E9000DF03B091E0038093C3039093C403A09346
:101EA000C503B093C60381E090E0DACF882399F0B0
:101EB00080916D0290916E02A0916F02B0917002BC
:101EC0008093C3039093C403A093C503B093C60348
:101ED00084E090E0C5CF1092C80382E090E0C0CFCC
:101EE0008091C3039091C403A091C503B091C60330
:101EF0000097A105B10559F00197A109B109809397
:101F0000C3039093C403A093C503B093C603809109
:101F1000C3039091C403A091C503B091C603892B5C
:101F20008A2B8B2B09F06ECF80916D0290916E02FF
:101F3000A0916F02B0917002892B8A2B8B2B09F430
:101F40004ECF81E08093C803B3CF4091C30350913B
:101F5000C4036091C5037091C60341155105610525
:101F6000710561F041505109610971094093C30342
:101F70005093C4036093C5037093C6034091C30399
:101F80005091C4036091C5037091C603452B462B45
:101F9000472B09F037CF8111C7CF9FCF8091C10365
:101FA000882309F431CF8091C203CF911F910F9103
:101FB000FF90EF90DF90CF9008951092CC03109295
:101FC000CD031092CE031092CF031092CB03109248
:101FD000D1031092D0031092CA031092C903109239
:101FE000EB031092EA031092C8031092C7031092F9
:101FF000C3031092C4031092C5031092C60310923B
:10200000C2031092C1031092E6031092E7031092EC
:10201000E8031092E9031092E5031092E103109295
:10202000E2031092E3031092E40388EE93E0A0E051
:10203000B0E080936D0290936E02A0936F02B09314
:1020400070021092DD031092DE031092DF031092F3
:10205000E0031092D9031092DA031092DB0310927E
:10206000DC031092D8031092D70381E080936C02B6
:102070001092D6031092D5031092D4031092D3037A
:102080001092D20390E080E008958091D403909163
:10209000D503892B19F580916C02882351F080912A
:1020A000D603811106C081E08093C2038093C103EF
:1020B00008952091D60330916C0281E090E03323A3
:1020C00011F090E080E030E082239323892B21F00F
:1020D0001092C20381E0EACF1092C103089582E01A
:1020E00090E0FA01918380838FEF9FEF0895CF9363
:1020F000DF93EA01009711F00E94AF201982188245
:1021000090E080E0DF91CF910895DB01009719F412
:102110008FEF8C9308952EEF2C93FC013F96EF30B8
:10212000F10508F034C08827E756FF4E8F4F0C9416
:10213000B633C510C310C110BF10BD10B910BB100D
:10214000B710B510B310B010AC10A810AE10C71077
:1021500080E311968C93089589E2FBCF82E2F9CF58
:1021600011961C92089583E2F4CF81E2F2CF81E1CF
:10217000F0CF87E2EECF8AE2ECCF80E1EACF84E2D3
:10218000E8CF88E2E6CF86E2E4CF81E3E2CF80E2E7
:10219000E0CF8091F8039091F90308959093F903AB
:1021A0008093F80308958091F70308959091F703C1
:1021B000892B8093F7030895982F90958091F703CA
:1021C00089238093F70308958091F6030895809101
:1021D000F4039091F50308956115710559F0FB0121
:1021E00030E020E070E060E02417350719F0611559
:1021F000710511F0CB010895A081B181A817B9072D
:1022000009F4BF012F5F3F4F3696EECF8091FA035E
:1022100081111CC041D247D29093ED038093EC030F
:102220000E94211A0E94331A9093F1038093F003C5
:102230000E94471D0E944E1D9093EF038093EE0372
:1022400081E08093FA0390E080E0089584EF9FEFAF
:1022500008958F929F92AF92BF92CF92DF92EF92AA
:10226000FF920F931F93CF93DF9300D000D000D045
:102270001F92CDB7DEB71A86198618861F821E8276
:102280001D821C821B821A8219828091FA0307EF39
:102290001FEF882309F48BC08E010D5F1F4F9E0135
:1022A0002B5F3F4FAE01495F5F4FBE01675F7F4FBE
:1022B00090E080E00E94CB1E8C01009721F00596F3
:1022C000029708F0C7C089859A85009709F4EFC086
:1022D000ED80FE802B813C812E0D3F1D4F81588566
:1022E0004217530708F4E3C0E80EF91ED7014C91DA
:1022F0002091F8033091F903232B09F494C0413F56
:1023000008F069C08CE1840F8D3008F483C08DE241
:10231000840F803108F481C088E3840F8B3008F487
:102320007FC095E8C92E90E1D92EEFE6F0E16D81EE
:102330007E81AE014F5F5F4F89859A8519955C015B
:10234000C114D104A1F189809A808114910479F19A
:102350008B819C818815990508F484C010E000E009
:102360004B815C8170E060E0C7010E94EC33011595
:102370001105E9F449815A8169857A858D819E81AB
:10238000680F791FC501F6011995E980FA800D8162
:102390001E812F81388549855A856FEF7FEF81E057
:1023A00090E00E94661E8C01892B09F053C0C80181
:1023B0002A960FB6F894DEBF0FBECDBFDF91CF9146
:1023C0001F910F91FF90EF90DF90CF90BF90AF9053
:1023D0009F908F90089530E020E0220F331FF90185
:1023E000E451FC4F0190F081E02D309709F499CF32
:1023F000842F90E01995009709F493CFDC01129691
:10240000ED91FC9113971496CD90DC90309709F0E4
:102410008ECF1EC021E030E0E0CF22E030E0DDCF03
:1024200023E030E0DACFD12CC12CE7E7F0E14F3FD9
:1024300009F07DCFE091EC03F091ED03309719F4B2
:1024400004EF1FEF0CC08FEF90E019950097B1F6E5
:1024500004EF1FEF89859A85009709F4A8CF0E94A1
:10246000AF20A5CF0E94951F8C0189859A850E9477
:10247000AF2070E060E0C4010E942E1F98878F8318
:102480000E94631E9E838D836F817885611571051F
:1024900059F0C8010E9433229A87898706EF1FEFFF
:1024A000892B09F05BCF5CCF08EF1FEF59CF08EF06
:1024B0001FEFD0CF2091FA032111DAC787EF9FEFEA
:1024C00008958091F8039091F90308950E94531D97
:1024D0000E94AD1CEDD0ECEEF3E088E0DF011D9230
:1024E0008A95E9F71092FA0390E080E0089586E07B
:1024F00090E0FA019183808390E080E0089547E0C6
:1025000050E068E972E068CEDF92EF92FF920F939D
:102510001F93CF93DF938A01EC01C60FD71FE09082
:10252000FE03F090FF03D9800E947D1FD816190684
:1025300078F082E090E0F801918380838EEF9FEF46
:10254000DF91CF911F910F91FF90EF90DF90089551
:10255000EF2841F482E090E0F8019183808384EFDA
:102560009FEFEECF89818093FD0390E00196F80103
:102570009183808390E080E0E3CFCF93DF93EA0103
:102580000E94C01B882321F00E948A1F0E94C11B49
:1025900082E090E0998388838BEF9FEFDF91CF916A
:1025A0000895CF93DF93EB0186E0FB0111928A95AA
:1025B000E9F78FEF8883F7DD898306DE8A8307DEFC
:1025C0009D838C83DF91CF910895CF93DF93EA01B0
:1025D0000E94C31B811109C082E090E09983888327
:1025E00085EF9FEFDF91CF91089590E080E0D6DDF9
:1025F00081E090E09983888390E080E0F3CF0F93AF
:102600001F93CF93DF93EA018C01060F171F0E94DF
:10261000C31B81110BC082E090E09983888385EF12
:102620009FEFDF91CF911F910F910895F801818164
:10263000823038F082E090E0998388838EEF9FEFBC
:10264000F0CF81E090E0AADD88E090E09983888374
:1026500090E080E0E6CFCF93DF930097D1F4EB01D9
:10266000FB01329686E0DF011D928A95E9F78FEF34
:10267000888385E089831A820E947D1F8B830E9454
:102680007C1F9D838C8381E08E838F83DF91CF912C
:102690000895DF91CF9139CD8FE792E19093FC03BC
:1026A0008093FB0308958091FB039091FC030895B0
:1026B0001092FC031092FB0308958091FE03909109
:1026C000FF030895411105C061157105810591054C
:1026D00061F06093FE037093FF0380930004909376
:1026E00001044093020481E0089580E00895FF9280
:1026F0000F931F93CF93DF938A01EC01C60FD71F6F
:10270000F9800E947D1FF816190668F082E090E0BB
:10271000F801918380838EEF9FEFDF91CF911F911E
:102720000F91FF9008956C817D818E819F814B81F7
:10273000C9DF811108C082E090E0F80191838083B5
:1027400084EF9FEFEACF89818093FD0390E00196AB
:10275000F8019183808390E080E0DFCFCF93DF9317
:10276000EA01FC01E60FF71F64817581868197817C
:102770004381A8DF811109C082E090E099838883BA
:1027800084EF9FEFDF91CF91089581E090E09983EE
:10279000888390E080E0F6CFEEEFF3E04081518156
:1027A00062817381480F511D611D711D40835183EA
:1027B000628373830895CF93C091FD034C2F50E043
:1027C0006091FE037091FF0301960E94E3338C2F0A
:1027D000E3DF1092FD03CF910895009799F4809163
:1027E000FE039091FF032FEFFB012083892B59F00B
:1027F0002091FD0330E02F5F3F4F2417350719F478
:10280000CB01D9CF82CC0895009799F48091FE0333
:102810009091FF032FEFFB012083892B59F020912A
:10282000FD0330E02F5F3F4F2417350719F4CB012C
:10283000C2CF6BCC08952DE0AC01249FC001259F31
:10284000900D1124E0910704F0910804E80FF91F9E
:10285000238134812250310981E02230310508F092
:1028600080E008950F931F93CF93DF9300910904A5
:1028700010910A04D0E0C0E080E00C171D0749F475
:1028800091E0811190E0892FDF91CF911F910F91FD
:1028900008958111F5CFCE01CEDF2196EECFA09124
:1028A0000704B0910804109729F120910904309190
:1028B0000A0482179307F0F45DE0589F9001599F36
:1028C000300D1124A20FB31FED91FC911197309799
:1028D00089F012968C91681768F485E0689FE00D86
:1028E000F11D112480819181892B21F081E0928159
:1028F000491708F080E00895EF92FF920F931F931D
:10290000CF93DF93EA01FC01E60FF71F02811381E9
:10291000E480F5804F2D6E2DC801C1DF81110DC0FF
:1029200082E090E0998388838EEF9FEFDF91CF91D3
:102930001F910F91FF90EF900895C8017CDF8823CD
:1029400039F082E090E09983888388EF9FEFEECFA3
:102950001093780200937702E0927902F0927A0263
:1029600081E090E09983888390E080E0DFCFCF9290
:10297000DF92EF92FF920F931F93CF93DF937A0131
:10298000EC01C60FD71FC0907702D090780200915B
:10299000790210917A02412F602FC60180DF8111E8
:1029A00010C082E090E0F701918380838AEF9FEF6F
:1029B000DF91CF911F910F91FF90EF90DF90CF901B
:1029C0000895C60138DF882341F082E090E0F701E6
:1029D0009183808388EF9FEFEBCF4C815D816E8187
:1029E0007F819A8189818F3F41F082E090E0F701F9
:1029F000918380838EEF9FEFDBCFEDE0EC9D900124
:102A0000ED9D300D1124E0910704F0910804E20FD0
:102A1000F31F0190F081E02D25E0029FE00DF11DF4
:102A200011240190F081E02D27E0129FE00DF11DAF
:102A30001124808391838B818283438354836583B4
:102A400076831F5F10937A0281E090E0F701918313
:102A5000808390E080E0ACCFEF92FF920F931F93C2
:102A6000CF93DF937A018C01060F171FC0910704E3
:102A7000D0910804209781F021E030E0F8018281B4
:102A800093814091090450910A048417950710F02E
:102A900030E020E0232B71F482E090E0F701918395
:102AA00080838EEF9FEFDF91CF911F910F91FF9069
:102AB000EF9008954DE0489F9001499F300D1124FB
:102AC000C20FD31FB8DE882341F082E090E0F70107
:102AD0009183808388EF9FEFE6CFF80124813581D1
:102AE00020383105C8F687818111D6CF4181842FE6
:102AF00090E08F7E009741F082E090E0F7019183B3
:102B0000808386EF9FEFCFCF4F833E832D83268137
:102B100028871986223010F421E0288721E030E050
:102B2000F70131832083BFCF88E090E0FA019183E1
:102B3000808390E080E00895FB018FEF808381E146
:102B400081838FEF9FEF9383828380E890E095836A
:102B50008483168217820895FB018FEF808391E0B2
:102B6000918382839383848384E3858381E090E0EF
:102B70009783868308954BE050E062EC72E02CCBA3
:102B80008F929F92BF92CF92DF92EF92FF920F931C
:102B90001F93CF93DF93EA01FC01E60FF71F8281B9
:102BA00093810481B580E0910704F0910804309787
:102BB00091F482E090E0998388838CEF9FEFDF911E
:102BC000CF911F910F91FF90EF90DF90CF90BF902A
:102BD0009F908F9008952091090430910A048217E4
:102BE000930738F082E090E0998388838EEF9FEF1F
:102BF000E6CF2DE0289F6001299FD00C1124EC0D19
:102C0000FD1DE080F180E114F10499F28281081742
:102C100048F785E0089F80011124E00EF11EF701BE
:102C200080819181892B29F6BB20E1F2F7E0BF9EDC
:102C300040011124C4010E946120F7019183808327
:102C4000E0910704F0910804EC0DFD1D0190F08166
:102C5000E02DE00FF11F80819181009739F482E02F
:102C600090E0998388838DEF9FEFA9CFA40170E056
:102C700060E00E94EC338091070490910804C80E34
:102C8000D91EF60180819181080F191FF801B282C7
:102C900081E090E09983888390E080E090CFAF92CC
:102CA000BF92CF92DF92FF920F931F93CF93DF9348
:102CB000EA01FC01E60FF71F82819381F480009105
:102CC0000704109108040115110581F482E090E0D9
:102CD000998388838CEF9FEFDF91CF911F910F91A4
:102CE000FF90DF90CF90BF90AF900895209109049E
:102CF00030910A048217930738F082E090E09983BC
:102D000088838EEF9FEFE8CF2FEF2F0D2C3FA8F792
:102D10002DE0289F6001299FD00C11240C0D1D1D52
:102D2000F80180819181892B89F6F5E0FF9E5001A1
:102D30001124C5010E946120F80191838083E091F4
:102D40000704F0910804EC0DFD1D8081918100972E
:102D500039F482E090E0998388838DEF9FEFBCCFB8
:102D6000A50170E060E00E94EC33E0910704F0916F
:102D70000804EC0DFD1DF28281E090E099838883C8
:102D800090E080E0A9CFCF92DF92EF92FF920F9375
:102D90001F93CF93DF93860F971FFC01028113814E
:102DA0008091070490910804892B81F082E090E0E3
:102DB000FA01918380838CEF9FEFDF91CF911F9178
:102DC0000F91FF90EF90DF90CF900895C801B0E091
:102DD000A0E00197A109B1098F3F9F4FA105B1055F
:102DE00040F082E090E0FA01918380838EEF9FEFC4
:102DF000E4CF7A018DE0809F6001819FD00C112487
:102E0000C6010E946120EC01009741F482E090E04D
:102E1000F701918380838DEF9FEFCFCFA60170E004
:102E200060E00E94EC33D0930804C0930704109331
:102E30000A040093090490E080E02FEF3FEF801731
:102E4000910741F481E090E0F7019183808390E065
:102E500080E0B3CF3C872B8701962D96F0CFCF92A1
:102E6000DF92EF92FF920F931F93CF93DF93EC01CA
:102E7000D12CC12C10E000E0F12CE12C8A818017CC
:102E8000110609F0BCF4AE01455F5F4F63E070E0EE
:102E9000C7010E94DB20009721F02FEF3FEF3C8716
:102EA0002B87DF91CF911F910F91FF90EF90DF90D3
:102EB000CF900895E881F981EC0DFD1D23813481C7
:102EC000C90101960115110519F44F8144FD0496BD
:102ED00061E070E0C3D7E816F90608F47C010F5FE3
:102EE0001F4F85E0C80ED11CC9CFF894209105046E
:102EF0003091060481E02115310509F080E0232B93
:102F000009F0789408954F925F926F927F928F921A
:102F10009F92AF92BF92CF92DF92EF92FF920F9368
:102F20001F93CF93DF933C01660E771EF3018281DE
:102F300093814C01B12CA12CC0910704D0910804BD
:102F4000209769F021E030E06091090470910A0453
:102F50008617970710F030E020E0232BC1F482E0C1
:102F600090E0FA01918380838EEF9FEFDF91CF9104
:102F70001F910F91FF90EF90DF90CF90BF90AF9097
:102F80009F908F907F906F905F904F900895809268
:102F90007B0290927C02A0927D02B0927E026DE054
:102FA000689F9001699F300D1124C20FD31FF30158
:102FB0008181833040F082E090E0FA019183808348
:102FC00086EF9FEFD3CF2A012B813C81232BF1F495
:102FD000288139819F8191FF2EC0232B09F464C081
:102FE00020910C049A81422F490F5527551FBA0191
:102FF00041E050E06138710514F050E040E0452BAD
:1030000009F452C02A87920F90930C0481508230A9
:1030100008F476C06ADF882309F4C7C0F301818110
:10302000813009F480C008F470C0823009F4B5C062
:1030300090E080E090C0232BB9F120910B049A819D
:10304000E22FE90FFF27FF1F41E050E0ED3FF105C0
:1030500014F050E040E0452B39F12A87920F90930D
:103060000B04D4CFA081B181A20FB31F11966C9134
:10307000060F111D0196295F3F4F8417950794F3A2
:10308000C114D104C9F48F8184FF16C035D721E063
:10309000A8014B5F5F4F8417950708F420E0A70154
:1030A0004B5F5F4F21110EC082E090E0F2019183EF
:1030B000808387EF9FEF5ACF1FD721E0A8014F5F92
:1030C0005F4FE9CF88819981E80EF91EF7011483DB
:1030D0000383FFEFCF1ADF0A7A018A818C151D0462
:1030E00009F00CF497CFE881F981EE0DFF1D4281C4
:1030F00050E030E020E010E000E090E080E0BDCF64
:10310000F12CE12CD12CC12CE8CF81E090E09C8304
:103110008B83A8DB882309F48BCF81E090E03ED835
:1031200080E44AD885CF8B859C85019651F083E059
:1031300090E09C838B8382E090E030D880E436D8A6
:1031400077CF22E082169104A104B1047CF4CE0171
:1031500086DE009761F3789422E030E0F20131835B
:103160002083892BF9F08DEF9FEF00CF2D813E81D9
:10317000809171029091720228173907C1F660910F
:10318000750270917602AE01455F5F4F80917302C8
:10319000909174020E94F221DCCF82E090E09C8347
:1031A0008B8346CF90E080E0E1CE82E090E0F201B8
:1031B0009183808385EF9FEFD9CE8F929F92AF92BC
:1031C000BF92CF92DF92EF92FF920F931F93CF9314
:1031D000DF93EA018C01060F171FF801818183300C
:1031E00098F082E090E09983888386EF9FEFDF91EB
:1031F000CF911F910F91FF90EF90DF90CF90BF90F4
:10320000AF909F908F90089580910704909108044B
:10321000892B61F081E090E02091090430910A044B
:10322000232B11F490E080E0892B39F482E090E0C8
:10323000998388838EEF9FEFDACF57DE882309F4D6
:10324000D6C0F8018181813009F48CC0E8F0823069
:1032500099F42091090430910A04E0910704F09157
:10326000080490E080E041E050E02817390709F0B9
:10327000B4C0F8DA811117C0789481E090E09983A6
:10328000888390E080E0B3CF2091090430910A0454
:10329000E0910704F091080490E080E041E050E004
:1032A0002817390741F481E090E00E94CE1080E4B5
:1032B0000E94DC10E1CF63817481672B11F054838D
:1032C000438301963D96ECCFE0910704F09108040A
:1032D000E00FF11F238134812230310569F4238509
:1032E00034852F3F3F4F41F422E0C216D104E10460
:1032F000F1040CF5CF01B3DD4FEFC41AD40AE40A90
:10330000F40A035F1F4F4091090450910A0470E0D2
:1033100060E0C416D506E606F70664F50097A1F24C
:103320007894892B09F4A9CF82E090E0998388836F
:103330008DEF9FEF5CCF45815681209171023091D6
:10334000720242175307C1F6AF01455F5F4F6091AC
:1033500075027091760280917302909174020E94BE
:10336000F221CACF10E000E090E080E0C12CD12C27
:103370007601C9CF0097A1F610E000E0812C912CD6
:10338000540183E0E82EF12C1AC0E0910704F0917B
:103390000804E00FF11F83819481029749F4F482BD
:1033A000E38282E090E00E94CE1080E40E94D6107A
:1033B0008FEF881A980AA80AB80A035F1F4F8091F6
:1033C000090490910A04B0E0A0E088169906AA06C4
:1033D000BB06DCF290E080E0A3CF638174816230B1
:1033E000710511F45483438301963D963ECF82E0EC
:1033F00090E09983888385EF9FEFF9CE0097B9F429
:103400008FEFFB01808320917B0230917C024DE0A5
:10341000429FC001439F900D1124E0910704F09159
:103420000804E80FF91F8285FB01818308950C943D
:10343000851088E090E0FA019183808390E080E03D
:1034400008951092060410920504E7E0F4E086E087
:10345000DF011D928A95E9F78BEB95E190930404C7
:1034600080930304089580910304909104040895C7
:103470002F923F924F925F926F927F928F929F9284
:10348000AF92BF92CF92DF92EF92FF920F931F9372
:10349000CF93DF93CDB7DEB762970FB6F894DEBF58
:1034A0000FBECDBFF89420910504309106042F5F24
:1034B0003F4F30930604209305047894209107042D
:1034C000309108043B832A83232B09F456C12091B1
:1034D000090430910A04232B09F44FC14D875E87FC
:1034E0006F87788B9C878B878A819B819A8B898B4E
:1034F000D12CC12C198210E000E080910904909138
:103500000A04C816D90618F43981332329F1F8942E
:10351000809105049091060401979093060480938E
:1035200005047894C80162960FB6F894DEBF0FBE0A
:10353000CDBFDF91CF911F910F91FF90EF90DF9062
:10354000CF90BF90AF909F908F907F906F905F9043
:103550004F903F902F900895B60190E080E02AD3DD
:103560008887A989BA8917968C91179781FD8DC094
:1035700013968D919C911497039709F086C0159628
:10358000ED91FC91FF83EE832B853C85E217F307D9
:1035900009F07BC0712C612C512C412C63C093D35A
:1035A0009A87898710E04114510431F4A989BA89B6
:1035B00017961C9112951170A989BA89ED91FC9109
:1035C000E60DF71D23803480111169C0BFEF2B1A5F
:1035D0003B0A61E070E0C10141D45C01A989BA896C
:1035E0001B968D919C918F3F980709F45CC0B501A3
:1035F0003AD74C01009709F4BBC0E985FA85E80F7A
:10360000F91FA989BA891A968C91840D80831111AA
:103610004DC08F010F5F1F4F809171029091720218
:10362000AE81BF81A817B90709F09DC081E090E085
:10363000B885BB2311F090E080E0710109851A85FF
:103640009501A401B6019195819591093FD38C0113
:10365000892B11F0C40183D58FEF481A580A95E0E1
:10366000690E711CA989BA8912968C91841515046A
:1036700029F024F0B981BB2309F491CFE885EE232A
:1036800021F0B60190E080E097D2FFEFCF1ADF0A79
:1036900029893A89235F3F4F3A8B298B2ECFE5E06A
:1036A0002E0E311C96CFC5010CD5A3CF8D859E85DE
:1036B000AF85B88981839283A383B4838F010B5F25
:1036C0001F4FAACFE080F180EC81FD81EE0EFF1E3E
:1036D000D70113966D917C9114978C918F3FE1F1F6
:1036E000E1E0F0E002C0EE0FFF1F8A95E2F7CF01A4
:1036F000092E000CAA0BBB0BFB014081518162819A
:10370000738184239523A623B72321E0892B8A2B59
:103710008B2B09F420E0D8012C93D70111968C91C2
:10372000080F111DEA81FB813196FB83EA832C810E
:103730003D81295F3F4F3D832C83A989BA89ED9153
:10374000FC91E60DF71D82812A813B8182171306C9
:1037500011F00CF0B7CF6ACFF701418150E0C801FA
:103760000E94E333DACF1D821C821B821A82E5CFCE
:1037700031E0398306EF1FEF6FCF10E000E0C7CED6
:10378000B4CB789408952F923F924F925F926F92AC
:103790007F929F92AF92BF92CF92DF92EF92FF9271
:1037A0000F931F93CF93DF9300D000D0CDB7DEB738
:1037B00000910704109108049924939401151105B0
:1037C00009F43EC0A0900904B0900A048EDB982E44
:1037D0008823B1F1109208041092070410920A0491
:1037E0001092090410920B0410920C048FEF9FEFBB
:1037F000DC0180937B0290937C02A0937D02B093C6
:103800007E0278947BD31E830D83C12CD12C76014C
:10381000C501B0E0A0E089839A83AB83BC832224F6
:103820002A94322C89819A81AB81BC81C816D90631
:10383000EA06FB06F4F0C80192D480E40E94DC1092
:10384000892D26960FB6F894DEBF0FBECDBFDF914F
:10385000CF911F910F91FF90EF90DF90CF90BF908D
:10386000AF909F907F906F905F904F903F902F9080
:103870000895AD81BE8192E0C916D104E104F1043E
:103880000CF51B968D919C918F3F980709F02BD5D5
:10389000ED81FE8134862386ED81FE8180819181D8
:1038A000B12CA12C412C512C3201892B59F5BFEFA1
:1038B000CB1ADB0AEB0AFB0AED81FE813D96FE8303
:1038C000ED83B0CF15962D913C91169780917102A2
:1038D0009091720228173907F9F61B968D919C91E9
:1038E000B0D5DACF8A0D9B1DDC018D919C9100979C
:1038F00009F035D4BFEF4B1A5B0A6B0A7B0AE5E08F
:10390000AE0EB11CAD81BE818D919C911197129626
:103910004C9150E070E060E044165506660677066C
:103920000CF31DD4C4CFCF93DF93EA012CDF8111B8
:1039300009C082E090E09983888385EF9FEFDF9153
:10394000CF91089581E090E00E94CE1081E090E058
:103950009983888390E080E0F2CF15DF1092040411
:1039600010920304089542E050E064E073E00C9488
:10397000EC10FF920F931F93CF93DF938A01EC011A
:10398000C60FD71FF980B9D20897F816190671F03B
:1039900068F082E090E0F801918380838EEF9FEFE2
:1039A000DF91CF911F910F91FF9008956C817D81E0
:1039B0008E819F814B810E946213811108C082E039
:1039C00090E0F8019183808384EF9FEFE9CFF98045
:1039D0000E945D134F2D50E0BE01685F7F4F0E9433
:1039E000E33389810E94CC1381E090E0F801918358
:1039F000808390E080E0D4CFDF92EF92FF920F932C
:103A00001F93CF93DF938A01EC01C60FD71F0E944B
:103A10005D137C01D98071D2DD2059F0029721E03D
:103A200030E0D816190619F010F030E020E0232B12
:103A300079F482E090E0F801918380838EEF9FEF2C
:103A4000DF91CF911F910F91FF90EF90DF9008953C
:103A5000EF2841F482E090E0F8019183808384EFC5
:103A60009FEFEECFF9800E945D134F2D50E0BE0115
:103A70006E5F7F4F0E94E33389810E94CC1381E007
:103A800090E0F8019183808390E080E0D9CF83EBD0
:103A90009CE190930E0480930D04089580910D0491
:103AA00090910E0408950895FC0111821082938371
:103AB00082830895DB011D921C92DC011296ED9128
:103AC000FC9113977183608313967C936E93129786
:103AD0000895FC0180819181DB018D939C93A081ED
:103AE000B181109741F08D919C9191838083892BB6
:103AF00011F4F383E2830895FC0180819181DB015D
:103B00008D939C93892B11F47383628371836083FB
:103B10000895FC0111821082938382830895CF93CC
:103B2000DF931F921F92CDB7DEB71A821982F894E5
:103B3000BE016F5F7F4F84E194E0CBDF89819A8182
:103B4000009709F00CD389819A81892B89F7BE01EE
:103B50006F5F7F4F88E194E0BCDF89819A81009795
:103B600009F0FDD289819A81892B89F778940F9089
:103B70000F90DF91CF910895CF93DF931F921F9203
:103B8000CDB7DEB71A821982F894BE016F5F7F4FFE
:103B900080E194E09EDF89819A81009709F0DFD26D
:103BA00089819A81892B89F778940F900F90DF9102
:103BB000CF91089581E0089590E080E00895EF921C
:103BC000FF920F931F93CF93DF931F921F92CDB756
:103BD000DEB71A82198280910F0407EF1FEF882346
:103BE000A1F1F894BE016F5F7F4F88E194E071DF2F
:103BF000789489819A81EE24E394F12C892B51F4F5
:103C0000F894BE016F5F7F4F84E194E062DF7894A7
:103C1000F12CE12C89819A810EEF1FEF0097A9F01A
:103C2000FC014281538164E070E01DD68C01892B38
:103C300061F0F89469817A81C701880F991F880F14
:103C4000991F8C5E9B4F58DF7894C8010F900F909E
:103C5000DF91CF911F910F91FF90EF9008950F93F7
:103C60001F93CF93DF9300D01F92CDB7DEB71C8296
:103C70001B821A82198280910F0407EF1FEF88239D
:103C8000C1F0AE014D5F5F4F64E070E0CE01019680
:103C90005DD68C01892B69F4E981FA818B819C8145
:103CA00093838283F89469817A8180E194E002DFD2
:103CB0007894C8010F900F900F900F90DF91CF91E3
:103CC0001F910F91089562D7049608958F929F9245
:103CD000AF92BF92CF92DF92EF92FF920F931F931A
:103CE000CF93DF931F921F92CDB7DEB71A8219824E
:103CF000BC016F5F7F4F6330710598F0AA24AA94CE
:103D0000BA2CC5010F900F90DF91CF911F910F91A9
:103D1000FF90EF90DF90CF90BF90AF909F908F90EB
:103D200008954115510551F3480159018A016C016B
:103D3000CADF8815990511F7E114F104F9F28E0D27
:103D40009F1DA816B906D0F280910F048823F1F0C8
:103D5000F894B501645071099701AE014F5F5F4F50
:103D6000C801049688D65C01892B71F489819A81F7
:103D7000F80193838283C601880F991F880F991FCA
:103D8000B8018C5E9B4F96DE7894BBCF87EFA82E50
:103D9000BB24BA94B6CFAF92BF92CF92DF92EF928C
:103DA000FF920F931F93CF93DF931F921F92CDB774
:103DB000DEB71A821982892B09F047C06115710597
:103DC00009F443C04115510509F43FC021153105DF
:103DD00009F43BC001151105C1F180910F0488233E
:103DE000B9F179016A015B01F894BE016F5F7F4F01
:103DF00080E194E06EDE789489819A81009759F190
:103E0000DC0112966D917C91A80104964DD68C012F
:103E1000E981FA81D501ED93FC9382819381049627
:103E2000F601918380834FDFD7018D939C93C80166
:103E30000F900F90DF91CF911F910F91FF90EF9016
:103E4000DF90CF90BF90AF9008950FEF1FEFEFCFAF
:103E500007EF1FEFECCF0EEF1FEFE9CFCF93DF930C
:103E6000EC01672B71F49BD68C179D0760F08ED602
:103E70002496C80FD91F8DD68C0F9D1FDF91CF912F
:103E800008958AD6F1CF90E080E0F8CF0F931F938A
:103E9000CF93DF9320910F0421112BC08B01EC01F4
:103EA00084E194E001DE88E194E0FEDD80E194E0CD
:103EB000FBDD86D00097C1F472D670E060E0CEDF03
:103EC0004FE752E062E070E076D1009769F48091AC
:103ED0007F029091800275D6B801CE01AAD40097D6
:103EE00019F421E020930F04DF91CF911F910F91DE
:103EF000089584EF9FEFF8CF4FC651C6CF93DF935D
:103F000051D6EC01892B11F40ADE36DECE01DF91A9
:103F1000CF910895CF93DF9345D6EC01892B09F417
:103F2000FEDDCE01DF91CF91089580917F029091C7
:103F300080020895CF93DF9380910F04D0E0C0E01A
:103F40008823D1F043D6EC01892BB1F4E8DD14DEEF
:103F500080917F0290918002C6D1D5D2EC01892B4D
:103F600059F484E194E0D5DD88E194E0D2DD80E18C
:103F700094E0CFDD10920F04CE01DF91CF91089530
:103F8000CF93DF930097A1F4DF91CF910895EC01D7
:103F90001A821982A883309711F0928381832F5F50
:103FA0003F4FFC01860F971F4217530781F7ECCF55
:103FB00030E020E0F0E0E0E0AFEF6F5F7F4FF4CF64
:103FC000AF92BF92CF92DF92EF92FF920F931F9327
:103FD000CF93DF9381E595E07C012CEFE22280E135
:103FE000C82E83E0D82E96E1A92E93E0B92EC0EA20
:103FF000D5E08E01D6014D915D916D01F501619184
:1040000071915F01D8011196FC92EE9215965C9326
:104010004E93149713965C934E93129717967C9336
:104020006E9316979B012F5F3F4F249FC001259FE2
:10403000900D349F900D112419969C938E93189790
:10404000C7019EDFF80180859185E80EF91E065FA5
:104050001F4FF6E1CF16F3E0DF0661F6EEE1F4E084
:1040600080E391E0DF019C011D9221503040E1F797
:1040700010921D0410921C048EEB95E01F8E1E8E74
:104080001BA21AA219A218A21DA21CA21FA21EA244
:104090002A968C179D0791F710929D0510929C050A
:1040A00010929F0510929E0590E080E0DF91CF91E5
:1040B0001F910F91FF90EF90DF90CF90BF90AF9046
:1040C0000895009799F1F8948131910550F4809109
:1040D000A2059091A305892B39F020E090E080E0C3
:1040E00018C08931910550F48091AC059091AD05CF
:1040F000892B31F021E081E090E00BC08197A8F49A
:104100008091B6059091B705892B79F022E082E085
:1041100090E0EAE0E89FD001E99FB00D1124A0569D
:10412000BA4F8D919C91009721F4789490E080E0B3
:104130000895E29FF0011124E056FA4FDC01119638
:104140004D915C915183408342815381415051098B
:1041500053834283FC012193CF0178940895009703
:1041600049F1DC018E91863041F4E0919E05F09199
:104170009F053097F9F0CD0119948630D8F4282F97
:1041800030E0F8948FEF8C938AE0829FF001839F58
:10419000F00D1124E056FA4F8081918112969C9384
:1041A0008E931197B183A08382819381019693832B
:1041B000828378940895CF92DF92EF92FF920F93CB
:1041C0001F93CF93DF939C0181E294E08C7F411594
:1041D000510509F485C02115310509F481C0611527
:1041E000710509F47DC08A01AB01B9016D5F7F4F94
:1041F0006C7F9B012F5F3F4F249F7001259FF00C28
:10420000349FF00C1124F894E0EAF5E023E030E06C
:10421000E901A6A1B7A1C68CD78CCD2809F054C05E
:10422000109709F03CC0C0901C04D0901D042DE2F2
:1042300031E02C193D092E153F0530F47894CFEF6D
:10424000DFEF86EF9FEF1FC02AE02C9FF0012D9F2C
:10425000F00D1124E056FA4F9183808355834483F7
:104260005383428377836683F186E08689DEEC0C94
:10427000FD1CF0921D04E0921C047894CF3FDC07F3
:1042800001F390E080E0F801D183C083DF91CF910A
:104290001F910F91FF90EF90DF90CF900895AE1592
:1042A000BF0590F02AE02C9FF0012D9FF00D112406
:1042B000E056FA4F9183808355834483538342832E
:1042C000778366835DDED9CF8A0F9B1F2F5F3F4FB9
:1042D0003A962630310509F09BCFCFEFDFEFCDCFF7
:1042E0008FEF9FEFD3CFFF920F931F93CF93DF9367
:1042F0009C01235031092330310508F070C0EC01D6
:10430000F89485E09AE09C9FD0019D9FB00D112408
:10431000A855BA4F082F10E0909FF001919FF00D23
:104320001124E056FA4F20813181C017D10714F1D2
:10433000FF24F394232B41F52AE0209FF001219FD5
:10434000F00D1124E056FA4F80911C0490911D0449
:1043500040855185841B950B90931D0480931C040C
:104360002C9FF0012D9FF00D1124E056FA4F11867D
:1043700010861CC0232B39F42D913C911197232BCF
:10438000A9F48150C7CFF12C8AE08C9FF0018D9F5A
:10439000F00D1124E056FA4F4085518570E060E041
:1043A000808191810E94EC33F110C6CF8AE08C9F0E
:1043B000F0018D9FF00D1124E056FA4F118210820A
:1043C000158214821382128217821682789490E0EA
:1043D00080E0DF91CF911F910F91FF9008958FEFB3
:1043E0009FEFF7CF4115510549F1009739F161155C
:1043F000710521F1F89420919C0530919D05232BA6
:10440000B9F420919E0530919F05232B89F4909358
:104410009D0580939C0570939F0560939E057894FD
:1044200026E030E090E080E0FA01318320830895B7
:1044300078942FEF3FEF86EF9FEFF6CF8FEF9FEF50
:104440000895069769F4F89410929D0510929C05C2
:1044500010929F0510929E05789490E080E0089558
:104460008FEF9FEF08956115710519F4F0E0E0E01A
:1044700011C08630910581F4E0919C05F0919D0575
:104480003097A1F3CB0101961995009779F3FC01C0
:1044900086E08193CF0108959C0123503109233098
:1044A000310520F72AE0289FD001299FB00D112463
:1044B000A056BA4F2D913C911197232BB9F2169625
:1044C0002D913C9117972617370780F2F894129692
:1044D0002D913C9113972115310529F0ED91FC9117
:1044E0001197309711F47894C1CF41815281119680
:1044F0005C934E932150310913963C932E9312975F
:1045000081937894C7CFEEE4F5E08EE4DF011D924D
:104510008A95E9F7EEE1F4E080E391E0DF019C01A8
:104520001D9221503040E1F710921D0410921C049E
:10453000E0EAF5E08CE3DF011D928A95E9F7ECE90A
:10454000F5E084E0DF011D928A95E9F790E080E0D4
:104550000895CF93DF93C0918102D0918202CF3F23
:10456000DC0759F464D5909382028093810297FF0F
:1045700009C0D0938202C093810284EF9FEFDF9144
:10458000CF91089590E080E0FACF8230910528F431
:104590008093DC0590E080E008958FEF9FEF089511
:1045A0004F925F926F927F92AF92BF92CF92DF92C3
:1045B000EF92FF920F931F93CF93DF931F921F925F
:1045C000CDB7DEB71A821982009709F479C0611558
:1045D000710509F475C0209181023091820207EFC4
:1045E0001FEF2F3F3F4F09F445C06B015C01412C89
:1045F000512C3201F12CE12C10E000E09E012F5FE4
:104600003F4FA6014E195F09B5016E0D7F1D8091C8
:104610008102909182026AD5892B09F04BC0898171
:104620009A81009741F4E114F10429F42091DC050A
:10463000222309F442C0E80EF91EEC14FD04D0F464
:1046400080E8481684E858068EE16806710420F573
:1046500060E070E0CB010E94A92D2AE0420E511CBF
:10466000611C711C0A3F4FEF140721F0043F8FEFCC
:104670001807A1F4C8010F900F90DF91CF911F91FF
:104680000F91FF90EF90DF90CF90BF90AF907F9011
:104690006F905F904F90089501EF1FEF81E090E0E1
:1046A000013F2FEF120711F090E080E0892B09F411
:1046B000A5CFE0CF04EF1FEFDDCF0AEF1FEFDACF7A
:1046C0000FEF1FEFD7CF4F925F926F927F92AF9213
:1046D000BF92CF92DF92EF92FF920F931F93CF93EF
:1046E000DF931F921F92CDB7DEB71A82198200970F
:1046F00009F479C06115710509F475C02091810232
:104700003091820207EF1FEF2F3F3F4F09F445C062
:104710006B015C01412C512C3201F12CE12C10E099
:1047200000E09E012F5F3F4FA6014E195F09B501C2
:104730006E0D7F1D80918102909182028DD4892B14
:1047400009F04BC089819A81009741F4E114F1048A
:1047500029F42091DC05222309F442C0E80EF91E59
:10476000EC14FD04D0F480E8481686E9580688E980
:104770006806710420F560E070E0CB010E94A92D6D
:104780002AE0420E511C611C711C0E3F4FEF1407B2
:1047900021F0043F8FEF1807A1F4C8010F900F908C
:1047A000DF91CF911F910F91FF90EF90DF90CF900D
:1047B000BF90AF907F906F905F904F90089502EF01
:1047C0001FEF81E090E0023F2FEF120711F090E021
:1047D00080E0892B09F4A5CFE0CF04EF1FEFDDCFF8
:1047E0000EEF1FEFDACF0FEF1FEFD7CF80918102CF
:1047F000909182028F3F980749F011D4892B49F498
:104800008FEF9FEF909382028093810290E080E08F
:10481000089584EF9FEF0895FC01680F791F90E0E1
:1048200080E0E617F70709F408952191820F911DA2
:10483000F8CF2091DD05211113C08BDE009791F494
:104840001092E3051092E2051092E1051092E00546
:104850001092DF051092DE0521E02093DD0508951A
:1048600084EF9FEF0895AF92BF92CF92DF92EF92C5
:10487000FF920F931F93CF93DF93009709F460C0CB
:104880004630510508F45CC02091DD05C7EFDFEF2D
:10489000222309F449C08C01060F171FF801C080BC
:1048A000D180C114D10409F44EC096012A5F3F4F54
:1048B0004217530708F447C07C018091E2059091AC
:1048C000E30593838283B6016C5F7F4F5801A60E88
:1048D000B71EC801A1DFF5019183808364E070E019
:1048E000C8015EDEEC01892BF9F481E090E04DDE39
:1048F000B601C801049654DEEC01892B91F462E004
:1049000070E0C5014DDEEC01892B59F4C70127DCAD
:104910008091E2059091E30501969093E3058093E1
:10492000E20590E080E031DECE01DF91CF911F9172
:104930000F91FF90EF90DF90CF90BF90AF900895D0
:10494000CFEFDFEFF1CFC9EFDFEFEECF6F927F92C6
:104950008F929F92AF92BF92CF92DF92EF92FF928F
:104960000F931F93CF93DF9300D01F92CDB7DEB785
:10497000009709F47AC04115510509F476C02091D9
:10498000DD0507EF1FEF222309F44DC03A017B013B
:104990005C0164E070E0CE01019695DE8C01892B0C
:1049A00009F041C009811A810115110509F45AC0A5
:1049B000480186E0880E911CB701680D791D809131
:1049C0008302909184024FDD6C01009709F450C07E
:1049D000A70170E060E00E94EC3389819A81AB818D
:1049E000BC81EC0CFD1CF70181939193A193B193D1
:1049F0007F0181E090E0C9DDB801C70164DE892B49
:104A000031F562E070E0C701800F911F5CDE8C0120
:104A1000892BE9F490E080E0B8DDF501D182C08215
:104A2000F30191828082C8010F900F900F900F9038
:104A3000DF91CF911F910F91FF90EF90DF90CF907A
:104A4000BF90AF909F908F907F906F90089590E06F
:104A500080E09BDDF50111821082F301118210824A
:104A6000C6017DDB09EF1FEFDECF0FEF1FEFDBCFBE
:104A700006EF1FEFD8CF0097A1F04115510589F03F
:104A80002115310571F0F90136966E177F0748F050
:104A9000DC012D933C93DA01ED93FC9390E080E0F0
:104AA00008958FEF9FEF0895AF92BF92CF92DF925C
:104AB000EF92FF920F931F93CF93DF93009709F428
:104AC0005FC04115510509F45BC06530710508F4FC
:104AD00057C02091DD05C7EFDFEF222391F1DC0104
:104AE000CD90DC9011971296ED91FC9196012A5F82
:104AF0003F4FC9EFDFEF2617370719F5C091DE05E5
:104B0000D091DF05209749F521E030E03093DF05B3
:104B10002093DE057A018C01F093E105E093E00536
:104B20005601B4E0AB0EB11CB50176DE0A0D1B1DBB
:104B3000F801208131818217930729F5D701CD92A1
:104B4000DC92CE01DF91CF911F910F91FF90EF90FA
:104B5000DF90CF90BF90AF9008952091E005309105
:104B6000E1052F5F3F4FCCEFDFEFE217F30790F245
:104B7000CBEFDFEF2E173F0768F2D0E0C0E0CACFDF
:104B8000CFEFDFEFDECFC3EFDFEFDBCF84E090E0EE
:104B9000089582E090E008958CEF9FEF089580E201
:104BA00090E008951092E3051092E2051092E1055D
:104BB0001092E0051092DF051092DE0590E080E093
:104BC0000895909384028093830208958091DD0577
:104BD000882391F00BDE009789F41092E305109280
:104BE000E2051092E1051092E0051092DF051092A7
:104BF000DE051092DD05089590E080E008950097AD
:104C000049F06115710531F0FC0111821082FB0140
:104C1000118210820895F3CFCF93DF938091E40542
:104C20009091E5050E94E42FEC018091E6059091BA
:104C3000E7050E94E42F019771F48091E8059091B7
:104C4000E905219771F401969093E9058093E805B1
:104C5000DF91CF9108958091E8059091E905CD2BE2
:104C600091F30197F1CFCF93DF938091EC05909171
:104C7000ED050E94E42FEC018091EE059091EF0587
:104C80000E94E42F019771F48091F0059091F10555
:104C9000219771F401969093F1058093F005DF91CF
:104CA000CF9108958091F0059091F105CD2B91F36E
:104CB0000197F1CFCF93DF938091EE059091EF05AF
:104CC0000E94E42FEC018091EC059091ED050E948B
:104CD000E42F019771F48091F0059091F105CD2BAF
:104CE00071F401969093F1058093F005DF91CF91D7
:104CF00008958091F0059091F105219791F3019726
:104D0000F1CFCF93DF938091E6059091E7050E9464
:104D1000E42FEC018091E4059091E5050E94E42FD9
:104D2000019771F48091E8059091E905CD2B71F41C
:104D300001969093E9058093E805DF91CF9108955E
:104D40008091E8059091E905219791F30197F1CFC2
:104D500002978431910540F4845E9C4FFC01808170
:104D6000082E000C990B08958FEF9FEF08950F9375
:104D70001F93CF93DF93CDB7DEB78C0120E030E0F7
:104D800040E85FE3FB016081718182819381E9D218
:104D900081110DC08091E8059091E905F80191839A
:104DA00080838091F0059091F10593838283DF9158
:104DB000CF911F910F9108958F929F92AF92BF92C2
:104DC000CF92DF92EF92FF920F931F93CF93DF93D7
:104DD000CDB7DEB77B015A0120E030E040E85FE369
:104DE000FB016081718182819381BBD2882309F4A8
:104DF0008BC0F501808190E09093E5058093E405F8
:104E0000F801808190E09093E7058093E605F60134
:104E1000608171818281938110D37093ED056093DD
:104E2000EC05F401608171818281938106D37093D6
:104E3000EF056093EE058091E4059091E50560E053
:104E40000E947B2F8091E6059091E70560E00E942B
:104E50007B2F8091EC059091ED0560E00E947B2F07
:104E60008091EE059091EF0560E00E947B2F80918C
:104E7000E4059091E50561E00E94B72F8091E60579
:104E80009091E70561E00E94B72F8091EC05909129
:104E9000ED0561E00E94B72F8091EE059091EF053E
:104EA00061E00E94B72F8091E4059091E50550DF05
:104EB00041E050E061E876E20BD48091E605909104
:104EC000E70546DF41E050E06CE076E201D48091F6
:104ED000EC059091ED053CDF41E050E06AE576E2BB
:104EE000F7D38091EE059091EF0532DF41E050E07D
:104EF00063E376E2EDD380E090E0A0E8BFE3F70162
:104F000080839183A283B383DF91CF911F910F910F
:104F1000FF90EF90DF90CF90BF90AF909F908F90D9
:104F2000089540E052EC61E070E090E080E000C065
:104F30008130910579F01CF4892B39F00895823085
:104F4000910561F0039771F0089526E081E096E005
:104F50000C94D63026E08EE996E0FACF26E08BE37B
:104F600097E0F6CF26E088ED97E0F2CF1F920F9200
:104F70000FB60F9211240BB60F922F933F934F93BE
:104F80005F936F937F938F939F93AF93BF93EF93B1
:104F9000FF938FE89DEF9093250180932401BAD071
:104FA000FF91EF91BF91AF919F918F917F916F9101
:104FB0005F914F913F912F910F900BBE0F900FBEBD
:104FC0000F901F9018958FE89DEF90932501809387
:104FD0002401A3E7B0E08C918E7F8C93E0E2F1E0B6
:104FE00080818C7F8083E1E2F1E08081877E808315
:104FF00080818460808380818C7F80838C918160BC
:105000008C930895E3E7F0E0808190819E7F908308
:105010008170089581E008951092F405089568EE76
:1050200073E080E090E095D590E080E0089526E080
:1050300040E050E16EE070E081E096E00E94D63002
:1050400081E096E0E9D7892B21F081E096E0FED758
:10505000F7CF90E080E00895CF92DF92EF92FF9239
:105060000F931F93CF93DF936B017A01E9011982AC
:10507000188281E096E0D0D7892B69F18601CC2493
:10508000C39482E0D82E8091F405811110C081E094
:1050900096E0DCD70297B9F7C092F405F801D192F7
:1050A0008F0188819981019699838883ECCF8881CB
:1050B00099818E159F0578F481E096E0C7D78F3FE0
:1050C0009807A9F3F80181938F018881998101964E
:1050D00099838883ECCF90E080E0DF91CF911F919E
:1050E0000F91FF90EF90DF90CF9008950F931F9353
:1050F000CF93DF93EA01890181E096E00E94663355
:10510000F801D183C08390E080E0DF91CF911F91BF
:105110000F910895CF92DF92EF92FF92CF93DF939A
:105120008091F50591E0980F9093F505882379F02B
:1051300021E030E03093F7052093F6058093F505E4
:10514000DF91CF91FF90EF90DF90CF90089578940A
:10515000C0919602D09197026E8D7F8D88A199A102
:105160009DD120E030E040E85FE44ED26B017C014D
:105170006A8D7B8D8C8D9D8D91D19B01AC01C7017A
:10518000B6018BD05FD16B017C010E94DA04B701BC
:10519000A60190E080E00E944F04F8948091F5050C
:1051A0008150CCCFCF93DF931092D8081092D708BC
:1051B00006D5B7DEC0919602D09197021982188267
:1051C00068EB7BE080E090E00E94CF0470E060E05C
:1051D00090E080E00E9452030097A9F50E94020926
:1051E000F8947894BE016A5D7F4F8A819B810E940A
:1051F0005503892B59F46FEF7FEFCB010E94E50334
:105200000E94C904882311F081E08AA7F894DBDEAC
:105210000E94CC04811104C00E94C90491E0811154
:1052200090E09093D70878940E94C910EC0178948C
:105230008091D70881110AC00E94F0090E94AE0433
:10524000F89490E080E0DF91CF9108950E94AC0443
:105250000E94CC0491E0811106C00E94C90491E033
:10526000811101C090E09093D8089091D80881E016
:10527000911180E08093D7088091D8088111C2DE17
:10528000219729F40E94C910892B09F4C5DE0E94D8
:10529000C910EC01BFDECCCF5058BB27AA270ED0D7
:1052A00075C166D130F06BD120F031F49F3F11F41D
:1052B0001EF45BC10EF4E095E7FB51C1E92F77D1F5
:1052C00080F3BA17620773078407950718F071F423
:1052D0009EF58FC10EF4E0950B2EBA2FA02D0B0179
:1052E000B90190010C01CA01A0011124FF27591B2B
:1052F00099F0593F50F4503E68F11A16F040A22F31
:10530000232F342F4427585FF3CF469537952795A1
:10531000A795F0405395C9F77EF41F16BA0B620BA0
:10532000730B840BBAF09150A1F0FF0FBB1F661FE7
:10533000771F881FC2F70EC0BA0F621F731F841F2A
:1053400048F4879577956795B795F7959E3F08F050
:10535000B3CF9395880F08F09927EE0F979587950F
:105360000895D9D008F481E008950CD00FC107D179
:1053700040F0FED030F021F45F3F19F0F0C0511141
:1053800039C1F3C014D198F39923C9F35523B1F36C
:10539000951B550BBB27AA2762177307840738F0A4
:1053A0009F5F5F4F220F331F441FAA1FA9F333D003
:1053B0000E2E3AF0E0E830D091505040E695001CB7
:1053C000CAF729D0FE2F27D0660F771F881FBB1F73
:1053D000261737074807AB07B0E809F0BB0B802D4D
:1053E000BF01FF2793585F4F2AF09E3F510568F099
:1053F000B6C000C15F3FECF3983EDCF3869577952D
:105400006795B795F7959F5FC9F7880F911D96959A
:10541000879597F90895E1E0660F771F881FBB1FF6
:10542000621773078407BA0720F0621B730B840BA3
:10543000BA0BEE1F88F7E095089504D06894B11177
:10544000D9C00895BCD088F09F5790F0B92F992704
:10545000B751A0F0D1F0660F771F881F991F1AF07F
:10546000BA95C9F712C0B13081F0C3D0B1E0089548
:10547000C0C0672F782F8827B85F39F0B93FCCF3C9
:10548000869577956795B395D9F73EF49095809575
:10549000709561957F4F8F4F9F4F0895E89409C095
:1054A00097FB3EF490958095709561957F4F8F4F57
:1054B0009F4F9923A9F0F92F96E9BB279395F6956D
:1054C000879577956795B795F111F8CFFAF4BB0FEB
:1054D00011F460FF1BC06F5F7F4F8F4F9F4F16C04F
:1054E000882311F096E911C0772321F09EE8872FD9
:1054F000762F05C0662371F096E8862F70E060E095
:105500002AF09A95660F771F881FDAF7880F96950D
:10551000879597F90895990F0008550FAA0BE0E8B1
:10552000FEEF16161706E807F907C0F01216130665
:10553000E407F50798F0621B730B840B950B39F4A5
:105540000A2661F0232B242B252B21F408950A260B
:1055500009F4A140A6958FEF811D811D089597F94B
:105560009F6780E870E060E008959FEF80EC089509
:1055700000240A9416161706180609060895002432
:105580000A9412161306140605060895092E0394AC
:10559000000C11F4882352F0BB0F40F4BF2B11F420
:1055A00060FF04C06F5F7F4F8F4F9F4F089557FD7F
:1055B0009058440F551F59F05F3F71F04795880F81
:1055C00097FB991F61F09F3F79F087950895121618
:1055D00013061406551FF2CF4695F1DF08C01616C4
:1055E00017061806991FF1CF869571056105089475
:1055F0000895E894BB2766277727CB0197F908958C
:105600008ADF08F48FEF08950BD0C0CFB1DF28F008
:10561000B6DF18F0952309F0A2CFA7CF1124EACF67
:10562000C6DFA0F3959FD1F3950F50E0551F629F01
:10563000F001729FBB27F00DB11D639FAA27F00DEB
:10564000B11DAA1F649F6627B00DA11D661F829F12
:105650002227B00DA11D621F739FB00DA11D621FF7
:10566000839FA00D611D221F749F3327A00D611D14
:10567000231F849F600D211D822F762F6A2F1124F6
:105680009F5750408AF0E1F088234AF0EE0FFF1F49
:10569000BB1F661F771F881F91505040A9F79E3F80
:1056A000510570F05CCFA6CF5F3FECF3983EDCF382
:1056B000869577956795B795F795E7959F5FC1F7BD
:1056C000FE2B880F911D9695879597F9089508955B
:1056D000883008F076C0E82FF0E0EE0FFF1FEB57A0
:1056E000FD4F718360838150873008F03DC0E82F03
:1056F000F0E08827E158F44D8F4F0C94B633BC2B63
:10570000862B8E2B9A2BA72BC82BD52B809169002B
:105710008C7F482B40936900E89A08958091690036
:10572000837F440F551F440F551F482B409369003A
:10573000E99A0895809169008F7C74E0440F551FA9
:105740007A95E1F7482B40936900EA9A0895809191
:1057500069008F7366E0440F551F6A95E1F7482B87
:1057600040936900EB9A089580916A008C7F482BE2
:1057700040936A00EC9A089580916A00837F440FF9
:10578000551F440F551F482B40936A00ED9A08950A
:1057900080916A008F7C24E0440F551F2A95E1F721
:1057A000482B40936A00EE9A089580916A008F73A7
:1057B00096E0440F551F9A95E1F7482B40936A00F5
:1057C000EF9A08951F920F920FB60F9211240BB605
:1057D0000F922F933F934F935F936F937F938F938A
:1057E0009F93AF93BF93EF93FF93E0918902F09162
:1057F0008A021995FF91EF91BF91AF919F918F917F
:105800007F916F915F914F913F912F910F900BBEC0
:105810000F900FBE0F901F9018951F920F920FB60A
:105820000F9211240BB60F922F933F934F935F93D8
:105830006F937F938F939F93AF93BF93EF93FF9358
:10584000E0918B02F0918C021995FF91EF91BF913D
:10585000AF919F918F917F916F915F914F913F9108
:105860002F910F900BBE0F900FBE0F901F901895A9
:105870001F920F920FB60F9211240BB60F922F9317
:105880003F934F935F936F937F938F939F93AF93C8
:10589000BF93EF93FF93E0918D02F0918E021995E3
:1058A000FF91EF91BF91AF919F918F917F916F91F8
:1058B0005F914F913F912F910F900BBE0F900FBEB4
:1058C0000F901F9018951F920F920FB60F921124F0
:1058D0000BB60F922F933F934F935F936F937F93EA
:1058E0008F939F93AF93BF93EF93FF93E0918F02BA
:1058F000F09190021995FF91EF91BF91AF919F9117
:105900008F917F916F915F914F913F912F910F9068
:105910000BBE0F900FBE0F901F9018951F920F9205
:105920000FB60F9211240BB60F922F933F934F9304
:105930005F936F937F938F939F93AF93BF93EF93F7
:10594000FF93E0918502F09186021995FF91EF9106
:10595000BF91AF919F918F917F916F915F914F9187
:105960003F912F910F900BBE0F900FBE0F901F9085
:1059700018951F920F920FB60F9211240BB60F922B
:105980002F933F934F935F936F937F938F939F9347
:10599000AF93BF93EF93FF93E0918702F09188025A
:1059A0001995FF91EF91BF91AF919F918F917F9149
:1059B0006F915F914F913F912F910F900BBE0F9080
:1059C0000FBE0F901F9018951F920F920FB60F9257
:1059D00011240BB60F922F933F934F935F936F93C6
:1059E0007F938F939F93AF93BF93EF93FF93E09138
:1059F0009102F09192021995FF91EF91BF91AF91B1
:105A00009F918F917F916F915F914F913F912F91D6
:105A10000F900BBE0F900FBE0F901F9018951F9206
:105A20000F920FB60F9211240BB60F922F933F9344
:105A30004F935F936F937F938F939F93AF93BF9396
:105A4000EF93FF93E0919302F09194021995FF91E7
:105A5000EF91BF91AF919F918F917F916F915F91E6
:105A60004F913F912F910F900BBE0F900FBE0F9053
:105A70001F9018951F920F920FB60F9211242F931B
:105A80003F938F939F93AF93BF938091F90590912C
:105A9000FA05A091FB05B091FC053091F80523E0D3
:105AA000230F2D3758F50196A11DB11D2093F80540
:105AB0008093F9059093FA05A093FB05B093FC053C
:105AC0008091FD059091FE05A091FF05B091000623
:105AD0000196A11DB11D8093FD059093FE05A09335
