:1000000005C100000C9457100C9482100C94AD1094
:100010000C94D8100C9403110C942E110C945911BB
:100020000C94841124C1000022C1000020C10000F2
:100030001EC100001CC100001AC1000018C1000050
:1000400016C1000014C1000012C1000010C1000060
:100050000EC100000CC100000AC100000C94AF11D9
:1000600006C100000C9450150C94861500C10000C8
:10007000FEC00000FCC00000FAC00000F8C0000094
:10008000F6C00000F4C00000F2C00000F0C00000A4
:100090000C94DC150C941216EAC00000E8C00000B5
:1000A000E6C00000E4C00000E2C00000E0C00000C4
:1000B000DEC00000DCC00000DAC00000D8C00000D4
:1000C000D6C00000D4C000000C94240D0C94681617
:1000D0000C949E16CCC000000C94F4160C942A17B5
:1000E000C6C0000000000A0B02090C0D0E08070331
:1000F00004010000000000000000000000000000FB
:1001000000000000000000000000000000000000EF
:1001100012111000000000000000000000000000AC
:100120000000000000000000000001021020200874
:100130000810204010204080020102010804020142
:1001400001020408102040808040201008040201B1
:10015000800402018040201008040201080402010A
:100160000102040810204080010204081020408091
:1001700005050505070508080808020202020A0A23
:100180000808040404040101010101010101030341
:10019000030303030303040707070C0C0C0C0C0CEC
:1001A0000C0C0202020206060606060606060B0BE9
:1001B0000B0B0B0B0B0B000020002300260029006B
:1001C0002C002F003200000100000301060109018C
:1001D00000002200250028002B002E0031003400F2
:1001E00002010000050108010B01000021002400AC
:1001F00027002A002D003000330001010000040117
:1002000007010A01AF153B16C716531711241FBE6D
:10021000CFEFD1E2DEBFCDBF00E00CBF13E0A0E026
:10022000B2E0E2EBFFE200E00BBF02C007900D92EC
:10023000AC36B107D9F727E0ACE6B3E001C01D92B8
:10024000AF32B207E1F711E0C6E0D1E000E006C04E
:1002500021970109802FFE010E94CF17C230D107DC
:1002600080E00807A9F70E948B0D0C94D717C8CE21
:10027000CF92DF92EF92FF92CF93882351F16A01E0
:100280007B01CFEFC80F20E030E0A901CB01B60120
:100290000E94270E87FF11C0C701B60190580E9427
:1002A000980E9B01AC016C2F70E090E080E0CF9144
:1002B000FF90EF90DF90CF90B2C0C701B6010E94CF
:1002C000930E8C2FCF91FF90EF90DF90CF900C94F6
:1002D0005B12CF91FF90EF90DF90CF9008950F9336
:1002E0001F938B019C0183E0369527951795079501
:1002F0008A95D1F704591C4F462F477021E030E012
:10030000F90102C0EE0FFF1F4A95E2F7AF01F801B5
:1003100020812423CB010196211102C090E080E0CE
:100320001F910F9108950F931F938B019C0183E000
:1003300036952795179507958A95D1F7677081E0CF
:1003400090E001C0880F6A95EAF7F801E459FC4F84
:100350002081452B31F48095822380831F910F915A
:100360000895822BFACF2F923F924F925F926F9215
:100370007F928F929F92AF92BF92CF92DF92EF9235
:10038000FF920F931F93CF93DF93D62EC72E782E15
:10039000692E49015A01280161E08D2D0E949513B3
:1003A000CD2DDC2D8E010F5F1F4FA8016D2D7C2DF3
:1003B000872D962DB8DF20E030E0A901C201B701FA
:1003C0000E94760F181664F4C201B7010E94980EBD
:1003D0002B01C501B4010E94980EA201CE0123D0C9
:1003E000C801DF91CF911F910F91FF90EF90DF90A7
:1003F000CF90BF90AF909F908F907F906F905F90C5
:100400004F903F902F900895882341F08150682F9E
:1004100070E090E080E050E040E085CF0895862FC6
:10042000B9010C945B129C01FC01EC51FF4FE4916B
:10043000E150E231E0F4F0E08827EE5DFD4F8F4FB0
:100440000C94CF1734023B023E0255026A02370277
:100450007F028B028F02A602BB02D002E702FC02DF
:100460003702110328033D0384B5806884BD60E032
:10047000822F0C94D11384B58062F8CF80918000D4
:100480008C7F82608093800080918100807E80617B
:10049000682B609381005093870040938600809181
:1004A0008000806880938000E2CF809180008C7F04
:1004B00082608093800080918100807E8061682BC3
:1004C0006093810050938700409386008091800064
:1004D0008062E8CF809180008C7F82608093800072
:1004E00080918100807E8061682B609381005093B1
:1004F000870040938600809180008860D3CF8091F0
:10050000B00080688093B0008091B100887F682B34
:100510006093B100ACCF8091B0008062F3CF809146
:1005200090008C7F82608093900080919100807E0B
:100530008061682B609391005093970040939600E0
:100540008091900080688093900091CF809190007E
:100550008C7F82608093900080919100807E80618A
:10056000682B609391005093970040939600809180
:1005700090008062E8CF809190008C7F82608093B1
:10058000900080919100807E8061682B6093910043
:100590005093970040939600809190008860D3CF4D
:1005A0008091A0008C7F82608093A0008091A10048
:1005B000807E8061682B6093A1005093A7004093D8
:1005C000A6008091A00080688093A00050CF809109
:1005D000A0008C7F82608093A0008091A100807E2B
:1005E0008061682B6093A1005093A7004093A60000
:1005F0008091A0008062E8CF8091A0008C7F826013
:100600008093A0008091A100807E8061682B609320
:10061000A1005093A7004093A6008091A00088609D
:10062000D3CF809120018C7F8260809320018091C4
:100630002101807E8061682B609321015093270106
:1006400040932601809120018068809320010FCF84
:10065000809120018C7F8260809320018091210114
:10066000807E8061682B6093210150932701409325
:100670002601809120018062E8CF809120018C7F4B
:1006800082608093200180912101807E8061682BAF
:10069000609321015093270140932601809120010E
:1006A0008860D3CF2F923F924F925F926F927F924A
:1006B0008F929F92AF92BF92CF92DF92EF92FF9272
:1006C0000F931F93CF93DF93CDB7DEB761970FB62C
:1006D000F894DEBF0FBECDBF0091F3061091F40673
:1006E000E090F106F090F206E0910F04F091100412
:1006F0004080518062807380A3019201D7016D9187
:100700007D918D919C910E94760F87FF2BC5A3014F
:100710009201F70164A575A586A597A50E94270EED
:1007200018160CF022C52091F7063091F8063A838E
:1007300029836901CC0CDD1CCC0CDD1C5701AC0CF1
:10074000BD1CA3019201D5016D917D918D919C916C
:100750000E94760FB4E0CB0ED11CCE0CDF1C181615
:100760000CF0F4C4F4E0AF1AB108A3019201D50172
:1007700014966D917D918D919C9117970E94760FA3
:1007800018160CF4D8C429813A813093F8062093C6
:10079000F706220F331F220F331F3E832D83F901EB
:1007A000EE0DFF1D80809180A280B380190134E09E
:1007B000230E311CF701E20DF31DC080D180E280D1
:1007C000F380A7019601C501B4010E94270E811193
:1007D000E4C4A5019401C301B2010E94270EAD81BA
:1007E000BE81A00FB11FBA83A98387FDC3C4020DC8
:1007F000131DF80180819181A281B38180930D073F
:1008000090930E07A0930F07B0931007E981FA8128
:1008100084A995A9A6A9B7A9809311079093120757
:10082000A0931307B09314074090E9065090EA068E
:100830006090EB067090EC064092FD065092FE062A
:100840006092FF067092000780900D0790900E074F
:10085000A0900F07B0901007C0901107D09012071A
:10086000E0901307F09014072091C4023091C50264
:100870004091C6025091C702C501B4010E947A0F8F
:1008800069837A838B839C832091CC023091CD0243
:100890004091CE025091CF02C701B6010E947A0F5B
:1008A0009B01AC0169817A818B819C810E94C30D7F
:1008B000A30192010E94C20D609305077093060781
:1008C00080930707909308074090ED065090EE063E
:1008D0006090EF067090F006409201075092020778
:1008E00060920307709204072091C8023091C902F8
:1008F0004091CA025091CB02C501B4010E947A0F07
:100900004B015C012091D0023091D1024091D20282
:100910005091D302C701B6010E947A0F9B01AC012E
:10092000C501B4010E94C30DA30192010E94C20D32
:100930006B017C01C0920907D0920A07E0920B0775
:10094000F0920C0720919002309191024091920216
:10095000509193020E947A0F2091CD063091CE06DD
:100960004091CF065091D0060E94C20D2091B40252
:100970003091B5024091B6025091B7020E947A0FB1
:1009800069837A838B839C832091BC023091BD0262
:100990004091BE025091BF02C701B6010E947A0F7A
:1009A0002091D1063091D2064091D3065091D406C1
:1009B0000E94C30D29813A814B815C810E94C30D45
:1009C0005B016C016AE070E080E090E088DC8C0103
:1009D0009093BC068093BB062091E0023091E10227
:1009E0004091E2025091E302B501C6010E947A0FE4
:1009F0003B014C01E090E402F090E502B091E60288
:100A0000B987E091E702ED839B01AC01B7018B2F21
:100A10009E2F0E94270E87FD16C0E090E802F090FE
:100A2000E902F091EA02F9872091EB022D8393010C
:100A3000A401B7018F2F9D810E94760F18161CF01C
:100A4000730189869D8220E030E04FE753E4B701CF
:100A500089859D810E94270E18160CF42CC420E075
:100A600030E0A901B70189859D810E94760F87FF3B
:100A700004C0E12CF12C19861D82A70169857D81B6
:100A8000C801F6DB6BE070E080E090E028DC7C01E0
:100A90009093B4068093B3060091EC021091ED029E
:100AA0009091EE029987A091EF02AD839501A60186
:100AB000B801892F9A2F0E94270E87FD16C000913A
:100AC000F0021091F102B091F202B987E091F302C5
:100AD000ED839501A601B8018B2F9E2F0E94760F02
:100AE00018161CF08501C986DD8220E030E04FE752
:100AF00053E4B80189859D810E94270E18160CF4D5
:100B0000E1C320E030E0A901B80189859D810E9400
:100B1000760F87FF04C000E010E019861D82A8014F
:100B200069857D81C701A4DB2091090730910A07FF
:100B300040910B0750910C076091980270919902B7
:100B400080919A0290919B020E947A0F69877A871E
:100B50008B879C87C0900507D0900607E090070719
:100B6000F0900807209194023091950240919602EE
:100B700050919702C701B6010E947A0F2091D506C5
:100B80003091D6064091D7065091D806FBD72091D8
:100B9000B8023091B9024091BA025091BB020E9452
:100BA0007A0F6D837E838F8398872091C002309166
:100BB000C1024091C2025091C302C701B6010E9416
:100BC0007A0F2091D9063091DA064091DB065091D8
:100BD000DC06D9D72D813E814F815885D4D76B0152
:100BE0007C0168E070E080E090E079DB3C0190936C
:100BF000CC068093CB062091FC023091FD024091FF
:100C0000FE025091FF02B601C7010E947A0F4B010C
:100C10005C01009100031091010330910203398BB4
:100C2000809103038D879401A501B80189899D8571
:100C30000E94270E87FD16C0009104031091050342
:100C400090910603998BA0910703AD879401A501AC
:100C5000B801892F9A2F0E94760F18161CF0840174
:100C6000A98ABD8620E030E04FE753E4B8018989C6
:100C70009D85EDD718160CF42CC320E030E0A901B7
:100C8000B80189899D850E94760F87FF04C000E026
:100C900010E0198A1D86A80169897D85C301E8DAFB
:100CA00069E070E080E090E01ADB9E878D8790938A
:100CB000C4068093C306A0900803B0900903009176
:100CC0000A0310910B039601A701B501C801BFD714
:100CD00087FD12C0A0900C03B0900D0300910E038D
:100CE00010910F039601A701B501C8010E94760F6C
:100CF000181614F05601870120E030E04FE753E466
:100D0000B501C801A4D718160CF4EAC220E030E0FF
:100D1000A901B501C8010E94760F87FF04C0A12C6C
:100D2000B12C00E010E0A501B8018D859E85A0DA08
:100D30002091050730910607409107075091080759
:100D400060919C0270919D0280919E0290919F0201
:100D50000E947A0F6D877E878F87988B1F92F1E0B4
:100D6000FF9384E1882E83E0982EAA24A394B12CCB
:100D700020E1C22E23E0D22EEE24E394F12C01E2F6
:100D800013E021E030E040E253E06DED76E085E2F3
:100D900097E058D5409018035090190360901A03BB
:100DA00070901B0380901C0390901D03A0901E0365
:100DB000B0901F0360912507709126078091270747
:100DC00090912807E3D7A30192010E947A0FA50111
:100DD00094010E947A0F6093150770931607809311
:100DE0001707909318072091E1063091E206409191
:100DF000E3065091E406C6D66B017C01C0921D0744
:100E0000D0921E07E0921F07F092200760912907F9
:100E100070912A0780912B0790912C07B7D7A301D7
:100E200092010E947A0FA50194010E947A0F6093AB
:100E3000190770931A0780931B0790931C07209142
:100E4000E5063091E6064091E7065091E8069AD60D
:100E500060932107709322078093230790932407C0
:100E6000C092E906D092EA06E092EB06F092EC0618
:100E70006093ED067093EE068093EF069093F00674
:100E80002091D8023091D9024091DA025091DB02D0
:100E900069817A818B819C810E947A0F2091CD0695
:100EA0003091CE064091CF065091D0066CD660931B
:100EB000CD067093CE068093CF069093D0062091F6
:100EC000DC023091DD024091DE025091DF02698543
:100ED0007A858B859C850E947A0F2091D10630916E
:100EE000D2064091D3065091D4064DD66093D106D8
:100EF0007093D2068093D3069093D4062091F40287
:100F00003091F5024091F6025091F7026D817E8199
:100F10008F819885EFD72091D5063091D6064091E4
:100F2000D7065091D8062FD66093D5067093D60673
:100F30008093D7069093D8062091F8023091F90259
:100F40004091FA025091FB026D857E858F859889CC
:100F5000D1D72091D9063091DA064091DB06509125
:100F6000DC0611D66093D9067093DA068093DB060F
:100F70009093DC061F9221E02F9344E1842E43E0FE
:100F8000942EAA24A394B12C60E1C62E63E0D62E41
:100F9000EE24E394F12C21E030E040E253E06DEDEB
:100FA00076E085E297E07FD480911507909116074F
:100FB000A0911707B09118078093E1069093E2067D
:100FC000A093E306B093E4068091190790911A0765
:100FD000A0911B07B0911C078093E5069093E6064D
:100FE000A093E706B093E806C090F903D090FA0307
:100FF000E090FB03F090FC033FEFC31AD30AE30A2F
:10100000F30AC092F903D092FA03E092FB03F09244
:10101000FC030F900F900F900F90C114D104E104C6
:10102000F10499F48091FD039091FE03A091FF03D8
:10103000B09100040196A11DB11D8093FD03909312
:10104000FE03A093FF03B0930004809001049090EE
:101050000204A0900304B090040480910F049091C6
:1010600010049A8389836091FD037091FE0380913F
:10107000FF039091000488D6A50194013BD720E09E
:1010800030E040E85FE436D72B013C01C701B601F0
:101090007BD6A50194012ED79B01AC01C301B201FF
:1010A00072D5A981BA816D937D938D939C9313978B
:1010B0008091050490910604A0910704B091080462
:1010C0000196A11DB11D8093050490930604A09381
:1010D0000704B0930804892B8A2B8B2B99F48091F9
:1010E000090490910A04A0910B04B0910C0401969C
:1010F000A11DB11D8093090490930A04A0930B04D1
:10110000B0930C0461960FB6F894DEBF0FBECDBF4E
:10111000DF91CF911F910F91FF90EF90DF90CF90D3
:10112000BF90AF909F908F907F906F905F904F9007
:101130003F902F900895E981FA813197FA83E983EE
:1011400011CBE981FA813196FA83E983D6016D9159
:101150007D918D919D916D01A301920178D5181615
:1011600084F711CB1A8219820ECBEAE0F0E0FA8301
:10117000E98309CBE981FA8180819181A281B381E0
:1011800080930D0790930E07A0930F07B09310075D
:1011900080A991A9A2A9B3A93FCBA3019201C7013C
:1011A000B601F0D42B013C01A5019401C701B601A1
:1011B000E9D49B01AC01C301B2014DD54B015C01E7
:1011C000AC019B0160E070E080E89FE3DBD42B0181
:1011D0003C01ED81FE81E00FF11FC080D180E280F3
:1011E000F380F801E20DF31D80819181A281B3812A
:1011F00089839A83AB83BC839C01AD01C701B6018F
:1012000026D58823A9F0A7019601C501B40172D69D
:101210006B017C0129813A814B815C81C301B20160
:1012200069D69B01AC01C701B601ADD46B017C014D
:10123000C0920D07D0920E07E0920F07F0921007B0
:10124000005D1F4FAD81BE81A00FB11FCD90DD901D
:10125000ED90FC90020D131DD8018D919D910D9084
:10126000BC91A02D89839A83AB83BC839C01AD0183
:10127000C701B601ECD48823A9F0A7019601C501E6
:10128000B40138D66B017C0129813A814B815C81A4
:10129000C301B2012FD69B01AC01C701B60173D4C3
:1012A0006B017C01C0921107D0921207E0921307E4
:1012B000F0921407B9CAE12CF12C3FE7398783E497
:1012C0008D83DBCB00E010E0FFE7F98723E42D837B
:1012D00026CC00E010E0BFE7B98BE3E4ED87DBCC80
:1012E000A12CB12C0FE713E41ECD8F929F92AF92E9
:1012F000BF92DF92EF92FF920F931F93CF93DF93F2
:10130000E5E7F3E084EADF011D928A95E9F78DE0D5
:1013100094E095838483CFE0D4E0D7AFC6AF01E0FB
:1013200014E0138B028BF093DE03E093DD03F38371
:10133000E28321E030E0DC012D933C9382E393E0F3
:101340009187808781E194E0998388834AE057ED13
:1013500063E27CE3F8014083518362837383EDEFA2
:10136000F6E080E3DF011D928A95E9F7CDEAD6E049
:1013700080E5FE0111928A95E9F780E692E090936C
:10138000F2068093F10680E092E09093F406809359
:10139000F306DD24D394D092FA06812C912C5401CB
:1013A000839489869A86AB86BC86E12CF12C8701D2
:1013B000A80197016AE070E080E090E00E94B3012C
:1013C0009F878E87DD861882D092F9061D828982DA
:1013D0009A82AB82BC82A80197016BE070E080E04A
:1013E00090E00E94B3019F838E83DD82188ED0929D
:1013F000FC061D8E898E9A8EAB8EBC8EA80197013D
:1014000068E070E080E090E00E94B3019F8F8E8FD3
:10141000DD8E188AD092FB061D8A898A9A8AAB8A49
:10142000BC8AA801970169E070E080E090E00E942A
:10143000B3019F8B8E8BDD8AE0E9F2E08091D402CC
:101440009091D502A091D602B091D7028CAF9DAFFA
:10145000AEAFBFAF8093ED069093EE06A093EF067C
:10146000B093F00684899589A689B78988A399A342
:10147000AAA3BBA3848D958DA68DB78D8CA39DA3A8
:10148000AEA3BFA3808D918DA28DB38D88A799A7A0
:10149000AAA7BBA780A191A1A2A1B3A18CA79DA738
:1014A000AEA7BFA7E8AAF9AA0AAB1BAB80899189AE
:1014B000A289B3898CAB9DABAEABBFAB88AF99AF04
:1014C000AAAFBBAFDF91CF911F910F91FF90EF902B
:1014D000DF90BF90AF909F908F9008958091B50658
:1014E00081112EC081E08093B5068091B60690915F
:1014F000B706A091B806B091B9060197A105B1054C
:10150000F9F48091BA068823D9F06AE070E080E0AF
:1015100090E00E946F019093BC068093BB0640E070
:1015200050E0BA010E9438016AE070E080E090E08B
:101530000E946F019093BC068093BB060E94040238
:101540008091AD0681112EC081E08093AD0680911F
:10155000AE069091AF06A091B006B091B10601978A
:10156000A105B105F9F48091B2068823D9F06BE0AA
:1015700070E080E090E00E946F019093B406809349
:10158000B30640E050E0BA010E9438016BE070E021
:1015900080E090E00E946F019093B4068093B306C0
:1015A0000E9404028091C50681112EC081E08093C3
:1015B000C5068091C6069091C706A091C806B09155
:1015C000C9060197A105B105F9F48091CA068823DF
:1015D000D9F068E070E080E090E00E946F019093A5
:1015E000CC068093CB0640E050E0BA010E9438015F
:1015F00068E070E080E090E00E946F019093CC067C
:101600008093CB060E9404028091BD0681112EC0FA
:1016100081E08093BD068091BE069091BF06A091A7
:10162000C006B091C1060197A105B105F9F48091FA
:10163000C2068823D9F069E070E080E090E00E9463
:101640006F019093C4068093C30640E050E0BA0156
:101650000E94380169E070E080E090E00E946F0134
:101660009093C4068093C3060C9404020895CF930C
:10167000DF938091190490911A040E94FE13EC01EB
:1016800080911B0490911C040E94FE130197C1F4E9
:1016900080911D0490911E04A0911F04B09120041C
:1016A0002197C1F40196A11DB11D80931D04909353
:1016B0001E04A0931F04B0932004DF91CF910895DE
:1016C00080911D0490911E04A0911F04B0912004EC
:1016D000CD2B41F30197A109B109E7CFCF93DF9358
:1016E00080912304909124040E94FE13EC018091C8
:1016F0002504909126040E94FE130197C1F4809165
:10170000270490912804A0912904B0912A042197DC
:10171000C1F40196A11DB11D809327049093280464
:10172000A0932904B0932A04DF91CF91089580916A
:10173000270490912804A0912904B0912A04CD2B6C
:1017400041F30197A109B109E7CFCF93DF938091CE
:101750002504909126040E94FE13EC01809123043D
:10176000909124040E94FE130197C1F480912704F4
:1017700090912804A0912904B0912A04CD2BC1F4A2
:101780000196A11DB11D8093270490932804A09376
:101790002904B0932A04DF91CF9108958091270402
:1017A00090912804A0912904B0912A04219741F333
:1017B0000197A109B109E7CFCF93DF9380911B0473
:1017C00090911C040E94FE13EC01809119049091E9
:1017D0001A040E94FE130197C1F480911D04909198
:1017E0001E04A0911F04B0912004CD2BC1F40196DA
:1017F000A11DB11D80931D0490931E04A0931F048E
:10180000B0932004DF91CF91089580911D049091B1
:101810001E04A0911F04B0912004219741F3019769
:10182000A109B109E7CF02978431910540F48A5BA1
:101830009C4FFC018081082E000C990B08958FEFBE
:101840009FEF08950F931F93CF93DF93CDB7DEB72C
:101850008C0120E030E040E85FE3FB0160817181B2
:1018600082819381F4D1811119C080911D049091DE
:101870001E04A0911F04B0912004F801808391837D
:10188000A283B3838091270490912804A091290416
:10189000B0912A0484839583A683B783DF91CF9187
:1018A0001F910F9108958F929F92AF92BF92CF9206
:1018B000DF92EF92FF920F931F93CF93DF93CDB7F9
:1018C000DEB77B015A0120E030E040E85FE3FB0136
:1018D0006081718182819381BAD1882309F483C0A8
:1018E000F501808190E090931A0480931904F80127
:1018F000808190E090931C0480931B04F60160812A
:101900007181828193810FD27093240460932304A8
:10191000F401608171818281938105D270932604E4
:10192000609325048091190490911A0460E0FDD61B
:1019300080911B0490911C0460E0F7D680912304F1
:101940009091240460E0F1D68091250490912604C2
:1019500060E0EBD68091190490911A0461E021D7E0
:1019600080911B0490911C0461E01BD7809123049B
:101970009091240461E015D780912504909126046C
:1019800061E00FD78091190490911A044CDF41E077
:1019900050E06CED7BE012D380911B0490911C040D
:1019A00042DF41E050E067E37BE008D3809123040D
:1019B0009091240438DF41E050E065EA7BE0FED2FC
:1019C00080912504909126042EDF41E050E06EE6E0
:1019D0007BE0F4D280E090E0A0E8BFE3F7018083F1
:1019E0009183A283B383DF91CF911F910F91FF90D9
:1019F000EF90DF90CF90BF90AF909F908F90089521
:101A000040E855E260E070E090E080E000C08130A6
:101A1000910571F01CF4892B39F0089582309105FD
:101A200059F0039769F0089526E089E394E0D8C758
:101A300026E086ED94E0FBCF26E083E795E0F7CF44
:101A400026E080E196E0F3CF1F920F920FB60F923F
:101A500011240BB60F922F933F934F935F936F9385
:101A60007F938F939F93AF93BF93EF93FF938FE8F1
:101A70009DEF909325018093240134D0FF91EF9145
:101A8000BF91AF919F918F917F916F915F914F9196
:101A90003F912F910F900BBE0F900FBE0F901F9094
:101AA00018958FE89DEF9093250180932401A3E77B
:101AB000B0E08C918E7F8C93E0E2F1E080818C7FAE
:101AC0008083E1E2F1E08081877E80838081846091
:101AD000808380818C7F80838C9181608C9308953A
:101AE00081E0089580912D0491E0980F90932D044A
:101AF000882349F021E030E030932F0420932E0416
:101B000080932D04089578940E945203F894809154
:101B10002D048150F5CFCF93DF9310922E071092B2
:101B20002D0767D46DDFC0914403D091450319821E
:101B30001882DBDBF894B5DF81E028813981232B23
:101B400009F080E080932D077894789480912D0798
:101B5000811107C0C3DCF89490E080E0DF91CF9161
:101B6000089581E028813981232B09F480E0809356
:101B70002E0790912E0781E0911180E080932D0730
:101B8000AFDFE4CF5058BB27AA270ED075C166D16E
:101B900030F06BD120F031F49F3F11F41EF45BC1A3
:101BA0000EF4E095E7FB51C1E92F77D180F3BA1726
:101BB000620773078407950718F071F49EF58FC1CB
:101BC0000EF4E0950B2EBA2FA02D0B01B901900158
:101BD0000C01CA01A0011124FF27591B99F0593F9C
:101BE00050F4503E68F11A16F040A22F232F342FE4
:101BF0004427585FF3CF469537952795A795F04032
:101C00005395C9F77EF41F16BA0B620B730B840B46
:101C1000BAF09150A1F0FF0FBB1F661F771F881FFE
:101C2000C2F70EC0BA0F621F731F841F48F4879556
:101C300077956795B795F7959E3F08F0B3CF939545
:101C4000880F08F09927EE0F979587950895D9D0BA
:101C500008F481E008950CD00FC107D140F0FED008
:101C600030F021F45F3F19F0F0C0511139C1F3C0D9
:101C700014D198F39923C9F35523B1F3951B550B50
:101C8000BB27AA2762177307840738F09F5F5F4F4F
:101C9000220F331F441FAA1FA9F333D00E2E3AF090
:101CA000E0E830D091505040E695001CCAF729D0AA
:101CB000FE2F27D0660F771F881FBB1F26173707F9
:101CC0004807AB07B0E809F0BB0B802DBF01FF2729
:101CD00093585F4F2AF09E3F510568F0B6C000C18F
:101CE0005F3FECF3983EDCF3869577956795B79563
:101CF000F7959F5FC9F7880F911D9695879597F97E
:101D00000895E1E0660F771F881FBB1F62177307F6
:101D10008407BA0720F0621B730B840BBA0BEE1F0B
:101D200088F7E095089504D06894B111D9C008955A
:101D3000BCD088F09F5790F0B92F9927B751A0F0E9
:101D4000D1F0660F771F881F991F1AF0BA95C9F74F
:101D500012C0B13081F0C3D0B1E00895C0C0672F88
:101D6000782F8827B85F39F0B93FCCF386957795FF
:101D70006795B395D9F73EF49095809570956195E8
:101D80007F4F8F4F9F4F0895E89409C097FB3EF413
:101D900090958095709561957F4F8F4F9F4F9923B8
:101DA000A9F0F92F96E9BB279395F6958795779536
:101DB0006795B795F111F8CFFAF4BB0F11F460FFF6
:101DC0001BC06F5F7F4F8F4F9F4F16C0882311F04E
:101DD00096E911C0772321F09EE8872F762F05C062
:101DE000662371F096E8862F70E060E02AF09A95FD
:101DF000660F771F881FDAF7880F9695879597F9F2
:101E00000895990F0008550FAA0BE0E8FEEF16168B
:101E10001706E807F907C0F012161306E407F507DE
:101E200098F0621B730B840B950B39F40A2661F052
:101E3000232B242B252B21F408950A2609F4A140F5
:101E4000A6958FEF811D811D089597F99F6780E802
:101E500070E060E008959FEF80EC089500240A94FC
:101E60001616170618060906089500240A94121675
:101E70001306140605060895092E0394000C11F4A8
:101E8000882352F0BB0F40F4BF2B11F460FF04C055
:101E90006F5F7F4F8F4F9F4F089557FD9058440FAE
:101EA000551F59F05F3F71F04795880F97FB991FB9
:101EB00061F09F3F79F08795089512161306140676
:101EC000551FF2CF4695F1DF08C016161706180603
:101ED000991FF1CF86957105610508940895E894DE
:101EE000BB2766277727CB0197F908958ADF08F487
:101EF0008FEF08950BD0C0CFB1DF28F0B6DF18F018
:101F0000952309F0A2CFA7CF1124EACFC6DFA0F313
:101F1000959FD1F3950F50E0551F629FF001729F7E
:101F2000BB27F00DB11D639FAA27F00DB11DAA1F9D
:101F3000649F6627B00DA11D661F829F2227B00DEA
:101F4000A11D621F739FB00DA11D621F839FA00D75
:101F5000611D221F749F3327A00D611D231F849FC5
:101F6000600D211D822F762F6A2F11249F5750401C
:101F70008AF0E1F088234AF0EE0FFF1FBB1F661FB7
:101F8000771F881F91505040A9F79E3F510570F070
:101F90005CCFA6CF5F3FECF3983EDCF38695779558
:101FA0006795B795F795E7959F5FC1F7FE2B880F6B
:101FB000911D9695879597F908950895883008F0B2
:101FC00075C0E82FF0E0EE0FFF1FEE5DFC4F718350
:101FD00060838150873008F03CC0E82FF0E088270C
:101FE000EC50F04F8F4FDBC73110FB0F03100F1079
:101FF0001C103D104A10809169008C7F482B409343
:102000006900E89A089580916900837F440F551F05
:10201000440F551F482B40936900E99A0895809119
:1020200069008F7C74E0440F551F7A95E1F7482BC7
:1020300040936900EA9A0895809169008F7366E081
:10204000440F551F6A95E1F7482B40936900EB9ABE
:10205000089580916A008C7F482B40936A00EC9A27
:10206000089580916A00837F440F551F440F551FC8
:10207000482B40936A00ED9A089580916A008F7C06
:1020800024E0440F551F2A95E1F7482B40936A003E
:10209000EE9A089580916A008F7396E0440F551F61
:1020A0009A95E1F7482B40936A00EF9A08951F92A2
:1020B0000F920FB60F9211240BB60F922F933F93EE
:1020C0004F935F936F937F938F939F93AF93BF9340
:1020D000EF93FF93E0912603F09127031995FF9169
:1020E000EF91BF91AF919F918F917F916F915F9190
:1020F0004F913F912F910F900BBE0F900FBE0F90FD
:102100001F9018951F920F920FB60F9211240BB6C5
:102110000F922F933F934F935F936F937F938F9380
:102120009F93AF93BF93EF93FF93E0912803F091B8
:1021300029031995FF91EF91BF91AF919F918F91D5
:102140007F916F915F914F913F912F910F900BBEB7
:102150000F900FBE0F901F9018951F920F920FB601
:102160000F9211240BB60F922F933F934F935F93CF
:102170006F937F938F939F93AF93BF93EF93FF934F
:10218000E0912A03F0912B031995FF91EF91BF91F4
:10219000AF919F918F917F916F915F914F913F91FF
:1021A0002F910F900BBE0F900FBE0F901F901895A0
:1021B0001F920F920FB60F9211240BB60F922F930E
:1021C0003F934F935F936F937F938F939F93AF93BF
:1021D000BF93EF93FF93E0912C03F0912D0319959A
:1021E000FF91EF91BF91AF919F918F917F916F91EF
:1021F0005F914F913F912F910F900BBE0F900FBEAB
:102200000F901F9018951F920F920FB60F921124E6
:102210000BB60F922F933F934F935F936F937F93E0
:102220008F939F93AF93BF93EF93FF93E09122031C
:10223000F09123031995FF91EF91BF91AF919F9179
:102240008F917F916F915F914F913F912F910F905F
:102250000BBE0F900FBE0F901F9018951F920F92FC
:102260000FB60F9211240BB60F922F933F934F93FB
:102270005F936F937F938F939F93AF93BF93EF93EE
:10228000FF93E0912403F09125031995FF91EF91BD
:10229000BF91AF919F918F917F916F915F914F917E
:1022A0003F912F910F900BBE0F900FBE0F901F907C
:1022B00018951F920F920FB60F9211240BB60F9222
:1022C0002F933F934F935F936F937F938F939F933E
:1022D000AF93BF93EF93FF93E0912E03F0912F0301
:1022E0001995FF91EF91BF91AF919F918F917F9140
:1022F0006F915F914F913F912F910F900BBE0F9077
:102300000FBE0F901F9018951F920F920FB60F924D
:1023100011240BB60F922F933F934F935F936F93BC
:102320007F938F939F93AF93BF93EF93FF93E0912E
:102330003003F09131031995FF91EF91BF91AF9167
:102340009F918F917F916F915F914F913F912F91CD
:102350000F900BBE0F900FBE0F901F9018951F92FD
:102360000F920FB60F9211242F933F938F939F9349
:10237000AF93BF938091310490913204A0913304C4
:10238000B09134043091300423E0230F2D3758F5F9
:102390000196A11DB11D20933004809331049093C8
:1023A0003204A0933304B0933404809135049091A7
:1023B0003604A0913704B09138040196A11DB11DD7
:1023C0008093350490933604A0933704B093380477
:1023D000BF91AF919F918F913F912F910F900FBE21
:1023E0000F901F90189526E8230F0296A11DB11D8E
:1023F000D2CF789484B5826084BD84B5816084BD79
:1024000085B5826085BD85B5816085BDEEE6F0E06D
:10241000808181608083E1E8F0E0108280818260C9
:102420008083808181608083E0E8F0E0808181604A
:102430008083E1EBF0E0808184608083E0EBF0E07A
:10244000808181608083E1E9F0E080818260808327
:10245000808181608083E0E9F0E080818160808319
:10246000E1EAF0E080818260808380818160808306
:10247000E0EAF0E0808181608083E1E2F1E0808148
:1024800082608083808181608083E0E2F1E08081EE
:1024900081608083EAE7F0E08081846080838081CE
:1024A0008260808380818160808380818068808376
:1024B0001092C10008951F93CF93DF93182FEB0163
:1024C00061E033D1209731F460E0812FDF91CF912B
:1024D0001F9167C1CF3FD10511F461E0F6CFE12F25
:1024E000F0E0EC51FF4FE491E150E23108F0B2C06E
:1024F000F0E08827E258FD4E8F4F51C59012981298
:102500009D12A712B1122A13BB12C312CB12D512FD
:10251000DF12E912F81202132A130C1316132013F8
:1025200084B5806884BDC7BDDF91CF911F910895A8
:1025300084B5806284BDC8BDF7CF8091800080687B
:1025400080938000D0938900C0938800EDCF809164
:102550008000806280938000D0938B00C0938A00BB
:10256000E3CF80918000886080938000D0938D00BD
:10257000C0938C00D9CF8091B00080688093B00068
:10258000C093B300D1CF8091B00080628093B0003F
:10259000C093B400C9CF8091900080688093900070
:1025A000D0939900C0939800BFCF80919000806233
:1025B00080939000D0939B00C0939A00B5CF8091F8
:1025C0009000886080939000D0939D00C0939C0001
:1025D000ABCF8091A00080688093A0008091A00084
:1025E0008F7B8093A000D093A900C093A8009CCFBC
:1025F0008091A00080628093A000D093AB00C09334
:10260000AA0092CF8091A00088608093A000D09310
:10261000AD00C093AC0088CF80912001806880938A
:102620002001D0932901C09328017ECF8091200101
:10263000806280932001D0932B01C0932A0174CF34
:1026400080912001886080932001D0932D01C09358
:102650002C016ACFC038D1050CF03FCF35CF815067
:10266000823108F059C0E82FF0E08827E65CFC4E84
:102670008F4F95C45A135E134C13521356138C1379
:10268000611367136B137113751379137F1383131E
:102690008C1387138D139113809180008F77809313
:1026A00080000895809180008F7DF9CF8091800017
:1026B000877FF5CF84B58F7784BD089584B58F7DEE
:1026C000FBCF8091B0008F778093B0000895809108
:1026D000B0008F7DF9CF809190008F77809390002C
:1026E0000895809190008F7DF9CF80919000877F31
:1026F000F5CF8091A0008F778093A00008958091FE
:10270000A0008F7DF9CF8091A000877FF5CF8091C9
:1027100020018F77809320010895809120018F7D83
:10272000F9CF80912001877FF5CFCF93DF9390E0A1
:10273000FC01E65DFE4F249180599E4FFC0184917F
:102740008823C9F090E0880F991FFC01E651FE4FE5
:10275000A591B491FC01E053FE4FC591D491611154
:102760000DC09FB7F8948C91209582238C9388811B
:10277000282328839FBFDF91CF910895623051F4C1
:102780009FB7F8943C91822F809583238C93E881A6
:102790002E2BEFCF8FB7F894EC912E2B2C938FBF6D
:1027A000EACF1F93CF93DF93282F30E0F901EC514C
:1027B000FF4F8491F901E65DFE4FD491F901E05994
:1027C000FE4FC491CC23A1F0162F811148DFEC2FCE
:1027D000F0E0EE0FFF1FE053FE4FA591B4918FB7CD
:1027E000F894EC91111108C0D095DE23DC938FBFD3
:1027F000DF91CF911F910895DE2BF8CFCF93DF9318
:10280000282F30E0F901EC51FF4F8491F901E65D8A
:10281000FE4FD491F901E059FE4FC491CC2399F0B9
:1028200081111DDFEC2FF0E0EE0FFF1FEA54FE4F89
:10283000A591B491EC91ED2381E090E009F480E062
:10284000DF91CF91089580E090E0FACFFC01918D67
:10285000228D892F90E0805C9F4F821B91098F739E
:1028600099270895FC01918D828D981731F0828D02
:10287000E80FF11D858D90E008958FEF9FEF08958B
:10288000FC01918D828D981761F0A28DAE0FBF2F44
:10289000B11D5D968C91928D9F5F9F73928F90E09A
:1028A00008958FEF9FEF0895FC01538D448D252FE0
:1028B00030E0842F90E0821B930B541710F0CF96DA
:1028C000089501970895FC01A48DA80FB92FB11D9B
:1028D000A35ABF4F2C91848D90E001968F73992756
:1028E000848FA689B7892C93A089B1898C91837034
:1028F00080648C93938D848D981306C00288F3892D
:10290000E02D80818F7D80830895CF93DF93EC014C
:10291000888D8823B1F0AA89BB89E889F9898C91CF
:1029200085FD03C0808186FD0CC00FB607FCF7CF84
:102930008C9185FFF2CF808185FFEDCFCE01C3DF83
:10294000EACFDF91CF910895EF92FF920F931F93FB
:10295000CF93DF93EC0181E0888F9B8D8C8D981352
:102960001AC0E889F989808185FF15C09FB7F8945E
:10297000EE89FF896083E889F989808183708064AA
:1029800080839FBF81E090E0DF91CF911F910F91F5
:10299000FF90EF900895F62E0B8D10E00F5F1F4F04
:1029A0000F731127E02E8C8D8E110BC00FB607FC14
:1029B000FACFE889F989808185FFF5CFCE0183DFE1
:1029C000F2CFEB8DEC0FFD2FF11DE35AFF4FF0829C
:1029D0009FB7F8940B8FEA89FB8980818062D0CF02
:1029E000CF92DF92EF92FF921F93CF93DF93EC0190
:1029F0006A017B01122FE889F98982E08083C11482
:102A000081EED806E104F10499F060E079E08DE30D
:102A100090E0A7019601A1D2215031094109510945
:102A20005695479537952795211580E1380790F001
:102A3000E889F989108260E874E88EE190E0A701E6
:102A400096018BD22150310941095109569547957C
:102A500037952795EC85FD853083EE85FF852083AE
:102A6000188EEC89FD891083EA89FB898081806159
:102A70008083EA89FB89808188608083EA89FB8979
:102A8000808180688083EA89FB8980818F7D808353
:102A9000DF91CF911F91FF90EF90DF90CF9008953D
:102AA0001F920F920FB60F9211240BB60F922F9315
:102AB0008F939F93EF93FF93E0914904F0914A0421
:102AC0008081E0914F04F091500482FD1DC09081FF
:102AD000809152048F5F8F7320915304821741F0CD
:102AE000E0915204F0E0E75CFB4F958F8093520435
:102AF000FF91EF919F918F912F910F900BBE0F90AF
:102B00000FBE0F901F9018958081F2CF1F920F92E9
:102B10000FB60F9211240BB60F922F933F934F9342
:102B20005F936F937F938F939F93AF93BF93EF9335
:102B3000FF9389E394E0C7DEFF91EF91BF91AF91DE
:102B40009F918F917F916F915F914F913F912F91C5
:102B50000F900BBE0F900FBE0F901F901895E9E3DA
:102B6000F4E01382128288EE93E0A0E0B0E0848368
:102B70009583A683B7838EE593E09183808385EC6C
:102B800090E09587848784EC90E09787868780EC37
:102B900090E0918B808B81EC90E0938B828B82EC28
:102BA00090E0958B848B86EC90E0978B868B118ED2
:102BB000128E138E148E08951F920F920FB60F92DD
:102BC00011240BB60F922F938F939F93EF93FF9344
:102BD000E091E604F091E7048081E091EC04F0914B
:102BE000ED0482FD1DC090818091EF048F5F8F7393
:102BF0002091F004821741F0E091EF04F0E0EA52F6
:102C0000FB4F958F8093EF04FF91EF919F918F91F0
:102C10002F910F900BBE0F900FBE0F901F90189525
:102C20008081F2CF1F920F920FB60F9211240BB634
:102C30000F922F933F934F935F936F937F938F9355
:102C40009F93AF93BF93EF93FF9386ED94E03BDEAA
:102C5000FF91EF91BF91AF919F918F917F916F9174
:102C60005F914F913F912F910F900BBE0F900FBE30
:102C70000F901F901895E6EDF4E01382128288EE13
:102C800093E0A0E0B0E084839583A683B7838EE5CC
:102C900093E0918380838DEC90E0958784878CEC22
:102CA00090E09787868788EC90E0918B808B89EC09
:102CB00090E0938B828B8AEC90E0958B848B8EECEA
:102CC00090E0978B868B118E128E138E148E089542
:102CD0001F920F920FB60F9211240BB60F922F93E3
:102CE0008F939F93EF93FF93E0918305F091840579
:102CF0008081E0918905F0918A0582FD1DC0908157
:102D000080918C058F5F8F7320918D05821741F024
:102D1000E0918C05F0E0ED58FA4F958F80938C058B
:102D2000FF91EF919F918F912F910F900BBE0F907C
:102D30000FBE0F901F9018958081F2CF1F920F92B7
:102D40000FB60F9211240BB60F922F933F934F9310
:102D50005F936F937F938F939F93AF93BF93EF9303
:102D6000FF9383E795E0AFDDFF91EF91BF91AF91C6
:102D70009F918F917F916F915F914F913F912F9193
:102D80000F900BBE0F900FBE0F901F901895E3E7AA
:102D9000F5E01382128288EE93E0A0E0B0E0848335
:102DA0009583A683B7838EE593E09183808385ED39
:102DB00090E09587848784ED90E09787868780ED03
:102DC00090E0918B808B81ED90E0938B828B82EDF4
:102DD00090E0958B848B86ED90E0978B868B118E9F
:102DE000128E138E148E08951F920F920FB60F92AB
:102DF00011240BB60F922F938F939F93EF93FF9312
:102E0000E0912006F09121068081E0912606F09164
:102E1000270682FD1DC09081809129068F5F8F73E8
:102E200020912A06821741F0E0912906F0E0E05F48
:102E3000F94F958F80932906FF91EF919F918F9184
:102E40002F910F900BBE0F900FBE0F901F901895F3
:102E50008081F2CF1F920F920FB60F9211240BB602
:102E60000F922F933F934F935F936F937F938F9323
:102E70009F93AF93BF93EF93FF9380E196E023DDA1
:102E8000FF91EF91BF91AF919F918F917F916F9142
:102E90005F914F913F912F910F900BBE0F900FBEFE
:102EA0000F901F901895E0E1F6E01382128288EEF1
:102EB00093E0A0E0B0E084839583A683B7838EE59A
:102EC00093E09183808385E391E09587848784E311
:102ED00091E09787868780E391E0918B808B81E3F7
:102EE00091E0938B828B82E391E0958B848B86E3D8
:102EF00091E0978B868B118E128E138E148E08950F
:102F0000AF92BF92CF92DF92EF92FF920F931F93F7
:102F1000CF93DF936C017B018B01040F151FEB0135
:102F20005E01AE18BF08C017D10759F06991D601EC
:102F3000ED91FC910190F081E02DC6011995892B4E
:102F400079F7C501DF91CF911F910F91FF90EF901D
:102F5000DF90CF90BF90AF900895A1E21A2EAA1BE8
:102F6000BB1BFD010DC0AA1FBB1FEE1FFF1FA21739
:102F7000B307E407F50720F0A21BB30BE40BF50B36
:102F8000661F771F881F991F1A9469F760957095BF
:102F9000809590959B01AC01BD01CF010895EE0F86
:102FA000FF1F881F8BBF0790F691E02D1994F894AE
:022FB000FFCF51
:102FB2000000003F0000003F000000000000000091
:102FC2000000003F0000003F000000000000000081
:102FD2000000003F0000003F000000000000000071
:102FE2000000000000000000C3F5C8BFC3F5C8BF61
:102FF2000000000000000000C3F5C8BFC3F5C8BF51
:1030020000000000000000000000000000000000BE
:1030120000000000000000400000004000004040AE
:10302200000040400000D0400000D0400000F040CE
:103032000000F0400000204100002041000030412B
:1030420000000000000000005577F5445577F54474
:10305200000000000000000000000000000000006E
:10306200000000000000C8420000C842FA98AE42C8
:10307200FA98AE420000803F0000803FCDCCCCBD2C
:10308200CDCCCC3D000000000AD7233C0AD7233C1C
:10309200000080BF00007F430000000000007F436B
:1030A200000000000AD7233C0AD7233C000080BF5F
:1030B20000007F430000000000007F43000000008A
:1030C20000009041000098417C2625390000C8424A
:1030D2000203DD0FDD0FDD0FDD0FDD0FDD0FDD0F75
:1030E200DD0F466978656453746570446973637271
:1030F2006574650075030001FFFFFFFFFFFFFFFF1F
:10310200FFFFFFFFFFFF0504030200000000A414FD
:0C31120080175414851426144014321445
:00000001FF
