:1000000014C100000C943E110C9469110C949411CD
:100010000C94BF110C94EA110C9415120C9440121C
:100020000C946B1233C1000031C100002FC10000DD
:100030002DC100002BC1000029C1000027C1000014
:1000400025C1000023C1000021C100001FC1000024
:100050001DC100001BC1000019C100000C949612C4
:1000600015C100000C9437160C946D160FC10000DA
:100070000DC100000BC1000009C1000007C1000054
:1000800005C1000003C1000001C10000FFC0000065
:100090000C94C3160C94F916F9C00000F7C00000C8
:1000A000F5C00000F3C00000F1C00000EFC0000088
:1000B000EDC00000EBC00000E9C00000E7C0000098
:1000C000E5C00000E3C000000C94850D0C944F17B0
:1000D0000C948517DBC000000C94DB170C941118EE
:1000E000D5C0000005A84CCDB2D44EB93836A9020F
:1000F0000C50B9918688083CA6AAAA2ABE00000026
:10010000803F00000A0B02090C0D0E0807030401D2
:1001100000000000000000000000000000000000DF
:1001200000000000000000000000000000001211AC
:1001300010000000000000000000000000000000AF
:10014000000000000000000001021020200808103C
:100150002040102040800201020108040201010237
:100160000408102040808040201008040201800410
:10017000020180402010080402010804020101026B
:10018000040810204080010204081020408005056A
:100190000505070508080808020202020A0A0808FD
:1001A000040404040101010101010101030303032B
:1001B00003030303040707070C0C0C0C0C0C0C0CBA
:1001C0000202020206060606060606060B0B0B0BCB
:1001D0000B0B0B0B000020002300260029002C0035
:1001E0002F00320000010000030106010901000098
:1001F0002200250028002B002E00310034000201CF
:100200000000050108010B01000021002400270067
:100210002A002D0030003300010100000401070115
:100220000A0196162217AE173A1811241FBECFEFF7
:10023000D1E2DEBFCDBF00E00CBF13E0A0E0B2E032
:10024000E0E8F1E300E00BBF02C007900D92AE3191
:10025000B107D9F726E0AEE1B3E001C01D92A334A7
:10026000B207E1F711E0C5E1D1E000E006C0219757
:100270000109802FFE010E94B618C131D10780E02C
:100280000807A9F70E94EC0D0C94BE18B9CECF92C6
:10029000DF92EF92FF92CF93882351F16A017B01A5
:1002A000CFEFC80F20E030E0A901CB01B6010E94DA
:1002B000880E87FF11C0C701B60190580E94FC0E3E
:1002C0009B01AC016C2F70E090E080E0CF91FF903B
:1002D000EF90DF90CF90B2C0C701B6010E94F70E39
:1002E0008C2FCF91FF90EF90DF90CF900C94421322
:1002F000CF91FF90EF90DF90CF9008950F931F93D1
:100300008B019C0183E036952795179507958A9573
:10031000D1F7025E1C4F462F477021E030E0F90113
:1003200002C0EE0FFF1F4A95E2F7AF01F8012081EE
:100330002423CB010196211102C090E080E01F919F
:100340000F9108950F931F938B019C0183E03695C5
:100350002795179507958A95D1F7677081E090E00A
:1003600001C0880F6A95EAF7F801E25EFC4F208130
:10037000452B31F48095822380831F910F9108953E
:10038000822BFACF2F923F924F925F926F927F9281
:100390008F929F92AF92BF92CF92DF92EF92FF9295
:1003A0000F931F93CF93DF93D62EC72E782E692EEF
:1003B00049015A01280161E08D2D0E947C14CD2D48
:1003C000DC2D8E010F5F1F4FA8016D2D7C2D872D19
:1003D000962DB8DF20E030E0A901C201B7010E94EC
:1003E0001310181664F4C201B7010E94FC0E2B0111
:1003F000C501B4010E94FC0EA201CE0123D0C801A8
:10040000DF91CF911F910F91FF90EF90DF90CF90F0
:10041000BF90AF909F908F907F906F905F904F9024
:100420003F902F900895882341F08150682F70E00D
:1004300090E080E050E040E085CF0895862FB9013C
:100440000C9442139C01FC01EE5FFE4FE491E150DD
:10045000E231E0F4F0E08827EF5CFD4F8F4F0C9421
:10046000B61843024A024D026402790246028E0225
:100470009A029E02B502CA02DF02F6020B0346028E
:10048000200337034C0384B5806884BD60E0822F6D
:100490000C94B81484B58062F8CF809180008C7F72
:1004A00082608093800080918100807E8061682BD3
:1004B0006093810050938700409386008091800074
:1004C000806880938000E2CF809180008C7F826082
:1004D0008093800080918100807E8061682B609392
:1004E0008100509387004093860080918000806255
:1004F000E8CF809180008C7F826080938000809123
:100500008100807E8061682B60938100509387001A
:1005100040938600809180008860D3CF8091B000A6
:1005200080688093B0008091B100887F682B6093D1
:10053000B100ACCF8091B0008062F3CF8091900089
:100540008C7F82608093900080919100807E80619A
:10055000682B609391005093970040939600809190
:10056000900080688093900091CF809190008C7F64
:1005700082608093900080919100807E8061682BE2
:100580006093910050939700409396008091900063
:100590008062E8CF809190008C7F82608093900091
:1005A00080919100807E8061682B609391005093D0
:1005B000970040939600809190008860D3CF8091FF
:1005C000A0008C7F82608093A0008091A100807E3B
:1005D0008061682B6093A1005093A7004093A60010
:1005E0008091A00080688093A00050CF8091A000EF
:1005F0008C7F82608093A0008091A100807E8061CA
:10060000682B6093A1005093A7004093A6008091AF
:10061000A0008062E8CF8091A0008C7F82608093F0
:10062000A0008091A100807E8061682B6093A10072
:100630005093A7004093A6008091A0008860D3CF7C
:10064000809120018C7F8260809320018091210124
:10065000807E8061682B6093210150932701409335
:100660002601809120018068809320010FCF809126
:1006700020018C7F82608093200180912101807E07
:100680008061682B609321015093270140932601DC
:10069000809120018062E8CF809120018C7F826070
:1006A0008093200180912101807E8061682B60937E
:1006B00021015093270140932601809120018860F9
:1006C000D3CF4F925F926F927F928F929F92AF9211
:1006D000BF92CF92DF92EF92FF920F931F93CF932F
:1006E000DF93CDB7DEB7A8970FB6F894DEBF0FBE85
:1006F000CDBF1F9281E08F9348E7842E42E0942E75
:10070000AA24A394B12C64E7C62E62E0D62EEE2470
:10071000E394F12C05EE12E021E030E044EE52E0EB
:1007200069EE75E089E396E00E94820C80907C027D
:1007300090907D02A0907E02B0907F02C0908002D7
:10074000D0908102E0908202F0908302609139069D
:1007500070913A0680913B0690913C060E942A0FC8
:10076000A50194010E941710A70196010E9417107D
:10077000698F7A8F8B8F9C8F2091ED053091EE05DC
:100780004091EF055091F0050E94230E69837A8312
:100790008B839C8360913D0670913E0680913F065D
:1007A000909140060E942A0FA50194010E94171003
:1007B000A70196010E9417106D8F7E8F8F8F98A3CF
:1007C0002091F1053091F2054091F3055091F40527
:1007D0000E94230E6D837E838F8398872091E1058D
:1007E0003091E2054091E3055091E40560918C025F
:1007F00070918D0280918E0290918F020E94230E43
:100800004B015C018092150690921606A092170685
:10081000B09218062091E5053091E6054091E70574
:100820005091E8056091900270919102809192023E
:10083000909193020E94230E6B017C01C0921906D5
:10084000D0921A06E0921B06F0921C0620913C0200
:1008500030913D0240913E0250913F02C501B401EA
:100860000E9417102091F5053091F6054091F7058B
:100870005091F8050E94240E209184023091850247
:1008800040918602509187020E94240E4B015C0128
:100890002091400230914102409142025091430226
:1008A000C701B6010E9417102091F9053091FA0591
:1008B0004091FB055091FC050E94240E6B017C01C8
:1008C00020915C0230915D0240915E0250915F0286
:1008D00069817A818B819C810E9417102B013C01D8
:1008E0002091640230916502409166025091670246
:1008F0006D817E818F8198850E9417109B01AC01CC
:10090000C301B2010E94240E6093290670932A0647
:1009100080932B0690932C0620914C0230914D022F
:1009200040914E0250914F02C501B4010E94171030
:100930002B013C0120915402309155024091560206
:1009400050915702C701B6010E9417109B01AC01DC
:10095000C301B2010E94240E20910D0630910E06B3
:1009600040910F06509110060E94230E69877A87E6
:100970008B879C87209160023091610240916202D6
:100980005091630269817A818B819C810E9417104A
:100990002B013C01209168023091690240916A026A
:1009A00050916B026D817E818F8198850E94171016
:1009B0009B01AC01C301B2010E94240E6DA37EA372
:1009C0008FA398A72091500230915102409152027A
:1009D00050915302C501B4010E9417104B015C01F4
:1009E000209158023091590240915A0250915B0275
:1009F000C701B6010E9417109B01AC01C501B401EB
:100A00000E94240E20911106309112064091130687
:100A1000509114060E94230E6D877E878F87988BD6
:100A20002091000230910102409102025091030294
:100A30000E94171020910106309102064091030692
:100A4000509104060E94230E209134023091350209
:100A500040913602509137020E9417104B015C0101
:100A600080921D0690921E06A0921F06B09220064C
:100A70002091040230910502409106025091070234
:100A800069857A858B859C850E94171020910906BF
:100A900030910A0640910B0650910C060E94230EDD
:100AA000209138023091390240913A0250913B0234
:100AB0000E9417102B013C01409221065092220601
:100AC00060922306709224062091AC023091AD0210
:100AD0004091AE025091AF026091B0027091B102AC
:100AE0008091B2029091B3020E9417102091B4023B
:100AF0003091B5024091B6025091B7020E94171092
:100B00006B017C01C0922506D0922606E092270652
:100B1000F0922806209148023091490240914A0201
:100B200050914B0269857A858B859C850E941710B0
:100B3000209105063091060640910706509108065F
:100B40000E94240EA30192010E94240EA701960187
:100B50000E948F0E6093ED057093EE058093EF0574
:100B60009093F00520914402309145024091460255
:100B7000509147026D857E858F8598890E94171058
:100B80002091FD053091FE054091FF055091000632
:100B90000E94240EA50194010E94240EA701960133
:100BA0000E948F0E6093F1057093F2058093F30518
:100BB0009093F40568E070E080E090E09FDB3C01FA
:100BC0009093DC058093DB052091ED053091EE05D7
:100BD0004091EF055091F0056091B8027091B90213
:100BE0008091BA029091BB020E9417106B017C01A8
:100BF000C0922506D0922606E0922706F09228069B
:100C00008090BC029090BD02A090BE02B090BF0246
:100C10000F900F90A50194010E94131018164CF428
:100C20008092250690922606A0922706B09228066A
:100C300010C08090C0029090C102A090C202B090FB
:100C4000C302A5019401C701B6010E94880E87FD69
:100C5000E7CF20E030E04FE753E460912506709144
:100C6000260680912706909128060E94880E181665
:100C700064F480E090E0AFE7B3E4809325069093BE
:100C80002606A0932706B093280620E030E0A901AD
:100C9000609125067091260680912706909128067E
:100CA0000E94131087FF08C0109225061092260696
:100CB000109227061092280640912506509126068C
:100CC0006091270670912806C301E1DA69E070E0BF
:100CD00080E090E013DB3C019093D4058093D30532
:100CE000C090ED05D090EE05E090EF05F090F00596
:100CF0008090C4029090C502A090C602B090C70236
:100D0000A5019401C701B6010E94131018160CF03A
:100D100081C08092250690922606A0922706B09266
:100D2000280620E030E04FE753E4609125067091FB
:100D300026068091270690912806EAD7181664F4B3
:100D400080E090E0AFE7B3E4809325069093260619
:100D5000A0932706B093280620E030E0A901609117
:100D600025067091260680912706909128060E94FC
:100D7000131087FF08C010922506109226061092C5
:100D8000270610922806409125065091260660916C
:100D9000270670912806C3017ADA6AE070E080E0E5
:100DA00090E0ACDA3C019093CC058093CB05209188
:100DB000F1053091F2054091F3055091F4056091F1
:100DC000CC027091CD028091CE029091CF020E9410
:100DD00017106B017C01C0922506D0922606E09286
:100DE0002706F09228068090D0029090D102A09021
:100DF000D202B090D302A50194010E9413101816DC
:100E00000CF58092250690922606A0922706B092B5
:100E1000280627C08090C8029090C902A090CA02FC
:100E2000B090CB02A5019401C701B60171D787FD2F
:100E300070CFC0922506D0922606E0922706F09247
:100E400028066FCF8090D4029090D502A090D60251
:100E5000B090D702A5019401C701B60159D787FD0B
:100E6000D0CF20E030E04FE753E460912506709149
:100E7000260680912706909128064AD7181664F412
:100E800080E090E0AFE7B3E48093250690932606D8
:100E9000A0932706B093280620E030E0A9016091D6
:100EA00025067091260680912706909128060E94BB
:100EB000131087FF08C01092250610922606109284
:100EC000270610922806409125065091260660912B
:100ED000270670912806C301DAD96BE070E080E044
:100EE00090E00CDA3C019093C4058093C305C09058
:100EF000F105D090F205E090F305F090F4058090B4
:100F0000D8029090D902A090DA02B090DB02A5013D
:100F10009401C701B6010E94131018160CF042C2CA
:100F20008092250690922606A0922706B092280667
:100F300020E030E04FE753E46091250670912606EB
:100F40008091270690912806E3D6181664F480E075
:100F500090E0AFE7B3E48093250690932606A09334
:100F60002706B093280620E030E0A901609125060D
:100F70007091260680912706909128060E941310F2
:100F800087FF08C0109225061092260610922706A9
:100F9000109228064091250650912606609127065A
:100FA00070912806C30173D98090E5059090E605FD
:100FB000A090E705B090E805C501B401ADD6C0909A
:100FC0002906D0902A06E0902B06F0902C0620915E
:100FD000E0023091E1024091E2025091E3020E946E
:100FE0001710A70196010E9417102B013C01409297
:100FF0002506509226066092270670922806C501A3
:10100000B4010E947A109B01AC01C701B6010E9495
:10101000171069A37AA38BA39CA3609329067093EE
:101020002A0680932B0690932C068091DD059091E3
:10103000DE05A091DF05B091E005898B9A8BAB8B23
:10104000BC8B80932D0690932E06A0932F06B09311
:1010500030068091E1059091E205A091E305B09101
:10106000E4058D8B9E8BAF8BB88F80933106909368
:101070003206A0933306B0933406809235069092E0
:101080003606A0923706B0923806C0906C02D09017
:101090006D02E0906E02F0906F02A7019601C3010D
:1010A000B201C5D729893A894B895C89CDD560932E
:1010B000DD057093DE058093DF059093E005A701C1
:1010C000960169A17AA18BA19CA1B1D72D893E89F6
:1010D0004F89588DB9D56093E1057093E2058093EF
:1010E000E3059093E4052DA13EA14FA158A5C701AA
:1010F000B6019DD7A5019401A7D56093E50570932E
:10110000E6058093E7059093E8051F9281E08F93B1
:1011100088E7882E82E0982EAA24A394B12C24E795
:10112000C22E22E0D22EEE24E394F12C05EE12E042
:1011300021E030E044EE52E069EE75E089E396E0AC
:1011400012D4209115063091160640911706509141
:101150001806609114027091150280911602909108
:10116000170265D7209188023091890240918A0246
:1011700050918B025CD72091F5053091F605409196
:10118000F7055091F80560D56093F5057093F60565
:101190008093F7059093F8052091190630911A066F
:1011A00040911B0650911C06609110027091110233
:1011B00080911202909113023AD7209194023091BB
:1011C0009502409196025091970231D72091F905EE
:1011D0003091FA054091FB055091FC0535D560939F
:1011E000F9057093FA058093FB059093FC05898DB2
:1011F0009A8DAB8DBC8D8093ED059093EE05A093F9
:10120000EF05B093F00589819A81AB81BC81809311
:101210000D0690930E06A0930F06B09310068D8DC9
:101220009E8DAF8DB8A18093F1059093F205A093A8
:10123000F305B093F4058D819E81AF81B8858093CD
:10124000110690931206A0931306B09314062091F2
:1012500008023091090240910A0250910B026D85FB
:101260007E858F859889E3D620919C0230919D02DE
:1012700040919E0250919F02DAD62091FD05309157
:10128000FE054091FF0550910006DED46093FD05F8
:101290007093FE058093FF059093000620911D0634
:1012A00030911E0640911F06509120066091A002C9
:1012B0007091A1028091A2029091A302B8D62091D0
:1012C0000106309102064091030650910406BCD4F9
:1012D00060930106709302068093030690930406C0
:1012E00020910C0230910D0240910E0250910F029C
:1012F00069857A858B859C859AD62091A402309148
:10130000A5024091A6025091A70291D62091050610
:1013100030910606409107065091080695D46093D7
:1013200005067093060680930706909308062091A1
:1013300021063091220640912306509124066091A7
:10134000A8027091A9028091AA029091AB026FD677
:101350002091090630910A0640910B0650910C0627
:1013600073D46093090670930A0680930B069093DA
:101370000C060F900F90A8960FB6F894DEBF0FBE24
:10138000CDBFDF91CF911F910F91FF90EF90DF9034
:10139000CF90BF90AF909F908F907F906F905F9015
:1013A0004F9008958090DC029090DD02A090DE02C4
:1013B000B090DF02A5019401C701B601A9D487FD51
:1013C000AFCDC0922506D0922606E0922706F09275
:1013D0002806AECD8F929F92AF92BF92DF92EF928E
:1013E000FF920F931F93CF93DF93E0E0F2E08091A1
:1013F000700290917102A0917202B0917302CDEBD4
:10140000D5E088A399A3AAA3BBA38CA39DA3AEA355
:10141000BFA388A799A7AAA7BBA71CA61DA61EA6FF
:101420001FA684A195A1A6A1B7A188AF99AFAAAF25
:10143000BBAF80A591A5A2A5B3A58CAF9DAFAEAF64
:10144000BFAF408D518D628D738D48AB59AB6AAB88
:101450007BAB8091980290919902A0919A02B091F1
:101460009B0280930D0690930E06A0930F06B093F7
:1014700010064CAB5DAB6EAB7FAB809311069093C7
:101480001206A0931306B093140684A595A5A6A5ED
:10149000B7A58093FD059093FE05A093FF05B0933B
:1014A0000006848D958DA68DB78D8093010690934F
:1014B0000206A0930306B093040680A991A9A2A9ED
:1014C000B3A98093050690930606A0930706B093F0
:1014D000080680A191A1A2A1B3A1809309069093CF
:1014E0000A06A0930B06B0930C06188E1D8E812C55
:1014F000912C54018394898E9A8EAB8EBC8EE12CF4
:10150000F12C8701A801970168E070E080E090E08D
:101510000E94C2019F8F8E8FDD24D394DD8E188AA6
:101520001D8A898A9A8AAB8ABC8AA801970169E0D8
:1015300070E080E090E00E94C2019F8B8E8BDD8A7C
:1015400018861D8689869A86AB86BC86A801970177
:101550006AE070E080E090E00E94C2019F878E8781
:10156000DD8618821D8289829A82AB82BC82A801A4
:1015700097016BE070E080E090E00E94C2019F83E1
:101580008E83DD82DF91CF911F910F91FF90EF90BD
:10159000DF90BF90AF909F908F9008958091D50578
:1015A00081112EC081E08093D5058091D605909160
:1015B000D705A091D805B091D9050197A105B1052E
:1015C000F9F48091DA058823D9F068E070E080E0D2
:1015D00090E00E947E019093DC058093DB0540E063
:1015E00050E0BA010E94470168E070E080E090E0BE
:1015F0000E947E019093DC058093DB050E9413021C
:101600008091CD0581112EC081E08093CD05809120
:10161000CE059091CF05A091D005B091D10501974D
:10162000A105B105F9F48091D2058823D9F069E0CC
:1016300070E080E090E00E947E019093D40580935A
:10164000D30540E050E0BA010E94470169E070E034
:1016500080E090E00E947E019093D4058093D305B2
:101660000E9413028091C50581112EC081E08093F4
:10167000C5058091C6059091C705A091C805B09198
:10168000C9050197A105B105F9F48091CA05882320
:10169000D9F06AE070E080E090E00E947E019093D3
:1016A000CC058093CB0540E050E0BA010E94470191
:1016B0006AE070E080E090E00E947E019093CC05AB
:1016C0008093CB050E9413028091BD0581112EC02D
:1016D00081E08093BD058091BE059091BF05A091EA
:1016E000C005B091C1050197A105B105F9F480913C
:1016F000C2058823D9F06BE070E080E090E00E94A2
:101700007E019093C4058093C30540E050E0BA0188
:101710000E9447016BE070E080E090E00E947E0153
:101720009093C4058093C3050C9413020895CF933E
:10173000DF938091290390912A030E94E514EC0124
:1017400080912B0390912C030E94E5140197C1F422
:1017500080912D0390912E03A0912F03B09130031F
:101760002197C1F40196A11DB11D80932D03909383
:101770002E03A0932F03B0933003DF91CF910895F0
:1017800080912D0390912E03A0912F03B0913003EF
:10179000CD2B41F30197A109B109E7CFCF93DF9397
:1017A00080913303909134030E94E514EC01809101
:1017B0003503909136030E94E5140197C1F480919E
:1017C000370390913803A0913903B0913A032197E0
:1017D000C1F40196A11DB11D809337039093380386
:1017E000A0933903B0933A03DF91CF91089580918C
:1017F000370390913803A0913903B0913A03CD2B70
:1018000041F30197A109B109E7CFCF93DF9380910D
:101810003503909136030E94E514EC018091330367
:10182000909134030E94E5140197C1F4809137032D
:1018300090913803A0913903B0913A03CD2BC1F4B4
:101840000196A11DB11D8093370390933803A09397
:101850003903B0933A03DF91CF9108958091370314
:1018600090913803A0913903B0913A03219741F345
:101870000197A109B109E7CFCF93DF9380912B03A3
:1018800090912C030E94E514EC0180912903909122
:101890002A030E94E5140197C1F480912D039091D1
:1018A0002E03A0912F03B0913003CD2BC1F40196EC
:1018B000A11DB11D80932D0390932E03A0932F03A0
:1018C000B0933003DF91CF91089580912D039091D3
:1018D0002E03A0912F03B0913003219741F301977C
:1018E000A109B109E7CF02978431910540F48850EE
:1018F0009D4FFC018081082E000C990B08958FEFFD
:101900009FEF08950F931F93CF93DF93CDB7DEB76B
:101910008C0120E030E040E85FE3FB0160817181F1
:1019200082819381F5D1811119C080912D0390910D
:101930002E03A0912F03B0913003F801808391838F
:10194000A283B3838091370390913803A091390328
:10195000B0913A0384839583A683B783DF91CF91B7
:101960001F910F9108958F929F92AF92BF92CF9245
:10197000DF92EF92FF920F931F93CF93DF93CDB738
:10198000DEB77B015A0120E030E040E85FE3FB0175
:101990006081718182819381BBD1882309F483C0E6
:1019A000F501808190E090932A0380932903F80148
:1019B000808190E090932C0380932B03F60160814B
:1019C00071818281938113D27093340360933303C6
:1019D000F401608171818281938109D27093360311
:1019E000609335038091290390912A0360E084D7A6
:1019F00080912B0390912C0360E07ED7809133037C
:101A00009091340360E078D780913503909136034C
:101A100060E072D78091290390912A0361E0A8D7F2
:101A200080912B0390912C0361E0A2D78091330326
:101A30009091340361E09CD78091350390913603F7
:101A400061E096D78091290390912A034CDF41E011
:101A500050E06CE37CE099D380912B0390912C03B0
:101A600042DF41E050E067E97BE08FD380913303B0
:101A70009091340338DF41E050E065E07CE085D3AD
:101A800080913503909136032EDF41E050E06EECFB
:101A90007BE07BD380E090E0A0E8BFE3F7018083A8
:101AA0009183A283B383DF91CF911F910F91FF9018
:101AB000EF90DF90CF90BF90AF909F908F90089560
:101AC00040E855E260E070E090E080E000C08130E6
:101AD000910579F01CF4892B39F008958230910535
:101AE00061F0039771F0089526E089E493E00C9487
:101AF000D71526E086EE93E0FACF26E083E894E05F
:101B0000F6CF26E080E295E0F2CF1F920F920FB65B
:101B10000F9211240BB60F922F933F934F935F9325
:101B20006F937F938F939F93AF93BF93EF93FF93A5
:101B30008FE89DEF909325018093240134D0FF918D
:101B4000EF91BF91AF919F918F917F916F915F9135
:101B50004F913F912F910F900BBE0F900FBE0F90A2
:101B60001F9018958FE89DEF909325018093240195
:101B7000A3E7B0E08C918E7F8C93E0E2F1E080816E
:101B80008C7F8083E1E2F1E08081877E80838081A9
:101B90008460808380818C7F80838C9181608C9332
:101BA000089581E0089580913D0391E0980F90930E
:101BB0003D03882349F021E030E030933F03209338
:101BC0003E0380933D03089578940E946103F89446
:101BD00080913D038150F5CFCF93DF931092420661
:101BE00010924106EDD46CDFC091F602D091F7025D
:101BF00019821882EFDBF894B5DF2881398181E002
:101C0000232B09F080E080934106789478948091AA
:101C10004106811107C0C2DCF89490E080E0DF91BA
:101C2000CF9108952881398181E0232B09F480E048
:101C3000809342069091420681E0911180E080936A
:101C40004106AFDFE4CF5058BB27AA270ED0A0C172
:101C500069D130F06ED120F031F49F3F11F41EF4C1
:101C60005EC10EF4E095E7FB54C1E92FB3D180F3D8
:101C7000BA17620773078407950718F071F49EF589
:101C8000CBC10EF4E0950B2EBA2FA02D0B01B9019C
:101C900090010C01CA01A0011124FF27591B99F0E2
:101CA000593F50F4503E68F11A16F040A22F232FEE
:101CB000342F4427585FF3CF469537952795A7953E
:101CC000F0405395C9F77EF41F16BA0B620B730BE5
:101CD000840BBAF09150A1F0FF0FBB1F661F771F56
:101CE000881FC2F70EC0BA0F621F731F841F48F40B
:101CF000879577956795B795F7959E3F08F0B3CF91
:101D00009395880F08F09927EE0F9795879508957A
:101D1000DCD008F481E0089514D1E3954AC10CD0D9
:101D200037C107D140F0FED030F021F45F3F19F009
:101D3000F0C0511172C1F3C04DD198F39923C9F38A
:101D40005523B1F3951B550BBB27AA2762177307C1
:101D5000840738F09F5F5F4F220F331F441FAA1F75
:101D6000A9F333D00E2E3AF0E0E830D09150504035
:101D7000E695001CCAF729D0FE2F27D0660F771FE3
:101D8000881FBB1F261737074807AB07B0E809F0C5
:101D9000BB0B802DBF01FF2793585F4F2AF09E3F5A
:101DA000510568F0B6C039C15F3FECF3983EDCF3F3
:101DB000869577956795B795F7959F5FC9F7880FD3
:101DC000911D9695879597F90895E1E0660F771F25
:101DD000881FBB1F621773078407BA0720F0621BB6
:101DE000730B840BBA0BEE1F88F7E095089504D0AF
:101DF0006894B11112C10895F5D088F09F5790F002
:101E0000B92F9927B751A0F0D1F0660F771F881F1F
:101E1000991F1AF0BA95C9F712C0B13081F0FCD001
:101E2000B1E00895F9C0672F782F8827B85F39F09F
:101E3000B93FCCF3869577956795B395D9F73EF47E
:101E400090958095709561957F4F8F4F9F4F089526
:101E5000E89409C097FB3EF4909580957095619544
:101E60007F4F8F4F9F4F9923A9F0F92F96E9BB27FA
:101E70009395F695879577956795B795F111F8CF76
:101E8000FAF4BB0F11F460FF1BC06F5F7F4F8F4FE1
:101E90009F4F16C0882311F096E911C0772321F0D7
:101EA0009EE8872F762F05C0662371F096E8862F6F
:101EB00070E060E02AF09A95660F771F881FDAF7C6
:101EC000880F9695879597F90895990F0008550FF3
:101ED000AA0BE0E8FEEF16161706E807F907C0F0B0
:101EE00012161306E407F50798F0621B730B840BB8
:101EF000950B39F40A2661F0232B242B252B21F492
:101F000008950A2609F4A140A6958FEF811D811D31
:101F1000089597F99F6780E870E060E008959FEF6B
:101F200080EC089500240A94161617061806090670
:101F3000089500240A94121613061406050608953F
:101F4000EECF50D0E8F3E894E0E0BB279F57F0F0E5
:101F50002AED3FE049EC06C0EE0FBB0F661F771F6E
:101F6000881F28F0B23A62077307840728F0B25A34
:101F7000620B730B840BE3959A9572F7803830F4FB
:101F80009A95BB0F661F771F881FD2F79048BAC07B
:101F9000092E0394000C11F4882352F0BB0F40F477
:101FA000BF2B11F460FF04C06F5F7F4F8F4F9F4FB7
:101FB0000895EF93E0FF06C0A2EA2AED3FE049EC66
:101FC0005FEB53DEE5DF0F90039401FC9058E4EEE5
:101FD000F0E0A4C057FD9058440F551F59F05F3FE3
:101FE00071F04795880F97FB991F61F09F3F79F03B
:101FF00087950895121613061406551FF2CF4695BD
:10200000F1DF08C0161617061806991FF1CF86953E
:102010007105610508940895E894BB276627772722
:10202000CB0197F9089551DF08F48FEF08950BD095
:10203000AFCF78DF28F07DDF18F0952309F069CF66
:102040006ECF1124EACFC6DFA0F3959FD1F3950F91
:1020500050E0551F629FF001729FBB27F00DB11D2C
:10206000639FAA27F00DB11DAA1F649F6627B00DBC
:10207000A11D661F829F2227B00DA11D621F739FA5
:10208000B00DA11D621F839FA00D611D221F749FB3
:102090003327A00D611D231F849F600D211D822FFA
:1020A000762F6A2F11249F5750408AF0E1F0882341
:1020B0004AF0EE0FFF1FBB1F661F771F881F91504E
:1020C0005040A9F79E3F510570F023CFA6CF5F3F48
:1020D000ECF3983EDCF3869577956795B795F79581
:1020E000E7959F5FC1F7FE2B880F911D9695879509
:1020F00097F908959F9325DF0F9007FCEE5F59CF66
:102100009F3F31F0915020F4879577956795B7956B
:10211000880F911D9695879597F908959F938F93B2
:102120007F936F93FF93EF939B01AC0180DFEF915F
:10213000FF9105D02F913F914F915F9178CFDF9321
:10214000CF931F930F93FF92EF92DF927B018C014D
:10215000689405C0DA2EEF0176DFFE01E894A591C0
:102160002591359145915591AEF3EF017EDDFE014C
:102170009701A801DA9479F7DF90EF90FF900F9123
:102180001F91CF91DF9108950895883008F075C0B0
:10219000E82FF0E0EE0FFF1FEA51FD4F71836083DF
:1021A0008150873008F03CC0E82FF0E08827E552E6
:1021B000FF4E8F4FDBC71811E210EA10F610031123
:1021C00024113111809169008C7F482B4093690064
:1021D000E89A089580916900837F440F551F440F4A
:1021E000551F482B40936900E99A08958091690032
:1021F0008F7C74E0440F551F7A95E1F7482B40938C
:102200006900EA9A0895809169008F7366E0440F2F
:10221000551F6A95E1F7482B40936900EB9A0895A2
:1022200080916A008C7F482B40936A00EC9A089555
:1022300080916A00837F440F551F440F551F482B20
:1022400040936A00ED9A089580916A008F7C24E0A3
:10225000440F551F2A95E1F7482B40936A00EE9AE8
:10226000089580916A008F7396E0440F551F9A95E8
:10227000E1F7482B40936A00EF9A08951F920F925E
:102280000FB60F9211240BB60F922F933F934F93DB
:102290005F936F937F938F939F93AF93BF93EF93CE
:1022A000FF93E091EA02F091EB021995FF91EF9113
:1022B000BF91AF919F918F917F916F915F914F915E
:1022C0003F912F910F900BBE0F900FBE0F901F905C
:1022D00018951F920F920FB60F9211240BB60F9202
:1022E0002F933F934F935F936F937F938F939F931E
:1022F000AF93BF93EF93FF93E091EC02F091ED0267
:102300001995FF91EF91BF91AF919F918F917F911F
:102310006F915F914F913F912F910F900BBE0F9056
:102320000FBE0F901F9018951F920F920FB60F922D
:1023300011240BB60F922F933F934F935F936F939C
:102340007F938F939F93AF93BF93EF93FF93E0910E
:10235000EE02F091EF021995FF91EF91BF91AF91CD
:102360009F918F917F916F915F914F913F912F91AD
:102370000F900BBE0F900FBE0F901F9018951F92DD
:102380000F920FB60F9211240BB60F922F933F931B
:102390004F935F936F937F938F939F93AF93BF936D
:1023A000EF93FF93E091F002F091F1021995FF9104
:1023B000EF91BF91AF919F918F917F916F915F91BD
:1023C0004F913F912F910F900BBE0F900FBE0F902A
:1023D0001F9018951F920F920FB60F9211240BB6F3
:1023E0000F922F933F934F935F936F937F938F93AE
:1023F0009F93AF93BF93EF93FF93E091E602F09129
:10240000E7021995FF91EF91BF91AF919F918F9145
:102410007F916F915F914F913F912F910F900BBEE4
:102420000F900FBE0F901F9018951F920F920FB62E
:102430000F9211240BB60F922F933F934F935F93FC
:102440006F937F938F939F93AF93BF93EF93FF937C
:10245000E091E802F091E9021995FF91EF91BF91A7
:10246000AF919F918F917F916F915F914F913F912C
:102470002F910F900BBE0F900FBE0F901F901895CD
:102480001F920F920FB60F9211240BB60F922F933B
:102490003F934F935F936F937F938F939F93AF93EC
:1024A000BF93EF93FF93E091F202F091F30219953D
:1024B000FF91EF91BF91AF919F918F917F916F911C
:1024C0005F914F913F912F910F900BBE0F900FBED8
:1024D0000F901F9018951F920F920FB60F92112414
:1024E0000BB60F922F933F934F935F936F937F930E
:1024F0008F939F93AF93BF93EF93FF93E091F40279
:10250000F091F5021995FF91EF91BF91AF919F91D5
:102510008F917F916F915F914F913F912F910F908C
:102520000BBE0F900FBE0F901F9018951F920F9229
:102530000FB60F9211242F933F938F939F93AF93D6
:10254000BF938091410390914203A0914303B091C6
:1025500044033091400323E0230F2D3758F50196B3
:10256000A11DB11D2093400380934103909342032A
:10257000A0934303B0934403809145039091460395
:10258000A0914703B09148030196A11DB11D80930E
:10259000450390934603A0934703B0934803BF912C
:1025A000AF919F918F913F912F910F900FBE0F9000
:1025B0001F90189526E8230F0296A11DB11DD2CFBA
:1025C000789484B5826084BD84B5816084BD85B50E
:1025D000826085BD85B5816085BDEEE6F0E08081D5
:1025E00081608083E1E8F0E01082808182608083F6
:1025F000808181608083E0E8F0E080818160808379
:10260000E1EBF0E0808184608083E0EBF0E08081AA
:1026100081608083E1E9F0E0808182608083808155
:1026200081608083E0E9F0E0808181608083E1EA7D
:10263000F0E0808182608083808181608083E0EA35
:10264000F0E0808181608083E1E2F1E0808182605E
:102650008083808181608083E0E2F1E0808181601D
:102660008083EAE7F0E080818460808380818260FB
:1026700080838081816080838081806880831092E4
:10268000C10008951F93CF93DF93182FEB0161E0F2
:1026900033D1209731F460E0812FDF91CF911F91EA
:1026A00067C1CF3FD10511F461E0F6CFE12FF0E033
:1026B000EE5FFE4FE491E150E23108F0B2C0F0E08D
:1026C0008827EB59FC4E8F4F51C577137F13841326
:1026D0008E1398131114A213AA13B213BC13C613AA
:1026E000D013DF13E9131114F313FD13071484B58A
:1026F000806884BDC7BDDF91CF911F91089584B5D7
:10270000806284BDC8BDF7CF8091800080688093CF
:102710008000D0938900C0938800EDCF8091800025
:10272000806280938000D0938B00C0938A00E3CFB7
:1027300080918000886080938000D0938D00C0934A
:102740008C00D9CF8091B00080688093B000C09396
:10275000B300D1CF8091B00080628093B000C0936D
:10276000B400C9CF80919000806880939000D0938E
:102770009900C0939800BFCF8091900080628093B1
:102780009000D0939B00C0939A00B5CF80919000A9
:10279000886080939000D0939D00C0939C00ABCF45
:1027A0008091A00080688093A0008091A0008F7B22
:1027B0008093A000D093A900C093A8009CCF8091E3
:1027C000A00080628093A000D093AB00C093AA00C9
:1027D00092CF8091A00088608093A000D093AD003C
:1027E000C093AC0088CF8091200180688093200145
:1027F000D0932901C09328017ECF8091200180626F
:1028000080932001D0932B01C0932A0174CF809133
:102810002001886080932001D0932D01C0932C016A
:102820006ACFC038D1050CF03FCF35CF815082310F
:1028300008F059C0E82FF0E08827EF5DFB4E8F4F7E
:1028400095C441144514331439143D1473144814B9
:102850004E14521458145C14601466146A147314E1
:102860006E1474147814809180008F7780938000A8
:102870000895809180008F7DF9CF80918000877FBF
:10288000F5CF84B58F7784BD089584B58F7DFBCF58
:102890008091B0008F778093B00008958091B00050
:1028A0008F7DF9CF809190008F778093900008956D
:1028B000809190008F7DF9CF80919000877FF5CF38
:1028C0008091A0008F778093A00008958091A00050
:1028D0008F7DF9CF8091A000877FF5CF8091200177
:1028E0008F77809320010895809120018F7DF9CF0B
:1028F00080912001877FF5CFCF93DF9390E0FC019B
:10290000E85BFE4F249182579E4FFC0184918823FF
:10291000C9F090E0880F991FFC01E85FFD4FA59179
:10292000B491FC01E251FE4FC591D49161110DC0EB
:102930009FB7F8948C91209582238C9388812823CB
:1029400028839FBFDF91CF910895623051F49FB7E4
:10295000F8943C91822F809583238C93E8812E2BD1
:10296000EFCF8FB7F894EC912E2B2C938FBFEACF3B
:102970001F93CF93DF93282F30E0F901EE5FFE4FD6
:102980008491F901E85BFE4FD491F901E257FE4FC3
:10299000C491CC23A1F0162F811148DFEC2FF0E079
:1029A000EE0FFF1FE251FE4FA591B4918FB7F8943F
:1029B000EC91111108C0D095DE23DC938FBFDF911D
:1029C000CF911F910895DE2BF8CFCF93DF93282F5F
:1029D00030E0F901EE5FFE4F8491F901E85BFE4FB4
:1029E000D491F901E257FE4FC491CC2399F08111A3
:1029F0001DDFEC2FF0E0EE0FFF1FEC52FE4FA59114
:102A0000B491EC91ED2381E090E009F480E0DF9156
:102A1000CF91089580E090E0FACFFC01918D228D56
:102A2000892F90E0805C9F4F821B91098F739927BB
:102A30000895FC01918D828D981731F0828DE80FF9
:102A4000F11D858D90E008958FEF9FEF0895FC01B3
:102A5000918D828D981761F0A28DAE0FBF2FB11DA1
:102A60005D968C91928D9F5F9F73928F90E00895F9
:102A70008FEF9FEF0895FC01538D448D252F30E09B
:102A8000842F90E0821B930B541710F0CF9608957B
:102A900001970895FC01A48DA80FB92FB11DA35A69
:102AA000BF4F2C91848D90E001968F739927848F6E
:102AB000A689B7892C93A089B1898C918370806491
:102AC0008C93938D848D981306C00288F389E02D32
:102AD00080818F7D80830895CF93DF93EC01888D73
:102AE0008823B1F0AA89BB89E889F9898C9185FD91
:102AF00003C0808186FD0CC00FB607FCF7CF8C9118
:102B000085FFF2CF808185FFEDCFCE01C3DFEACF15
:102B1000DF91CF910895EF92FF920F931F93CF9380
:102B2000DF93EC0181E0888F9B8D8C8D98131AC008
:102B3000E889F989808185FF15C09FB7F894EE89EF
:102B4000FF896083E889F98980818370806480834C
:102B50009FBF81E090E0DF91CF911F910F91FF9097
:102B6000EF900895F62E0B8D10E00F5F1F4F0F733F
:102B70001127E02E8C8D8E110BC00FB607FCFACFFB
:102B8000E889F989808185FFF5CFCE0183DFF2CF17
:102B9000EB8DEC0FFD2FF11DE35AFF4FF0829FB735
:102BA000F8940B8FEA89FB8980818062D0CFCF9225
:102BB000DF92EF92FF921F93CF93DF93EC016A01B4
:102BC0007B01122FE889F98982E08083C11481EEAC
:102BD000D806E104F10499F060E079E08DE390E03B
:102BE000A7019601A1D221503109410951095695F9
:102BF000479537952795211580E1380790F0E889AA
:102C0000F989108260E874E88EE190E0A7019601EE
:102C10008BD2215031094109510956954795379575
:102C20002795EC85FD853083EE85FF852083188E02
:102C3000EC89FD891083EA89FB898081806180832A
:102C4000EA89FB89808188608083EA89FB898081A9
:102C500080688083EA89FB8980818F7D8083DF9112
:102C6000CF911F91FF90EF90DF90CF9008951F922A
:102C70000F920FB60F9211240BB60F922F938F93D2
:102C80009F93EF93FF93E0915903F0915A03808152
:102C9000E0915F03F091600382FD1DC090818091FF
:102CA00062038F5F8F7320916303821741F0E0917D
:102CB0006203F0E0E75BFC4F958F80936203FF9126
:102CC000EF919F918F912F910F900BBE0F900FBEA0
:102CD0000F901F9018958081F2CF1F920F920FB620
:102CE0000F9211240BB60F922F933F934F935F9344
:102CF0006F937F938F939F93AF93BF93EF93FF93C4
:102D000089E493E0C7DEFF91EF91BF91AF919F916E
:102D10008F917F916F915F914F913F912F910F9084
:102D20000BBE0F900FBE0F901F901895E9E4F3E0D3
:102D30001382128288EE93E0A0E0B0E08483958352
:102D4000A683B78380E193E09183808385EC90E054
:102D50009587848784EC90E09787868780EC90E065
:102D6000918B808B81EC90E0938B828B82EC90E056
:102D7000958B848B86EC90E0978B868B118E128ED0
:102D8000138E148E08951F920F920FB60F92112476
:102D90000BB60F922F938F939F93EF93FF93E09136
:102DA000F603F091F7038081E091FC03F091FD03BD
:102DB00082FD1DC090818091FF038F5F8F732091F2
:102DC0000004821741F0E091FF03F0E0EA51FC4F6C
:102DD000958F8093FF03FF91EF919F918F912F919A
:102DE0000F900BBE0F900FBE0F901F901895808113
:102DF000F2CF1F920F920FB60F9211240BB60F92C3
:102E00002F933F934F935F936F937F938F939F93F2
:102E1000AF93BF93EF93FF9386EE93E03BDEFF917A
:102E2000EF91BF91AF919F918F917F916F915F9142
:102E30004F913F912F910F900BBE0F900FBE0F90AF
:102E40001F901895E6EEF3E01382128288EE93E06D
:102E5000A0E0B0E084839583A683B78380E193E00C
:102E6000918380838DEC90E0958784878CEC90E053
:102E70009787868788EC90E0918B808B89EC90E037
:102E8000938B828B8AEC90E0958B848B8EEC90E018
:102E9000978B868B118E128E138E148E08951F922F
:102EA0000F920FB60F9211240BB60F922F938F93A0
:102EB0009F93EF93FF93E0919304F09194048081AA
:102EC000E0919904F0919A0482FD1DC09081809157
:102ED0009C048F5F8F7320919D04821741F0E091D5
:102EE0009C04F0E0ED57FB4F958F80939C04FF917D
:102EF000EF919F918F912F910F900BBE0F900FBE6E
:102F00000F901F9018958081F2CF1F920F920FB6ED
:102F10000F9211240BB60F922F933F934F935F9311
:102F20006F937F938F939F93AF93BF93EF93FF9391
:102F300083E894E0AFDDFF91EF91BF91AF919F9156
:102F40008F917F916F915F914F913F912F910F9052
:102F50000BBE0F900FBE0F901F901895E3E8F4E0A2
:102F60001382128288EE93E0A0E0B0E08483958320
:102F7000A683B78380E193E09183808385ED90E021
:102F80009587848784ED90E09787868780ED90E031
:102F9000918B808B81ED90E0938B828B82ED90E022
:102FA000958B848B86ED90E0978B868B118E128E9D
:102FB000138E148E08951F920F920FB60F92112444
:102FC0000BB60F922F938F939F93EF93FF93E09104
:102FD0003005F09131058081E0913605F09137059B
:102FE00082FD1DC09081809139058F5F8F73209184
:102FF0003A05821741F0E0913905F0E0E05EFA4FC2
:10300000958F80933905FF91EF919F918F912F912B
:103010000F900BBE0F900FBE0F901F9018958081E0
:10302000F2CF1F920F920FB60F9211240BB60F9290
:103030002F933F934F935F936F937F938F939F93C0
:10304000AF93BF93EF93FF9380E295E023DDFF9171
:10305000EF91BF91AF919F918F917F916F915F9110
:103060004F913F912F910F900BBE0F900FBE0F907D
:103070001F901895E0E2F5E01382128288EE93E04B
:10308000A0E0B0E084839583A683B78380E193E0DA
:103090009183808385E391E09587848784E391E041
:1030A0009787868780E391E0918B808B81E391E025
:1030B000938B828B82E391E0958B848B86E391E006
:1030C000978B868B118E128E138E148E0895AF926D
:1030D000BF92CF92DF92EF92FF920F931F93CF9305
:1030E000DF936C017B018B01040F151FEB015E0167
:1030F000AE18BF08C017D10759F06991D601ED91FC
:10310000FC910190F081E02DC6011995892B79F78A
:10311000C501DF91CF911F910F91FF90EF90DF904C
:10312000CF90BF90AF900895A1E21A2EAA1BBB1BAF
:10313000FD010DC0AA1FBB1FEE1FFF1FA217B30783
:10314000E407F50720F0A21BB30BE40BF50B661F99
:10315000771F881F991F1A9469F76095709580955D
:1031600090959B01AC01BD01CF010895EE0FFF1FAB
:10317000881F8BBF0790F691E02D1994F894FFCF2C
:1031800000000000000000005577F5445577F54435
:103190000626E63C2F933CC700000000000000001C
:1031A000000000000000000000000000000000001F
:1031B000000000000000C8420000C84256F4C5C527
:1031C000AA98A43FFA98AE42FA98AE420000803F17
:1031D0000000803FCDCCCCBDCDCCCC3D0000003F2D
:1031E0000000A0C00000003F0000A0400AD7233C20
:1031F0000000000000009041000098417C26253925
:103200000000C842CDCC4C3E0AD7233C0000000051
:10321000000000000AD7233C000000000AD7233C2E
:103220000AD7233C0AD7233C0AD7233C0000484452
:103230000E38603C6EDBB63D000080BF00007F436F
:103240000000000000007F4300000000000080BF7D
:1032500000007F430000000000007F4300000000EA
:103260000000803F0203C410C410C410C410C41076
:10327000C410C410C41027030001FFFFFFFFFFFFAD
:10328000FFFFFFFFFFFFFFFF050403020000000038
:0E3290008B1567183B156C150D1527151915B4
:00000001FF
