:1000000005C100000C9413300C943E300C94693000
:100010000C9494300C94BF300C94EA300C9415314D
:100020000C94403124C1000022C1000020C1000016
:100030001EC100001CC100001AC1000018C1000050
:1000400016C1000014C1000012C1000010C1000060
:100050000EC100000CC100000AC100000C946B31FD
:1000600006C100000C948A350C94C03500C1000014
:10007000FEC00000FCC00000FAC00000F8C0000094
:10008000F6C00000F4C00000F2C00000F0C00000A4
:100090000C9416360C944C36EAC00000E8C0000000
:1000A000E6C00000E4C00000E2C00000E0C00000C4
:1000B000DEC00000DCC00000DAC00000D8C00000D4
:1000C000D6C00000D4C000000C949F2B0C94A23624
:1000D0000C94D836CCC000000C942E370C946437A6
:1000E000C6C0000000000A0B02090C0D0E08070331
:1000F00004010000000000000000000000000000FB
:1001000000000000000000000000000000000000EF
:1001100012111000000000000000000000000000AC
:100120000000000000000000000001021020200874
:100130000810204010204080020102010804020142
:1001400001020408102040808040201008040201B1
:10015000800402018040201008040201080402010A
:100160000102040810204080010204081020408091
:1001700005050505070508080808020202020A0A23
:100180000808040404040101010101010101030341
:10019000030303030303040707070C0C0C0C0C0CEC
:1001A0000C0C0202020206060606060606060B0BE9
:1001B0000B0B0B0B0B0B000020002300260029006B
:1001C0002C002F003200000100000301060109018C
:1001D00000002200250028002B002E0031003400F2
:1001E00002010000050108010B01000021002400AC
:1001F00027002A002D003000330001010000040117
:1002000007010A01E935753601378D3711241FBE04
:10021000CFEFD1E2DEBFCDBF00E00CBF13E0A0E026
:10022000B2E0E8E9F0E700E00BBF02C007900D92F2
:10023000A037B107D9F729E0A0E7B3E001C01D92CC
:10024000AB36B207E1F711E0C6E0D1E000E006C04E
:1002500021970109802FFE010E941938C230D10771
:1002600080E00807A9F70E94C02C0C944A38C8CE39
:10027000CF92DF92EF92FF92CF93882351F16A01E0
:100280007B01CFEFC80F20E030E0A901CB01B60120
:100290000E949E2D87FF11C0C701B60190580E9491
:1002A0000F2E9B01AC016C2F70E090E080E0CF91AD
:1002B000FF90EF90DF90CF90B2C0C701B6010E94CF
:1002C0000A2E8C2FCF91FF90EF90DF90CF900C945F
:1002D0009532CF91FF90EF90DF90CF9008950F93DC
:1002E0001F938B019C0183E0369527951795079501
:1002F0008A95D1F700591C4F462F477021E030E016
:10030000F90102C0EE0FFF1F4A95E2F7AF01F801B5
:1003100020812423CB010196211102C090E080E0CE
:100320001F910F9108950F931F938B019C0183E000
:1003300036952795179507958A95D1F7677081E0CF
:1003400090E001C0880F6A95EAF7F801E059FC4F88
:100350002081452B31F48095822380831F910F915A
:100360000895822BFACF2F923F924F925F926F9215
:100370007F928F929F92AF92BF92CF92DF92EF9235
:10038000FF920F931F93CF93DF93D62EC72E782E15
:10039000692E49015A01280161E08D2D0E94CF3359
:1003A000CD2DDC2D8E010F5F1F4FA8016D2D7C2DF3
:1003B000872D962DB8DF20E030E0A901C201B701FA
:1003C0000E94ED2E181664F4C201B7010E940F2E90
:1003D0002B01C501B4010E940F2EA201CE0123D032
:1003E000C801DF91CF911F910F91FF90EF90DF90A7
:1003F000CF90BF90AF909F908F907F906F905F90C5
:100400004F903F902F900895882341F08150682F9E
:1004100070E090E080E050E040E085CF0895862FC6
:10042000B9010C9495329C01FC01EC51FF4FE49111
:10043000E150E231E0F4F0E08827EE5DFD4F8F4FB0
:100440000C94193834023B023E0255026A0237020C
:100450007F028B028F02A602BB02D002E702FC02DF
:100460003702110328033D0384B5806884BD60E032
:10047000822F0C940B3484B58062F8CF8091800079
:100480008C7F82608093800080918100807E80617B
:10049000682B609381005093870040938600809181
:1004A0008000806880938000E2CF809180008C7F04
:1004B00082608093800080918100807E8061682BC3
:1004C0006093810050938700409386008091800064
:1004D0008062E8CF809180008C7F82608093800072
:1004E00080918100807E8061682B609381005093B1
:1004F000870040938600809180008860D3CF8091F0
:10050000B00080688093B0008091B100887F682B34
:100510006093B100ACCF8091B0008062F3CF809146
:1005200090008C7F82608093900080919100807E0B
:100530008061682B609391005093970040939600E0
:100540008091900080688093900091CF809190007E
:100550008C7F82608093900080919100807E80618A
:10056000682B609391005093970040939600809180
:1005700090008062E8CF809190008C7F82608093B1
:10058000900080919100807E8061682B6093910043
:100590005093970040939600809190008860D3CF4D
:1005A0008091A0008C7F82608093A0008091A10048
:1005B000807E8061682B6093A1005093A7004093D8
:1005C000A6008091A00080688093A00050CF809109
:1005D000A0008C7F82608093A0008091A100807E2B
:1005E0008061682B6093A1005093A7004093A60000
:1005F0008091A0008062E8CF8091A0008C7F826013
:100600008093A0008091A100807E8061682B609320
:10061000A1005093A7004093A6008091A00088609D
:10062000D3CF809120018C7F8260809320018091C4
:100630002101807E8061682B609321015093270106
:1006400040932601809120018068809320010FCF84
:10065000809120018C7F8260809320018091210114
:10066000807E8061682B6093210150932701409325
:100670002601809120018062E8CF809120018C7F4B
:1006800082608093200180912101807E8061682BAF
:10069000609321015093270140932601809120010E
:1006A0008860D3CFCF93DF93882349F0EB0181504B
:1006B0000E94723299838883DF91CF910895FB0164
:1006C00011821082F9CF0F931F938B019C0183E05D
:1006D00036952795179507958A95D1F707581C4F9A
:1006E000462F477021E030E0F90102C0EE0FFF1FF6
:1006F0004A95E2F7AF01F80120812423CB0101964E
:10070000211102C090E080E01F910F9108950F9396
:100710001F938B019C0183E03695279517950795CC
:100720008A95D1F7677081E090E001C0880F6A95E3
:10073000EAF7F801E758FC4F2081452B31F480950A
:10074000822380831F910F910895822BFACFCF923D
:10075000DF92EF92FF92CF93DF936B017C0160E019
:1007600086E3C816D104E104F10490F486E38C0D0D
:100770000E94CF33E6012196AE01C701B601C7DF63
:10078000CE01DF91CF91FF90EF90DF90CF90089551
:100790008C2DEECF882341F08150682F70E090E0DF
:1007A00080E050E040E0B3CF089590E080E008950D
:1007B0000F931F93009709F485C06115710509F423
:1007C00081C000919402109195022091960230917F
:1007D00097020E3F1F4F2F4F3F4F09F064C04FEF5E
:1007E0005FEFBA0140939402509395026093960292
:1007F00070939702409194025091950260919602F5
:1008000070919702DC011296ED91FC9180819181AB
:10081000A281B3818093F0039093F103A093F2033C
:10082000B093F30384819581A681B7818093EC0313
:100830009093ED03A093EE03B093EF038085918531
:10084000A285B3858093E8039093E903A093EA031C
:10085000B093EB0384859585A685B7858093E403E3
:100860009093E503A093E603B093E7031092E003AF
:100870001092E1031092E2031092E3030E944910E8
:100880008EE690E190938303809382030E94480F49
:10089000009731F421E030E03093F5032093F40326
:1008A0001F910F910895009194021091950220914B
:1008B000960230919702DB010D931D932D933C938B
:1008C000139798CF8FEF9FEFEBCF8F929F92AF92BE
:1008D000BF92CF92DF92EF92FF921F93CF93DF935D
:1008E0004B015C011091F70382E090E09093F503D7
:1008F0008093F40381149104A104B10441F4809124
:10090000F703811104C08091F603C1E08111C0E0BA
:10091000C12CD12C76018091F703811106C0809102
:10092000F603811102C0CC23D9F083E090E09093CC
:10093000F5038093F403CC2381F1CCE9DFEF1111AF
:1009400002C00E94D213CE01DF91CF911F91FF9080
:10095000EF90DF90CF90BF90AF909F908F900895D1
:100960006AE070E080E090E00E94DA3180E1C80E39
:1009700087E2D81EE11CF11C8FEF88169806A806A6
:10098000B80631F0C1E08C149D04AE04BF0408F039
:10099000C0E080E00E94740FBECFD0E0C0E0CFCFB7
:1009A000CF92DF92EF92FF921F93CF93DF938F3F0F
:1009B000910511F008F042C02091F4033091F50345
:1009C0002330310539F02091F4033091F5032130C3
:1009D000310531F424E030E03093F5032093F40343
:1009E0006A017B01EC01892BB1F011E0AE01C70176
:1009F000B6010E94470FAB01BC0190E080E01123DB
:100A0000F9F0CE01DF91CF911F91FF90EF90DF9031
:100A1000CF900C94E7158091820390918303892BEA
:100A200021F30E94EE15029701F7E0918203F09105
:100A3000830390E080E01995182FD8CF8FEF9FEFB8
:100A4000DF91CF911F91FF90EF90DF90CF900895AD
:100A500080E00C94740FCF93DF9386E090E0909346
:100A6000F5038093F4030E94CD0FEC0110928303F1
:100A7000109282030E946A131092F5031092F403FD
:100A8000CE01DF91CF9108958091F6030895809172
:100A9000DF03089560939402709395028093960209
:100AA0009093970290E080E008952F923F924F92AA
:100AB0005F926F927F928F929F92AF92BF92CF92EE
:100AC000DF92EF92FF920F931F93CF93DF93CDB7F7
:100AD000DEB7E5970FB6F894DEBF0FBECDBF7FA798
:100AE0006EA748AB59AB3DA72CA71DAB0CABFE8640
:100AF000ED861BAB0AABD80130E020E08D849E84EC
:100B00002815390514F18F83988710E000E08EA432
:100B10009FA40815190504F1E5960FB6F894DEBFF9
:100B20000FBECDBFDF91CF911F910F91FF90EF903E
:100B3000DF90CF90BF90AF909F908F907F906F90FD
:100B40005F904F903F902F9008951D921D921D929F
:100B50001D922F5F3F4FD2CFEF81F8858191919108
:100B6000A191B191F887EF834D01AA24BB24888A13
:100B7000998AAA8ABB8A9C01AD01442755272C8BF0
:100B80003D8B4E8B5F8B2D843E84201A310AECA561
:100B9000FDA5E215F3050CF41F01F8A9FD8389A852
:100BA0008E82AAA8BBA8BC86AB861A861986C12CE1
:100BB000D12C760189849A848214930404F137FE3F
:100BC00002C0312C212C200E311EAD84BE842A148B
:100BD0003B046CF4220C331C220C331CACA9BDA9C1
:100BE000A20DB31DCD92DD92ED92FC9213970F5F93
:100BF0001F4FEAA9FBA93496FBABEAAB88CFED8186
:100C0000FE814190519061907190FE83ED8343018C
:100C1000AA24BB24888E998EAA8EBB8E6624772444
:100C2000288939894A895B89C301B2010E94E83762
:100C30004B015C012C893D894E895F89688D798DD6
:100C40008A8D9B8D0E94E8376C8F7D8F8E8F9F8F52
:100C5000EB85FC8581919191A191B191FC87EB8706
:100C60009C01AD012C0D3D1D4E1D5F1D29833A8356
:100C70004B835C83E1E02C153D054E055F0508F0D4
:100C8000E0E02C893D894E895F89C301B2010E9451
:100C9000E8372B013C0189819A81AB81BC81840DAD
:100CA000951DA61DB71D89839A83AB83BC83A401C0
:100CB0003327222728A339A34AA35BA36C017D0114
:100CC000C20ED31EE41EF51E8C8D9D8DAE8DBF8D84
:100CD000DC01992788278CA39DA3AEA3BFA38C0D0D
:100CE0009D1DAE1DBF1D88A799A7AAA7BBA7AB8551
:100CF000BC85149728A539A54AA55BA52D933D93DE
:100D00004D935C9313974501AA24BB248E0E911C2E
:100D1000A11CB11C288939894A895B89688D798D24
:100D20008A8D9B8D0E94E837860E971EA81EB91EDD
:100D30002C8D3D8D4E8D5F8DCA01AA27BB27880E55
:100D4000991EAA1EBB1E81E090E0A0E0B0E02981C0
:100D50003A814B815C81241535054605570518F00D
:100D600080E090E0DC01880D991DAA1DBB1D41E0CB
:100D700050E060E070E088A099A0AAA0BBA0C814D1
:100D8000D904EA04FB0418F040E050E0BA01840FF3
:100D9000951FA61FB71FC12CD12C7601C3948CA020
:100DA0009DA0AEA0BFA028A539A54AA55BA5281582
:100DB00039054A055B0518F0C12CD12C7601C80E07
:100DC000D91EEA1EFB1EE985FA853196FA87E98766
:100DD000F1CE8F929F92AF92BF92CF92DF92EF921D
:100DE000FF920F931F93CF93DF936B018A017C01D6
:100DF000D0E0C0E0812C912C5401CC15DD057CF0B5
:100E0000C501B401DF91CF911F910F91FF90EF9039
:100E1000DF90CF90BF90AF909F908F900895F70193
:100E200061917191819191917F010E943B2EA80166
:100E30000E94F32E9B01AC01C501B4010E943A2D22
:100E40004B015C01005E1F4F2196D7CF2F923F923E
:100E50004F925F926F927F928F929F92AF92BF92CA
:100E6000CF92DF92EF92FF920F931F93CF93DF9376
:100E7000CDB7DEB760970FB6F894DEBF0FBECDBF1B
:100E80001F9281E08F937CE3872E72E0972EAA2435
:100E9000A394B12CF8E3CF2EF2E0DF2EEE24E394FE
:100EA000F12C03E912E021E030E042E952E062E394
:100EB00079E08EEF98E00E94942A40904002509092
:100EC000410260904202709043026091FE0870916E
:100ED000FF0880910009909101090E943D2EA30115
:100EE00092010E94272F6093C6087093C7088093D1
:100EF000C8089093C908C0904402D0904502E09081
:100F00004602F0904702A70196010E94272F6987A9
:100F10007A878B879C8720913609309137094091D9
:100F20003809509139090E94392D6093CE08709389
:100F3000CF088093D0089093D10820914E0930912A
:100F40004F094091500950915109609148027091A8
:100F5000490280914A0290914B020E94392D4B0127
:100F60005C018092D6089092D708A092D808B092DF
:100F7000D908609102097091030980910409909148
:100F800005090E943D2EA30192010E94272F9B017B
:100F9000AC012093CA083093CB084093CC085093FF
:100FA000CD08C701B6010E94272F6D877E878F87E6
:100FB000988B20913A0930913B0940913C0950911E
:100FC0003D090E94392D6093D2087093D308809315
:100FD000D4089093D508209152093091530940913B
:100FE00054095091550960914C0270914D028091C5
:100FF0004E0290914F020E94392D6B017C01C092EC
:10100000DA08D092DB08E092DC08F092DD0820914B
:101010000002309101024091020250910302C50189
:10102000B4010E94272F2091420930914309409139
:101030004409509145090E94392D20912402309194
:10104000250240912602509127020E94272F2B0152
:101050003C014092EE085092EF086092F0087092C6
:10106000F10820912C0230912D0240912E025091D6
:101070002F02C501B4010E94272F20913E09309113
:101080003F0940914009509141090E943A2DA30126
:1010900092010E943A2D4B015C018092DE089092F1
:1010A000DF08A092E008B092E1082091040230919C
:1010B00005024091060250910702C701B6010E9445
:1010C000272F20914A0930914B0940914C095091AA
:1010D0004D090E94392D209128023091290240911A
:1010E0002A0250912B020E94272F2B013C01409293
:1010F000F2085092F3086092F4087092F50820917B
:101100003002309131024091320250913302C701D6
:10111000B6010E94272F209146093091470940913E
:101120004809509149090E943A2DA30192010E9459
:101130003A2D6093E2087093E3088093E40890935B
:10114000E5088092E6089092E708A092E808B0923D
:10115000E9086093EA087093EB088093EC08909399
:10116000ED08C0903402D0903502E0903602F09045
:1011700037020F900F90A701960160910E097091B0
:101180000F0980911009909111090E949E2D8823CA
:1011900041F0C0920E09D0920F09E0921009F0922E
:1011A000110966E370E080E090E08DDA90930D091C
:1011B00080930C0943E050E0BE016B5F7F4F72DA11
:1011C0002091900230919102AD81BE810E94213820
:1011D00069837A838B839C8362E0E62EF12C06EF91
:1011E00018E021E030E0AE014F5F5F4F61E070E05A
:1011F0008CE892E05ADC8090E6089090E708A09096
:10120000E808B090E90850E040E062E070E0C80112
:10121000E0DD20E030E040E053E20E94272F6B0148
:101220007C01AC019B01C501B4010E94A22D4B01C0
:101230005C01A70196016091EA087091EB0880912A
:10124000EC089091ED080E94A22D762E672E582E64
:10125000492E68E070E080E090E041D898878F8365
:101260009093310980933009209164023091650296
:101270004091660250916702B401C5010E94272F78
:10128000D62EC72E382E292EE0906802F0906902E3
:1012900000916A0210916B02262F372F482F592F89
:1012A000B701C8010E949E2D87FD16C0E0906C0218
:1012B000F0906D0200916E0210916F022D2D3C2D69
:1012C000432D522DB701C8010E94ED2E181624F0AF
:1012D000ED2CFC2C032D122D20E030E04FE753E4E1
:1012E000B701C8010E949E2D18160CF47CC220E0A4
:1012F00030E0A901B701C8010E94ED2E87FF04C0AC
:10130000E12CF12C00E010E0A701B8018F81988555
:101310000E94380169E070E080E090E00E946F0177
:101320006C019093290980932809E0907002F09055
:10133000710200917202109173029401A501B7012C
:10134000C8010E949E2D87FD12C0E0907402F090AB
:10135000750200917602109177029401A501B70100
:10136000C8010E94ED2E181614F07401850120E0CA
:1013700030E04FE753E4B701C8010E949E2D1816D4
:101380000CF436C220E030E0A901B701C8010E9488
:10139000ED2E87FF04C0E12CF12C00E010E0A70146
:1013A000B801C6010E9438016AE070E080E090E078
:1013B0000E946F016C019093210980932009209174
:1013C00078023091790240917A0250917B02672D28
:1013D000762D852D942D0E94272F4B015C01E090E6
:1013E0007C02F0907D0200917E0210917F029B01B1
:1013F000AC01B701C8010E949E2D87FD12C0E0908C
:101400008002F09081020091820210918302940187
:10141000A501B701C8010E94ED2E181614F0740141
:10142000850120E030E04FE753E4B701C8010E9496
:101430009E2D18160CF4E1C120E030E0A901B7019F
:10144000C8010E94ED2E87FF04C0E12CF12C00E0C2
:1014500010E0A701B801C6010E9438016BE070E0FE
:1014600080E090E00E946F018C01909319098093B5
:101470001809C0908402D0908502E0908602F09016
:101480008702272D362D452D542DB601C7010E9408
:101490009E2D87FD16C0C0908802D0908902E090F2
:1014A0008A02F0908B02272D362D452D542DB60142
:1014B000C7010E94ED2E181624F0C72CD62CE52C5F
:1014C000F42C20E030E04FE753E4B601C7010E945E
:1014D0009E2D18160CF496C120E030E0A901B6014B
:1014E000C7010E94ED2E87FF04C0C12CD12CE12C36
:1014F000F12CA601B701C8010E9438011F9281E0BA
:101500008F938CE3882E82E0982EAA24A394B12C8A
:1015100028E3C22E22E0D22EEE24E394F12C03E93C
:1015200012E021E030E042E952E062E379E08EEF40
:1015300098E00E94C52A89859A85AB85BC858093F1
:10154000360990933709A0933809B09339098091EF
:10155000CE089091CF08A091D008B091D108809387
:101560004E0990934F09A0935009B09351098D856E
:101570009E85AF85B88980933A0990933B09A093E3
:101580003C09B0933D098091D2089091D308A09175
:10159000D408B091D5088093520990935309A09331
:1015A0005409B09355092091D6083091D70840913D
:1015B000D8085091D90860910C0270910D02809169
:1015C0000E0290910F020E94272F20915402309119
:1015D000550240915602509157020E94272F2091A8
:1015E0003E0930913F0940914009509141090E94C4
:1015F0003A2D60933E0970933F0980934009909380
:1016000041092091EE083091EF084091F008509187
:10161000F108609158027091590280915A0290919C
:101620005B020E94272F209142093091430940918B
:101630004409509145090E943A2D609342097093E4
:10164000430980934409909345092091DA08309129
:10165000DB084091DC085091DD0860910802709130
:10166000090280910A0290910B020E94272F20917B
:101670005C0230915D0240915E0250915F020E94D7
:10168000272F2091460930914709409148095091F0
:1016900049090E943A2D6093460970934709809347
:1016A0004809909349092091F2083091F30840913C
:1016B000F4085091F5086091600270916102809188
:1016C0006202909163020E94272F20914A09309173
:1016D0004B0940914C0950914D090E943A2D60935D
:1016E0004A0970934B0980934C0990934D09C0901F
:1016F000B603D090B703E090B803F090B9039FEF22
:10170000C91AD90AE90AF90AC092B603D092B703F6
:10171000E092B803F092B9030F900F90C114D10476
:10172000E104F10499F48091BA039091BB03A09174
:10173000BC03B091BD030196A11DB11D8093BA03F6
:101740009093BB03A093BC03B093BD038090BE03F2
:101750009090BF03A090C003B090C1036091BA0302
:101760007091BB038091BC039091BD030E943B2EFE
:10177000A50194010E94272F20E030E040E85FE4BB
:101780000E94272F2B013C01C701B6010E943B2E6E
:10179000A50194010E94272F9B01AC01C301B20156
:1017A0000E943A2D6093B2037093B3038093B40305
:1017B0009093B50360960FB6F894DEBF0FBECDBF11
:1017C000DF91CF911F910F91FF90EF90DF90CF901D
:1017D000BF90AF909F908F907F906F905F904F9051
:1017E0003F902F900895E12CF12C0FE713E48CCD5E
:1017F000E12CF12C0FE713E4D2CDE12CF12C0FE713
:1018000013E427CEC12CD12C4FE7E42E53E4F52E60
:1018100070CE4F925F926F927F92AF92BF92DF92A3
:10182000EF92FF920F931F93CF93DF93ECE9F3E0D6
:101830008BE2DF011D928A95E9F780E090E0A0E855
:10184000BFEB86A397A3A0A7B1A78AE097EDA3E279
:10185000BCE382A393A3A4A3B5A38AEF92E5A3E874
:10186000BEE484839583A683B78386E893EFA7EECF
:10187000B4E780879187A287B38782EF9EE1ABE2CE
:10188000BDE384879587A687B78781E89FEBA2E7AA
:10189000B5EF808B918BA28BB38BA0E9B3E0B383C0
:1018A000A283E4E8F3E01196FC93EE9382EC92E0DD
:1018B00091838083938382839583848397838683B4
:1018C000918780879387828780EB93E015969C931E
:1018D0008E93149780EA93E013969C938E931297BD
:1018E00082EB93E017969C938E931697E6ECF8E0C4
:1018F00080E4DF011D928A95E9F7EAE0F9E08FE5DF
:10190000DF011D928A95E9F7C6E0D9E01882DD244F
:10191000D394D092640980E0A82E82E0B82EF5011D
:1019200084A995A9A6A9B7A988879987AA87BB87FB
:10193000412C512C3201439449825A826B827C8221
:1019400066E370E080E090E00E94A7039F838E83AF
:10195000DD821CA2D092680919A64DA25EA26FA2D8
:1019600078A6E12CF12C8701A801970168E070E0CE
:1019700080E090E00E94B3019BA78AA7D9A61C8EA5
:10198000D092670919A24D8E5E8E6F8E78A2A80143
:10199000970169E070E080E090E00E94B3019BA3B2
:1019A0008AA3D9A21C8AD0926609198E4D8A5E8AB2
:1019B0006F8A788EA80197016AE070E080E090E07D
:1019C0000E94B3019B8F8A8FD98E1C86D0926509A5
:1019D000198A4D865E866F86788AA80197016BE02A
:1019E00070E080E090E00E94B3019B8B8A8BD98AE3
:1019F000ECA6FDA60EA71FA7D50150964D915D91AF
:101A00006D917C91539748AB59AB6AAB7BAB80919E
:101A1000500290915102A0915202B09153028093D2
:101A20004E0990934F09A0935009B09351094CABC4
:101A30005DAB6EAB7FAB8093520990935309A0933B
:101A40005409B0935509F501848D958DA68DB78DF8
:101A500088AF99AFAAAFBBAF84899589A689B789AA
:101A60008CAF9DAFAEAFBFAF80A191A1A2A1B3A13A
:101A70008093460990934709A0934809B093490978
:101A8000808D918DA28DB38D80934A0990934B09DF
:101A9000A0934C09B0934D09DF91CF911F910F9105
:101AA000FF90EF90DF90BF90AF907F906F905F902E
:101AB0004F9008958091060981111FC081E08093A5
:101AC00006098091070990910809A0910909B09130
:101AD0000A090197A105B10581F480910B098823BA
:101AE00061F066E370E080E090E00E946303909311
:101AF0000D0980930C090E94CA0380912A09811163
:101B00002EC081E080932A0980912B0990912C09A5
:101B1000A0912D09B0912E090197A105B105F9F405
:101B200080912F098823D9F068E070E080E090E090
:101B30000E946F01909331098093300940E050E09A
:101B4000BA010E94380168E070E080E090E00E94F5
:101B50006F0190933109809330090E9404028091B3
:101B6000220981112EC081E08093220980912309EE
:101B700090912409A0912509B09126090197A1050A
:101B8000B105F9F4809127098823D9F069E070E064
:101B900080E090E00E946F019093290980932809CA
:101BA00040E050E0BA010E94380169E070E080E056
:101BB00090E00E946F0190932909809328090E9468
:101BC000040280911A0981112EC081E080931A09C4
:101BD00080911B0990911C09A0911D09B0911E09CB
:101BE0000197A105B105F9F480911F098823D9F067
:101BF0006AE070E080E090E00E946F01909321091C
:101C00008093200940E050E0BA010E9438016AE068
:101C100070E080E090E00E946F0190932109809332
:101C200020090E9404028091120981112EC081E0D6
:101C3000809312098091130990911409A0911509BC
:101C4000B09116090197A105B105F9F48091170922
:101C50008823D9F06BE070E080E090E00E946F0193
:101C6000909319098093180940E050E0BA010E944E
:101C700038016BE070E080E090E00E946F0190938B
:101C80001909809318090C94040208954F925F92E9
:101C90006F927F928F929F92AF92BF92CF92DF927C
:101CA000EF92FF920F931F93F8944090D3035090BC
:101CB000D4036090D5037090D603C090C703D09032
:101CC000C803E090C903F090CA03452B09F0A4C0F3
:101CD0009B01AC01241935094609570929013A012C
:101CE0000091CF031091D0032091D1033091D20302
:101CF00048015901840C951CA61CB71C801691063E
:101D0000A206B306A0F40091CB031091CC0320915E
:101D1000CD033091CE030F5F1F4F2F4F3F4F0093E6
:101D2000CB031093CC032093CD033093CE0380924A
:101D3000CF039092D003A092D103B092D20300912E
:101D4000CB031091CC032091CD033091CE03809230
:101D5000D7039092D803A092D903B092DA030093EC
:101D6000DB031093DC032093DD033093DE036093E9
:101D7000D3037093D4038093D5039093D603A0E14B
:101D8000B7E2A30192010E9430386C0D7D1D8E1DBB
:101D90009F1D6093C7037093C8038093C9039093FA
:101DA000CA030091940210919502209196023091FD
:101DB00097020F3F1F4F2F4F3F4FF1F000919402BA
:101DC0001091950220919602309197020E3F1F4F7D
:101DD0002F4F3F4F89F0C0909402D0909502E09031
:101DE0009602F090970221E08C149D04AE04BF048B
:101DF00008F420E02093DF0378941F910F91FF9067
:101E0000EF90DF90CF90BF90AF909F908F907F909A
:101E10006F905F904F9008954B015C018418950876
:101E2000A608B708A3019201261B370B480B590BD4
:101E30006415750586059705D0F082169306A406ED
:101E4000B50640F420E030E0A90181149104A1041A
:101E5000B10491F4A0E1B7E20E943038A7019601E5
:101E6000261B370B480B590BCA01B901C5CF821687
:101E70009306A406B50670F7A0E1B7E2A5019401A8
:101E80000E9430386C0D7D1D8E1D9F1DB5CFFECE7E
:101E9000CF93DF9300D01F92CDB7DEB71C821B8299
:101EA0001A821982BE016F5F7F4FCE0103960E9496
:101EB0009C2969817A818B819C810E94CF22009725
:101EC00061F4BE016F5F7F4FCE0103960E94A82987
:101ED00069817A818B819C8126D50F900F900F901C
:101EE0000F90DF91CF910895FF920F931F93CF939F
:101EF000DF93082F60E070E0CB010E94DA31FF240D
:101F0000F3940E94B821EC01892B89F010E0CE3FB8
:101F10008FEFD80769F0002361F160E070E0CB013A
:101F20000E94DA3181E090E0892B59F322C011E060
:101F30001DD5EC01892B21F0CE3F8FEFD80759F743
:101F400011111EC011E0229609F410E00E946821D0
:101F5000EC01892B21F0CE3F8FEFD807E1F611116C
:101F600011C011E0CE3F8FEFD80709F410E0011146
:101F70000BC0CE01DF91CF911F910F91FF9008957B
:101F800011E0E4CF11E0F3CF60E070E0CB010E94FC
:101F9000DA311F25812F90E0C7CFCF93DF931ED674
:101FA000D0E0C0E0892B71F06AE070E080E090E062
:101FB0000E94DA3181E098DF11D62196C03D27E0FA
:101FC000D20781F710D60E9423231092F7031092B4
:101FD000F6031092F0031092F1031092F2031092A4
:101FE000F3031092EC031092ED031092EE031092A3
:101FF000EF031092E8031092E9031092EA031092A3
:10200000EB031092E4031092E5031092E6031092A2
:10201000E7031092E0031092E1031092E2031092A2
:10202000E3034EEF5FEF6FEF7FEF40939402509327
:10203000950260939602709397021092DF03E7ED8A
:10204000F3E028E0DF011D922A95E9F71092D3030F
:102050001092D4031092D5031092D6031092CF039E
:102060001092D0031092D1031092D2031092CB039E
:102070001092CC031092CD031092CE031092C7039E
:102080001092C8031092C9031092CA03DF91CF9136
:102090000895109203041092040410920504109203
:1020A00006041092020480910B0490910C0490930A
:1020B0000104809300041092FF031092FE0310921B
:1020C000FA031092FB031092FC031092FD0310928E
:1020D00008041092070490E080E00895CF92DF9208
:1020E000EF92FF920F931F93CF938C01892B09F0EE
:1020F00055C020910B0430910C0480910004909104
:10210000010440910B0450910C045093010440933E
:1021100000042817390781F01092FF031092FE0384
:102120001092FA031092FB031092FC031092FD032D
:10213000109208041092070480910B0490910C04F3
:10214000019761F58091070490910804892B21F48F
:1021500080919802811112C0809107049091080427
:102160000197E1F48091FA039091FB03A091FC03A5
:10217000B091FD030197A105B10581F41092FA0316
:102180001092FB031092FC031092FD031092980230
:1021900082E090E0909308048093070480910B0400
:1021A00090910C04019709F01CC180912104909139
:1021B00022048017910709F014C180911D049091A9
:1021C0001E04A0911F04B0912004009709F409C1D6
:1021D00020911C0421110DC040911D0450911E043A
:1021E00060911F0470912004452B462B472B09F466
:1021F000F8C020910704309108042230310509F01D
:10220000F0C02091FE032111ECC0FC01C080D18000
:10221000E280F38080910204882309F4D3C0809186
:102220000E0490910F04892B09F4FDC020910E0437
:1022300030910F0481E02230310509F080E02091D7
:102240000E0430910F04C1E02130310549F0209196
:102250000E0430910F04C1E02230310509F0C0E0D6
:10226000882309F456C02091180430911904409134
:102270001A0450911B04C701B6010E94ED2E87FD80
:1022800014C0209118043091190440911A045091FF
:102290001B046091030470910404809105049091E3
:1022A00006040E949E2D87FD22C0209118043091C3
:1022B000190440911A0450911B04C701B6010E94F1
:1022C000ED2E181634F52091180430911904409120
:1022D0001A0450911B0460910304709104048091CE
:1022E0000504909106040E949E2D811112C08091D8
:1022F000100490911104A0911204B0911304892B41
:102300008A2B8B2B19F481E08093FF0381E080936B
:10231000FE03CC2309F456C020911804309119040F
:1023200040911A0450911B04C701B6010E949E2DD2
:1023300087FF14C0209118043091190440911A04A9
:1023400050911B0460910304709104048091050472
:10235000909106040E94ED2E87FF22C02091180460
:102360003091190440911A0450911B04C701B60121
:102370000E949E2D811126C02091180430911904CD
:1023800040911A0450911B0460910304709104045D
:1023900080910504909106040E94ED2E181694F485
:1023A0008091100490911104A0911204B091130433
:1023B000892B8A2B8B2B19F481E08093FF0381E01A
:1023C0008093FE0381E09091FE03911180E0809361
:1023D0000204C0920304D0920404E0920504F09237
:1023E0000604012B09F067C180910704909108044D
:1023F000892BD9F410920D041092FE03809198025B
:10240000882379F082E090E0909308048093070499
:102410001092980220910B0430910C0481E0232B40
:10242000E9F080E01BC081E00ACF10929802809111
:102430000D04882349F01092FF03109208041092B3
:10244000070410920D04EDCF80910B0490910C04C1
:10245000892BE1F08091FE031092FE032091070486
:10246000309108042230310509F45EC088F421154A
:10247000310509F448C02130310509F4F3C0109248
:10248000FF031092FE0310920D0438C081E0E6CFE6
:102490002330310509F4B1C02430310581F7409172
:1024A000FA035091FB036091FC037091FD03411509
:1024B00051056105710561F04150510961097109CA
:1024C0004093FA035093FB036093FC037093FD0366
:1024D0004091FA035091FB036091FC037091FD035E
:1024E000452B462B472BD9F42091090430910A043F
:1024F0002130310509F046C01092FF031092080404
:10250000109207040CC080919802882341F082E069
:1025100090E0909308048093070410929802109220
:10252000F8038091FF03CEC08823C9F38091100483
:1025300090911104A0911204B09113041816190679
:102540001A061B060CF07DC080910B0490910C04C0
:10255000019709F076C08091100490911104A09128
:102560001204B09113048093FA039093FB03A09399
:10257000FC03B093FD0383E090E090930804809304
:102580000704CDCF409114045091150460911604B6
:1025900070911704452B462B472BA9F01092FF038F
:1025A0008091140490911504A0911604B091170421
:1025B0008093FA039093FB03A093FC03B093FD0375
:1025C00081E090E0DACF882399F080919902909190
:1025D0009A02A0919B02B0919C028093FA0390937F
:1025E000FB03A093FC03B093FD0384E090E0C5CF10
:1025F0001092FF0382E090E0C0CF8091FA039091A7
:10260000FB03A091FC03B091FD030097A105B10568
:1026100059F00197A109B1098093FA039093FB0344
:10262000A093FC03B093FD038091FA039091FB0308
:10263000A091FC03B091FD03892B8A2B8B2B09F011
:102640006ECF8091990290919A02A0919B02B091D5
:102650009C02892B8A2B8B2B09F44ECF81E080932F
:10266000FF03B3CF4091FA035091FB036091FC0349
:102670007091FD03411551056105710561F04150EF
:102680005109610971094093FA035093FB03609368
:10269000FC037093FD034091FA035091FB0360919A
:1026A000FC037091FD03452B462B472B09F037CFD8
:1026B0008111C7CF9FCF8091F803882309F431CFD0
:1026C0008091F903CF911F910F91FF90EF90DF90D0
:1026D000CF90089510920304109204041092050400
:1026E000109206041092020410920804109207043B
:1026F00010920104109200041092220410922104FE
:102700001092FF031092FE031092FA031092FB0343
:102710001092FC031092FD031092F9031092F8033B
:1027200010921D0410921E0410921F041092200497
:1027300010921C04109218041092190410921A049A
:1027400010921B0488EE93E0A0E0B0E08093990221
:1027500090939A02A0939B02B0939C02109214044F
:10276000109215041092160410921704109210047F
:1027700010921104109212041092130410920F047C
:1027800010920E0481E08093980210920D04109232
:102790000C0410920B0410920A041092090490E0A9
:1027A00080E0089580910B0490910C04892B19F519
:1027B00080919802882351F080910D04811106C008
:1027C00081E08093F9038093F803089520910D042C
:1027D0003091980281E090E0332311F090E080E0A6
:1027E00030E082239323892B21F01092F90381E0BA
:1027F000EACF1092F803089582E090E0FA01918305
:1028000080838FEF9FEF0895CF93DF93EA010097C6
:1028100011F00E943A241982188290E080E0DF9142
:10282000CF910895DB01009719F48FEF8C930895F1
:102830002EEF2C93FC013F96EF30F10508F034C0E9
:102840008827EA5DFB4E8F4F0C94193852145014B0
:102850004E144C144A1446144814441442144014A0
:102860003D14391435143B14541480E311968C93A1
:10287000089589E2FBCF82E2F9CF11961C92089568
:1028800083E2F4CF81E2F2CF81E1F0CF87E2EECFB5
:102890008AE2ECCF80E1EACF84E2E8CF88E2E6CFBB
:1028A00086E2E4CF81E3E2CF80E2E0CF80912F04A3
:1028B0009091300408959093300480932F040895EC
:1028C00080912E04089590912E04892B80932E04DC
:1028D0000895982F909580912E04892380932E043B
:1028E000089580912D04089580912B0490912C04DB
:1028F00008956115710559F0FB0130E020E070E0AA
:1029000060E02417350719F06115710511F0CB014E
:102910000895A081B181A817B90709F4BF012F5FFD
:102920003F4F3696EECF8091310481111CC041D2C9
:1029300047D290932404809323040E94AB1D0E94ED
:10294000BD1D90932804809327040E94D0200E94EC
:10295000D720909326048093250481E0809331044E
:1029600090E080E0089584EF9FEF08958F929F920A
:10297000AF92BF92CF92DF92EF92FF920F931F938D
:10298000CF93DF9300D000D000D01F92CDB7DEB739
:102990001A86198618861F821E821D821C821B823F
:1029A0001A8219828091310407EF1FEF882309F4FE
:1029B0008BC08E010D5F1F4F9E012B5F3F4FAE01FD
:1029C000495F5F4FBE01675F7F4F90E080E00E94EC
:1029D00054228C01009721F00596029708F0C7C099
:1029E00089859A85009709F4EFC0ED80FE802B81E0
:1029F0003C812E0D3F1D4F8158854217530708F427
:102A0000E3C0E80EF91ED7014C9120912F043091BC
:102A10003004232B09F494C0413F08F069C08CE1D5
:102A2000840F8D3008F483C08DE2840F803108F468
:102A300081C088E3840F8B3008F47FC092E1C92EF7
:102A400094E1D92EECEFF3E16D817E81AE014F5F11
:102A50005F4F89859A8519955C01C114D104A1F154
:102A600089809A808114910479F18B819C818815E9
:102A7000990508F484C010E000E04B815C8170E0AF
:102A800060E0C7010E94433801151105E9F449814E
:102A90005A8169857A858D819E81680F791FC5016C
:102AA000F6011995E980FA800D811E812F81388504
:102AB00049855A856FEF7FEF81E090E00E94EF211A
:102AC0008C01892B09F053C0C8012A960FB6F894DF
:102AD000DEBF0FBECDBFDF91CF911F910F91FF9051
:102AE000EF90DF90CF90BF90AF909F908F90089520
:102AF00030E020E0220F331FF901ED5DFB4F019024
:102B0000F081E02D309709F499CF842F90E019954A
:102B1000009709F493CFDC011296ED91FC91139785
:102B20001496CD90DC90309709F08ECF1EC021E036
:102B300030E0E0CF22E030E0DDCF23E030E0DACF5C
:102B4000D12CC12CE4E0F4E14F3F09F07DCFE091BE
:102B50002304F0912404309719F404EF1FEF0CC004
:102B60008FEF90E019950097B1F604EF1FEF89857C
:102B70009A85009709F4A8CF0E943A24A5CF0E9415
:102B80001E238C0189859A850E943A2470E060E0BA
:102B9000C4010E94B72298878F830E94EC219E83F4
:102BA0008D836F8178856115710559F0C8010E9488
:102BB000D0259A87898706EF1FEF892B09F05BCF15
:102BC0005CCF08EF1FEF59CF08EF1FEFD0CF209158
:102BD00031042111D7C787EF9FEF089580912F040B
:102BE0009091300408950E94DC200E943620EDD0A0
:102BF000E3E2F4E088E0DF011D928A95E9F71092A4
:102C0000310490E080E0089586E090E0FA0191833D
:102C1000808390E080E0089547E050E065EC72E04A
:102C200068CEDF92EF92FF920F931F93CF93DF93C3
:102C30008A01EC01C60FD71FE0903504F0903604EE
:102C4000D9800E940623D816190678F082E090E019
:102C5000F801918380838EEF9FEFDF91CF911F91D9
:102C60000F91FF90EF90DF900895EF2841F482E0FC
:102C700090E0F8019183808384EF9FEFEECF89810C
:102C80008093340490E00196F8019183808390E072
:102C900080E0E3CFCF93DF93EA010E944A1F8823AD
:102CA00021F00E9413230E944B1F82E090E0998341
:102CB00088838BEF9FEFDF91CF910895CF93DF93C0
:102CC000EB0186E0FB0111928A95E9F78FEF88838B
:102CD000F7DD898306DE8A8307DE9D838C83DF919F
:102CE000CF910895CF93DF93EA010E944D1F811188
:102CF00009C082E090E09983888385EF9FEFDF91A0
:102D0000CF91089590E080E0D6DD81E090E0998356
:102D1000888390E080E0F3CF0F931F93CF93DF93EE
:102D2000EA018C01060F171F0E944D1F81110BC075
:102D300082E090E09983888385EF9FEFDF91CF91C8
:102D40001F910F910895F8018181823038F082E05F
:102D500090E0998388838EEF9FEFF0CF81E090E041
:102D6000AADD88E090E09983888390E080E0E6CF58
:102D7000CF93DF930097D1F4EB01FB01329686E00D
:102D8000DF011D928A95E9F78FEF888385E08983BB
:102D90001A820E9406238B830E9405239D838C83C5
:102DA00081E08E838F83DF91CF910895DF91CF9162
:102DB00039CD8CE096E190933304809332040895EA
:102DC000809132049091330408951092330410924C
:102DD000320408958091350490913604089541118C
:102DE00005C0611571058105910561F06093350499
:102DF00070933604809337049093380440933904D9
:102E000081E0089580E00895FF920F931F93CF9380
:102E1000DF938A01EC01C60FD71FF9800E940623B9
:102E2000F816190668F082E090E0F801918380833B
:102E30008EEF9FEFDF91CF911F910F91FF9008953B
:102E40006C817D818E819F814B81C9DF811108C09A
:102E500082E090E0F8019183808384EF9FEFEACFD6
:102E600089818093340490E00196F80191838083F6
:102E700090E080E0DFCFCF93DF93EA01FC01E60F23
:102E8000F71F64817581868197814381A8DF811155
:102E900009C082E090E09983888384EF9FEFDF91FF
:102EA000CF91089581E090E09983888390E080E05D
:102EB000F6CFE5E3F4E04081518162817381480FF0
:102EC000511D611D711D4083518362837383089579
:102ED000CF93C09134044C2F50E060913504709131
:102EE000360401960E943A388C2FE3DF10923404A6
:102EF000CF910895009799F480913504909136040C
:102F00002FEFFB012083892B59F02091340430E00E
:102F10002F5F3F4F2417350719F4CB01D9CF82CC4F
:102F20000895009799F480913504909136042FEF1D
:102F3000FB012083892B59F02091340430E02F5F6E
:102F40003F4F2417350719F4CB01C2CF6BCC08953E
:102F50002DE0AC01249FC001259F900D1124E0912C
:102F60003E04F0913F04E80FF91F23813481225081
:102F7000310981E02230310508F080E008950F9397
:102F80001F93CF93DF930091400410914104D0E050
:102F9000C0E080E00C171D0749F491E0811190E03A
:102FA000892FDF91CF911F910F9108958111F5CF56
:102FB000CE01CEDF2196EECFA0913E04B0913F042A
:102FC000109729F120914004309141048217930712
:102FD000F0F45DE0589F9001599F300D1124A20F2D
:102FE000B31FED91FC911197309789F012968C9157
:102FF000681768F485E0689FE00DF11D1124808159
:103000009181892B21F081E09281491708F080E0BD
:103010000895EF92FF920F931F93CF93DF93EA01EE
:10302000FC01E60FF71F02811381E480F5804F2D2C
:103030006E2DC801C1DF81110DC082E090E099833F
:1030400088838EEF9FEFDF91CF911F910F91FF90BB
:10305000EF900895C8017CDF882339F082E090E08A
:103060009983888388EF9FEFEECF1093A40200939B
:10307000A302E092A502F092A60281E090E099837B
:10308000888390E080E0DFCFCF92DF92EF92FF92D3
:103090000F931F93CF93DF937A01EC01C60FD71FD5
:1030A000C090A302D090A4020091A5021091A602A4
:1030B000412F602FC60180DF811110C082E090E0B7
:1030C000F701918380838AEF9FEFDF91CF911F916A
:1030D0000F91FF90EF90DF90CF900895C60138DFF9
:1030E000882341F082E090E0F7019183808388EFAC
:1030F0009FEFEBCF4C815D816E817F819A818981C9
:103100008F3F41F082E090E0F701918380838EEF62
:103110009FEFDBCFEDE0EC9D9001ED9D300D112494
:10312000E0913E04F0913F04E20FF31F0190F08123
:10313000E02D25E0029FE00DF11D11240190F081AA
:10314000E02D27E0129FE00DF11D11248083918373
:103150008B81828343835483658376831F5F1093BF
:10316000A60281E090E0F7019183808390E080E007
:10317000ACCFEF92FF920F931F93CF93DF937A011F
:103180008C01060F171FC0913E04D0913F04209779
:1031900081F021E030E0F801828193814091400488
:1031A000509141048417950710F030E020E0232B64
:1031B00071F482E090E0F701918380838EEF9FEFBE
:1031C000DF91CF911F910F91FF90EF9008954DE007
:1031D000489F9001499F300D1124C20FD31FB8DEC4
:1031E000882341F082E090E0F7019183808388EFAB
:1031F0009FEFE6CFF8012481358120383105C8F6EC
:1032000087818111D6CF4181842F90E08F7E0097F6
:1032100041F082E090E0F7019183808386EF9FEF99
:10322000CFCF4F833E832D83268128871986223076
:1032300010F421E0288721E030E0F701318320837A
:10324000BFCF88E090E0FA019183808390E080E036
:103250000895FB018FEF808381E181838FEF9FEFE2
:103260009383828380E890E095838483168217821B
:103270000895FB018FEF808391E091838283938394
:10328000848384E3858381E090E097838683089537
:103290004BE050E06FEE72E02CCB8F929F92BF928A
:1032A000CF92DF92EF92FF920F931F93CF93DF9312
:1032B000EA01FC01E60FF71F828193810481B5804A
:1032C000E0913E04F0913F04309791F482E090E069
:1032D000998388838CEF9FEFDF91CF911F910F919E
:1032E000FF90EF90DF90CF90BF909F908F900895C8
:1032F00020914004309141048217930738F082E016
:1033000090E0998388838EEF9FEFE6CF2DE0289F92
:103310006001299FD00C1124EC0DFD1DE080F1808F
:10332000E114F10499F28281081748F785E0089FBB
:1033300080011124E00EF11EF70180819181892B1B
:1033400029F6BB20E1F2F7E0BF9E40011124C40141
:103350000E94EF23F70191838083E0913E04F09176
:103360003F04EC0DFD1D0190F081E02DE00FF11FF9
:1033700080819181009739F482E090E0998388837D
:103380008DEF9FEFA9CFA40170E060E00E94433869
:1033900080913E0490913F04C80ED91EF6018081B1
:1033A0009181080F191FF801B28281E090E09983A2
:1033B000888390E080E090CFAF92BF92CF92DF926F
:1033C000FF920F931F93CF93DF93EA01FC01E60F67
:1033D000F71F82819381F48000913E0410913F0495
:1033E0000115110581F482E090E0998388838CEFC8
:1033F0009FEFDF91CF911F910F91FF90DF90CF90C2
:10340000BF90AF90089520914004309141048217FD
:10341000930738F082E090E0998388838EEF9FEFE6
:10342000E8CF2FEF2F0D2C3FA8F72DE0289F60014C
:10343000299FD00C11240C0D1D1DF8018081918154
:10344000892B89F6F5E0FF9E50011124C5010E94E9
:10345000EF23F80191838083E0913E04F0913F04D3
:10346000EC0DFD1D80819181009739F482E090E0A0
:10347000998388838DEF9FEFBCCFA50170E060E05A
:103480000E944338E0913E04F0913F04EC0DFD1D95
:10349000F28281E090E09983888390E080E0A9CF78
:1034A000CF92DF92EF92FF920F931F93CF93DF9310
:1034B000860F971FFC010281138180913E04909139
:1034C0003F04892B81F082E090E0FA0191838083B0
:1034D0008CEF9FEFDF91CF911F910F91FF90EF90B5
:1034E000DF90CF900895C801B0E0A0E00197A10956
:1034F000B1098F3F9F4FA105B10540F082E090E0F8
:10350000FA01918380838EEF9FEFE4CF7A018DE003
:10351000809F6001819FD00C1124C6010E94EF237F
:10352000EC01009741F482E090E0F7019183808301
:103530008DEF9FEFCFCFA60170E060E00E9443388F
:10354000D0933F04C0933E04109341040093400481
:1035500090E080E02FEF3FEF8017910741F481E08A
:1035600090E0F7019183808390E080E0B3CF3C87C7
:103570002B8701962D96F0CFCF92DF92EF92FF929C
:103580000F931F93CF93DF93EC01D12CC12C10E04C
:1035900000E0F12CE12C8A818017110609F0BCF4BF
:1035A000AE01455F5F4F63E070E0C7010E94662493
:1035B000009721F02FEF3FEF3C872B87DF91CF91D2
:1035C0001F910F91FF90EF90DF90CF900895E881C9
:1035D000F981EC0DFD1D23813481C901019601158E
:1035E000110519F44F8144FD049661E070E0BFD7E6
:1035F000E816F90608F47C010F5F1F4F85E0C80E3E
:10360000D11CC9CFF89420913C0430913D0481E055
:103610002115310509F080E0232B09F078940895F5
:103620004F925F926F927F928F929F92AF92BF92D2
:10363000CF92DF92EF92FF920F931F93CF93DF937E
:103640003C01660E771EF301828193814C01B12CFF
:10365000A12CC0913E04D0913F04209769F021E055
:1036600030E060914004709141048617970710F094
:1036700030E020E0232BC1F482E090E0FA01918356
:1036800080838EEF9FEFDF91CF911F910F91FF907D
:10369000EF90DF90CF90BF90AF909F908F907F90F2
:1036A0006F905F904F9008958092A7029092A80229
:1036B000A092A902B092AA026DE0689F9001699F52
:1036C000300D1124C20FD31FF3018181833040F0EC
:1036D00082E090E0FA019183808386EF9FEFD3CF61
:1036E0002A012B813C81232BF1F4288139819F8190
:1036F00091FF2EC0232B09F464C0209143049A81CA
:10370000422F490F5527551FBA0141E050E061385B
:10371000710514F050E040E0452B09F452C02A87AF
:10372000920F909343048150823008F476C06ADF90
:10373000882309F4C5C0F3018181813009F480C078
:1037400008F470C0823009F4B3C090E080E08EC00D
:10375000232BB9F1209142049A81E22FE90FFF2730
:10376000FF1F41E050E0ED3FF10514F050E040E074
:10377000452B39F12A87920F90934204D4CFA08130
:10378000B181A20FB31F11966C91060F111D019606
:10379000295F3F4F8417950794F3C114D104C9F4EE
:1037A0008F8184FF16C031D721E0A8014B5F5F4FA6
:1037B0008417950708F420E0A7014B5F5F4F2111A4
:1037C0000EC082E090E0F2019183808387EF9FEF4B
:1037D0005ACF1BD721E0A8014F5F5F4FE9CF888107
:1037E0009981E80EF91EF70114830383FFEFCF1AC6
:1037F000DF0A7A018A818C151D0409F00CF497CF39
:10380000E881F981EE0DFF1D428150E030E020E0BB
:1038100010E000E090E080E0BDCFF12CE12CD12C55
:10382000C12CE8CF81E090E09C838B83A8DB8823C8
:1038300009F48BCF81E090E03ED880E44AD885CF70
:103840008B859C85019651F083E090E09C838B836F
:1038500082E090E030D880E436D877CF89288A2873
:103860008B2879F4CE0188DE009771F3789422E0FA
:1038700030E0F20131832083892BF9F08DEF9FEF47
:1038800002CF2D813E8180919D0290919E0228174A
:103890003907D1F66091A1027091A202AE01455F95
:1038A0005F4F80919F029091A0020E948F25DCCFF4
:1038B00082E090E09C838B8348CF90E080E0E3CE71
:1038C00082E090E0F2019183808385EF9FEFDBCE71
:1038D0008F929F92AF92BF92CF92DF92EF92FF9220
:1038E0000F931F93CF93DF93EA018C01060F171FED
:1038F000F8018181833098F082E090E09983888399
:1039000086EF9FEFDF91CF911F910F91FF90EF9086
:10391000DF90CF90BF90AF909F908F90089580914F
:103920003E0490913F04892B61F081E090E020916A
:10393000400430914104232B11F490E080E0892B66
:1039400039F482E090E0998388838EEF9FEFDACF9D
:1039500059DE882309F4D5C0F8018181813009F44A
:103960008BC0E8F0823099F42091400430914104FA
:10397000E0913E04F0913F0490E080E041E050E0AF
:103980002817390709F0B3C0FADA811117C0789403
:1039900081E090E09983888390E080E0B3CF20912C
:1039A000400430914104E0913E04F0913F0490E0E6
:1039B00080E041E050E02817390741F481E090E0D1
:1039C0000E945B1480E40E946914E1CF63817481DA
:1039D000672B11F05483438301963D96ECCFE09121
:1039E0003E04F0913F04E00FF11F23813481223027
:1039F000310561F4238534852F3F3F4F39F4C114DD
:103A0000D104E104F10409F5CF01B6DDEFEFCE1AE0
:103A1000DE0AEE0AFE0A035F1F4F409140045091F8
:103A2000410470E060E0C416D506E606F70664F5CA
:103A30000097A9F27894892B09F4AACF82E090E04C
:103A4000998388838DEF9FEF5DCF458156812091CB
:103A50009D0230919E0242175307C1F6AF01455FA8
:103A60005F4F6091A1027091A20280919F0290919C
:103A7000A0020E948F25CACF10E000E090E080E015
:103A8000C12CD12C7601C9CF0097A1F610E000E03F
:103A9000812C912C540183E0E82EF12C1AC0E09186
:103AA0003E04F0913F04E00FF11F8381948102975F
:103AB00049F4F482E38282E090E00E945B1480E4A7
:103AC0000E946314FFEF8F1A9F0AAF0ABF0A035FB9
:103AD0001F4F8091400490914104B0E0A0E088160F
:103AE0009906AA06BB06DCF290E080E0A3CF6381D2
:103AF00074816230710511F45483438301963D96BD
:103B00003FCF82E090E09983888385EF9FEFFACEE4
:103B10000097B9F48FEFFB0180832091A7023091C9
:103B2000A8024DE0429FC001439F900D1124E091F7
:103B30003E04F0913F04E80FF91F8285FB01818369
:103B400008950C94121488E090E0FA019183808328
:103B500090E080E0089510923D0410923C04EEE362
:103B6000F4E086E0DF011D928A95E9F788E499E1A7
:103B700090933B0480933A04089580913A04909185
:103B80003B0408952F923F924F925F926F927F92E3
:103B90008F929F92AF92BF92CF92DF92EF92FF925D
:103BA0000F931F93CF93DF93CDB7DEB762970FB616
:103BB000F894DEBF0FBECDBFF89420913C04309145
:103BC0003D042F5F3F4F30933D0420933C04789495
:103BD00020913E0430913F043B832A83232B09F438
:103BE00056C12091400430914104232B09F44FC168
:103BF0004D875E876F87788B9C878B878A819B81B7
:103C00009A8B898BD12CC12C198210E000E0809115
:103C1000400490914104C816D90618F43981332321
:103C200029F1F89480913C0490913D040197909380
:103C30003D0480933C047894C80162960FB6F894D2
:103C4000DEBF0FBECDBFDF91CF911F910F91FF90CF
:103C5000EF90DF90CF90BF90AF909F908F907F902C
:103C60006F905F904F903F902F900895B60190E035
:103C700080E029D38887A989BA8917968C911797EC
:103C800081FD8DC013968D919C911497039709F037
:103C900086C01596ED91FC91FF83EE832B853C85C4
:103CA000E217F30709F07BC0712C612C512C412CD9
:103CB00063C092D39A87898710E04114510431F48C
:103CC000A989BA8917961C9112951170A989BA8988
:103CD000ED91FC91E60DF71D23803480111169C030
:103CE000BFEF2B1A3B0A61E070E0C10140D45C01D8
:103CF000A989BA891B968D919C918F3F980709F4E9
:103D00005CC0B5014DD74C01009709F4BBC0E985F3
:103D1000FA85E80FF91FA989BA891A968C91840D42
:103D2000808311114DC08F010F5F1F4F80919D0245
:103D300090919E02AE81BF81A817B90709F09DC07E
:103D400081E090E0B885BB2311F090E080E0710144
:103D500009851A859501A401B6019195819591096E
:103D60003ED38C01892B11F0C40184D58FEF481A02
:103D7000580A95E0690E711CA989BA8912968C912E
:103D80008415150429F024F0B981BB2309F491CFDF
:103D9000E885EE2321F0B60190E080E096D2FFEFB7
:103DA000CF1ADF0A29893A89235F3F4F3A8B298B43
:103DB0002ECFE5E02E0E311C96CFC50110D5A3CF36
:103DC0008D859E85AF85B88981839283A383B483D3
:103DD0008F010B5F1F4FAACFE080F180EC81FD8146
:103DE000EE0EFF1ED70113966D917C9114978C9166
:103DF0008F3FE1F1E1E0F0E002C0EE0FFF1F8A9596
:103E0000E2F7CF01092E000CAA0BBB0BFB0140818E
:103E100051816281738184239523A623B72321E0F6
:103E2000892B8A2B8B2B09F420E0D8012C93D70106
:103E300011968C91080F111DEA81FB813196FB834D
:103E4000EA832C813D81295F3F4F3D832C83A989E3
:103E5000BA89ED91FC91E60DF71D82812A813B81A3
:103E60008217130611F00CF0B7CF6ACFF70141812A
:103E700050E0C8010E943A38DACF1D821C821B82B2
:103E80001A82E5CF31E0398306EF1FEF6FCF10E0E4
:103E900000E0C7CEB7CB789408952F923F924F920F
:103EA0005F926F927F929F92AF92BF92CF92DF927A
:103EB000EF92FF920F931F93CF93DF9300D000D028
:103EC000CDB7DEB700913E0410913F04992493943E
:103ED0000115110509F43EC0A0904004B0904104C2
:103EE00091DB982E8823B1F110923F0410923E048A
:103EF0001092410410924004109242041092430424
:103F00008FEF9FEFDC018093A7029093A802A0930C
:103F1000A902B093AA0278947AD31E830D83C12C90
:103F2000D12C7601C501B0E0A0E089839A83AB83F0
:103F3000BC8322242A94322C89819A81AB81BC8152
:103F4000C816D906EA06FB06F4F0C80193D480E44B
:103F50000E946914892D26960FB6F894DEBF0FBE15
:103F6000CDBFDF91CF911F910F91FF90EF90DF9028
:103F7000CF90BF90AF909F907F906F905F904F9049
:103F80003F902F900895C114D104E104F10409F584
:103F9000D8011B968D919C918F3F980709F040D5D1
:103FA000F80134862386ED81FE8180819181B12CD8
:103FB000A12C412C512C3201892B69F5BFEFCB1A72
:103FC000DB0AEB0AFB0AED81FE813D96FE83ED8361
:103FD000B3CFAD81BE8115962D913C9116978091FE
:103FE0009D0290919E0228173907E9F61B968D9144
:103FF0009C91C4D5D8CF8A0D9B1DDC018D919C91DD
:10400000009709F037D4BFEF4B1A5B0A6B0A7B0AA3
:10401000E5E0AE0EB11CAD81BE818D919C911197F2
:1040200012964C9150E070E060E04416550666062A
:1040300077060CF31FD4C2CFCF93DF93EA012DDFB5
:10404000811109C082E090E09983888385EF9FEF1A
:10405000DF91CF91089581E090E00E945B1481E0B0
:1040600090E09983888390E080E0F2CF16DF109291
:104070003B0410923A04089542E050E061E373E09B
:104080000C947914FF920F931F93CF93DF938A01BF
:10409000EC01C60FD71FF980B9D20897F816190698
:1040A00071F068F082E090E0F801918380838EEFF8
:1040B0009FEFDF91CF911F910F91FF9008956C8139
:1040C0007D818E819F814B810E94EF16811108C0F6
:1040D00082E090E0F8019183808384EF9FEFE9CF45
:1040E000F9800E94EA164F2D50E0BE01685F7F4FB5
:1040F0000E943A3889810E94591781E090E0F801C6
:104100009183808390E080E0D4CFDF92EF92FF92A2
:104110000F931F93CF93DF938A01EC01C60FD71F34
:104120000E94EA167C01D98071D2DD2059F00297F5
:1041300021E030E0D816190619F010F030E020E048
:10414000232B79F482E090E0F801918380838EEF55
:104150009FEFDF91CF911F910F91FF90EF90DF9034
:104160000895EF2841F482E090E0F8019183808384
:1041700084EF9FEFEECFF9800E94EA164F2D50E0BA
:10418000BE016E5F7F4F0E943A3889810E945917A5
:1041900081E090E0F8019183808390E080E0D9CFC6
:1041A0008CE390E2909345048093440408958091B9
:1041B00044049091450408950895FC0111821082F1
:1041C000938382830895DB011D921C92DC01129679
:1041D000ED91FC9113977183608313967C936E939A
:1041E00012970895FC0180819181DB018D939C934E
:1041F000A081B181109741F08D919C919183808332
:10420000892B11F4F383E2830895FC01808191816D
:10421000DB018D939C93892B11F4738362837183EB
:1042200060830895FC011182108293838283089534
:10423000CF93DF931F921F92CDB7DEB71A821982F8
:10424000F894BE016F5F7F4F8BE494E0CBDF8981F0
:104250009A81009709F00ED389819A81892B89F779
:10426000BE016F5F7F4F8FE494E0BCDF89819A814C
:10427000009709F0FFD289819A81892B89F7789478
:104280000F900F90DF91CF910895CF93DF931F92FE
:104290001F92CDB7DEB71A821982F894BE016F5F04
:1042A0007F4F87E494E09EDF89819A81009709F02F
:1042B000E1D289819A81892B89F778940F900F90A8
:1042C000DF91CF91089581E0089590E080E0089516
:1042D000EF92FF920F931F93CF93DF931F921F9242
:1042E000CDB7DEB71A8219828091460407EF1FEF1F
:1042F0008823A1F1F894BE016F5F7F4F8FE494E0B3
:1043000071DF789489819A81EE24E394F12C892BD2
:1043100051F4F894BE016F5F7F4F8BE494E062DF4D
:104320007894F12CE12C89819A810EEF1FEF009790
:10433000A9F0FC014281538164E070E031D68C0128
:10434000892B61F0F89469817A81C701880F991FE0
:10435000880F991F855B9B4F58DF7894C8010F9099
:104360000F90DF91CF911F910F91FF90EF900895E3
:104370000F931F93CF93DF9300D01F92CDB7DEB77B
:104380001C821B821A8219828091460407EF1FEF5C
:104390008823C1F0AE014D5F5F4F64E070E0CE0155
:1043A000019671D68C01892B69F4E981FA818B81A0
:1043B0009C8193838283F89469817A8187E494E075
:1043C00002DF7894C8010F900F900F900F90DF914B
:1043D000CF911F910F91089576D7049608958F92EB
:1043E0009F92AF92BF92CF92DF92EF92FF920F9384
:1043F0001F93CF93DF931F921F92CDB7DEB71A8220
:104400001982BC016F5F7F4F6330710598F0AA2459
:10441000AA94BA2CC5010F900F90DF91CF911F91F4
:104420000F91FF90EF90DF90CF90BF90AF909F9053
:104430008F9008954115510551F3480159018A01A2
:104440006C01CADF8815990511F7E114F104F9F23E
:104450008E0D9F1DA816B906D0F2809146048823C0
:10446000F1F0F894B501645071099701AE014F5F06
:104470005F4FC80104969CD65C01892B71F4898139
:104480009A81F80193838283C601880F991F880F50
:10449000991FB801855B9B4F96DE7894BBCF87EF61
:1044A000A82EBB24BA94B6CFAF92BF92CF92DF9220
:1044B000EF92FF920F931F93CF93DF931F921F9260
:1044C000CDB7DEB71A821982892B09F047C0611572
:1044D000710509F443C04115510509F43FC0211588
:1044E000310509F43BC001151105C1F18091460465
:1044F0008823B9F179016A015B01F894BE016F5F0D
:104500007F4F87E494E06EDE789489819A810097EA
:1045100059F1DC0112966D917C91A801049661D647
:104520008C01E981FA81D501ED93FC93828193811D
:104530000496F601918380834FDFD7018D939C937E
:10454000C8010F900F90DF91CF911F910F91FF90B5
:10455000EF90DF90CF90BF90AF9008950FEF1FEFD7
:10456000EFCF07EF1FEFECCF0EEF1FEFE9CFCF93A9
:10457000DF93EC01672B71F4AFD68C179D0760F0C9
:10458000A2D62496C80FD91FA1D68C0F9D1FDF91EC
:10459000CF9108959ED6F1CF90E080E0F8CF0F93B1
:1045A0001F93CF93DF932091460421112BC08B01E1
:1045B000EC018BE494E001DE8FE494E0FEDD87E41F
:1045C00094E0FBDD86D00097C1F486D670E060E011
:1045D000CEDF4BEA52E062E070E078D1009769F4F8
:1045E0008091AB029091AC0289D6B801CE01BED4C5
:1045F000009719F421E020934604DF91CF911F9199
:104600000F91089584EF9FEFF8CF63C665C6CF93EF
:10461000DF9365D6EC01892B11F40ADE36DECE017C
:10462000DF91CF910895CF93DF9359D6EC01892B79
:1046300009F4FEDDCE01DF91CF9108958091AB02A8
:104640009091AC020895CF93DF9380914604D0E01F
:10465000C0E08823D1F057D6EC01892BB1F4E8DD16
:1046600014DE8091AB029091AC02DAD1E9D2EC0178
:10467000892B59F48BE494E0D5DD8FE494E0D2DD0E
:1046800087E494E0CFDD10924604CE01DF91CF9114
:104690000895CF93DF930097A1F4DF91CF91089510
:1046A000EC011A821982A883309711F092838183DA
:1046B0002F5F3F4FFC01860F971F4217530781F76B
:1046C000ECCF30E020E0F0E0E0E0AFEF6F5F7F4F55
:1046D000F4CFCF92DF92EF92FF920F931F93CF937D
:1046E000DF9300EA15E00C7F8DE3E82E83E0F82EDF
:1046F00093E4C92E93E0D92EC7EFD5E0D7014D91B1
:104700005D917D01F601619171916F0119830883BB
:104710005D834C835B834A837F836E839B012F5F22
:104720003F4F249FC001259F900D349F900D112471
:1047300099878887C801ADDF88859985080F191F7B
:104740002A96F3E4EF16F3E0FF06C1F6E5E5F4E0A0
:1047500088E491E0DF019C011D9221503040E1F797
:1047600010925404109253041092160610921506DB
:1047700010921A0610921906109218061092170637
:1047800010921C0610921B0610921E0610921D0617
:104790001092200610921F061092240610922306F3
:1047A00010922206109221061092260610922506DB
:1047B00010922806109227061092F4051092F30525
:1047C0001092F6051092F50590E080E0DF91CF9110
:1047D0001F910F91FF90EF90DF90CF900895009779
:1047E00061F1F8948131910550F48091F90590912F
:1047F000FA05892B31F020E090E080E011C081972C
:10480000D8F48091030690910406892BC9F4809115
:104810000D0690910E06892B79F022E082E090E05F
:10482000EAE0E89FD001E99FB00D1124A950BA4FEA
:104830008D919C91009741F4789490E080E00895E8
:1048400021E081E090E0ECCFE29FF0011124E950FB
:10485000FA4FDC0111964D915C9151834083428166
:1048600053814150510953834283FC012193CF016D
:1048700078940895009749F1DC018E91853041F4D8
:10488000E091F505F091F6053097F9F0CD01199416
:104890008530D8F4282F30E0F8948FEF8C938AE09D
:1048A000829FF001839FF00D1124E950FA4F80811F
:1048B000918112969C938E931197B183A0838281EC
:1048C000938101969383828378940895CF92DF92A7
:1048D000EF92FF920F931F93CF93DF939C0188E594
:1048E00094E08C7F4115510509F497C021153105DD
:1048F00009F493C06115710509F48FC07A01AB0109
:10490000B9016D5F7F4F6C7F9B012F5F3F4F249FED
:104910008001259F100D349F100D1124F8942091D3
:10492000150630911606232B59F420911D0630915F
:104930001E062115310569F12017310708F056C010
:1049400020911F0630912006232B91F420911D0603
:1049500030911E06820F931F209127063091280662
:104960002115310509F43FC02017310708F052C066
:104970007894CFEFDFEF86EF9FEFF701D183C0830D
:10498000DF91CF911F910F91FF90EF90DF90CF902B
:104990000895C3E0D0E0C0905304D090540425E4BF
:1049A00031E02C193D092017310710F32AE02C9F24
:1049B000F0012D9FF00D1124E950FA4F918380836F
:1049C00055834483538342837783668311870087AB
:1049D00060DE0C0D1D1D1093540400935304789455
:1049E00090E080E0CACFC4E0D0E0D5CFC3E0D0E013
:1049F0002AE02C9FF0012D9FF00D1124E950FA4F71
:104A00009183808355834483538342837783668372
:104A100040DEE5CFC4E0D0E0EBCF8FEF9FEFB0CF2B
:104A2000FF920F931F93CF93DF939C012350310983
:104A30002230310508F070C0EC01F89484E09AE06F
:104A40009C9FD0019D9FB00D1124A150BA4F082FFB
:104A500010E0909FF001919FF00D1124E950FA4F62
:104A600020813181C017D10714F1FF24F394232B47
:104A700041F52AE0209FF001219FF00D1124E9501B
:104A8000FA4F809153049091540440855185841BC2
:104A9000950B90935404809353042C9FF0012D9F09
:104AA000F00D1124E950FA4F118610861CC0232BFB
:104AB00039F42D913C911197232BA9F48150C7CF44
:104AC000F12C8AE08C9FF0018D9FF00D1124E950AC
:104AD000FA4F4085518570E060E0808191810E94AD
:104AE0004338F110C6CF8AE08C9FF0018D9FF00D06
:104AF0001124E950FA4F1182108215821482138218
:104B0000128217821682789490E080E0DF91CF9134
:104B10001F910F91FF9008958FEF9FEFF7CF4115F1
:104B2000510549F1009739F16115710521F1F894AA
:104B30002091F3053091F405232BB9F42091F5056C
:104B40003091F605232B89F49093F4058093F305B7
:104B50007093F6056093F505789425E030E090E0D9
:104B600080E0FA0131832083089578942FEF3FEF9E
:104B700086EF9FEFF6CF8FEF9FEF0895059769F4CB
:104B8000F8941092F4051092F3051092F605109225
:104B9000F505789490E080E008958FEF9FEF0895F9
:104BA0006115710519F4F0E0E0E011C08530910560
:104BB00081F4E091F305F091F4053097A1F3CB0176
:104BC00001961995009779F3FC0185E08193CF0157
:104BD00008959C01235031092230310520F72AE045
:104BE000289FD001299FB00D1124A950BA4F2D91B3
:104BF0003C911197232BB9F216962D913C91179762
:104C00002617370780F2F89412962D913C9113974E
:104C10002115310529F0ED91FC911197309711F490
:104C20007894C1CF4181528111965C934E9321506B
:104C3000310913963C932E93129781937894C7CFA2
:104C4000EDE9F5E086E5DF011D928A95E9F7E5E5F6
:104C5000F4E088E491E0DF019C011D922150304096
:104C6000E1F71092540410925304E7EFF5E082E369
:104C7000DF011D928A95E9F7E3EFF5E084E0DF01BB
:104C80001D928A95E9F790E080E00895CF93DF9335
:104C9000C091AD02D091AE02CF3FDC0759F4B0D540
:104CA0009093AE028093AD0297FF09C0D093AE02FD
:104CB000C093AD0284EF9FEFDF91CF91089590E014
:104CC00080E0FACF8230910528F48093290690E0A5
:104CD00080E008958FEF9FEF08954F925F926F925B
:104CE0007F92AF92BF92CF92DF92EF92FF920F939B
:104CF0001F93CF93DF931F921F92CDB7DEB71A8217
:104D00001982009709F479C06115710509F475C01D
:104D10002091AD023091AE0207EF1FEF2F3F3F4FC2
:104D200009F445C06B015C01412C512C3201F12C7E
:104D3000E12C10E000E09E012F5F3F4FA6014E19CD
:104D40005F09B5016E0D7F1D8091AD029091AE029D
:104D5000BBD5892B09F04BC089819A81009741F41A
:104D6000E114F10429F420912906222309F442C018
:104D7000E80EF91EEC14FD04D0F480E8481684E82F
:104D800058068EE16806710420F560E070E0CB0102
:104D90000E94DA312AE0420E511C611C711C0A3F4C
:104DA0004FEF140721F0043F8FEF1807A1F4C8015B
:104DB0000F900F90DF91CF911F910F91FF90EF9087
:104DC000DF90CF90BF90AF907F906F905F904F90AB
:104DD000089501EF1FEF81E090E0013F2FEF1207F0
:104DE00011F090E080E0892B09F4A5CFE0CF04EF2B
:104DF0001FEFDDCF0AEF1FEFDACF0FEF1FEFD7CF97
:104E00004F925F926F927F92AF92BF92CF92DF925A
:104E1000EF92FF920F931F93CF93DF931F921F92F6
:104E2000CDB7DEB71A821982009709F479C06115EF
:104E3000710509F475C02091AD023091AE0207EF03
:104E40001FEF2F3F3F4F09F445C06B015C01412C20
:104E5000512C3201F12CE12C10E000E09E012F5F7B
:104E60003F4FA6014E195F09B5016E0D7F1D809160
:104E7000AD029091AE02DBD4892B09F04BC0898141
:104E80009A81009741F4E114F10429F42091290654
:104E9000222309F442C0E80EF91EEC14FD04D0F4FC
:104EA00080E8481686E9580688E96806710420F506
:104EB00060E070E0CB010E94DA312AE0420E511C22
:104EC000611C711C0E3F4FEF140721F0043F8FEF60
:104ED0001807A1F4C8010F900F90DF91CF911F9197
:104EE0000F91FF90EF90DF90CF90BF90AF907F90A9
:104EF0006F905F904F90089502EF1FEF81E090E078
:104F0000023F2FEF120711F090E080E0892B09F4A7
:104F1000A5CFE0CF04EF1FEFDDCF0EEF1FEFDACF0D
:104F20000FEF1FEFD7CF8091AD029091AE028F3F70
:104F3000980749F05DD4892B49F48FEF9FEF909348
:104F4000AE028093AD0290E080E0089584EF9FEF81
:104F50000895FC01680F791F90E080E0E617F707DD
:104F600009F408952191820F911DF8CF20912A060E
:104F7000211113C08BDE009791F41092300610922D
:104F80002F0610922E0610922D0610922C061092CB
:104F90002B0621E020932A06089584EF9FEF0895C1
:104FA000AF92BF92CF92DF92EF92FF920F931F9337
:104FB000CF93DF93009709F460C04630510508F4A1
:104FC0005CC020912A06C7EFDFEF222309F449C015
:104FD0008C01060F171FF801C080D180C114D104C5
:104FE00009F44EC096012A5F3F4F4217530708F459
:104FF00047C07C0180912F06909130069383828375
:10500000B6016C5F7F4F5801A60EB71EC801A1DF25
:10501000F5019183808364E070E0C8015EDEEC01FD
:10502000892BF9F481E090E04DDEB601C8010496C9
:1050300054DEEC01892B91F462E070E0C5014DDE95
:10504000EC01892B59F4C70115DC80912F06909152
:10505000300601969093300680932F0690E080E012
:1050600031DECE01DF91CF911F910F91FF90EF9034
:10507000DF90CF90BF90AF900895CFEFDFEFF1CFEB
:10508000C9EFDFEFEECF6F927F928F929F92AF9238
:10509000BF92CF92DF92EF92FF920F931F93CF9325
:1050A000DF9300D01F92CDB7DEB7009709F47AC026
:1050B0004115510509F476C020912A0607EF1FEF2C
:1050C000222309F44DC03A017B015C0164E070E0E9
:1050D000CE01019695DE8C01892B09F041C0098132
:1050E0001A810115110509F45AC0480186E0880E9D
:1050F000911CB701680D791D8091AF029091B002AB
:105100004FDD6C01009709F450C0A70170E060E02A
:105110000E94433889819A81AB81BC81EC0CFD1CD3
:10512000F70181939193A193B1937F0181E090E086
:10513000C9DDB801C70164DE892B31F562E070E09A
:10514000C701800F911F5CDE8C01892BE9F490E090
:1051500080E0B8DDF501D182C082F30191828082C6
:10516000C8010F900F900F900F90DF91CF911F917A
:105170000F91FF90EF90DF90CF90BF90AF909F90F6
:105180008F907F906F90089590E080E09BDDF50117
:1051900011821082F30111821082C6016BDB09EFCC
:1051A0001FEFDECF0FEF1FEFDBCF06EF1FEFD8CFE4
:1051B0000097A1F04115510589F02115310571F0D5
:1051C000F90136966E177F0748F0DC012D933C936A
:1051D000DA01ED93FC9390E080E008958FEF9FEF6C
:1051E0000895AF92BF92CF92DF92EF92FF920F930A
:1051F0001F93CF93DF93009709F45FC041155105CA
:1052000009F45BC06530710508F457C020912A0687
:10521000C7EFDFEF222391F1DC01CD90DC901197F5
:105220001296ED91FC9196012A5F3F4FC9EFDFEF97
:105230002617370719F5C0912B06D0912C06209719
:1052400049F521E030E030932C0620932B067A01BB
:105250008C01F0932E06E0932D065601B4E0AB0EC0
:10526000B11CB50176DE0A0D1B1DF80120813181CC
:105270008217930729F5D701CD92DC92CE01DF91F9
:10528000CF911F910F91FF90EF90DF90CF90BF9043
:10529000AF90089520912D0630912E062F5F3F4F3D
:1052A000CCEFDFEFE217F30790F2CBEFDFEF2E1733
:1052B0003F0768F2D0E0C0E0CACFCFEFDFEFDECF2C
:1052C000C3EFDFEFDBCF84E090E0089582E090E071
:1052D00008958CEF9FEF089580E290E0089510927A
:1052E000300610922F0610922E0610922D06109264
:1052F0002C0610922B0690E080E008959093B00267
:105300008093AF02089580912A06882391F00BDEE6
:10531000009789F41092300610922F0610922E06F4
:1053200010922D0610922C0610922B0610922A062F
:10533000089590E080E00895009749F061157105A7
:1053400031F0FC0111821082FB011182108208955C
:10535000F3CFCF93DF9380913106909132060E9474
:105360003834EC0180913306909134060E94383431
:105370000197C1F48091350690913606A0913706C9
:10538000B09138062197C1F40196A11DB11D8093FB
:10539000350690933606A0933706B0933806DF9112
:1053A000CF9108958091350690913606A0913706E9
:1053B000B0913806CD2B41F30197A109B109E7CF90
:1053C000CF93DF9380913B0690913C060E94383446
:1053D000EC0180913D0690913E060E943834019781
:1053E000C1F480913F0690914006A0914106B09192
:1053F00042062197C1F40196A11DB11D80933F067D
:1054000090934006A0934106B0934206DF91CF915E
:10541000089580913F0690914006A0914106B09179
:105420004206CD2B41F30197A109B109E7CFCF93F4
:10543000DF9380913D0690913E060E943834EC0146
:1054400080913B0690913C060E9438340197C1F44C
:1054500080913F0690914006A0914106B09142068E
:10546000CD2BC1F40196A11DB11D80933F069093F1
:105470004006A0934106B0934206DF91CF91089574
:1054800080913F0690914006A0914106B09142065E
:10549000219741F30197A109B109E7CFCF93DF939A
:1054A00080913306909134060E943834EC0180914B
:1054B0003106909132060E9438340197C1F48091F0
:1054C000350690913606A0913706B0913806CD2B5F
:1054D000C1F40196A11DB11D809335069093360647
:1054E000A0933706B0933806DF91CF91089580914D
:1054F000350690913606A0913706B091380621976F
:1055000041F30197A109B109E7CF029784319105D1
:1055100040F4875B9C4FFC018081082E000C990BA6
:1055200008958FEF9FEF08950F931F93CF93DF930D
:10553000CDB7DEB78C0120E030E040E85FE3FB014F
:105540006081718182819381F9D2811119C080912A
:10555000350690913606A0913706B0913806F801CD
:1055600080839183A283B38380913F06909140060C
:10557000A0914106B091420684839583A683B783A8
:10558000DF91CF911F910F9108958F929F92AF92CB
:10559000BF92CF92DF92EF92FF920F931F93CF9320
:1055A000DF93CDB7DEB77B015A0120E030E040E861
:1055B0005FE3FB016081718182819381BFD2882387
:1055C00009F48BC0F501808190E0909332068093BE
:1055D0003106F801808190E0909334068093330681
:1055E000F601608171818281938114D370933C06AE
:1055F00060933B06F40160817181828193810AD3BB
:1056000070933E0660933D0680913106909132067C
:1056100060E00E94CF33809133069091340660E0C1
:105620000E94CF3380913B0690913C0660E00E943F
:10563000CF3380913D0690913E0660E00E94CF33CB
:10564000809131069091320661E00E940B34809186
:1056500033069091340661E00E940B3480913B0642
:1056600090913C0661E00E940B3480913D06909140
:105670003E0661E00E940B34809131069091320623
:1056800044DF41E050E06EE47AE253D48091330687
:10569000909134063ADF41E050E069EA79E249D47A
:1056A00080913B0690913C0630DF41E050E067E19D
:1056B0007AE23FD480913D0690913E0626DF41E09C
:1056C00050E060EE79E235D480E090E0A0E8BFE3FE
:1056D000F70180839183A283B383DF91CF911F91E0
:1056E0000F91FF90EF90DF90CF90BF90AF909F9081
:1056F0008F90089540E855E260E070E090E080E02F
:1057000000C08130910579F01CF4892B39F008959F
:105710008230910561F0039771F0089526E082E5EB
:1057200096E00C942A3526E08FEE96E0FACF26E03C
:105730008CE897E0F6CF26E089E298E0F2CF1F925E
:105740000F920FB60F9211240BB60F922F933F9327
:105750004F935F936F937F938F939F93AF93BF9379
:10576000EF93FF938FE89DEF9093250180932401A1
:10577000BFD0FF91EF91BF91AF919F918F917F919A
:105780006F915F914F913F912F910F900BBE0F90B2
:105790000FBE0F901F9018958FE89DEF90932501F5
:1057A00080932401A3E7B0E08C918E7F8C93E0E29C
:1057B000F1E080818C7F8083E1E2F1E08081877E6F
:1057C000808380818460808380818C7F80838C91C2
:1057D00081608C930895E3E7F0E0808190819E7F63
:1057E00090838170089581E0089510924506089590
:1057F00068EE73E080E090E0DDD590E080E0089511
:1058000026E040E050E16EE070E082E596E00E9424
:105810002A3582E596E00E946034892B29F082E5E2
:1058200096E00E947A34F5CF90E080E00895CF9220
:10583000DF92EF92FF920F931F93CF93DF936B0151
:105840007A01E9011982188282E596E00E946034AB
:10585000892B79F18601CC24C39482E0D82E8091E3
:105860004506811111C082E596E00E947A340297C4
:10587000B1F7C0924506F801D1928F0188819981D4
:10588000019699838883EBCF888199818E159F0536
:1058900080F482E596E00E947A348F3F9807A1F366
:1058A000F80181938F01888199810196998388837A
:1058B000EBCF90E080E0DF91CF911F910F91FF90AF
:1058C000EF90DF90CF9008950F931F93CF93DF93C6
:1058D000EA01890182E596E00E94BA37F801D18396
:1058E000C08390E080E0DF91CF911F910F910895E8
:1058F000CF92DF92EF92FF92CF93DF938091460693
:1059000091E0980F90934606882379F021E030E0EB
:10591000309348062093470680934606DF91CF9147
:10592000FF90EF90DF90CF9008957894C091C302DC
:10593000D091C4026E8D7F8D88A199A19CD120E069
:1059400030E040E85FE483D26B017C016A8D7B8D9F
:105950008C8D9D8D90D19B01AC01C701B6018AD081
:105960005ED16B017C010E942607B701A60190E081
:1059700080E00E94D004F894809146068150CCCFFC
:10598000CF93DF9310926A091092690949D5B2DE6C
:10599000C091C302D091C402198218826FEF7FEFC9
:1059A000CB010E944A0570E060E090E080E00E9438
:1059B000D5030097A9F50E94090CF8947894BE01CC
:1059C0006A5D7F4F8A819B810E94D803892B59F49D
:1059D0006FEF7FEFCB010E9465040E94440588238E
:1059E00011F081E08AA7F894D7DE0E944705811163
:1059F00004C00E94440591E0811190E090936909F0
:105A000078940E945614EC01789480916909811170
:105A10000AC00E945A0D0E942B05F89490E080E085
:105A2000DF91CF9108950E9428050E94470591E0DB
:105A3000811106C00E94440591E0811101C090E0EF
:105A400090936A0990916A0981E0911180E08093B6
:105A5000690980916A098111BEDE219729F40E94AB
:105A60005614892B09F4C1DE0E945614EC01BBDEEA
:105A7000CCCF5058BB27AA270ED075C166D130F0C5
:105A80006BD120F031F49F3F11F41EF45BC10EF492
:105A9000E095E7FB51C1E92F77D180F3BA17620790
:105AA00073078407950718F071F49EF58FC10EF403
:105AB000E0950B2EBA2FA02D0B01B90190010C011E
:105AC000CA01A0011124FF27591B99F0593F50F436
:105AD000503E68F11A16F040A22F232F342F44278E
