:1000000005C100000C94462C0C94712C0C949C2C73
:100010000C94C72C0C94F22C0C941D2D0C94482D90
:100020000C94732D24C1000022C1000020C10000E7
:100030001EC100001CC100001AC1000018C1000050
:1000400016C1000014C1000012C1000010C1000060
:100050000EC100000CC100000AC100000C949E2DCE
:1000600006C100000C949A310C94D03100C10000FC
:10007000FEC00000FCC00000FAC00000F8C0000094
:10008000F6C00000F4C00000F2C00000F0C00000A4
:100090000C9426320C945C32EAC00000E8C00000E8
:1000A000E6C00000E4C00000E2C00000E0C00000C4
:1000B000DEC00000DCC00000DAC00000D8C00000D4
:1000C000D6C00000D4C000000C9483280C94B23237
:1000D0000C94E832CCC000000C943E330C94743382
:1000E000C6C0000000000A0B02090C0D0E08070331
:1000F00004010000000000000000000000000000FB
:1001000000000000000000000000000000000000EF
:1001100012111000000000000000000000000000AC
:100120000000000000000000000001021020200874
:100130000810204010204080020102010804020142
:1001400001020408102040808040201008040201B1
:10015000800402018040201008040201080402010A
:100160000102040810204080010204081020408091
:1001700005050505070508080808020202020A0A23
:100180000808040404040101010101010101030341
:10019000030303030303040707070C0C0C0C0C0CEC
:1001A0000C0C0202020206060606060606060B0BE9
:1001B0000B0B0B0B0B0B000020002300260029006B
:1001C0002C002F003200000100000301060109018C
:1001D00000002200250028002B002E0031003400F2
:1001E00002010000050108010B01000021002400AC
:1001F00027002A002D003000330001010000040117
:1002000007010A01F931853211339D3311241FBED4
:10021000CFEFD1E2DEBFCDBF00E00CBF13E0A0E026
:10022000B2E0EAE9F8E600E00BBF02C007900D92E9
:10023000A436B107D9F729E0A4E6B3E001C01D92C6
:10024000A733B207E1F711E0C6E0D1E000E006C055
:1002500021970109802FFE010E941A34C230D10774
:1002600080E00807A9F70E949F290C944B34C8CE60
:10027000CF92DF92EF92FF92CF93882351F16A01E0
:100280007B01CFEFC80F20E030E0A901CB01B60120
:100290000E947D2A87FF11C0C701B60190580E94B5
:1002A000862A9B01AC016C2F70E090E080E0CF913A
:1002B000FF90EF90DF90CF90B2C0C701B6010E94CF
:1002C000812A8C2FCF91FF90EF90DF90CF900C94EC
:1002D000A52ECF91FF90EF90DF90CF9008950F93D0
:1002E0001F938B019C0183E0369527951795079501
:1002F0008A95D1F70C591C4F462F477021E030E00A
:10030000F90102C0EE0FFF1F4A95E2F7AF01F801B5
:1003100020812423CB010196211102C090E080E0CE
:100320001F910F9108950F931F938B019C0183E000
:1003300036952795179507958A95D1F7677081E0CF
:1003400090E001C0880F6A95EAF7F801EC59FC4F7C
:100350002081452B31F48095822380831F910F915A
:100360000895822BFACF2F923F924F925F926F9215
:100370007F928F929F92AF92BF92CF92DF92EF9235
:10038000FF920F931F93CF93DF93D62EC72E782E15
:10039000692E49015A01280161E08D2D0E94DF2F4D
:1003A000CD2DDC2D8E010F5F1F4FA8016D2D7C2DF3
:1003B000872D962DB8DF20E030E0A901C201B701FA
:1003C0000E94642B181664F4C201B7010E94862AA9
:1003D0002B01C501B4010E94862AA201CE0123D0BF
:1003E000C801DF91CF911F910F91FF90EF90DF90A7
:1003F000CF90BF90AF909F908F907F906F905F90C5
:100400004F903F902F900895882341F08150682F9E
:1004100070E090E080E050E040E085CF0895862FC6
:10042000B9010C94A52E9C01FC01EC51FF4FE49105
:10043000E150E231E0F4F0E08827EE5DFD4F8F4FB0
:100440000C941A3434023B023E0255026A0237020F
:100450007F028B028F02A602BB02D002E702FC02DF
:100460003702110328033D0384B5806884BD60E032
:10047000822F0C941B3084B58062F8CF809180006D
:100480008C7F82608093800080918100807E80617B
:10049000682B609381005093870040938600809181
:1004A0008000806880938000E2CF809180008C7F04
:1004B00082608093800080918100807E8061682BC3
:1004C0006093810050938700409386008091800064
:1004D0008062E8CF809180008C7F82608093800072
:1004E00080918100807E8061682B609381005093B1
:1004F000870040938600809180008860D3CF8091F0
:10050000B00080688093B0008091B100887F682B34
:100510006093B100ACCF8091B0008062F3CF809146
:1005200090008C7F82608093900080919100807E0B
:100530008061682B609391005093970040939600E0
:100540008091900080688093900091CF809190007E
:100550008C7F82608093900080919100807E80618A
:10056000682B609391005093970040939600809180
:1005700090008062E8CF809190008C7F82608093B1
:10058000900080919100807E8061682B6093910043
:100590005093970040939600809190008860D3CF4D
:1005A0008091A0008C7F82608093A0008091A10048
:1005B000807E8061682B6093A1005093A7004093D8
:1005C000A6008091A00080688093A00050CF809109
:1005D000A0008C7F82608093A0008091A100807E2B
:1005E0008061682B6093A1005093A7004093A60000
:1005F0008091A0008062E8CF8091A0008C7F826013
:100600008093A0008091A100807E8061682B609320
:10061000A1005093A7004093A6008091A00088609D
:10062000D3CF809120018C7F8260809320018091C4
:100630002101807E8061682B609321015093270106
:1006400040932601809120018068809320010FCF84
:10065000809120018C7F8260809320018091210114
:10066000807E8061682B6093210150932701409325
:100670002601809120018062E8CF809120018C7F4B
:1006800082608093200180912101807E8061682BAF
:10069000609321015093270140932601809120010E
:1006A0008860D3CF90E080E008950F931F93009768
:1006B00009F485C06115710509F481C000918A02B1
:1006C00010918B0220918C0230918D020E3F1F4FB2
:1006D0002F4F3F4F09F064C04FEF5FEFBA014093D7
:1006E0008A0250938B0260938C0270938D0240912A
:1006F0008A0250918B0260918C0270918D02DC0114
:100700001296ED91FC9180819181A281B3818093B9
:10071000D9039093DA03A093DB03B093DC038481C5
:100720009581A681B7818093D5039093D603A0933A
:10073000D703B093D80380859185A285B385809334
:10074000D1039093D203A093D303B093D4038485B1
:100750009585A685B7858093CD039093CE03A0930E
:10076000CF03B093D0031092C9031092CA03109222
:10077000CB031092CC030E94320D87E59DE090934D
:100780006E0380936D030E94310C009731F421E0D9
:1007900030E03093DE032093DD031F910F91089525
:1007A00000918A0210918B0220918C0230918D026F
:1007B000DB010D931D932D933C93139798CF8FEFEF
:1007C0009FEFEBCF8F929F92AF92BF92CF92DF922B
:1007D000EF92FF921F93CF93DF934B015C01109137
:1007E000E00382E090E09093DE038093DD038114C8
:1007F0009104A104B10441F48091E003811104C08B
:100800008091DF03C1E08111C0E0C12CD12C7601C1
:100810008091E003811106C08091DF03811102C045
:10082000CC23D9F083E090E09093DE038093DD0346
:10083000CC2381F1CCE9DFEF111102C00E94BB1083
:10084000CE01DF91CF911F91FF90EF90DF90CF907D
:10085000BF90AF909F908F9008956AE070E080E025
:1008600090E00E940D2E80E1C80E87E2D81EE11CA8
:10087000F11C8FEF88169806A806B80631F0C1E083
:100880008C149D04AE04BF0408F0C0E080E00E9418
:100890005D0CBECFD0E0C0E0CFCFCF92DF92EF9221
:1008A000FF921F93CF93DF938F3F910511F008F0D4
:1008B00041C02091DD033091DE032330310539F052
:1008C0002091DD033091DE032130310531F424E045
:1008D00030E03093DE032093DD036A017B01EC01FD
:1008E000892BA9F011E0AE01C701B601B9D7AB0160
:1008F000BC0190E080E01123F9F0CE01DF91CF91AF
:100900001F91FF90EF90DF90CF900C94D0128091C8
:100910006D0390916E03892B29F30E94D7120297E1
:1009200009F7E0916D03F0916E0390E080E0199576
:10093000182FD9CF8FEF9FEFDF91CF911F91FF90AD
:10094000EF90DF90CF90089580E0B7C7CF93DF930B
:1009500086E090E09093DE038093DD030E94B60C66
:10096000EC0110926E0310926D030E9453101092CE
:10097000DE031092DD03CE01DF91CF9108958091C7
:10098000DF0308958091C803089560938A027093ED
:100990008B0280938C0290938D0290E080E008950A
:1009A0004F925F926F927F928F929F92AF92BF927F
:1009B000CF92DF92EF92FF920F931F93CF93DF932B
:1009C000CDB7DEB72E970FB6F894DEBF0FBECDBF02
:1009D0001F9281E08F9348E3842E42E0942EAA2454
:1009E000A394B12C64E3C62E62E0D62EEE24E394E9
:1009F000F12C09E812E021E030E048E852E06FEF26
:100A000078E087ED98E00E947D2780903C029090EE
:100A10003D02A0903E02B0903F026091D7087091D5
:100A2000D8088091D9089091DA080E94B42AA501CB
:100A300094010E94682B6093AF087093B008809374
:100A4000B1089093B20840904002509041026090EB
:100A5000420270904302A30192010E94682B6983B5
:100A60007A838B839C832091030930910409409100
:100A70000509509106090E94182A6093B7087093DF
:100A8000B8088093B9089093BA0820911B09309157
:100A90001C0940911D0950911E09609144027091FA
:100AA000450280914602909147020E94182A6B01EC
:100AB0007C01C092BF08D092C008E092C108F092B9
:100AC000C2086091DB087091DC088091DD0890918C
:100AD000DE080E94B42AA50194010E94682B9B01A4
:100AE000AC012093B3083093B4084093B5085093F9
:100AF000B608C301B2010E94682B6D837E838F8389
:100B0000988720910709309108094091090950916F
:100B10000A090E94182A6093BB087093BC0880934E
:100B2000BD089093BE0820911F0930912009409183
:100B300021095091220960914802709149028091E7
:100B40004A0290914B020E94182A4B015C0180924C
:100B5000C3089092C408A092C508B092C60820911C
:100B60000002309101024091020250910302C7013C
:100B7000B6010E94682B20910F0930911009409115
:100B80001109509112090E94182A209124023091D3
:100B9000250240912602509127020E94682B2B01CA
:100BA0003C0120912C0230912D0240912E02509157
:100BB0002F02C701B6010E94682B20910B093091CA
:100BC0000C0940910D0950910E090E94192AA301A8
:100BD00092010E94192A6B017C01C092C708D09231
:100BE000C808E092C908F092CA0820910402309126
:100BF00005024091060250910702C501B4010E940E
:100C0000682B2091170930911809409119095091CA
:100C10001A090E94182A2091280230912902409135
:100C20002A0250912B020E94682B69877A878B8752
:100C30009C872091300230913102409132025091D4
:100C40003302C501B4010E94682B20911309309131
:100C5000140940911509509116090E94192A2985F5
:100C60003A854B855C850E94192A6093CB08709366
:100C7000CC088093CD089093CE08C092CF08D09234
:100C8000D008E092D108F092D2086093D308709314
:100C9000D4088093D5089093D6086AE070E080E08D
:100CA00090E01DDB6C019093EE088093ED0820919D
:100CB000CB083091CC084091CD085091CE0860917E
:100CC00060027091610280916202909163020E94C1
:100CD000682B4B015C01E0906402F090650280910A
:100CE00066028E87909167029D870F900F90940106
:100CF000A501B7010E947D2A87FD15C0E09068021A
:100D0000F0906902A0916A02AE87B0916B02BD8734
:100D10009401A501B701CD010E94642B18161CF0A7
:100D20007401AE86BD8620E030E04FE753E4B701A2
:100D30008E859D850E947D2A18160CF48FC220E0B6
:100D400030E0A901B7018E859D850E94642B87FF45
:100D500004C0E12CF12C1E861D86A7016E857D85C1
:100D6000C60186DA6BE070E080E090E0B8DA6C01F2
:100D70009093E6088093E5088090CB089090CC088B
:100D8000A090CD08B090CE08E0906C02F0906D027B
:100D9000A0916E02AE87B0916F02BD879701AD0141
:100DA000B401C5010E94642B1816ACF0E0907002EB
:100DB000F0907102809172028E87909173029D87EC
:100DC0009701AC01B401C5010E947D2A87FD03C0D3
:100DD0007401AE86BD8620E030E04FE753E4B701F2
:100DE0008E859D850E947D2A18160CF43EC220E057
:100DF00030E0A901B7018E859D850E94642B87FF95
:100E000004C0E12CF12C1E861D86A7016E857D8510
:100E1000C6012EDA68E070E080E090E060DA6C01F4
:100E20009093FE088093FD082091C7083091C80870
:100E30004091C9085091CA0860917402709175027E
:100E400080917602909177020E94682B4B015C01A1
:100E5000E0907802F090790280917A028E879091EA
:100E60007B029D879401A501B7010E947D2A87FD21
:100E700015C0E0907C02F0907D02A0917E02AE87CA
:100E8000B0917F02BD879401A501B701CD010E94F9
:100E9000642B18161CF07401AE86BD8620E030E08D
:100EA0004FE753E4B7018E859D850E947D2A181671
:100EB0000CF4E2C120E030E0A901B7018E859D85E8
:100EC0000E94642B87FF04C0E12CF12C1E861D8636
:100ED000A7016E857D85C601CBD969E070E080E011
:100EE00090E0FDD96C019093F6088093F50880900E
:100EF000C7089090C808A090C908B090CA08E090B0
:100F00008002F0908102A0918202AE87B0918302AC
:100F1000BD879701AD01B401C5010E94642B18166D
:100F2000ACF0E0908402F0908502809186028E877A
:100F3000909187029D879701AC01B401C5010E9481
:100F40007D2A87FD03C07401AE86BD8620E030E0B7
:100F50004FE753E4B7018E859D850E947D2A1816C0
:100F60000CF491C120E030E0A901B7018E859D8588
:100F70000E94642B87FF04C0E12CF12C1E861D8685
:100F8000A7016E857D85C60173D91F9281E08F937D
:100F900088E3882E82E0982EAA24A394B12C24E31F
:100FA000C22E22E0D22EEE24E394F12C09E812E0C6
:100FB00021E030E048E852E06FEF78E087ED98E01C
:100FC0000E94AE2789819A81AB81BC8180930309FD
:100FD00090930409A0930509B09306098091B7087E
:100FE0009091B808A091B908B091BA0880931B09F4
:100FF00090931C09A0931D09B0931E098D819E81B9
:10100000AF81B8858093070990930809A0930909D7
:10101000B0930A098091BB089091BC08A091BD08CB
:10102000B091BE0880931F0990932009A0932109D5
:10103000B09322092091BF083091C0084091C108A7
:101040005091C20860910C0270910D0280910E02C5
:1010500090910F020E94682B209150023091510212
:1010600040915202509153020E94682B20910B092B
:1010700030910C0940910D0950910E090E94192AD6
:1010800060930B0970930C0980930D0990930E09DE
:1010900020915402309155024091560250915702CE
:1010A000C301B2010E94682B20910F0930911009F1
:1010B00040911109509112090E94192A60930F0959
:1010C0007093100980931109909312092091C3081D
:1010D0003091C4084091C5085091C608609108023B
:1010E0007091090280910A0290910B020E94682B74
:1010F000209158023091590240915A0250915B025E
:101100000E94682B20911309309114094091150910
:10111000509116090E94192A6093130970931409BB
:10112000809315099093160920915C0230915D021D
:1011300040915E0250915F0269857A858B859C851E
:101140000E94682B209117093091180940911909C4
:1011500050911A090E94192A60931709709318096F
:101160008093190990931A09C0909F03D090A0030F
:10117000E090A103F090A2039FEFC91AD90AE90AEF
:10118000F90AC0929F03D092A003E092A103F092CB
:10119000A2030F900F90C114D104E104F10499F45B
:1011A0008091A3039091A403A091A503B091A603FD
:1011B0000196A11DB11D8093A3039093A403A09356
:1011C000A503B093A6038090A7039090A803A090D6
:1011D000A903B090AA036091A3037091A403809126
:1011E000A5039091A6030E94B22AA50194010E9432
:1011F000682B20E030E040E85FE40E94682B2B0180
:101200003C01C701B6010E94B22AA50194010E94C7
:10121000682B9B01AC01C301B2010E94192A6093A3
:101220009B0370939C0380939D0390939E032E9643
:101230000FB6F894DEBF0FBECDBFDF91CF911F91E7
:101240000F91FF90EF90DF90CF90BF90AF909F9065
:101250008F907F906F905F904F900895E12CF12CCC
:101260008FE78E8793E49D8778CDE12CF12CAFE753
:10127000AE87B3E4BD87C9CDE12CF12C8FE78E8713
:1012800093E49D8725CEE12CF12CAFE7AE87B3E444
:10129000BD8776CE8F929F92AF92BF92DF92EF92F0
:1012A000FF920F931F93CF93DF93E5E8F3E08BE278
:1012B000DF011D928A95E9F780E090E0A0E8BFEB9E
:1012C00086A397A3A0A7B1A78AE097EDA3E2BCE30A
:1012D00082A393A3A4A3B5A385EC92E4AAE7B4EDFB
:1012E00084839583A683B7838AE398EAAAEBB4E95B
:1012F00080879187A287B3878FE295E5ABE0BAE557
:1013000084879587A687B78783E597E3ACECBFEA28
:10131000808B918BA28BB38BA9E7B3E0B383A283BD
:10132000EFE6F3E01196FC93EE9387EB92E0918366
:101330008083938382839583848397838683918735
:10134000808789E993E015969C938E93149789E89A
:1013500093E013969C938E9312978BE993E01796E4
:101360009C938E931697EFEAF8E080E3DF011D92DD
:101370008A95E9F7CFEDD8E086E5FE0111928A95CE
:10138000E9F7DD24D394D0923209812C912C5401B9
:10139000839489869A86AB86BC86E12CF12C8701E2
:1013A000A80197016AE070E080E090E00E94B3013C
:1013B0009F878E87DD861882D09231091D828982AF
:1013C0009A82AB82BC82A80197016BE070E080E05A
:1013D00090E00E94B3019F838E83DD82188ED092AD
:1013E00034091D8E898E9A8EAB8EBC8EA801970112
:1013F00068E070E080E090E00E94B3019F8F8E8FE4
:10140000DD8E188AD09233091D8A898A9A8AAB8A1E
:10141000BC8AA801970169E070E080E090E00E943A
:10142000B3019F8B8E8BDD8AE8A2F9A20AA31BA3CE
:10143000E0E0F2E040895189628973894CA35DA3A1
:101440006EA37FA380914C0290914D02A0914E0219
:10145000B0914F028CAF9DAFAEAFBFAF48A759A7B9
:101460006AA77BA780931F0990932009A093210965
:10147000B0932209848D958DA68DB78D8CA79DA7DD
:10148000AEA7BFA784899589A689B78988AB99AB90
:10149000AAABBBAB80A191A1A2A1B3A18CAB9DAB28
:1014A000AEABBFAB808D918DA28DB38D88AF99AF60
:1014B000AAAFBBAFDF91CF911F910F91FF90EF903B
:1014C000DF90BF90AF909F908F9008958091E70834
:1014D00081112EC081E08093E7088091E808909107
:1014E000E908A091EA08B091EB080197A105B105C0
:1014F000F9F48091EC088823D9F06AE070E080E08C
:1015000090E00E946F019093EE088093ED0840E018
:1015100050E0BA010E9438016AE070E080E090E09B
:101520000E946F019093EE088093ED080E940402E0
:101530008091DF0881112EC081E08093DF088091C7
:10154000E0089091E108A091E208B091E3080197CA
:10155000A105B105F9F48091E4088823D9F06BE086
:1015600070E080E090E00E946F019093E608809325
:10157000E50840E050E0BA010E9438016BE070E0FD
:1015800080E090E00E946F019093E6088093E50868
:101590000E9404028091F70881112EC081E080939F
:1015A000F7088091F8089091F908A091FA08B09195
:1015B000FB080197A105B105F9F48091FC08882387
:1015C000D9F068E070E080E090E00E946F019093B5
:1015D000FE088093FD0840E050E0BA010E94380107
:1015E00068E070E080E090E00E946F019093FE0858
:1015F0008093FD080E9404028091EF0881112EC0A3
:1016000081E08093EF088091F0089091F108A0911B
:10161000F208B091F3080197A105B105F9F48091A2
:10162000F4088823D9F069E070E080E090E00E943F
:101630006F019093F6088093F50840E050E0BA01FE
:101640000E94380169E070E080E090E00E946F0144
:101650009093F6088093F5080C94040208954F9235
:101660005F926F927F928F929F92AF92BF92CF9232
:10167000DF92EF92FF920F931F93F8944090BC0378
:101680005090BD036090BE037090BF03C090B00344
:10169000D090B103E090B203F090B303452B09F072
:1016A000A4C09B01AC012419350946095709290139
:1016B0003A010091B8031091B9032091BA03309117
:1016C000BB0348015901840C951CA61CB71C80164D
:1016D0009106A206B306A0F40091B4031091B503DD
:1016E0002091B6033091B7030F5F1F4F2F4F3F4F2D
:1016F0000093B4031093B5032093B6033093B7035C
:101700008092B8039092B903A092BA03B092BB033F
:101710000091B4031091B5032091B6033091B70343
:101720008092C0039092C103A092C203B092C303FF
:101730000093C4031093C5032093C6033093C703DB
:101740006093BC037093BD038093BE039093BF036B
:10175000A0E1B7E2A30192010E9422346C0D7D1D2D
:101760008E1D9F1D6093B0037093B1038093B203ED
:101770009093B30300918A0210918B0220918C0206
:1017800030918D020F3F1F4F2F4F3F4FF1F00091CF
:101790008A0210918B0220918C0230918D020E3FB3
:1017A0001F4F2F4F3F4F89F0C0908A02D0908B027D
:1017B000E0908C02F0908D0221E08C149D04AE0428
:1017C000BF0408F420E02093C80378941F910F9180
:1017D000FF90EF90DF90CF90BF90AF909F908F9051
:1017E0007F906F905F904F9008954B015C0184183B
:1017F0009508A608B708A3019201261B370B480BD2
:10180000590B6415750586059705D0F08216930669
:10181000A406B50640F420E030E0A901811491044B
:10182000A104B10491F4A0E1B7E20E942234A7011F
:101830009601261B370B480B590BCA01B901C5CFBE
:1018400082169306A406B50670F7A0E1B7E2A501DB
:1018500094010E9422346C0D7D1D8E1D9F1DB5CFFD
:10186000FECECF93DF9300D01F92CDB7DEB71C82A0
:101870001B821A821982BE016F5F7F4FCE010396D1
:101880000E94852669817A818B819C810E94B81F84
:10189000009761F4BE016F5F7F4FCE0103960E94F7
:1018A000912669817A818B819C8126D50F900F903A
:1018B0000F900F90DF91CF910895FF920F931F9398
:1018C000CF93DF93082F60E070E0CB010E940D2ED4
:1018D000FF24F3940E94A11EEC01892B89F010E0F3
:1018E000CE3F8FEFD80769F0002361F160E070E030
:1018F000CB010E940D2E81E090E0892B59F322C08C
:1019000011E01DD5EC01892B21F0CE3F8FEFD807D8
:1019100059F711111EC011E0229609F410E00E943F
:10192000511EEC01892B21F0CE3F8FEFD807E1F655
:10193000111111C011E0CE3F8FEFD80709F410E06C
:1019400001110BC0CE01DF91CF911F910F91FF903C
:10195000089511E0E4CF11E0F3CF60E070E0CB0137
:101960000E940D2E1F25812F90E0C7CFCF93DF93CC
:101970001ED6D0E0C0E0892B71F06AE070E080E014
:1019800090E00E940D2E81E098DF11D62196C03D97
:1019900027E0D20781F710D60E940C201092E003B6
:1019A0001092DF031092D9031092DA031092DB0336
:1019B0001092DC031092D5031092D6031092D70335
:1019C0001092D8031092D1031092D2031092D30335
:1019D0001092D4031092CD031092CE031092CF0335
:1019E0001092D0031092C9031092CA031092CB0335
:1019F0001092CC034EEF5FEF6FEF7FEF40938A02C0
:101A000050938B0260938C0270938D021092C803E6
:101A1000E0ECF3E028E0DF011D922A95E9F710924F
:101A2000BC031092BD031092BE031092BF0310922C
:101A3000B8031092B9031092BA031092BB0310922C
:101A4000B4031092B5031092B6031092B70310922C
:101A5000B0031092B1031092B2031092B303DF915E
:101A6000CF9108951092EC031092ED031092EE03C3
:101A70001092EF031092EB038091F4039091F50321
:101A80009093EA038093E9031092E8031092E7032E
:101A90001092E3031092E4031092E5031092E60320
:101AA0001092F1031092F00390E080E00895CF923D
:101AB000DF92EF92FF920F931F93CF938C01892BAC
:101AC00009F055C02091F4033091F5038091E903AA
:101AD0009091EA034091F4035091F5035093EA0387
:101AE0004093E9032817390781F01092E803109218
:101AF000E7031092E3031092E4031092E5031092BF
:101B0000E6031092F1031092F0038091F403909198
:101B1000F503019761F58091F0039091F103892B12
:101B200021F480918E02811112C08091F003909176
:101B3000F1030197E1F48091E3039091E403A09114
:101B4000E503B091E6030197A105B10581F4109278
:101B5000E3031092E4031092E5031092E60310925F
:101B60008E0282E090E09093F1038093F0038091E5
:101B7000F4039091F503019709F01CC180910A04C8
:101B800090910B048017910709F014C1809106040D
:101B900090910704A0910804B0910904009709F4FA
:101BA00009C12091050421110DC0409106045091F6
:101BB00007046091080470910904452B462B472BBC
:101BC00009F4F8C02091F0033091F103223031057F
:101BD00009F0F0C02091E7032111ECC0FC01C080A6
:101BE000D180E280F3808091EB03882309F4D3C095
:101BF0008091F7039091F803892B09F4FDC020919F
:101C0000F7033091F80381E02230310509F080E0DC
:101C10002091F7033091F803C1E02130310549F0FC
:101C20002091F7033091F803C1E02230310509F02B
:101C3000C0E0882309F456C02091010430910204C9
:101C40004091030450910404C701B6010E94642B23
:101C500087FD14C0209101043091020440910304D7
:101C6000509104046091EC037091ED038091EE03B8
:101C70009091EF030E947D2A87FD22C020910104EC
:101C8000309102044091030450910404C701B6014D
:101C90000E94642B181634F520910104309102043F
:101CA00040910304509104046091EC037091ED03A2
:101CB0008091EE039091EF030E947D2A811112C062
:101CC0008091F9039091FA03A091FB03B091FC037A
:101CD000892B8A2B8B2B19F481E08093E80381E018
:101CE0008093E703CC2309F456C02091010430917E
:101CF00002044091030450910404C701B6010E94FC
:101D00007D2A87FF14C02091010430910204409184
:101D10000304509104046091EC037091ED038091F1
:101D2000EE039091EF030E94642B87FF22C0209165
:101D30000104309102044091030450910404C7014E
:101D4000B6010E947D2A811126C0209101043091A4
:101D5000020440910304509104046091EC037091DB
:101D6000ED038091EE039091EF030E94642B18160F
:101D700094F48091F9039091FA03A091FB03B09140
:101D8000FC03892B8A2B8B2B19F481E08093E803C9
:101D900081E08093E70381E09091E703911180E077
:101DA0008093EB03C092EC03D092ED03E092EE033C
:101DB000F092EF03012B09F067C18091F00390913D
:101DC000F103892BD9F41092F6031092E703809166
:101DD0008E02882379F082E090E09093F103809363
:101DE000F00310928E022091F4033091F50381E00C
:101DF000232BE9F080E01BC081E00ACF10928E0215
:101E00008091F603882349F01092E8031092F103C1
:101E10001092F0031092F603EDCF8091F4039091AD
:101E2000F503892BE1F08091E7031092E7032091FD
:101E3000F0033091F1032230310509F45EC088F4DB
:101E40002115310509F448C02130310509F4F3C0EA
:101E50001092E8031092E7031092F60338C081E075
:101E6000E6CF2330310509F4B1C02430310581F7C4
:101E70004091E3035091E4036091E5037091E60320
:101E8000411551056105710561F041505109610924
:101E900071094093E3035093E4036093E503709367
:101EA000E6034091E3035091E4036091E5037091F0
:101EB000E603452B462B472BD9F42091F2033091B2
:101EC000F3032130310509F046C01092E803109267
:101ED000F1031092F0030CC080918E02882341F030
:101EE00082E090E09093F1038093F00310928E02D1
:101EF0001092E1038091E803CEC08823C9F380915A
:101F0000F9039091FA03A091FB03B091FC0318161A
:101F100019061A061B060CF07DC08091F4039091FF
:101F2000F503019709F076C08091F9039091FA03C7
:101F3000A091FB03B091FC038093E3039093E4032F
:101F4000A093E503B093E60383E090E09093F10360
:101F50008093F003CDCF4091FD035091FE0360913B
:101F6000FF0370910004452B462B472BA9F01092DC
:101F7000E8038091FD039091FE03A091FF03B091CF
:101F800000048093E3039093E403A093E503B093EC
:101F9000E60381E090E0DACF882399F080918F0208
:101FA00090919002A0919102B09192028093E303EC
:101FB0009093E403A093E503B093E60384E090E0FC
:101FC000C5CF1092E80382E090E0C0CF8091E30398
:101FD0009091E403A091E503B091E6030097A10579
:101FE000B10559F00197A109B1098093E3039093DA
:101FF000E403A093E503B093E6038091E30390919B
:10200000E403A091E503B091E603892B8A2B8B2B87
:1020100009F06ECF80918F0290919002A091910271
:10202000B0919202892B8A2B8B2B09F44ECF81E041
:102030008093E803B3CF4091E3035091E4036091B0
:10204000E5037091E603411551056105710561F0E5
:1020500041505109610971094093E3035093E4032E
:102060006093E5037093E6034091E3035091E4032A
:102070006091E5037091E603452B462B472B09F051
:1020800037CF8111C7CF9FCF8091E103882309F417
:1020900031CF8091E203CF911F910F91FF90EF908C
:1020A000DF90CF9008951092EC031092ED03109200
:1020B000EE031092EF031092EB031092F1031092D3
:1020C000F0031092EA031092E90310920B041092AD
:1020D0000A041092E8031092E7031092E3031092AF
:1020E000E4031092E5031092E6031092E2031092CB
:1020F000E103109206041092070410920804109253
:102100000904109205041092010410920204109226
:1021100003041092040488EE93E0A0E0B0E0809302
:102120008F0290939002A0939102B093920210922A
:10213000FD031092FE031092FF0310920004109210
:10214000F9031092FA031092FB031092FC03109211
:10215000F8031092F70381E080938E021092F60349
:102160001092F5031092F4031092F3031092F2030D
:1021700090E080E008958091F4039091F503892B1D
:1021800019F580918E02882351F08091F603811118
:1021900006C081E08093E2038093E10308952091DB
:1021A000F60330918E0281E090E0332311F090E04D
:1021B00080E030E082239323892B21F01092E20308
:1021C00081E0EACF1092E103089582E090E0FA0105
:1021D000918380838FEF9FEF0895CF93DF93EA0180
:1021E000009711F00E9423211982188290E080E06C
:1021F000DF91CF910895DB01009719F48FEF8C9355
:1022000008952EEF2C93FC013F96EF30F10508F076
:1022100034C08827E15FFE4E8F4F0C941A343B1177
:1022200039113711351133112F1131112D112B1196
:102230002911261122111E1124113D1180E311963E
:102240008C93089589E2FBCF82E2F9CF11961C921C
:10225000089583E2F4CF81E2F2CF81E1F0CF87E20B
:10226000EECF8AE2ECCF80E1EACF84E2E8CF88E2E9
:10227000E6CF86E2E4CF81E3E2CF80E2E0CF809157
:1022800018049091190408959093190480931804E8
:10229000089580911704089590911704892B8093D5
:1022A00017040895982F909580911704892380939F
:1022B0001704089580911604089580911404909154
:1022C000150408956115710559F0FB0130E020E017
:1022D00070E060E02417350719F06115710511F001
:1022E000CB010895A081B181A817B90709F4BF01F6
:1022F0002F5F3F4F3696EECF80911A0481111CC09C
:1023000041D247D290930D0480930C040E94941AFA
:102310000E94A61A90931104809310040E94B91D84
:102320000E94C01D90930F0480930E0481E080935F
:102330001A0490E080E0089584EF9FEF08958F9253
:102340009F92AF92BF92CF92DF92EF92FF920F9344
:102350001F93CF93DF9300D000D000D01F92CDB752
:10236000DEB71A86198618861F821E821D821C827D
:102370001B821A82198280911A0407EF1FEF8823AB
:1023800009F48BC08E010D5F1F4F9E012B5F3F4FE5
:10239000AE01495F5F4FBE01675F7F4F90E080E015
:1023A0000E943D1F8C01009721F00596029708F0CE
:1023B000C7C089859A85009709F4EFC0ED80FE803B
:1023C0002B813C812E0D3F1D4F81588542175307AD
:1023D00008F4E3C0E80EF91ED7014C9120911804CF
:1023E00030911904232B09F494C0413F08F069C0CF
:1023F0008CE1840F8D3008F483C08DE2840F80312E
:1024000008F481C088E3840F8B3008F47FC09BEF11
:10241000C92E90E1D92EE5EEF0E16D817E81AE010D
:102420004F5F5F4F89859A8519955C01C114D1046E
:10243000A1F189809A808114910479F18B819C812A
:102440008815990508F484C010E000E04B815C8198
:1024500070E060E0C7010E94443401151105E9F401
:1024600049815A8169857A858D819E81680F791F9E
:10247000C501F6011995E980FA800D811E812F8131
:10248000388549855A856FEF7FEF81E090E00E94A3
:10249000D81E8C01892B09F053C0C8012A960FB6AB
:1024A000F894DEBF0FBECDBFDF91CF911F910F918A
:1024B000FF90EF90DF90CF90BF90AF909F908F9064
:1024C000089530E020E0220F331FF901E45FFB4F55
:1024D0000190F081E02D309709F499CF842F90E09E
:1024E0001995009709F493CFDC011296ED91FC91B8
:1024F00013971496CD90DC90309709F08ECF1EC0C4
:1025000021E030E0E0CF22E030E0DDCF23E030E03A
:10251000DACFD12CC12CEDEEF0E14F3F09F07DCFA9
:10252000E0910C04F0910D04309719F404EF1FEFC3
:102530000CC08FEF90E019950097B1F604EF1FEFF4
:1025400089859A85009709F4A8CF0E942321A5CFF9
:102550000E9407208C0189859A850E94232170E0C2
:1025600060E0C4010E94A01F98878F830E94D51E3F
:102570009E838D836F8178856115710559F0C8013F
:102580000E94B9229A87898706EF1FEF892B09F0ED
:102590005BCF5CCF08EF1FEF59CF08EF1FEFD0CF15
:1025A00020911A042111D7C787EF9FEF08958091DA
:1025B00018049091190408950E94C51D0E941F1DC2
:1025C000EDD0ECE0F4E088E0DF011D928A95E9F7B8
:1025D00010921A0490E080E0089586E090E0FA01FD
:1025E0009183808390E080E0089547E050E06AEBBB
:1025F00072E068CEDF92EF92FF920F931F93CF931A
:10260000DF938A01EC01C60FD71FE0901E04F09003
:102610001F04D9800E94EF1FD816190678F082E0B7
:1026200090E0F801918380838EEF9FEFDF91CF914F
:102630001F910F91FF90EF90DF900895EF2841F4E4
:1026400082E090E0F8019183808384EF9FEFEECFEA
:10265000898180931D0490E00196F8019183808325
:1026600090E080E0E3CFCF93DF93EA010E94331C38
:10267000882321F00E94FC1F0E94341C82E090E01D
:10268000998388838BEF9FEFDF91CF910895CF934C
:10269000DF93EB0186E0FB0111928A95E9F78FEF5A
:1026A0008883F7DD898306DE8A8307DE9D838C833A
:1026B000DF91CF910895CF93DF93EA010E94361CFA
:1026C000811109C082E090E09983888385EF9FEFB4
:1026D000DF91CF91089590E080E0D6DD81E090E039
:1026E0009983888390E080E0F3CF0F931F93CF937B
:1026F000DF93EA018C01060F171F0E94361C81111F
:102700000BC082E090E09983888385EF9FEFDF9193
:10271000CF911F910F910895F8018181823038F097
:1027200082E090E0998388838EEF9FEFF0CF81E085
:1027300090E0AADD88E090E09983888390E080E0D3
:10274000E6CFCF93DF930097D1F4EB01FB013296F4
:1027500086E0DF011D928A95E9F78FEF888385E097
:1027600089831A820E94EF1F8B830E94EE1F9D8334
:102770008C8381E08E838F83DF91CF910895DF91E9
:10278000CF9139CD85EF92E190931C0480931B0487
:10279000089580911B0490911C04089510921C04CC
:1027A00010921B04089580911E0490911F040895B7
:1027B000411105C0611571058105910561F06093B6
:1027C0001E0470931F04809320049093210440936F
:1027D000220481E0089580E00895FF920F931F93F3
:1027E000CF93DF938A01EC01C60FD71FF9800E94B7
:1027F000EF1FF816190668F082E090E0F801918367
:1028000080838EEF9FEFDF91CF911F910F91FF900B
:1028100008956C817D818E819F814B81C9DF8111FB
:1028200008C082E090E0F8019183808384EF9FEFFD
:10283000EACF898180931D0490E00196F80191838D
:10284000808390E080E0DFCFCF93DF93EA01FC014B
:10285000E60FF71F64817581868197814381A8DF28
:10286000811109C082E090E09983888384EF9FEF13
:10287000DF91CF91089581E090E09983888390E083
:1028800080E0F6CFEEE1F4E0408151816281738116
:10289000480F511D611D711D4083518362837383F5
:1028A0000895CF93C0911D044C2F50E060911E04F9
:1028B00070911F0401960E943B348C2FE3DF10922D
:1028C0001D04CF910895009799F480911E04909172
:1028D0001F042FEFFB012083892B59F020911D0449
:1028E00030E02F5F3F4F2417350719F4CB01D9CFC4
:1028F00082CC0895009799F480911E0490911F0452
:102900002FEFFB012083892B59F020911D0430E02B
:102910002F5F3F4F2417350719F4CB01C2CF6BCC83
:1029200008952DE0AC01249FC001259F900D112436
:10293000E0912704F0912804E80FF91F23813481E6
:102940002250310981E02230310508F080E00895FD
:102950000F931F93CF93DF930091290410912A04C2
:10296000D0E0C0E080E00C171D0749F491E0811130
:1029700090E0892FDF91CF911F910F9108958111E0
:10298000F5CFCE01CEDF2196EECFA0912704B091F6
:102990002804109729F12091290430912A048217E4
:1029A0009307F0F45DE0589F9001599F300D11247A
:1029B000A20FB31FED91FC911197309789F01296F9
:1029C0008C91681768F485E0689FE00DF11D112473
:1029D00080819181892B21F081E09281491708F053
:1029E00080E00895EF92FF920F931F93CF93DF93B0
:1029F000EA01FC01E60FF71F02811381E480F580F4
:102A00004F2D6E2DC801C1DF81110DC082E090E015
:102A1000998388838EEF9FEFDF91CF911F910F9164
:102A2000FF90EF900895C8017CDF882339F082E0A1
:102A300090E09983888388EF9FEFEECF10939A02FE
:102A400000939902E0929B02F0929C0281E090E058
:102A50009983888390E080E0DFCFCF92DF92EF927E
:102A6000FF920F931F93CF93DF937A01EC01C60F70
:102A7000D71FC0909902D0909A0200919B021091AA
:102A80009C02412F602FC60180DF811110C082E0BF
:102A900090E0F701918380838AEF9FEFDF91CF91E0
:102AA0001F910F91FF90EF90DF90CF900895C60196
:102AB00038DF882341F082E090E0F7019183808342
:102AC00088EF9FEFEBCF4C815D816E817F819A8192
:102AD00089818F3F41F082E090E0F701918380830C
:102AE0008EEF9FEFDBCFEDE0EC9D9001ED9D300D83
:102AF0001124E0912704F0912804E20FF31F0190C4
:102B0000F081E02D25E0029FE00DF11D11240190E0
:102B1000F081E02D27E0129FE00DF11D112480834C
:102B200091838B81828343835483658376831F5F84
:102B300010939C0281E090E0F7019183808390E004
:102B400080E0ACCFEF92FF920F931F93CF93DF9370
:102B50007A018C01060F171FC0912704D091280419
:102B6000209781F021E030E0F8018281938140914B
:102B7000290450912A048417950710F030E020E0D2
:102B8000232B71F482E090E0F701918380838EEF34
:102B90009FEFDF91CF911F910F91FF90EF900895DC
:102BA0004DE0489F9001499F300D1124C20FD31F63
:102BB000B8DE882341F082E090E0F70191838083C2
:102BC00088EF9FEFE6CFF801248135812038310569
:102BD000C8F687818111D6CF4181842F90E08F7E06
:102BE000009741F082E090E0F7019183808386EFC7
:102BF0009FEFCFCF4F833E832D8326812887198671
:102C0000223010F421E0288721E030E0F701318301
:102C10002083BFCF88E090E0FA019183808390E029
:102C200080E00895FB018FEF808381E181838FEF46
:102C30009FEF9383828380E890E09583848316825C
:102C400017820895FB018FEF808391E09183828347
:102C50009383848384E3858381E090E097838683F4
:102C600008954BE050E064EE72E02CCB8F929F927F
:102C7000BF92CF92DF92EF92FF920F931F93CF9369
:102C8000DF93EA01FC01E60FF71F82819381048143
:102C9000B580E0912704F0912804309791F482E008
:102CA00090E0998388838CEF9FEFDF91CF911F9104
:102CB0000F91FF90EF90DF90CF90BF909F908F90FB
:102CC00008952091290430912A048217930738F03F
:102CD00082E090E0998388838EEF9FEFE6CF2DE02E
:102CE000289F6001299FD00C1124EC0DFD1DE08070
:102CF000F180E114F10499F28281081748F785E028
:102D0000089F80011124E00EF11EF701808191815E
:102D1000892B29F6BB20E1F2F7E0BF9E4001112488
:102D2000C4010E94D820F70191838083E091270499
:102D3000F0912804EC0DFD1D0190F081E02DE00FD5
:102D4000F11F80819181009739F482E090E09983AE
:102D500088838DEF9FEFA9CFA40170E060E00E940F
:102D600044348091270490912804C80ED91EF6019E
:102D700080819181080F191FF801B28281E090E0F3
:102D80009983888390E080E090CFAF92BF92CF92FA
:102D9000DF92FF920F931F93CF93DF93EA01FC0121
:102DA000E60FF71F82819381F48000912704109130
:102DB00028040115110581F482E090E0998388834D
:102DC0008CEF9FEFDF91CF911F910F91FF90DF90DC
:102DD000CF90BF90AF9008952091290430912A049C
:102DE0008217930738F082E090E0998388838EEF12
:102DF0009FEFE8CF2FEF2F0D2C3FA8F72DE0289F56
:102E00006001299FD00C11240C0D1D1DF80180813B
:102E10009181892B89F6F5E0FF9E50011124C501AF
:102E20000E94D820F80191838083E0912704F091DB
:102E30002804EC0DFD1D80819181009739F482E01A
:102E400090E0998388838DEF9FEFBCCFA50170E060
:102E500060E00E944434E0912704F0912804EC0DD6
:102E6000FD1DF28281E090E09983888390E080E00C
:102E7000A9CFCF92DF92EF92FF920F931F93CF9340
:102E8000DF93860F971FFC01028113818091270435
:102E900090912804892B81F082E090E0FA019183DF
:102EA00080838CEF9FEFDF91CF911F910F91FF9067
:102EB000EF90DF90CF900895C801B0E0A0E00197B7
:102EC000A109B1098F3F9F4FA105B10540F082E0F4
:102ED00090E0FA01918380838EEF9FEFE4CF7A0137
:102EE0008DE0809F6001819FD00C1124C6010E945B
:102EF000D820EC01009741F482E090E0F701918343
:102F000080838DEF9FEFCFCFA60170E060E00E943D
:102F10004434D0932804C093270410932A040093C8
:102F2000290490E080E02FEF3FEF8017910741F4F4
:102F300081E090E0F7019183808390E080E0B3CF5F
:102F40003C872B8701962D96F0CFCF92DF92EF92A0
:102F5000FF920F931F93CF93DF93EC01D12CC12CE1
:102F600010E000E0F12CE12C8A818017110609F0B5
:102F7000BCF4AE01455F5F4F63E070E0C7010E94A3
:102F80004F21009721F02FEF3FEF3C872B87DF91F8
:102F9000CF911F910F91FF90EF90DF90CF90089508
:102FA000E881F981EC0DFD1D23813481C901019671
:102FB0000115110519F44F8144FD049661E070E09C
:102FC000BFD7E816F90608F47C010F5F1F4F85E0B4
:102FD000C80ED11CC9CFF894209125043091260445
:102FE00081E02115310509F080E0232B09F0789468
:102FF00008954F925F926F927F928F929F92AF92BD
:10300000BF92CF92DF92EF92FF920F931F93CF93D5
:10301000DF933C01660E771EF301828193814C01A0
:10302000B12CA12CC0912704D0912804209769F0DD
:1030300021E030E06091290470912A0486179707F7
:1030400010F030E020E0232BC1F482E090E0FA01A0
:10305000918380838EEF9FEFDF91CF911F910F912E
:10306000FF90EF90DF90CF90BF90AF909F908F90A8
:103070007F906F905F904F90089580929D02909204
:103080009E02A0929F02B092A0026DE0689F900104
:10309000699F300D1124C20FD31FF301818183304A
:1030A00040F082E090E0FA019183808386EF9FEF09
:1030B000D3CF2A012B813C81232BF1F42881398144
:1030C0009F8191FF2EC0232B09F464C020912C0412
:1030D0009A81422F490F5527551FBA0141E050E010
:1030E0006138710514F050E040E0452B09F452C0FE
:1030F0002A87920F90932C048150823008F476C076
:103100006ADF882309F4C5C0F3018181813009F4A5
:1031100080C008F470C0823009F4B3C090E080E051
:103120008EC0232BB9F120912B049A81E22FE90F55
:10313000FF27FF1F41E050E0ED3FF10514F050E0A4
:1031400040E0452B39F12A87920F90932B04D4CF7E
:10315000A081B181A20FB31F11966C91060F111DB2
:103160000196295F3F4F8417950794F3C114D1044A
:10317000C9F48F8184FF16C031D721E0A8014B5FCD
:103180005F4F8417950708F420E0A7014B5F5F4F5E
:1031900021110EC082E090E0F2019183808387EFDD
:1031A0009FEF5ACF1BD721E0A8014F5F5F4FE9CFB8
:1031B00088819981E80EF91EF70114830383FFEFDC
:1031C000CF1ADF0A7A018A818C151D0409F00CF4EC
:1031D00097CFE881F981EE0DFF1D428150E030E08C
:1031E00020E010E000E090E080E0BDCFF12CE12C89
:1031F000D12CC12CE8CF81E090E09C838B83A8DBAD
:10320000882309F48BCF81E090E03ED880E44AD84F
:1032100085CF8B859C85019651F083E090E09C835F
:103220008B8382E090E030D880E436D877CF89284D
:103230008A288B2879F4CE0188DE009771F3789480
:1032400022E030E0F20131832083892BF9F08DEF09
:103250009FEF02CF2D813E81809193029091940245
:1032600028173907D1F66091970270919802AE0144
:10327000455F5F4F80919502909196020E9478225F
:10328000DCCF82E090E09C838B8348CF90E080E0AD
:10329000E3CE82E090E0F2019183808385EF9FEF9F
:1032A000DBCE8F929F92AF92BF92CF92DF92EF923E
:1032B000FF920F931F93CF93DF93EA018C01060FC8
:1032C000171FF8018181833098F082E090E09983A4
:1032D000888386EF9FEFDF91CF911F910F91FF9031
:1032E000EF90DF90CF90BF90AF909F908F90089518
:1032F0008091270490912804892B61F081E090E06F
:103300002091290430912A04232B11F490E080E0CD
:10331000892B39F482E090E0998388838EEF9FEFC8
:10332000DACF59DE882309F4D5C0F80181818130D4
:1033300009F48BC0E8F0823099F42091290430918F
:103340002A04E0912704F091280490E080E041E015
:1033500050E02817390709F0B3C0FADA811117C015
:10336000789481E090E09983888390E080E0B3CF07
:103370002091290430912A04E0912704F091280437
:1033800090E080E041E050E02817390741F481E007
:1033900090E00E94441180E40E945211E1CF6381C9
:1033A0007481672B11F05483438301963D96ECCFD3
:1033B000E0912704F0912804E00FF11F238134816C
:1033C0002230310561F4238534852F3F3F4F39F496
:1033D000C114D104E104F10409F5CF01B6DDEFEF2A
:1033E000CE1ADE0AEE0AFE0A035F1F4F409129043F
:1033F00050912A0470E060E0C416D506E606F70690
:1034000064F50097A9F27894892B09F4AACF82E099
:1034100090E0998388838DEF9FEF5DCF4581568142
:10342000209193023091940242175307C1F6AF01E5
:10343000455F5F4F6091970270919802809195026D
:10344000909196020E947822CACF10E000E090E0AE
:1034500080E0C12CD12C7601C9CF0097A1F610E0F5
:1034600000E0812C912C540183E0E82EF12C1AC04D
:10347000E0912704F0912804E00FF11F83819481EB
:10348000029749F4F482E38282E090E00E944411C2
:1034900080E40E944C11FFEF8F1A9F0AAF0ABF0A07
:1034A000035F1F4F8091290490912A04B0E0A0E0AF
:1034B00088169906AA06BB06DCF290E080E0A3CF4E
:1034C000638174816230710511F4548343830196E2
:1034D0003D963FCF82E090E09983888385EF9FEF10
:1034E000FACE0097B9F48FEFFB01808320919D0203
:1034F00030919E024DE0429FC001439F900D1124E8
:10350000E0912704F0912804E80FF91F8285FB0160
:10351000818308950C94FB1088E090E0FA01918378
:10352000808390E080E00895109226041092250494
:10353000E7E2F4E086E0DF011D928A95E9F781E396
:1035400096E19093240480932304089580912304AA
:103550009091240408952F923F924F925F926F9220
:103560007F928F929F92AF92BF92CF92DF92EF9213
:10357000FF920F931F93CF93DF93CDB7DEB7629780
:103580000FB6F894DEBF0FBECDBFF894209125048E
:10359000309126042F5F3F4F30932604209325045B
:1035A000789420912704309128043B832A83232B8D
:1035B00009F456C12091290430912A04232B09F4DF
:1035C0004FC14D875E876F87788B9C878B878A81F9
:1035D0009B819A8B898BD12CC12C198210E000E041
:1035E0008091290490912A04C816D90618F43981CB
:1035F000332329F1F89480912504909126040197B2
:1036000090932604809325047894C80162960FB69F
:10361000F894DEBF0FBECDBFDF91CF911F910F9108
:10362000FF90EF90DF90CF90BF90AF909F908F90E2
:103630007F906F905F904F903F902F900895B601CC
:1036400090E080E029D38887A989BA8917968C9160
:10365000179781FD8DC013968D919C9114970397B8
:1036600009F086C01596ED91FC91FF83EE832B85C2
:103670003C85E217F30709F07BC0712C612C512CBB
:10368000412C63C092D39A87898710E0411451047A
:1036900031F4A989BA8917961C9112951170A989DC
:1036A000BA89ED91FC91E60DF71D2380348011114C
:1036B00069C0BFEF2B1A3B0A61E070E0C10140D442
:1036C0005C01A989BA891B968D919C918F3F9807BF
:1036D00009F45CC0B5014DD74C01009709F4BBC09B
:1036E000E985FA85E80FF91FA989BA891A968C919C
:1036F000840D808311114DC08F010F5F1F4F80918A
:10370000930290919402AE81BF81A817B90709F086
:103710009DC081E090E0B885BB2311F090E080E08F
:10372000710109851A859501A401B60191958195CC
:1037300091093ED38C01892B11F0C40184D58FEF00
:10374000481A580A95E0690E711CA989BA8912961F
:103750008C918415150429F024F0B981BB2309F458
:1037600091CFE885EE2321F0B60190E080E096D27B
:10377000FFEFCF1ADF0A29893A89235F3F4F3A8B3F
:10378000298B2ECFE5E02E0E311C96CFC50110D52A
:10379000A3CF8D859E85AF85B88981839283A383CE
:1037A000B4838F010B5F1F4FAACFE080F180EC81C3
:1037B000FD81EE0EFF1ED70113966D917C9114973B
:1037C0008C918F3FE1F1E1E0F0E002C0EE0FFF1FCE
:1037D0008A95E2F7CF01092E000CAA0BBB0BFB0167
:1037E000408151816281738184239523A623B7236D
:1037F00021E0892B8A2B8B2B09F420E0D8012C9314
:10380000D70111968C91080F111DEA81FB81319629
:10381000FB83EA832C813D81295F3F4F3D832C83CD
:10382000A989BA89ED91FC91E60DF71D82812A8163
:103830003B818217130611F00CF0B7CF6ACFF70166
:10384000418150E0C8010E943B34DACF1D821C82C6
:103850001B821A82E5CF31E0398306EF1FEF6FCF6D
:1038600010E000E0C7CEB7CB789408952F923F9236
:103870004F925F926F927F929F92AF92BF92CF9240
:10388000DF92EF92FF920F931F93CF93DF9300D0BD
:1038900000D0CDB7DEB700912704109128049924F9
:1038A00093940115110509F43EC0A0902904B0902D
:1038B0002A0491DB982E8823B1F1109228041092EB
:1038C000270410922A041092290410922B041092BB
:1038D0002C048FEF9FEFDC0180939D0290939E025A
:1038E000A0939F02B093A00278947AD31E830D8395
:1038F000C12CD12C7601C501B0E0A0E089839A8368
:10390000AB83BC8322242A94322C89819A81AB8197
:10391000BC81C816D906EA06FB06F4F0C80193D4A8
:1039200080E40E945211892D26960FB6F894DEBFCE
:103930000FBECDBFDF91CF911F910F91FF90EF9000
:10394000DF90CF90BF90AF909F907F906F905F90EF
:103950004F903F902F900895C114D104E104F104D9
:1039600009F5D8011B968D919C918F3F980709F01E
:1039700040D5F80134862386ED81FE8180819181D6
:10398000B12CA12C412C512C3201892B69F5BFEFB0
:10399000CB1ADB0AEB0AFB0AED81FE813D96FE8322
:1039A000ED83B3CFAD81BE8115962D913C911697D5
:1039B000809193029091940228173907E9F61B969B
:1039C0008D919C91C4D5D8CF8A0D9B1DDC018D9122
:1039D0009C91009709F037D4BFEF4B1A5B0A6B0A32
:1039E0007B0AE5E0AE0EB11CAD81BE818D919C914C
:1039F000119712964C9150E070E060E04416550625
:103A0000660677060CF31FD4C2CFCF93DF93EA018B
:103A10002DDF811109C082E090E09983888385EFD2
:103A20009FEFDF91CF91089581E090E00E944411D3
:103A300081E090E09983888390E080E0F2CF16DF08
:103A40001092240410922304089542E050E066E2AC
:103A500073E00C946211FF920F931F93CF93DF9347
:103A60008A01EC01C60FD71FF980B9D20897F81662
:103A7000190671F068F082E090E0F801918380838C
:103A80008EEF9FEFDF91CF911F910F91FF900895DF
:103A90006C817D818E819F814B810E94D813811121
:103AA00008C082E090E0F8019183808384EF9FEF6B
:103AB000E9CFF9800E94D3134F2D50E0BE01685F1B
:103AC0007F4F0E943B3489810E94421481E090E044
:103AD000F8019183808390E080E0D4CFDF92EF9271
:103AE000FF920F931F93CF93DF938A01EC01C60FD0
:103AF000D71F0E94D3137C01D98071D2DD2059F0E9
:103B0000029721E030E0D816190619F010F030E0E5
:103B100020E0232B79F482E090E0F8019183808308
:103B20008EEF9FEFDF91CF911F910F91FF90EF905C
:103B3000DF900895EF2841F482E090E0F80191834E
:103B4000808384EF9FEFEECFF9800E94D3134F2D37
:103B500050E0BE016E5F7F4F0E943B3489810E941E
:103B6000421481E090E0F8019183808390E080E04E
:103B7000D9CF85E29DE190932E0480932D04089582
:103B800080912D0490912E0408950895FC011182D6
:103B90001082938382830895DB011D921C92DC01C5
:103BA0001296ED91FC9113977183608313967C9329
:103BB0006E9312970895FC0180819181DB018D93B2
:103BC0009C93A081B181109741F08D919C9191833C
:103BD0008083892B11F4F383E2830895FC018081B3
:103BE0009181DB018D939C93892B11F47383628304
:103BF000718360830895FC01118210829383828314
:103C00000895CF93DF931F921F92CDB7DEB71A822C
:103C10001982F894BE016F5F7F4F84E394E0CBDF9D
:103C200089819A81009709F00ED389819A81892B25
:103C300089F7BE016F5F7F4F88E394E0BCDF898125
:103C40009A81009709F0FFD289819A81892B89F79F
:103C500078940F900F90DF91CF910895CF93DF93D9
:103C60001F921F92CDB7DEB71A821982F894BE0157
:103C70006F5F7F4F80E394E09EDF89819A81009798
:103C800009F0E1D289819A81892B89F778940F9084
:103C90000F90DF91CF91089581E0089590E080E04A
:103CA0000895EF92FF920F931F93CF93DF931F928C
:103CB0001F92CDB7DEB71A82198280912F0407EFC9
:103CC0001FEF8823A1F1F894BE016F5F7F4F88E357
:103CD00094E071DF789489819A81EE24E394F12C49
:103CE000892B51F4F894BE016F5F7F4F84E394E019
:103CF00062DF7894F12CE12C89819A810EEF1FEF1D
:103D00000097A9F0FC014281538164E070E031D654
:103D10008C01892B61F0F89469817A81C701880F41
:103D2000991F880F991F8C5C9B4F58DF7894C801AE
:103D30000F900F90DF91CF911F910F91FF90EF9017
:103D400008950F931F93CF93DF9300D01F92CDB7A9
:103D5000DEB71C821B821A82198280912F0407EF22
:103D60001FEF8823C1F0AE014D5F5F4F64E070E04C
:103D7000CE01019671D68C01892B69F4E981FA8113
:103D80008B819C8193838283F89469817A8180E31B
:103D900094E002DF7894C8010F900F900F900F907D
:103DA000DF91CF911F910F91089576D704960895D2
:103DB0008F929F92AF92BF92CF92DF92EF92FF923B
:103DC0000F931F93CF93DF931F921F92CDB7DEB750
:103DD0001A821982BC016F5F7F4F6330710598F0C2
:103DE000AA24AA94BA2CC5010F900F90DF91CF910D
:103DF0001F910F91FF90EF90DF90CF90BF90AF9009
:103E00009F908F9008954115510551F34801590134
:103E10008A016C01CADF8815990511F7E114F104D4
:103E2000F9F28E0D9F1DA816B906D0F280912F04CD
:103E30008823F1F0F894B501645071099701AE013F
:103E40004F5F5F4FC80104969CD65C01892B71F4CB
:103E500089819A81F80193838283C601880F991F13
:103E6000880F991FB8018C5C9B4F96DE7894BBCF6E
:103E700087EFA82EBB24BA94B6CFAF92BF92CF9251
:103E8000DF92EF92FF920F931F93CF93DF931F92D6
:103E90001F92CDB7DEB71A821982892B09F047C06D
:103EA0006115710509F443C04115510509F43FC07E
:103EB0002115310509F43BC001151105C1F18091AF
:103EC0002F048823B9F179016A015B01F894BE01DE
:103ED0006F5F7F4F80E394E06EDE789489819A81F2
:103EE000009759F1DC0112966D917C91A80104961E
:103EF00061D68C01E981FA81D501ED93FC93828131
:103F000093810496F601918380834FDFD7018D93CF
:103F10009C93C8010F900F90DF91CF911F910F914B
:103F2000FF90EF90DF90CF90BF90AF9008950FEF8C
:103F30001FEFEFCF07EF1FEFECCF0EEF1FEFE9CF33
:103F4000CF93DF93EC01672B71F4AFD68C179D07ED
:103F500060F0A2D62496C80FD91FA1D68C0F9D1F42
:103F6000DF91CF9108959ED6F1CF90E080E0F8CF19
:103F70000F931F93CF93DF9320912F0421112BC018
:103F80008B01EC0184E394E001DE88E394E0FEDD44
:103F900080E394E0FBDD86D00097C1F486D670E024
:103FA00060E0CEDF41EA52E062E070E078D1009755
:103FB00069F48091A1029091A20289D6B801CE0144
:103FC000BED4009719F421E020932F04DF91CF9104
:103FD0001F910F91089584EF9FEFF8CF63C665C6D8
:103FE000CF93DF9365D6EC01892B11F40ADE36DE20
:103FF000CE01DF91CF910895CF93DF9359D6EC0195
:10400000892B09F4FEDDCE01DF91CF9108958091D7
:10401000A1029091A2020895CF93DF9380912F0483
:10402000D0E0C0E08823D1F057D6EC01892BB1F461
:10403000E8DD14DE8091A1029091A202DAD1E9D2EA
:10404000EC01892B59F484E394E0D5DD88E394E016
:10405000D2DD80E394E0CFDD10922F04CE01DF911A
:10406000CF910895CF93DF930097A1F4DF91CF9183
:104070000895EC011A821982A883309711F0928377
:1040800081832F5F3F4FFC01860F971F4217530715
:1040900081F7ECCF30E020E0F0E0E0E0AFEF6F5FE1
:1040A0007F4FF4CFCF92DF92EF92FF920F931F9347
:1040B000CF93DF9309E815E00C7F82E3E82E83E0DD
:1040C000F82E98E3C92E93E0D92EC0EED5E0D701A3
:1040D0004D915D917D01F601619171916F0119839F
:1040E00008835D834C835B834A837F836E839B015C
:1040F0002F5F3F4F249FC001259F900D349F900D4F
:10410000112499878887C801ADDF88859985080FB4
:10411000191F2A96F8E3EF16F3E0FF06C1F6EEE367
:10412000F4E088E491E0DF019C011D9221503040D1
:10413000E1F710923D0410923C041092FF0510929A
:10414000FE051092030610920206109201061092CC
:1041500000061092050610920406109207061092AF
:104160000606109209061092080610920D0610928B
:104170000C0610920B0610920A0610920F0610926F
:104180000E0610921106109210061092DD05109284
:10419000DC051092DF051092DE0590E080E0DF91F3
:1041A000CF911F910F91FF90EF90DF90CF900895E6
:1041B000009761F1F8948131910550F48091E20506
:1041C0009091E305892B31F020E090E080E011C070
:1041D0008197D8F48091EC059091ED05892BC9F475
:1041E0008091F6059091F705892B79F022E082E025
:1041F00090E0EAE0E89FD001E99FB00D1124A052C1
:10420000BA4F8D919C91009741F4789490E080E0B2
:10421000089521E081E090E0ECCFE29FF0011124CD
:10422000E052FA4FDC0111964D915C91518340832D
:10423000428153814150510953834283FC012193B0
:10424000CF0178940895009749F1DC018E91853073
:1042500041F4E091DE05F091DF053097F9F0CD01F2
:1042600019948530D8F4282F30E0F8948FEF8C9390
:104270008AE0829FF001839FF00D1124E052FA4FF3
:104280008081918112969C938E931197B183A08324
:104290008281938101969383828378940895CF924B
:1042A000DF92EF92FF920F931F93CF93DF939C01C6
:1042B00081E494E08C7F4115510509F497C02115E4
:1042C000310509F493C06115710509F48FC07A01B5
:1042D000AB01B9016D5F7F4F6C7F9B012F5F3F4F3B
:1042E000249F8001259F100D349F100D1124F894F8
:1042F0002091FE053091FF05232B59F420910606ED
:10430000309107062115310569F12017310708F0B2
:1043100056C02091080630910906232B91F4209174
:10432000060630910706820F931F209110063091E8
:1043300011062115310509F43FC02017310708F097
:1043400052C07894CFEFDFEF86EF9FEFF701D18374
:10435000C083DF91CF911F910F91FF90EF90DF907D
:10436000CF900895C3E0D0E0C0903C04D0903D04CD
:1043700025E431E02C193D092017310710F32AE01C
:104380002C9FF0012D9FF00D1124E052FA4F9183E4
:104390008083558344835383428377836683118765
:1043A000008760DE0C0D1D1D10933D0400933C043E
:1043B000789490E080E0CACFC4E0D0E0D5CFC3E0ED
:1043C000D0E02AE02C9FF0012D9FF00D1124E05247
:1043D000FA4F918380835583448353834283778349
:1043E000668340DEE5CFC4E0D0E0EBCF8FEF9FEFF8
:1043F000B0CFFF920F931F93CF93DF939C01235075
:1044000031092230310508F070C0EC01F89484E0E5
:104410009AE09C9FD0019D9FB00D1124A851BA4FE6
:10442000082F10E0909FF001919FF00D1124E052B1
:10443000FA4F20813181C017D10714F1FF24F39482
:10444000232B41F52AE0209FF001219FF00D11243C
:10445000E052FA4F80913C0490913D044085518593
:10446000841B950B90933D0480933C042C9FF0019A
:104470002D9FF00D1124E052FA4F118610861CC0BA
:10448000232B39F42D913C911197232BA9F48150C2
:10449000C7CFF12C8AE08C9FF0018D9FF00D112485
:1044A000E052FA4F4085518570E060E08081918153
:1044B0000E944434F110C6CF8AE08C9FF0018D9F9A
:1044C000F00D1124E052FA4F1182108215821482ED
:1044D0001382128217821682789490E080E0DF9136
:1044E000CF911F910F91FF9008958FEF9FEFF7CF1E
:1044F0004115510549F1009739F16115710521F117
:10450000F8942091DC053091DD05232BB9F420913E
:10451000DE053091DF05232B89F49093DD05809330
:10452000DC057093DF056093DE05789425E030E0CC
:1045300090E080E0FA0131832083089578942FEF92
:104540003FEF86EF9FEFF6CF8FEF9FEF0895059730
:1045500069F4F8941092DD051092DC051092DF05E5
:104560001092DE05789490E080E008958FEF9FEF41
:1045700008956115710519F4F0E0E0E011C085308F
:10458000910581F4E091DC05F091DD053097A1F310
:10459000CB0101961995009779F3FC0185E0819391
:1045A000CF0108959C01235031092230310520F7B5
:1045B0002AE0289FD001299FB00D1124A052BA4FA4
:1045C0002D913C911197232BB9F216962D913C9188
:1045D00017972617370780F2F89412962D913C9181
:1045E00013972115310529F0ED91FC911197309722
:1045F00011F47894C1CF4181528111965C934E930E
:104600002150310913963C932E93129781937894FD
:10461000C7CFE6E8F5E086E5DF011D928A95E9F768
:10462000EEE3F4E088E491E0DF019C011D9221506B
:104630003040E1F710923D0410923C04E0EEF5E0CA
:1046400082E3DF011D928A95E9F7ECEDF5E084E065
:10465000DF011D928A95E9F790E080E00895CF93FD
:10466000DF93C091A302D091A402CF3FDC0759F49D
:10467000ABD59093A4028093A30297FF09C0D09377
:10468000A402C093A30284EF9FEFDF91CF9108951E
:1046900090E080E0FACF8230910528F480931206F2
:1046A00090E080E008958FEF9FEF08954F925F9222
:1046B0006F927F92AF92BF92CF92DF92EF92FF9272
:1046C0000F931F93CF93DF931F921F92CDB7DEB747
:1046D0001A821982009709F479C06115710509F4ED
:1046E00075C02091A3023091A40207EF1FEF2F3F66
:1046F0003F4F09F445C06B015C01412C512C320144
:10470000F12CE12C10E000E09E012F5F3F4FA6014D
:104710004E195F09B5016E0D7F1D8091A302909126
:10472000A402B1D5892B09F04BC089819A810097E9
:1047300041F4E114F10429F420911206222309F432
:1047400042C0E80EF91EEC14FD04D0F480E84816CF
:1047500084E858068EE16806710420F560E070E098
:10476000CB010E940D2E2AE0420E511C611C711CCF
:104770000A3F4FEF140721F0043F8FEF1807A1F411
:10478000C8010F900F90DF91CF911F910F91FF9073
:10479000EF90DF90CF90BF90AF907F906F905F9041
:1047A0004F90089501EF1FEF81E090E0013F2FEF60
:1047B000120711F090E080E0892B09F4A5CFE0CF3B
:1047C00004EF1FEFDDCF0AEF1FEFDACF0FEF1FEF80
:1047D000D7CF4F925F926F927F92AF92BF92CF925C
:1047E000DF92EF92FF920F931F93CF93DF931F926D
:1047F0001F92CDB7DEB71A821982009709F479C0EB
:104800006115710509F475C02091A3023091A402CD
:1048100007EF1FEF2F3F3F4F09F445C06B015C01CD
:10482000412C512C3201F12CE12C10E000E09E01D2
:104830002F5F3F4FA6014E195F09B5016E0D7F1D19
:104840008091A3029091A402D4D4892B09F04BC08B
:1048500089819A81009741F4E114F10429F42091AF
:104860001206222309F442C0E80EF91EEC14FD04DE
:10487000D0F480E8481686E9580688E9680671048D
:1048800020F560E070E0CB010E940D2E2AE0420E80
:10489000511C611C711C0E3F4FEF140721F0043FA7
:1048A0008FEF1807A1F4C8010F900F90DF91CF91FF
:1048B0001F910F91FF90EF90DF90CF90BF90AF903E
:1048C0007F906F905F904F90089502EF1FEF81E00F
:1048D00090E0023F2FEF120711F090E080E0892B6B
:1048E00009F4A5CFE0CF04EF1FEFDDCF0EEF1FEFF0
:1048F000DACF0FEF1FEFD7CF8091A3029091A402E0
:104900008F3F980749F058D4892B49F48FEF9FEFD8
:104910009093A4028093A30290E080E0089584EF36
:104920009FEF0895FC01680F791F90E080E0E61783
:10493000F70709F408952191820F911DF8CF209176
:104940001306211113C08BDE009791F41092190603
:10495000109218061092170610921606109215065D
:104960001092140621E020931306089584EF9FEF20
:104970000895AF92BF92CF92DF92EF92FF920F9382
:104980001F93CF93DF93009709F460C04630510521
:1049900008F45CC020911306C7EFDFEF222309F46F
:1049A00049C08C01060F171FF801C080D180C114C7
:1049B000D10409F44EC096012A5F3F4F42175307B6
:1049C00008F447C07C0180911806909119069383E2
:1049D0008283B6016C5F7F4F5801A60EB71EC801D7
:1049E000A1DFF5019183808364E070E0C8015EDEA1
:1049F000EC01892BF9F481E090E04DDEB601C801AD
:104A0000049654DEEC01892B91F462E070E0C5015C
:104A10004DDEEC01892B59F4C70115DC8091180695
:104A2000909119060196909319068093180690E0CC
:104A300080E031DECE01DF91CF911F910F91FF9089
:104A4000EF90DF90CF90BF90AF900895CFEFDFEF62
:104A5000F1CFC9EFDFEFEECF6F927F928F929F92EF
:104A6000AF92BF92CF92DF92EF92FF920F931F937C
:104A7000CF93DF9300D01F92CDB7DEB7009709F434
:104A80007AC04115510509F476C02091130607EF4D
:104A90001FEF222309F44DC03A017B015C0164E061
:104AA00070E0CE01019695DE8C01892B09F041C0A2
:104AB00009811A810115110509F45AC0480186E0DF
:104AC000880E911CB701680D791D8091A502909107
:104AD000A6024FDD6C01009709F450C0A70170E0F9
:104AE00060E00E94443489819A81AB81BC81EC0CE6
:104AF000FD1CF70181939193A193B1937F0181E014
:104B000090E0C9DDB801C70164DE892B31F562E0B0
:104B100070E0C701800F911F5CDE8C01892BE9F4E6
:104B200090E080E0B8DDF501D182C082F30191828E
:104B30008082C8010F900F900F900F90DF91CF915E
:104B40001F910F91FF90EF90DF90CF90BF90AF90AB
:104B50009F908F907F906F90089590E080E09BDD14
:104B6000F50111821082F30111821082C6016BDB04
:104B700009EF1FEFDECF0FEF1FEFDBCF06EF1FEFC9
:104B8000D8CF0097A1F04115510589F021153105C5
:104B900071F0F90136966E177F0748F0DC012D930E
:104BA0003C93DA01ED93FC9390E080E008958FEF61
:104BB0009FEF0895AF92BF92CF92DF92EF92FF9254
:104BC0000F931F93CF93DF93009709F45FC04115B4
:104BD000510509F45BC06530710508F457C0209198
:104BE0001306C7EFDFEF222391F1DC01CD90DC90BB
:104BF00011971296ED91FC9196012A5F3F4FC9EFF4
:104C0000DFEF2617370719F5C0911406D091150666
:104C1000209749F521E030E03093150620931406E3
:104C20007A018C01F0931706E09316065601B4E062
:104C3000AB0EB11CB50176DE0A0D1B1DF8012081FB
:104C400031818217930729F5D701CD92DC92CE01ED
:104C5000DF91CF911F910F91FF90EF90DF90CF9058
:104C6000BF90AF90089520911606309117062F5FE0
:104C70003F4FCCEFDFEFE217F30790F2CBEFDFEF20
:104C80002E173F0768F2D0E0C0E0CACFCFEFDFEFCA
:104C9000DECFC3EFDFEFDBCF84E090E0089582E06A
:104CA00090E008958CEF9FEF089580E290E00895E2
:104CB00010921906109218061092170610921606F6
:104CC000109215061092140690E080E008959093DB
:104CD000A6028093A502089580911306882391F07F
:104CE0000BDE009789F410921906109218061092A4
:104CF00017061092160610921506109214061092BE
:104D00001306089590E080E00895009749F061153A
:104D1000710531F0FC0111821082FB0111821082B9
:104D20000895F3CFCF93DF9380911A0690911B06DD
:104D30000E944830EC0180911C0690911D060E9453
:104D400048300197C1F480911E0690911F06A091F2
:104D50002006B09121062197C1F40196A11DB11D35
:104D600080931E0690931F06A0932006B093210601
:104D7000DF91CF91089580911E0690911F06A0911A
:104D80002006B0912106CD2B41F30197A109B1096D
:104D9000E7CFCF93DF9380912406909125060E9460
:104DA0004830EC0180912606909127060E944830F9
:104DB0000197C1F48091280690912906A0912A06B6
:104DC000B0912B062197C1F40196A11DB11D8093CE
:104DD000280690932906A0932A06B0932B06DF910C
:104DE000CF9108958091280690912906A0912A06D6
:104DF000B0912B06CD2B41F30197A109B109E7CF63
:104E0000CF93DF9380912606909127060E94483029
:104E1000EC0180912406909125060E94483001976C
:104E2000C1F48091280690912906A0912A06B0919C
:104E30002B06CD2BC1F40196A11DB11D8093280630
:104E400090932906A0932A06B0932B06DF91CF9169
:104E500008958091280690912906A0912A06B09184
:104E60002B06219741F30197A109B109E7CFCF9311
:104E7000DF9380911C0690911D060E944830EC0142
:104E800080911A0690911B060E9448300197C1F448
:104E900080911E0690911F06A0912006B0912106D8
:104EA000CD2BC1F40196A11DB11D80931E069093D8
:104EB0001F06A0932006B0932106DF91CF9108959D
:104EC00080911E0690911F06A0912006B0912106A8
:104ED000219741F30197A109B109E7CF02978431E6
:104EE000910540F4825C9C4FFC018081082E000CEF
:104EF000990B08958FEF9FEF08950F931F93CF9312
:104F0000DF93CDB7DEB78C0120E030E040E85FE30F
:104F1000FB016081718182819381EFD2811119C07F
:104F200080911E0690911F06A0912006B091210647
:104F3000F80180839183A283B383809128069091A6
:104F40002906A0912A06B0912B0684839583A68317
:104F5000B783DF91CF911F910F9108958F929F9208
:104F6000AF92BF92CF92DF92EF92FF920F931F9377
:104F7000CF93DF93CDB7DEB77B015A0120E030E05D
:104F800040E85FE3FB016081718182819381B5D24A
:104F9000882309F486C0F501808190E090931B0678
:104FA00080931A06F801808190E090931D0680930B
:104FB0001C06F6016081718182819381A2D2709377
:104FC000250660932406F4016081718182819381BA
:104FD00098D2709327066093260680911A069091C6
:104FE0001B0660E0ECD780911C0690911D0660E0E6
:104FF000E6D7809124069091250660E0E0D7809165
:1050000026069091270660E0DAD780911A069091E3
:105010001B0661E00E941B3080911C0690911D06CA
:1050200061E00E941B30809124069091250661E08A
:105030000E941B30809126069091270661E0FBD7E5
:1050400080911A0690911B0649DF41E050E067E32A
:1050500077E2A2D380911C0690911D063FDF41E0CC
:1050600050E062E976E298D380912406909125067B
:1050700035DF41E050E060E077E28ED38091260694
:10508000909127062BDF41E050E069EC76E284D373
:1050900080E090E0A0E8BFE3F70180839183A283E2
:1050A000B383DF91CF911F910F91FF90EF90DF902D
:1050B000CF90BF90AF909F908F90089540E855E2B9
:1050C00060E070E090E080E000C08130910579F010
:1050D0001CF4892B39F008958230910561F0039713
:1050E00071F0089526E08BE396E00C943A3126E0C7
:1050F00088ED96E0FACF26E085E797E0F6CF26E048
:1051000082E198E0F2CF1F920F920FB60F92112416
:105110000BB60F922F933F934F935F936F937F93B1
:105120008F939F93AF93BF93EF93FF938FE89DEF80
:105130009093250180932401BAD0FF91EF91BF9104
:10514000AF919F918F917F916F915F914F913F911F
:105150002F910F900BBE0F900FBE0F901F901895C0
:105160008FE89DEF9093250180932401A3E7B0E0A1
:105170008C918E7F8C93E0E2F1E080818C7F808344
:10518000E1E2F1E08081877E80838081846080839A
:1051900080818C7F80838C9181608C930895E3E77C
:1051A000F0E0808190819E7F90838170089581E0FE
:1051B000089510922E06089568EE73E080E090E066
:1051C0002CD590E080E0089526E040E050E16EE0CC
:1051D00070E08BE396E00E943A318BE396E080D753
:1051E000892B21F08BE396E095D7F7CF90E080E014
:1051F0000895CF92DF92EF92FF920F931F93CF9378
:10520000DF936B017A01E901198218828BE396E042
:1052100067D7892B69F18601CC24C39482E0D82E0C
:1052200080912E06811110C08BE396E073D7029710
:10523000B9F7C0922E06F801D1928F018881998129
:10524000019699838883ECCF888199818E159F057B
:1052500078F48BE396E05ED78F3F9807A9F3F801C7
:1052600081938F0188819981019699838883ECCFFE
:1052700090E080E0DF91CF911F910F91FF90EF9030
:10528000DF90CF9008950F931F93CF93DF93EA01A0
:1052900089018BE396E00E94CA33F801D183C08371
:1052A00090E080E0DF91CF911F910F910895CF9210
:1052B000DF92EF92FF92CF93DF9380912F0691E0E0
:1052C000980F90932F06882379F021E030E03093F7
:1052D00031062093300680932F06DF91CF91FF9007
:1052E000EF90DF90CF9008957894C091B802D0915C
:1052F000B9026E8D7F8D88A199A134D120E030E074
:1053000040E85FE4E5D16B017C016A8D7B8D8C8D7B
:105310009D8D28D19B01AC01C701B6018AD0F6D082
:105320006B017C010E94D004B701A60190E080E0EF
:105330000E944D04F89480912F068150CCCFCF93DA
:10534000DF9310923609109235099DD4B7DEC091D3
:10535000B802D091B902198218826FEF7FEFCB01AA
:105360000E94C50470E060E090E080E00E9452037B
:105370000097A9F50E944A09F8947894BE016A5DE5
:105380007F4F8A819B810E945503892B59F46FEFCF
:105390007FEFCB010E94E2030E94BF04882311F03B
:1053A00081E08AA7F894DCDE0E94C204811104C067
:1053B0000E94BF0491E0811190E0909335097894A8
:1053C0000E943F11EC0178948091350981110AC047
:1053D0000E94660A0E94A604F89490E080E0DF91A3
:1053E000CF9108950E94A4040E94C20491E081110B
:1053F00006C00E94BF0491E0811101C090E090932B
:1054000036099091360981E0911180E08093350949
:10541000809136098111C3DE219729F40E943F1142
:10542000892B09F4C6DE0E943F11EC01C0DECCCF0F
:105430005058BB27AA270ED00DC1FED030F003D1A3
:1054400020F031F49F3F11F41EF4F3C00EF4E09508
:10545000E7FBE9C0E92F0FD180F3BA1762077307A2
:105460008407950718F071F49EF527C10EF4E095B6
:105470000B2EBA2FA02D0B01B90190010C01CA010E
:10548000A0011124FF27591B99F0593F50F4503EB9
:1054900068F11A16F040A22F232F342F4427585FAB
:1054A000F3CF469537952795A795F0405395C9F7C3
:1054B0007EF41F16BA0B620B730B840BBAF091507B
:1054C000A1F0FF0FBB1F661F771F881FC2F70EC01A
:1054D000BA0F621F731F841F48F4879577956795ED
:1054E000B795F7959E3F08F0B3CF9395880F08F0D6
:1054F0009927EE0F97958795089571D008F481E06C
:10550000089504D06894B111D9C00895BCD088F032
:105510009F5790F0B92F9927B751A0F0D1F0660F9F
:10552000771F881F991F1AF0BA95C9F712C0B130BA
:1055300081F0C3D0B1E00895C0C0672F782F8827CD
:10554000B85F39F0B93FCCF3869577956795B395F9
:10555000D9F73EF490958095709561957F4F8F4F68
:105560009F4F0895E89409C097FB3EF4909580956D
:10557000709561957F4F8F4F9F4F9923A9F0F92F19
:1055800096E9BB279395F695879577956795B79597
:10559000F111F8CFFAF4BB0F11F460FF1BC06F5F7D
:1055A0007F4F8F4F9F4F16C0882311F096E911C08F
:1055B000772321F09EE8872F762F05C0662371F0B0
:1055C00096E8862F70E060E02AF09A95660F771FC4
:1055D000881FDAF7880F9695879597F90895990FA0
:1055E0000008550FAA0BE0E8FEEF16161706E807AD
:1055F000F907C0F012161306E407F50798F0621BCE
:10560000730B840B950B39F40A2661F0232B242BA2
:10561000252B21F408950A2609F4A140A6958FEFC1
:10562000811D811D089597F99F6780E870E060E013
:1056300008959FEF80EC089500240A94161617062B
:1056400018060906089500240A9412161306140673
:1056500005060895092E0394000C11F4882352F0D6
:10566000BB0F40F4BF2B11F460FF04C06F5F7F4F8E
:105670008F4F9F4F089557FD9058440F551F59F075
:105680005F3F71F04795880F97FB991F61F09F3F2F
:1056900079F087950895121613061406551FF2CF58
:1056A0004695F1DF08C0161617061806991FF1CFA8
:1056B00086957105610508940895E894BB276627CF
:1056C0007727CB0197F908958ADF08F48FEF0895C3
:1056D0000BD0C0CFB1DF28F0B6DF18F0952309F06A
:1056E000A2CFA7CF1124EACFC6DFA0F3959FD1F3B5
:1056F000950F50E0551F629FF001729FBB27F00D80
:10570000B11D639FAA27F00DB11DAA1F649F6627D4
:10571000B00DA11D661F829F2227B00DA11D621F23
:10572000739FB00DA11D621F839FA00D611D221FDD
:10573000749F3327A00D611D231F849F600D211DC1
:10574000822F762F6A2F11249F5750408AF0E1F064
:1057500088234AF0EE0FFF1FBB1F661F771F881FAD
:1057600091505040A9F79E3F510570F05CCFA6CFF5
:105770005F3FECF3983EDCF3869577956795B79598
:10578000F795E7959F5FC1F7FE2B880F911D9695C2
:10579000879597F908950895883008F076C0E82F26
:1057A000F0E0EE0FFF1FE955FD4F718360838150DC
:1057B000873008F03DC0E82FF0E08827ED51F44D28
:1057C0008F4F0C941A34202CEA2BF22BFE2B0B2C2F
:1057D0002C2C392C809169008C7F482B40936900D8
:1057E000E89A089580916900837F440F551F440F04
:1057F000551F482B40936900E99A089580916900EC
:105800008F7C74E0440F551F7A95E1F7482B409345
:105810006900EA9A0895809169008F7366E0440FE9
:10582000551F6A95E1F7482B40936900EB9A08955C
:1058300080916A008C7F482B40936A00EC9A08950F
:1058400080916A00837F440F551F440F551F482BDA
:1058500040936A00ED9A089580916A008F7C24E05D
:10586000440F551F2A95E1F7482B40936A00EE9AA2
:10587000089580916A008F7396E0440F551F9A95A2
:10588000E1F7482B40936A00EF9A08951F920F9218
:105890000FB60F9211240BB60F922F933F934F9395
:1058A0005F936F937F938F939F93AF93BF93EF9388
:1058B000FF93E091AB02F091AC021995FF91EF914B
:1058C000BF91AF919F918F917F916F915F914F9118
:1058D0003F912F910F900BBE0F900FBE0F901F9016
:1058E00018951F920F920FB60F9211240BB60F92BC
:1058F0002F933F934F935F936F937F938F939F93D8
:10590000AF93BF93EF93FF93E091AD02F091AE029E
:105910001995FF91EF91BF91AF919F918F917F91D9
:105920006F915F914F913F912F910F900BBE0F9010
:105930000FBE0F901F9018951F920F920FB60F92E7
:1059400011240BB60F922F933F934F935F936F9356
:105950007F938F939F93AF93BF93EF93FF93E091C8
:10596000AF02F091B0021995FF91EF91BF91AF9105
:105970009F918F917F916F915F914F913F912F9167
:105980000F900BBE0F900FBE0F901F9018951F9297
:105990000F920FB60F9211240BB60F922F933F93D5
:1059A0004F935F936F937F938F939F93AF93BF9327
:1059B000EF93FF93E091B102F091B2021995FF913C
:1059C000EF91BF91AF919F918F917F916F915F9177
:1059D0004F913F912F910F900BBE0F900FBE0F90E4
:1059E0001F9018951F920F920FB60F9211240BB6AD
:1059F0000F922F933F934F935F936F937F938F9368
:105A00009F93AF93BF93EF93FF93E091A702F09121
:105A1000A8021995FF91EF91BF91AF919F918F913E
:105A20007F916F915F914F913F912F910F900BBE9E
:105A30000F900FBE0F901F9018951F920F920FB6E8
:105A40000F9211240BB60F922F933F934F935F93B6
:105A50006F937F938F939F93AF93BF93EF93FF9336
:105A6000E091A902F091AA021995FF91EF91BF91DF
:105A7000AF919F918F917F916F915F914F913F91E6
:105A80002F910F900BBE0F900FBE0F901F90189587
:105A90001F920F920FB60F9211240BB60F922F93F5
:105AA0003F934F935F936F937F938F939F93AF93A6
:105AB000BF93EF93FF93E091B302F091B402199575
:105AC000FF91EF91BF91AF919F918F917F916F91D6
:105AD0005F914F913F912F910F900BBE0F900FBE92
