:1000000005C100000C94A42C0C94CF2C0C94FA2C59
:100010000C94252D0C94502D0C947B2D0C94A62D16
:100020000C94D12D24C1000022C1000020C1000089
:100030001EC100001CC100001AC1000018C1000050
:1000400016C1000014C1000012C1000010C1000060
:100050000EC100000CC100000AC100000C94FC2D70
:1000600006C100000C94F8310C942E3200C100003F
:10007000FEC00000FCC00000FAC00000F8C0000094
:10008000F6C00000F4C00000F2C00000F0C00000A4
:100090000C9484320C94BA32EAC00000E8C000002C
:1000A000E6C00000E4C00000E2C00000E0C00000C4
:1000B000DEC00000DCC00000DAC00000D8C00000D4
:1000C000D6C00000D4C000000C94A4280C941033B7
:1000D0000C944633CCC000000C949C330C94D23367
:1000E000C6C0000000000A0B02090C0D0E08070331
:1000F00004010000000000000000000000000000FB
:1001000000000000000000000000000000000000EF
:1001100012111000000000000000000000000000AC
:100120000000000000000000000001021020200874
:100130000810204010204080020102010804020142
:1001400001020408102040808040201008040201B1
:10015000800402018040201008040201080402010A
:100160000102040810204080010204081020408091
:1001700005050505070508080808020202020A0A23
:100180000808040404040101010101010101030341
:10019000030303030303040707070C0C0C0C0C0CEC
:1001A0000C0C0202020206060606060606060B0BE9
:1001B0000B0B0B0B0B0B000020002300260029006B
:1001C0002C002F003200000100000301060109018C
:1001D00000002200250028002B002E0031003400F2
:1001E00002010000050108010B01000021002400AC
:1001F00027002A002D003000330001010000040117
:1002000007010A015732E3326F33FB3311241FBE5B
:10021000CFEFD1E2DEBFCDBF00E00CBF13E0A0E026
:10022000B2E0E6E5F9E600E00BBF02C007900D92F0
:10023000AA3EB107D9F729E0AAEEB3E001C01D92AA
:10024000A73FB207E1F711E0C6E0D1E000E006C049
:1002500021970109802FFE010E947834C230D10716
:1002600080E00807A9F70E9491290C94A934C8CE10
:10027000CF92DF92EF92FF92CF93882351F16A01E0
:100280007B01CFEFC80F20E030E0A901CB01B60120
:100290000E94732A87FF11C0C701B60190580E94BF
:1002A000E42A9B01AC016C2F70E090E080E0CF91DC
:1002B000FF90EF90DF90CF90B2C0C701B6010E94CF
:1002C000DF2A8C2FCF91FF90EF90DF90CF900C948E
:1002D000032FCF91FF90EF90DF90CF9008950F9371
:1002E0001F938B019C0183E0369527951795079501
:1002F0008A95D1F706511C4F462F477021E030E018
:10030000F90102C0EE0FFF1F4A95E2F7AF01F801B5
:1003100020812423CB010196211102C090E080E0CE
:100320001F910F9108950F931F938B019C0183E000
:1003300036952795179507958A95D1F7677081E0CF
:1003400090E001C0880F6A95EAF7F801E651FC4F8A
:100350002081452B31F48095822380831F910F915A
:100360000895822BFACF2F923F924F925F926F9215
:100370007F928F929F92AF92BF92CF92DF92EF9235
:10038000FF920F931F93CF93DF93D62EC72E782E15
:10039000692E49015A01280161E08D2D0E943D30EE
:1003A000CD2DDC2D8E010F5F1F4FA8016D2D7C2DF3
:1003B000872D962DB8DF20E030E0A901C201B701FA
:1003C0000E94C22B181664F4C201B7010E94E42AED
:1003D0002B01C501B4010E94E42AA201CE0123D061
:1003E000C801DF91CF911F910F91FF90EF90DF90A7
:1003F000CF90BF90AF909F908F907F906F905F90C5
:100400004F903F902F900895882341F08150682F9E
:1004100070E090E080E050E040E085CF0895862FC6
:10042000B9010C94032F9C01FC01EC51FF4FE491A6
:10043000E150E231E0F4F0E08827EE5DFD4F8F4FB0
:100440000C94783434023B023E0255026A023702B1
:100450007F028B028F02A602BB02D002E702FC02DF
:100460003702110328033D0384B5806884BD60E032
:10047000822F0C94793084B58062F8CF809180000F
:100480008C7F82608093800080918100807E80617B
:10049000682B609381005093870040938600809181
:1004A0008000806880938000E2CF809180008C7F04
:1004B00082608093800080918100807E8061682BC3
:1004C0006093810050938700409386008091800064
:1004D0008062E8CF809180008C7F82608093800072
:1004E00080918100807E8061682B609381005093B1
:1004F000870040938600809180008860D3CF8091F0
:10050000B00080688093B0008091B100887F682B34
:100510006093B100ACCF8091B0008062F3CF809146
:1005200090008C7F82608093900080919100807E0B
:100530008061682B609391005093970040939600E0
:100540008091900080688093900091CF809190007E
:100550008C7F82608093900080919100807E80618A
:10056000682B609391005093970040939600809180
:1005700090008062E8CF809190008C7F82608093B1
:10058000900080919100807E8061682B6093910043
:100590005093970040939600809190008860D3CF4D
:1005A0008091A0008C7F82608093A0008091A10048
:1005B000807E8061682B6093A1005093A7004093D8
:1005C000A6008091A00080688093A00050CF809109
:1005D000A0008C7F82608093A0008091A100807E2B
:1005E0008061682B6093A1005093A7004093A60000
:1005F0008091A0008062E8CF8091A0008C7F826013
:100600008093A0008091A100807E8061682B609320
:10061000A1005093A7004093A6008091A00088609D
:10062000D3CF809120018C7F8260809320018091C4
:100630002101807E8061682B609321015093270106
:1006400040932601809120018068809320010FCF84
:10065000809120018C7F8260809320018091210114
:10066000807E8061682B6093210150932701409325
:100670002601809120018062E8CF809120018C7F4B
:1006800082608093200180912101807E8061682BAF
:10069000609321015093270140932601809120010E
:1006A0008860D3CF90E080E008950F931F93009768
:1006B00009F489C06115710509F485C00091FE0235
:1006C0001091FF0220910003309101030E3F1F4F54
:1006D0002F4F3F4F09F068C04FEF5FEFBA014093D3
:1006E000FE025093FF026093000370930103409158
:1006F000FE025091FF026091000370910103DC0142
:100700001296ED91FC9180819181A281B3818093B9
:10071000F3049093F404A093F504B093F604848159
:100720009581A681B7818093EF049093F004A09304
:10073000F104B093F20480859185A285B3858093FE
:10074000EB049093EC04A093ED04B093EE04848545
:100750009585A685B7858093E7049093E804A093D8
:10076000E904B093EA041092E3041092E4041092B6
:10077000E5041092E6040E94AC0D81ED9DE090939B
:10078000F4038093F3039093F6038093F5030E94A0
:10079000AB0C009731F421E030E03093F804209363
:1007A000F7041F910F9108950091FE021091FF022E
:1007B0002091000330910103DB010D931D932D93D4
:1007C0003C93139794CF8FEF9FEFEBCF8F929F9235
:1007D000AF92BF92CF92DF92EF92FF921F93CF938F
:1007E000DF934B015C011091FA0482E090E090935A
:1007F000F8048093F70481149104A104B10441F436
:100800008091FA04811104C08091F904C1E0811142
:10081000C0E0C12CD12C76018091FA04811106C070
:100820008091F904811102C0CC23D9F083E090E0DB
:100830009093F8048093F704CC2381F1CCE9DFEFA7
:10084000111102C00E943611CE01DF91CF911F918C
:10085000FF90EF90DF90CF90BF90AF909F908F90E0
:1008600008956AE070E080E090E00E946B2E80E1E5
:10087000C80E87E2D81EE11CF11C8FEF881698067F
:10088000A806B80631F0C1E08C149D04AE04BF0484
:1008900008F0C0E080E00E94D70CBECFD0E0C0E0FE
:1008A000CFCFCF92DF92EF92FF920F931F93CF9310
:1008B000DF938F3F910511F008F046C02091F704B7
:1008C0003091F8042330310539F02091F70430914C
:1008D000F8042130310531F424E030E03093F8049D
:1008E0002093F7046A017B01EC0182309105B8F096
:1008F00011E0AE01C701B6010E94AA0CAB01BC0118
:1009000090E080E0112311F1CE01DF91CF911F9192
:100910000F91FF90EF90DF90CF900C944B138C01D0
:10092000000F111F0D501C4FD8018D919C91892BE8
:10093000F9F20E9452130297D9F6D801ED91FC9179
:10094000CE011995182FD5CF8FEF9FEFDF91CF9163
:100950001F910F91FF90EF90DF90CF90089580E06E
:100960000C94D70CCF93DF9386E090E09093F8043B
:100970008093F7040E94300DEC01E3EFF3E084E094
:10098000DF011D928A95E9F70E94CE101092F804BB
:100990001092F704CE01DF91CF9108958091F90470
:1009A00008958091E20408956093FE027093FF021F
:1009B000809300039093010390E080E008952F92CC
:1009C0003F924F925F926F927F928F929F92AF92DF
:1009D000BF92CF92DF92EF92FF920F931F93CF932C
:1009E000DF9300D000D01F92CDB7DEB72090E10991
:1009F0003090E2096090DF097090E009E091C00456
:100A0000F091C104C080D180E280F380A7019601FB
:100A1000D3016D917D918D919C910E94C22B87FF96
:100A200002C4A7019601F30164A575A586A597A543
:100A30000E94732A18160CF0F9C32091EF09309127
:100A4000F0093A8329832901440C551C440C551C98
:100A50008301040D151DA7019601D8016D917D91AB
:100A60008D919C910E94C22BB4E04B0E511C460C00
:100A7000571C18160CF0CAC304501109A70196019F
:100A8000D80114966D917D918D919C9117970E943C
:100A9000C22B18160CF4AFC329813A813093F009A8
:100AA0002093EF09220F331F220F331F3A8329832C
:100AB000F901E60DF71D80809180A280B380890145
:100AC0000C5F1F4FF301E00FF11F408051806280E7
:100AD0007380A3019201C501B4010E94732AA98108
:100AE000BA81A20DB31DBE83AD838111C6C3A5011A
:100AF0009401C701B6010E94732A87FF9CC3ED8150
:100B0000FE8180819181A281B38180938F0990932E
:100B10009009A0939109B093920980A991A9A2A9E3
:100B2000B3A98093930990939409A0939509B093E6
:100B30009609E05AFF4F80819181A281B381809311
:100B4000970990939809A0939909B0939A091F92D5
:100B500081E08F9348EC842E42E0942EAA24A39443
:100B6000B12C64ECC62E62E0D62EEE24E394F12C78
:100B70000DEF12E021E030E04CEF52E063ED79E060
:100B80008FEA99E00E94A5278090CC029090CD0238
:100B9000A090CE02B090CF02C090D002D090D102EF
:100BA000E090D202F090D3026091AF097091B00949
:100BB000072E000C880B990B0E94122BA5019401A3
:100BC0000E94C62BA70196010E94C62B2B013C0157
:100BD0002091D7093091D8094091D9095091DA096B
:100BE0000E940E2A60939B0970939C0980939D0933
:100BF00090939E096093A3097093A4098093A5091B
:100C00009093A6096091B1097091B209072E000C6A
:100C1000880B990B0E94122BA50194010E94C62BF0
:100C2000A70196010E94C62B69837A838B839C83DC
:100C30002091DB093091DC094091DD095091DE09FA
:100C40000E940E2A60939F097093A0098093A109C6
:100C50009093A2096093A7097093A8098093A909AA
:100C60009093AA098091930990919409A091950974
:100C7000B09196098093AB099093AC09A093AD090C
:100C8000B093AE0968E070E080E090E028DB7C0182
:100C90009093D2098093D1092091930930919409BE
:100CA00040919509509196096091D4027091D502B6
:100CB0008091D6029091D7020E94C62B5B016C01F5
:100CC0000091D8021091D9023091DA023F838091CD
:100CD000DB028D830F900F909501A601B8018F81E3
:100CE0009D810E94732A87FD16C00091DC0210913D
:100CF000DD029091DE029F83A091DF02AD8395011A
:100D0000A601B801892F9A2F0E94C22B18161CF039
:100D10008501CF82DD8220E030E04FE753E4B80167
:100D20008F819D810E94732A18160CF40BC320E05A
:100D300030E0A901B8018F819D810E94C22B87FFFD
:100D400004C000E010E01F821D82A8016F817D8138
:100D5000C7018EDA69E070E080E090E0C0DA7C01E3
:100D60009093CA098093C909A0909309B0909409FF
:100D7000C0909509D09096090091E0021091E1028F
:100D8000F091E202FF832091E3022D8398014F2F1F
:100D90005D81B501C6010E94C22B1816B4F0009106
:100DA000E4021091E5023091E6023F838091E70270
:100DB0008D8398014F81582FB501C6010E94732A77
:100DC00087FD03C08501CF82DD8220E030E04FE760
:100DD00053E4B8018F819D810E94732A18160CF488
:100DE000B8C220E030E0A901B8018F819D810E9446
:100DF000C22B87FF04C000E010E01F821D82A80103
:100E00006F817D81C70134DA6AE070E080E090E0B4
:100E100066DA7C019093C2098093C10920919309FD
:100E20003091940940919509509196096091E8029A
:100E30007091E9028091EA029091EB020E94C62B28
:100E40005B016C010091EC021091ED02B091EE0299
:100E5000BF83E091EF02ED839B01AC01B8018B2FC2
:100E60009E2F0E94732A87FD16C00091F0021091F8
:100E7000F102F091F202FF832091F3022D8395019C
:100E8000A601B8018F2F9D810E94C22B18161CF05D
:100E90008501CF82DD8220E030E04FE753E4B801E6
:100EA0008F819D810E94732A18160CF459C220E08C
:100EB00030E0A901B8018F819D810E94C22B87FF7C
:100EC00004C000E010E01F821D82A8016F817D81B7
:100ED000C701CED96BE070E080E090E000DA7C01E1
:100EE0009093BA098093B909A0909309B09094099E
:100EF000C0909509D09096090091F4021091F502E6
:100F00009091F6029F83A091F702AD839801492F3B
:100F10005A2FB501C6010E94C22B1816B4F00091D9
:100F2000F8021091F902B091FA02BF83E091FB023E
:100F3000ED8398014B2F5E2FB501C6010E94732AE5
:100F400087FD03C08501CF82DD8220E030E04FE7DE
:100F500053E4B8018F819D810E94732A18160CF406
:100F600006C220E030E0A901B8018F819D810E9476
:100F7000C22B87FF04C000E010E01F821D82A80181
:100F80006F817D81C70174D91F9281E08F9388ECB6
:100F9000882E82E0982EAA24A394B12C24ECC22E91
:100FA00022E0D22EEE24E394F12C0DEF12E021E0AA
:100FB00030E04CEF52E063ED79E08FEA99E00E9477
:100FC000CA274092D7095092D8096092D9097092E5
:100FD000DA0989819A81AB81BC818093DB09909386
:100FE000DC09A093DD09B093DE096091A90470913A
:100FF000AA048091AB049091AC040E94102B20E0D5
:1010000030E040E85FE40E94C62B6B017C016091F8
:10101000A5047091A6048091A7049091A8040E9451
:10102000102B9B01AC01C701B6010E940F2A20E0E2
:1010300030E0A9010E940F2A0E94E42AAB01BC0102
:1010400090E080E02EDC6091B5047091B604809150
:10105000B7049091B8040E94102B20E030E040E8E3
:101060005FE40E94C62B6B017C016091B10470911A
:10107000B2048091B3049091B4040E94102B9B01A0
:10108000AC01C701B6010E940F2A20E030E0A9019F
:101090000E940F2A0E94E42AAB01BC0181E090E08B
:1010A00000DCC090A504D090A604E090A704F090C6
:1010B000A8049FEFC91AD90AE90AF90AC092A5043F
:1010C000D092A604E092A704F092A8040F900F908B
:1010D000C114D104E104F10499F48091A904909120
:1010E000AA04A091AB04B091AC040196A11DB11D5E
:1010F0008093A9049093AA04A093AB04B093AC048A
:101100008090AD049090AE04A090AF04B090B00475
:10111000A091C004B091C104BA83A9836091A904CD
:101120007091AA048091AB049091AC040E94102BA2
:10113000A50194010E94C62B20E030E040E85FE466
:101140000E94C62B2B013C01C701B6010E94102B47
:10115000A50194010E94C62B9B01AC01C301B20101
:101160000E940F2AE981FA816083718382839383CD
:101170008091B1049091B204A091B304B091B404F1
:101180000196A11DB11D8093B1049093B204A09368
:10119000B304B093B404892B8A2B8B2B99F48091E0
:1011A000B5049091B604A091B704B091B80401962B
:1011B000A11DB11D8093B5049093B604A093B7040C
:1011C000B093B80427960FB6F894DEBF0FBECDBF1C
:1011D000DF91CF911F910F91FF90EF90DF90CF9013
:1011E000BF90AF909F908F907F906F905F904F9047
:1011F0003F902F900895E981FA813197FA83E9832E
:101200003BCCE981FA813196FA83E983D2016D9171
:101210007D918D919D912D01A70196010E94732AC8
:1012200018167CF739CC1A82198236CCEAE0F0E045
:10123000FA83E98331CC200E311EF1018081918146
:10124000A281B38180938F0990939009A093910913
:10125000B0939209ED81FE8184A995A9A6A9B7A9A9
:101260008093930990939409A0939509B09396095C
:10127000F0E62F0E311CF1015ECCA7019601C301EF
:10128000B2010E940E2A6B017C01A5019401C301E9
:10129000B2010E940E2A9B01AC01C701B6010E9457
:1012A000772A4B015C01AC019B0160E070E080E8B3
:1012B0009FE30E940E2A69837A838B839C83200E8E
:1012C000311E0FE819E0AD81BE81CD90DD90ED902B
:1012D000FC90F1014080518062807380A3019201F3
:1012E000C701B6010E94732A8823C1F0A7019601A5
:1012F000C501B4010E94C62B6B017C01A3019201C0
:1013000069817A818B819C810E94C62B9B01AC01F3
:10131000C701B6010E940F2A6B017C01D801CD9252
:10132000DD92ED92FD928D01ED81FE81F096FE83BE
:10133000ED83F0E32F0E311C2BE939E02A173B0730
:1013400011F605CC00E010E0BFE7BF83E3E4ED83D6
:10135000FCCC00E010E09FE79F83A3E4AD834FCD7A
:1013600000E010E03FE73F8383E48D83AECD00E0F3
:1013700010E0FFE7FF8323E42D8301CE8F929F923D
:10138000AF92BF92DF92EF92FF920F931F93CF9392
:10139000DF93EDE0F4E08DEBDF011D928A95E9F734
:1013A0008DEB94E097838683C0ECD4E0D0934E0419
:1013B000C0934D040DEA14E0158B048BF093780470
:1013C000E0937704F583E48321E030E0DC012D93A2
:1013D0003C938BE293E09387828722EC34E039835D
:1013E000288340E050E060EA71E44093B9045093F0
:1013F000BA046093BB047093BC044AE057ED63E207
:101400007CE3D8014D935D936D937C931397C3E96F
:10141000D4E08AEF9EE6A6E8B5EF88839983AA8395
:10142000BB838AE699E4AEE9BAE58093970490938A
:101430009804A0939904B0939A0483E69BE8A3E9E7
:10144000B7E480939B0490939C04A0939D04B09375
:101450009E0489E690ECACE6B1EA80939F049093F9
:10146000A004A093A104B093A204A1E0B4E0B383CC
:10147000A283E7EFF3E01196FC93EE938DE393E004
:1014800091838083938382839583848397838683E8
:101490009187808783EA94E015969C938E931497A6
:1014A0001396DC93CE93129717963C932E93169730
:1014B000EFE8F9E084E2DF011D928A95E9F7C3EBDA
:1014C000D9E082E4FE0111928A95E9F780E992E081
:1014D0009DA78CA780E092E09FA78EA7DD24D394E0
:1014E000D092F409812C912C54018394898E9A8E88
:1014F000AB8EBC8EE12CF12C8701A801970168E02E
:1015000070E080E090E00E94B3019F8F8E8FDD8EAF
:10151000188AD092F3091D8A898A9A8AAB8ABC8A72
:10152000A801970169E070E080E090E00E94B301BB
:101530009F8B8E8BDD8A1886DFAE1D8689869A8604
:10154000AB86BC86A80197016AE070E080E090E07D
:101550000E94B3019F878E87DD861882DEAE1D82D2
:1015600089829A82AB82BC82A80197016BE070E00D
:1015700080E090E00E94B3019F838E83DD82E8A229
:10158000F9A20AA31BA38091C0029091C102A0916D
:10159000C202B091C3028CA39DA3AEA3BFA388A730
:1015A00099A7AAA7BBA7DF91CF911F910F91FF9099
:1015B000EF90DF90BF90AF909F908F9008958091B3
:1015C000CB0981112EC081E08093CB098091CC0999
:1015D0009091CD09A091CE09B091CF090197A105B5
:1015E000B105F9F48091D0098823D9F068E070E062
:1015F00080E090E00E946F019093D2098093D1091E
:1016000040E050E0BA010E94380168E070E080E0FC
:1016100090E00E946F019093D2098093D1090E94BB
:1016200004028091C30981112EC081E08093C30917
:101630008091C4099091C509A091C609B091C709CC
:101640000197A105B105F9F48091C8098823D9F063
:1016500069E070E080E090E00E946F019093CA0919
:101660008093C90940E050E0BA010E94380169E066
:1016700070E080E090E00E946F019093CA0980932F
:10168000C9090E9404028091BB0981112EC081E02A
:101690008093BB098091BC099091BD09A091BE09BE
:1016A000B091BF090197A105B105F9F48091C00976
:1016B0008823D9F06AE070E080E090E00E946F013A
:1016C0009093C2098093C10940E050E0BA010E94A2
:1016D00038016AE070E080E090E00E946F01909332
:1016E000C2098093C1090E9404028091B30981114B
:1016F0002EC081E08093B3098091B4099091B5091F
:10170000A091B609B091B7090197A105B105F9F407
:101710008091B8098823D9F06BE070E080E090E018
:101720000E946F019093BA098093B90940E050E09C
:10173000BA010E9438016BE070E080E090E00E9406
:101740006F019093BA098093B9090C94040208952B
:101750004F925F926F927F928F929F92AF92BF92C1
:10176000CF92DF92EF92FF920F931F93F8944090E5
:10177000D6045090D7046090D8047090D904C090DB
:10178000CA04D090CB04E090CC04F090CD0441305A
:10179000510509F0A4C09B01AC0124193509460983
:1017A000570929013A010091D2041091D3042091E4
:1017B000D4043091D50448015901840C951CA61C11
:1017C000B71C80169106A206B306A0F40091CE04C1
:1017D0001091CF042091D0043091D1040F5F1F4F9E
:1017E0002F4F3F4F0093CE041093CF042093D0048B
:1017F0003093D1048092D2049092D304A092D40466
:10180000B092D5040091CE041091CF042091D00461
:101810003091D1048092DA049092DB04A092DC042F
:10182000B092DD040093DE041093DF042093E00403
:101830003093E1046093D6047093D7048093D80466
:101840009093D904A0E1B7E2A30192010E948034F1
:101850006C0D7D1D8E1D9F1D6093CA047093CB047B
:101860008093CC049093CD040091FE021091FF026E
:1018700020910003309101030F3F1F4F2F4F3F4F27
:10188000F1F00091FE021091FF02209100033091CF
:1018900001030E3F1F4F2F4F3F4F89F0C090FE02B4
:1018A000D090FF02E0900003F090010321E08C143F
:1018B0009D04AE04BF0408F420E02093E204789471
:1018C0001F910F91FF90EF90DF90CF90BF90AF905E
:1018D0009F908F907F906F905F904F9008954B01F5
:1018E0005C0184189508A608B708A3019201261B7D
:1018F000370B480B590B6415750586059705D0F015
:1019000082169306A406B50640F420E030E0A90153
:1019100081149104A104B10491F4A0E1B7E20E9402
:101920008034A7019601261B370B480B590BCA01BF
:10193000B901C5CF82169306A406B50670F7A0E1DB
:10194000B7E2A50194010E9480346C0D7D1D8E1DAF
:101950009F1DB5CFFDCECF93DF9300D01F92CDB7A3
:10196000DEB71C821B821A821982BE016F5F7F4F15
:10197000CE0103960E94ED2669817A818B819C813C
:101980000E943720009761F4BE016F5F7F4FCE0148
:1019900003960E94F92669817A818B819C8127D5E3
:1019A0000F900F900F900F90DF91CF910895FF92BD
:1019B0000F931F93CF93DF93082F60E070E0CB016C
:1019C0000E946B2EFF24F3940E94201FEC01892BB0
:1019D00089F010E0CE3F8FEFD80769F0002361F166
:1019E00060E070E0CB010E946B2E81E090E0892BDB
:1019F00059F322C011E01ED5EC01892B21F0CE3F16
:101A00008FEFD80759F711111EC011E0229609F483
:101A100010E00E94D01EEC01892B21F0CE3F8FEF09
:101A2000D807E1F6111111C011E0CE3F8FEFD807B2
:101A300009F410E001110BC0CE01DF91CF911F918D
:101A40000F91FF90089511E0E4CF11E0F3CF60E033
:101A500070E0CB010E946B2E1F25812F90E0C7CF35
:101A6000CF93DF931FD6D0E0C0E0892B71F06AE0FE
:101A700070E080E090E00E946B2E81E098DF12D64B
:101A80002196C03D27E0D20781F711D60E948B2016
:101A90001092FA041092F9041092F3041092F404D4
:101AA0001092F5041092F6041092EF041092F004D4
:101AB0001092F1041092F2041092EB041092EC04D4
:101AC0001092ED041092EE041092E7041092E804D4
:101AD0001092E9041092EA041092E3041092E404D4
:101AE0001092E5041092E6044EEF5FEF6FEF7FEF88
:101AF0004093FE025093FF02609300037093010332
:101B00001092E204EAEDF4E028E0DF011D922A954C
:101B1000E9F71092D6041092D7041092D8041092CC
:101B2000D9041092D2041092D3041092D4041092CB
:101B3000D5041092CE041092CF041092D0041092CB
:101B4000D1041092CA041092CB041092CC041092CB
:101B5000CD04DF91CF9108951092060510920705EC
:101B600010920805109209051092050580910E0546
:101B700090910F0590930405809303051092020540
:101B8000109201051092FD041092FE041092FF04C1
:101B90001092000510920B0510920A0590E080E06B
:101BA0000895CF92DF92EF92FF920F931F93CF93FE
:101BB0008C01019709F055C020910E0530910F0559
:101BC000809103059091040540910E0550910F05F9
:101BD00050930405409303052817390781F01092AC
:101BE0000205109201051092FD041092FE0410925D
:101BF000FF041092000510920B0510920A058091C7
:101C00000E0590910F05019761F580910A0590915D
:101C10000B05892B21F480910203811112C0809160
:101C20000A0590910B050197E1F48091FD049091D4
:101C3000FE04A091FF04B09100050197A105B10534
:101C400081F41092FD041092FE041092FF04109291
:101C500000051092020382E090E090930B058093C0
:101C60000A0580910E0590910F05019709F01CC19E
:101C700080912405909125058017910709F014C1E2
:101C80008091200590912105A0912205B091230516
:101C9000009709F409C120911F0521110DC0409141
:101CA0002005509121056091220570912305452B57
:101CB000462B472B09F4F8C020910A0530910B05FB
:101CC0002230310509F0F0C0209101052111ECC04E
:101CD000FC01C080D180E280F380809105058823DB
:101CE00009F4D3C08091110590911205892B09F454
:101CF000FEC0209111053091120581E0223031059E
:101D000009F080E02091110530911205C1E02130E9
:101D1000310549F02091110530911205C1E02230C2
:101D2000310509F0C0E0882309F456C020911B0555
:101D300030911C0540911D0550911E05C701B6014B
:101D40000E94C22B87FD14C020911B0530911C05F9
:101D500040911D0550911E05609106057091070583
:101D600080910805909109050E94732A87FD22C081
:101D700020911B0530911C0540911D0550911E05B9
:101D8000C701B6010E94C22B181634F520911B051D
:101D900030911C0540911D0550911E05609106056E
:101DA0007091070580910805909109050E94732A9A
:101DB000811112C08091130590911405A091150511
:101DC000B0911605892B8A2B8B2B19F481E0809317
:101DD000020581E080930105CC2309F456C02091CF
:101DE0001B0530911C0540911D0550911E05C70132
:101DF000B6010E94732A87FF14C020911B05309101
:101E00001C0540911D0550911E05609106057091BD
:101E1000070580910805909109050E94C22B87FF54
:101E200022C020911B0530911C0540911D05509149
:101E30001E05C701B6010E94732A811126C0209198
:101E40001B0530911C0540911D0550911E056091A8
:101E500006057091070580910805909109050E947B
:101E6000C22B181694F48091130590911405A0913B
:101E70001505B0911605892B8A2B8B2B19F481E05F
:101E80008093020581E08093010581E09091010536
:101E9000911180E080930505C0920605D092070558
:101EA000E0920805F09209050130110509F067C1BB
:101EB00080910A0590910B05892BD9F41092100599
:101EC0001092010580910203882379F082E090E06E
:101ED00090930B0580930A051092020320910E0542
:101EE00030910F0581E0232BE9F080E01BC081E0F9
:101EF00009CF1092020380911005882349F01092B7
:101F0000020510920B0510920A0510921005EDCFF4
:101F100080910E0590910F05892BE1F080910105CC
:101F20001092010520910A0530910B0522303105F0
:101F300009F45EC088F42115310509F448C0213048
:101F4000310509F4F3C010920205109201051092B8
:101F5000100538C081E0E6CF2330310509F4B1C067
:101F60002430310581F74091FD045091FE046091C9
:101F7000FF0470910005411551056105710561F07F
:101F800041505109610971094093FD045093FE04C9
:101F90006093FF04709300054091FD045091FE048E
:101FA0006091FF0470910005452B462B472BD9F417
:101FB00020910C0530910D052130310509F046C006
:101FC0001092020510920B0510920A050CC0809128
:101FD0000203882341F082E090E090930B05809308
:101FE0000A05109202031092FB0480910205CEC0F4
:101FF0008823C9F38091130590911405A0911505CC
:10200000B0911605181619061A061B060CF07DC0AD
:1020100080910E0590910F05019709F076C080918F
:10202000130590911405A0911505B09116058093A4
:10203000FD049093FE04A093FF04B093000583E099
:1020400090E090930B0580930A05CDCF4091170542
:10205000509118056091190570911A05452B462B72
:10206000472BA9F010920205809117059091180551
:10207000A0911905B0911A058093FD049093FE0478
:10208000A093FF04B093000581E090E0DACF8823AD
:1020900099F08091030390910403A0910503B091FE
:1020A00006038093FD049093FE04A093FF04B09375
:1020B000000584E090E0C5CF1092020582E090E038
:1020C000C0CF8091FD049091FE04A091FF04B091D7
:1020D00000050097A105B10559F00197A109B109C3
:1020E0008093FD049093FE04A093FF04B093000539
:1020F0008091FD049091FE04A091FF04B091000531
:10210000892B8A2B8B2B09F06ECF80910303909142
:102110000403A0910503B0910603892B8A2B8B2B16
:1021200009F44ECF81E080930205B3CF4091FD04C6
:102130005091FE046091FF04709100054115510516
:102140006105710561F041505109610971094093C0
:10215000FD045093FE046093FF04709300054091CA
:10216000FD045091FE046091FF0470910005452B21
:10217000462B472B09F037CF8111C7CF9FCF8091D6
:10218000FB04882309F431CF8091FC04CF911F9187
:102190000F91FF90EF90DF90CF9008951092060579
:1021A0001092070510920805109209051092050576
:1021B00010920B0510920A05109204051092030567
:1021C0001092250510922405109202051092010527
:1021D0001092FD041092FE041092FF04109200056C
:1021E0001092FC041092FB0410922005109221051D
:1021F000109222051092230510921F0510921B05C4
:1022000010921C0510921D0510921E0588EE93E099
:10221000A0E0B0E08093030390930403A093050330
:10222000B093060310921705109218051092190525
:1022300010921A05109213051092140510921505AC
:1022400010921605109212051092110581E08093EC
:1022500002031092100510920F0510920E051092B5
:102260000D0510920C0590E080E0089580910E0518
:1022700090910F05892B19F580910203882351F065
:1022800080911005811106C081E08093FC04809349
:10229000FB040895209110053091020381E090E045
:1022A000332311F090E080E030E082239323892BE8
:1022B00021F01092FC0481E0EACF1092FB04089513
:1022C00082E090E0FA01918380838FEF9FEF089581
:1022D000CF93DF93EA01009711F00E949D211982AC
:1022E000188290E080E0DF91CF910895DB010097A4
:1022F00019F48FEF8C9308952EEF2C93FC013F96E9
:10230000EF30F10508F034C08827E657FE4E8F4FB6
:102310000C947834B611B411B211B011AE11AA11E7
:10232000AC11A811A611A411A1119D1199119F1111
:10233000B81180E311968C93089589E2FBCF82E275
:10234000F9CF11961C92089583E2F4CF81E2F2CF87
:1023500081E1F0CF87E2EECF8AE2ECCF80E1EACFF5
:1023600084E2E8CF88E2E6CF86E2E4CF81E3E2CF01
:1023700080E2E0CF809132059091330508959093EB
:102380003305809332050895809131050895909129
:102390003105892B809331050895982F9095809170
:1023A0003105892380933105089580913005089582
:1023B00080912E0590912F0508956115710559F0B2
:1023C000FB0130E020E070E060E02417350719F0F1
:1023D0006115710511F0CB010895A081B181A81795
:1023E000B90709F4BF012F5F3F4F3696EECF8091BA
:1023F000340581111CC041D247D2909327058093A8
:1024000026050E94121B0E94241B90932B0580938B
:102410002A050E94381E0E943F1E90932905809332
:10242000280581E08093340590E080E0089584EFF2
:102430009FEF08958F929F92AF92BF92CF92DF92BB
:10244000EF92FF920F931F93CF93DF9300D000D0B2
:1024500000D01F92CDB7DEB71A86198618861F8264
:102460001E821D821C821B821A8219828091340571
:1024700007EF1FEF882309F48BC08E010D5F1F4FFC
:102480009E012B5F3F4FAE01495F5F4FBE01675F0B
:102490007F4F90E080E00E94BC1F8C01009721F0EC
:1024A0000596029708F0C7C089859A85009709F4B8
:1024B000EFC0ED80FE802B813C812E0D3F1D4F81B2
:1024C00058854217530708F4E3C0E80EF91ED701F8
:1024D0004C912091320530913305232B09F494C09F
:1024E000413F08F069C08CE1840F8D3008F483C04F
:1024F0008DE2840F803108F481C088E3840F8B3033
:1025000008F47FC096E7C92E91E1D92EE0E6F1E10B
:102510006D817E81AE014F5F5F4F89859A851995E8
:102520005C01C114D104A1F189809A8081149104C5
:1025300079F18B819C818815990508F484C010E09D
:1025400000E04B815C8170E060E0C7010E94A23432
:1025500001151105E9F449815A8169857A858D81D2
:102560009E81680F791FC501F6011995E980FA80EF
:102570000D811E812F81388549855A856FEF7FEF48
:1025800081E090E00E94571F8C01892B09F053C015
:10259000C8012A960FB6F894DEBF0FBECDBFDF91FB
:1025A000CF911F910F91FF90EF90DF90CF90BF9050
:1025B000AF909F908F90089530E020E0220F331F5E
:1025C000F901EA5DFA4F0190F081E02D309709F4AE
:1025D00099CF842F90E01995009709F493CFDC01EF
:1025E0001296ED91FC9113971496CD90DC90309754
:1025F00009F08ECF1EC021E030E0E0CF22E030E0D5
:10260000DDCF23E030E0DACFD12CC12CE8E6F1E1D8
:102610004F3F09F07DCFE0912605F09127053097D7
:1026200019F404EF1FEF0CC08FEF90E0199500979D
:10263000B1F604EF1FEF89859A85009709F4A8CFBA
:102640000E949D21A5CF0E9486208C0189859A85B4
:102650000E949D2170E060E0C4010E941F209887C5
:102660008F830E94541F9E838D836F8178856115AF
:10267000710559F0C8010E9421239A87898706EFC6
:102680001FEF892B09F05BCF5CCF08EF1FEF59CF0D
:1026900008EF1FEFD0CF209134052111DAC787EF63
:1026A0009FEF0895809132059091330508950E941F
:1026B000441E0E949E1DEDD0E6E2F5E088E0DF01B9
:1026C0001D928A95E9F71092340590E080E0089514
:1026D00086E090E0FA019183808390E080E00895A5
:1026E00047E050E060E473E068CEDF92EF92FF9243
:1026F0000F931F93CF93DF938A01EC01C60FD71F6F
:10270000E0903805F0903905D9800E946E20D816E7
:10271000190678F082E090E0F801918380838EEFD3
:102720009FEFDF91CF911F910F91FF90EF90DF907E
:102730000895EF2841F482E090E0F80191838083CE
:1027400084EF9FEFEECF89818093370590E001966B
:10275000F8019183808390E080E0E3CFCF93DF9313
:10276000EA010E94B11C882321F00E947B200E9474
:10277000B21C82E090E0998388838BEF9FEFDF911A
:10278000CF910895CF93DF93EB0186E0FB01119287
:102790008A95E9F78FEF8883F7DD898306DE8A83E0
:1027A00007DE9D838C83DF91CF910895CF93DF93D4
:1027B000EA010E94B41C811109C082E090E0998373
:1027C000888385EF9FEFDF91CF91089590E080E0BF
:1027D000D6DD81E090E09983888390E080E0F3CFBC
:1027E0000F931F93CF93DF93EA018C01060F171FFE
:1027F0000E94B41C81110BC082E090E09983888311
:1028000085EF9FEFDF91CF911F910F910895F80110
:102810008181823038F082E090E0998388838EEF66
:102820009FEFF0CF81E090E0AADD88E090E099830F
:10283000888390E080E0E6CFCF93DF930097D1F4D8
:10284000EB01FB01329686E0DF011D928A95E9F7E4
:102850008FEF888385E089831A820E946E208B83A4
:102860000E946D209D838C8381E08E838F83DF9116
:10287000CF910895DF91CF9139CD80E793E1909387
:10288000360580933505089580913505909136057C
:1028900008951092360510923505089580913805F7
:1028A000909139050895411105C0611571058105A3
:1028B000910561F0609338057093390580933A056E
:1028C00090933B0540933C0581E0089580E0089596
:1028D000FF920F931F93CF93DF938A01EC01C60FF2
:1028E000D71FF9800E946E20F816190668F082E062
:1028F00090E0F801918380838EEF9FEFDF91CF917D
:102900001F910F91FF9008956C817D818E819F8131
:102910004B81C9DF811108C082E090E0F80191830A
:10292000808384EF9FEFEACF89818093370590E021
:102930000196F8019183808390E080E0DFCFCF9310
:10294000DF93EA01FC01E60FF71F64817581868140
:1029500097814381A8DF811109C082E090E09983CB
:10296000888384EF9FEFDF91CF91089581E090E01D
:102970009983888390E080E0F6CFE8E3F5E040813A
:10298000518162817381480F511D611D711D40830A
:102990005183628373830895CF93C09137054C2F81
:1029A00050E0609138057091390501960E94993484
:1029B0008C2FE3DF10923705CF910895009799F49B
:1029C00080913805909139052FEFFB012083892BE9
:1029D00059F02091370530E02F5F3F4F241735071E
:1029E00019F4CB01D9CF82CC0895009799F4809146
:1029F0003805909139052FEFFB012083892B59F081
:102A00002091370530E02F5F3F4F2417350719F429
:102A1000CB01C2CF6BCC08952DE0AC01249FC00147
:102A2000259F900D1124E0914105F0914205E80F9A
:102A3000F91F238134812250310981E02230310590
:102A400008F080E008950F931F93CF93DF930091D8
:102A5000430510914405D0E0C0E080E00C171D074D
:102A600049F491E0811190E0892FDF91CF911F917E
:102A70000F9108958111F5CFCE01CEDF2196EECFD3
:102A8000A0914105B0914205109729F1209143058D
:102A90003091440582179307F0F45DE0589F900150
:102AA000599F300D1124A20FB31FED91FC91119786
:102AB000309789F012968C91681768F485E0689FCA
:102AC000E00DF11D112480819181892B21F081E09D
:102AD0009281491708F080E00895EF92FF920F93DA
:102AE0001F93CF93DF93EA01FC01E60FF71F0281EA
:102AF0001381E480F5804F2D6E2DC801C1DF811157
:102B00000DC082E090E0998388838EEF9FEFDF9184
:102B1000CF911F910F91FF90EF900895C8017CDF36
:102B2000882339F082E090E09983888388EF9FEFD3
:102B3000EECF10930E0300930D03E0920F03F0927B
:102B4000100381E090E09983888390E080E0DFCFFC
:102B5000CF92DF92EF92FF920F931F93CF93DF9369
:102B60007A01EC01C60FD71FC0900D03D0900E0361
:102B700000910F0310911003412F602FC60180DFD9
:102B8000811110C082E090E0F701918380838AEF89
:102B90009FEFDF91CF911F910F91FF90EF90DF900A
:102BA000CF900895C60138DF882341F082E090E09D
:102BB000F7019183808388EF9FEFEBCF4C815D819C
:102BC0006E817F819A8189818F3F41F082E090E020
:102BD000F701918380838EEF9FEFDBCFEDE0EC9DDB
:102BE0009001ED9D300D1124E0914105F0914205D9
:102BF000E20FF31F0190F081E02D25E0029FE00D30
:102C0000F11D11240190F081E02D27E0129FE00DCD
:102C1000F11D1124808391838B81828343835483AC
:102C2000658376831F5F1093100381E090E0F701C6
:102C30009183808390E080E0ACCFEF92FF920F937E
:102C40001F93CF93DF937A018C01060F171FC0915A
:102C50004105D0914205209781F021E030E0F80154
:102C600082819381409143055091440584179507D3
:102C700010F030E020E0232B71F482E090E0F701C7
:102C8000918380838EEF9FEFDF91CF911F910F9102
:102C9000FF90EF9008954DE0489F9001499F300DBF
:102CA0001124C20FD31FB8DE882341F082E090E0E8
:102CB000F7019183808388EF9FEFE6CFF8012481AD
:102CC000358120383105C8F687818111D6CF418101
:102CD000842F90E08F7E009741F082E090E0F70132
:102CE0009183808386EF9FEFCFCF4F833E832D83E9
:102CF000268128871986223010F421E0288721E0D8
:102D000030E0F70131832083BFCF88E090E0FA0103
:102D10009183808390E080E00895FB018FEF8083B2
:102D200081E181838FEF9FEF9383828380E890E03E
:102D300095838483168217820895FB018FEF808329
:102D400091E0918382839383848384E3858381E00C
:102D500090E09783868308954BE050E06AE673E045
:102D60002CCB8F929F92BF92CF92DF92EF92FF92E5
:102D70000F931F93CF93DF93EA01FC01E60FF71F38
:102D8000828193810481B580E0914105F0914205F3
:102D9000309791F482E090E0998388838CEF9FEFE5
:102DA000DF91CF911F910F91FF90EF90DF90CF9027
:102DB000BF909F908F9008952091430530914405D6
:102DC0008217930738F082E090E0998388838EEF32
:102DD0009FEFE6CF2DE0289F6001299FD00C1124A2
:102DE000EC0DFD1DE080F180E114F10499F2828187
:102DF000081748F785E0089F80011124E00EF11EB6
:102E0000F70180819181892B29F6BB20E1F2F7E05F
:102E1000BF9E40011124C4010E945221F7019183F9
:102E20008083E0914105F0914205EC0DFD1D01907C
:102E3000F081E02DE00FF11F80819181009739F43E
:102E400082E090E0998388838DEF9FEFA9CFA40162
:102E500070E060E00E94A2348091410590914205AB
:102E6000C80ED91EF60180819181080F191FF80143
:102E7000B28281E090E09983888390E080E090CFF7
:102E8000AF92BF92CF92DF92FF920F931F93CF9397
:102E9000DF93EA01FC01E60FF71F82819381F48042
:102EA00000914105109142050115110581F482E060
:102EB00090E0998388838CEF9FEFDF91CF911F91F2
:102EC0000F91FF90DF90CF90BF90AF900895209129
:102ED0004305309144058217930738F082E090E073
:102EE000998388838EEF9FEFE8CF2FEF2F0D2C3F34
:102EF000A8F72DE0289F6001299FD00C11240C0D0C
:102F00001D1DF80180819181892B89F6F5E0FF9ED6
:102F100050011124C5010E945221F8019183808340
:102F2000E0914105F0914205EC0DFD1D80819181FC
:102F3000009739F482E090E0998388838DEF9FEFCA
:102F4000BCCFA50170E060E00E94A234E091410591
:102F5000F0914205EC0DFD1DF28281E090E0998335
:102F6000888390E080E0A9CFCF92DF92EF92FF922A
:102F70000F931F93CF93DF93860F971FFC0102815E
:102F800013818091410590914205892B81F082E067
:102F900090E0FA01918380838CEF9FEFDF91CF91D6
:102FA0001F910F91FF90EF90DF90CF900895C8018F
:102FB000B0E0A0E00197A109B1098F3F9F4FA105A3
:102FC000B10540F082E090E0FA01918380838EEFBA
:102FD0009FEFE4CF7A018DE0809F6001819FD00C4C
:102FE0001124C6010E945221EC01009741F482E0B5
:102FF00090E0F701918380838DEF9FEFCFCFA60103
:1030000070E060E00E94A234D0934205C093410575
:10301000109344050093430590E080E02FEF3FEFCD
:103020008017910741F481E090E0F701918380835C
:1030300090E080E0B3CF3C872B8701962D96F0CFB0
:10304000CF92DF92EF92FF920F931F93CF93DF9374
:10305000EC01D12CC12C10E000E0F12CE12C8A8194
:103060008017110609F0BCF4AE01455F5F4F63E0C5
:1030700070E0C7010E94C921009721F02FEF3FEFB8
:103080003C872B87DF91CF911F910F91FF90EF909D
:10309000DF90CF900895E881F981EC0DFD1D23812B
:1030A0003481C90101960115110519F44F8144FDC0
:1030B000049661E070E0C3D7E816F90608F47C01D5
:1030C0000F5F1F4F85E0C80ED11CC9CFF894209127
:1030D0003F053091400581E02115310509F080E080
:1030E000232B09F0789408954F925F926F927F920C
:1030F0008F929F92AF92BF92CF92DF92EF92FF9208
:103100000F931F93CF93DF933C01660E771EF3015D
:10311000828193814C01B12CA12CC0914105D091A9
:103120004205209769F021E030E0609143057091FD
:1031300044058617970710F030E020E0232BC1F4F8
:1031400082E090E0FA01918380838EEF9FEFDF9120
:10315000CF911F910F91FF90EF90DF90CF90BF9094
:10316000AF909F908F907F906F905F904F90089559
:103170008092110390921203A0921303B092140351
:103180006DE0689F9001699F300D1124C20FD31F1D
:10319000F3018181833040F082E090E0FA01918375
:1031A000808386EF9FEFD3CF2A012B813C81232B95
:1031B000F1F4288139819F8191FF2EC0232B09F4DE
:1031C00064C0209146059A81422F490F5527551F0B
:1031D000BA0141E050E06138710514F050E040E080
:1031E000452B09F452C02A87920F909346058150CF
:1031F000823008F476C06ADF882309F4C7C0F3017F
:103200008181813009F480C008F470C0823009F4F3
:10321000B5C090E080E090C0232BB9F12091450526
:103220009A81E22FE90FFF27FF1F41E050E0ED3FB9
:10323000F10514F050E040E0452B39F12A87920F58
:1032400090934505D4CFA081B181A20FB31F1196F1
:103250006C91060F111D0196295F3F4F841795074A
:1032600094F3C114D104C9F48F8184FF16C035D7FB
:1032700021E0A8014B5F5F4F8417950708F420E019
:10328000A7014B5F5F4F21110EC082E090E0F20179
:103290009183808387EF9FEF5ACF1FD721E0A8014A
:1032A0004F5F5F4FE9CF88819981E80EF91EF701E2
:1032B00014830383FFEFCF1ADF0A7A018A818C150A
:1032C0001D0409F00CF497CFE881F981EE0DFF1D84
:1032D000428150E030E020E010E000E090E080E04B
:1032E000BDCFF12CE12CD12CC12CE8CF81E090E0B6
:1032F0009C838B83A8DB882309F48BCF81E090E04B
:103300003ED880E44AD885CF8B859C85019651F0C4
:1033100083E090E09C838B8382E090E030D880E46F
:1033200036D877CF22E082169104A104B1047CF450
:10333000CE0186DE009761F3789422E030E0F2015E
:1033400031832083892BF9F08DEF9FEF00CF2D8102
:103350003E81809107039091080328173907C1F631
:1033600060910B0370910C03AE01455F5F4F80913C
:10337000090390910A030E94E022DCCF82E090E0F2
:103380009C838B8346CF90E080E0E1CE82E090E0AA
:10339000F2019183808385EF9FEFD9CE8F929F9228
:1033A000AF92BF92CF92DF92EF92FF920F931F9353
:1033B000CF93DF93EA018C01060F171FF80181817B
:1033C000833098F082E090E09983888386EF9FEFC6
:1033D000DF91CF911F910F91FF90EF90DF90CF90F1
:1033E000BF90AF909F908F900895809141059091EC
:1033F0004205892B61F081E090E0209143053091F6
:103400004405232B11F490E080E0892B39F482E00D
:1034100090E0998388838EEF9FEFDACF57DE882381
:1034200009F4D6C0F8018181813009F48CC0E8F03C
:10343000823099F42091430530914405E091410593
:10344000F091420590E080E041E050E02817390714
:1034500009F0B4C0F8DA811117C0789481E090E0E7
:103460009983888390E080E0B3CF20914305309129
:103470004405E0914105F091420590E080E041E093
:1034800050E02817390741F481E090E00E94BF1115
:1034900080E40E94CD11E1CF63817481672B11F02C
:1034A0005483438301963D96ECCFE0914105F09122
:1034B0004205E00FF11F238134812230310569F488
:1034C000238534852F3F3F4F41F422E0C216D104BB
:1034D000E104F1040CF5CF01B3DD4FEFC41AD40AB7
:1034E000E40AF40A035F1F4F4091430550914405DD
:1034F00070E060E0C416D506E606F70664F50097AE
:10350000A1F27894892B09F4A9CF82E090E0998305
:1035100088838DEF9FEF5CCF458156812091070313
:103520003091080342175307C1F6AF01455F5F4F63
:1035300060910B0370910C038091090390910A0331
:103540000E94E022CACF10E000E090E080E0C12CB1
:10355000D12C7601C9CF0097A1F610E000E0812CB4
:10356000912C540183E0E82EF12C1AC0E091410522
:10357000F0914205E00FF11F83819481029749F495
:10358000F482E38282E090E00E94BF1180E40E9416
:10359000C7118FEF881A980AA80AB80A035F1F4F4D
:1035A0008091430590914405B0E0A0E0881699060B
:1035B000AA06BB06DCF290E080E0A3CF63817481B1
:1035C0006230710511F45483438301963D963ECFDA
:1035D00082E090E09983888385EF9FEFF9CE009792
:1035E000B9F48FEFFB018083209111033091120316
:1035F0004DE0429FC001439F900D1124E091410591
:10360000F0914205E80FF91F8285FB01818308953F
:103610000C94761188E090E0FA019183808390E029
:1036200080E008951092400510923F05E1E4F5E036
:1036300086E0DF011D928A95E9F78CEA96E1909386
:103640003E0580933D05089580913D0590913E058E
:1036500008952F923F924F925F926F927F928F9236
:103660009F92AF92BF92CF92DF92EF92FF920F9311
:103670001F93CF93DF93CDB7DEB762970FB6F89461
:10368000DEBF0FBECDBFF89420913F0530914005BD
:103690002F5F3F4F3093400520933F057894209152
:1036A0004105309142053B832A83232B09F456C1FF
:1036B0002091430530914405232B09F44FC14D87D8
:1036C0005E876F87788B9C878B878A819B819A8B9B
:1036D000898BD12CC12C198210E000E08091430528
:1036E00090914405C816D90618F43981332329F17D
:1036F000F89480913F059091400501979093400583
:1037000080933F057894C80162960FB6F894DEBFA7
:103710000FBECDBFDF91CF911F910F91FF90EF9022
:10372000DF90CF90BF90AF909F908F907F906F90E1
:103730005F904F903F902F900895B60190E080E009
:103740002AD38887A989BA8917968C91179781FD02
:103750008DC013968D919C911497039709F086C0A4
:103760001596ED91FC91FF83EE832B853C85E21746
:10377000F30709F07BC0712C612C512C412C63C0E4
:1037800093D39A87898710E04114510431F4A989B1
:10379000BA8917961C9112951170A989BA89ED9171
:1037A000FC91E60DF71D23803480111169C0BFEF35
:1037B0002B1A3B0A61E070E0C10141D45C01A98988
:1037C000BA891B968D919C918F3F980709F45CC034
:1037D000B50137D74C01009709F4BBC0E985FA85DC
:1037E000E80FF91FA989BA891A968C91840D8083F4
:1037F00011114DC08F010F5F1F4F809107039091F2
:103800000803AE81BF81A817B90709F09DC081E008
:1038100090E0B885BB2311F090E080E0710109854C
:103820001A859501A401B6019195819591093FD31F
:103830008C01892B11F0C40180D58FEF481A580AEA
:1038400095E0690E711CA989BA8912968C9184152C
:10385000150429F024F0B981BB2309F491CFE88540
:10386000EE2321F0B60190E080E097D2FFEFCF1A6F
:10387000DF0A29893A89235F3F4F3A8B298B2ECF64
:10388000E5E02E0E311C96CFC5010CD5A3CF8D855A
:103890009E85AF85B88981839283A383B4838F018A
:1038A0000B5F1F4FAACFE080F180EC81FD81EE0E0F
:1038B000FF1ED70113966D917C9114978C918F3FC9
:1038C000E1F1E1E0F0E002C0EE0FFF1F8A95E2F7C0
:1038D000CF01092E000CAA0BBB0BFB0140815181CB
:1038E0006281738184239523A623B72321E0892B4A
:1038F0008A2B8B2B09F420E0D8012C93D701119649
:103900008C91080F111DEA81FB813196FB83EA83BC
:103910002C813D81295F3F4F3D832C83A989BA8942
:10392000ED91FC91E60DF71D82812A813B81821782
:10393000130611F00CF0B7CF6ACFF701418150E0C8
:10394000C8010E949934DACF1D821C821B821A8220
:10395000E5CF31E0398306EF1FEF6FCF10E000E0D5
:10396000C7CEB4CB789408952F923F924F925F9236
:103970006F927F929F92AF92BF92CF92DF92EF921F
:10398000FF920F931F93CF93DF9300D000D0CDB75A
:10399000DEB70091410510914205992493940115D9
:1039A000110509F43EC0A0904305B09044058EDB9C
:1039B000982E8823B1F11092420510924105109281
:1039C00044051092430510924505109246058FEF6D
:1039D0009FEFDC018093110390931203A0931303D4
:1039E000B093140378947BD31E830D83C12CD12C08
:1039F0007601C501B0E0A0E089839A83AB83BC83E4
:103A000022242A94322C89819A81AB81BC81C816E8
:103A1000D906EA06FB06F4F0C8018FD480E40E94C0
:103A2000CD11892D26960FB6F894DEBF0FBECDBFFF
:103A3000DF91CF911F910F91FF90EF90DF90CF908A
:103A4000BF90AF909F907F906F905F904F903F900E
:103A50002F900895AD81BE8192E0C916D104E10492
:103A6000F1040CF51B968D919C918F3F980709F0FE
:103A700028D5ED81FE8134862386ED81FE8180810B
:103A80009181B12CA12C412C512C3201892B59F55B
:103A9000BFEFCB1ADB0AEB0AFB0AED81FE813D96F4
:103AA000FE83ED83B0CF15962D913C9116978091B2
:103AB00007039091080328173907F9F61B968D9193
:103AC0009C91ADD5DACF8A0D9B1DDC018D919C9127
:103AD000009709F032D4BFEF4B1A5B0A6B0A7B0ADE
:103AE000E5E0AE0EB11CAD81BE818D919C91119728
:103AF00012964C9150E070E060E044165506660660
:103B000077060CF31AD4C4CFCF93DF93EA012CDFEE
:103B1000811109C082E090E09983888385EF9FEF4F
:103B2000DF91CF91089581E090E00E94BF1181E084
:103B300090E09983888390E080E0F2CF15DF1092C7
:103B40003E0510923D05089542E050E06CEA73E0B6
:103B50000C94DD11FF920F931F93CF93DF938A0193
:103B6000EC01C60FD71FF980B9D20897F8161906CD
:103B700071F068F082E090E0F801918380838EEF2D
:103B80009FEFDF91CF911F910F91FF9008956C816E
:103B90007D818E819F814B810E945314811108C0C9
:103BA00082E090E0F8019183808384EF9FEFE9CF7A
:103BB000F9800E944E144F2D50E0BE01685F7F4F88
:103BC0000E94993489810E94BD1481E090E0F8013F
:103BD0009183808390E080E0D4CFDF92EF92FF92D8
:103BE0000F931F93CF93DF938A01EC01C60FD71F6A
:103BF0000E944E147C01D98071D2DD2059F00297C9
:103C000021E030E0D816190619F010F030E020E07D
:103C1000232B79F482E090E0F801918380838EEF8A
:103C20009FEFDF91CF911F910F91FF90EF90DF9069
:103C30000895EF2841F482E090E0F80191838083B9
:103C400084EF9FEFEECFF9800E944E144F2D50E08D
:103C5000BE016E5F7F4F0E94993489810E94BD141E
:103C600081E090E0F8019183808390E080E0D9CFFB
:103C700084EA9DE1909348058093470508958091DB
:103C800047059091480508950895FC01118210821E
:103C9000938382830895DB011D921C92DC011296AE
:103CA000ED91FC9113977183608313967C936E93CF
:103CB00012970895FC0180819181DB018D939C9383
:103CC000A081B181109741F08D919C919183808367
:103CD000892B11F4F383E2830895FC0180819181A3
:103CE000DB018D939C93892B11F473836283718321
:103CF00060830895FC01118210829383828308956A
:103D0000CF93DF931F921F92CDB7DEB71A8219822D
:103D1000F894BE016F5F7F4F8EE495E0CBDF898121
:103D20009A81009709F009D389819A81892B89F7B3
:103D3000BE016F5F7F4F82E595E0BCDF89819A818C
:103D4000009709F0FAD289819A81892B89F77894B2
:103D50000F900F90DF91CF910895CF93DF931F9233
:103D60001F92CDB7DEB71A821982F894BE016F5F39
:103D70007F4F8AE495E09EDF89819A81009709F060
:103D8000DCD289819A81892B89F778940F900F90E2
:103D9000DF91CF91089581E0089590E080E008954B
:103DA000EF92FF920F931F93CF93DF931F921F9277
:103DB000CDB7DEB71A8219828091490507EF1FEF50
:103DC0008823A1F1F894BE016F5F7F4F82E595E0F3
:103DD00071DF789489819A81EE24E394F12C892B08
:103DE00051F4F894BE016F5F7F4F8EE495E062DF7F
:103DF0007894F12CE12C89819A810EEF1FEF0097C6
:103E0000A9F0FC014281538164E070E01AD68C0174
:103E1000892B61F0F89469817A81C701880F991F15
:103E2000880F991F825B9A4F58DF7894C8010F90D2
:103E30000F90DF91CF911F910F91FF90EF90089518
:103E40000F931F93CF93DF9300D01F92CDB7DEB7B0
:103E50001C821B821A8219828091490507EF1FEF8D
:103E60008823C1F0AE014D5F5F4F64E070E0CE018A
:103E700001965AD68C01892B69F4E981FA818B81EC
:103E80009C8193838283F89469817A818AE495E0A6
:103E900002DF7894C8010F900F900F900F90DF9180
:103EA000CF911F910F9108955FD7049608958F9237
:103EB0009F92AF92BF92CF92DF92EF92FF920F93B9
:103EC0001F93CF93DF931F921F92CDB7DEB71A8255
:103ED0001982BC016F5F7F4F6330710598F0AA248F
:103EE000AA94BA2CC5010F900F90DF91CF911F912A
:103EF0000F91FF90EF90DF90CF90BF90AF909F9089
:103F00008F9008954115510551F3480159018A01D7
:103F10006C01CADF8815990511F7E114F104F9F273
:103F20008E0D9F1DA816B906D0F2809149058823F1
:103F3000F1F0F894B501645071099701AE014F5F3B
:103F40005F4FC801049685D65C01892B71F4898185
:103F50009A81F80193838283C601880F991F880F85
:103F6000991FB801825B9A4F96DE7894BBCF87EF9A
:103F7000A82EBB24BA94B6CFAF92BF92CF92DF9255
:103F8000EF92FF920F931F93CF93DF931F921F9295
:103F9000CDB7DEB71A821982892B09F047C06115A7
:103FA000710509F443C04115510509F43FC02115BD
:103FB000310509F43BC001151105C1F18091490596
:103FC0008823B9F179016A015B01F894BE016F5F42
:103FD0007F4F8AE495E06EDE789489819A8100971C
:103FE00059F1DC0112966D917C91A80104964AD694
:103FF0008C01E981FA81D501ED93FC938281938153
:104000000496F601918380834FDFD7018D939C93B3
:10401000C8010F900F90DF91CF911F910F91FF90EA
:10402000EF90DF90CF90BF90AF9008950FEF1FEF0C
:10403000EFCF07EF1FEFECCF0EEF1FEFE9CFCF93DE
:10404000DF93EC01672B71F498D68C179D0760F015
:104050008BD62496C80FD91F8AD68C0F9D1FDF914F
:10406000CF91089587D6F1CF90E080E0F8CF0F93FD
:104070001F93CF93DF932091490521112BC08B0112
:10408000EC018EE495E001DE82E595E0FEDD8AE458
:1040900095E0FBDD86D00097C1F46FD670E060E05C
:1040A000CEDF45E153E062E070E073D1009769F440
:1040B000809115039091160372D6B801CE01A7D452
:1040C000009719F421E020934905DF91CF911F91CA
:1040D0000F91089584EF9FEFF8CF4CC64EC6CF9353
:1040E000DF934ED6EC01892B11F40ADE36DECE01C9
:1040F000DF91CF910895CF93DF9342D6EC01892BC6
:1041000009F4FEDDCE01DF91CF9108958091150372
:10411000909116030895CF93DF9380914905D0E0E5
:10412000C0E08823D1F040D6EC01892BB1F4E8DD62
:1041300014DE8091150390911603C3D1D2D2EC0105
:10414000892B59F48EE495E0D5DD82E595E0D2DD4A
:104150008AE495E0CFDD10924905CE01DF91CF9141
:104160000895CF93DF930097A1F4DF91CF91089545
:10417000EC011A821982A883309711F0928381830F
:104180002F5F3F4FFC01860F971F4217530781F7A0
:10419000ECCF30E020E0F0E0E0E0AFEF6F5F7F4F8A
:1041A000F4CFAF92BF92CF92DF92EF92FF920F9334
:1041B0001F93CF93DF9383E796E07C012CEFE222FD
:1041C00088EBC82E83E0D82E9EEBA92E93E0B92E63
:1041D000CAEBD6E08E01D6014D915D916D01F501DE
:1041E000619171915F01D8011196FC92EE92159642
:1041F0005C934E93149713965C934E931297179675
:104200007C936E9316979B012F5F3F4F249FC001B5
:10421000259F900D349F900D112419969C938E9399
:104220001897C7019EDFF80180859185E80EF91E79
:10423000065F1F4FFEEBCF16F3E0DF0661F6E8E501
:10424000F5E088E191E0DF019C011D9221503040B2
:10425000E1F7109257051092560588ED96E01F8EF3
:104260001E8E1BA21AA219A218A21DA21CA21FA276
:104270001EA22A968C179D0791F71092B7061092EE
:10428000B6061092B9061092B80690E080E0DF9171
:10429000CF911F910F91FF90EF90DF90CF90BF9043
:1042A000AF900895009761F1F8948131910580F401
:1042B0008091BC069091BD06892B29F58091C60698
:1042C0009091C706892B31F021E081E090E00BC08E
:1042D0008197A8F48091D0069091D106892B79F02E
:1042E00022E082E090E0EAE0E89FD001E99FB00D93
:1042F0001124A654B94F8D919C91009741F4789464
:1043000090E080E0089520E090E080E0ECCFE29F34
:10431000F0011124E654F94FDC0111964D915C91A6
:1043200051834083428153814150510953834283D9
:10433000FC012193CF0178940895009749F1DC01A5
:104340008E91863041F4E091B806F091B90630972D
:10435000F9F0CD0119948630D8F4282F30E0F89484
:104360008FEF8C938AE0829FF001839FF00D1124E0
:10437000E654F94F8081918112969C938E93119708
:10438000B183A08382819381019693838283789401
:104390000895CF92DF92EF92FF920F931F93CF93E6
:1043A000DF939C018BE595E08C7F4115510509F465
:1043B00085C02115310509F481C06115710509F425
:1043C0007DC08A01AB01B9016D5F7F4F6C7F9B019E
:1043D0002F5F3F4F249F7001259FF00C349FF00CFE
:1043E0001124F894EAEBF6E023E030E0E901A6A11D
:1043F000B7A1C68CD78CCD2809F054C0109709F00E
:104400003CC0C0905605D090570525E131E02C19ED
:104410003D092E153F0530F47894CFEFDFEF86EF9E
:104420009FEF1FC02AE02C9FF0012D9FF00D11245B
:10443000E654F94F918380835583448353834283A9
:1044400077836683F186E0868CDEEC0CFD1CF092AF
:104450005705E09256057894CF3FDC0701F390E0D2
:1044600080E0F801D183C083DF91CF911F910F913C
:10447000FF90EF90DF90CF900895AE15BF0590F0BC
:104480002AE02C9FF0012D9FF00D1124E654F94FE6
:1044900091838083558344835383428377836683E8
:1044A00060DED9CF8A0F9B1F2F5F3F4F3A96263091
:1044B000310509F09BCFCFEFDFEFCDCF8FEF9FEF2F
:1044C000D3CFFF920F931F93CF93DF939C01235081
:1044D00031092330310508F070C0EC01F89485E013
:1044E0009AE09C9FD0019D9FB00D1124AE53B94F0F
:1044F000082F10E0909FF001919FF00D1124E654D9
:10450000F94F20813181C017D10714F1FF24F394B2
:10451000232B41F52AE0209FF001219FF00D11246B
:10452000E654F94F80915605909157054085518585
:10453000841B950B90935705809356052C9FF00193
:104540002D9FF00D1124E654F94F118610861CC0E2
:10455000232B39F42D913C911197232BA9F48150F1
:10456000C7CFF12C8AE08C9FF0018D9FF00D1124B4
:10457000E654F94F4085518570E060E0808191817B
:104580000E94A234F110C6CF8AE08C9FF0018D9F6B
:10459000F00D1124E654F94F118210821582148215
:1045A0001382128217821682789490E080E0DF9165
:1045B000CF911F910F91FF9008958FEF9FEFF7CF4D
:1045C0004115510549F1009739F16115710521F146
:1045D000F8942091B6063091B706232BB9F42091B8
:1045E000B8063091B906232B89F49093B7068093CF
:1045F000B6067093B9066093B806789426E030E06A
:1046000090E080E0FA0131832083089578942FEFC1
:104610003FEF86EF9FEFF6CF8FEF9FEF089506975E
:1046200069F4F8941092B7061092B6061092B90683
:104630001092B806789490E080E008958FEF9FEF95
:1046400008956115710519F4F0E0E0E011C08630BD
:10465000910581F4E091B606F091B7063097A1F389
:10466000CB0101961995009779F3FC0186E08193BF
:10467000CF0108959C01235031092330310520F7E3
:104680002AE0289FD001299FB00D1124A654B94FCC
:104690002D913C911197232BB9F216962D913C91B7
:1046A00017972617370780F2F89412962D913C91B0
:1046B00013972115310529F0ED91FC911197309751
:1046C00011F47894C1CF4181528111965C934E933D
:1046D0002150310913963C932E931297819378942D
:1046E000C7CFE0E7F6E086E4DF011D928A95E9F79F
:1046F000E8E5F5E088E191E0DF019C011D922150A1
:104700003040E1F71092570510925605EAEBF6E0BB
:104710008CE3DF011D928A95E9F7E6EBF6E084E091
:10472000DF011D928A95E9F790E080E00895CF932C
:10473000DF93C0911703D0911803CF3FDC0759F4E2
:1047400064D5909318038093170397FF09C0D09303
:104750001803C093170384EF9FEFDF91CF91089563
:1047600090E080E0FACF8230910528F48093F6063D
:1047700090E080E008958FEF9FEF08954F925F9251
:104780006F927F92AF92BF92CF92DF92EF92FF92A1
:104790000F931F93CF93DF931F921F92CDB7DEB776
:1047A0001A821982009709F479C06115710509F41C
:1047B00075C0209117033091180307EF1FEF2F3FAB
:1047C0003F4F09F445C06B015C01412C512C320173
:1047D000F12CE12C10E000E09E012F5F3F4FA6017D
:1047E0004E195F09B5016E0D7F1D809117039091E1
:1047F00018036AD5892B09F04BC089819A810097EB
:1048000041F4E114F10429F42091F606222309F47D
:1048100042C0E80EF91EEC14FD04D0F480E84816FE
:1048200084E858068EE16806710420F560E070E0C7
:10483000CB010E946B2E2AE0420E511C611C711CA0
:104840000A3F4FEF140721F0043F8FEF1807A1F440
:10485000C8010F900F90DF91CF911F910F91FF90A2
:10486000EF90DF90CF90BF90AF907F906F905F9070
:104870004F90089501EF1FEF81E090E0013F2FEF8F
:10488000120711F090E080E0892B09F4A5CFE0CF6A
:1048900004EF1FEFDDCF0AEF1FEFDACF0FEF1FEFAF
:1048A000D7CF4F925F926F927F92AF92BF92CF928B
:1048B000DF92EF92FF920F931F93CF93DF931F929C
:1048C0001F92CDB7DEB71A821982009709F479C01A
:1048D0006115710509F475C0209117033091180313
:1048E00007EF1FEF2F3F3F4F09F445C06B015C01FD
:1048F000412C512C3201F12CE12C10E000E09E0102
:104900002F5F3F4FA6014E195F09B5016E0D7F1D48
:1049100080911703909118038DD4892B09F04BC017
:1049200089819A81009741F4E114F10429F42091DE
:10493000F606222309F442C0E80EF91EEC14FD0429
:10494000D0F480E8481686E9580688E968067104BC
:1049500020F560E070E0CB010E946B2E2AE0420E51
:10496000511C611C711C0E3F4FEF140721F0043FD6
:104970008FEF1807A1F4C8010F900F90DF91CF912E
:104980001F910F91FF90EF90DF90CF90BF90AF906D
:104990007F906F905F904F90089502EF1FEF81E03E
:1049A00090E0023F2FEF120711F090E080E0892B9A
:1049B00009F4A5CFE0CF04EF1FEFDDCF0EEF1FEF1F
:1049C000DACF0FEF1FEFD7CF809117039091180325
:1049D0008F3F980749F011D4892B49F48FEF9FEF4F
:1049E000909318038093170390E080E0089584EF7C
:1049F0009FEF0895FC01680F791F90E080E0E617B3
:104A0000F70709F408952191820F911DF8CF2091A5
:104A1000F706211113C08BDE009791F41092FD066A
:104A20001092FC061092FB061092FA061092F906FC
:104A30001092F80621E02093F706089584EF9FEF87
:104A40000895AF92BF92CF92DF92EF92FF920F93B1
:104A50001F93CF93DF93009709F460C04630510550
:104A600008F45CC02091F706C7EFDFEF222309F4BA
:104A700049C08C01060F171FF801C080D180C114F6
:104A8000D10409F44EC096012A5F3F4F42175307E5
:104A900008F447C07C018091FC069091FD06938349
:104AA0008283B6016C5F7F4F5801A60EB71EC80106
:104AB000A1DFF5019183808364E070E0C8015EDED0
:104AC000EC01892BF9F481E090E04DDEB601C801DC
:104AD000049654DEEC01892B91F462E070E0C5018C
:104AE0004DDEEC01892B59F4C70127DC8091FC06CF
:104AF0009091FD0601969093FD068093FC0690E050
:104B000080E031DECE01DF91CF911F910F91FF90B8
:104B1000EF90DF90CF90BF90AF900895CFEFDFEF91
:104B2000F1CFC9EFDFEFEECF6F927F928F929F921E
:104B3000AF92BF92CF92DF92EF92FF920F931F93AB
:104B4000CF93DF9300D01F92CDB7DEB7009709F463
:104B50007AC04115510509F476C02091F70607EF98
:104B60001FEF222309F44DC03A017B015C0164E090
:104B700070E0CE01019695DE8C01892B09F041C0D1
:104B800009811A810115110509F45AC0480186E00E
:104B9000880E911CB701680D791D809119039091C1
:104BA0001A034FDD6C01009709F450C0A70170E0B3
:104BB00060E00E94A23489819A81AB81BC81EC0CB7
:104BC000FD1CF70181939193A193B1937F0181E043
:104BD00090E0C9DDB801C70164DE892B31F562E0E0
:104BE00070E0C701800F911F5CDE8C01892BE9F416
:104BF00090E080E0B8DDF501D182C082F3019182BE
:104C00008082C8010F900F900F900F90DF91CF918D
:104C10001F910F91FF90EF90DF90CF90BF90AF90DA
:104C20009F908F907F906F90089590E080E09BDD43
:104C3000F50111821082F30111821082C6017DDB21
:104C400009EF1FEFDECF0FEF1FEFDBCF06EF1FEFF8
:104C5000D8CF0097A1F04115510589F021153105F4
:104C600071F0F90136966E177F0748F0DC012D933D
:104C70003C93DA01ED93FC9390E080E008958FEF90
:104C80009FEF0895AF92BF92CF92DF92EF92FF9283
:104C90000F931F93CF93DF93009709F45FC04115E3
:104CA000510509F45BC06530710508F457C02091C7
:104CB000F706C7EFDFEF222391F1DC01CD90DC9006
:104CC00011971296ED91FC9196012A5F3F4FC9EF23
:104CD000DFEF2617370719F5C091F806D091F906CE
:104CE000209749F521E030E03093F9062093F8064B
:104CF0007A018C01F093FB06E093FA065601B4E0CA
:104D0000AB0EB11CB50176DE0A0D1B1DF80120812A
:104D100031818217930729F5D701CD92DC92CE011C
:104D2000DF91CF911F910F91FF90EF90DF90CF9087
:104D3000BF90AF9008952091FA063091FB062F5F47
:104D40003F4FCCEFDFEFE217F30790F2CBEFDFEF4F
:104D50002E173F0768F2D0E0C0E0CACFCFEFDFEFF9
:104D6000DECFC3EFDFEFDBCF84E090E0089582E099
:104D700090E008958CEF9FEF089580E290E0089511
:104D80001092FD061092FC061092FB061092FA0695
:104D90001092F9061092F80690E080E00895909342
:104DA0001A038093190308958091F706882391F0E0
:104DB0000BDE009789F41092FD061092FC0610920B
:104DC000FB061092FA061092F9061092F80610925D
:104DD000F706089590E080E00895009749F0611586
:104DE000710531F0FC0111821082FB0111821082E9
:104DF0000895F3CFCF93DF938091FE069091FF0645
:104E00000E94A630EC0180910007909101070E945A
:104E1000A630019771F480910207909103072197C2
:104E200071F401969093030780930207DF91CF916D
:104E300008958091020790910307CD2B91F301977C
:104E4000F1CFCF93DF9380910607909107070E94DF
:104E5000A630EC0180910807909109070E94A630C6
:104E6000019771F480910A0790910B07219771F4D3
:104E7000019690930B0780930A07DF91CF910895D5
:104E800080910A0790910B07CD2B91F30197F1CFF9
:104E9000CF93DF9380910807909109070E94A63075
:104EA000EC0180910607909107070E94A6300197B8
:104EB00071F480910A0790910B07CD2B71F4019644
:104EC00090930B0780930A07DF91CF91089580910B
:104ED0000A0790910B07219791F30197F1CFCF9398
:104EE000DF9380910007909101070E94A630EC01AA
:104EF0008091FE069091FF060E94A630019771F402
:104F00008091020790910307CD2B71F40196909345
:104F1000030780930207DF91CF91089580910207E4
:104F200090910307219791F30197F1CF0297843174
:104F3000910540F48C539C4FFC018081082E000C9D
:104F4000990B08958FEF9FEF08950F931F93CF93C1
:104F5000DF93CDB7DEB78C0120E030E040E85FE3BF
:104F6000FB016081718182819381BDD281110DC06D
:104F70008091020790910307F801918380838091CB
:104F80000A0790910B0793838283DF91CF911F9142
:104F90000F9108958F929F92AF92BF92CF92DF921E
:104FA000EF92FF920F931F93CF93DF93CDB7DEB7AE
:104FB0007B015A0120E030E040E85FE3FB016081C3
:104FC0007181828193818FD2882309F48BC0F5018E
:104FD000808190E09093FF068093FE06F801808127
:104FE00090E09093010780930007F6016081718142
:104FF00082819381E4D27093070760930607F401DE
:105000006081718182819381DAD270930907609304
:1050100008078091FE069091FF0660E00E943D30F7
:10502000809100079091010760E00E943D308091DF
:1050300006079091070760E00E943D3080910807C5
:105040009091090760E00E943D308091FE069091AA
:10505000FF0661E00E94793080910007909101077E
:1050600061E00E947930809106079091070761E026
:105070000E947930809108079091090761E00E94B1
:1050800079308091FE069091FF0650DF41E050E0BC
:105090006FE677E2DFD3809100079091010746DF4A
:1050A00041E050E06AEF76E2D5D380910607909117
:1050B00007073CDF41E050E068E477E2CBD3809122
:1050C00008079091090732DF41E050E061E277E2A2
:1050D000C1D380E090E0A0E8BFE3F7018083918333
:1050E000A283B383DF91CF911F910F91FF90EF9037
:1050F000DF90CF90BF90AF909F908F90089540E841
:1051000055E260E070E090E080E000C08130910501
:1051100079F01CF4892B39F008958230910561F003
:10512000039771F0089526E08BE197E00C94983195
:1051300026E088EB97E0FACF26E085E598E0F6CF09
:1051400026E082EF98E0F2CF1F920F920FB60F92F7
:1051500011240BB60F922F933F934F935F936F934E
:105160007F938F939F93AF93BF93EF93FF938FE8BA
:105170009DEF9093250180932401BAD0FF91EF9188
:10518000BF91AF919F918F917F916F915F914F915F
:105190003F912F910F900BBE0F900FBE0F901F905D
:1051A00018958FE89DEF9093250180932401A3E744
:1051B000B0E08C918E7F8C93E0E2F1E080818C7F77
:1051C0008083E1E2F1E08081877E8083808184605A
:1051D000808380818C7F80838C9181608C93089503
:1051E000E3E7F0E0808190819E7F90838170089555
:1051F00081E0089510920E07089568EE73E080E054
:1052000090E069D590E080E0089526E040E050E12C
:105210006EE070E08BE197E00E9498318BE197E0BF
:10522000BDD7892B21F08BE197E0D2D7F7CF90E063
:1052300080E00895CF92DF92EF92FF920F931F9339
:10524000CF93DF936B017A01E901198218828BE118
:1052500097E0A4D7892B69F18601CC24C39482E01E
:10526000D82E80910E07811110C08BE197E0B0D746
:105270000297B9F7C0920E07F801D1928F01888189
:105280009981019699838883ECCF888199818E15C5
:105290009F0578F48BE197E09BD78F3F9807A9F3A0
:1052A000F80181938F018881998101969983888380
:1052B000ECCF90E080E0DF91CF911F910F91FF90B4
:1052C000EF90DF90CF9008950F931F93CF93DF93CC
:1052D000EA0189018BE197E00E942834F801D1832B
:1052E000C08390E080E0DF91CF911F910F910895EE
:1052F00080910F0791E0980F90930F07882349F052
:1053000021E030E0309311072093100780930F07BE
:10531000089578940E94DF04F89480910F078150DB
:10532000F5CFCF93DF931092F6091092F50909D5C6
:10533000E6DEC0913E03D0913F031982188260EDF2
:1053400077E080E090E00E94D40470E060E090E0BC
:1053500080E00E945203009709F037C00E94BE0906
:10536000F8947894BE0164557F4F8A819B810E9496
:105370005503892B69F46FEF7FEFCB010E94E603A1
:105380000E94CE04882321F0CE54DF4F81E0888331
:10539000F89407DF0E94D104811104C00E94CE045A
:1053A00091E0811190E09093F50978940E94BA11F0
:1053B000EC0178948091F50981110AC00E94DF0AFE
:1053C0000E94B204F89490E080E0DF91CF910895BC
:1053D0000E94AF040E94D10491E0811106C00E9496
:1053E000CE0491E0811101C090E09093F609909174
:1053F000F60981E0911180E08093F5098091F6092A
:105400008111EEDE219729F40E94BA11892B09F44B
:10541000F1DE0E94BA11EC01EBDECCCF5058BB2775
:10542000AA270ED075C166D130F06BD120F031F4CF
:105430009F3F11F41EF45BC10EF4E095E7FB51C1F0
:10544000E92F77D180F3BA176207730784079507AE
:1054500018F071F49EF58FC10EF4E0950B2EBA2F63
:10546000A02D0B01B90190010C01CA01A00111246A
:10547000FF27591B99F0593F50F4503E68F11A1616
:10548000F040A22F232F342F4427585FF3CF4695A7
:1054900037952795A795F0405395C9F77EF41F16C9
:1054A000BA0B620B730B840BBAF09150A1F0FF0F93
:1054B000BB1F661F771F881FC2F70EC0BA0F621F7F
:1054C000731F841F48F4879577956795B795F7956F
:1054D0009E3F08F0B3CF9395880F08F09927EE0F01
:1054E000979587950895D9D008F481E008950CD058
:1054F0000FC107D140F0FED030F021F45F3F19F02A
:10550000F0C0511139C1F3C014D198F39923C9F3F4
:105510005523B1F3951B550BBB27AA2762177307B9
:10552000840738F09F5F5F4F220F331F441FAA1F6D
:10553000A9F333D00E2E3AF0E0E830D0915050402D
:10554000E695001CCAF729D0FE2F27D0660F771FDB
:10555000881FBB1F261737074807AB07B0E809F0BD
:10556000BB0B802DBF01FF2793585F4F2AF09E3F52
:10557000510568F0B6C000C15F3FECF3983EDCF324
:10558000869577956795B795F7959F5FC9F7880FCB
:10559000911D9695879597F90895E1E0660F771F1D
:1055A000881FBB1F621773078407BA0720F0621BAE
:1055B000730B840BBA0BEE1F88F7E095089504D0A7
:1055C0006894B111D9C00895BCD088F09F5790F06D
:1055D000B92F9927B751A0F0D1F0660F771F881F18
:1055E000991F1AF0BA95C9F712C0B13081F0C3D033
:1055F000B1E00895C0C0672F782F8827B85F39F0D1
:10560000B93FCCF3869577956795B395D9F73EF476
:1056100090958095709561957F4F8F4F9F4F08951E
:10562000E89409C097FB3EF490958095709561953C
:105630007F4F8F4F9F4F9923A9F0F92F96E9BB27F2
:105640009395F695879577956795B795F111F8CF6E
:10565000FAF4BB0F11F460FF1BC06F5F7F4F8F4FD9
:105660009F4F16C0882311F096E911C0772321F0CF
:105670009EE8872F762F05C0662371F096E8862F67
:1056800070E060E02AF09A95660F771F881FDAF7BE
:10569000880F9695879597F90895990F0008550FEB
:1056A000AA0BE0E8FEEF16161706E807F907C0F0A8
:1056B00012161306E407F50798F0621B730B840BB0
:1056C000950B39F40A2661F0232B242B252B21F48A
:1056D00008950A2609F4A140A6958FEF811D811D2A
:1056E000089597F99F6780E870E060E008959FEF64
:1056F00080EC089500240A94161617061806090669
:10570000089500240A941216130614060506089537
:10571000092E0394000C11F4882352F0BB0F40F4BF
:10572000BF2B11F460FF04C06F5F7F4F8F4F9F4FFF
:10573000089557FD9058440F551F59F05F3F71F081
:105740004795880F97FB991F61F09F3F79F08795E8
:105750000895121613061406551FF2CF4695F1DF71
:1057600008C0161617061806991FF1CF8695710501
:10577000610508940895E894BB2766277727CB0135
:1057800097F908958ADF08F48FEF08950BD0C0CF02
:10579000B1DF28F0B6DF18F0952309F0A2CFA7CF2C
:1057A0001124EACFC6DFA0F3959FD1F3950F50E007
:1057B000551F629FF001729FBB27F00DB11D639FC3
:1057C000AA27F00DB11DAA1F649F6627B00DA11D69
:1057D000661F829F2227B00DA11D621F739FB00D0F
:1057E000A11D621F839FA00D611D221F749F33277F
:1057F000A00D611D231F849F600D211D822F762F18
:105800006A2F11249F5750408AF0E1F088234AF014
:10581000EE0FFF1FBB1F661F771F881F9150504060
:10582000A9F79E3F510570F05CCFA6CF5F3FECF328
:10583000983EDCF3869577956795B795F795E7954C
:105840009F5FC1F7FE2B880F911D9695879597F95D
:1058500008950895883008F076C0E82FF0E0EE0F44
:10586000FF1FE55EFC4F718360838150873008F035
:105870003DC0E82FF0E08827EF5BF34D8F4F0C948D
:1058800078347E2C482C502C5C2C692C8A2C972C3C
:10589000809169008C7F482B40936900E89A0895B5
:1058A00080916900837F440F551F440F551F482B7B
:1058B00040936900E99A0895809169008F7C74E0B3
:1058C000440F551F7A95E1F7482B40936900EA9AF7
:1058D0000895809169008F7366E0440F551F6A95A3
:1058E000E1F7482B40936900EB9A089580916A0094
:1058F0008C7F482B40936A00EC9A089580916A004F
:10590000837F440F551F440F551F482B40936A0057
:10591000ED9A089580916A008F7C24E0440F551F12
:105920002A95E1F7482B40936A00EE9A08958091FA
:105930006A008F7396E0440F551F9A95E1F7482B44
:1059400040936A00EF9A08951F920F920FB60F923C
:1059500011240BB60F922F933F934F935F936F9346
:105960007F938F939F93AF93BF93EF93FF93E091B8
:105970001F03F09120031995FF91EF91BF91AF9113
:105980009F918F917F916F915F914F913F912F9157
:105990000F900BBE0F900FBE0F901F9018951F9287
:1059A0000F920FB60F9211240BB60F922F933F93C5
:1059B0004F935F936F937F938F939F93AF93BF9317
:1059C000EF93FF93E0912103F09122031995FF914A
:1059D000EF91BF91AF919F918F917F916F915F9167
:1059E0004F913F912F910F900BBE0F900FBE0F90D4
:1059F0001F9018951F920F920FB60F9211240BB69D
:105A00000F922F933F934F935F936F937F938F9357
:105A10009F93AF93BF93EF93FF93E0912303F09194
:105A200024031995FF91EF91BF91AF919F918F91B1
:105A30007F916F915F914F913F912F910F900BBE8E
:105A40000F900FBE0F901F9018951F920F920FB6D8
:105A50000F9211240BB60F922F933F934F935F93A6
:105A60006F937F938F939F93AF93BF93EF93FF9326
:105A7000E0912503F09126031995FF91EF91BF91D5
:105A8000AF919F918F917F916F915F914F913F91D6
:105A90002F910F900BBE0F900FBE0F901F90189577
:105AA0001F920F920FB60F9211240BB60F922F93E5
:105AB0003F934F935F936F937F938F939F93AF9396
:105AC000BF93EF93FF93E0911B03F0911C03199593
:105AD000FF91EF91BF91AF919F918F917F916F91C6
