:1000000005C100000C94CD2C0C94F82C0C94232DDD
:100010000C944E2D0C94792D0C94A42D0C94CF2D72
:100020000C94FA2D24C1000022C1000020C1000060
:100030001EC100001CC100001AC1000018C1000050
:1000400016C1000014C1000012C1000010C1000060
:100050000EC100000CC100000AC100000C94252E46
:1000600006C100000C9421320C94573200C10000EC
:10007000FEC00000FCC00000FAC00000F8C0000094
:10008000F6C00000F4C00000F2C00000F0C00000A4
:100090000C94AD320C94E332EAC00000E8C00000DA
:1000A000E6C00000E4C00000E2C00000E0C00000C4
:1000B000DEC00000DCC00000DAC00000D8C00000D4
:1000C000D6C00000D4C000000C94CD280C94393365
:1000D0000C946F33CCC000000C94C5330C94FB33EC
:1000E000C6C0000000000A0B02090C0D0E08070331
:1000F00004010000000000000000000000000000FB
:1001000000000000000000000000000000000000EF
:1001100012111000000000000000000000000000AC
:100120000000000000000000000001021020200874
:100130000810204010204080020102010804020142
:1001400001020408102040808040201008040201B1
:10015000800402018040201008040201080402010A
:100160000102040810204080010204081020408091
:1001700005050505070508080808020202020A0A23
:100180000808040404040101010101010101030341
:10019000030303030303040707070C0C0C0C0C0CEC
:1001A0000C0C0202020206060606060606060B0BE9
:1001B0000B0B0B0B0B0B000020002300260029006B
:1001C0002C002F003200000100000301060109018C
:1001D00000002200250028002B002E0031003400F2
:1001E00002010000050108010B01000021002400AC
:1001F00027002A002D003000330001010000040117
:1002000007010A0180320C339833243411241FBEB5
:10021000CFEFD1E2DEBFCDBF00E00CBF13E0A0E026
:10022000B2E0E8EAF9E600E00BBF02C007900D92E9
:10023000AA35B107D9F729E0AAE5B3E001C01D92BC
:10024000AD39B207E1F711E0C6E0D1E000E006C049
:1002500021970109802FFE010E94A134C230D107ED
:1002600080E00807A9F70E94BA290C94D234C8CEBE
:10027000CF92DF92EF92FF92CF93882351F16A01E0
:100280007B01CFEFC80F20E030E0A901CB01B60120
:100290000E949C2A87FF11C0C701B60190580E9496
:1002A0000D2B9B01AC016C2F70E090E080E0CF91B2
:1002B000FF90EF90DF90CF90B2C0C701B6010E94CF
:1002C000082B8C2FCF91FF90EF90DF90CF900C9464
:1002D0002C2FCF91FF90EF90DF90CF9008950F9348
:1002E0001F938B019C0183E0369527951795079501
:1002F0008A95D1F7065A1C4F462F477021E030E00F
:10030000F90102C0EE0FFF1F4A95E2F7AF01F801B5
:1003100020812423CB010196211102C090E080E0CE
:100320001F910F9108950F931F938B019C0183E000
:1003300036952795179507958A95D1F7677081E0CF
:1003400090E001C0880F6A95EAF7F801E65AFC4F81
:100350002081452B31F48095822380831F910F915A
:100360000895822BFACF2F923F924F925F926F9215
:100370007F928F929F92AF92BF92CF92DF92EF9235
:10038000FF920F931F93CF93DF93D62EC72E782E15
:10039000692E49015A01280161E08D2D0E946630C5
:1003A000CD2DDC2D8E010F5F1F4FA8016D2D7C2DF3
:1003B000872D962DB8DF20E030E0A901C201B701FA
:1003C0000E94EB2B181664F4C201B7010E940D2B9A
:1003D0002B01C501B4010E940D2BA201CE0123D037
:1003E000C801DF91CF911F910F91FF90EF90DF90A7
:1003F000CF90BF90AF909F908F907F906F905F90C5
:100400004F903F902F900895882341F08150682F9E
:1004100070E090E080E050E040E085CF0895862FC6
:10042000B9010C942C2F9C01FC01EC51FF4FE4917D
:10043000E150E231E0F4F0E08827EE5DFD4F8F4FB0
:100440000C94A13434023B023E0255026A02370288
:100450007F028B028F02A602BB02D002E702FC02DF
:100460003702110328033D0384B5806884BD60E032
:10047000822F0C94A23084B58062F8CF80918000E6
:100480008C7F82608093800080918100807E80617B
:10049000682B609381005093870040938600809181
:1004A0008000806880938000E2CF809180008C7F04
:1004B00082608093800080918100807E8061682BC3
:1004C0006093810050938700409386008091800064
:1004D0008062E8CF809180008C7F82608093800072
:1004E00080918100807E8061682B609381005093B1
:1004F000870040938600809180008860D3CF8091F0
:10050000B00080688093B0008091B100887F682B34
:100510006093B100ACCF8091B0008062F3CF809146
:1005200090008C7F82608093900080919100807E0B
:100530008061682B609391005093970040939600E0
:100540008091900080688093900091CF809190007E
:100550008C7F82608093900080919100807E80618A
:10056000682B609391005093970040939600809180
:1005700090008062E8CF809190008C7F82608093B1
:10058000900080919100807E8061682B6093910043
:100590005093970040939600809190008860D3CF4D
:1005A0008091A0008C7F82608093A0008091A10048
:1005B000807E8061682B6093A1005093A7004093D8
:1005C000A6008091A00080688093A00050CF809109
:1005D000A0008C7F82608093A0008091A100807E2B
:1005E0008061682B6093A1005093A7004093A60000
:1005F0008091A0008062E8CF8091A0008C7F826013
:100600008093A0008091A100807E8061682B609320
:10061000A1005093A7004093A6008091A00088609D
:10062000D3CF809120018C7F8260809320018091C4
:100630002101807E8061682B609321015093270106
:1006400040932601809120018068809320010FCF84
:10065000809120018C7F8260809320018091210114
:10066000807E8061682B6093210150932701409325
:100670002601809120018062E8CF809120018C7F4B
:1006800082608093200180912101807E8061682BAF
:10069000609321015093270140932601809120010E
:1006A0008860D3CF90E080E008950F931F93009768
:1006B00009F489C06115710509F485C000916E02C5
:1006C00010916F0220917002309171020E3F1F4F06
:1006D0002F4F3F4F09F068C04FEF5FEFBA014093D3
:1006E0006E0250936F02609370027093710240919A
:1006F0006E0250916F026091700270917102DC0184
:100700001296ED91FC9180819181A281B3818093B9
:10071000630490936404A0936504B0936604848199
:100720009581A681B78180935F0490936004A09324
:100730006104B093620480859185A285B38580931E
:100740005B0490935C04A0935D04B0935E04848585
:100750009585A685B7858093570490935804A093F8
:100760005904B0935A0410925304109254041092F6
:100770005504109256040E94D50D8AEF9DE0909387
:1007800064038093630390936603809365030E94E0
:10079000D40C009731F421E030E0309368042093CA
:1007A00067041F910F91089500916E0210916F02DE
:1007B0002091700230917102DB010D931D932D93F6
:1007C0003C93139794CF8FEF9FEFEBCF8F929F9235
:1007D000AF92BF92CF92DF92EF92FF921F93CF938F
:1007E000DF934B015C0110916A0482E090E09093EA
:1007F00068048093670481149104A104B10441F456
:1008000080916A04811104C080916904C1E0811162
:10081000C0E0C12CD12C760180916A04811106C000
:1008200080916904811102C0CC23D9F083E090E06B
:100830009093680480936704CC2381F1CCE9DFEFC7
:10084000111102C00E945F11CE01DF91CF911F9163
:10085000FF90EF90DF90CF90BF90AF909F908F90E0
:1008600008956AE070E080E090E00E94942E80E1BC
:10087000C80E87E2D81EE11CF11C8FEF881698067F
:10088000A806B80631F0C1E08C149D04AE04BF0484
:1008900008F0C0E080E00E94000DBECFD0E0C0E0D4
:1008A000CFCFCF92DF92EF92FF920F931F93CF9310
:1008B000DF938F3F910511F008F046C02091670447
:1008C000309168042330310539F02091670430916C
:1008D00068042130310531F424E030E030936804BD
:1008E000209367046A017B01EC0182309105B8F026
:1008F00011E0AE01C701B6010E94D30CAB01BC01EF
:1009000090E080E0112311F1CE01DF91CF911F9192
:100910000F91FF90EF90DF90CF900C9474138C01A7
:10092000000F111F0D591C4FD8018D919C91892BDF
:10093000F9F20E947B130297D9F6D801ED91FC9150
:10094000CE011995182FD5CF8FEF9FEFDF91CF9163
:100950001F910F91FF90EF90DF90CF90089580E06E
:100960000C94000DCF93DF9386E090E090936804A1
:10097000809367040E94590DEC01E3E6F3E084E004
:10098000DF011D928A95E9F70E94F7101092680422
:1009900010926704CE01DF91CF9108958091690490
:1009A000089580915204089560936E0270936F02CF
:1009B000809370029093710290E080E008952F92EE
:1009C0003F924F925F926F927F928F929F92AF92DF
:1009D000BF92CF92DF92EF92FF920F931F93CF932C
:1009E000DF93CDB7DEB76A970FB6F894DEBF0FBEC0
:1009F000CDBF1F9281E08F9368E3862E62E0962E32
:100A0000AA24A394B12CE4E3CE2EE2E0DE2EEE2461
:100A1000E394F12C0DE612E021E030E04CE652E0E8
:100A200063E779E08FE499E00E94CE2780903C0252
:100A300090903D02A0903E02B0903F02C0904002D4
:100A4000D0904102E0904202F090430260914F0941
:100A500070915009072E000C880B990B0E943B2BBC
:100A6000A50194010E94EF2BA70196010E94EF2B94
:100A700069877A878B879C872091770930917809DD
:100A80004091790950917A090E94372A6D877E87B3
:100A90008F87988B6093330970933409809335095D
:100AA000909336096091510970915209072E000CFC
:100AB000880B990B0E943B2BA50194010E94EF2B00
:100AC000A70196010E94EF2B698B7A8B8B8B9C8BF5
:100AD00020917B0930917C0940917D0950917E09DC
:100AE0000E94372A6D8B7E8B8F8B988F609337098E
:100AF000709338098093390990933A0900917F09DE
:100B0000109180096091250470912604809127043A
:100B1000909128040E94392B20E030E040E85FE407
:100B20000E94EF2B6B017C016091210470912204E3
:100B300080912304909124040E94392B9B01AC01E5
:100B4000C701B6010E94382A2AE037ED43E25CE390
:100B50000E94EF2B6B017C01D80154968D909D90E3
:100B6000AD90BC9057970F900F90AC019B01C501C1
:100B7000B4010E949C2A87FFE3C210923B091092A5
:100B80003C0910923D0910923E092D853E854F8506
:100B9000588920933F09309340094093410950936D
:100BA000420980913B0990913C09A0913D09B09187
:100BB0003E098093430990934409A0934509B0935B
:100BC00046092D893E894F89588D209347093093D6
:100BD00048094093490950934A0980934B099093DF
:100BE0004C09A0934D09B0934E0968E070E080E095
:100BF00090E075DB7C0190937209809371092091DC
:100C00003B0930913C0940913D0950913E0960916A
:100C100044027091450280914602909147020E94E1
:100C2000EF2B5B016C010091480210914902309159
:100C30004A023D8340914B0249839B01AC01B801BC
:100C40008D8199810E949C2A87FD16C000914C02DB
:100C500010914D0250914E025D8380914F02898325
:100C60009501A601B8018D8199810E94EB2B181680
:100C70001CF08501CD82D98220E030E04FE753E4BB
:100C8000B8018D8199810E949C2A18160CF46DC3BD
:100C900020E030E0A901B8018D8199810E94EB2B01
:100CA00087FD6AC3A8016D817981C701E1DA69E036
:100CB00070E080E090E013DB7C0190936A09809300
:100CC0006909A0903B09B0903C09C0903D09D090C3
:100CD0003E090091500210915102B0915202BD8321
:100CE000E0915302E98398014B2F5E2FB501C601B5
:100CF0000E94EB2B1816B4F000915402109155028B
:100D0000F0915602FD8320915702298398014F2FBD
:100D10005981B501C6010E949C2A87FD03C0850147
:100D2000CD82D98220E030E04FE753E4B8018D81D5
:100D300099810E949C2A18160CF423C320E030E00D
:100D4000A901B8018D8199810E94EB2B87FD20C3F9
:100D5000A8016D817981C7018BDA6AE070E080E0DB
:100D600090E0BDDA7C019093620980936109209143
:100D70003B0930913C0940913D0950913E096091F9
:100D800058027091590280915A0290915B020E9420
:100D9000EF2B5B016C0100915C0210915D025091A0
:100DA0005E025D8380915F0289839501A601B8018F
:100DB0008D8199810E949C2A87FD16C00091600256
:100DC00010916102909162029D83A0916302A983B8
:100DD0009501A601B801892F9A2F0E94EB2B1816B6
:100DE0001CF08501CD82D98220E030E04FE753E44A
:100DF000B8018D8199810E949C2A18160CF4CDC2ED
:100E000020E030E0A901B8018D8199810E94EB2B8F
:100E100087FDCAC2A8016D817981C70129DA6BE01B
:100E200070E080E090E05BDA7C0190935A09809357
:100E30005909A0903B09B0903C09C0903D09D09061
:100E40003E090091640210916502F0916602FD83F3
:100E500020916702298398014F2F5981B501C6015E
:100E60000E94EB2B1816B4F00091680210916902F1
:100E700030916A023D8340916B02498398014D8114
:100E80005981B501C6010E949C2A87FD03C08501D6
:100E9000CD82D98220E030E04FE753E4B8018D8164
:100EA00099810E949C2A18160CF483C220E030E03D
:100EB000A901B8018D8199810E94EB2B87FD80C229
:100EC000A8016D817981C701D3D91F9281E08F93E9
:100ED00088E3882E82E0982EAA24A394B12C24E3E0
:100EE000C22E22E0D22EEE24E394F12C0DE612E085
:100EF00021E030E04CE652E063E779E08FE499E0EE
:100F00000E94F32729853A854B855C8520937709D4
:100F1000309378094093790950937A0989899A899D
:100F2000AB89BC8980937B0990937C09A0937D0950
:100F3000B0937E096091190470911A0480911B048A
:100F400090911C040E94392B20E030E040E85FE4DF
:100F50000E94EF2B6B017C016091150470911604C7
:100F600080911704909118040E94392B9B01AC01C9
:100F7000C701B6010E94382A20E030E0A9010E9492
:100F8000382A0E940D2BAB01BC0190E080E089DC87
:100F90006091250470912604809127049091280483
:100FA0000E94392B20E030E040E85FE40E94EF2B04
:100FB0006B017C01609121047091220480912304D3
:100FC000909124040E94392B9B01AC01C701B6010A
:100FD0000E94382A20E030E0A9010E94382A0E94AD
:100FE0000D2BAB01BC0181E090E05BDCC0901504EF
:100FF000D0901604E0901704F09018049FEFC91ADF
:10100000D90AE90AF90AC0921504D0921604E092AE
:101010001704F09218040F900F90C114D104E1044A
:10102000F10499F48091190490911A04A0911B0481
:10103000B0911C040196A11DB11D809319049093D9
:101040001A04A0931B04B0931C0480901D0490907C
:101050001E04A0901F04B0902004A0913004B09111
:101060003104BA83A9836091190470911A048091A4
:101070001B0490911C040E94392BA50194010E942D
:10108000EF2B20E030E040E85FE40E94EF2B2B01E3
:101090003C01C701B6010E94392BA50194010E94B1
:1010A000EF2B9B01AC01C301B2010E94382AE981F8
:1010B000FA8160837183828393838091210490916C
:1010C0002204A0912304B09124040196A11DB11D16
:1010D0008093210490932204A0932304B0932404CA
:1010E000892B8A2B8B2B99F48091250490912604CF
:1010F000A0912704B09128040196A11DB11D8093F1
:10110000250490932604A0932704B09328046A969C
:101110000FB6F894DEBF0FBECDBFDF91CF911F9108
:101120000F91FF90EF90DF90CF90BF90AF909F9086
:101130008F907F906F905F904F903F902F90089589
:10114000A7019601F80160817181828193810E94DB
:10115000EB2B87FF9DC0A7019601C501B4010E943A
:101160009C2A18160CF097C0209195093091960989
:101170003A8329835901AA0CBB1CAA0CBB1C480149
:101180008A0C9B1CA7019601D4016D917D918D91D4
:101190009C910E94EB2BB4E0AB0EB11CA00EB11ED3
:1011A00018160CF068C0F4E08F1A9108A701960198
:1011B000D40114966D917D918D919C9117970E9409
:1011C000EB2B18160CF44CC020908109309082094A
:1011D00029813A813093960920939509220F331F74
:1011E000220F331F3A8F298FF901E00FF11F808101
:1011F0009181A281B3818D839E83AF83B8872C5F59
:101200003F4F3A832983F901E00FF11F80809180DD
:10121000A280B380A5019401BC01CD010E949C2A4B
:10122000811148C02D813E814F815885C701B6018B
:101230000E949C2A87FF34C0A98DBA8DA20DB31DD0
:10124000BA83A9838D919D910D90BC91A02D80931F
:101250003B0990933C09A0933D09B0933E0995CC7E
:10126000E981FA813197FA83E9839DCFE981FA8197
:101270003196FA83E983D5016D917D918D919D9190
:101280005D01A70196010E949C2A18167CF79CCF4D
:101290001A82198299CFE4E0F0E0FA83E98394CFCF
:1012A000E981FA812E0E3F1EF10180819181A28198
:1012B000B381CDCF298D3A8D220D331DD9014D90AB
:1012C0005D906D907C90E981FA812E0E3F1ED101D8
:1012D0002D913D914D915C9129833A834B835C83A1
:1012E000C301B2010E949C2A8823B1F1A701960193
:1012F000C501B4010E94372A6B017C012D813E811A
:101300004F815885C501B4010E94372A9B01AC0169
:10131000C701B6010E94A02A6B017C01AC019B01B0
:1013200060E070E080E89FE30E94372A29813A81DB
:101330004B815C810E94EF2B4B015C01A301920168
:10134000C701B6010E94EF2B9B01AC01C501B4019E
:101350000E94382A2B013C0140923B0950923C09E3
:1013600060923D0970923E0910CC00E010E09FE7CA
:101370009D83A3E4A98396CC00E010E01D8219822E
:1013800091CC00E010E03FE73D8343E44983E0CCAB
:1013900000E010E01D821982DBCC00E010E0BFE726
:1013A000BD83E3E4E98336CD00E010E01D821982BD
:1013B00031CD00E010E05FE75D8383E4898380CD79
:1013C00000E010E01D8219827BCD8F929F92AF9238
:1013D000BF92DF92EF92FF920F931F93CF93DF9311
:1013E000EDE7F3E08DEBDF011D928A95E9F78DE2E1
:1013F00094E097838683C0E3D4E0D093BE03C09388
:10140000BD030DE114E0158B048BF093E803E0932A
:10141000E703F583E48321E030E0DC012D933C9386
:101420008BE992E09387828722E334E03983288333
:1014300040E050E060EA71E44093290450932A04AC
:1014400060932B0470932C044AE057ED63E27CE335
:10145000D8014D935D936D937C931397C3E0D4E0D3
:1014600086E39CEFA1E2B7EF88839983AA83BB83CD
:1014700087E295E7ACE8BFEE8093070490930804F9
:10148000A0930904B0930A048AEE96E5A3E2BBEBAD
:1014900080930B0490930C04A0930D04B0930E045E
:1014A0008EED9CE0A8ECBCEC80930F0490931004AC
:1014B000A0931104B0931204A1E7B3E0B383A28315
:1014C000E7E6F3E01196FC93EE938DEA92E09183C8
:1014D0008083938382839583848397838683918794
:1014E000808783E194E015969C938E9314971396CE
:1014F000DC93CE93129717963C932E931697E3E3C3
:10150000F9E080E2DF011D928A95E9F7C3E5D9E0B1
:1015100088E4FE0111928A95E9F788E192E09DA79F
:101520008CA780E092E09FA78EA7DD24D394D09271
:101530009A09812C912C54018394898E9A8EAB8EBA
:10154000BC8EE12CF12C8701A801970168E070E0C6
:1015500080E090E00E94B3019F8F8E8FDD8E188A0D
:10156000D09299091D8A898A9A8AAB8ABC8AA80175
:10157000970169E070E080E090E00E94B3019F8BEA
:101580008E8BDD8A1886D09298091D8689869A8668
:10159000AB86BC86A80197016AE070E080E090E02D
:1015A0000E94B3019F878E87DD861882D0929709AB
:1015B0001D8289829A82AB82BC82A80197016BE06E
:1015C00070E080E090E00E94B3019F838E83DD8213
:1015D000E8A2F9A20AA31BA38091300290913102E4
:1015E000A0913202B09133028CA39DA3AEA3BFA3FE
:1015F00088A799A7AAA7BBA7DF91CF911F910F91A9
:10160000FF90EF90DF90BF90AF909F908F900895E4
:1016100080916B0981112EC081E080936B098091CC
:101620006C0990916D09A0916E09B0916F090197B5
:10163000A105B105F9F4809170098823D9F068E01B
:1016400070E080E090E00E946F01909372098093B7
:10165000710940E050E0BA010E94380168E070E092
:1016600080E090E00E946F0190937209809371096D
:101670000E9404028091630981112EC081E0809351
:1016800063098091640990916509A0916609B09100
:1016900067090197A105B105F9F4809168098823CC
:1016A000D9F069E070E080E090E00E946F019093D3
:1016B0006A098093690940E050E0BA010E9438014C
:1016C00069E070E080E090E00E946F0190936A0909
:1016D000809369090E94040280915B0981112EC0E8
:1016E00081E080935B0980915C0990915D09A091F4
:1016F0005E09B0915F090197A105B105F9F48091E8
:1017000060098823D9F06AE070E080E090E00E94F0
:101710006F01909362098093610940E050E0BA0143
:101720000E9438016AE070E080E090E00E946F0162
:1017300090936209809361090E9404028091530989
:1017400081112EC081E080935309809154099091BA
:101750005509A0915609B09157090197A105B10506
:10176000F9F4809158098823D9F06BE070E080E0AB
:1017700090E00E946F0190935A098093590940E0CC
:1017800050E0BA010E9438016BE070E080E090E028
:101790000E946F0190935A09809359090C94040296
:1017A00008954F925F926F927F928F929F92AF9225
:1017B000BF92CF92DF92EF92FF920F931F93F89414
:1017C000409046045090470460904804709049044B
:1017D000C0903A04D0903B04E0903C04F0903D046B
:1017E0004130510509F0A4C09B01AC012419350911
:1017F0004609570929013A01009142041091430416
:10180000209144043091450448015901840C951CF1
:10181000A61CB71C80169106A206B306A0F4009180
:101820003E0410913F0420914004309141040F5F29
:101830001F4F2F4F3F4F00933E0410933F042093C0
:101840004004309341048092420490924304A09259
:101850004404B092450400913E0410913F0420914D
:1018600040043091410480924A0490924B04A0922B
:101870004C04B0924D0400934E0410934F042093F7
:10188000500430935104609346047093470480934E
:10189000480490934904A0E1B7E2A30192010E9499
:1018A000A9346C0D7D1D8E1D9F1D60933A047093AD
:1018B0003B0480933C0490933D0400916E02109190
:1018C0006F0220917002309171020F3F1F4F2F4F16
:1018D0003F4FF1F000916E0210916F022091700263
:1018E000309171020E3F1F4F2F4F3F4F89F0C09034
:1018F0006E02D0906F02E0907002F090710221E0D1
:101900008C149D04AE04BF0408F420E0209352041C
:1019100078941F910F91FF90EF90DF90CF90BF9040
:10192000AF909F908F907F906F905F904F900895B1
:101930004B015C0184189508A608B708A301920121
:10194000261B370B480B590B641575058605970543
:10195000D0F082169306A406B50640F420E030E0ED
:10196000A90181149104A104B10491F4A0E1B7E2AA
:101970000E94A934A7019601261B370B480B590B6F
:10198000CA01B901C5CF82169306A406B50670F741
:10199000A0E1B7E2A50194010E94A9346C0D7D1D60
:1019A0008E1D9F1DB5CFFDCECF93DF9300D01F922C
:1019B000CDB7DEB71C821B821A821982BE016F5F0F
:1019C0007F4FCE0103960E94162769817A818B8111
:1019D0009C810E946020009761F4BE016F5F7F4F81
:1019E000CE0103960E94222769817A818B819C8196
:1019F00027D50F900F900F900F90DF91CF91089502
:101A0000FF920F931F93CF93DF93082F60E070E056
:101A1000CB010E94942EFF24F3940E94491FEC01F5
:101A2000892B89F010E0CE3F8FEFD80769F00023B3
:101A300061F160E070E0CB010E94942E81E090E0C3
:101A4000892B59F322C011E01ED5EC01892B21F01E
:101A5000CE3F8FEFD80759F711111EC011E0229623
:101A600009F410E00E94F91EEC01892B21F0CE3F11
:101A70008FEFD807E1F6111111C011E0CE3F8FEFC3
:101A8000D80709F410E001110BC0CE01DF91CF910E
:101A90001F910F91FF90089511E0E4CF11E0F3CF73
:101AA00060E070E0CB010E94942E1F25812F90E012
:101AB000C7CFCF93DF931FD6D0E0C0E0892B71F062
:101AC0006AE070E080E090E00E94942E81E098DF70
:101AD00012D62196C03D27E0D20781F711D60E9489
:101AE000B42010926A041092690410926304109258
:101AF0006404109265041092660410925F041092C0
:101B00006004109261041092620410925B041092BF
:101B10005C0410925D0410925E04109257041092BF
:101B200058041092590410925A04109253041092BF
:101B3000540410925504109256044EEF5FEF6FEF6D
:101B40007FEF40936E0250936F0260937002709328
:101B5000710210925204EAE4F4E028E0DF011D92E1
:101B60002A95E9F71092460410924704109248040F
:101B700010924904109242041092430410924404BB
:101B80001092450410923E0410923F0410924004BB
:101B90001092410410923A0410923B0410923C04BB
:101BA00010923D04DF91CF91089510927604109227
:101BB0007704109278041092790410927504809141
:101BC0007E0490917F049093740480937304109228
:101BD00072041092710410926D0410926E041092AF
:101BE0006F041092700410927B0410927A0490E0BB
:101BF00080E00895CF92DF92EF92FF920F931F93B0
:101C0000CF938C01019709F055C020917E0430914B
:101C10007F04809173049091740440917E045091EC
:101C20007F0450937404409373042817390781F09C
:101C3000109272041092710410926D0410926E044E
:101C400010926F041092700410927B0410927A0428
:101C500080917E0490917F04019761F580917A04D0
:101C600090917B04892B21F480917202811112C022
:101C700080917A0490917B040197E1F480916D0446
:101C800090916E04A0916F04B09170040197A1052A
:101C9000B10581F410926D0410926E0410926F04DD
:101CA000109270041092720282E090E090937B0494
:101CB00080937A0480917E0490917F04019709F0CB
:101CC0001CC180919404909195048017910709F0AC
:101CD00014C18091900490919104A0919204B091CC
:101CE0009304009709F409C120918F0421110DC0BC
:101CF00040919004509191046091920470919304EA
:101D0000452B462B472B09F4F8C020917A043091DB
:101D10007B042230310509F0F0C0209171042111BB
:101D2000ECC0FC01C080D180E280F380809175041A
:101D3000882309F4D3C08091810490918204892B77
:101D400009F4FEC0209181043091820481E02230A8
:101D5000310509F080E02091810430918204C1E0D6
:101D60002130310549F02091810430918204C1E095
:101D70002230310509F0C0E0882309F456C02091D3
:101D80008B0430918C0440918D0450918E04C701D6
:101D9000B6010E94EB2B87FD14C020918B0430917B
:101DA0008C0440918D0450918E0460917604709162
:101DB000770480917804909179040E949C2A87FD91
:101DC00022C020918B0430918C0440918D0450915D
:101DD0008E04C701B6010E94EB2B181634F5209132
:101DE0008B0430918C0440918D0450918E0460914D
:101DF00076047091770480917804909179040E9420
:101E00009C2A811112C08091830490918404A09136
:101E10008504B0918604892B8A2B8B2B19F481E0E1
:101E20008093720481E080937104CC2309F456C03E
:101E300020918B0430918C0440918D0450918E043C
:101E4000C701B6010E949C2A87FF14C020918B0411
:101E500030918C0440918D0450918E0460917604F1
:101E60007091770480917804909179040E94EB2B13
:101E700087FF22C020918B0430918C0440918D0407
:101E800050918E04C701B6010E949C2A811126C080
:101E900020918B0430918C0440918D0450918E04DC
:101EA0006091760470917704809178049091790420
:101EB0000E94EB2B181694F4809183049091840473
:101EC000A0918504B0918604892B8A2B8B2B19F461
:101ED00081E08093720481E08093710481E09091AD
:101EE0007104911180E080937504C0927604D092C1
:101EF0007704E0927804F09279040130110509F03A
:101F000067C180917A0490917B04892BD9F4109257
:101F100080041092710480917202882379F082E02B
:101F200090E090937B0480937A0410927202209147
:101F30007E0430917F0481E0232BE9F080E01BC018
:101F400081E009CF1092720280918004882349F0C9
:101F50001092720410927B0410927A041092800402
:101F6000EDCF80917E0490917F04892BE1F08091E8
:101F700071041092710420917A0430917B04223014
:101F8000310509F45EC088F42115310509F448C013
:101F90002130310509F4F3C01092720410927104DB
:101FA0001092800438C081E0E6CF2330310509F477
:101FB000B1C02430310581F740916D0450916E0419
:101FC00060916F04709170044115510561057105B0
:101FD00061F0415051096109710940936D045093BA
:101FE0006E0460936F047093700440916D0450917F
:101FF0006E0460916F0470917004452B462B472B43
:10200000D9F420917C0430917D042130310509F010
:1020100046C01092720410927B0410927A040CC095
:1020200080917202882341F082E090E090937B04DB
:1020300080937A041092720210926B048091720461
:10204000CEC08823C9F38091830490918404A09129
:102050008504B0918604181619061A061B060CF0A2
:102060007DC080917E0490917F04019709F076C035
:102070008091830490918404A0918504B09186049A
:1020800080936D0490936E04A0936F04B0937004DA
:1020900083E090E090937B0480937A04CDCF4091CD
:1020A0008704509188046091890470918A04452BBB
:1020B000462B472BA9F010927204809187049091CF
:1020C0008804A0918904B0918A0480936D04909350
:1020D0006E04A0936F04B093700481E090E0DACFB7
:1020E000882399F08091730290917402A0917502F7
:1020F000B091760280936D0490936E04A0936F0468
:10210000B093700484E090E0C5CF1092720482E036
:1021100090E0C0CF80916D0490916E04A0916F0407
:10212000B09170040097A105B10559F00197A1097C
:10213000B10980936D0490936E04A0936F04B093E3
:10214000700480916D0490916E04A0916F04B09121
:102150007004892B8A2B8B2B09F06ECF8091730230
:1021600090917402A0917502B0917602892B8A2B0E
:102170008B2B09F44ECF81E080937204B3CF409152
:102180006D0450916E0460916F047091700441155C
:1021900051056105710561F04150510961097109ED
:1021A00040936D0450936E0460936F0470937004B9
:1021B00040916D0450916E0460916F0470917004B1
:1021C000452B462B472B09F037CF8111C7CF9FCF27
:1021D00080916B04882309F431CF80916C04CF91F6
:1021E0001F910F91FF90EF90DF90CF900895109284
:1021F0007604109277041092780410927904109269
:10220000750410927B0410927A0410927404109258
:102210007304109295041092940410927204109218
:10222000710410926D0410926E0410926F0410925B
:10223000700410926C0410926B041092900410922F
:102240009104109292041092930410928F041092B1
:102250008B0410928C0410928D0410928E0488EEE0
:1022600093E0A0E0B0E08093730290937402A09397
:102270007502B0937602109287041092880410922F
:10228000890410928A04109283041092840410929C
:10229000850410928604109282041092810481E0D9
:1022A000809372021092800410927F0410927E0438
:1022B00010927D0410927C0490E080E0089580915B
:1022C0007E0490917F04892B19F5809172028823F6
:1022D00051F080918004811106C081E080936C04EC
:1022E00080936B040895209180043091720281E004
:1022F00090E0332311F090E080E030E082239323DC
:10230000892B21F010926C0481E0EACF10926B04CB
:10231000089582E090E0FA01918380838FEF9FEF30
:102320000895CF93DF93EA01009711F00E94C62130
:102330001982188290E080E0DF91CF910895DB014F
:10234000009719F48FEF8C9308952EEF2C93FC01D6
:102350003F96EF30F10508F034C08827ED54FE4E6B
:102360008F4F0C94A134DF11DD11DB11D911D7117E
:10237000D311D511D111CF11CD11CA11C611C2116E
:10238000C811E11180E311968C93089589E2FBCF87
:1023900082E2F9CF11961C92089583E2F4CF81E294
:1023A000F2CF81E1F0CF87E2EECF8AE2ECCF80E19D
:1023B000EACF84E2E8CF88E2E6CF86E2E4CF81E3A9
:1023C000E2CF80E2E0CF8091A2049091A30408952F
:1023D0009093A3048093A20408958091A10408958A
:1023E0009091A104892B8093A1040895982F909532
:1023F0008091A10489238093A10408958091A00471
:10240000089580919E0490919F040895611571052F
:1024100059F0FB0130E020E070E060E02417350760
:1024200019F06115710511F0CB010895A081B181FA
:10243000A817B90709F4BF012F5F3F4F3696EECFBB
:102440008091A40481111CC041D247D2909397047B
:10245000809396040E943B1B0E944D1B90939B040B
:1024600080939A040E94611E0E94681E90939904B2
:102470008093980481E08093A40490E080E0089524
:1024800084EF9FEF08958F929F92AF92BF92CF9269
:10249000DF92EF92FF920F931F93CF93DF9300D0C1
:1024A00000D000D01F92CDB7DEB71A8619861886E5
:1024B0001F821E821D821C821B821A8219828091B9
:1024C000A40407EF1FEF882309F48BC08E010D5F72
:1024D0001F4F9E012B5F3F4FAE01495F5F4FBE0113
:1024E000675F7F4F90E080E00E94E51F8C010097BE
:1024F00021F00596029708F0C7C089859A85009754
:1025000009F4EFC0ED80FE802B813C812E0D3F1D34
:102510004F8158854217530708F4E3C0E80EF91EAF
:10252000D7014C912091A2043091A304232B09F4EC
:1025300094C0413F08F069C08CE1840F8D3008F4ED
:1025400083C08DE2840F803108F481C088E3840F5A
:102550008B3008F47FC09FE9C92E91E1D92EE9E8BC
:10256000F1E16D817E81AE014F5F5F4F89859A8574
:1025700019955C01C114D104A1F189809A8081145C
:10258000910479F18B819C818815990508F484C0A8
:1025900010E000E04B815C8170E060E0C7010E94C8
:1025A000CB3401151105E9F449815A8169857A8591
:1025B0008D819E81680F791FC501F6011995E9800B
:1025C000FA800D811E812F81388549855A856FEFEC
:1025D0007FEF81E090E00E94801F8C01892B09F041
:1025E00053C0C8012A960FB6F894DEBF0FBECDBF08
:1025F000DF91CF911F910F91FF90EF90DF90CF90DF
:10260000BF90AF909F908F90089530E020E0220F10
:10261000331FF901EA56FB4F0190F081E02D30970E
:1026200009F499CF842F90E01995009709F493CF7E
:10263000DC011296ED91FC9113971496CD90DC90ED
:10264000309709F08ECF1EC021E030E0E0CF22E0CD
:1026500030E0DDCF23E030E0DACFD12CC12CE1E94E
:10266000F1E14F3F09F07DCFE0919604F09197049E
:10267000309719F404EF1FEF0CC08FEF90E019951D
:102680000097B1F604EF1FEF89859A85009709F44A
:10269000A8CF0E94C621A5CF0E94AF208C018985BA
:1026A0009A850E94C62170E060E0C4010E94482023
:1026B00098878F830E947D1F9E838D836F8178858D
:1026C0006115710559F0C8010E944A239A878987CC
:1026D00006EF1FEF892B09F05BCF5CCF08EF1FEFF0
:1026E00059CF08EF1FEFD0CF2091A4042111DAC7F2
:1026F00087EF9FEF08958091A2049091A30408951D
:102700000E946D1E0E94C71DEDD0E6E9F4E088E04E
:10271000DF011D928A95E9F71092A40490E080E011
:10272000089586E090E0FA019183808390E080E054
:10273000089547E050E060EB72E068CEDF92EF92E0
:10274000FF920F931F93CF93DF938A01EC01C60F83
:10275000D71FE090A804F090A904D9800E94972088
:10276000D816190678F082E090E0F8019183808312
:102770008EEF9FEFDF91CF911F910F91FF90EF9020
:10278000DF900895EF2841F482E090E0F801918312
:10279000808384EF9FEFEECF89818093A70490E040
:1027A0000196F8019183808390E080E0E3CFCF939E
:1027B000DF93EA010E94DA1C882321F00E94A42002
:1027C0000E94DB1C82E090E0998388838BEF9FEF6F
:1027D000DF91CF910895CF93DF93EB0186E0FB016A
:1027E00011928A95E9F78FEF8883F7DD898306DEFA
:1027F0008A8307DE9D838C83DF91CF910895CF93E9
:10280000DF93EA010E94DD1C811109C082E090E0A3
:102810009983888385EF9FEFDF91CF91089590E0B2
:1028200080E0D6DD81E090E09983888390E080E0CD
:10283000F3CF0F931F93CF93DF93EA018C01060F21
:10284000171F0E94DD1C81110BC082E090E099836C
:10285000888385EF9FEFDF91CF911F910F910895AE
:10286000F8018181823038F082E090E0998388839A
:102870008EEF9FEFF0CF81E090E0AADD88E090E05E
:102880009983888390E080E0E6CFCF93DF93009731
:10289000D1F4EB01FB01329686E0DF011D928A95AF
:1028A000E9F78FEF888385E089831A820E94972059
:1028B0008B830E9496209D838C8381E08E838F83FF
:1028C000DF91CF910895DF91CF9139CD89E993E1DF
:1028D0009093A6048093A50408958091A5049091F7
:1028E000A60408951092A6041092A504089580915C
:1028F000A8049091A9040895411105C061157105BE
:102900008105910561F06093A8047093A9048093F8
:10291000AA049093AB044093AC0481E0089580E056
:102920000895FF920F931F93CF93DF938A01EC01D9
:10293000C60FD71FF9800E949720F816190668F075
:1029400082E090E0F801918380838EEF9FEFDF912A
:10295000CF911F910F91FF9008956C817D818E81A1
:102960009F814B81C9DF811108C082E090E0F801AE
:102970009183808384EF9FEFEACF89818093A704BE
:1029800090E00196F8019183808390E080E0DFCFB2
:10299000CF93DF93EA01FC01E60FF71F6481758195
:1029A000868197814381A8DF811109C082E090E090
:1029B0009983888384EF9FEFDF91CF91089581E021
:1029C00090E09983888390E080E0F6CFE8EAF4E035
:1029D0004081518162817381480F511D611D711DBC
:1029E00040835183628373830895CF93C091A7047A
:1029F0004C2F50E06091A8047091A90401960E94A8
:102A0000C2348C2FE3DF1092A704CF910895009772
:102A100099F48091A8049091A9042FEFFB012083E1
:102A2000892B59F02091A70430E02F5F3F4F2417E6
:102A3000350719F4CB01D9CF82CC0895009799F4CA
:102A40008091A8049091A9042FEFFB012083892B8A
:102A500059F02091A70430E02F5F3F4F241735072E
:102A600019F4CB01C2CF6BCC08952DE0AC01249FAB
:102A7000C001259F900D1124E091B104F091B204A2
:102A8000E80FF91F238134812250310981E022307F
:102A9000310508F080E008950F931F93CF93DF93E3
:102AA0000091B3041091B404D0E0C0E080E00C17B2
:102AB0001D0749F491E0811190E0892FDF91CF91BA
:102AC0001F910F9108958111F5CFCE01CEDF219690
:102AD000EECFA091B104B091B204109729F12091EA
:102AE000B3043091B40482179307F0F45DE0589F6B
:102AF0009001599F300D1124A20FB31FED91FC914D
:102B00001197309789F012968C91681768F485E0D8
:102B1000689FE00DF11D112480819181892B21F0A6
:102B200081E09281491708F080E00895EF92FF92CA
:102B30000F931F93CF93DF93EA01FC01E60FF71F7A
:102B400002811381E480F5804F2D6E2DC801C1DF15
:102B500081110DC082E090E0998388838EEF9FEF12
:102B6000DF91CF911F910F91FF90EF900895C801D1
:102B70007CDF882339F082E090E09983888388EFB6
:102B80009FEFEECF10937E0200937D02E0927F02D2
:102B9000F092800281E090E09983888390E080E069
:102BA000DFCFCF92DF92EF92FF920F931F93CF93DD
:102BB000DF937A01EC01C60FD71FC0907D02D09041
:102BC0007E0200917F0210918002412F602FC6018A
:102BD00080DF811110C082E090E0F7019183808353
:102BE0008AEF9FEFDF91CF911F910F91FF90EF90B0
:102BF000DF90CF900895C60138DF882341F082E04E
:102C000090E0F7019183808388EF9FEFEBCF4C81B9
:102C10005D816E817F819A8189818F3F41F082E061
:102C200090E0F701918380838EEF9FEFDBCFEDE0A3
:102C3000EC9D9001ED9D300D1124E091B104F091D7
:102C4000B204E20FF31F0190F081E02D25E0029F16
:102C5000E00DF11D11240190F081E02D27E0129F7D
:102C6000E00DF11D1124808391838B818283438346
:102C70005483658376831F5F1093800281E090E028
:102C8000F7019183808390E080E0ACCFEF92FF92D8
:102C90000F931F93CF93DF937A018C01060F171FB9
:102CA000C091B104D091B204209781F021E030E0CE
:102CB000F801828193814091B3045091B404841748
:102CC000950710F030E020E0232B71F482E090E0D3
:102CD000F701918380838EEF9FEFDF91CF911F915A
:102CE0000F91FF90EF9008954DE0489F9001499F0C
:102CF000300D1124C20FD31FB8DE882341F082E0CB
:102D000090E0F7019183808388EF9FEFE6CFF80191
:102D10002481358120383105C8F687818111D6CFCD
:102D20004181842F90E08F7E009741F082E090E017
:102D3000F7019183808386EF9FEFCFCF4F833E8350
:102D40002D83268128871986223010F421E02887D8
:102D500021E030E0F70131832083BFCF88E090E0AD
:102D6000FA019183808390E080E00895FB018FEF6A
:102D7000808381E181838FEF9FEF9383828380E85B
:102D800090E095838483168217820895FB018FEF6C
:102D9000808391E0918382839383848384E385831A
:102DA00081E090E09783868308954BE050E06AEDE0
:102DB00072E02CCB8F929F92BF92CF92DF92EF92D4
:102DC000FF920F931F93CF93DF93EA01FC01E60F6D
:102DD000F71F828193810481B580E091B104F09165
:102DE000B204309791F482E090E0998388838CEF6D
:102DF0009FEFDF91CF911F910F91FF90EF90DF90A8
:102E0000CF90BF909F908F9008952091B304309100
:102E1000B4048217930738F082E090E099838883A6
:102E20008EEF9FEFE6CF2DE0289F6001299FD00C09
:102E30001124EC0DFD1DE080F180E114F10499F204
:102E40008281081748F785E0089F80011124E00E71
:102E5000F11EF70180819181892B29F6BB20E1F2D7
:102E6000F7E0BF9E40011124C4010E947B21F701BD
:102E700091838083E091B104F091B204EC0DFD1DCB
:102E80000190F081E02DE00FF11F8081918100978A
:102E900039F482E090E0998388838DEF9FEFA9CF8A
:102EA000A40170E060E00E94CB348091B104909165
:102EB000B204C80ED91EF60180819181080F191F36
:102EC000F801B28281E090E09983888390E080E00D
:102ED00090CFAF92BF92CF92DF92FF920F931F934A
:102EE000CF93DF93EA01FC01E60FF71F8281938104
:102EF000F4800091B1041091B2040115110581F420
:102F000082E090E0998388838CEF9FEFDF91CF91EF
:102F10001F910F91FF90DF90CF90BF90AF900895D9
:102F20002091B3043091B4048217930738F082E003
:102F300090E0998388838EEF9FEFE8CF2FEF2F0DDE
:102F40002C3FA8F72DE0289F6001299FD00C112469
:102F50000C0D1D1DF80180819181892B89F6F5E00A
:102F6000FF9E50011124C5010E947B21F80191832D
:102F70008083E091B104F091B204EC0DFD1D8081DD
:102F80009181009739F482E090E0998388838DEFF6
:102F90009FEFBCCFA50170E060E00E94CB34E091D0
:102FA000B104F091B204EC0DFD1DF28281E090E0DD
:102FB0009983888390E080E0A9CFCF92DF92EF924F
:102FC000FF920F931F93CF93DF93860F971FFC0100
:102FD000028113818091B1049091B204892B81F018
:102FE00082E090E0FA01918380838CEF9FEFDF9184
:102FF000CF911F910F91FF90EF90DF90CF900895A8
:10300000C801B0E0A0E00197A109B1098F3F9F4F2F
:10301000A105B10540F082E090E0FA019183808340
:103020008EEF9FEFE4CF7A018DE0809F6001819F5A
:10303000D00C1124C6010E947B21EC01009741F4C1
:1030400082E090E0F701918380838DEF9FEFCFCFF7
:10305000A60170E060E00E94CB34D093B204C0932C
:10306000B1041093B4040093B30490E080E02FEF18
:103070003FEF8017910741F481E090E0F7019183E1
:10308000808390E080E0B3CF3C872B8701962D961C
:10309000F0CFCF92DF92EF92FF920F931F93CF93D7
:1030A000DF93EC01D12CC12C10E000E0F12CE12CDD
:1030B0008A818017110609F0BCF4AE01455F5F4FAD
:1030C00063E070E0C7010E94F221009721F02FEF2A
:1030D0003FEF3C872B87DF91CF911F910F91FF909E
:1030E000EF90DF90CF900895E881F981EC0DFD1D00
:1030F00023813481C90101960115110519F44F810D
:1031000044FD049661E070E0C3D7E816F90608F4C0
:103110007C010F5F1F4F85E0C80ED11CC9CFF8940A
:103120002091AF043091B00481E02115310509F000
:1031300080E0232B09F0789408954F925F926F926C
:103140007F928F929F92AF92BF92CF92DF92EF9237
:10315000FF920F931F93CF93DF933C01660E771E70
:10316000F301828193814C01B12CA12CC091B10457
:10317000D091B204209769F021E030E06091B3046F
:103180007091B4048617970710F030E020E0232BED
:10319000C1F482E090E0FA01918380838EEF9FEF8B
:1031A000DF91CF911F910F91FF90EF90DF90CF9023
:1031B000BF90AF909F908F907F906F905F904F9057
:1031C00008958092810290928202A0928302B0922E
:1031D00084026DE0689F9001699F300D1124C20F39
:1031E000D31FF3018181833040F082E090E0FA0147
:1031F0009183808386EF9FEFD3CF2A012B813C817F
:10320000232BF1F4288139819F8191FF2EC0232B3C
:1032100009F464C02091B6049A81422F490F5527C2
:10322000551FBA0141E050E06138710514F050E0DB
:1032300040E0452B09F452C02A87920F9093B604C0
:103240008150823008F476C06ADF882309F4C7C051
:10325000F3018181813009F480C008F470C08230AC
:1032600009F4B5C090E080E090C0232BB9F1209123
:10327000B5049A81E22FE90FFF27FF1F41E050E0DC
:10328000ED3FF10514F050E040E0452B39F12A877D
:10329000920F9093B504D4CFA081B181A20FB31F38
:1032A00011966C91060F111D0196295F3F4F8417EF
:1032B000950794F3C114D104C9F48F8184FF16C01B
:1032C00035D721E0A8014B5F5F4F8417950708F4BD
:1032D00020E0A7014B5F5F4F21110EC082E090E01C
:1032E000F2019183808387EF9FEF5ACF1FD721E0B0
:1032F000A8014F5F5F4FE9CF88819981E80EF91EE1
:10330000F70114830383FFEFCF1ADF0A7A018A8162
:103310008C151D0409F00CF497CFE881F981EE0DAE
:10332000FF1D428150E030E020E010E000E090E03E
:1033300080E0BDCFF12CE12CD12CC12CE8CF81E075
:1033400090E09C838B83A8DB882309F48BCF81E0FA
:1033500090E03ED880E44AD885CF8B859C85019645
:1033600051F083E090E09C838B8382E090E030D842
:1033700080E436D877CF22E082169104A104B1040C
:103380007CF4CE0186DE009761F3789422E030E091
:10339000F20131832083892BF9F08DEF9FEF00CF6D
:1033A0002D813E818091770290917802281739070C
:1033B000C1F660917B0270917C02AE01455F5F4F68
:1033C0008091790290917A020E940923DCCF82E0F9
:1033D00090E09C838B8346CF90E080E0E1CE82E05A
:1033E00090E0F2019183808385EF9FEFD9CE8F9299
:1033F0009F92AF92BF92CF92DF92EF92FF920F9384
:103400001F93CF93DF93EA018C01060F171FF8017A
:103410008181833098F082E090E09983888386EF01
:103420009FEFDF91CF911F910F91FF90EF90DF9071
:10343000CF90BF90AF909F908F9008958091B104EE
:103440009091B204892B61F081E090E02091B30467
:103450003091B404232B11F490E080E0892B39F4EF
:1034600082E090E0998388838EEF9FEFDACF57DE7A
:10347000882309F4D6C0F8018181813009F48CC019
:10348000E8F0823099F42091B3043091B404E091D3
:10349000B104F091B20490E080E041E050E02817E0
:1034A000390709F0B4C0F8DA811117C0789481E0C7
:1034B00090E09983888390E080E0B3CF2091B304BB
:1034C0003091B404E091B104F091B20490E080E056
:1034D00041E050E02817390741F481E090E00E9474
:1034E000E81180E40E94F611E1CF63817481672BBB
:1034F00011F05483438301963D96ECCFE091B104E3
:10350000F091B204E00FF11F2381348122303105A4
:1035100069F4238534852F3F3F4F41F422E0C216E2
:10352000D104E104F1040CF5CF01B3DD4FEFC41A6F
:10353000D40AE40AF40A035F1F4F4091B304509188
:10354000B40470E060E0C416D506E606F70664F53C
:103550000097A1F27894892B09F4A9CF82E090E03A
:10356000998388838DEF9FEF5CCF458156812091B1
:1035700077023091780242175307C1F6AF01455FD9
:103580005F4F60917B0270917C02809179029091F3
:103590007A020E940923CACF10E000E090E080E0A8
:1035A000C12CD12C7601C9CF0097A1F610E000E024
:1035B000812C912C540183E0E82EF12C1AC0E0916B
:1035C000B104F091B204E00FF11F8381948102975E
:1035D00049F4F482E38282E090E00E94E81180E402
:1035E0000E94F0118FEF881A980AA80AB80A035FA0
:1035F0001F4F8091B3049091B404B0E0A0E088160E
:103600009906AA06BB06DCF290E080E0A3CF6381B6
:1036100074816230710511F45483438301963D96A1
:103620003ECF82E090E09983888385EF9FEFF9CECB
:103630000097B9F48FEFFB018083209181023091D4
:1036400082024DE0429FC001439F900D1124E09102
:10365000B104F091B204E80FF91F8285FB01818368
:1036600008950C949F1188E090E0FA019183808383
:1036700090E080E008951092B0041092AF04E1EB66
:10368000F4E086E0DF011D928A95E9F785ED96E189
:103690009093AE048093AD0408958091AD04909111
:1036A000AE0408952F923F924F925F926F927F9255
:1036B0008F929F92AF92BF92CF92DF92EF92FF9242
:1036C0000F931F93CF93DF93CDB7DEB762970FB6FB
:1036D000F894DEBF0FBECDBFF8942091AF043091B7
:1036E000B0042F5F3F4F3093B0042093AF04789421
:1036F0002091B1043091B2043B832A83232B09F437
:1037000056C12091B3043091B404232B09F44FC166
:103710004D875E876F87788B9C878B878A819B819B
:103720009A8B898BD12CC12C198210E000E08091FA
:10373000B3049091B404C816D90618F43981332320
:1037400029F1F8948091AF049091B004019790937F
:10375000B0048093AF047894C80162960FB6F894D1
:10376000DEBF0FBECDBFDF91CF911F910F91FF90B4
:10377000EF90DF90CF90BF90AF909F908F907F9011
:103780006F905F904F903F902F900895B60190E01A
:1037900080E02AD38887A989BA8917968C911797D0
:1037A00081FD8DC013968D919C911497039709F01C
:1037B00086C01596ED91FC91FF83EE832B853C85A9
:1037C000E217F30709F07BC0712C612C512C412CBE
:1037D00063C093D39A87898710E04114510431F470
:1037E000A989BA8917961C9112951170A989BA896D
:1037F000ED91FC91E60DF71D23803480111169C015
:10380000BFEF2B1A3B0A61E070E0C10141D45C01BB
:10381000A989BA891B968D919C918F3F980709F4CD
:103820005CC0B50137D74C01009709F4BBC0E985EE
:10383000FA85E80FF91FA989BA891A968C91840D27
:10384000808311114DC08F010F5F1F4F8091770250
:1038500090917802AE81BF81A817B90709F09DC089
:1038600081E090E0B885BB2311F090E080E0710129
:1038700009851A859501A401B60191958195910953
:103880003FD38C01892B11F0C40180D58FEF481AEA
:10389000580A95E0690E711CA989BA8912968C9113
:1038A0008415150429F024F0B981BB2309F491CFC4
:1038B000E885EE2321F0B60190E080E097D2FFEF9B
:1038C000CF1ADF0A29893A89235F3F4F3A8B298B28
:1038D0002ECFE5E02E0E311C96CFC5010CD5A3CF1F
:1038E0008D859E85AF85B88981839283A383B483B8
:1038F0008F010B5F1F4FAACFE080F180EC81FD812B
:10390000EE0EFF1ED70113966D917C9114978C914A
:103910008F3FE1F1E1E0F0E002C0EE0FFF1F8A957A
:10392000E2F7CF01092E000CAA0BBB0BFB01408173
:1039300051816281738184239523A623B72321E0DB
:10394000892B8A2B8B2B09F420E0D8012C93D701EB
:1039500011968C91080F111DEA81FB813196FB8332
:10396000EA832C813D81295F3F4F3D832C83A989C8
:10397000BA89ED91FC91E60DF71D82812A813B8188
:103980008217130611F00CF0B7CF6ACFF70141810F
:1039900050E0C8010E94C234DACF1D821C821B8213
:1039A0001A82E5CF31E0398306EF1FEF6FCF10E0C9
:1039B00000E0C7CEB4CB789408952F923F924F92F7
:1039C0005F926F927F929F92AF92BF92CF92DF925F
:1039D000EF92FF920F931F93CF93DF9300D000D00D
:1039E000CDB7DEB70091B1041091B204992493943D
:1039F0000115110509F43EC0A090B304B090B404C1
:103A00008EDB982E8823B1F11092B2041092B1048B
:103A10001092B4041092B3041092B5041092B6043C
:103A20008FEF9FEFDC018093810290938202A0933D
:103A30008302B093840278947BD31E830D83C12CC0
:103A4000D12C7601C501B0E0A0E089839A83AB83D5
:103A5000BC8322242A94322C89819A81AB81BC8137
:103A6000C816D906EA06FB06F4F0C8018FD480E434
:103A70000E94F611892D26960FB6F894DEBF0FBE70
:103A8000CDBFDF91CF911F910F91FF90EF90DF900D
:103A9000CF90BF90AF909F907F906F905F904F902E
:103AA0003F902F900895AD81BE8192E0C916D10458
:103AB000E104F1040CF51B968D919C918F3F9807C2
:103AC00009F028D5ED81FE8134862386ED81FE81C3
:103AD00080819181B12CA12C412C512C3201892B58
:103AE00059F5BFEFCB1ADB0AEB0AFB0AED81FE8129
:103AF0003D96FE83ED83B0CF15962D913C911697A0
:103B0000809177029091780228173907F9F61B9671
:103B10008D919C91ADD5DACF8A0D9B1DDC018D91E5
:103B20009C91009709F032D4BFEF4B1A5B0A6B0AE5
:103B30007B0AE5E0AE0EB11CAD81BE818D919C91FA
:103B4000119712964C9150E070E060E044165506D3
:103B5000660677060CF31AD4C4CFCF93DF93EA013D
:103B60002CDF811109C082E090E09983888385EF82
:103B70009FEFDF91CF91089581E090E00E94E811DE
:103B800081E090E09983888390E080E0F2CF15DFB8
:103B90001092AE041092AD04089542E050E06CE142
:103BA00073E00C940612FF920F931F93CF93DF9351
:103BB0008A01EC01C60FD71FF980B9D20897F81611
:103BC000190671F068F082E090E0F801918380833B
:103BD0008EEF9FEFDF91CF911F910F91FF9008958E
:103BE0006C817D818E819F814B810E947C1481112B
:103BF00008C082E090E0F8019183808384EF9FEF1A
:103C0000E9CFF9800E9477144F2D50E0BE01685F24
:103C10007F4F0E94C23489810E94E61481E090E0C7
:103C2000F8019183808390E080E0D4CFDF92EF921F
:103C3000FF920F931F93CF93DF938A01EC01C60F7E
:103C4000D71F0E9477147C01D98071D2DD2059F0F2
:103C5000029721E030E0D816190619F010F030E094
:103C600020E0232B79F482E090E0F80191838083B7
:103C70008EEF9FEFDF91CF911F910F91FF90EF900B
:103C8000DF900895EF2841F482E090E0F8019183FD
:103C9000808384EF9FEFEECFF9800E9477144F2D41
:103CA00050E0BE016E5F7F4F0E94C23489810E9446
:103CB000E61481E090E0F8019183808390E080E059
:103CC000D9CF8DEC9DE19093B8048093B70408950B
:103CD0008091B7049091B80408950895FC01118271
:103CE0001082938382830895DB011D921C92DC0174
:103CF0001296ED91FC9113977183608313967C93D8
:103D00006E9312970895FC0180819181DB018D9360
:103D10009C93A081B181109741F08D919C919183EA
:103D20008083892B11F4F383E2830895FC01808161
:103D30009181DB018D939C93892B11F473836283B2
:103D4000718360830895FC011182108293838283C2
:103D50000895CF93DF931F921F92CDB7DEB71A82DB
:103D60001982F894BE016F5F7F4F8EEB94E0CBDF3A
:103D700089819A81009709F009D389819A81892BD9
:103D800089F7BE016F5F7F4F82EC94E0BCDF8981D1
:103D90009A81009709F0FAD289819A81892B89F753
:103DA00078940F900F90DF91CF910895CF93DF9388
:103DB0001F921F92CDB7DEB71A821982F894BE0106
:103DC0006F5F7F4F8AEB94E09EDF89819A81009735
:103DD00009F0DCD289819A81892B89F778940F9038
:103DE0000F90DF91CF91089581E0089590E080E0F9
:103DF0000895EF92FF920F931F93CF93DF931F923B
:103E00001F92CDB7DEB71A8219828091B90407EFED
:103E10001FEF8823A1F1F894BE016F5F7F4F82EC02
:103E200094E071DF789489819A81EE24E394F12CF7
:103E3000892B51F4F894BE016F5F7F4F8EEB94E0B5
:103E400062DF7894F12CE12C89819A810EEF1FEFCB
:103E50000097A9F0FC014281538164E070E01AD61A
:103E60008C01892B61F0F89469817A81C701880FF0
:103E7000991F880F991F82549B4F58DF7894C8016F
:103E80000F900F90DF91CF911F910F91FF90EF90C6
:103E900008950F931F93CF93DF9300D01F92CDB758
:103EA000DEB71C821B821A8219828091B90407EF47
:103EB0001FEF8823C1F0AE014D5F5F4F64E070E0FB
:103EC000CE0101965AD68C01892B69F4E981FA81D9
:103ED0008B819C8193838283F89469817A818AEBB8
:103EE00094E002DF7894C8010F900F900F900F902C
:103EF000DF91CF911F910F9108955FD70496089598
:103F00008F929F92AF92BF92CF92DF92EF92FF92E9
:103F10000F931F93CF93DF931F921F92CDB7DEB7FE
:103F20001A821982BC016F5F7F4F6330710598F070
:103F3000AA24AA94BA2CC5010F900F90DF91CF91BB
:103F40001F910F91FF90EF90DF90CF90BF90AF90B7
:103F50009F908F9008954115510551F348015901E3
:103F60008A016C01CADF8815990511F7E114F10483
:103F7000F9F28E0D9F1DA816B906D0F28091B904F2
:103F80008823F1F0F894B501645071099701AE01EE
:103F90004F5F5F4FC801049685D65C01892B71F491
:103FA00089819A81F80193838283C601880F991FC2
:103FB000880F991FB80182549B4F96DE7894BBCF2F
:103FC00087EFA82EBB24BA94B6CFAF92BF92CF9200
:103FD000DF92EF92FF920F931F93CF93DF931F9285
:103FE0001F92CDB7DEB71A821982892B09F047C01C
:103FF0006115710509F443C04115510509F43FC02D
:104000002115310509F43BC001151105C1F180915D
:10401000B9048823B9F179016A015B01F894BE0102
:104020006F5F7F4F8AEB94E06EDE789489819A818E
:10403000009759F1DC0112966D917C91A8010496CC
:104040004AD68C01E981FA81D501ED93FC938281F6
:1040500093810496F601918380834FDFD7018D937E
:104060009C93C8010F900F90DF91CF911F910F91FA
:10407000FF90EF90DF90CF90BF90AF9008950FEF3B
:104080001FEFEFCF07EF1FEFECCF0EEF1FEFE9CFE2
:10409000CF93DF93EC01672B71F498D68C179D07B3
:1040A00060F08BD62496C80FD91F8AD68C0F9D1F1F
:1040B000DF91CF91089587D6F1CF90E080E0F8CFDF
:1040C0000F931F93CF93DF932091B90421112BC03D
:1040D0008B01EC018EEB94E001DE82EC94E0FEDDDE
:1040E0008AEB94E0FBDD86D00097C1F46FD670E0D8
:1040F00060E0CEDF45E852E062E070E073D1009707
:1041000069F4809185029091860272D6B801CE0141
:10411000A7D4009719F421E02093B904DF91CF913F
:104120001F910F91089584EF9FEFF8CF4CC64EC6B4
:10413000CF93DF934ED6EC01892B11F40ADE36DEE5
:10414000CE01DF91CF910895CF93DF9342D6EC015A
:10415000892B09F4FEDDCE01DF91CF910895809186
:104160008502909186020895CF93DF938091B904E0
:10417000D0E0C0E08823D1F040D6EC01892BB1F427
:10418000E8DD14DE8091850290918602C3D1D2D2FF
:10419000EC01892B59F48EEB94E0D5DD82EC94E0B0
:1041A000D2DD8AEB94E0CFDD1092B904CE01DF912D
:1041B000CF910895CF93DF930097A1F4DF91CF9132
:1041C0000895EC011A821982A883309711F0928326
:1041D00081832F5F3F4FFC01860F971F42175307C4
:1041E00081F7ECCF30E020E0F0E0E0E0AFEF6F5F90
:1041F0007F4FF4CFAF92BF92CF92DF92EF92FF92B8
:104200000F931F93CF93DF9387E096E07C012CEF11
:10421000E22288E2C82E83E0D82E9EE2A92E93E007
:10422000B92ECEE5D6E08E01D6014D915D916D019E
:10423000F501619171915F01D8011196FC92EE92A6
:1042400015965C934E93149713965C934E93129726
:1042500017967C936E9316979B012F5F3F4F249F79
:10426000C001259F900D349F900D112419969C93A9
:104270008E931897C7019EDFF80180859185E80E1F
:10428000F91E065F1F4FFEE2CF16F3E0DF0661F670
:10429000E8ECF4E08CE391E0DF019C011D922150F9
:1042A0003040E1F71092C7041092C6048CE796E004
:1042B0001F8E1E8E1BA21AA219A218A21DA21CA23A
:1042C0001FA21EA22A968C179D0791F710925B06DB
:1042D00010925A0610925D0610925C0690E080E003
:1042E000DF91CF911F910F91FF90EF90DF90CF90D2
:1042F000BF90AF900895009761F1F89481319105D6
:1043000050F48091600690916106892B31F020E095
:1043100090E080E011C08197D8F480916A06909176
:104320006B06892BC9F48091740690917506892BD0
:1043300079F022E082E090E0EAE0E89FD001E99F96
:10434000B00D1124A25AB94F8D919C91009741F460
:10435000789490E080E0089521E081E090E0ECCF57
:10436000E29FF0011124E25AF94FDC0111964D91C0
:104370005C91518340834281538141505109538361
:104380004283FC012193CF0178940895009749F16D
:10439000DC018E91863041F4E0915C06F0915D067F
:1043A0003097F9F0CD0119948630D8F4282F30E0F9
:1043B000F8948FEF8C938AE0829FF001839FF00D39
:1043C0001124E25AF94F8081918112969C938E9329
:1043D0001197B183A0838281938101969383828315
:1043E00078940895CF92DF92EF92FF920F931F93EC
:1043F000CF93DF939C018BEC94E08C7F41155105AA
:1044000009F485C02115310509F481C061157105D4
:1044100009F47DC08A01AB01B9016D5F7F4F6C7FEC
:104420009B012F5F3F4F249F7001259FF00C349F0D
:10443000F00C1124F894EEE5F6E023E030E0E90119
:10444000A6A1B7A1C68CD78CCD2809F054C010976F
:1044500009F03CC0C090C604D090C70429E331E005
:104460002C193D092E153F0530F47894CFEFDFEF7E
:1044700086EF9FEF1FC02AE02C9FF0012D9FF00DCB
:104480001124E25AF94F91838083558344835383E7
:10449000428377836683F186E0868CDEEC0CFD1C1C
:1044A000F092C704E092C6047894CF3FDC0701F392
:1044B00090E080E0F801D183C083DF91CF911F911C
:1044C0000F91FF90EF90DF90CF900895AE15BF054C
:1044D00090F02AE02C9FF0012D9FF00D1124E25A5C
:1044E000F94F918380835583448353834283778339
:1044F000668360DED9CF8A0F9B1F2F5F3F4F3A96AE
:104500002630310509F09BCFCFEFDFEFCDCF8FEF16
:104510009FEFD3CFFF920F931F93CF93DF939C0115
:10452000235031092330310508F070C0EC01F894B4
:1045300085E09AE09C9FD0019D9FB00D1124AA595F
:10454000B94F082F10E0909FF001919FF00D1124BA
:10455000E25AF94F20813181C017D10714F1FF24AD
:10456000F394232B41F52AE0209FF001219FF00DC9
:104570001124E25AF94F8091C6049091C7044085F6
:104580005185841B950B9093C7048093C6042C9F80
:10459000F0012D9FF00D1124E25AF94F118610867B
:1045A0001CC0232B39F42D913C911197232BA9F496
:1045B0008150C7CFF12C8AE08C9FF0018D9FF00DC8
:1045C0001124E25AF94F4085518570E060E0808106
:1045D00091810E94CB34F110C6CF8AE08C9FF0010C
:1045E0008D9FF00D1124E25AF94F1182108215822D
:1045F00014821382128217821682789490E080E0EF
:10460000DF91CF911F910F91FF9008958FEF9FEF52
:10461000F7CF4115510549F1009739F16115710541
:1046200021F1F89420915A0630915B06232BB9F4BE
:1046300020915C0630915D06232B89F490935B06F4
:1046400080935A0670935D0660935C06789426E02A
:1046500030E090E080E0FA0131832083089578947F
:104660002FEF3FEF86EF9FEFF6CF8FEF9FEF08958D
:10467000069769F4F89410925B0610925A0610920D
:104680005D0610925C06789490E080E008958FEFCC
:104690009FEF08956115710519F4F0E0E0E011C095
:1046A0008630910581F4E0915A06F0915B063097CF
:1046B000A1F3CB0101961995009779F3FC0186E0EF
:1046C0008193CF0108959C01235031092330310596
:1046D00020F72AE0289FD001299FB00D1124A25A6B
:1046E000B94F2D913C911197232BB9F216962D912C
:1046F0003C9117972617370780F2F89412962D9160
:104700003C9113972115310529F0ED91FC911197FA
:10471000309711F47894C1CF4181528111965C9306
:104720004E932150310913963C932E931297819307
:104730007894C7CFE4E0F6E086E5DF011D928A9524
:10474000E9F7E8ECF4E08CE391E0DF019C011D92D5
:1047500021503040E1F71092C7041092C604EEE5F4
:10476000F6E08CE3DF011D928A95E9F7EAE5F6E0D1
:1047700084E0DF011D928A95E9F790E080E00895DA
:10478000CF93DF93C0918702D0918802CF3FDC079F
:1047900059F464D5909388028093870297FF09C0EB
:1047A000D0938802C093870284EF9FEFDF91CF916F
:1047B000089590E080E0FACF8230910528F480934C
:1047C0009A0690E080E008958FEF9FEF08954F9252
:1047D0005F926F927F92AF92BF92CF92DF92EF92F1
:1047E000FF920F931F93CF93DF931F921F92CDB72A
:1047F000DEB71A821982009709F479C06115710534
:1048000009F475C0209187023091880207EF1FEFED
:104810002F3F3F4F09F445C06B015C01412C512CE7
:104820003201F12CE12C10E000E09E012F5F3F4FA0
:10483000A6014E195F09B5016E0D7F1D809187029B
:10484000909188026AD5892B09F04BC089819A81A1
:10485000009741F4E114F10429F420919A062223EF
:1048600009F442C0E80EF91EEC14FD04D0F480E80F
:10487000481684E858068EE16806710420F560E069
:1048800070E0CB010E94942E2AE0420E511C611C64
:10489000711C0A3F4FEF140721F0043F8FEF1807F8
:1048A000A1F4C8010F900F90DF91CF911F910F914C
:1048B000FF90EF90DF90CF90BF90AF907F906F9080
:1048C0005F904F90089501EF1FEF81E090E0013F6E
:1048D0002FEF120711F090E080E0892B09F4A5CFAB
:1048E000E0CF04EF1FEFDDCF0AEF1FEFDACF0FEFBE
:1048F0001FEFD7CF4F925F926F927F92AF92BF928E
:10490000CF92DF92EF92FF920F931F93CF93DF939B
:104910001F921F92CDB7DEB71A821982009709F451
:1049200079C06115710509F475C020918702309135
:10493000880207EF1FEF2F3F3F4F09F445C06B017F
:104940005C01412C512C3201F12CE12C10E000E0F3
:104950009E012F5F3F4FA6014E195F09B5016E0DF5
:104960007F1D80918702909188028DD4892B09F058
:104970004BC089819A81009741F4E114F10429F434
:1049800020919A06222309F442C0E80EF91EEC1485
:10499000FD04D0F480E8481686E9580688E96806E0
:1049A000710420F560E070E0CB010E94942E2AE0B3
:1049B000420E511C611C711C0E3F4FEF140721F079
:1049C000043F8FEF1807A1F4C8010F900F90DF91FB
:1049D000CF911F910F91FF90EF90DF90CF90BF90FC
:1049E000AF907F906F905F904F90089502EF1FEF10
:1049F00081E090E0023F2FEF120711F090E080E09D
:104A0000892B09F4A5CFE0CF04EF1FEFDDCF0EEF28
:104A10001FEFDACF0FEF1FEFD7CF80918702909172
:104A200088028F3F980749F011D4892B49F48FEF02
:104A30009FEF909388028093870290E080E0089532
:104A400084EF9FEF0895FC01680F791F90E080E0EC
:104A5000E617F70709F408952191820F911DF8CF09
:104A600020919B06211113C08BDE009791F41092C8
:104A7000A1061092A00610929F0610929E06109218
:104A80009D0610929C0621E020939B06089584EFDA
:104A90009FEF0895AF92BF92CF92DF92EF92FF9275
:104AA0000F931F93CF93DF93009709F460C04630B4
:104AB000510508F45CC020919B06C7EFDFEF22236D
:104AC00009F449C08C01060F171FF801C080D1807E
:104AD000C114D10409F44EC096012A5F3F4F42171A
:104AE000530708F447C07C018091A0069091A1066D
:104AF00093838283B6016C5F7F4F5801A60EB71E69
:104B0000C801A1DFF5019183808364E070E0C801F2
:104B10005EDEEC01892BF9F481E090E04DDEB60118
:104B2000C801049654DEEC01892B91F462E070E038
:104B3000C5014DDEEC01892B59F4C70127DC8091BA
:104B4000A0069091A10601969093A1068093A006DD
:104B500090E080E031DECE01DF91CF911F910F9187
:104B6000FF90EF90DF90CF90BF90AF900895CFEF80
:104B7000DFEFF1CFC9EFDFEFEECF6F927F928F9231
:104B80009F92AF92BF92CF92DF92EF92FF920F93DC
:104B90001F93CF93DF9300D01F92CDB7DEB700975E
:104BA00009F47AC04115510509F476C020919B069D
:104BB00007EF1FEF222309F44DC03A017B015C018E
:104BC00064E070E0CE01019695DE8C01892B09F03E
:104BD00041C009811A810115110509F45AC0480123
:104BE00086E0880E911CB701680D791D80918902BD
:104BF00090918A024FDD6C01009709F450C0A70123
:104C000070E060E00E94CB3489819A81AB81BC81E5
:104C1000EC0CFD1CF70181939193A193B1937F015B
:104C200081E090E0C9DDB801C70164DE892B31F570
:104C300062E070E0C701800F911F5CDE8C01892B60
:104C4000E9F490E080E0B8DDF501D182C082F301A3
:104C500091828082C8010F900F900F900F90DF918A
:104C6000CF911F910F91FF90EF90DF90CF90BF9069
:104C7000AF909F908F907F906F90089590E080E02C
:104C80009BDDF50111821082F30111821082C601B1
:104C90007DDB09EF1FEFDECF0FEF1FEFDBCF06EF5E
:104CA0001FEFD8CF0097A1F04115510589F02115CC
:104CB000310571F0F90136966E177F0748F0DC0177
:104CC0002D933C93DA01ED93FC9390E080E00895FE
:104CD0008FEF9FEF0895AF92BF92CF92DF92EF9246
:104CE000FF920F931F93CF93DF93009709F45FC058
:104CF0004115510509F45BC06530710508F457C0D2
:104D000020919B06C7EFDFEF222391F1DC01CD90CC
:104D1000DC9011971296ED91FC9196012A5F3F4F1E
:104D2000C9EFDFEF2617370719F5C0919C06D09120
:104D30009D06209749F521E030E030939D062093B1
:104D40009C067A018C01F0939F06E0939E06560123
:104D5000B4E0AB0EB11CB50176DE0A0D1B1DF801E7
:104D6000208131818217930729F5D701CD92DC92FA
:104D7000CE01DF91CF911F910F91FF90EF90DF90C7
:104D8000CF90BF90AF90089520919E0630919F06DE
:104D90002F5F3F4FCCEFDFEFE217F30790F2CBEF3F
:104DA000DFEF2E173F0768F2D0E0C0E0CACFCFEFA9
:104DB000DFEFDECFC3EFDFEFDBCF84E090E00895DD
:104DC00082E090E008958CEF9FEF089580E290E0FC
:104DD00008951092A1061092A00610929F061092BC
:104DE0009E0610929D0610929C0690E080E0089529
:104DF00090938A0280938902089580919B0688236C
:104E000091F00BDE009789F41092A1061092A00693
:104E100010929F0610929E0610929D0610929C067C
:104E200010929B06089590E080E00895009749F065
:104E30006115710531F0FC0111821082FB011182B4
:104E400010820895F3CFCF93DF938091A2069091C3
:104E5000A3060E94CF30EC018091A4069091A50694
:104E60000E94CF30019771F48091A6069091A70619
:104E7000219771F401969093A7068093A606DF917F
:104E8000CF9108958091A6069091A706CD2B91F31E
:104E90000197F1CFCF93DF938091AA069091AB0653
:104EA0000E94CF30EC018091AC069091AD060E943B
:104EB000CF30019771F48091AE069091AF062197A3
:104EC00071F401969093AF068093AE06DF91CF9177
:104ED00008958091AE069091AF06CD2B91F3019786
:104EE000F1CFCF93DF938091AC069091AD060E94F5
:104EF000CF30EC018091AA069091AB060E94CF3092
:104F0000019771F48091AE069091AF06CD2B71F4AC
:104F100001969093AF068093AE06DF91CF910895EE
:104F20008091AE069091AF06219791F30197F1CF52
:104F3000CF93DF938091A4069091A5060E94CF3075
:104F4000EC018091A2069091A3060E94CF300197B8
:104F500071F48091A6069091A706CD2B71F401966D
:104F60009093A7068093A606DF91CF910895809134
:104F7000A6069091A706219791F30197F1CF02978A
:104F80008431910540F48C5C9C4FFC018081082E9B
:104F9000000C990B08958FEF9FEF08950F931F93C7
:104FA000CF93DF93CDB7DEB78C0120E030E040E84F
:104FB0005FE3FB016081718182819381BDD28111A8
:104FC0000DC08091A6069091A706F8019183808379
:104FD0008091AE069091AF0693838283DF91CF914B
:104FE0001F910F9108958F929F92AF92BF92CF928F
:104FF000DF92EF92FF920F931F93CF93DF93CDB782
:10500000DEB77B015A0120E030E040E85FE3FB01BE
:1050100060817181828193818FD2882309F48BC052
:10502000F501808190E09093A3068093A206F80199
:10503000808190E09093A5068093A406F60160819C
:10504000718182819381E4D27093AB066093AA064A
:10505000F4016081718182819381DAD27093AD060F
:105060006093AC068091A2069091A30660E00E9436
:1050700066308091A4069091A50660E00E9466309B
:105080008091AA069091AB0660E00E946630809104
:10509000AC069091AD0660E00E9466308091A20659
:1050A0009091A30661E00E94A2308091A4069091A5
:1050B000A50661E00E94A2308091AA069091AB06FD
:1050C00061E00E94A2308091AC069091AD0661E053
:1050D0000E94A2308091A2069091A30650DF41E089
:1050E00050E068E977E2DFD38091A4069091A506AD
:1050F00046DF41E050E063E277E2D5D38091AA0633
:105100009091AB063CDF41E050E061E777E2CBD322
:105110008091AC069091AD0632DF41E050E06AE448
:1051200077E2C1D380E090E0A0E8BFE3F70180839D
:105130009183A283B383DF91CF911F910F91FF9051
:10514000EF90DF90CF90BF90AF909F908F90089599
:1051500040E855E260E070E090E080E000C081301F
:10516000910579F01CF4892B39F00895823091056E
:1051700061F0039771F0089526E08FEB96E00C94B0
:10518000C13126E08CE597E0FACF26E089EF97E081
:10519000F6CF26E086E998E0F2CF1F920F920FB685
:1051A0000F9211240BB60F922F933F934F935F935F
:1051B0006F937F938F939F93AF93BF93EF93FF93DF
:1051C0008FE89DEF9093250180932401BAD0FF9141
:1051D000EF91BF91AF919F918F917F916F915F916F
:1051E0004F913F912F910F900BBE0F900FBE0F90DC
:1051F0001F9018958FE89DEF9093250180932401CF
:10520000A3E7B0E08C918E7F8C93E0E2F1E08081A7
:105210008C7F8083E1E2F1E08081877E80838081E2
:105220008460808380818C7F80838C9181608C936B
:105230000895E3E7F0E0808190819E7F9083817004
:10524000089581E008951092B206089568EE73E023
:1052500080E090E069D590E080E0089526E040E0AD
:1052600050E16EE070E08FEB96E00E94C1318FEB71
:1052700096E0BDD7892B21F08FEB96E0D2D7F7CF00
:1052800090E080E00895CF92DF92EF92FF920F932B
:105290001F93CF93DF936B017A01E9011982188282
:1052A0008FEB96E0A4D7892B69F18601CC24C394B7
:1052B00082E0D82E8091B206811110C08FEB96E06B
:1052C000B0D70297B9F7C092B206F801D1928F0118
:1052D00088819981019699838883ECCF888199810F
:1052E0008E159F0578F48FEB96E09BD78F3F98073C
:1052F000A9F3F80181938F0188819981019699839F
:105300008883ECCF90E080E0DF91CF911F910F91E7
:10531000FF90EF90DF90CF9008950F931F93CF935E
:10532000DF93EA0189018FEB96E00E945134F80186
:10533000D183C08390E080E0DF91CF911F910F91E6
:1053400008958091B30691E0980F9093B306882357
:1053500049F021E030E03093B5062093B406809305
:10536000B306089578940E94DF04F8948091B30600
:105370008150F5CFCF93DF9310929C0910929B0937
:1053800009D5E6DEC091AE02D091AF021982188233
:1053900060ED77E080E090E00E94D40470E060E08F
:1053A00090E080E00E945203009709F037C00E940D
:1053B000E509F8947894BE0164557F4F8A819B81FA
:1053C0000E945503892B69F46FEF7FEFCB010E9498
:1053D000E6030E94CE04882321F0CE54DF4F81E003
:1053E0008883F89407DF0E94D104811104C00E94D1
:1053F000CE0491E0811190E090939B0978940E94F3
:10540000E311EC01789480919B0981110AC00E94FC
:10541000080B0E94B204F89490E080E0DF91CF91F5
:1054200008950E94AF040E94D10491E0811106C04A
:105430000E94CE0491E0811101C090E090939C09FC
:1054400090919C0981E0911180E080939B0980916B
:105450009C098111EEDE219729F40E94E311892B2A
:1054600009F4F1DE0E94E311EC01EBDECCCF5058E1
:10547000BB27AA270ED075C166D130F06BD120F0C2
:1054800031F49F3F11F41EF45BC10EF4E095E7FB8D
:1054900051C1E92F77D180F3BA17620773078407E8
:1054A000950718F071F49EF58FC10EF4E0950B2E60
:1054B000BA2FA02D0B01B90190010C01CA01A00166
:1054C0001124FF27591B99F0593F50F4503E68F1C1
:1054D0001A16F040A22F232F342F4427585FF3CF02
:1054E000469537952795A795F0405395C9F77EF4D3
:1054F0001F16BA0B620B730B840BBAF09150A1F01C
:10550000FF0FBB1F661F771F881FC2F70EC0BA0FA1
:10551000621F731F841F48F4879577956795B79529
:10552000F7959E3F08F0B3CF9395880F08F0992721
:10553000EE0F979587950895D9D008F481E00895E6
:105540000CD00FC107D140F0FED030F021F45F3F06
:1055500019F0F0C0511139C1F3C014D198F3992357
:10556000C9F35523B1F3951B550BBB27AA27621727
:105570007307840738F09F5F5F4F220F331F441F6C
:10558000AA1FA9F333D00E2E3AF0E0E830D09150A4
:105590005040E695001CCAF729D0FE2F27D0660F91
:1055A000771F881FBB1F261737074807AB07B0E8D0
:1055B00009F0BB0B802DBF01FF2793585F4F2AF0E6
:1055C0009E3F510568F0B6C000C15F3FECF3983EC6
:1055D000DCF3869577956795B795F7959F5FC9F743
:1055E000880F911D9695879597F90895E1E0660FCC
:1055F000771F881FBB1F621773078407BA0720F045
:10560000621B730B840BBA0BEE1F88F7E0950895AD
:1056100004D06894B111D9C00895BCD088F09F57C8
:1056200090F0B92F9927B751A0F0D1F0660F771FEE
:10563000881F991F1AF0BA95C9F712C0B13081F0CE
:10564000C3D0B1E00895C0C0672F782F8827B85F16
:1056500039F0B93FCCF3869577956795B395D9F72F
:105660003EF490958095709561957F4F8F4F9F4F39
:105670000895E89409C097FB3EF490958095709545
:1056800061957F4F8F4F9F4F9923A9F0F92F96E98E
:10569000BB279395F695879577956795B795F11103
:1056A000F8CFFAF4BB0F11F460FF1BC06F5F7F4FA0
:1056B0008F4F9F4F16C0882311F096E911C07723B2
:1056C00021F09EE8872F762F05C0662371F096E8BB
:1056D000862F70E060E02AF09A95660F771F881F8A
:1056E000DAF7880F9695879597F90895990F00082E
:1056F000550FAA0BE0E8FEEF16161706E807F907A4
:10570000C0F012161306E407F50798F0621B730B3E
:10571000840B950B39F40A2661F0232B242B252BBF
:1057200021F408950A2609F4A140A6958FEF811D62
:10573000811D089597F99F6780E870E060E0089503
:105740009FEF80EC089500240A9416161706180699
:105750000906089500240A94121613061406050675
:105760000895092E0394000C11F4882352F0BB0F06
:1057700040F4BF2B11F460FF04C06F5F7F4F8F4F69
:105780009F4F089557FD9058440F551F59F05F3FA4
:1057900071F04795880F97FB991F61F09F3F79F053
:1057A00087950895121613061406551FF2CF4695D5
:1057B000F1DF08C0161617061806991FF1CF869557
:1057C0007105610508940895E894BB27662777273B
:1057D000CB0197F908958ADF08F48FEF08950BD075
:1057E000C0CFB1DF28F0B6DF18F0952309F0A2CFC3
:1057F000A7CF1124EACFC6DFA0F3959FD1F3950F71
:1058000050E0551F629FF001729FBB27F00DB11D44
:10581000639FAA27F00DB11DAA1F649F6627B00DD4
:10582000A11D661F829F2227B00DA11D621F739FBD
:10583000B00DA11D621F839FA00D611D221F749FCB
:105840003327A00D611D231F849F600D211D822F12
:10585000762F6A2F11249F5750408AF0E1F0882359
:105860004AF0EE0FFF1FBB1F661F771F881F915066
:105870005040A9F79E3F510570F05CCFA6CF5F3F27
:10588000ECF3983EDCF3869577956795B795F79599
:10589000E7959F5FC1F7FE2B880F911D9695879521
:1058A00097F908950895883008F076C0E82FF0E061
:1058B000EE0FFF1FE557FD4F7183608381508730E6
:1058C00008F03DC0E82FF0E08827E659F34D8F4FF0
:1058D0000C94A134A72C712C792C852C922CB32CF0
:1058E000C02C809169008C7F482B40936900E89A16
:1058F000089580916900837F440F551F440F551F01
:10590000482B40936900E99A0895809169008F7C43
:1059100074E0440F551F7A95E1F7482B40936900D6
:10592000EA9A0895809169008F7366E0440F551FCD
:105930006A95E1F7482B40936900EB9A08958091AE
:105940006A008C7F482B40936A00EC9A08958091FE
:105950006A00837F440F551F440F551F482B409307
:105960006A00ED9A089580916A008F7C24E0440FCC
:10597000551F2A95E1F7482B40936A00EE9A089547
:1059800080916A008F7396E0440F551F9A95E1F756
:10599000482B40936A00EF9A08951F920F920FB61A
:1059A0000F9211240BB60F922F933F934F935F9357
:1059B0006F937F938F939F93AF93BF93EF93FF93D7
:1059C000E0918F02F09190021995FF91EF91BF91B4
:1059D000AF919F918F917F916F915F914F913F9187
:1059E0002F910F900BBE0F900FBE0F901F90189528
:1059F0001F920F920FB60F9211240BB60F922F9396
:105A00003F934F935F936F937F938F939F93AF9346
:105A1000BF93EF93FF93E0919102F0919202199559
:105A2000FF91EF91BF91AF919F918F917F916F9176
:105A30005F914F913F912F910F900BBE0F900FBE32
:105A40000F901F9018951F920F920FB60F9211246E
:105A50000BB60F922F933F934F935F936F937F9368
:105A60008F939F93AF93BF93EF93FF93E091930234
:105A7000F09194021995FF91EF91BF91AF919F9191
:105A80008F917F916F915F914F913F912F910F90E7
:105A90000BBE0F900FBE0F901F9018951F920F9284
:105AA0000FB60F9211240BB60F922F933F934F9383
:105AB0005F936F937F938F939F93AF93BF93EF9376
:105AC000FF93E0919502F09196021995FF91EF9165
:105AD000BF91AF919F918F917F916F915F914F9106
