:10000000F8C0000027C1000025C1000023C1000086
:1000100021C100001FC100001DC100001BC1000064
:1000200019C1000017C1000015C1000013C1000074
:1000300011C100000FC100000DC100000BC1000084
:1000400009C1000007C1000005C1000003C1000094
:1000500001C10000FFC00000FDC000000C942B0F88
:10006000F9C000000C94C7120C94FD12F3C00000FC
:10007000F1C00000EFC00000EDC00000EBC00000C8
:10008000E9C00000E7C00000E5C00000E3C00000D8
:100090000C9453130C948913DDC00000DBC00000E6
:1000A000D9C00000D7C00000D5C00000D3C00000F8
:1000B000D1C00000CFC00000CDC00000CBC0000008
:1000C000C9C00000C7C000000C94D20B0C94DF1311
:1000D0000C941514BFC000000C946B140C94A11464
:1000E000B9C0000000000A0B02090C0D0E0807033E
:1000F00004010000000000000000000000000000FB
:1001000000000000000000000000000000000000EF
:1001100012111000000000000000000000000000AC
:100120000000000000000000000001021020200874
:100130000810204010204080020102010804020142
:1001400001020408102040808040201008040201B1
:10015000800402018040201008040201080402010A
:100160000102040810204080010204081020408091
:1001700005050505070508080808020202020A0A23
:100180000808040404040101010101010101030341
:10019000030303030303040707070C0C0C0C0C0CEC
:1001A0000C0C0202020206060606060606060B0BE9
:1001B0000B0B0B0B0B0B00002200250028002B0063
:1001C0002E003100340002010000050108010B017E
:1001D00000002100240027002A002D0030003300F9
:1001E00001010000040107010A012613B2133E14A5
:1001F000CA1411241FBECFEFD1E2DEBFCDBF00E095
:100200000CBF12E0A0E0B2E0E0EAFAE200E00BBFCF
:1002100002C007900D92AA3AB107D9F725E0AAEAE1
:10022000B2E001C01D92A93BB207E1F710E0C9EFAF
:10023000D0E000E006C021970109802FFE010E9456
:100240004615C53FD10780E00807A9F70E94380C82
:100250000C944E15D5CECF93DF93882349F0EB0154
:1002600081500E94D70F99838883DF91CF910895A1
:10027000FB0111821082F9CF0F931F938B019C0118
:1002800083E036952795179507958A95D1F70D54F4
:100290001D4F462F477021E030E0F90102C0EE0FFC
:1002A000FF1F4A95E2F7AF01F80120812423CB011B
:1002B0000196211102C090E080E01F910F910895F6
:1002C0000F931F938B019C0183E03695279517951B
:1002D00007958A95D1F7677081E090E001C0880F9B
:1002E0006A95EAF7F801ED54FD4F2081452B31F472
:1002F0008095822380831F910F910895822BFACFDE
:10030000CF92DF92EF92FF92CF93DF936B017C014C
:1003100060E086E3C816D104E104F10490F486E3BA
:100320008C0D0E943411E6012196AE01C701B60181
:10033000C7DFCE01DF91CF91FF90EF90DF90CF909C
:1003400008958C2DEECF882341F08150682F70E006
:1003500090E080E050E040E0B3CF0895CF92DF928C
:10036000EF92FF92CF93882351F16A017B01CFEF87
:10037000C80F20E030E0A901CB01B6010E94D40CE7
:1003800087FF11C0C701B60190580E94450D9B011F
:10039000AC016C2F70E090E080E0CF91FF90EF9087
:1003A000DF90CF90B2C0C701B6010E94400D8C2FE4
:1003B000CF91FF90EF90DF90CF900C94FA0FCF91F8
:1003C000FF90EF90DF90CF9008950F931F938B01D4
:1003D0009C0183E036952795179507958A95D1F767
:1003E00006551D4F462F477021E030E0F90102C04D
:1003F000EE0FFF1F4A95E2F7AF01F8012081242399
:10040000CB010196211102C090E080E01F910F9175
:1004100008950F931F938B019C0183E036952795D8
:10042000179507958A95D1F7677081E090E001C034
:10043000880F6A95EAF7F801E655FD4F2081452BB4
:1004400031F48095822380831F910F910895822B30
:10045000FACF2F923F924F925F926F927F928F923C
:100460009F92AF92BF92CF92DF92EF92FF920F9343
:100470001F93CF93DF93D62EC72E782E692E490176
:100480005A01280161E08D2D0E943411CD2DDC2D03
:100490008E010F5F1F4FA8016D2D7C2D872D962D8E
:1004A000B8DF20E030E0A901C201B7010E94C40E0C
:1004B000181664F4C201B7010E94450D2B01C50155
:1004C000B4010E94450DA201CE0123D0C801DF91E5
:1004D000CF911F910F91FF90EF90DF90CF90BF9041
:1004E000AF909F908F907F906F905F904F903F90D4
:1004F0002F900895882341F08150682F70E090E09C
:1005000080E050E040E085CF0895862FB9010C943B
:10051000FA0F9C01FC01EC51FF4FE491E150E231F4
:10052000E0F4F0E08827E856FD4F8F4F0C94461515
:10053000AA02B102B402CB02E002AD02F50201034D
:1005400005031C03310346035D037203AD028703F9
:100550009E03B30384B5806884BD60E0822F0C9451
:10056000701184B58062F8CF809180008C7F8260AA
:100570008093800080918100807E8061682B6093F1
:1005800081005093870040938600809180008068AE
:1005900080938000E2CF809180008C7F8260809386
:1005A000800080918100807E8061682B6093810053
:1005B0005093870040938600809180008062E8CF4E
:1005C000809180008C7F8260809380008091810088
:1005D000807E8061682B60938100509387004093F8
:1005E0008600809180008860D3CF8091B0008068C1
:1005F0008093B0008091B100887F682B6093B10038
:10060000ACCF8091B0008062F3CF809190008C7F5E
:1006100082608093900080919100807E8061682B41
:1006200060939100509397004093960080919000C2
:1006300080688093900091CF809190008C7F826041
:100640008093900080919100807E8061682B609300
:1006500091005093970040939600809190008062A3
:10066000E8CF809190008C7F826080939000809191
:100670009100807E8061682B609391005093970079
:1006800040939600809190008860D3CF8091A00025
:100690008C7F82608093A0008091A100807E806129
:1006A000682B6093A1005093A7004093A60080910F
:1006B000A00080688093A00050CF8091A0008C7F24
:1006C00082608093A0008091A100807E8061682B71
:1006D0006093A1005093A7004093A6008091A000D2
:1006E0008062E8CF8091A0008C7F82608093A00020
:1006F0008091A100807E8061682B6093A10050935F
:10070000A7004093A6008091A0008860D3CF80917D
:1007100020018C7F82608093200180912101807E66
:100720008061682B6093210150932701409326013B
:10073000809120018068809320010FCF809120015B
:100740008C7F82608093200180912101807E806176
:10075000682B6093210150932701409326018091DB
:1007600020018062E8CF809120018C7F826080939D
:10077000200180912101807E8061682B609321019E
:100780005093270140932601809120018860D3CFA8
:10079000611102C00C9434116130E1F362E0FACFD0
:1007A000662319F061E00C94701160E0FCCF2F9289
:1007B0003F924F925F926F927F928F929F92AF92F1
:1007C000BF92CF92DF92EF92FF920F931F93CF933E
:1007D000DF9300D000D0CDB7DEB74B015C015E8364
:1007E0004D83190167017801DA014D905D906D909C
:1007F0007C90AC019B01C301B2010E94C40E87FD35
:1008000053C0A3019201C501B4010E946F0C6B019A
:100810007C01A3019201ED81FE8164817581868155
:1008200097810E946F0C9B01AC01C701B6010E9429
:10083000D80C6B017C0119821A821B821C82E9810F
:10084000FA81EE0FFF1FEE0FFF1FE20DF31D8080F8
:100850009180A280B380A501940164817581868115
:1008600097810E946F0CA70196010E94C80EA501F6
:1008700094010E94700C26960FB6F894DEBF0FBE4E
:10088000CDBFDF91CF911F910F91FF90EF90DF903F
:10089000CF90BF90AF909F908F907F906F905F9020
:1008A0004F903F902F9008958601000F111F000F69
:1008B000111F2D813E81020F131FD8014D905D90B5
:1008C0006D907C90A5019401C301B2010E94C40EF9
:1008D00018160CF06BC02601370176946794579474
:1008E000479419821A821B821C82D701C601298172
:1008F0003A814B815C81821B930BA40BB50B029751
:10090000A105B10548F5C901880F991F880F991FE6
:100910004D815E81480F591F5E834D83DA01CD9072
:10092000DD90ED90FC90A7019601C501B401D7D7E9
:100930004B015C01A7019601ED81FE816481758107
:1009400086819781CCD79B01AC01C501B4010E947F
:10095000D80C6B017C0173CFF201EE0FFF1FEE0F7D
:10096000FF1F2D813E81E20FF31FA50194016081DD
:100970007181828193810E94C40E181634F04982DD
:100980005A826B827C822601370189819A81AB81F0
:10099000BC81840D951DA61DB71D730162012C013C
:1009A0003D0176946794579447949FCFA701960191
:1009B000215031094109510929833A834B835C83D2
:1009C000F8013497C080D180E280F380A7019601BE
:1009D000C501B40184D74B015C01A7019601C30195
:1009E000B201B0CF2F923F924F925F926F927F925F
:1009F0008F929F92AF92BF92CF92DF92EF92FF922F
:100A00000F931F93CF93DF93CDB7DEB760970FB6E9
:100A1000F894DEBF0FBECDBFC0900802D09009028F
:100A2000E0900A02F0900B02A70196016091560532
:100A3000709157058091580590915905B5D7882335
:100A400041F0C0925605D0925705E0925805F092B9
:100A500059056CE370E080E090E00EDC9093550562
:100A60008093540543E050E0BE016F5F7F4FF3DB9E
:100A700060918C0270918D0290E080E00E94710D77
:100A800020E030E040E056E30E94C80E6B017C019C
:100A900069817A8190E080E00E94710D9B01AC0138
:100AA000C701B6010E94C80E6B017C01C0923E05D1
:100AB000D0923F05E0924005F092410580910002FE
:100AC00090910102A0910202B09103028B839C835A
:100AD000AD83BE8380900C0290900D02A0900E0218
:100AE000B0900F02A501940160914A0570914B05E9
:100AF00080914C0590914D0557D7882341F0809205
:100B00004A0590924B05A0924C05B0924D056DE3BD
:100B100070E080E090E0B0DB909349058093480559
:100B200043E050E0BE016F5F7F4F95DB60918E0226
:100B300070918F0290E080E0D4D720E030E040E078
:100B400056E30E94C80E4B015C0169817A8190E0F6
:100B500080E0C7D79B01AC01C501B4010E94C80E5B
:100B60006B877C878D879E87809104029091050218
:100B7000A0910602B09107028F839887A987BA8750
:100B80002B813C814D815E81C701B6010DD71816BE
:100B90000CF4F1C16091920270E090E080E0A1D786
:100BA000DDD74B015C01D9D5882309F4EDC1412C77
:100BB000512C32012B853C854D855E856F81788572
:100BC00089859A850E94C40E87FDEDC160919002CF
:100BD00070E090E080E085D7C1D74B015C01BDD5C6
:100BE000882309F4E9C1812C912C54012B813C818B
:100BF0004D815E81C701B601D7D618160CF4EBC142
:100C00002B853C854D855E856F81788589859A85A4
:100C10000E94C40E87FDDFC16091910270E090E0F8
:100C200080E05FD79BD76B017C0197D5882309F4BF
:100C3000DBC1C12CD12C760120E030E0A901C30139
:100C4000B201B2D687FFDFC1C301B20190581DD7F0
:100C5000162F119520E030E0A901C501B401A4D6FA
:100C600087FFD6C1C501B40190580FD7062F019553
:100C700020E030E0A901C701B60196D687FFCDC1BB
:100C8000C701B601905801D76195C09093021C0D21
:100C9000100F610F962F91709B836695A62FA17000
:100CA000AF87677070E0CB0196958795B82FB170CC
:100CB000B88BCB01969587959695879598878F8366
:100CC00040901C0250901D0260901E0270901F0206
:100CD0008090200290902102A0902202B0902302E6
:100CE00020913E0530913F054091400550914105CE
:100CF000C301B201F5D5A50194010E94C80E15E00B
:100D0000E12EF12C00E010E024E232E04CE352E06E
:100D10004EDD60933E0570933F05809340059093B0
:100D200041052B853C854D855E85C301B201D8D533
:100D3000A50194010E94C80E24E232E04CE352E087
:100D400036DD3B015C0168E070E080E090E03DDB77
:100D50004C0190937905809378052091540230914D
:100D600055024091560250915702B301C5010E94AD
:100D7000C80E1B012C01E0905802F090590200911E
:100D80005A0210915B029B01AC01B701C8010CD65D
:100D900087FD11C0E0905C02F0905D0200915E0260
:100DA00010915F029101A201B701C801EDD7181699
:100DB00014F07101820120E030E04FE753E4B70105
:100DC000C801F2D518160CF42CC120E030E0A901BE
:100DD000B701C801D9D787FF04C0E12CF12C00E08E
:100DE00010E0A701B801C401B9DA69E070E080E061
:100DF00090E0EBDA8C019093710580937005809000
:100E0000600290906102E0906202F09063029301B0
:100E1000A501B401C701C8D587FD11C08090640247
:100E200090906502E0906602F09067029301A50140
:100E3000B401C701A9D7181614F04301750120E0C9
:100E400030E04FE753E4B401C701AED518160CF4F7
:100E5000EDC020E030E0A901B401C70195D787FFBC
:100E600004C0812C912CE12CF12CA401B701C80104
:100E700075DA6AE070E080E090E0A7DA7C01909398
:100E800069058093680520913E0530913F054091AA
:100E9000400550914105609168027091690280910E
:100EA0006A0290916B0274D73B014C01A0906C02D6
:100EB000B0906D0200916E0210916F029B01AC0127
:100EC000B501C80171D587FD11C0A0907002B09026
:100ED000710200917202109173029301A401B50195
:100EE000C80152D7181614F05301840120E030E0F5
:100EF0004FE753E4B501C80157D518160CF49DC04F
:100F000020E030E0A901B501C8013ED787FF04C049
:100F1000A12CB12C00E010E0A501B801C7011EDA38
:100F20006BE070E080E090E050DA8C019093610516
:100F30008093600540903E0550903F0560904005CD
:100F4000709041058090740290907502A090760296
:100F5000B0907702A5019401C301B20115D718160C
:100F60000CF070C080923E0590923F05A092400523
:100F7000B092410576C0609118027091190280917B
:100F80001A0290911B020CCEC501B401A3D38111AA
:100F90000ECE20E030E040E853E4C501B401F8D5BE
:100FA0002B013C0107CE60911002709111028091DB
:100FB00012029091130210CEC501B4018BD381119E
:100FC00012CE20E030E040E853E4C501B401E0D5A2
:100FD0004B015C010BCE609114027091150280915F
:100FE0001602909117021ECEC701B60173D381116C
:100FF00020CE20E030E040E853E4C701B601C8D578
:101000006B017C0119CEC301B2013FD5162F22CE50
:10101000C501B4013AD5062F2BCEC701B60135D58F
:1010200034CEE12CF12C0FE713E4DBCE812C912C94
:101030008FE7E82E93E4F92E18CFA12CB12C0FE7FF
:1010400013E46ACF8090780290907902A0907A029F
:10105000B0907B02A5019401C301B201A5D487FD24
:1010600081CF20E030E04FE753E460913E0570917E
:101070003F05809140059091410596D4181664F47F
:1010800080E090E0AFE7B3E480933E0590933F05A6
:10109000A0934005B093410520E030E0A9016091A4
:1010A0003E0570913F0580914005909141056CD6B9
:1010B00087FF08C010923E0510923F051092400530
:1010C0001092410540913E0550913F0560914005C9
:1010D00070914105C80142D9409092055090930506
:1010E0006090940570909505C301B201FCD46B012A
:1010F0007C012091840230918502409186025091BA
:10110000870252D487FF7FC077FC7DC080907C022D
:1011100090907D02A0907E02B0907F0220E030E0AF
:1011200040E85FE3609180027091810280918202C9
:1011300090918302D4D39B01AC01C701B60124D6A0
:1011400087FD65C010929205109293051092940548
:1011500010929505A88960E0AA2379F0BB8161E02F
:10116000BB2359F011E020E030E0A901C501B40132
:101170001BD4811101C010E0612F85E311DB2F85A5
:1011800060E0222379F08B8161E0882359F011E03F
:1011900020E030E0A901C501B40106D4811101C0ED
:1011A00010E0612F83E3FCDAAF81B88560E0AB2B00
:1011B00079F0BB8161E0BB2359F011E020E030E021
:1011C000A901C501B401F0D3811101C010E0612F64
:1011D00081E3E6DA60960FB6F894DEBF0FBECDBFAE
:1011E000DF91CF911F910F91FF90EF90DF90CF9003
:1011F000BF90AF909F908F907F906F905F904F9037
:101200003F902F900895812C912C540187CF9FEF10
:10121000491A590A690A790A40929205509293052F
:10122000609294057092950595CF8F929F92AF92A0
:10123000BF92DF92EF92FF920F931F93CF93DF93B2
:1012400084E090E010D21092BD021092BC02C2E481
:10125000D5E08DE5FE0111928A95E9F7DD24D3945E
:10126000D0929E0500E012E0F80180859185A2856C
:10127000B3858C8B9D8BAE8BBF8B812C912C5401B5
:1012800083948D869E86AF86B88A6CE370E080E09A
:1012900090E036D89B8B8A8BD98A1882D0929D0594
:1012A000F80184859585A685B78588879987AA875B
:1012B000BB871D8289829A82AB82BC826DE370E01B
:1012C00080E090E01DD89F838E83DD8218AAD092A3
:1012D0009C051DAA89AA9AAAABAABCAAE12CF12C4A
:1012E0008701A801970168E070E080E090E0B1D844
:1012F0009FAB8EABDDAA18A6D0929B051DA689A632
:101300009AA6ABA6BCA6A801970169E070E080E0B0
:1013100090E09FD89FA78EA7DDA618A2D0929A052D
:101320001DA289A29AA2ABA2BCA2A80197016AE061
:1013300070E080E090E08DD89FA38EA3DDA2188E90
:10134000D09299051D8E898E9A8EAB8EBC8EA80187
:1013500097016BE070E080E090E07BD89F8F8E8FEC
:10136000DD8E10928A05D092980580928B0590921E
:101370008C05A0928D05B0928E0561E085E308DAB8
:10138000D0928F0510928205D092970580928305A6
:1013900090928405A0928505B092860561E083E372
:1013A000F7D9D092870518AED092960589AE9AAE3D
:1013B000ABAEBCAE61E081E3EBD9DDAE109292053D
:1013C000109293051092940510929505DF91CF919C
:1013D0001F910F91FF90EF90DF90BF90AF909F9083
:1013E0008F90089580914E0581111FC081E08093F8
:1013F0004E0580914F0590915005A0915105B091F7
:1014000052050197A105B10581F480915305882308
:1014100061F06CE370E080E090E00E943C0190930A
:101420005505809354050E94A301809142058111C6
:101430001FC081E08093420580914305909144054F
:10144000A0914505B09146050197A105B10581F42C
:1014500080914705882361F06DE370E080E090E0C3
:101460000E943C0190934905809348050E94A30186
:101470008091720581112DC081E080937205809169
:10148000730590917405A0917505B091760501974B
:10149000A105B105F1F4809177058823D1F068E0CA
:1014A00070E080E090E00E94E501909379058093E0
:1014B000780540E050E0BA010E94AE0168E070E0BB
:1014C00080E090E00E94E501909379058093780593
:1014D00011D880916A0581112EC081E080936A0540
:1014E00080916B0590916C05A0916D05B0916E0592
:1014F0000197A105B105F9F480916F058823D9F012
:1015000069E070E080E090E00E94E5019093710551
:101510008093700540E050E0BA010E94AE0169E09E
:1015200070E080E090E00E94E50190937105809367
:1015300070050E947A028091620581112EC081E0BF
:10154000809362058091630590916405A091650583
:10155000B09166050197A105B105F9F48091670581
:101560008823D9F06AE070E080E090E00E94E50115
:10157000909369058093680540E050E0BA010E94AD
:10158000AE016AE070E080E090E00E94E501909397
:101590006905809368050E947A0280915A0581113D
:1015A0002EC081E080935A0580915B0590915C0587
:1015B000A0915D05B0915E050197A105B105F9F413
:1015C00080915F058823D9F06BE070E080E090E0C7
:1015D0000E94E501909361058093600540E050E032
:1015E000BA010E94AE016BE070E080E090E00E94E2
:1015F000E50190936105809360050E947A028091D5
:101600008A05811103C081E080938A05809182055B
:10161000811103C081E08093820580917A05811158
:1016200003C081E080937A05089560E070E080E86F
:101630009FE7089560E070E080E89FE7089560E02C
:1016400070E080E89FEF089560E070E080E89FEF31
:10165000089560E070E080EC9FEF089560E070E036
:1016600080EC9FEF0895F5DF6093AB057093AC05B8
:101670008093AD059093AE05F1DF60939F05709365
:10168000A0058093A1059093A205CFDF6093A705E5
:101690007093A8058093A9059093AA05CBDF60936A
:1016A000A3057093A4058093A5059093A605C7DFB5
:1016B0006093AF057093B0058093B1059093B20528
:1016C000C3DF6093B3057093B4058093B505909321
:1016D000B6050895CF92DF92EF92FF92CF936B0100
:1016E0007C01AC019B016091A7057091A8058091D8
:1016F000A9059091AA0558D1C1E0882369F0A701F6
:1017000096016091AF057091B0058091B1059091FF
:10171000B2054AD18111C0E08C2FCF91FF90EF909C
:10172000DF90CF9008950F931F938B019C010027AA
:10173000112720783F770115110520483F4749F4CC
:10174000AB01BC016F77772781E0452B462B472BF8
:1017500009F480E01F910F910895E5CF40E855E22C
:1017600060E070E090E080E000C08130910571F0B1
:101770001CF4892B39F008958230910559F00397B4
:1017800069F0089526E08AEC92E0A1C626E087E69B
:1017900093E0FBCF26E084E094E0F7CF26E081EAF7
:1017A00094E0F3CF1F920F920FB60F9211240BB655
:1017B0000F922F933F934F935F936F937F938F93EA
:1017C0009F93AF93BF93EF93FF938FE89DEF909319
:1017D00025018093240134D0FF91EF91BF91AF9107
:1017E0009F918F917F916F915F914F913F912F9139
:1017F0000F900BBE0F900FBE0F901F9018958FE8A3
:101800009DEF9093250180932401A3E7B0E08C9194
:101810008E7F8C93E0E2F1E080818C7F8083E1E237
:10182000F1E08081877E80838081846080838081F5
:101830008C7F80838C9181608C93089581E00895E2
:101840008091BE0291E0980F9093BE02882349F0E8
:1018500021E030E03093C0022093BF028093BE02AB
:1018600008957894BFD8F8948091BE028150F6CF45
:10187000CF93DF931092B8051092B70536D36EDF81
:10188000C0919502D091960219821882CEDCF8940C
:10189000B6DF81E028813981232B09F080E0809335
:1018A000B705789478948091B705811107C09ADDC7
:1018B000F89490E080E0DF91CF91089581E0288155
:1018C0003981232B09F480E08093B8059091B80505
:1018D00081E0911180E08093B705B0DFE4CF5058EC
:1018E000BB27AA270ED0FFC1F0D130F0F5D120F0F0
:1018F00031F49F3F11F41EF4E5C10EF4E095E7FBCF
:10190000B2C1E92F01D280F3BA17620773078407C7
:10191000950718F071F49EF530C20EF4E0950B2E89
:10192000BA2FA02D0B01B90190010C01CA01A00131
:101930001124FF27591B99F0593F50F4503E68F18C
:101940001A16F040A22F232F342F4427585FF3CFCD
:10195000469537952795A795F0405395C9F77EF49E
:101960001F16BA0B620B730B840BBAF09150A1F0E7
:10197000FF0FBB1F661F771F881FC2F70EC0BA0F6D
:10198000621F731F841F48F4879577956795B795F5
:10199000F7959E3F08F0B3CF9395880F08F09927ED
:1019A000EE0F9795879508953AD108F481E0089550
:1019B0000CD099C191D140F088D130F021F45F3F33
:1019C00019F051C15111DAC17DC19ED198F399230B
:1019D000C9F35523B1F3951B550BBB27AA276217F3
:1019E0007307840738F09F5F5F4F220F331F441F38
:1019F000AA1FA9F333D00E2E3AF0E0E830D0915070
:101A00005040E695001CCAF729D0FE2F27D0660F5C
:101A1000771F881FBB1F261737074807AB07B0E89B
:101A200009F0BB0B802DBF01FF2793585F4F2AF0B1
:101A30009E3F510568F017C1A1C15F3FECF3983E8E
:101A4000DCF3869577956795B795F7959F5FC9F70E
:101A5000880F911D9695879597F90895E1E0660F97
:101A6000771F881FBB1F621773078407BA0720F010
:101A7000621B730B840BBA0BEE1F88F7E095089579
:101A800004D06894B1117AC1089546D188F09F5767
:101A900090F0B92F9927B751A0F0D1F0660F771FBA
:101AA000881F991F1AF0BA95C9F712C0B13081F09A
:101AB00064D1B1E0089561C1672F782F8827B85F9E
:101AC00039F0B93FCCF3869577956795B395D9F7FB
:101AD0003EF490958095709561957F4F8F4F9F4F05
:101AE0000895E89409C097FB3EF490958095709511
:101AF00061957F4F8F4F9F4F9923A9F0F92F96E95A
:101B0000BB279395F695879577956795B795F111CE
:101B1000F8CFFAF4BB0F11F460FF1BC06F5F7F4F6B
:101B20008F4F9F4F16C0882311F096E911C077237D
:101B300021F09EE8872F762F05C0662371F096E886
:101B4000862F70E060E02AF09A95660F771F881F55
:101B5000DAF7880F9695879597F90895F7D080F072
:101B60009F3740F491110EF009C160E070E080E809
:101B70009FEB089526F41B16611D711D811D79C010
:101B800093C0A3D018F011F0A7D038F49BC0F6C0D2
:101B9000E92FBAD0B0F35523C9F3E7FB62177307F7
:101BA00084079507A8F199F3E92FFF2788232AF0E6
:101BB0003197660F771F881FDAF7952F5527442333
:101BC00032F091505040220F331F441FD2F7BB27F1
:101BD000E91BF50B621B730B840BB109C1F222F4F4
:101BE000620F731F841FB11D31972AF0660F771F94
:101BF000881FBB1FEFCF915050405AF041F088230F
:101C000032F0660F771F881F91505040C1F79395AF
:101C10004BC08695779567959F5FD9F7F8CF990F59
:101C20000008550FAA0BE0E8FEEF16161706E807A6
:101C3000F907C0F012161306E407F50798F0621BC7
:101C4000730B840B950B39F40A2661F0232B242B9C
:101C5000252B21F408950A2609F4A140A6958FEFBB
:101C6000811D811D089597F99F6780E870E060E00D
:101C70000895882371F4772321F09850872B762FCD
:101C800007C0662311F499270DC09051862B70E090
:101C900060E02AF09A95660F771F881FDAF7880FA1
:101CA0009695879597F908959F3F31F0915020F4CC
:101CB000879577956795B795880F911D9695879528
:101CC00097F908959FEF80EC089500240A94161662
:101CD000170618060906089500240A94121613061A
:101CE000140605060895092E0394000C11F48823A8
:101CF00052F0BB0F40F4BF2B11F460FF04C06F5FC4
:101D00007F4F8F4F9F4F089557FD9058440F551F99
:101D100059F05F3F71F04795880F97FB991F61F06D
:101D20009F3F79F087950895121613061406551FE4
:101D3000F2CF4695F1DF08C0161617061806991F50
:101D4000F1CF86957105610508940895E5DFA0F04F
:101D5000BEE7B91788F4BB279F3860F41616B11D8B
:101D6000672F782F8827985FF7CF869577956795A7
:101D7000B11D93959639C8F30895E894BB2766275B
:101D80007727CB0197F908954ADF08F48FEF08957C
:101D90000BD0A9CF9ADF28F09FDF18F0952309F028
:101DA00062CF90CF1124EACFAFDFA0F3959FD1F39C
:101DB000950F50E0551F629FF001729FBB27F00DF9
:101DC000B11D639FAA27F00DB11DAA1F649F66274E
:101DD000B00DA11D661F829F2227B00DA11D621F9D
:101DE000739FB00DA11D621F839FA00D611D221F57
:101DF000749F3327A00D611D231F849F600D211D3B
:101E0000822F762F6A2F11249F5750408AF0E1F0DD
:101E100088234AF0EE0FFF1FBB1F661F771F881F26
:101E200091505040A9F79E3F510570F01CCFA6CFAE
:101E30005F3FECF3983EDCF3869577956795B79511
:101E4000F795E7959F5FC1F7FE2B880F911D96953B
:101E5000879597F908951F920F920FB60F9211244C
:101E60002F933F938F939F93AF93BF938091C20221
:101E70009091C302A091C402B091C5023091C102F9
:101E800023E0230F2D3758F50196A11DB11D209396
:101E9000C1028093C2029093C302A093C402B09384
:101EA000C5028091C6029091C702A091C802B0916C
:101EB000C9020196A11DB11D8093C6029093C7026D
:101EC000A093C802B093C902BF91AF919F918F9127
:101ED0003F912F910F900FBE0F901F90189526E8FD
:101EE000230F0296A11DB11DD2CF789484B58260D4
:101EF00084BD84B5816084BD85B5826085BD85B5AE
:101F0000816085BDEEE6F0E0808181608083E1E85C
:101F1000F0E0108280818260808380818160808394
:101F2000E0E8F0E0808181608083E1EBF0E0808197
:101F300084608083E0EBF0E0808181608083E1E970
:101F4000F0E0808182608083808181608083E0E92D
:101F5000F0E0808181608083E1EAF0E0808182604E
:101F60008083808181608083E0EAF0E0808181600D
:101F70008083E1E2F1E08081826080838081816002
:101F80008083E0E2F1E0808181608083EAE7F0E035
:101F90008081846080838081826080838081816091
:101FA00080838081806880831092C1000895863389
:101FB00008F0865320917B00982F9870277F922BF2
:101FC00090937B002091940290E4299F900111242A
:101FD0008770822B80937C0080917A00806480934C
:101FE0007A0080917A0086FDFCCF809178009091F4
:101FF000790008951F93CF93DF93182FEB0161E0D1
:1020000033D1209731F460E0812FDF91CF911F9180
:1020100067C1CF3FD10511F461E0F6CFE12FF0E0C9
:10202000EC51FF4FE491E150E23108F0B2C0F0E032
:102030008827E35EFF4E8F4F29C52F1037103C10C5
:1020400046105010C9105A1062106A1074107E1099
:1020500088109710A110C910AB10B510BF1084B52F
:10206000806884BDC7BDDF91CF911F91089584B56D
:10207000806284BDC8BDF7CF809180008068809366
:102080008000D0938900C0938800EDCF80918000BC
:10209000806280938000D0938B00C0938A00E3CF4E
:1020A00080918000886080938000D0938D00C093E1
:1020B0008C00D9CF8091B00080688093B000C0932D
:1020C000B300D1CF8091B00080628093B000C09304
:1020D000B400C9CF80919000806880939000D09325
:1020E0009900C0939800BFCF809190008062809348
:1020F0009000D0939B00C0939A00B5CF8091900040
:10210000886080939000D0939D00C0939C00ABCFDB
:102110008091A00080688093A0008091A0008F7BB8
:102120008093A000D093A900C093A8009CCF809179
:10213000A00080628093A000D093AB00C093AA005F
:1021400092CF8091A00088608093A000D093AD00D2
:10215000C093AC0088CF80912001806880932001DB
:10216000D0932901C09328017ECF80912001806205
:1021700080932001D0932B01C0932A0174CF8091CA
:102180002001886080932001D0932D01C0932C0101
:102190006ACFC038D1050CF03FCF35CF81508231A6
:1021A00008F059C0E82FF0E08827E752FF4E8F4F24
:1021B0006DC4F910FD10EB10F110F5102B1100118A
:1021C00006110A111011141118111E1122112B11D0
:1021D00026112C113011809180008F778093800020
:1021E0000895809180008F7DF9CF80918000877F56
:1021F000F5CF84B58F7784BD089584B58F7DFBCFEF
:102200008091B0008F778093B00008958091B000E6
:102210008F7DF9CF809190008F7780939000089503
:10222000809190008F7DF9CF80919000877FF5CFCE
:102230008091A0008F778093A00008958091A000E6
:102240008F7DF9CF8091A000877FF5CF809120010D
:102250008F77809320010895809120018F7DF9CFA1
:1022600080912001877FF5CFCF93DF9390E0FC0131
:10227000E65DFE4F249180599E4FFC018491882396
:10228000C9F090E0880F991FFC01E053FE4FA59123
:10229000B491FC01EA54FE4FC591D49161110DC077
:1022A0009FB7F8948C91209582238C938881282362
:1022B00028839FBFDF91CF910895623051F49FB77B
:1022C000F8943C91822F809583238C93E8812E2B68
:1022D000EFCF8FB7F894EC912E2B2C938FBFEACFD2
:1022E0001F93CF93DF93282F30E0F901EC51FF4F7C
:1022F0008491F901E65DFE4FD491F901E059FE4F5A
:10230000C491CC23A1F0162F811148DFEC2FF0E00F
:10231000EE0FFF1FEA54FE4FA591B4918FB7F894CA
:10232000EC91111108C0D095DE23DC938FBFDF91B3
:10233000CF911F910895DE2BF8CFFC01918D228D56
:10234000892F90E0805C9F4F821B91098F739927A2
:102350000895FC01918D828D981731F0828DE80FE0
:10236000F11D858D90E008958FEF9FEF0895FC019A
:10237000918D828D981761F0A28DAE0FBF2FB11D88
:102380005D968C91928D9F5F9F73928F90E00895E0
:102390008FEF9FEF0895FC01538D448D252F30E082
:1023A000842F90E0821B930B541710F0CF96089562
:1023B00001970895FC01A48DA80FB92FB11DA35A50
:1023C000BF4F2C91848D90E001968F739927848F55
:1023D000A689B7892C93A089B1898C918370806478
:1023E0008C93938D848D981306C00288F389E02D19
:1023F00080818F7D80830895CF93DF93EC01888D5A
:102400008823B1F0AA89BB89E889F9898C9185FD77
:1024100003C0808186FD0CC00FB607FCF7CF8C91FE
:1024200085FFF2CF808185FFEDCFCE01C3DFEACFFC
:10243000DF91CF910895EF92FF920F931F93CF9367
:10244000DF93EC0181E0888F9B8D8C8D98131AC0EF
:10245000E889F989808185FF15C09FB7F894EE89D6
:10246000FF896083E889F989808183708064808333
:102470009FBF81E090E0DF91CF911F910F91FF907E
:10248000EF900895F62E0B8D10E00F5F1F4F0F7326
:102490001127E02E8C8D8E110BC00FB607FCFACFE2
:1024A000E889F989808185FFF5CFCE0183DFF2CFFE
:1024B000EB8DEC0FFD2FF11DE35AFF4FF0829FB71C
:1024C000F8940B8FEA89FB8980818062D0CFCF920C
:1024D000DF92EF92FF921F93CF93DF93EC016A019B
:1024E0007B01122FE889F98982E08083C11481EE93
:1024F000D806E104F10499F060E079E08DE390E022
:10250000A7019601A1D221503109410951095695DF
:10251000479537952795211580E1380790F0E88990
:10252000F989108260E874E88EE190E0A7019601D5
:102530008BD221503109410951095695479537955C
:102540002795EC85FD853083EE85FF852083188EE9
:10255000EC89FD891083EA89FB8980818061808311
:10256000EA89FB89808188608083EA89FB89808190
:1025700080688083EA89FB8980818F7D8083DF91F9
:10258000CF911F91FF90EF90DF90CF9008951F9211
:102590000F920FB60F9211240BB60F922F938F93B9
:1025A0009F93EF93FF93E091DA02F091DB02808139
:1025B000E091E002F091E10282FD1DC090818091E6
:1025C000E3028F5F8F732091E402821741F0E09164
:1025D000E302F0E0E653FD4F958F8093E302FF9115
:1025E000EF919F918F912F910F900BBE0F900FBE87
:1025F0000F901F9018958081F2CF1F920F920FB607
:102600000F9211240BB60F922F933F934F935F932A
:102610006F937F938F939F93AF93BF93EF93FF93AA
:102620008AEC92E0C7DEFF91EF91BF91AF919F914D
:102630008F917F916F915F914F913F912F910F906B
:102640000BBE0F900FBE0F901F901895EAECF2E0B2
:102650001382128288EE93E0A0E0B0E08483958339
:10266000A683B7838BE992E09183808385EC90E029
:102670009587848784EC90E09787868780EC90E04C
:10268000918B808B81EC90E0938B828B82EC90E03D
:10269000958B848B86EC90E0978B868B118E128EB7
:1026A000138E148E08951F920F920FB60F9211245D
:1026B0000BB60F922F938F939F93EF93FF93E0911D
:1026C0007703F09178038081E0917D03F0917E03A0
:1026D00082FD1DC09081809180038F5F8F73209158
:1026E0008103821741F0E0918003F0E0E959FC4F4B
:1026F000958F80938003FF91EF919F918F912F9100
:102700000F900BBE0F900FBE0F901F9018958081F9
:10271000F2CF1F920F920FB60F9211240BB60F92A9
:102720002F933F934F935F936F937F938F939F93D9
:10273000AF93BF93EF93FF9387E693E03BDEFF9168
:10274000EF91BF91AF919F918F917F916F915F9129
:102750004F913F912F910F900BBE0F900FBE0F9096
:102760001F901895E7E6F3E01382128288EE93E05B
:10277000A0E0B0E084839583A683B7838BE992E0E1
:10278000918380838DEC90E0958784878CEC90E03A
:102790009787868788EC90E0918B808B89EC90E01E
:1027A000938B828B8AEC90E0958B848B8EEC90E0FF
:1027B000978B868B118E128E138E148E08951F9216
:1027C0000F920FB60F9211240BB60F922F938F9387
:1027D0009F93EF93FF93E0911404F091150480818F
:1027E000E0911A04F0911B0482FD1DC0908180913C
:1027F0001D048F5F8F7320911E04821741F0E091BA
:102800001D04F0E0EC5FFB4F958F80931D04FF915A
:10281000EF919F918F912F910F900BBE0F900FBE54
:102820000F901F9018958081F2CF1F920F920FB6D4
:102830000F9211240BB60F922F933F934F935F93F8
:102840006F937F938F939F93AF93BF93EF93FF9378
:1028500084E094E0AFDDFF91EF91BF91AF919F9144
:102860008F917F916F915F914F913F912F910F9039
:102870000BBE0F900FBE0F901F901895E4E0F4E090
:102880001382128288EE93E0A0E0B0E08483958307
:10289000A683B7838BE992E09183808385ED90E0F6
:1028A0009587848784ED90E09787868780ED90E018
:1028B000918B808B81ED90E0938B828B82ED90E009
:1028C000958B848B86ED90E0978B868B118E128E84
:1028D000138E148E08951F920F920FB60F9211242B
:1028E0000BB60F922F938F939F93EF93FF93E091EB
:1028F000B104F091B2048081E091B704F091B80482
:1029000082FD1DC090818091BA048F5F8F732091EA
:10291000BB04821741F0E091BA04F0E0EF55FB4FA1
:10292000958F8093BA04FF91EF919F918F912F9192
:102930000F900BBE0F900FBE0F901F9018958081C7
:10294000F2CF1F920F920FB60F9211240BB60F9277
:102950002F933F934F935F936F937F938F939F93A7
:10296000AF93BF93EF93FF9381EA94E023DDFF9150
:10297000EF91BF91AF919F918F917F916F915F91F7
:102980004F913F912F910F900BBE0F900FBE0F9064
:102990001F901895E1EAF4E01382128288EE93E02A
:1029A000A0E0B0E084839583A683B7838BE992E0AF
:1029B0009183808385E391E09587848784E391E028
:1029C0009787868780E391E0918B808B81E391E00C
:1029D000938B828B82E391E0958B848B86E391E0ED
:1029E000978B868B118E128E138E148E0895AF9254
:1029F000BF92CF92DF92EF92FF920F931F93CF93EC
:102A0000DF936C017B018B01040F151FEB015E014D
:102A1000AE18BF08C017D10759F06991D601ED91E2
:102A2000FC910190F081E02DC6011995892B79F771
:102A3000C501DF91CF911F910F91FF90EF90DF9033
:102A4000CF90BF90AF900895A1E21A2EAA1BBB1B96
:102A5000FD010DC0AA1FBB1FEE1FFF1FA217B3076A
:102A6000E407F50720F0A21BB30BE40BF50B661F80
:102A7000771F881F991F1A9469F760957095809544
:102A800090959B01AC01BD01CF010895EE0FFF1F92
:102A9000881F8BBF0790F691E02D1994F894FFCF13
:102AA00000008C4200008C420AD7233C0AD7233C0A
:102AB0000000000000000000000000000000000016
:102AC0000000803F000016C3000016C3000034C29F
:102AD000000034420000484300007F430000000033
:102AE000000020419A991F42666620420000BE42C3
:102AF0000000C842000080BF00007F4300000000CB
:102B000000007F4300000000000080BF00007F4302
:102B10000000000000007F43000000000000803F34
:102B2000000048420000A04000000000CDCCCDCC09
:102B30000603020201BC02000000001B12F714CBC6
:0A2B400011FC119D11B711A911003D
:00000001FF
