:10000000F8C0000027C1000025C1000023C1000086
:1000100021C100001FC100001DC100001BC1000064
:1000200019C1000017C1000015C1000013C1000074
:1000300011C100000FC100000DC100000BC1000084
:1000400009C1000007C1000005C1000003C1000094
:1000500001C10000FFC00000FDC000000C94130FA0
:10006000F9C000000C94AF120C94E512F3C000002C
:10007000F1C00000EFC00000EDC00000EBC00000C8
:10008000E9C00000E7C00000E5C00000E3C00000D8
:100090000C943B130C947113DDC00000DBC0000016
:1000A000D9C00000D7C00000D5C00000D3C00000F8
:1000B000D1C00000CFC00000CDC00000CBC0000008
:1000C000C9C00000C7C000000C94E50B0C94C71316
:1000D0000C94FD13BFC000000C9453140C948914AD
:1000E000B9C0000000000A0B02090C0D0E0807033E
:1000F00004010000000000000000000000000000FB
:1001000000000000000000000000000000000000EF
:1001100012111000000000000000000000000000AC
:100120000000000000000000000001021020200874
:100130000810204010204080020102010804020142
:1001400001020408102040808040201008040201B1
:10015000800402018040201008040201080402010A
:100160000102040810204080010204081020408091
:1001700005050505070508080808020202020A0A23
:100180000808040404040101010101010101030341
:10019000030303030303040707070C0C0C0C0C0CEC
:1001A0000C0C0202020206060606060606060B0BE9
:1001B0000B0B0B0B0B0B00002200250028002B0063
:1001C0002E003100340002010000050108010B017E
:1001D00000002100240027002A002D0030003300F9
:1001E00001010000040107010A010E139A132614ED
:1001F000B21411241FBECFEFD1E2DEBFCDBF00E0AD
:100200000CBF12E0A0E0B2E0E0E7FAE200E00BBFD2
:1002100002C007900D92A238B107D9F725E0A2E8F5
:10022000B2E001C01D92A93AB207E1F710E0C9EFB0
:10023000D0E000E006C021970109802FFE010E9456
:100240002E15C53FD10780E00807A9F70E94880C4A
:100250000C943615D5CECF93DF93882349F0EB016C
:1002600081500E94BF0F99838883DF91CF910895B9
:10027000FB0111821082F9CF0F931F938B019C0118
:1002800083E036952795179507958A95D1F70557F9
:100290001D4F462F477021E030E0F90102C0EE0FFC
:1002A000FF1F4A95E2F7AF01F80120812423CB011B
:1002B0000196211102C090E080E01F910F910895F6
:1002C0000F931F938B019C0183E03695279517951B
:1002D00007958A95D1F7677081E090E001C0880F9B
:1002E0006A95EAF7F801E557FD4F2081452B31F477
:1002F0008095822380831F910F910895822BFACFDE
:10030000CF92DF92EF92FF92CF93DF936B017C014C
:1003100060E086E3C816D104E104F10490F486E3BA
:100320008C0D0E941C11E6012196AE01C701B60199
:10033000C7DFCE01DF91CF91FF90EF90DF90CF909C
:1003400008958C2DEECF882341F08150682F70E006
:1003500090E080E050E040E0B3CF0895CF92DF928C
:10036000EF92FF92CF93882351F16A017B01CFEF87
:10037000C80F20E030E0A901CB01B6010E94240D96
:1003800087FF11C0C701B60190580E942D0D9B0137
:10039000AC016C2F70E090E080E0CF91FF90EF9087
:1003A000DF90CF90B2C0C701B6010E94280D8C2FFC
:1003B000CF91FF90EF90DF90CF900C94E20FCF9110
:1003C000FF90EF90DF90CF9008950F931F938B01D4
:1003D0009C0183E036952795179507958A95D1F767
:1003E0000E571D4F462F477021E030E0F90102C043
:1003F000EE0FFF1F4A95E2F7AF01F8012081242399
:10040000CB010196211102C090E080E01F910F9175
:1004100008950F931F938B019C0183E036952795D8
:10042000179507958A95D1F7677081E090E001C034
:10043000880F6A95EAF7F801EE57FD4F2081452BAA
:1004400031F48095822380831F910F910895822B30
:10045000FACF2F923F924F925F926F927F928F923C
:100460009F92AF92BF92CF92DF92EF92FF920F9343
:100470001F93CF93DF93D62EC72E782E692E490176
:100480005A01280161E08D2D0E941C11CD2DDC2D1B
:100490008E010F5F1F4FA8016D2D7C2D872D962D8E
:1004A000B8DF20E030E0A901C201B7010E94AC0E24
:1004B000181664F4C201B7010E942D0D2B01C5016D
:1004C000B4010E942D0DA201CE0123D0C801DF91FD
:1004D000CF911F910F91FF90EF90DF90CF90BF9041
:1004E000AF909F908F907F906F905F904F903F90D4
:1004F0002F900895882341F08150682F70E090E09C
:1005000080E050E040E085CF0895862FB9010C943B
:10051000E20F9C01FC01EC51FF4FE491E150E2310C
:10052000E0F4F0E08827E856FD4F8F4F0C942E152D
:10053000AA02B102B402CB02E002AD02F50201034D
:1005400005031C03310346035D037203AD028703F9
:100550009E03B30384B5806884BD60E0822F0C9451
:10056000581184B58062F8CF809180008C7F8260C2
:100570008093800080918100807E8061682B6093F1
:1005800081005093870040938600809180008068AE
:1005900080938000E2CF809180008C7F8260809386
:1005A000800080918100807E8061682B6093810053
:1005B0005093870040938600809180008062E8CF4E
:1005C000809180008C7F8260809380008091810088
:1005D000807E8061682B60938100509387004093F8
:1005E0008600809180008860D3CF8091B0008068C1
:1005F0008093B0008091B100887F682B6093B10038
:10060000ACCF8091B0008062F3CF809190008C7F5E
:1006100082608093900080919100807E8061682B41
:1006200060939100509397004093960080919000C2
:1006300080688093900091CF809190008C7F826041
:100640008093900080919100807E8061682B609300
:1006500091005093970040939600809190008062A3
:10066000E8CF809190008C7F826080939000809191
:100670009100807E8061682B609391005093970079
:1006800040939600809190008860D3CF8091A00025
:100690008C7F82608093A0008091A100807E806129
:1006A000682B6093A1005093A7004093A60080910F
:1006B000A00080688093A00050CF8091A0008C7F24
:1006C00082608093A0008091A100807E8061682B71
:1006D0006093A1005093A7004093A6008091A000D2
:1006E0008062E8CF8091A0008C7F82608093A00020
:1006F0008091A100807E8061682B6093A10050935F
:10070000A7004093A6008091A0008860D3CF80917D
:1007100020018C7F82608093200180912101807E66
:100720008061682B6093210150932701409326013B
:10073000809120018068809320010FCF809120015B
:100740008C7F82608093200180912101807E806176
:10075000682B6093210150932701409326018091DB
:1007600020018062E8CF809120018C7F826080939D
:10077000200180912101807E8061682B609321019E
:100780005093270140932601809120018860D3CFA8
:10079000611102C00C941C116130E1F362E0FACFE8
:1007A000662319F061E00C94581160E0FCCFFC0165
:1007B00091E080919702811190E0918308954F928A
:1007C0005F926F927F928F929F92AF92BF92CF92E1
:1007D000DF92EF92FF92CF93C091970281E0C11117
:1007E00080E08093980281E08C0F843008F0D4C0C0
:1007F000809397028090790590907A05A0907B0570
:10080000B0907C05C501B4010E945B0D2B013C0139
:100810002091240230912502409126025091270216
:100820000E94240D87FFBBC0B7FCB9C0C0901C025A
:10083000D0901D02E0901E02F0901F0220E030E0F8
:1008400040E85FE3609120027091210280912202D2
:10085000909123020E94BF0C9B01AC01C301B20125
:100860000E94AC0E87FD9FC01092790510927A0508
:1008700010927B0510927C05C1110CC080917D0502
:100880008093200580917E058093210580918305CA
:10089000809326058091260561E0811116C0809124
:1008A0002005882309F48DC080912105882309F44F
:1008B00088C0C1E020E030E0A901C701B6010E9474
:1008C000240D811101C0C0E06C2F85E369DF8091A8
:1008D0009802882361F080917F05809322058091A2
:1008E000800580932305809184058093270580915E
:1008F000270561E0811116C080912205882309F443
:1009000062C080912305882309F45DC0C1E020E026
:1009100030E0A901C701B6010E94240D811101C078
:10092000C0E06C2F83E33CDF80919802882361F064
:10093000809181058093240580918205809325050F
:1009400080918505809328058091280561E08111BB
:1009500014C0809124058823C1F180912505882346
:10096000A1F1C1E020E030E0A901C701B6010E9479
:10097000240D811101C0C0E06C2F81E3CF91FF9065
:10098000EF90DF90CF90BF90AF909F908F907F902F
:100990006F905F904F9004CF109297022BCFC12C95
:1009A000D12C76014BCF8FEF881A980AA80AB80A83
:1009B0008092790590927A05A0927B05B0927C0591
:1009C0005BCF60E082CF60E0ADCF60E0D6CF2F920A
:1009D0003F924F925F926F927F928F929F92AF92CF
:1009E000BF92CF92DF92EF92FF920F931F93CF931C
:1009F000DF93CDB7DEB72F970FB6F894DEBF0FBEEB
:100A0000CDBFC0900802D0900902E0900A02F09099
:100A10000B02A701960160913D0570913E05809102
:100A20003F05909140050E94240D882341F0C0921B
:100A30003D05D0923E05E0923F05F09240056CE303
:100A400070E080E090E018DC90933C0580933B05DB
:100A500043E050E0BE016F5F7F4FFDDB60915C02C1
:100A600070915D0290E080E00E94590D20E030E03E
:100A700040E056E30E94B00E6B017C0169817A81EF
:100A800090E080E00E94590D9B01AC01C701B601C6
:100A90000E94B00E6B017C01C0921C05D0921D0516
:100AA000E0921E05F0921F058091000290910102D4
:100AB000A0910202B09103028B839C83AD83BE831D
:100AC00080900C0290900D02A0900E02B0900F0248
:100AD000A501940160913105709132058091330533
:100AE00090913405B1D7882341F0809231059092DE
:100AF0003205A0923305B09234056DE370E080E0DA
:100B000090E0BADB9093300580932F0543E050E0EE
:100B1000BE016F5F7F4F9FDB60915E0270915F024D
:100B200090E080E0C6D720E030E040E056E30E944D
:100B3000B00E4B015C0169817A8190E080E0B9D709
:100B40009B01AC01C501B4010E94B00E6B877C878C
:100B50008D879E878091040290910502A0910602E4
:100B6000B09107028F839887A987BA872B813C8130
:100B70004D815E81C701B60167D718160CF40DC20E
:100B80006091650270E090E080E093D7CFD74B0191
:100B90005C01F6D5882309F409C2412C512C32019D
:100BA0002B853C854D855E856F81788589859A8505
:100BB0000E94AC0E87FD09C26091630270E090E074
:100BC00080E077D7B3D74B015C01DAD5882309F4ED
:100BD00005C2812C912C54012B813C814D815E8179
:100BE000C701B60131D718160CF407C22B853C8516
:100BF0004D855E856F81788589859A850E94AC0ECA
:100C000087FDFBC16091640270E090E080E051D705
:100C10008DD76B017C01B4D5882309F4F7C1C12CB1
:100C2000D12C760120E030E0A901C301B2010CD73C
:100C300087FFFBC1C301B20190580FD7062F019562
:100C400020E030E0A901C501B401FED687FFF2C162
:100C5000C501B401905801D7B62EB19420E030E020
:100C6000A901C701B601F0D687FFE9C1C701B601E6
:100C70009058F3D6619510916C02100F1B0D160F52
:100C8000912F9F70C92E1170892F8695A82FA17062
:100C9000AB8390E09C0136952795B22FB170BF834E
:100CA00096958795969587958F8780938105109364
:100CB0008205B0937D0510937E05A0937F05109368
:100CC000800540902C0250902D0260902E02709072
:100CD0002F028090300290903102A0903202B090AA
:100CE000330220911C0530911D0540911E05509145
:100CF0001F05C301B20144D6A50194010E94B00EA4
:100D000060931C0570931D0580931E0590931F052D
:100D10002B853C854D855E85C301B20131D69B0193
:100D2000AC01C501B4010E94B00E3B015C0168E05A
:100D300070E080E090E049DB4C0190936005809387
:100D40005F05209134023091350240913602509176
:100D50003702B301C5010E94B00E1B012C01D090D7
:100D60003802E0903902F0903A0200913B029B0178
:100D7000AC016D2D7E2D8F2D902F66D687FD15C071
:100D8000D0903C02E0903D02F0903E0200913F0284
:100D90009101A2016D2D7E2D8F2D902FDDD718167C
:100DA00024F0D22CE32CF42C052D20E030E04FE78A
:100DB00053E46D2D7E2D8F2D902F46D618160CF4F2
:100DC00042C120E030E0A9016D2D7E2D8F2D902FA6
:100DD000C3D787FF04C0D12CE12CF12C00E04D2DAE
:100DE0005E2D6F2D702FC401B9DA69E070E080E0EC
:100DF00090E0EBDA7C019093580580935705809042
:100E0000400290904102D09042020091430293012F
:100E1000A501B4018D2D902F17D687FD13C08090AA
:100E2000440290904502D0904602009147029301FF
:100E3000A501B4018D2D902F8FD718161CF04301FA
:100E4000DA2C0B2D20E030E04FE753E4B4018D2D78
:100E5000902FFAD518160CF4FCC020E030E0A90160
:100E6000B4018D2D902F78D787FF04C0812C912C51
:100E7000D12C00E0A4016D2D702FC7016FDA6AE05C
:100E800070E080E090E0A1DA5C01909350058093DF
:100E90004F0520911C0530911D0540911E05509174
:100EA0001F05609148027091490280914A02909119
:100EB0004B0256D73B014C01D0904C02E0904D02C2
:100EC000F0904E0200914F029B01AC016D2D7E2DE2
:100ED0008F2D902FB9D587FD15C0D0905002E0908E
:100EE0005102F0905202009153029301A4016D2D22
:100EF0007E2D8F2D902F30D7181624F0D62CE72C6E
:100F0000F82C092D20E030E04FE753E46D2D7E2DC5
:100F10008F2D902F99D518160CF4A1C020E030E049
:100F2000A9016D2D7E2D8F2D902F16D787FF04C020
:100F3000D12CE12CF12C00E04D2D5E2D6F2D702F6A
:100F4000C5010CDA6BE070E080E090E03EDA7C01F5
:100F5000909348058093470540901C0550901D05CF
:100F600060901E0570901F0580905402909055026D
:100F7000A0905602B0905702A5019401C301B2019E
:100F8000EBD618160CF071C080921C0590921D05CE
:100F9000A0921E05B0921F0577C060911802709153
:100FA000190280911A0290911B02F0CDC501B40183
:100FB000A4D38111F2CD20E030E040E853E4C50134
:100FC000B401CED52B013C01EBCD609110027091A4
:100FD00011028091120290911302F4CDC501B40167
:100FE0008CD38111F6CD20E030E040E853E4C50118
:100FF000B401B6D54B015C01EFCD60911402709144
:101000001502809116029091170202CEC701B60117
:1010100074D3811104CE20E030E040E853E4C701EE
:10102000B6019ED56B017C01FDCDC301B20115D582
:10103000062F06CEC501B40110D5B62E0FCEC701BE
:10104000B6010BD518CED12CE12C2FE7F22E03E4FC
:10105000C6CE812C912C9FE7D92E03E40BCFD12C47
:10106000E12C8FE7F82E03E467CF80905802909030
:101070005902A0905A02B0905B02A5019401C301ED
:10108000B201E2D487FD80CF20E030E04FE753E4A7
:1010900060911C0570911D0580911E0590911F05A2
:1010A000D3D4181664F480E090E0AFE7B3E4809303
:1010B0001C0590931D05A0931E05B0931F0520E00D
:1010C00030E0A90160911C0570911D0580911E05FD
:1010D00090911F0541D687FF08C010921C05109201
:1010E0001D0510921E0510921F0540911C05509180
:1010F0001D0560911E0570911F05C7012FD94F85F1
:101100008C2D80958170411101C080E08093850510
:101110008F81C094C0FACC24C0F8811101C0C12CC9
:10112000C09283059B81992311F081E0111180E029
:10113000809384052F960FB6F894DEBF0FBECDBF07
:10114000DF91CF911F910F91FF90EF90DF90CF90A3
:10115000BF90AF909F908F907F906F905F904F90D7
:101160003F902F9008952F923F924F925F927F92DF
:101170008F929F92AF92BF92CF92DF92EF92FF92A7
:101180000F931F93CF93DF9384E090E07FD2E4E945
:10119000F2E085E0DF011D928A95E9F70CE115E0A8
:1011A0008DE0F80111928A95E9F7C9E2D5E086E66B
:1011B000DE011D928A95E9F780E0E82E82E0F82EA4
:1011C00096E6C92E92E0D92EF6018081D8011496B8
:1011D0008C93149727E6422E22E0522EF201808152
:1011E00015968C9330E6232E32E0332ED1018C916C
:1011F000F80182877724739470928805812C912C52
:10120000540183948092720590927305A0927405A4
:10121000B092750561E085E3BBDA70927605A8E6C9
:10122000B2E08C91F8018683A9E6B2E08C918783C5
:10123000E1E6F2E08081D8011B968C93109269055B
:101240007092870580926A0590926B05A0926C055A
:10125000B0926D0561E083E39BDA70926E05EAE679
:10126000F2E08081D80118968C931897EBE6F2E0B3
:10127000808119968C93A2E6B2E08C91F801848764
:1012800018AE7092860589AE9AAEABAEBCAE61E088
:1012900081E37EDA7DAE1C8670928E05F701808533
:1012A0009185A285B3858C8B9D8BAE8BBF8B198A64
:1012B0008D869E86AF86B88A6CE370E080E090E011
:1012C0001FD89B8B8A8B798A188270928D05F701C3
:1012D00084859585A685B78588879987AA87BB87E2
:1012E0001D8289829A82AB82BC826DE370E080E0CD
:1012F00090E006D89F838E837D8218AA70928C0519
:101300001DAA89AA9AAAABAABCAAE12CF12C870132
:10131000A801970168E070E080E090E09AD89FAB68
:101320008EAB7DAA18A670928B051DA689A69AA6DB
:10133000ABA6BCA6A801970169E070E080E090E050
:1013400088D89FA78EA77DA618A270928A051DA295
:1013500089A29AA2ABA2BCA2A80197016AE070E0A0
:1013600080E090E076D89FA38EA37DA2188E709225
:1013700089051D8E898E9A8EAB8EBC8EA801970131
:101380006BE070E080E090E064D89F8F8E8F7D8E60
:10139000D6018C9180937D05F201808180937E053A
:1013A000D1018C9180938305E8E6F2E080818093FF
:1013B0007F05A9E6B2E08C9180938005E1E6F2E03A
:1013C000808180938405AAE6B2E08C9180938105A8
:1013D000EBE6F2E0808180938205A2E6B2E08C9198
:1013E00080938505DF91CF911F910F91FF90EF9032
:1013F000DF90CF90BF90AF909F908F907F905F9045
:101400004F903F902F90089580917105811103C0F6
:1014100081E08093710580916905811103C081E0AD
:101420008093690580916105811103C081E08093FB
:1014300061058091350581111FC081E080933505DC
:101440008091360590913705A0913805B091390506
:101450000197A105B10581F480913A05882361F0D7
:101460006CE370E080E090E00E943C0190933C05CA
:1014700080933B050E94A3018091290581111FC023
:1014800081E08093290580912A0590912B05A091F8
:101490002C05B0912D050197A105B10581F480912E
:1014A0002E05882361F06DE370E080E090E00E94FB
:1014B0003C019093300580932F050E94A3018091F9
:1014C000590581112EC081E08093590580915A05FC
:1014D00090915B05A0915C05B0915D050197A10518
:1014E000B105F9F480915E058823D9F068E070E0D9
:1014F00080E090E00E94E5019093600580935F0595
:1015000040E050E0BA010E94AE0168E070E080E087
:1015100090E00E94E5019093600580935F050E9432
:101520007A028091510581112EC081E0809351058E
:101530008091520590915305A0915405B0915505A5
:101540000197A105B105F9F4809156058823D9F0DA
:1015500069E070E080E090E00E94E501909358051A
:101560008093570540E050E0BA010E94AE0169E067
:1015700070E080E090E00E94E50190935805809330
:1015800057050E947A028091490581112EC081E0A1
:101590008093490580914A0590914B05A0914C0597
:1015A000B0914D050197A105B105F9F480914E0563
:1015B0008823D9F06AE070E080E090E00E94E501C5
:1015C0009093500580934F0540E050E0BA010E948F
:1015D000AE016AE070E080E090E00E94E501909347
:1015E000500580934F050E947A0280914105811138
:1015F0002EC081E080934105809142059091430582
:10160000A0914405B09145050197A105B105F9F4F4
:10161000809146058823D9F06BE070E080E090E08F
:101620000E94E501909348058093470540E050E013
:10163000BA010E94AE016BE070E080E090E00E9491
:10164000E50190934805809347050C947A0208952C
:1016500060E070E080E89FE7089560E070E080E877
:101660009FE7089560E070E080E89FEF089560E0F4
:1016700070E080E89FEF089560E070E080EC9FEFFD
:10168000089560E070E080EC9FEF0895F5DF6093CF
:101690009B0570939C0580939D0590939E05F1DFBB
:1016A00060938F05709390058093910590939205B8
:1016B000CFDF609397057093980580939905909379
:1016C0009A05CBDF609393057093940580939505FD
:1016D00090939605C7DF60939F057093A005809354
:1016E000A1059093A205C3DF6093A3057093A405A1
:1016F0008093A5059093A6050895CF92DF92EF926F
:10170000FF92CF936B017C01AC019B016091970527
:10171000709198058091990590919A0595D1C1E0B5
:10172000882369F0A701960160919F057091A0053B
:101730008091A1059091A20587D18111C0E08C2FE5
:10174000CF91FF90EF90DF90CF9008950F931F936C
:101750008B019C010027112720783F770115110587
:1017600020483F4749F4AB01BC016F77772781E000
:10177000452B462B472B09F480E01F910F910895CC
:10178000E5CF40E855E260E070E090E080E000C026
:101790008130910571F01CF4892B39F00895823065
:1017A000910559F0039769F0089526E088EA92E0E0
:1017B00076C626E085E493E0FBCF26E082EE93E058
:1017C000F7CF26E08FE794E0F3CF1F920F920FB68A
:1017D0000F9211240BB60F922F933F934F935F9369
:1017E0006F937F938F939F93AF93BF93EF93FF93E9
:1017F00086E997EE909325018093240134D0FF91E0
:10180000EF91BF91AF919F918F917F916F915F9178
:101810004F913F912F910F900BBE0F900FBE0F90E5
:101820001F90189586E997EE9093250180932401E7
:10183000A3E7B0E08C918E7F8C93E0E2F1E08081B1
:101840008C7F8083E1E2F1E08081877E80838081EC
:101850008360808380818B7F80838C9181608C9377
:10186000089581E00895CF93DF931F921F92CDB723
:10187000DEB780919B0291E0980F90939B028823A2
:1018800069F021E030E030939E0220939D02809326
:101890009B020F900F90DF91CF910895CE0101969A
:1018A0000E94D70378940E94DF03F89480919B02F2
:1018B000815080939B028A81882389F080919A02CB
:1018C00091E0980F90939A02882349F021E030E04C
:1018D00030939E0220939D0280939A02DACF8091EA
:1018E0009A028823B1F280919C028111D2CF81E0CB
:1018F00080939C0278946BD8F89480919A028150DE
:1019000080939A0280919C02815080939C02C1CF67
:10191000CF93DF931092A8051092A705CED231DFA6
:10192000C0916E02D0916F02198218821CDCF8946B
:1019300079DF81E028813981232B09F080E08093D1
:10194000A705789478948091A705811107C05CDD84
:10195000F89490E080E0DF91CF91089581E02881B4
:101960003981232B09F480E08093A8059091A80584
:1019700081E0911180E08093A70573DFE4CF505898
:10198000BB27AA270ED097C188D130F08DD120F087
:1019900031F49F3F11F41EF47DC10EF4E095E7FB96
:1019A0004AC1E92F99D180F3BA17620773078407F8
:1019B000950718F071F49EF5C8C10EF4E0950B2E52
:1019C000BA2FA02D0B01B90190010C01CA01A00191
:1019D0001124FF27591B99F0593F50F4503E68F1EC
:1019E0001A16F040A22F232F342F4427585FF3CF2D
:1019F000469537952795A795F0405395C9F77EF4FE
:101A00001F16BA0B620B730B840BBAF09150A1F046
:101A1000FF0FBB1F661F771F881FC2F70EC0BA0FCC
:101A2000621F731F841F48F4879577956795B79554
:101A3000F7959E3F08F0B3CF9395880F08F099274C
:101A4000EE0F979587950895D2D008F481E0089518
:101A500004D06894B1117AC1089546D188F09F5797
:101A600090F0B92F9927B751A0F0D1F0660F771FEA
:101A7000881F991F1AF0BA95C9F712C0B13081F0CA
:101A800064D1B1E0089561C1672F782F8827B85FCE
:101A900039F0B93FCCF3869577956795B395D9F72B
:101AA0003EF490958095709561957F4F8F4F9F4F35
:101AB0000895E89409C097FB3EF490958095709541
:101AC00061957F4F8F4F9F4F9923A9F0F92F96E98A
:101AD000BB279395F695879577956795B795F111FF
:101AE000F8CFFAF4BB0F11F460FF1BC06F5F7F4F9C
:101AF0008F4F9F4F16C0882311F096E911C07723AE
:101B000021F09EE8872F762F05C0662371F096E8B6
:101B1000862F70E060E02AF09A95660F771F881F85
:101B2000DAF7880F9695879597F90895F7D080F0A2
:101B30009F3740F491110EF009C160E070E080E839
:101B40009FEB089526F41B16611D711D811D79C040
:101B500093C0A3D018F011F0A7D038F49BC0F6C002
:101B6000E92FBAD0B0F35523C9F3E7FB6217730727
:101B700084079507A8F199F3E92FFF2788232AF016
:101B80003197660F771F881FDAF7952F5527442363
:101B900032F091505040220F331F441FD2F7BB2721
:101BA000E91BF50B621B730B840BB109C1F222F424
:101BB000620F731F841FB11D31972AF0660F771FC4
:101BC000881FBB1FEFCF915050405AF041F088233F
:101BD00032F0660F771F881F91505040C1F79395E0
:101BE0004BC08695779567959F5FD9F7F8CF990F8A
:101BF0000008550FAA0BE0E8FEEF16161706E807D7
:101C0000F907C0F012161306E407F50798F0621BF7
:101C1000730B840B950B39F40A2661F0232B242BCC
:101C2000252B21F408950A2609F4A140A6958FEFEB
:101C3000811D811D089597F99F6780E870E060E03D
:101C40000895882371F4772321F09850872B762FFD
:101C500007C0662311F499270DC09051862B70E0C0
:101C600060E02AF09A95660F771F881FDAF7880FD1
:101C70009695879597F908959F3F31F0915020F4FC
:101C8000879577956795B795880F911D9695879558
:101C900097F908959FEF80EC089500240A94161692
:101CA000170618060906089500240A94121613064A
:101CB000140605060895092E0394000C11F48823D8
:101CC00052F0BB0F40F4BF2B11F460FF04C06F5FF4
:101CD0007F4F8F4F9F4F089557FD9058440F551FCA
:101CE00059F05F3F71F04795880F97FB991F61F09E
:101CF0009F3F79F087950895121613061406551F15
:101D0000F2CF4695F1DF08C0161617061806991F80
:101D1000F1CF86957105610508940895E5DFA0F07F
:101D2000BEE7B91788F4BB279F3860F41616B11DBB
:101D3000672F782F8827985FF7CF869577956795D7
:101D4000B11D93959639C8F30895E894BB2766278B
:101D50007727CB0197F908954ADF08F48FEF0895AC
:101D60000BD0A9CF9ADF28F09FDF18F0952309F058
:101D700062CF90CF1124EACFAFDFA0F3959FD1F3CC
:101D8000950F50E0551F629FF001729FBB27F00D29
:101D9000B11D639FAA27F00DB11DAA1F649F66277E
:101DA000B00DA11D661F829F2227B00DA11D621FCD
:101DB000739FB00DA11D621F839FA00D611D221F87
:101DC000749F3327A00D611D231F849F600D211D6B
:101DD000822F762F6A2F11249F5750408AF0E1F00E
:101DE00088234AF0EE0FFF1FBB1F661F771F881F57
:101DF00091505040A9F79E3F510570F01CCFA6CFDF
:101E00005F3FECF3983EDCF3869577956795B79541
:101E1000F795E7959F5FC1F7FE2B880F911D96956B
:101E2000879597F908951F920F920FB60F9211247C
:101E30002F933F938F939F93AF93BF938091A00273
:101E40009091A102A091A202B091A30230919F02B1
:101E500023E0230F2D3758F50196A11DB11D2093C6
:101E60009F028093A0029093A102A093A202B0933C
:101E7000A3028091A4029091A502A091A602B09124
:101E8000A7020196A11DB11D8093A4029093A50203
:101E9000A093A602B093A702BF91AF919F918F919B
:101EA0003F912F910F900FBE0F901F90189526E82D
:101EB000230F0296A11DB11DD2CF789484B5826004
:101EC00084BD84B5816084BD85B5826085BD85B5DE
:101ED000816085BDEEE6F0E0808181608083E1E88D
:101EE000F0E01082808182608083808181608083C5
:101EF000E0E8F0E0808181608083E1EBF0E08081C8
:101F000084608083E0EBF0E0808181608083E1E9A0
:101F1000F0E0808182608083808181608083E0E95D
:101F2000F0E0808181608083E1EAF0E0808182607E
:101F30008083808181608083E0EAF0E0808181603D
:101F40008083E1E2F1E08081826080838081816032
:101F50008083E0E2F1E0808181608083EAE7F0E065
:101F600080818460808380818260808380818160C1
:101F700080838081806880831092C10008958633B9
:101F800008F0865320917B00982F9870277F922B22
:101F900090937B0020916D0290E4299F9001112481
:101FA0008770822B80937C0080917A00806480937C
:101FB0007A0080917A0086FDFCCF80917800909124
:101FC000790008951F93CF93DF93182FEB0161E001
:101FD00033D1209731F460E0812FDF91CF911F91B1
:101FE00067C1CF3FD10511F461E0F6CFE12FF0E0FA
:101FF000EC51FF4FE491E150E23108F0B2C0F0E063
:102000008827EB5FFF4E8F4F29C517101F10241034
:102010002E103810B11042104A1052105C10661089
:1020200070107F108910B11093109D10A71084B507
:10203000806884BDC7BDDF91CF911F91089584B59D
:10204000806284BDC8BDF7CF809180008068809396
:102050008000D0938900C0938800EDCF80918000EC
:10206000806280938000D0938B00C0938A00E3CF7E
:1020700080918000886080938000D0938D00C09311
:102080008C00D9CF8091B00080688093B000C0935D
:10209000B300D1CF8091B00080628093B000C09334
:1020A000B400C9CF80919000806880939000D09355
:1020B0009900C0939800BFCF809190008062809378
:1020C0009000D0939B00C0939A00B5CF8091900070
:1020D000886080939000D0939D00C0939C00ABCF0C
:1020E0008091A00080688093A0008091A0008F7BE9
:1020F0008093A000D093A900C093A8009CCF8091AA
:10210000A00080628093A000D093AB00C093AA008F
:1021100092CF8091A00088608093A000D093AD0002
:10212000C093AC0088CF809120018068809320010B
:10213000D0932901C09328017ECF80912001806235
:1021400080932001D0932B01C0932A0174CF8091FA
:102150002001886080932001D0932D01C0932C0131
:102160006ACFC038D1050CF03FCF35CF81508231D6
:1021700008F059C0E82FF0E08827EF53FF4E8F4F4B
:102180006DC4E110E510D310D910DD101311E81063
:10219000EE10F210F810FC10001106110A111311C4
:1021A0000E1114111811809180008F778093800098
:1021B0000895809180008F7DF9CF80918000877F86
:1021C000F5CF84B58F7784BD089584B58F7DFBCF1F
:1021D0008091B0008F778093B00008958091B00017
:1021E0008F7DF9CF809190008F7780939000089534
:1021F000809190008F7DF9CF80919000877FF5CFFF
:102200008091A0008F778093A00008958091A00016
:102210008F7DF9CF8091A000877FF5CF809120013D
:102220008F77809320010895809120018F7DF9CFD1
:1022300080912001877FF5CFCF93DF9390E0FC0161
:10224000E65DFE4F249180599E4FFC0184918823C6
:10225000C9F090E0880F991FFC01E053FE4FA59153
:10226000B491FC01EA54FE4FC591D49161110DC0A7
:102270009FB7F8948C91209582238C938881282392
:1022800028839FBFDF91CF910895623051F49FB7AB
:10229000F8943C91822F809583238C93E8812E2B98
:1022A000EFCF8FB7F894EC912E2B2C938FBFEACF02
:1022B0001F93CF93DF93282F30E0F901EC51FF4FAC
:1022C0008491F901E65DFE4FD491F901E059FE4F8A
:1022D000C491CC23A1F0162F811148DFEC2FF0E040
:1022E000EE0FFF1FEA54FE4FA591B4918FB7F894FB
:1022F000EC91111108C0D095DE23DC938FBFDF91E4
:10230000CF911F910895DE2BF8CFFC01918D228D86
:10231000892F90E0805C9F4F821B91098F739927D2
:102320000895FC01918D828D981731F0828DE80F10
:10233000F11D858D90E008958FEF9FEF0895FC01CA
:10234000918D828D981761F0A28DAE0FBF2FB11DB8
:102350005D968C91928D9F5F9F73928F90E0089510
:102360008FEF9FEF0895FC01538D448D252F30E0B2
:10237000842F90E0821B930B541710F0CF96089592
:1023800001970895FC01A48DA80FB92FB11DA35A80
:10239000BF4F2C91848D90E001968F739927848F85
:1023A000A689B7892C93A089B1898C9183708064A8
:1023B0008C93938D848D981306C00288F389E02D49
:1023C00080818F7D80830895CF93DF93EC01888D8A
:1023D0008823B1F0AA89BB89E889F9898C9185FDA8
:1023E00003C0808186FD0CC00FB607FCF7CF8C912F
:1023F00085FFF2CF808185FFEDCFCE01C3DFEACF2D
:10240000DF91CF910895EF92FF920F931F93CF9397
:10241000DF93EC0181E0888F9B8D8C8D98131AC01F
:10242000E889F989808185FF15C09FB7F894EE8906
:10243000FF896083E889F989808183708064808363
:102440009FBF81E090E0DF91CF911F910F91FF90AE
:10245000EF900895F62E0B8D10E00F5F1F4F0F7356
:102460001127E02E8C8D8E110BC00FB607FCFACF12
:10247000E889F989808185FFF5CFCE0183DFF2CF2E
:10248000EB8DEC0FFD2FF11DE35AFF4FF0829FB74C
:10249000F8940B8FEA89FB8980818062D0CFCF923C
:1024A000DF92EF92FF921F93CF93DF93EC016A01CB
:1024B0007B01122FE889F98982E08083C11481EEC3
:1024C000D806E104F10499F060E079E08DE390E052
:1024D000A7019601A1D22150310941095109569510
:1024E000479537952795211580E1380790F0E889C1
:1024F000F989108260E874E88EE190E0A701960106
:102500008BD221503109410951095695479537958C
:102510002795EC85FD853083EE85FF852083188E19
:10252000EC89FD891083EA89FB8980818061808341
:10253000EA89FB89808188608083EA89FB898081C0
:1025400080688083EA89FB8980818F7D8083DF9129
:10255000CF911F91FF90EF90DF90CF9008951F9241
:102560000F920FB60F9211240BB60F922F938F93E9
:102570009F93EF93FF93E091B802F091B9028081AD
:10258000E091BE02F091BF0282FD1DC0908180915A
:10259000C1028F5F8F732091C202821741F0E091D8
:1025A000C102F0E0E855FD4F958F8093C102FF9185
:1025B000EF919F918F912F910F900BBE0F900FBEB7
:1025C0000F901F9018958081F2CF1F920F920FB637
:1025D0000F9211240BB60F922F933F934F935F935B
:1025E0006F937F938F939F93AF93BF93EF93FF93DB
:1025F00088EA92E0C7DEFF91EF91BF91AF919F9182
:102600008F917F916F915F914F913F912F910F909B
:102610000BBE0F900FBE0F901F901895E8EAF2E0E6
:102620001382128288EE93E0A0E0B0E08483958369
:10263000A683B78384E792E09183808385EC90E062
:102640009587848784EC90E09787868780EC90E07C
:10265000918B808B81EC90E0938B828B82EC90E06D
:10266000958B848B86EC90E0978B868B118E128EE7
:10267000138E148E08951F920F920FB60F9211248D
:102680000BB60F922F938F939F93EF93FF93E0914D
:102690005503F09156038081E0915B03F0915C0358
:1026A00082FD1DC0908180915E038F5F8F732091AA
:1026B0005F03821741F0E0915E03F0E0EB5BFC4FBB
:1026C000958F80935E03FF91EF919F918F912F9152
:1026D0000F900BBE0F900FBE0F901F90189580812A
:1026E000F2CF1F920F920FB60F9211240BB60F92DA
:1026F0002F933F934F935F936F937F938F939F930A
:10270000AF93BF93EF93FF9385E493E03BDEFF919C
:10271000EF91BF91AF919F918F917F916F915F9159
:102720004F913F912F910F900BBE0F900FBE0F90C6
:102730001F901895E5E4F3E01382128288EE93E08F
:10274000A0E0B0E084839583A683B78384E792E01A
:10275000918380838DEC90E0958784878CEC90E06A
:102760009787868788EC90E0918B808B89EC90E04E
:10277000938B828B8AEC90E0958B848B8EEC90E02F
:10278000978B868B118E128E138E148E08951F9246
:102790000F920FB60F9211240BB60F922F938F93B7
:1027A0009F93EF93FF93E091F203F091F303808105
:1027B000E091F803F091F90382FD1DC090818091B2
:1027C000FB038F5F8F732091FC03821741F0E09130
:1027D000FB03F0E0EE51FC4F958F8093FB03FF91DC
:1027E000EF919F918F912F910F900BBE0F900FBE85
:1027F0000F901F9018958081F2CF1F920F920FB605
:102800000F9211240BB60F922F933F934F935F9328
:102810006F937F938F939F93AF93BF93EF93FF93A8
:1028200082EE93E0AFDDFF91EF91BF91AF919F9169
:102830008F917F916F915F914F913F912F910F9069
:102840000BBE0F900FBE0F901F901895E2EEF3E0B5
:102850001382128288EE93E0A0E0B0E08483958337
:10286000A683B78384E792E09183808385ED90E02F
:102870009587848784ED90E09787868780ED90E048
:10288000918B808B81ED90E0938B828B82ED90E039
:10289000958B848B86ED90E0978B868B118E128EB4
:1028A000138E148E08951F920F920FB60F9211245B
:1028B0000BB60F922F938F939F93EF93FF93E0911B
:1028C0008F04F09190048081E0919504F09196043A
:1028D00082FD1DC09081809198048F5F8F7320913D
:1028E0009904821741F0E0919804F0E0E158FB4F21
:1028F000958F80939804FF91EF919F918F912F91E5
:102900000F900BBE0F900FBE0F901F9018958081F7
:10291000F2CF1F920F920FB60F9211240BB60F92A7
:102920002F933F934F935F936F937F938F939F93D7
:10293000AF93BF93EF93FF938FE794E023DDFF9175
:10294000EF91BF91AF919F918F917F916F915F9127
:102950004F913F912F910F900BBE0F900FBE0F9094
:102960001F901895EFE7F4E01382128288EE93E04F
:10297000A0E0B0E084839583A683B78384E792E0E8
:102980009183808385E391E09587848784E391E058
:102990009787868780E391E0918B808B81E391E03C
:1029A000938B828B82E391E0958B848B86E391E01D
:1029B000978B868B118E128E138E148E0895AF9284
:1029C000BF92CF92DF92EF92FF920F931F93CF931C
:1029D000DF936C017B018B01040F151FEB015E017E
:1029E000AE18BF08C017D10759F06991D601ED9113
:1029F000FC910190F081E02DC6011995892B79F7A2
:102A0000C501DF91CF911F910F91FF90EF90DF9063
:102A1000CF90BF90AF900895A1E21A2EAA1BBB1BC6
:102A2000FD010DC0AA1FBB1FEE1FFF1FA217B3079A
:102A3000E407F50720F0A21BB30BE40BF50B661FB0
:102A4000771F881F991F1A9469F760957095809574
:102A500090959B01AC01BD01CF010895EE0FFF1FC2
:102A6000881F8BBF0790F691E02D1994F894FFCF43
:102A700000008C4200008C42CDCCCC3DCDCCCC3D76
:102A80000000000000000000000000000000803F87
:102A90000000A0410000803F000000000000000096
:102AA000CDCC0C40000080BF00007F430000000040
:102AB00000007F4300000000000080BF00007F4353
:102AC0000000000000007F4300000000CDCCCDCC12
:102AD0000000000603020000000000000201940252
:102AE000000000000312DF14B311E41185119F11DF
:022AF000911142
:00000001FF
