:100000002BC100000C94011C0C942C1C0C94571C4C
:100010000C94821C0C94AD1C0C94D81C0C94031DE5
:100020000C942E1D4AC1000048C1000046C10000CA
:1000300044C1000042C1000040C100003EC10000B8
:100040003CC100003AC1000038C1000036C10000C8
:1000500034C1000032C1000030C100000C94591DB1
:100060002CC100000C941D210C94532126C10000CA
:1000700024C1000022C1000020C100001EC10000F8
:100080001CC100001AC1000018C1000016C1000008
:100090000C94A9210C94DF2110C100000EC10000B6
:1000A0000CC100000AC1000008C1000006C1000028
:1000B00004C1000002C1000000C10000FEC0000039
:1000C000FCC00000FAC000000C9493170C94352279
:1000D0000C946B22F2C000000C94C1220C94F72205
:1000E000ECC00000084AD73B3BCE016E84BCBFFD8C
:1000F000C12F3D6C74319ABD56833DDA3D00C77FF8
:1001000011BED9E4BB4C3E916BAAAABE0000008090
:100110003F05A84CCDB2D44EB93836A9020C50B91F
:10012000918688083CA6AAAA2ABE000000803F004B
:1001300000000A0B02090C0D0E0807030401000061
:1001400000000000000000000000000000000000AF
:10015000000000000000000000000000121110006C
:10016000000000000000000000000000000000008F
:1001700000000000000001021020200808102040AC
:10018000102040800201020108040201010204085B
:1001900010204080804020100804020180040201E9
:1001A0008040201008040201080402010102040832
:1001B000102040800102040810204080050505053C
:1001C000070508080808020202020A0A08080404CF
:1001D00004040101010101010101030303030303FD
:1001E0000303040707070C0C0C0C0C0C0C0C02028C
:1001F000020206060606060606060B0B0B0B0B0B89
:100200000B0B000020002300260029002C002F00EB
:100210003200000100000301060109010000220074
:10022000250028002B002E003100340002010000C0
:10023000050108010B0100002100240027002A000D
:100240002D003000330001010000040107010A0104
:100250007C2108229422202311241FBECFEFD1E25B
:10026000DEBFCDBF00E00CBF13E0A0E0B2E0ECE4E5
:10027000F7E400E00BBF02C007900D92A435B10770
:10028000D9F726E0A4E5B3E001C01D92A13FB20773
:10029000E1F711E0CCE2D1E000E006C021970109CE
:1002A000802FFE010E949C23C832D10780E00807FE
:1002B000A9F70E94FA170C94A423A2CECF93DF9340
:1002C000882349F0EB0181500E94051E99838883A1
:1002D000DF91CF910895FB0111821082F9CF0F9326
:1002E0001F938B019C0183E0369527951795079501
:1002F0008A95D1F7035A1C4F462F477021E030E012
:10030000F90102C0EE0FFF1F4A95E2F7AF01F801B5
:1003100020812423CB010196211102C090E080E0CE
:100320001F910F9108950F931F938B019C0183E000
:1003300036952795179507958A95D1F7677081E0CF
:1003400090E001C0880F6A95EAF7F801E35AFC4F84
:100350002081452B31F48095822380831F910F915A
:100360000895822BFACFCF92DF92EF92FF92CF9334
:10037000DF936B017C0160E086E3C816D104E104E1
:10038000F10490F486E38C0D0E94621FE601219631
:10039000AE01C701B601C7DFCE01DF91CF91FF905B
:1003A000EF90DF90CF9008958C2DEECF882341F011
:1003B0008150682F70E090E080E050E040E0B3CFE3
:1003C0000895CF92DF92EF92FF92CF93882351F15D
:1003D0006A017B01CFEFC80F20E030E0A901CB011B
:1003E000B6010E94F81887FF11C0C701B6019058E6
:1003F0000E946C199B01AC016C2F70E090E080E0D2
:10040000CF91FF90EF90DF90CF90B2C0C701B601BF
:100410000E9467198C2FCF91FF90EF90DF90CF90C3
:100420000C94281ECF91FF90EF90DF90CF9008950D
:100430000F931F938B019C0183E0369527951795A9
:1004400007958A95D1F70C5A1C4F462F477021E02B
:1004500030E0F90102C0EE0FFF1F4A95E2F7AF014D
:10046000F80120812423CB010196211102C090E0E4
:1004700080E01F910F9108950F931F938B019C01B2
:1004800083E036952795179507958A95D1F767707C
:1004900081E090E001C0880F6A95EAF7F801EC5A14
:1004A000FC4F2081452B31F48095822380831F915E
:1004B0000F910895822BFACF2F923F924F925F9225
:1004C0006F927F928F929F92AF92BF92CF92DF9264
:1004D000EF92FF920F931F93CF93DF93D62EC72EE9
:1004E000782E692E49015A01280161E08D2D0E9464
:1004F000621FCD2DDC2D8E010F5F1F4FA8016D2DCA
:100500007C2D872D962DB8DF20E030E0A901C201B7
:10051000B7010E94A81A181664F4C201B7010E941C
:100520006C192B01C501B4010E946C19A201CE0106
:1005300023D0C801DF91CF911F910F91FF90EF90D1
:10054000DF90CF90BF90AF909F908F907F906F90F3
:100550005F904F903F902F900895882341F08150F5
:10056000682F70E090E080E050E040E085CF089593
:10057000862FB9010C94281E9C01FC01E05DFE4F02
:10058000E491E150E231E0F4F0E08827E553FD4FDB
:100590008F4F0C949C23DD02E402E702FE0213035A
:1005A000E0022803340338034F0364037903900304
:1005B000A503E002BA03D103E60384B5806884BDD5
:1005C00060E0822F0C949E1F84B58062F8CF8091EA
:1005D00080008C7F82608093800080918100807E8B
:1005E0008061682B60938100509387004093860060
:1005F00080918000806880938000E2CF80918000AD
:100600008C7F82608093800080918100807E8061F9
:10061000682B6093810050938700409386008091FF
:1006200080008062E8CF809180008C7F8260809320
:10063000800080918100807E8061682B60938100C2
:100640005093870040938600809180008860D3CFCC
:100650008091B00080688093B0008091B100887F65
:10066000682B6093B100ACCF8091B0008062F3CF73
:10067000809190008C7F82608093900080919100A7
:10068000807E8061682B6093910050939700409327
:1006900096008091900080688093900091CF809127
:1006A00090008C7F82608093900080919100807E8A
:1006B0008061682B6093910050939700409396005F
:1006C000809190008062E8CF809190008C7F826062
:1006D0008093900080919100807E8061682B609370
:1006E000910050939700409396008091900088600D
:1006F000D3CF8091A0008C7F82608093A0008091F6
:10070000A100807E8061682B6093A1005093A700B8
:100710004093A6008091A00080688093A00050CFF5
:100720008091A0008C7F82608093A0008091A100C6
:10073000807E8061682B6093A1005093A700409356
:10074000A6008091A0008062E8CF8091A0008C7FFD
:1007500082608093A0008091A100807E8061682BE0
:100760006093A1005093A7004093A6008091A00041
:100770008860D3CF809120018C7F8260809320019C
:1007800080912101807E8061682B609321015093CC
:1007900027014093260180912001806880932001E9
:1007A0000FCF809120018C7F826080932001809107
:1007B0002101807E8061682B609321015093270185
:1007C00040932601809120018062E8CF8091200132
:1007D0008C7F82608093200180912101807E8061E6
:1007E000682B60932101509327014093260180914B
:1007F00020018860D3CF611102C00C94621F613068
:10080000E1F362E0FACF662319F061E00C949E1FD9
:1008100060E0FCCF8F929F92AF92BF92CF92DF9217
:10082000EF92FF92CF93DF936B017C0149015A0154
:100830000E949C15882399F06091E3067091E4066C
:100840008091E5069091E606DF91CF91FF90EF90C1
:10085000DF90CF90BF90AF909F908F900895C5018B
:10086000B4010E949C158111E7CFC701B6010E9417
:1008700059158823E1F1C501B4010E945915882357
:10088000B1F120E030E0A901C701B6010E94A81A29
:10089000CFEFDFEF181614F4C1E0D0E020E030E035
:1008A000A901C501B4010E94A81A6FEF7FEF1816C5
:1008B00014F461E070E0072E000C880B990B0E9485
:1008C0009A196B017C01BE01DD0F880B990B0E9408
:1008D0009A19A7019601DF91CF91FF90EF90DF90D9
:1008E000CF90BF90AF909F908F900C94A51820E070
:1008F00030E0A901C501B4010E94F818811116C0A9
:1009000020E030E0A901C701B6010E94A81A18161C
:1009100094F020E030E0A901C701B6010E94F81868
:1009200087FD0EC060E070E0CB018ECFA501940181
:10093000C701B601D0CF6BED7FE089EC9FE384CF98
:100940006BED7FE089EC9FEB7FCF2F923F924F9230
:100950005F926F927F928F929F92AF92BF92CF924F
:10096000DF92EF92FF920F931F93CF93DF93CDB758
:10097000DEB768970FB6F894DEBF0FBECDBFC0904C
:100980004002D0904102E0904202F0904302A70161
:10099000960160914C0670914D0680914E069091A3
:1009A0004F060E94F818882341F0C0924C06D0925E
:1009B0004D06E0924E06F0924F066CE370E080E048
:1009C00090E08DDC90934B0680934A0643E050E024
:1009D000BE016F5F7F4F72DCC0904402D090450231
:1009E000E0904602F0904702A70196016091400610
:1009F0007091410680914206909143060E94F8183A
:100A0000882341F0C0924006D0924106E09242060F
:100A1000F09243066DE370E080E090E060DC90933C
:100A20003F0680933E0643E050E0BE016D5F7F4F7E
:100A300045DC8DEC9CECACECBEE380930C06909313
:100A40000D06A0930E06B0930F06C0909806D090A6
:100A50009906E0909A06F0909B0620E030E040EE88
:100A600050E4C701B6010E94F81818160CF4BAC574
:100A70002DEC3CEC4CE45DE36091900670919106A6
:100A800080919206909193060E94F81820E030E041
:100A9000A90187FF18C4C701B6010E94F8180DEC20
:100AA000C02E0CECD02E0CE4E02E0DE3F02E8823AB
:100AB00009F4BCC1609198067091990680919A06DC
:100AC00090919B060E9467196B01FB017196EE0FD6
:100AD000FF1FEE0FFF1FE050FE4F20918806309160
:100AE000890640918A0650918B06608171818281CE
:100AF00093810E9431184B015C0128E1C20ED11C88
:100B0000F601EE0FFF1FEE0FFF1FE050FE4F20918A
:100B10008C0630918D0640918E0650918F06608133
:100B20007181828193810E9431186B017C01C09296
:100B30002C06D0922D06E0922E06F0922F06A501EB
:100B40009401C501B4010E94B31A4B015C01A701D5
:100B50009601C701B6010E94B31A9B01AC01C50101
:100B6000B4010E9432180E94201B60930806709303
:100B7000090680930A0690930B06C0909806D090C1
:100B80009906E0909A06F0909B0640908806509057
:100B9000890660908A0670908B0680908C069090F3
:100BA0008D06A0908E06B0908F0623E333E343EBCF
:100BB0005EE3609108067091090680910A069091A3
:100BC0000B060E94F81887FF0AC020E030E040EED4
:100BD00050E4C701B6010E94F81887FD1EC4C70182
:100BE000B6010E9467196B01FB017196EE0FFF1FA2
:100BF000EE0FFF1FE050FE4FA30192016081718153
:100C0000828193810E9431182B013C0188E1C80E3A
:100C1000D11CF601EE0FFF1FEE0FFF1FE050FE4F3D
:100C2000A501940160817181828193810E943118B4
:100C3000A3019201EFDD6B017C0120E030E040E890
:100C40005FE360919406709195068091960690916D
:100C500097060E94F818811122C020E030E0A90117
:100C60006091900670919106809192069091930602
:100C70000E94F81887FF13C020E030E0A901C701E7
:100C8000B6010E94F81887FF0AC02BED3FE049EC3F
:100C900050E4C701B6010E9432186B017C018090BC
:100CA000980690909906A0909A06B0909B06809125
:100CB000080690910906A0910A06B0910B06898753
:100CC0009A87AB87BC8720E030E040E85FE3C5014E
:100CD000B4010E94A81A18160CF086C02DEC3CEC4A
:100CE0004CEC5EE369857A858B859C850E94F818BB
:100CF00087FF0CC08DEC9CECACE4BEE380930C064B
:100D000090930D06A0930E06B0930F0620E030E0FE
:100D100040E85FE3C501B4010E9431180E946719E1
:100D20006D837E838F839887ED81FE817196EE0FB0
:100D3000FF1FEE0FFF1FE050FE4F209188063091FD
:100D4000890640918A0650918B066081718182816B
:100D500093810E9431182B013C01ED81FE81789630
:100D6000EE0FFF1FEE0FFF1FE050FE4F20918C068D
:100D700030918D0640918E0650918F066081718171
:100D8000828193810E9431186D837E838F8398873F
:100D9000A3019201C301B2010E94B31A2B013C01CD
:100DA0002D813E814F815885CA01B9010E94B31A35
:100DB0009B01AC01C301B2010E9432180E94201BAA
:100DC0002DEC3CEC4CEC5EE30E94F81887FF0CC065
:100DD0008DEC9CECACE4BEE380930C0690930D0686
:100DE000A0930E06B0930F0623E333E343E35EE3E1
:100DF00069857A858B859C850E94F81887FF16C0C7
:100E000020E030E040EE50E4C501B4010E94F81843
:100E100081110CC080E090E0A0E0B1E480939806DE
:100E200090939906A0939A06B0939B066091140341
:100E30007091150390E080E00E94981920E030E066
:100E400040E056E30E94B31A4B015C0169817A814C
:100E500090E080E00E9498199B01AC01C501B401AB
:100E60000E94B31A2B013C014092080650920906D9
:100E700060920A0670920B06609116037091170338
:100E800090E080E00E94981920E030E040E056E3D6
:100E90000E94B31A4B015C016B817C8190E080E081
:100EA0000E9498199B01AC01C501B4010E94B31ABC
:100EB0004B015C0180922C0690922D06A0922E068A
:100EC000B0922F068091D6068F3F19F08F5F8093E6
:100ED000D6068091D406811191C381E08093D40617
:100EE00085E08093D5066091FC057091FD058091A9
:100EF000FE059091FF050E946C191B01A1E02A22BA
:100F000033246B017C01F694E794D794C79496013F
:100F1000217033273E872D876B017C0152E0F694C8
:100F2000E794D794C7945A95D1F7D601A170BB27FF
:100F3000BE8BAD8BE3E09695879577956795EA959F
:100F4000D1F79B0121703327388F2F8B1F9281E0BF
:100F50008F93F4EB8F2EF2E09F2EAA24A394B12C52
:100F6000B0EBCB2EB2E0DB2EEE24E394F12C09E1C2
:100F700013E021E030E048E153E06CE976E080E303
:100F800096E00E9488168090B8029090B902A090D6
:100F9000BA02B090BB02C090BC02D090BD02E090FB
:100FA000BE02F090BF0260913006709131068091D0
:100FB0003206909133060E949A19A50194010E946D
:100FC000B31AA70196010E94B31A2B013C0120918C
:100FD000A0063091A1064091A2065091A3060E945E
:100FE000311869877A878B879C87409208065092D0
:100FF000090660920A0670920B06609134067091A1
:10100000350680913606909137060E949A19A501FF
:1010100094010E94B31AA70196010E94B31A60932B
:101020000C0670930D0680930E0690930F06209188
:10103000A4063091A5064091A6065091A7060E94ED
:1010400031184B015C0180922C0690922D06A092E3
:101050002E06B0922F06209104063091050640918D
:101060000606509107066091340270913502809116
:101070003602909137020E94B31A2091A80630914F
:10108000A9064091AA065091AB060E9432186B0146
:101090007C012091900230919102409192025091F6
:1010A000930269857A858B859C850E94B31A2B01F2
:1010B0003C01209198023091990240919A025091FE
:1010C0009B02C501B4010E94B31A9B01AC01C3018C
:1010D000B2010E94321860931C0670931D06809323
:1010E0001E0690931F068090000690900106A09027
:1010F0000206B09003062091800230918102409157
:10110000820250918302C501B4010E94B31A2B01DF
:101110003C01209188023091890240918A025091CD
:101120008B02C701B6010E94B31A9B01AC01C30137
:10113000B2010E9432182091BC063091BD06409148
:10114000BE065091BF060E9431186D837E838F8347
:1011500098872091840230918502409186025091B7
:101160008702C501B4010E94B31A4B015C012091B2
:101170008C0230918D0240918E0250918F02C701F6
:10118000B6010E94B31A9B01AC01C501B4010E94D3
:1011900032182091C0063091C1064091C20650918C
:1011A000C3060E943118698B7A8B8B8B9C8B2091A4
:1011B00000023091010240910202509103020E940C
:1011C000B31A2091AC063091AD064091AE06509115
:1011D000AF060E94311820912C0230912D024091CF
:1011E0002E0250912F020E94B31A6B017C01C09213
:1011F0001006D0921106E0921206F092130620918A
:1012000038023091390240913A0250913B0269898B
:101210007A898B899C890E94B31A2091B0063091FB
:10122000B1064091B2065091B3060E943218A70150
:1012300096010E94321860931406709315068093ED
:101240001606909317066AE070E080E090E0F0D810
:101250005C0190935F0680935E06209114063091A6
:10126000150640911606509117066091D0027091B4
:10127000D1028091D2029091D3020E94B31A6B01E5
:101280007C01C0922006D0922106E0922206F092C4
:1012900023064090D4025090D5026090D602709000
:1012A000D7020F900F90A30192010E94A81A18165E
:1012B0000CF010C440922006509221066092220643
:1012C0007092230617C4C701B6010E94F818811155
:1012D000F1CB209188063091890640918A06509181
:1012E0008B0680908C0690908D06A0908E06B09014
:1012F0008F06412C512CE0E86E2EEFE37E2E4092BB
:1013000098065092990660929A0670929B06609198
:1013100048027091490280914A0290914B020E94CA
:1013200031186B017C01A5019401609164027091F8
:10133000650280916602909167020E943118A701B0
:10134000960168DA6B017C0180909006909091067E
:10135000A0909206B090930620E030E0A901C5016C
:10136000B4010E94A81A18160CF04EC020E030E01C
:10137000A901C701B6010E94F81887FF45C0A7015F
:101380009601C501B4010E9431182BED3FE049E4FC
:1013900050E40E94A81A181644F440929406509201
:1013A0009506609296067092970620E030E0A901BB
:1013B000C501B4010E94F81887FF7CCB20E030E023
:1013C000A901C701B6010E94A81A18160CF072CB29
:1013D000A5019401C701B6010E9431182BED3FE031
:1013E00049E450E40E94A81A18160CF063CB80E080
:1013F00090E0A0E8BFE38093940690939506A093B5
:101400009606B093970656CB1092940610929506C6
:101410001092960610929706C8CF20E030E040E880
:101420005FE3C701B6010E9432186093980670937B
:10143000990680939A0690939B060E9467196B0108
:10144000FB017196EE0FFF1FEE0FFF1FE050FE4FE6
:10145000A301920160817181828193810E94311880
:101460002B013C01409208065092090660920A0640
:1014700070920B0638E1C30ED11CF601EE0FFF1F70
:10148000EE0FFF1FE050FE4FA501940160817181B6
:10149000828193810E94311860932C0670932D06EF
:1014A00080932E0690932F06A3019201B3D96B016E
:1014B0007C01609108067091090680910A0690915E
:1014C0000B0680902C0690902D06A0902E06B090D2
:1014D0002F069B01AC010E94B31A2B013C01A50110
:1014E0009401C501B4010E94B31A9B01AC01C30170
:1014F000B2010E9432180E94201B6093080670936C
:10150000090680930A0690930B06809090069090AF
:101510009106A0909206B090930620E030E0A901D9
:10152000C501B4010E94A81A18160CF052C020E0A0
:1015300030E0A901C701B6010E94F81887FF49C031
:10154000A7019601C501B4010E9431182BED3FE0BF
:1015500049E450E40E94A81A181664F480E090E070
:10156000A0E8BFE38093940690939506A093960617
:10157000B093970620E030E0A901C501B4010E94B4
:10158000F81887FFFACA20E030E0A901C701B601C8
:101590000E94A81A18160CF0F0CAA5019401C70100
:1015A000B6010E9431182BED3FE049E450E40E945F
:1015B000A81A18160CF0E1CA80E090E0A0E8BFE39A
:1015C0008093940690939506A0939606B093970601
:1015D000D4CA109294061092950610929606109214
:1015E0009706C8CF10920C0610920D0610920E06A8
:1015F00010920F06C12CD12C760118CC8091D50603
:10160000833009F410C150F4813009F1823009F4BB
:1016100098C08091D606883C68F0F7C1853009F4FF
:101620008EC108F442C18630A1F78091D606883C6D
:1016300008F0C3C18DEC9CECACECBDE380930006DC
:1016400090930106A0930206B09303064CCCC09081
:10165000CC06D090CD06E090CE06F090CF06A70144
:101660009601C301B2010E94A81A87FD0DC0A7010F
:101670009601C501B4010E94A81A87FD05C080919A
:10168000D606823308F02CCCC0909006D0909106FC
:10169000E0909206F090930620E030E040E250E4C3
:1016A0006091C8067091C9068091CA069091CB06D8
:1016B0000E94FF189B01AC01C501B4010E94F818FB
:1016C00087FF12C02BED3FE049E45FE3C701B6019D
:1016D0000E9432186093C4067093C5068093C606B4
:1016E0009093C70683E0FDCBA70196016091C406E5
:1016F0007091C5068091C6069091C7060E94311868
:10170000609304067093050680930606909307067F
:101710008AE999E9A9E1BEE3809300069093010666
:10172000A0930206B093030680E090E0A0E8B0E446
:101730008093FC059093FD05A093FE05B093FF05F3
:10174000D2CBC090CC06D090CD06E090CE06F090E3
:10175000CF06A7019601C301B2010E94A81A87FD16
:101760000DC0A7019601C501B4010E94A81A87FD0A
:1017700005C08091D606823308F0B2CBC0909006A7
:10178000D0909106E0909206F090930620E030E031
:1017900040E250E46091C8067091C9068091CA0683
:1017A0009091CB060E94FF189B01AC01C301B201CE
:1017B0000E94F81887FF12C02BED3FE049E45FE379
:1017C000C701B6010E9431186093C4067093C50624
:1017D0008093C6069093C70684E083CBA701960149
:1017E0006091C4067091C5068091C6069091C706A7
:1017F0000E943118609304067093050680930606D4
:10180000909307068AE999E9A9E1BEE3809300066F
:1018100090930106A0930206B093030680E090E047
:10182000A0E0B1E485CF6091040670910506809137
:101830000606909107069F772CEE31E548E35EE3BC
:101840000E94F81887FF06C086E08093D5061092A4
:10185000D60649CB20919006309191064091920690
:10186000509193066091C4067091C5068091C6069A
:101870009091C7060E943118609304067093050684
:1018800080930606909307068AE999E9A9E1BEEBE1
:101890008093000690930106A0930206B09303067E
:1018A00080E090E0A0EAB0E443CF6091040670913C
:1018B000050680910606909107069F772CEE31E58C
:1018C00048E35EE30E94F81887FF0EC08AE999E9B1
:1018D000A9E1BEE38093000690930106A09302065F
:1018E000B093030687E0B1CF209190063091910626
:1018F00040919206509193066091C4067091C5067E
:101900008091C6069091C7060E9431186093040624
:101910007093050680930606909307068AE999E975
:10192000A9E1BEEB8093000690930106A093020606
:10193000B093030680E090E0A0E1B1E4F9CE80919D
:10194000C8069091C906A091CA06B091CB068D83B6
:101950009E83AF83B8878091900690919106A09165
:101960009206B091930689879A87AB87BC872D81B1
:101970003E814F815885C501B4010E94F81887FF48
:101980001EC02D813E814F815885C301B2010E9446
:10199000A81A87FD14C02BED3FE049E45FE3698599
:1019A0007A858B859C850E9432186093C40670935B
:1019B000C5068093C6069093C70681E046CF2D8169
:1019C0003E814F815885C301B2010E94F81887FFFC
:1019D0001EC02D813E814F815885C501B4010E94F2
:1019E000A81A87FD14C02BED3FE049E45FE3698549
:1019F0007A858B859C850E9431186093C40670930C
:101A0000C5068093C6069093C70682E01ECF8091DC
:101A10000C0690910D06A0910E06B0910F068093D2
:101A2000000690930106A0930206B093030620E0FF
:101A300030E040E85FE360919406709195068091F4
:101A40009606909197060E94F818811136C020E002
:101A500030E0A90169857A858B859C850E94F818FC
:101A600087FF2BC02BED3FE049EC50E469857A8578
:101A70008B859C850E94321860931C0670931D060E
:101A800080931E0690931F0620911C0630911D0620
:101A900040911E0650911F06C701B6010E943118E1
:101AA00060930406709305068093060690930706DC
:101AB00080E090E0A0E0B0E43BCE89859A85AB85DC
:101AC000BC8580931C0690931D06A0931E06B093C0
:101AD0001F06DACF4090D8025090D9026090DA0207
:101AE0007090DB02A3019201C701B6010E94F818B1
:101AF00087FDE0CB20E030E04FE753E46091200623
:101B00007091210680912206909123060E94F81878
:101B1000181664F480E090E0AFE7B3E48093200609
:101B200090932106A0932206B093230620E030E094
:101B3000A901609120067091210680912206909162
:101B400023060E94A81A87FF08C010922006109250
:101B500021061092220610922306409120065091F1
:101B600021066091220670912306C5010E94E101C1
:101B70006BE070E080E090E00E9418027C0190939E
:101B800057068093560640901406509015066090B4
:101B90001606709017068090DC029090DD02A090EF
:101BA000DE02B090DF02A5019401C301B2010E94E0
:101BB000A81A18164CF48092140690921506A0925A
:101BC0001606B092170610C08090E0029090E102D5
:101BD000A090E202B090E302A5019401C301B2011A
:101BE0000E94F81887FDE7CF20E030E04FE753E48C
:101BF0006091140670911506809116069091170653
:101C00000E94F818181664F480E090E0AFE7B3E49F
:101C10008093140690931506A0931606B0931706AA
:101C200020E030E0A90160911406709115068091C2
:101C30001606909117060E94A81A87FF08C01092F6
:101C4000140610921506109216061092170640916F
:101C50001406509115066091160670911706C7017B
:101C60000E94E10120910402309105024091060298
:101C7000509107026D817E818F8198850E94B31AF1
:101C80002091B4063091B5064091B6065091B70642
:101C90000E9431182091300230913102409132027D
:101CA000509133020E94B31A6B017C01C09214065A
:101CB000D0921506E0921606F092170620913C028B
:101CC00030913D0240913E0250913F026D817E81F4
:101CD0008F8198850E94B31A2091B8063091B90679
:101CE0004091BA065091BB060E943218A701960196
:101CF0000E943218609318067093190680931A0692
:101D000090931B0668E070E080E090E00E9418026B
:101D10005C0190936F0680936E06209118063091B7
:101D2000190640911A0650911B066091EC027091C1
:101D3000ED028091EE029091EF020E94B31A6B01C6
:101D40007C01C0922006D0922106E0922206F092F9
:101D500023064090F0025090F1026090F2027090E1
:101D6000F302A30192010E94A81A18164CF44092A3
:101D7000200650922106609222067092230610C01F
:101D80004090F4025090F5026090F6027090F702D5
:101D9000A3019201C701B6010E94F81887FDE7CFA1
:101DA00020E030E04FE753E4609120067091210677
:101DB00080912206909123060E94F818181664F468
:101DC00080E090E0AFE7B3E4809320069093210693
:101DD000A0932206B093230620E030E0A901609191
:101DE00020067091210680912206909123060E9480
:101DF000A81A87FF08C010922006109221061092A0
:101E000022061092230640912006509121066091EF
:101E1000220670912306C5010E94E10169E070E08D
:101E200080E090E00E9418027C0190936706809306
:101E30006606409018065090190660901A06709039
:101E40001B068090F8029090F902A090FA02B090E0
:101E5000FB02A5019401C301B2010E94A81A181641
:101E60004CF48092180690921906A0921A06B0922D
:101E70001B0610C08090FC029090FD02A090FE0214
:101E8000B090FF02A5019401C301B2010E94F818AD
:101E900087FDE7CF20E030E04FE753E4609118067C
:101EA0007091190680911A0690911B060E94F818ED
:101EB000181664F480E090E0AFE7B3E4809318066E
:101EC00090931906A0931A06B0931B0620E030E009
:101ED000A901609118067091190680911A069091D7
:101EE0001B060E94A81A87FF08C0109218061092BD
:101EF000190610921A0610921B064091180650916E
:101F0000190660911A0670911B06C7010E94E10133
:101F10008090900690909106A0909206B0909306C3
:101F2000C501B4010E94FC18C0901C06D0901D068B
:101F3000E0901E06F0901F062091000330910103EF
:101F400040910203509103030E94B31AA701960126
:101F50000E94B31A60932006709321068093220694
:101F600090932306C501B4010E94161B9B01AC018E
:101F7000C701B6010E94B31A609318067093190640
:101F800080931A0690931B064090D0065090D1067D
:101F90006090D2067090D306C301B2010E949A19D4
:101FA0004B015C0120910C0330910D0340910E0315
:101FB00050910F030E94F81887FF5DC277FC5BC247
:101FC000C0900403D0900503E0900603F09007034F
:101FD000C0921C06D0921D06E0921E06F0921F06CB
:101FE00020E030E040E85FE360910803709109036E
:101FF00080910A0390910B030E9431189B01AC0160
:10200000C501B4010E94A81A87FD39C21092D006FA
:102010001092D1061092D2061092D3068D899E8915
:1020200060E0892B81F061E02114310461F011E05E
:1020300020E030E0A901C701B6010E94F818811123
:1020400001C010E0612F85E30E940304AD85BE85C9
:1020500060E0AB2BB1F061E02114310491F011E0AC
:1020600020E030E0A90160911C0670911D0680916E
:102070001E0690911F060E94F818811101C010E001
:10208000612F83E30E9403042F89388D60E0232BA6
:10209000A9F061E0232891F011E020E030E0A901EF
:1020A00060911C0670911D0680911E0690911F067E
:1020B0000E94F818811101C010E0612F81E30E9495
:1020C0000304409088065090890660908A067090BC
:1020D0008B0640921C0650921D0660921E0670925E
:1020E0001F0680908C0690908D06A0908E06B09072
:1020F0008F068092240690922506A0922606B09222
:1021000027068091900690919106A0919206B09139
:1021100093068D879E87AF87B88B80932806909310
:102120002906A0932A06B0932B06C090A002D09057
:10213000A102E090A202F090A3022091200630912B
:1021400021064091220650912306C701B6010E9444
:10215000B31AA301920186D760938806709389060B
:1021600080938A0690938B06209118063091190669
:1021700040911A0650911B06C701B6010E94B31A7E
:10218000A50194016FD760938C0670938D068093A0
:102190008E0690938F0620912C0630912D0640914B
:1021A0002E0650912F0660919C0270919D028091A5
:1021B0009E0290919F020E94B31A4B015C012091F4
:1021C0009402309195024091960250919702698550
:1021D0007A858B859C850E94B31A9B01AC01C50151
:1021E000B40140D7A70196010E94B31A2D853E8500
:1021F0004F85588937D760939006709391068093E6
:102200009206909393061F9281E08F9384EB882E21
:1022100082E0982EAA24A394B12C20EBC22E22E0B7
:10222000D22EEE24E394F12C09E113E021E030E01A
:1022300048E153E06CE976E080E396E09AD520919E
:1022400004063091050640910606509107066091FC
:1022500010027091110280911202909113020E945B
:10226000B31A2091C0023091C1024091C202509134
:10227000C3020E94B31A2091A8063091A90640918A
:10228000AA065091AB06EED66093A8067093A906F5
:102290008093AA069093AB06809108069091090658
:1022A000A0910A06B0910B068093A0069093A10618
:1022B000A093A206B093A30689859A85AB85BC85B9
:1022C0008093BC069093BD06A093BE06B093BF0654
:1022D00080910C0690910D06A0910E06B0910F060C
:1022E0008093A4069093A506A093A606B093A70694
:1022F00080912C0690912D06A0912E06B0912F066C
:102300008093C0069093C106A093C206B093C30603
:10231000209110063091110640911206509113063B
:102320006091C8027091C9028091CA029091CB025B
:102330000E94B31A2091AC063091AD064091AE06D2
:102340005091AF068FD66093AC067093AD06809324
:10235000AE069093AF062091080230910902409199
:102360000A0250910B0269897A898B899C890E94A3
:10237000B31A2091CC023091CD024091CE025091FF
:10238000CF020E94B31A2091B0063091B10640915D
:10239000B2065091B30666D66093B0067093B1064C
:1023A0008093B2069093B3062091140630911506DF
:1023B00040911606509117066091E4027091E50273
:1023C0008091E6029091E7020E94B31A2091B40630
:1023D0003091B5064091B6065091B70643D660934A
:1023E000B4067093B5068093B6069093B706209115
:1023F0000C0230910D0240910E0250910F026D813E
:102400007E818F8198850E94B31A2091E8023091D5
:10241000E9024091EA025091EB020E94B31A209126
:10242000B8063091B9064091BA065091BB061AD64B
:102430006093B8067093B9068093BA069093BB0672
:102440000F900F9068960FB6F894DEBF0FBECDBF09
:10245000DF91CF911F910F91FF90EF90DF90CF9080
:10246000BF90AF909F908F907F906F905F904F90B4
:102470003F902F900895C12CD12C7601A9CD3FEF2C
:10248000431A530A630A730A4092D0065092D10647
:102490006092D2067092D306C1CD8F929F92AF9276
:1024A000BF92DF92EF92FF920F931F93CF93DF9330
:1024B00084E090E0C7D2E0E0F2E08091A402909145
:1024C000A502A091A602B091A702C8E3D6E080932E
:1024D000880690938906A0938A06B0938B06809312
:1024E0008C0690938D06A0938E06B0938F068093F2
:1024F000900690939106A0939206B09393068091D4
:10250000A8029091A902A091AA02B091AB02809377
:10251000940690939506A0939606B09397068091A3
:10252000AC029091AD02A091AE02B091AF02809347
:10253000980690939906A0939A06B0939B061092E2
:102540009C0610929D0610929E0610929F0680A1F6
:1025500091A1A2A1B3A18093A8069093A906A093EC
:10256000AA06B093AB06448955896689778940935A
:10257000A0065093A1066093A2067093A3068091D3
:10258000C4029091C502A091C602B091C702809387
:10259000BC069093BD06A093BE06B093BF064093C1
:1025A000A4065093A5066093A6067093A706809391
:1025B000C0069093C106A093C206B093C306808D57
:1025C000918DA28DB38D8093AC069093AD06A093B0
:1025D000AE06B093AF0684A195A1A6A1B7A1809342
:1025E000B0069093B106A093B206B093B306848D63
:1025F000958DA68DB78D8093B4069093B506A09364
:10260000B606B093B70680A591A5A2A5B3A5809301
:10261000B8069093B906A093BA06B093BB0680E0C3
:1026200090E0ACE5B2E48093C8069093C906A0930D
:10263000CA06B093CB0680E090E0A0E7B2E48093B6
:10264000CC069093CD06A093CE06B093CF061C8601
:102650008091400290914102A0914202B0914302C8
:102660008C8B9D8BAE8BBF8B198A812C912C540146
:1026700083948D869E86AF86B88A6CE370E080E096
:1026800090E00E94B3019B8B8A8BDD24D394D98A7E
:1026900018828091440290914502A0914602B09127
:1026A000470288879987AA87BB871D8289829A8279
:1026B000AB82BC826DE370E080E090E00E94B301E9
:1026C0009F838E83DD8218A21DA289A29AA2ABA24B
:1026D000BCA2E12CF12C8701A80197016AE070E00F
:1026E00080E090E00E945C029FA38EA3DDA2188E82
:1026F0001D8E898E9A8EAB8EBC8EA80197016BE0E1
:1027000070E080E090E00E945C029F8F8E8FDD8EF3
:1027100018AA1DAA89AA9AAAABAABCAAA8019701BD
:1027200068E070E080E090E00E945C029FAB8EABBE
:10273000DDAA18A61DA689A69AA6ABA6BCA6A801C6
:10274000970169E070E080E090E00E945C029FA742
:102750008EA7DDA610928006809281069092820656
:10276000A0928306B092840661E085E30E94FB0399
:10277000D0928506109278068092790690927A0619
:10278000A0927B06B0927C0661E083E30E94FB038B
:10279000D0927D0618AE89AE9AAEABAEBCAE61E00B
:1027A00081E30E94FB03DDAEDF91CF911F910F917A
:1027B000FF90EF90DF90BF90AF909F908F90089523
:1027C0008091440681111FC081E08093440680916E
:1027D000450690914606A0914706B091480601979C
:1027E000A105B10581F480914906882361F06CE36D
:1027F00070E080E090E00E946F0190934B06809320
:102800004A060E94D6018091380681111FC081E0DE
:10281000809338068091390690913A06A0913B0644
:10282000B0913C060197A105B10581F480913D0668
:10283000882361F06DE370E080E090E00E946F011A
:1028400090933F0680933E060E94D60180915806E1
:1028500081112EC081E08093580680915906909195
:102860005A06A0915B06B0915C060197A105B105DF
:10287000F9F480915D068823D9F06AE070E080E089
:1028800090E00E94180290935F0680935E0640E0FD
:1028900050E0BA010E94E1016AE070E080E090E05F
:1028A0000E94180290935F0680935E060E94AD021C
:1028B0008091500681112EC081E080935006809156
:1028C000510690915206A0915306B091540601977B
:1028D000A105B105F9F4809155068823D9F06BE084
:1028E00070E080E090E00E94180290935706809379
:1028F000560640E050E0BA010E94E1016BE070E052
:1029000080E090E00E94180290935706809356064C
:102910000E94AD028091680681112EC081E08093F3
:1029200068068091690690916A06A0916B06B09145
:102930006C060197A105B105F9F480916D06882315
:10294000D9F068E070E080E090E00E941802909377
:102950006F0680936E0640E050E0BA010E94E101EC
:1029600068E070E080E090E00E94180290936F06AB
:1029700080936E060E94AD028091600681112EC088
:1029800081E0809360068091610690916206A0913B
:102990006306B09164060197A105B105F9F4809131
:1029A00065068823D9F069E070E080E090E00E943D
:1029B0001802909367068093660640E050E0BA01E3
:1029C0000E94E10169E070E080E090E00E9418025E
:1029D00090936706809366060E94AD028091800600
:1029E000811103C081E08093800680917806811177
:1029F00003C081E08093780680917006811103C046
:102A000081E080937006089560E070E080E89FE7C1
:102A1000089560E070E080E89FE7089560E070E06E
:102A200080E89FEF089560E070E080E89FEF0895F0
:102A300060E070E080EC9FEF089560E070E080EC73
:102A40009FEF0895F5DF6093E3067093E4068093AB
:102A5000E5069093E606F1DF6093D7067093D806FB
:102A60008093D9069093DA06CFDF6093DF067093E8
:102A7000E0068093E1069093E206CBDF6093DB06ED
:102A80007093DC068093DD069093DE06C7DF6093CB
:102A9000E7067093E8068093E9069093EA06C3DFA1
:102AA0006093EB067093EC068093ED069093EE0630
:102AB0000895CF92DF92EF92FF92CF936B017C014A
:102AC000AC019B016091DF067091E0068091E10608
:102AD0009091E2068DD3C1E0882369F0A7019601A9
:102AE0006091E7067091E8068091E9069091EA0608
:102AF0007FD38111C0E08C2FCF91FF90EF90DF90BA
:102B0000CF9008950F931F938B019C0100271127ED
:102B100020783F770115110520483F4749F4AB0164
:102B2000BC016F77772781E0452B462B472B09F4B3
:102B300080E01F910F910895E5CFCF93DF938091AF
:102B40006803909169030E94CB1FEC0180916A0396
:102B500090916B030E94CB1F0197C1F480916C038D
:102B600090916D03A0916E03B0916F032197C1F412
:102B70000196A11DB11D80936C0390936D03A093EA
:102B80006E03B0936F03DF91CF91089580916C0332
:102B900090916D03A0916E03B0916F03CD2B41F323
:102BA0000197A109B109E7CFCF93DF938091720319
:102BB000909173030E94CB1FEC018091740390915C
:102BC00075030E94CB1F0197C1F480917603909109
:102BD0007703A0917803B09179032197C1F401960E
:102BE000A11DB11D8093760390937703A093780382
:102BF000B0937903DF91CF910895809176039091FE
:102C00007703A0917803B0917903CD2B41F301971D
:102C1000A109B109E7CFCF93DF938091740390911D
:102C200075030E94CB1FEC01809172039091730396
:102C30000E94CB1F0197C1F4809176039091770396
:102C4000A0917803B0917903CD2BC1F40196A11D19
:102C5000B11D8093760390937703A0937803B0938C
:102C60007903DF91CF910895809176039091770356
:102C7000A0917803B0917903219741F30197A109BD
:102C8000B109E7CFCF93DF9380916A0390916B03F3
:102C90000E94CB1FEC0180916803909169030E9410
:102CA000CB1F0197C1F480916C0390916D03A091AB
:102CB0006E03B0916F03CD2BC1F40196A11DB11D20
:102CC00080936C0390936D03A0936E03B0936F0396
:102CD000DF91CF91089580916C0390916D03A09145
:102CE0006E03B0916F03219741F30197A109B109D8
:102CF000E7CF02978431910540F4835D9C4FFC013E
:102D00008081082E000C990B08958FEF9FEF089596
:102D10000F931F93CF93DF93CDB7DEB78C0120E0E5
:102D200030E040E85FE3FB01608171818281938143
:102D30005FD2811119C080916C0390916D03A091B5
:102D40006E03B0916F03F80180839183A283B383F4
:102D50008091760390917703A0917803B0917903E5
:102D600084839583A683B783DF91CF911F910F91C1
:102D700008958F929F92AF92BF92CF92DF92EF927F
:102D8000FF920F931F93CF93DF93CDB7DEB77B01F5
:102D90005A0120E030E040E85FE3FB01608171818F
:102DA0008281938125D2882309F48BC0F50180812B
:102DB00090E09093690380936803F801808190E02C
:102DC00090936B0380936A03F60160817181828125
:102DD00093817DD27093730360937203F4016081D9
:102DE00071818281938173D27093750360937403B0
:102DF000809168039091690360E00E94621F809156
:102E00006A0390916B0360E00E94621F80917203DD
:102E10009091730360E00E94621F8091740390910F
:102E2000750360E00E94621F8091680390916903BE
:102E300061E00E949E1F80916A0390916B0361E0A4
:102E40000E949E1F809172039091730361E00E9423
:102E50009E1F809174039091750361E00E949E1FF4
:102E6000809168039091690344DF41E050E062E49F
:102E700076E14ED480916A0390916B033ADF41E092
:102E800050E06DE975E144D4809172039091730331
:102E900030DF41E050E06BE076E13AD4809174039A
:102EA0009091750326DF41E050E064ED75E130D488
:102EB00080E090E0A0E8BFE3F70180839183A283E4
:102EC000B383DF91CF911F910F91FF90EF90DF902F
:102ED000CF90BF90AF909F908F90089540E855E2BB
:102EE00060E070E090E080E000C08130910579F012
:102EF0001CF4892B39F008958230910561F0039715
:102F000071F0089526E088E893E00C94BD2026E057
:102F100085E294E0FACF26E082EC94E0F6CF26E05A
:102F20008FE595E0F2CF1F920F920FB60F9211240A
:102F30000BB60F922F933F934F935F936F937F93B3
:102F40008F939F93AF93BF93EF93FF938FE89DEF82
:102F5000909325018093240134D0FF91EF91BF918C
:102F6000AF919F918F917F916F915F914F913F9121
:102F70002F910F900BBE0F900FBE0F901F901895C2
:102F80008FE89DEF9093250180932401A3E7B0E0A3
:102F90008C918E7F8C93E0E2F1E080818C7F808346
:102FA000E1E2F1E08081877E80838081846080839C
:102FB00080818C7F80838C9181608C93089581E0E7
:102FC000089580917C0391E0980F90937C0388236F
:102FD00049F021E030E030937E0320937D0380931D
:102FE0007C03089578940E94A504F89480917C0352
:102FF0008150F5CFCF93DF931092F0061092EF0639
:10300000A2D56CDFC0912B03D0912C0319821882BA
:1030100044DAF894B5DF2881398181E0232B09F067
:1030200080E08093EF06789478948091EF06811188
:1030300007C0C6DBF89490E080E0DF91CF9108955F
:103040002881398181E0232B09F480E08093F00608
:103050009091F00681E0911180E08093EF06AFDF60
:10306000E4CF5058BB27AA270ED027C2F0D130F0AA
:10307000F5D120F031F49F3F11F41EF4C0C10EF4DD
:10308000E095E7FBB6C1E92F3AD280F3BA176207A1
:1030900073078407950718F071F49EF552C20EF479
:1030A000E0950B2EBA2FA02D0B01B90190010C0158
:1030B000CA01A0011124FF27591B99F0593F50F470
:1030C000503E68F11A16F040A22F232F342F4427C8
:1030D000585FF3CF469537952795A795F0405395C0
:1030E000C9F77EF41F16BA0B620B730B840BBAF090
:1030F0009150A1F0FF0FBB1F661F771F881FC2F7FB
:103100000EC0BA0F621F731F841F48F4879577950E
:103110006795B795F7959E3F08F0B3CF9395880FC5
:1031200008F09927EE0F97958795089590D158F05C
:1031300080E891E009F49EEF91D128F040E851E059
:1031400059F45EEF09C05BC1FCC1E92FE078D7D12B
:1031500068F3092E052AC1F32617370748075907D0
:1031600038F00E2E07F8E02569F0E025E0640AC08B
:10317000EF6307F8009407FADB01B9019D01DC0158
:10318000CA01AD01EF934AD098D10AD05F9155237F
:1031900031F02BED3FE049E450FD49EC63CF089559
:1031A000DF93DD27B92FBF7740E85FE316161706D8
:1031B00048075B0710F4D92FCFD19F938F937F934C
:1031C0006F937CD2E4EEF0E01DD177D12F913F9147
:1031D0004F915F91D4D1DD2349F09058A2EA2AEDB6
:1031E0003FE049EC5FE3D0785D274DDFDF9165C1BB
:1031F000DCD008F481E0089539D1E3956FC10CD09B
:103200005CC12CD140F023D130F021F45F3F19F0A4
:10321000F0C0511197C1F3C072D198F39923C9F34B
:103220005523B1F3951B550BBB27AA2762177307CC
:10323000840738F09F5F5F4F220F331F441FAA1F80
:10324000A9F333D00E2E3AF0E0E830D09150504040
:10325000E695001CCAF729D0FE2F27D0660F771FEE
:10326000881FBB1F261737074807AB07B0E809F0D0
:10327000BB0B802DBF01FF2793585F4F2AF09E3F65
:10328000510568F0B6C05EC15F3FECF3983EDCF3D9
:10329000869577956795B795F7959F5FC9F7880FDE
:1032A000911D9695879597F90895E1E0660F771F30
:1032B000881FBB1F621773078407BA0720F0621BC1
:1032C000730B840BBA0BEE1F88F7E095089504D0BA
:1032D0006894B11137C108951AD188F09F5790F0C2
:1032E000B92F9927B751A0F0D1F0660F771F881F2B
:1032F000991F1AF0BA95C9F712C0B13081F021D1E7
:10330000B1E008951EC1672F782F8827B85F39F084
:10331000B93FCCF3869577956795B395D9F73EF489
:1033200090958095709561957F4F8F4F9F4F089531
:10333000E89409C097FB3EF490958095709561954F
:103340007F4F8F4F9F4F9923A9F0F92F96E9BB2705
:103350009395F695879577956795B795F111F8CF81
:10336000FAF4BB0F11F460FF1BC06F5F7F4F8F4FEC
:103370009F4F16C0882311F096E911C0772321F0E2
:103380009EE8872F762F05C0662371F096E8862F7A
:1033900070E060E02AF09A95660F771F881FDAF7D1
:1033A000880F9695879597F90895990F0008550FFE
:1033B000AA0BE0E8FEEF16161706E807F907C0F0BB
:1033C00012161306E407F50798F0621B730B840BC3
:1033D000950B39F40A2661F0232B242B252B21F49D
:1033E00008950A2609F4A140A6958FEF811D811D3D
:1033F000089597F99F6780E870E060E008959FEF77
:1034000080EC0895DF93CF931F930F93FF92EF9279
:10341000DF927B018C01689405C0DA2EEF01AFD0FA
:10342000FE01E894A5912591359145915591AEF312
:10343000EF0129DEFE019701A801DA9479F7DF9008
:10344000EF90FF900F911F91CF91DF91089500248D
:103450000A941616170618060906089500240A94F9
:1034600012161306140605060895C9CF50D0E8F3C6
:10347000E894E0E0BB279F57F0F02AED3FE049ECED
:1034800006C0EE0FBB0F661F771F881F28F0B23AE9
:1034900062077307840728F0B25A620B730B840B20
:1034A000E3959A9572F7803830F49A95BB0F661FB2
:1034B000771F881FD2F7904806C1092E0394000C8D
:1034C00011F4882352F0BB0F40F4BF2B11F460FFBE
:1034D00004C06F5F7F4F8F4F9F4F0895EF93E0FFC2
:1034E00006C0A2EA2AED3FE049EC5FEBCCDDE5DF68
:1034F0000F90039401FC9058E1E1F1E0F7C057FD13
:103500009058440F551F59F05F3F71F04795880F51
:1035100097FB991F61F09F3F79F0879508951216E8
:1035200013061406551FF2CF4695F1DF08C0161694
:1035300017061806991FF1CF869571056105089445
:103540000895E894BB2766277727CB0197F908955C
:103550002CDF08F48FEF08959B01AC0160E070E070
:1035600080E89FE34CCE0BD0A8CF71DF28F076DF48
:1035700018F0952309F03DCF42CF1124E3CFBFDFF0
:10358000A0F3959FD1F3950F50E0551F629FF00176
:10359000729FBB27F00DB11D639FAA27F00DB11DCF
:1035A000AA1F649F6627B00DA11D661F829F222758
:1035B000B00DA11D621F739FB00DA11D621F839FDF
:1035C000A00D611D221F749F3327A00D611D231FB5
:1035D000849F600D211D822F762F6A2F11249F5703
:1035E00050408AF0E1F088234AF0EE0FFF1FBB1F26
:1035F000661F771F881F91505040A9F79E3F5105C5
:1036000070F0F7CE9FCF5F3FECF3983EDCF38695EA
:1036100077956795B795F795E7959F5FC1F7FE2B6F
:10362000880F911D9695879597F908959F931EDFB2
:103630000F9007FCEE5F52CF11F40EF4E0CE41C0C4
:1036400066DFD0F39923D9F3CEF39F57550B87FF4D
:1036500046D00024A0E640EA900180585695979500
:1036600028F4805C660F771F881F20F02617370725
:10367000480730F4621B730B840B202931294A2B35
:10368000A69517940794202531254A2758F7660FE9
:10369000771F881F20F026173707480730F4620B82
:1036A000730B840B200D311D411DA09581F7B901CD
:1036B000842F9158880F9695879508959B01AC01AA
:1036C00052CF9F3F31F0915020F4879577956795C1
:1036D000B795880F911D9695879597F90895915004
:1036E0005040660F771F881FD2F708959F938F93DE
:1036F0007F936F93FF93EF939B01AC0134DFEF91C6
:10370000FF9180DE2F913F914F915F912CCF0895D3
:10371000883008F075C0E82FF0E0EE0FFF1FE65E7E
:10372000FC4F718360838150873008F03CC0E82FE4
:10373000F0E08827E256F44E8F4FFEC7DB1BA51B37
:10374000AD1BB91BC61BE71BF41B809169008C7F66
:10375000482B40936900E89A089580916900837F1F
:10376000440F551F440F551F482B40936900E99A99
:103770000895809169008F7C74E0440F551F7A95FD
:10378000E1F7482B40936900EA9A08958091690017
:103790008F7366E0440F551F6A95E1F7482B4093FD
:1037A0006900EB9A089580916A008C7F482B4093C2
:1037B0006A00EC9A089580916A00837F440F551F38
:1037C000440F551F482B40936A00ED9A089580914D
:1037D0006A008F7C24E0440F551F2A95E1F7482B9F
:1037E00040936A00EE9A089580916A008F7396E084
:1037F000440F551F9A95E1F7482B40936A00EF9AC2
:1038000008951F920F920FB60F9211240BB60F92CC
:103810002F933F934F935F936F937F938F939F93D8
:10382000AF93BF93EF93FF93E0911E03F0911F03BB
:103830001995FF91EF91BF91AF919F918F917F91DA
:103840006F915F914F913F912F910F900BBE0F9011
:103850000FBE0F901F9018951F920F920FB60F92E8
:1038600011240BB60F922F933F934F935F936F9357
:103870007F938F939F93AF93BF93EF93FF93E091C9
:103880002003F09121031995FF91EF91BF91AF9122
:103890009F918F917F916F915F914F913F912F9168
:1038A0000F900BBE0F900FBE0F901F9018951F9298
:1038B0000F920FB60F9211240BB60F922F933F93D6
:1038C0004F935F936F937F938F939F93AF93BF9328
:1038D000EF93FF93E0912203F09123031995FF9159
:1038E000EF91BF91AF919F918F917F916F915F9178
:1038F0004F913F912F910F900BBE0F900FBE0F90E5
:103900001F9018951F920F920FB60F9211240BB6AD
:103910000F922F933F934F935F936F937F938F9368
:103920009F93AF93BF93EF93FF93E0912403F091A4
:1039300025031995FF91EF91BF91AF919F918F91C1
:103940007F916F915F914F913F912F910F900BBE9F
:103950000F900FBE0F901F9018951F920F920FB6E9
:103960000F9211240BB60F922F933F934F935F93B7
:103970006F937F938F939F93AF93BF93EF93FF9337
:10398000E0911A03F0911B031995FF91EF91BF91FC
:10399000AF919F918F917F916F915F914F913F91E7
:1039A0002F910F900BBE0F900FBE0F901F90189588
:1039B0001F920F920FB60F9211240BB60F922F93F6
:1039C0003F934F935F936F937F938F939F93AF93A7
:1039D000BF93EF93FF93E0911C03F0911D031995A2
:1039E000FF91EF91BF91AF919F918F917F916F91D7
:1039F0005F914F913F912F910F900BBE0F900FBE93
:103A00000F901F9018951F920F920FB60F921124CE
:103A10000BB60F922F933F934F935F936F937F93C8
:103A20008F939F93AF93BF93EF93FF93E091260300
:103A3000F09127031995FF91EF91BF91AF919F915D
:103A40008F917F916F915F914F913F912F910F9047
:103A50000BBE0F900FBE0F901F9018951F920F92E4
:103A60000FB60F9211240BB60F922F933F934F93E3
:103A70005F936F937F938F939F93AF93BF93EF93D6
:103A8000FF93E0912803F09129031995FF91EF919D
:103A9000BF91AF919F918F917F916F915F914F9166
:103AA0003F912F910F900BBE0F900FBE0F901F9064
:103AB00018951F920F920FB60F9211242F933F93D8
:103AC0008F939F93AF93BF938091800390918103D5
:103AD000A0918203B091830330917F0323E0230FF1
:103AE0002D3758F50196A11DB11D20937F038093BA
:103AF000800390938103A0938203B093830380910A
:103B0000840390918503A0918603B0918703019669
:103B1000A11DB11D8093840390938503A093860318
:103B2000B0938703BF91AF919F918F913F912F9158
:103B30000F900FBE0F901F90189526E8230F029646
:103B4000A11DB11DD2CF789484B5826084BD84B5A7
:103B5000816084BD85B5826085BD85B5816085BD88
:103B6000EEE6F0E0808181608083E1E8F0E01082A1
:103B7000808182608083808181608083E0E8F0E0E2
:103B8000808181608083E1EBF0E0808184608083CC
:103B9000E0EBF0E0808181608083E1E9F0E080810A
:103BA00082608083808181608083E0E9F0E08081B1
:103BB00081608083E1EAF0E080818260808380819F
:103BC00081608083E0EAF0E0808181608083E1E2CF
:103BD000F1E0808182608083808181608083E0E287
:103BE000F1E0808181608083EAE7F0E08081846099
:103BF00080838081826080838081816080838081F6
:103C0000806880831092C1000895863308F086533F
:103C100020917B00982F9870277F922B90937B00A8
:103C200020912A0390E4299F900111248770822B10
:103C300080937C0080917A00806480937A008091E8
:103C40007A0086FDFCCF80917800909179000895EC
:103C50001F93CF93DF93182FEB0161E033D12097AF
:103C600031F460E0812FDF91CF911F9167C1CF3F89
:103C7000D10511F461E0F6CFE12FF0E0E05DFE4FF9
:103C8000E491E150E23108F0B2C0F0E08827E55B52
:103C9000F14E8F4F51C55D1E651E6A1E741E7E1E3D
:103CA000F71E881E901E981EA21EAC1EB61EC51EB4
:103CB000CF1EF71ED91EE31EED1E84B5806884BD9D
:103CC000C7BDDF91CF911F91089584B5806284BDF7
:103CD000C8BDF7CF80918000806880938000D0932A
:103CE0008900C0938800EDCF80918000806280932E
:103CF0008000D0938B00C0938A00E3CF8091800036
:103D0000886080938000D0938D00C0938C00D9CFC1
:103D10008091B00080688093B000C093B300D1CF91
:103D20008091B00080628093B000C093B400C9CF8E
:103D300080919000806880939000D0939900C09308
:103D40009800BFCF80919000806280939000D093C4
:103D50009B00C0939A00B5CF8091900088608093BB
:103D60009000D0939D00C0939C00ABCF8091A000A9
:103D700080688093A0008091A0008F7B8093A0003A
:103D8000D093A900C093A8009CCF8091A00080622E
:103D90008093A000D093AB00C093AA0092CF8091F3
:103DA000A00088608093A000D093AD00C093AC00C9
:103DB00088CF80912001806880932001D0932901D1
:103DC000C09328017ECF80912001806280932001E2
:103DD000D0932B01C0932A0174CF80912001886079
:103DE00080932001D0932D01C0932C016ACFC0385D
:103DF000D1050CF03FCF35CF8150823108F059C04A
:103E0000E82FF0E08827E95FF04E8F4F95C4271F19
:103E10002B1F191F1F1F231F591F2E1F341F381F31
:103E20003E1F421F461F4C1F501F591F541F5A1F31
:103E30005E1F809180008F7780938000089580912D
:103E400080008F7DF9CF80918000877FF5CF84B58A
:103E50008F7784BD089584B58F7DFBCF8091B000AE
:103E60008F778093B00008958091B0008F7DF9CF57
:103E7000809190008F7780939000089580919000BA
:103E80008F7DF9CF80919000877FF5CF8091A00042
:103E90008F778093A00008958091A0008F7DF9CF47
:103EA0008091A000877FF5CF809120018F7780934C
:103EB00020010895809120018F7DF9CF809120010C
:103EC000877FF5CFCF93DF9390E0FC01EA58FE4F58
:103ED000249184549E4FFC0184918823C9F090E082
:103EE000880F991FFC01EA5CFD4FA591B491FC017C
:103EF000E45EFD4FC591D49161110DC09FB7F89458
:103F00008C91209582238C938881282328839FBFBE
:103F1000DF91CF910895623051F49FB7F8943C91AE
:103F2000822F809583238C93E8812E2BEFCF8FB740
:103F3000F894EC912E2B2C938FBFEACF1F93CF9345
:103F4000DF93282F30E0F901E05DFE4F8491F90105
:103F5000EA58FE4FD491F901E454FE4FC491CC23AA
:103F6000A1F0162F811148DFEC2FF0E0EE0FFF1FBC
:103F7000E45EFD4FA591B4918FB7F894EC911111C7
:103F800008C0D095DE23DC938FBFDF91CF911F91C6
:103F90000895DE2BF8CFCF93DF93282F30E0F9017F
:103FA000E05DFE4F8491F901EA58FE4FD491F9018A
:103FB000E454FE4FC491CC2399F081111DDFEC2F06
:103FC000F0E0EE0FFF1FEE5FFD4FA591B491EC9175
:103FD000ED2381E090E009F480E0DF91CF91089536
:103FE00080E090E0FACFFC01918D228D892F90E046
:103FF000805C9F4F821B91098F7399270895FC0164
:10400000918D828D981731F0828DE80FF11D858D8D
:1040100090E008958FEF9FEF0895FC01918D828DC0
:10402000981761F0A28DAE0FBF2FB11D5D968C91D8
:10403000928D9F5F9F73928F90E008958FEF9FEF17
:104040000895FC01538D448D252F30E0842F90E09E
:10405000821B930B541710F0CF9608950197089583
:10406000FC01A48DA80FB92FB11DA35ABF4F2C91ED
:10407000848D90E001968F739927848FA689B789E4
:104080002C93A089B1898C91837080648C93938DDB
:10409000848D981306C00288F389E02D80818F7D7E
:1040A00080830895CF93DF93EC01888D8823B1F04E
:1040B000AA89BB89E889F9898C9185FD03C0808133
:1040C00086FD0CC00FB607FCF7CF8C9185FFF2CFB1
:1040D000808185FFEDCFCE01C3DFEACFDF91CF91A5
:1040E0000895EF92FF920F931F93CF93DF93EC010C
:1040F00081E0888F9B8D8C8D98131AC0E889F9898F
:10410000808185FF15C09FB7F894EE89FF89608391
:10411000E889F98980818370806480839FBF81E012
:1041200090E0DF91CF911F910F91FF90EF90089554
:10413000F62E0B8D10E00F5F1F4F0F731127E02E2F
:104140008C8D8E110BC00FB607FCFACFE889F98968
:10415000808185FFF5CFCE0183DFF2CFEB8DEC0FB1
:10416000FD2FF11DE35AFF4FF0829FB7F8940B8F9C
:10417000EA89FB8980818062D0CFCF92DF92EF9273
:10418000FF921F93CF93DF93EC016A017B01122F03
:10419000E889F98982E08083C11481EED806E104C0
:1041A000F10499F060E079E08DE390E0A7019601D9
:1041B000A1D22150310941095109569547953795AA
:1041C0002795211580E1380790F0E889F989108258
:1041D00060E874E88EE190E0A70196018BD221504F
:1041E0003109410951095695479537952795EC8531
:1041F000FD853083EE85FF852083188EEC89FD894F
:104200001083EA89FB89808180618083EA89FB8948
:10421000808188608083EA89FB89808180688083CF
:10422000EA89FB8980818F7D8083DF91CF911F9107
:10423000FF90EF90DF90CF9008951F920F920FB6EE
:104240000F9211240BB60F922F938F939F93EF939E
:10425000FF93E0919803F09199038081E0919E0390
:10426000F0919F0382FD1DC090818091A1038F5F1B
:104270008F732091A203821741F0E091A103F0E037
:10428000E857FC4F958F8093A103FF91EF919F9189
:104290008F912F910F900BBE0F900FBE0F901F901C
:1042A00018958081F2CF1F920F920FB60F921124B2
:1042B0000BB60F922F933F934F935F936F937F9320
:1042C0008F939F93AF93BF93EF93FF9388E893E00F
:1042D000C7DEFF91EF91BF91AF919F918F917F9139
:1042E0006F915F914F913F912F910F900BBE0F9067
:1042F0000FBE0F901F901895E8E8F3E0138212822A
:1043000088EE93E0A0E0B0E084839583A683B78332
:1043100085E493E09183808385EC90E095878487A2
:1043200084EC90E09787868780EC90E0918B808B7F
:1043300081EC90E0938B828B82EC90E0958B848B68
:1043400086EC90E0978B868B118E128E138E148ED6
:1043500008951F920F920FB60F9211240BB60F9271
:104360002F938F939F93EF93FF93E0913504F091F8
:1043700036048081E0913B04F0913C0482FD1DC035
:10438000908180913E048F5F8F7320913F0482174C
:1043900041F0E0913E04F0E0EB5DFB4F958F8093A0
:1043A0003E04FF91EF919F918F912F910F900BBE43
:1043B0000F900FBE0F901F9018958081F2CF1F9223
:1043C0000F920FB60F9211240BB60F922F933F93BB
:1043D0004F935F936F937F938F939F93AF93BF930D
:1043E000EF93FF9385E294E03BDEFF91EF91BF9165
:1043F000AF919F918F917F916F915F914F913F917D
:104400002F910F900BBE0F900FBE0F901F9018951D
:10441000E5E2F4E01382128288EE93E0A0E0B0E0DF
:1044200084839583A683B78385E493E09183808317
:104430008DEC90E0958784878CEC90E09787868759
:1044400088EC90E0918B808B89EC90E0938B828B51
:104450008AEC90E0958B848B8EEC90E0978B868B2A
:10446000118E128E138E148E08951F920F920FB616
:104470000F9211240BB60F922F938F939F93EF936C
:10448000FF93E091D204F091D3048081E091D804AD
:10449000F091D90482FD1DC090818091DB048F5F73
:1044A0008F732091DC04821741F0E091DB04F0E08F
:1044B000EE53FB4F958F8093DB04FF91EF919F911B
:1044C0008F912F910F900BBE0F900FBE0F901F90EA
:1044D00018958081F2CF1F920F920FB60F92112480
:1044E0000BB60F922F933F934F935F936F937F93EE
:1044F0008F939F93AF93BF93EF93FF9382EC94E0DE
:10450000AFDDFF91EF91BF91AF919F918F917F911F
:104510006F915F914F913F912F910F900BBE0F9034
:104520000FBE0F901F901895E2ECF4E013821282F8
:1045300088EE93E0A0E0B0E084839583A683B78300
:1045400085E493E09183808385ED90E0958784876F
:1045500084ED90E09787868780ED90E0918B808B4B
:1045600081ED90E0938B828B82ED90E0958B848B34
:1045700086ED90E0978B868B118E128E138E148EA3
:1045800008951F920F920FB60F9211240BB60F923F
:104590002F938F939F93EF93FF93E0916F05F0918B
:1045A00070058081E0917505F091760582FD1DC052
:1045B0009081809178058F5F8F73209179058217A4
:1045C00041F0E0917805F0E0E15AFA4F958F809341
:1045D0007805FF91EF919F918F912F910F900BBED6
:1045E0000F900FBE0F901F9018958081F2CF1F92F1
:1045F0000F920FB60F9211240BB60F922F933F9389
:104600004F935F936F937F938F939F93AF93BF93DA
:10461000EF93FF938FE595E023DDFF91EF91BF913D
:10462000AF919F918F917F916F915F914F913F914A
:104630002F910F900BBE0F900FBE0F901F901895EB
:10464000EFE5F5E01382128288EE93E0A0E0B0E09F
:1046500084839583A683B78385E493E091838083E5
:1046600085E391E09587848784E391E09787868747
:1046700080E391E0918B808B81E391E0938B828B3F
:1046800082E391E0958B848B86E391E0978B868B18
:10469000118E128E138E148E0895AF92BF92CF9208
:1046A000DF92EF92FF920F931F93CF93DF936C01F2
:1046B0007B018B01040F151FEB015E01AE18BF08D3
:1046C000C017D10759F06991D601ED91FC91019085
:1046D000F081E02DC6011995892B79F7C501DF918D
:1046E000CF911F910F91FF90EF90DF90CF90BF90EF
:1046F000AF900895A1E21A2EAA1BBB1BFD010DC0AD
:10470000AA1FBB1FEE1FFF1FA217B307E407F50781
:1047100020F0A21BB30BE40BF50B661F771F881F5D
:10472000991F1A9469F760957095809590959B01F3
:10473000AC01BD01CF010895EE0FFF1F881F8BBF95
:0C4740000790F691E02D1994F894FFCF3B
:10474C0000000000000000005577F5445577F54453
:10475C000626E63C000000000000000000000000FF
:10476C000000000000000000000000000000C84233
:10477C000000C842AA98A43FFA98AE42FA98AE42FA
:10478C000AD7233C0AD7233C9A9959409A99594005
:10479C003333B33F3333B33F0000404033337340C4
:1047AC003333734000000000EC5138C1EC5138C178
:1047BC00000060C1000060C1000070C1000088C131
:1047CC000000803F0000803FCDCCCCBDCDCCCC3D9B
:1047DC000000003F0000A0C00000003F0000A0400F
:1047EC000AD7233C0000000000000000000000007D
:1047FC0000009041000098417C2625390000C842F9
:10480C000AD7233C000000000AD7233C0AD7233CDC
:10481C00000080BF00007F430000000000007F43C9
:10482C00000000000AD7233C0AD7233C000080BFBD
:10483C0000007F430000000000007F4300000000E8
:10484C000000803F0000803F000048420000A04074
:10485C0000000000CDCCCDCC0203871B871B871B2F
:10486C00871B871B871B871B871B0166030001FFA8
:10487C00FFFFFFFFFFFFFFFFFFFFFFFFFF0504032D
:10488C00020000000071204D2321205220F31F0D47
:04489C0020FF1F00DA
:00000001FF
