:100000002BC100000C94791A0C94A41A0C94CF1AEA
:100010000C94FA1A0C94251B0C94501B0C947B1B0B
:100020000C94A61B4AC1000048C1000046C1000054
:1000300044C1000042C1000040C100003EC10000B8
:100040003CC100003AC1000038C1000036C10000C8
:1000500034C1000032C1000030C100000C94D11B3B
:100060002CC100000C94951F0C94CB1F26C10000DE
:1000700024C1000022C1000020C100001EC10000F8
:100080001CC100001AC1000018C1000016C1000008
:100090000C9421200C94572010C100000EC10000C8
:1000A0000CC100000AC1000008C1000006C1000028
:1000B00004C1000002C1000000C10000FEC0000039
:1000C000FCC00000FAC000000C94D4150C94AD20C4
:1000D0000C94E320F2C000000C9439210C946F21A1
:1000E000ECC00000084AD73B3BCE016E84BCBFFD8C
:1000F000C12F3D6C74319ABD56833DDA3D00C77FF8
:1001000011BED9E4BB4C3E916BAAAABE0000008090
:100110003F05A84CCDB2D44EB93836A9020C50B91F
:10012000918688083CA6AAAA2ABE000000803F004B
:1001300000000A0B02090C0D0E0807030401000061
:1001400000000000000000000000000000000000AF
:10015000000000000000000000000000121110006C
:10016000000000000000000000000000000000008F
:1001700000000000000001021020200808102040AC
:10018000102040800201020108040201010204085B
:1001900010204080804020100804020180040201E9
:1001A0008040201008040201080402010102040832
:1001B000102040800102040810204080050505053C
:1001C000070508080808020202020A0A08080404CF
:1001D00004040101010101010101030303030303FD
:1001E0000303040707070C0C0C0C0C0C0C0C02028C
:1001F000020206060606060606060B0B0B0B0B0B89
:100200000B0B000020002300260029002C002F00EB
:100210003200000100000301060109010000220074
:10022000250028002B002E003100340002010000C0
:10023000050108010B0100002100240027002A000D
:100240002D003000330001010000040107010A0104
:10025000F41F80200C21982111241FBECFEFD1E282
:10026000DEBFCDBF00E00CBF13E0A0E0B2E0ECE8E1
:10027000F4E400E00BBF02C007900D92A232B10778
:10028000D9F726E0A2E2B3E001C01D92AD38B20773
:10029000E1F711E0CCE2D1E000E006C021970109CE
:1002A000802FFE010E942322C832D10780E0080778
:1002B000A9F70E943B160C944422A2CECF92DF9263
:1002C000EF92FF92CF93882351F16A017B01CFEF28
:1002D000C80F20E030E0A901CB01B6010E94391718
:1002E00087FF11C0C701B60190580E94AD179B014E
:1002F000AC016C2F70E090E080E0CF91FF90EF9028
:10030000DF90CF90B2C0C701B6010E94A8178C2F12
:10031000CF91FF90EF90DF90CF900C94A01CCF91E5
:10032000FF90EF90DF90CF9008950F931F938B0174
:100330009C0183E036952795179507958A95D1F707
:100340000E5D1C4F462F477021E030E0F90102C0DE
:10035000EE0FFF1F4A95E2F7AF01F8012081242339
:10036000CB010196211102C090E080E01F910F9116
:1003700008950F931F938B019C0183E03695279579
:10038000179507958A95D1F7677081E090E001C0D5
:10039000880F6A95EAF7F801EE5DFC4F2081452B46
:1003A00031F48095822380831F910F910895822BD1
:1003B000FACF2F923F924F925F926F927F928F92DD
:1003C0009F92AF92BF92CF92DF92EF92FF920F93E4
:1003D0001F93CF93DF93D62EC72E782E692E490117
:1003E0005A01280161E08D2D0E94DA1DCD2DDC2DF2
:1003F0008E010F5F1F4FA8016D2D7C2D872D962D2F
:10040000B8DF20E030E0A901C201B7010E94E9187D
:10041000181664F4C201B7010E94AD172B01C50183
:10042000B4010E94AD17A201CE0123D0C801DF9113
:10043000CF911F910F91FF90EF90DF90CF90BF90E1
:10044000AF909F908F907F906F905F904F903F9074
:100450002F900895882341F08150682F70E090E03C
:1004600080E050E040E085CF0895862FB9010C94DC
:10047000A01C9C01FC01E05DFE4FE491E150E231E3
:10048000E0F4F0E08827E85BFD4F8F4F0C942322C7
:100490005A02610264027B0290025D02A502B1026F
:1004A000B502CC02E102F6020D0322035D0237031E
:1004B0004E03630384B5806884BD60E0822F0C9492
:1004C000161E84B58062F8CF809180008C7F826098
:1004D0008093800080918100807E8061682B609392
:1004E000810050938700409386008091800080684F
:1004F00080938000E2CF809180008C7F8260809327
:10050000800080918100807E8061682B60938100F3
:100510005093870040938600809180008062E8CFEE
:10052000809180008C7F8260809380008091810028
:10053000807E8061682B6093810050938700409398
:100540008600809180008860D3CF8091B000806861
:100550008093B0008091B100887F682B6093B100D8
:10056000ACCF8091B0008062F3CF809190008C7FFF
:1005700082608093900080919100807E8061682BE2
:100580006093910050939700409396008091900063
:1005900080688093900091CF809190008C7F8260E2
:1005A0008093900080919100807E8061682B6093A1
:1005B0009100509397004093960080919000806244
:1005C000E8CF809190008C7F826080939000809132
:1005D0009100807E8061682B60939100509397001A
:1005E00040939600809190008860D3CF8091A000C6
:1005F0008C7F82608093A0008091A100807E8061CA
:10060000682B6093A1005093A7004093A6008091AF
:10061000A00080688093A00050CF8091A0008C7FC4
:1006200082608093A0008091A100807E8061682B11
:100630006093A1005093A7004093A6008091A00072
:100640008062E8CF8091A0008C7F82608093A000C0
:100650008091A100807E8061682B6093A1005093FF
:10066000A7004093A6008091A0008860D3CF80911E
:1006700020018C7F82608093200180912101807E07
:100680008061682B609321015093270140932601DC
:10069000809120018068809320010FCF80912001FC
:1006A0008C7F82608093200180912101807E806117
:1006B000682B60932101509327014093260180917C
:1006C00020018062E8CF809120018C7F826080933E
:1006D000200180912101807E8061682B609321013F
:1006E0005093270140932601809120018860D3CF49
:1006F000CF93DF93882349F0EB0181500E947D1C4A
:1007000099838883DF91CF910895FB011182108234
:10071000F9CF0F931F938B019C0183E036952795AA
:10072000179507958A95D1F7055D1C4F462F4770A1
:1007300021E030E0F90102C0EE0FFF1F4A95E2F719
:10074000AF01F80120812423CB010196211102C0C1
:1007500090E080E01F910F9108950F931F938B01FC
:100760009C0183E036952795179507958A95D1F7D3
:10077000677081E090E001C0880F6A95EAF7F801A0
:10078000E55DFC4F2081452B31F4809582238083E9
:100790001F910F910895822BFACFCF92DF92EF92A3
:1007A000FF92CF93DF936B017C0160E086E3C81674
:1007B000D104E104F10490F486E38C0D0E94DA1D6B
:1007C000E6012196AE01C701B601C7DFCE01DF9178
:1007D000CF91FF90EF90DF90CF9008958C2DEECFCA
:1007E000882341F08150682F70E090E080E050E075
:1007F00040E0B3CF08952F923F924F925F926F9255
:100800007F928F929F92AF92BF92CF92DF92EF92A0
:10081000FF920F931F93CF93DF93CDB7DEB7E5978A
:100820000FB6F894DEBF0FBECDBF7FA76EA748AB53
:1008300059AB3DA72CA71DAB0CABFE86ED861BABC1
:100840000AABD80130E020E08D849E84281539055C
:1008500014F18F83988710E000E08EA49FA4081500
:10086000190504F1E5960FB6F894DEBF0FBECDBFB3
:10087000DF91CF911F910F91FF90EF90DF90CF907C
:10088000BF90AF909F908F907F906F905F904F90B0
:100890003F902F9008951D921D921D921D922F5FE3
:1008A0003F4FD2CFEF81F88581919191A191B19184
:1008B000F887EF834D01AA24BB24888A998AAA8AE3
:1008C000BB8A9C01AD01442755272C8B3D8B4E8B59
:1008D0005F8B2D843E84201A310AECA5FDA5E2151C
:1008E000F3050CF41F01F8A9FD8389A88E82AAA83C
:1008F000BBA8BC86AB861A861986C12CD12C760182
:1009000089849A848214930404F137FE02C0312C46
:10091000212C200E311EAD84BE842A143B046CF4BD
:10092000220C331C220C331CACA9BDA9A20DB31D93
:10093000CD92DD92ED92FC9213970F5F1F4FEAA9C3
:10094000FBA93496FBABEAAB88CFED81FE814190E9
:10095000519061907190FE83ED834301AA24BB24E2
:10096000888E998EAA8EBB8E662477242889398931
:100970004A895B89C301B2010E94F2214B015C01EB
:100980002C893D894E895F89688D798D8A8D9B8DF3
:100990000E94F2216C8F7D8F8E8F9F8FEB85FC855F
:1009A00081919191A191B191FC87EB879C01AD015F
:1009B0002C0D3D1D4E1D5F1D29833A834B835C83A7
:1009C000E1E02C153D054E055F0508F0E0E02C89BF
:1009D0003D894E895F89C301B2010E94F2212B013A
:1009E0003C0189819A81AB81BC81840D951DA61D36
:1009F000B71D89839A83AB83BC83A4013327222745
:100A000028A339A34AA35BA36C017D01C20ED31EA8
:100A1000E41EF51E8C8D9D8DAE8DBF8DDC0199275A
:100A200088278CA39DA3AEA3BFA38C0D9D1DAE1DD7
:100A3000BF1D88A799A7AAA7BBA7AB85BC8514979C
:100A400028A539A54AA55BA52D933D934D935C93AD
:100A500013974501AA24BB248E0E911CA11CB11C26
:100A6000288939894A895B89688D798D8A8D9B8D22
:100A70000E94F221860E971EA81EB91E2C8D3D8D58
:100A80004E8D5F8DCA01AA27BB27880E991EAA1E0C
:100A9000BB1E81E090E0A0E0B0E029813A814B816B
:100AA0005C81241535054605570518F080E090E077
:100AB000DC01880D991DAA1DBB1D41E050E060E0DE
:100AC00070E088A099A0AAA0BBA0C814D904EA0429
:100AD000FB0418F040E050E0BA01840F951FA61FF8
:100AE000B71FC12CD12C7601C3948CA09DA0AEA0C1
:100AF000BFA028A539A54AA55BA5281539054A0533
:100B00005B0518F0C12CD12C7601C80ED91EEA1E47
:100B1000FB1EE985FA853196FA87E987F1CE8F9237
:100B20009F92AF92BF92CF92DF92EF92FF920F937C
:100B30001F93CF93DF936B018A017C01D0E0C0E06B
:100B4000812C912C5401CC15DD057CF0C501B4013C
:100B5000DF91CF911F910F91FF90EF90DF90CF9099
:100B6000BF90AF909F908F900895F7016191719120
:100B7000819191917F010E94D917A8010E94F618D6
:100B80009B01AC01C501B4010E9473164B015C01CD
:100B9000005E1F4F2196D7CF8F929F92AF92BF9248
:100BA000CF92DF92EF92FF92CF93DF936B017C01A4
:100BB00049015A010E94DD13882399F060917F0654
:100BC000709180068091810690918206DF91CF918D
:100BD000FF90EF90DF90CF90BF90AF909F908F905D
:100BE0000895C501B4010E94DD138111E7CFC7014B
:100BF000B6010E949A138823E1F1C501B4010E9455
:100C00009A138823B1F120E030E0A901C701B601B1
:100C10000E94E918CFEFDFEF181614F4C1E0D0E01E
:100C200020E030E0A901C501B4010E94E9186FEF8E
:100C30007FEF181614F461E070E0072E000C880BAB
:100C4000990B0E94DB176B017C01BE01DD0F880B45
:100C5000990B0E94DB17A7019601DF91CF91FF90BE
:100C6000EF90DF90CF90BF90AF909F908F900C94BB
:100C7000E61620E030E0A901C501B4010E94391751
:100C8000811116C020E030E0A901C701B6010E9421
:100C9000E918181694F020E030E0A901C701B60168
:100CA0000E94391787FD0EC060E070E0CB018ECF47
:100CB000A5019401C701B601D0CF6BED7FE089ECAF
:100CC0009FE384CF6BED7FE089EC9FEB7FCF4F926A
:100CD0005F926F927F928F929F92AF92BF92CF92CC
:100CE000DF92EF92FF920F931F93CF93DF93CDB7D5
:100CF000DEB7A2970FB6F894DEBF0FBECDBF1F922E
:100D000081E08F9328E8822E22E0922EAA24A394D9
:100D1000B12C44E8C42E42E0D42EEE24E394F12C0E
:100D200007EE12E021E030E046EE52E06EE376E0BE
:100D30008EEF95E00E94C91480908C0290908D02F5
:100D4000A0908E02B0908F02C0909002D09091023D
:100D5000E0909202F09093026091FE057091FF0581
:100D600080910006909101060E94DB17A501940175
:100D70000E942A19A70196010E942A196B8B7C8B6D
:100D80008D8B9E8B20914206309143064091440604
:100D9000509145060E9472166B877C878D879E87CF
:100DA00060934206709343068093440690934506F1
:100DB00060910206709103068091040690910506E9
:100DC0000E94DB17A50194010E942A19A701960130
:100DD0000E942A196093F2057093F3058093F4053D
:100DE0009093F505209146063091470640914806BC
:100DF000509149060E9472166F87788B898B9A8B67
:100E00006093460670934706809348069093490680
:100E100020916C0230916D0240916E0250916F02F0
:100E20006B857C858D859E850E942A196B017C01CE
:100E300020917402309175024091760250917702B0
:100E40006F85788989899A890E942A199B01AC014A
:100E5000C701B6010E9473166093E2057093E30523
:100E60008093E4059093E505209170023091710222
:100E700040917202509173026B857C858D859E85B1
:100E80000E942A196B017C0120917802309179022D
:100E900040917A0250917B026F85788989899A897D
:100EA0000E942A199B01AC01C701B6010E9473166A
:100EB0006F8F78A389A39AA38AE999E9A9E9BEE388
:100EC0008093CE059093CF05A093D005B093D10524
:100ED000C0904E06D0904F06E0905006F09051061C
:100EE0000F900F9020E030E040E450E4C701B601DD
:100EF0000E94391718160CF4ACC52DEC3CEC4CE4F0
:100F00005DE360913A0670913B0680913C069091BA
:100F10003D060E94391720E030E0A90187FF39C261
:100F2000C701B6010E9439178111D1C28DEC9CEC2A
:100F3000ACE4BDE38093D2059093D305A093D40590
:100F4000B093D505C0903A06D0903B06E0903C06A1
:100F5000F0903D0620E030E040E85FE360914A0613
:100F600070914B0680914C0690914D060E94391766
:100F7000811188C520E030E0A901C701B6010E94B7
:100F8000391787FF7FC52BED3FE049EC50E4C701DF
:100F9000B6010E9473166093CA057093CB058093C7
:100FA000CC059093CD052091CA053091CB05409199
:100FB000CC055091CD056091D2057091D3058091FB
:100FC000D4059091D5050E9472166093D205709356
:100FD000D3058093D4059093D505209134023091A8
:100FE000350240913602509137020E942A19209111
:100FF00052063091530640915406509155060E9476
:1010000073164B015C014090CE055090CF05609067
:10101000D0057090D10520915C0230915D02409125
:101020005E0250915F02C301B2010E942A196B0156
:101030007C012091640230916502409166025091DA
:101040006702C501B4010E942A199B01AC01C701C6
:10105000B6010E9473162091660630916706409192
:101060006806509169060E9472166B017C01C0925D
:10107000CA05D092CB05E092CC05F092CD05209127
:101080006002309161024091620250916302C3019B
:10109000B2010E942A192B013C0120916802309173
:1010A000690240916A0250916B02C501B4010E942D
:1010B0002A199B01AC01C301B2010E947316209151
:1010C0006A0630916B0640916C0650916D060E9445
:1010D00072166093CE057093CF058093D0059093E0
:1010E000D1052091000230910102409102025091FD
:1010F00003020E942A1920915A0630915B06409102
:101100005C0650915D060E94721620912C0230916F
:101110002D0240912E0250912F020E942A196093B5
:10112000D6057093D7058093D8059093D905209163
:101130000402309105024091060250910702C70156
:10114000B6010E942A1920916206309163064091EF
:101150006406509165060E9472162091300230910B
:10116000310240913202509133020E942A19609359
:10117000DA057093DB058093DC059093DD05C09064
:101180004002D0904102E0904202F0904302A70159
:10119000960160910E0670910F0680911006909155
:1011A00011060E943917882341F0C0920E06D09292
:1011B0000F06E0921006F092110666E370E080E000
:1011C00090E0A7DA90930D0680930C0643E050E080
:1011D000BE016B5F7F4F8CDA2091E4023091E50213
:1011E000AD81BE810E942B2269837A838B839C838D
:1011F00042E0E42EF12C06EF15E021E030E0AE01F4
:101200004F5F5F4F61E070E080EE92E0F4DA209192
:10121000CA053091CB054091CC055091CD05609128
:101220003C0270913D0280913E0290913F020E94EB
:101230002A1920915E0630915F0640916006509118
:1012400061060E9473162091DA053091DB0540910A
:10125000DC055091DD050E9473166B017C0150E0A6
:1012600040E062E070E0C8015ADC20E030E040E09D
:1012700053E20E942A199B01AC01C701B6010E94EA
:101280004017609342067093430680934406909300
:1012900045062091CE053091CF054091D005509163
:1012A000D105609138027091390280913A02909193
:1012B0003B020E942A192091560630915706409110
:1012C0005806509159060E9473162091D605309108
:1012D000D7054091D8055091D9050E9473166B012E
:1012E0007C0150E040E062E070E0C80118DC20E0E2
:1012F00030E040E053E20E942A199B01AC01C70193
:10130000B6010E944017609346067093470680938B
:1013100048069093490668E070E080E090E005D8C8
:101320005C01909331068093300620914206309103
:10133000430640914406509145066091B402709175
:10134000B5028091B6029091B7020E942A196B01F2
:101350007C01C092DE05D092DF05E092E005F092BC
:10136000E1054090B8025090B9026090BA027090C6
:10137000BB02A30192010E94E91818160CF08BC35E
:101380004092DE055092DF056092E0057092E10523
:1013900092C3C701B6010E943917811198C02091EC
:1013A00032063091330640913406509135068090D4
:1013B000360690903706A0903806B0903906412C3A
:1013C000512C90E8692E9FE3792E40924E06509260
:1013D0004F066092500670925106609144027091DF
:1013E000450280914602909147020E9472166B015D
:1013F0007C01A5019401609150027091510280918D
:101400005202909153020E947216A7019601C4DB0A
:101410006B017C0180903A0690903B06A0903C06C0
:10142000B0903D0620E030E0A901C501B4010E9462
:10143000E91818160CF017C220E030E0A901C70126
:10144000B6010E94391787FF0EC2A7019601C50198
:10145000B4010E9472162BED3FE049E450E40E9473
:10146000E918181644F440924A0650924B066092CE
:101470004C0670924D0620E030E0A901C501B40190
:101480000E94391787FF23C020E030E0A901C7017F
:10149000B6010E94E9181816D4F4A5019401C701F9
:1014A000B6010E9472162BED3FE049E450E40E9421
:1014B000E918181664F480E090E0A0E8BFE3809398
:1014C0004A0690934B06A0934C06B0934D0660914C
:1014D0004E0670914F0680915006909151060E94E1
:1014E000A8176B01FB017096EE0FFF1FEE0FFF1F99
:1014F000E050FE4F20913206309133064091340681
:101500005091350660817181828193810E947216AB
:101510004B015C018092D6059092D705A092D80528
:10152000B092D90583E1C80ED11CF601EE0FFF1F62
:10153000EE0FFF1FE050FE4F209136063091370628
:101540004091380650913906608171818281938182
:101550000E9472166B017C01C092D205D092D30515
:10156000E092D405F092D505A5019401C501B4011E
:101570000E942A194B015C01A7019601C701B6011F
:101580000E942A199B01AC01C501B4010E94731687
:101590000E9497196093CA057093CB058093CC0580
:1015A0009093CD05C0904E06D0904F06E090500627
:1015B000F090510640903206509033066090340609
:1015C000709035068090360690903706A0903806C9
:1015D000B090390620E030E040E05FE36091CA055A
:1015E0007091CB058091CC059091CD050E94391763
:1015F00087FF0AC020E030E040E450E4C701B601B4
:101600000E94391787FD38C1C701B6010E94A8178B
:101610006B01FB017096EE0FFF1FEE0FFF1FE050F6
:10162000FE4FA301920160817181828193810E94AA
:1016300072162B013C01A3E1CA0ED11CF601EE0F7C
:10164000FF1FEE0FFF1FE050FE4FA50194016081C8
:101650007181828193810E947216A30192019CDAAA
:101660006B017C01C092D205D092D305E092D405E3
:10167000F092D50520E030E040E85FE360914A0653
:1016800070914B0680914C0690914D060E9439173F
:10169000811128C020E030E0A90160913A067091E4
:1016A0003B0680913C0690913D060E94391787FFCA
:1016B00019C020E030E0A901C701B6010E94391726
:1016C00087FF10C02BED3FE049EC50E4C701B601A5
:1016D0000E9473166093D2057093D3058093D4054E
:1016E0009093D50580904E0690904F06A09050069E
:1016F000B09051068091CA059091CB05A091CC0580
:10170000B091CD058F839887A987BA8720E030E014
:1017100040E85FE3C501B4010E94E91818160CF017
:101720007FC02DEC3CEC4CE45EE36F8178858985CD
:101730009A850E94391787FF0CC08DEC9CECACE4B5
:10174000BEE38093CE059093CF05A093D005B093D0
:10175000D10520E030E040E85FE3C501B4010E941C
:1017600072160E94A8176B01FB017096EE0FFF1F07
:10177000EE0FFF1FE050FE4F2091320630913306EE
:101780004091340650913506608171818281938148
:101790000E9472162B013C0193E1C90ED11CF60187
:1017A000EE0FFF1FEE0FFF1FE050FE4F2091360699
:1017B0003091370640913806509139066081718129
:1017C000828193810E9472166B017C01A3019201B8
:1017D000C301B2010E942A192B013C01A701960105
:1017E000C701B6010E942A199B01AC01C301B201D5
:1017F0000E9473160E9497192DEC3CEC4CE45EE3BA
:101800000E94391787FF0CC08DEC9CECACE4BEE362
:101810008093CE059093CF05A093D005B093D105CA
:1018200020E030E040E85EE36F81788589859A8525
:101830000E94391787FF86CB20E030E040E450E477
:10184000C501B4010E94391781117CCB80E090E082
:10185000A0E8B0E480934E0690934F06A093500604
:10186000B09351066FCB10924A0610924B0610921D
:101870004C0610924D06FFCD20E030E040E85FE3DB
:10188000C701B6010E94731660934E0670934F060F
:1018900080935006909351060E94A8176B01FB019C
:1018A0007096EE0FFF1FEE0FFF1FE050FE4FA301DB
:1018B000920160817181828193810E9472162B0155
:1018C0003C014092CA055092CB056092CC057092C3
:1018D000CD0593E1C90ED11CF601EE0FFF1FEE0FEF
:1018E000FF1FE050FE4FA50194016081718182814C
:1018F00093810E9472166093D6057093D7058093EA
:10190000D8059093D905A301920146D96B017C01BA
:10191000C092D205D092D305E092D405F092D505BD
:101920006091CA057091CB058091CC059091CD0551
:101930008090D6059090D705A090D805B090D90595
:101940009B01AC010E942A192B013C01A5019401C5
:10195000C501B4010E942A199B01AC01C301B20167
:101960000E9473160E9497196093CA057093CB0565
:101970008093CC059093CD0580903A0690903B06DD
:10198000A0903C06B0903D0620E030E0A901C501E2
:10199000B4010E94E91818160CF052C020E030E0A3
:1019A000A901C701B6010E94391787FF49C0A701E5
:1019B0009601C501B4010E9472162BED3FE049E487
:1019C00050E40E94E918181664F480E090E0A0E862
:1019D000BFE380934A0690934B06A0934C06B093C6
:1019E0004D0620E030E0A901C501B4010E9439177D
:1019F00087FFD8CD20E030E0A901C701B6010E94E1
:101A0000E91818160CF0CECDA5019401C701B60156
:101A10000E9472162BED3FE049E450E40E94E91861
:101A200018160CF0BFCD80E090E0A0E8BFE38093F3
:101A30004A0690934B06A0934C06B0934D06B2CD48
:101A400010924A0610924B0610924C0610924D06C8
:101A5000C8CF80913A0690913B06A0913C06B09188
:101A60003D068093D2059093D305A093D405B093FF
:101A7000D5051092CE051092CF051092D005109288
:101A8000D10560CAC092CA05D092CB05E092CC05C0
:101A9000F092CD0588CA4090BC025090BD02609083
:101AA000BE027090BF02A3019201C701B6010E945D
:101AB000391787FD65CC20E030E04FE753E46091B3
:101AC000DE057091DF058091E0059091E1050E94AF
:101AD0003917181664F480E090E0AFE7B3E4809320
:101AE000DE059093DF05A093E005B093E10520E0CB
:101AF00030E0A9016091DE057091DF058091E0057D
:101B00009091E1050E94E91887FF08C01092DE0558
:101B10001092DF051092E0051092E1054091DE057C
:101B20005091DF056091E0057091E105C5010E94CB
:101B30005E0169E070E080E090E00E9495015C0148
:101B40009093290680932806C0904206D0904306C1
:101B5000E0904406F09045064090C0025090C102CB
:101B60006090C2027090C302A3019201C701B60146
:101B70000E94E91818160CF084C04092DE055092BD
:101B8000DF056092E0057092E10520E030E04FE76C
:101B900053E46091DE057091DF058091E00590913E
:101BA000E1050E943917181664F480E090E0AFE771
:101BB000B3E48093DE059093DF05A093E005B09336
:101BC000E10520E030E0A9016091DE057091DF05BC
:101BD0008091E0059091E1050E94E91887FF08C017
:101BE0001092DE051092DF051092E0051092E105DB
:101BF0004091DE055091DF056091E0057091E105AF
:101C0000C5010E945E016AE070E080E090E00E9401
:101C100095015C0190932106809320062091460651
:101C20003091470640914806509149066091C8029C
:101C30007091C9028091CA029091CB020E942A1928
:101C40006B017C01C092DE05D092DF05E092E005D9
:101C5000F092E1054090CC025090CD026090CE020F
:101C60007090CF02A30192010E94E918181614F592
:101C70004092DE055092DF056092E0057092E1052A
:101C800029C04090C4025090C5026090C602709076
:101C9000C702A3019201C701B6010E94391787FD4F
:101CA0006CCFC092DE05D092DF05E092E005F092A5
:101CB000E1056BCF4090D0025090D1026090D202EB
:101CC0007090D302A3019201C701B6010E94391797
:101CD00087FDCECF20E030E04FE753E46091DE0592
:101CE0007091DF058091E0059091E1050E94391720
:101CF000181664F480E090E0AFE7B3E48093DE056B
:101D00009093DF05A093E005B093E10520E030E07B
:101D1000A9016091DE057091DF058091E005909149
:101D2000E1050E94E91887FF08C01092DE051092B5
:101D3000DF051092E0051092E1054091DE0550911B
:101D4000DF056091E0057091E105C5010E945E012B
:101D50006BE070E080E090E00E9495015C01909360
:101D6000190680931806C0904606D0904706E0906A
:101D70004806F09049064090D4025090D5026090F9
:101D8000D6027090D702A3019201C701B6010E944A
:101D9000E91818160CF031C24092DE055092DF05AA
:101DA0006092E0057092E10520E030E04FE753E4F7
:101DB0006091DE057091DF058091E0059091E1056D
:101DC0000E943917181664F480E090E0AFE7B3E49E
:101DD0008093DE059093DF05A093E005B093E105C5
:101DE00020E030E0A9016091DE057091DF0580916F
:101DF000E0059091E1050E94E91887FF08C0109264
:101E0000DE051092DF051092E0051092E105409189
:101E1000DE055091DF056091E0057091E105C50197
:101E20000E945E0180903A0690903B06A0903C068E
:101E3000B0903D06C501B4010E943D17C090E20577
:101E4000D090E305E090E405F090E5052091DC02F8
:101E50003091DD024091DE025091DF020E942A198A
:101E6000A70196010E942A192B013C014092DE0530
:101E70005092DF056092E0057092E105C501B40162
:101E80000E948D199B01AC01C701B6010E942A195D
:101E90006B8F7C8F8D8F9E8F6093E2057093E3052F
:101EA0008093E4059093E505809132069091330686
:101EB000A0913406B09135068F839887A987BA8799
:101EC0008093E6059093E705A093E805B093E905B4
:101ED0008091360690913706A0913806B091390668
:101EE0008F8B988FA98FBA8F8093EA059093EB051B
:101EF000A093EC05B093ED058092EE059092EF056E
:101F0000A092F005B092F105C0907C02D0907D02C5
:101F1000E0907E02F0907F02A7019601C301B2011A
:101F20000E942A192F81388549855A85DCD660930D
:101F30003206709333068093340690933506A701DA
:101F400096016B8D7C8D8D8D9E8D0E942A192F8917
:101F5000388D498D5A8DC7D66093360670933706F3
:101F600080933806909339062F8D38A149A15AA144
:101F7000C701B6010E942A19A5019401B4D6609345
:101F80003A0670933B0680933C0690933D061F9261
:101F900081E08F9388E8882E82E0982EAA24A3946B
:101FA000B12C24E8C22E22E0D22EEE24E394F12CB0
:101FB00007EE12E021E030E046EE52E06EE376E01C
:101FC0008EEF95E017D52091D2053091D305409141
:101FD000D4055091D5056091100270911102809145
:101FE0001202909113020E942A1920919C023091B2
:101FF0009D0240919E0250919F020E942A192091B9
:1020000052063091530640915406509155066BD6B6
:10201000609352067093530680935406909355062E
:102020008B899C89AD89BE89809342069093430633
:10203000A0934406B09345068B859C85AD85BE85EF
:102040008093660690936706A0936806B09369062E
:102050008091F2059091F305A091F405B091F505FA
:102060008093460690934706A0934806B09349068E
:102070008F859889A989BA8980936A0690936B069F
:10208000A0936C06B0936D062091CE053091CF05DC
:102090004091D0055091D1056091080270910902DC
:1020A00080910A0290910B020E942A192091A402A9
:1020B0003091A5024091A6025091A7020E942A19D0
:1020C0002091560630915706409158065091590676
:1020D0000AD66093560670935706809358069093DD
:1020E00059062091D6053091D7054091D8055091D9
:1020F000D9056091A8027091A9028091AA029091DD
:10210000AB020E942A1920915A0630915B06409139
:102110005C0650915D06E7D560935A0670935B06A6
:1021200080935C0690935D062091CA053091CB05A3
:102130004091CC055091CD0560910C0270910D023B
:1021400080910E0290910F020E942A192091AC02F8
:102150003091AD024091AE025091AF020E942A1917
:1021600020915E0630915F064091600650916106B5
:10217000BAD560935E0670935F0680936006909375
:1021800061062091DA053091DB054091DC05509124
:10219000DD056091B0027091B1028091B202909120
:1021A000B3020E942A192091620630916306409181
:1021B00064065091650697D5609362067093630636
:1021C00080936406909365060F900F90A2960FB6C9
:1021D000F894DEBF0FBECDBFDF91CF911F910F915D
:1021E000FF90EF90DF90CF90BF90AF909F908F9037
:1021F0007F906F905F904F9008954090D8025090DC
:10220000D9026090DA027090DB02A3019201C7014B
:10221000B6012FD687FDC0CDC092DE05D092DF0576
:10222000E092E005F092E105BFCD4F925F926F9290
:102230007F92AF92BF92DF92EF92FF920F931F9324
:10224000CF93DF9384E090E03ED21092350310925A
:102250003403EAECF5E08CE3DF011D928A95E9F79F
:10226000EAE0F6E089E6DF011D928A95E9F7C6E02B
:10227000D6E01882DD24D394D0926E0680E0A82E9A
:1022800082E0B82E8091400290914102A0914202DA
:10229000B091430288879987AA87BB87412C512C2C
:1022A0003201439449825A826B827C8266E370E0F9
:1022B00080E090E00E94CD039F838E83DD821CA28C
:1022C000D092720619A64DA25EA26FA278A6E12C4A
:1022D000F12C8701A801970168E070E080E090E0B0
:1022E0000E94D9019BA78AA7D9A61C8ED0927106FD
:1022F00019A24D8E5E8E6F8E78A2A801970169E0BB
:1023000070E080E090E00E94D9019BA38AA3D9A24B
:102310001C8AD0927006198E4D8A5E8A6F8A788EDA
:10232000A80197016AE070E080E090E00E94D90186
:102330009B8F8A8FD98E1C86D0926F06198A4D8604
:102340005E866F86788AA80197016BE070E080E076
:1023500090E00E94D9019B8B8A8BD98A8091800260
:1023600090918102A0918202B09183028CA79DA7D7
:10237000AEA7BFA788AB99ABAAABBBAB8CAB9DABF1
:10238000AEABBFABE8AEF9AE0AAF1BAF8091940223
:1023900090919502A0919602B091970280934A067F
:1023A00090934B06A0934C06B0934D0680919802F3
:1023B00090919902A0919A02B0919B0280934E064F
:1023C00090934F06A0935006B0935106F50180A15B
:1023D00091A1A2A1B3A18093520690935306A0931A
:1023E0005406B093550644895589668977894CAF60
:1023F0005DAF6EAF7FAF8091A0029091A102A091DE
:10240000A202B091A3028093660690936706A09300
:102410006806B0936906409346065093470660935A
:1024200048067093490680936A0690936B06A093C2
:102430006C06B0936D0684A195A1A6A1B7A1809367
:10244000560690935706A0935806B0935906808D70
:10245000918DA28DB38D80935A0690935B06A093C5
:102460005C06B0935D0680A591A5A2A5B3A5809357
:102470005E0690935F06A0936006B0936106848D1C
:10248000958DA68DB78D8093620690936306A09379
:102490006406B0936506DF91CF911F910F91FF9075
:1024A000EF90DF90BF90AF907F906F905F904F90D4
:1024B00008958091060681111FC081E08093060671
:1024C0008091070690910806A0910906B0910A062E
:1024D0000197A105B10581F480910B06882361F075
:1024E00066E370E080E090E00E94890390930D061F
:1024F00080930C060E94F00380912A0681112EC061
:1025000081E080932A0680912B0690912C06A09161
:102510002D06B0912E060197A105B105F9F4809121
:102520002F068823D9F068E070E080E090E00E94F8
:102530009501909331068093300640E050E0BA0157
:102540000E945E0168E070E080E090E00E949501EA
:1025500090933106809330060E942A0280912206D1
:1025600081112EC081E080932206809123069091F4
:102570002406A0912506B09126060197A105B10574
:10258000F9F4809127068823D9F069E070E080E0B3
:1025900090E00E949501909329068093280640E0E0
:1025A00050E0BA010E945E0169E070E080E090E0D6
:1025B0000E94950190932906809328060E942A0282
:1025C00080911A0681112EC081E080931A068091B5
:1025D0001B0690911C06A0911D06B0911E06019746
:1025E000A105B105F9F480911F068823D9F06AE0AE
:1025F00070E080E090E00E94950190932106809326
:10260000200640E050E0BA010E945E016AE070E0FE
:1026100080E090E00E94950190932106809320062F
:102620000E942A028091120681112EC081E08093BF
:1026300012068091130690911406A0911506B09190
:1026400016060197A105B105F9F4809117068823B4
:10265000D9F06BE070E080E090E00E9495019093EB
:1026600019068093180640E050E0BA010E945E010E
:102670006BE070E080E090E00E9495019093190675
:10268000809318060C942A02089560E070E080E8B8
:102690009FE7089560E070E080E89FE7089560E0BC
:1026A00070E080E89FEF089560E070E080E89FEFC1
:1026B000089560E070E080EC9FEF089560E070E0C6
:1026C00080EC9FEF0895F5DF60937F06709380069E
:1026D0008093810690938206F1DF60937306709376
:1026E00074068093750690937606CFDF60937B0621
:1026F00070937C0680937D0690937E06CBDF60937B
:102700007706709378068093790690937A06C7DFF0
:102710006093830670938406809385069093860663
:10272000C3DF609387067093880680938906909331
:102730008A060895CF92DF92EF92FF92CF936B01BA
:102740007C01AC019B0160917B0670917C068091BD
:102750007D0690917E068DD3C1E0882369F0A701A4
:102760009601609183067091840680918506909110
:1027700086067FD38111C0E08C2FCF91FF90EF9020
:10278000DF90CF9008950F931F938B019C0100273A
:10279000112720783F770115110520483F4749F45C
:1027A000AB01BC016F77772781E0452B462B472B88
:1027B00009F480E01F910F910895E5CFCF93DF9347
:1027C00080913603909137030E94431EEC01809163
:1027D0003803909139030E94431E0197C1F4809100
:1027E0003A0390913B03A0913C03B0913D032197A4
:1027F000C1F40196A11DB11D80933A0390933B0350
:10280000A0933C03B0933D03DF91CF910895809155
:102810003A0390913B03A0913C03B0913D03CD2B33
:1028200041F30197A109B109E7CFCF93DF938091DD
:102830004003909141030E94431EEC0180914203AA
:10284000909143030E94431E0197C1F48091440379
:1028500090914503A0914603B09147032197C1F49D
:102860000196A11DB11D8093440390934503A0934D
:102870004603B0934703DF91CF91089580914403BD
:1028800090914503A0914603B0914703CD2B41F3AE
:102890000197A109B109E7CFCF93DF93809142035C
:1028A000909143030E94431EEC018091400390915C
:1028B00041030E94431E0197C1F48091440390910B
:1028C0004503A0914603B0914703CD2BC1F4019677
:1028D000A11DB11D8093440390934503A09346032B
:1028E000B0934703DF91CF91089580914403909175
:1028F0004503A0914603B0914703219741F3019707
:10290000A109B109E7CFCF93DF938091380390916C
:1029100039030E94431EEC018091360390913703E6
:102920000E94431E0197C1F480913A0390913B03AA
:10293000A0913C03B0913D03CD2BC1F40196A11DA4
:10294000B11D80933A0390933B03A0933C03B09353
:102950003D03DF91CF91089580913A0390913B031D
:10296000A0913C03B0913D03219741F30197A10948
:10297000B109E7CF02978431910540F485509D4F0E
:10298000FC018081082E000C990B08958FEF9FEFBA
:1029900008950F931F93CF93DF93CDB7DEB78C01CC
:1029A00020E030E040E85FE3FB01608171818281DB
:1029B00093815FD2811119C080913A0390913B03BA
:1029C000A0913C03B0913D03F80180839183A283E1
:1029D000B3838091440390914503A0914603B09145
:1029E000470384839583A683B783DF91CF911F919B
:1029F0000F9108958F929F92AF92BF92CF92DF92E4
:102A0000EF92FF920F931F93CF93DF93CDB7DEB773
:102A10007B015A0120E030E040E85FE3FB01608188
:102A200071818281938125D2882309F48BC0F501BD
:102A3000808190E09093370380933603F801808182
:102A400090E09093390380933803F601608171819F
:102A5000828193817DD27093410360934003F4019E
:102A6000608171818281938173D2709343036093FB
:102A70004203809136039091370360E00E94DA1D93
:102A8000809138039091390360E00E94DA1D8091B3
:102A900040039091410360E00E94DA1D809142035F
:102AA0009091430360E00E94DA1D8091360390917B
:102AB000370361E00E94161E80913803909139031C
:102AC00061E00E94161E809140039091410361E0F5
:102AD0000E94161E809142039091430361E00E9480
:102AE000161E809136039091370344DF41E050E099
:102AF00063E874E184D480913803909139033ADF1C
:102B000041E050E06EED73E17AD480914003909102
:102B1000410330DF41E050E06CE474E170D4809117
:102B200042039091430326DF41E050E065E174E108
:102B300066D480E090E0A0E8BFE3F7018083918352
:102B4000A283B383DF91CF911F910F91FF90EF90FC
:102B5000DF90CF90BF90AF909F908F90089540E806
:102B600055E260E070E090E080E000C081309105C7
:102B700079F01CF4892B39F008958230910561F0C9
:102B8000039771F0089526E086E593E00C94351FD5
:102B900026E083EF93E0FACF26E080E994E0F6CFD9
:102BA00026E08DE295E0F2CF1F920F920FB60F92C2
:102BB00011240BB60F922F933F934F935F936F9314
:102BC0007F938F939F93AF93BF93EF93FF938FE880
:102BD0009DEF909325018093240134D0FF91EF91D4
:102BE000BF91AF919F918F917F916F915F914F9125
:102BF0003F912F910F900BBE0F900FBE0F901F9023
:102C000018958FE89DEF9093250180932401A3E709
:102C1000B0E08C918E7F8C93E0E2F1E080818C7F3C
:102C20008083E1E2F1E08081877E8083808184601F
:102C3000808380818C7F80838C9181608C930895C8
:102C400081E0089580914A0391E0980F90934A03A0
:102C5000882349F021E030E030934C0320934B036C
:102C600080934A03089578940E946706F8948091AF
:102C70004A038150F5CFCF93DF9310928C061092C8
:102C80008B06D9D56CDFC091F902D091FA02198276
:102C90001882CBDAF894B5DF81E028813981232BC3
:102CA00009F080E080938B067894789480918B066D
:102CB000811107C0FEDBF89490E080E0DF91CF91B6
:102CC000089581E028813981232B09F480E08093E5
:102CD0008C0690918C0681E0911180E080938B06A8
:102CE000AFDFE4CF5058BB27AA270ED027C2F0D1C0
:102CF00030F0F5D120F031F49F3F11F41EF4C0C143
:102D00000EF4E095E7FBB6C1E92F3AD280F3BA178B
:102D1000620773078407950718F071F49EF552C295
:102D20000EF4E0950B2EBA2FA02D0B01B9019001E6
:102D30000C01CA01A0011124FF27591B99F0593F2A
:102D400050F4503E68F11A16F040A22F232F342F72
:102D50004427585FF3CF469537952795A795F040C0
:102D60005395C9F77EF41F16BA0B620B730B840BD5
:102D7000BAF09150A1F0FF0FBB1F661F771F881F8D
:102D8000C2F70EC0BA0F621F731F841F48F48795E5
:102D900077956795B795F7959E3F08F0B3CF9395D4
:102DA000880F08F09927EE0F97958795089590D191
:102DB00058F080E891E009F49EEF91D128F040E8C6
:102DC00051E059F45EEF09C05BC1FCC1E92FE07826
:102DD000D7D168F3092E052AC1F32617370748070C
:102DE000590738F00E2E07F8E02569F0E025E06479
:102DF0000AC0EF6307F8009407FADB01B9019D01EF
:102E0000DC01CA01AD01EF934AD098D10AD05F919D
:102E1000552331F02BED3FE049E450FD49EC63CF01
:102E20000895DF93DD27B92FBF7740E85FE31616DB
:102E3000170648075B0710F4D92FCFD19F938F93C4
:102E40007F936F93B2D2E4EEF0E01DD177D12F9152
:102E50003F914F915F910AD2DD2349F09058A2EA49
:102E60002AED3FE049EC5FE3D0785D274DDFDF914D
:102E700065C1DCD008F481E0089539D1E3956FC1D4
:102E80000CD05CC12CD140F023D130F021F45F3F55
:102E900019F0F0C0511197C1F3C072D198F3992382
:102EA000C9F35523B1F3951B550BBB27AA2762170E
:102EB0007307840738F09F5F5F4F220F331F441F53
:102EC000AA1FA9F333D00E2E3AF0E0E830D091508B
:102ED0005040E695001CCAF729D0FE2F27D0660F78
:102EE000771F881FBB1F261737074807AB07B0E8B7
:102EF00009F0BB0B802DBF01FF2793585F4F2AF0CD
:102F00009E3F510568F0B6C05EC15F3FECF3983E4E
:102F1000DCF3869577956795B795F7959F5FC9F729
:102F2000880F911D9695879597F90895E1E0660FB2
:102F3000771F881FBB1F621773078407BA0720F02B
:102F4000621B730B840BBA0BEE1F88F7E095089594
:102F500004D06894B11137C108951AD188F09F57F1
:102F600090F0B92F9927B751A0F0D1F0660F771FD5
:102F7000881F991F1AF0BA95C9F712C0B13081F0B5
:102F800021D1B1E008951EC1672F782F8827B85F3F
:102F900039F0B93FCCF3869577956795B395D9F716
:102FA0003EF490958095709561957F4F8F4F9F4F20
:102FB0000895E89409C097FB3EF49095809570952C
:102FC00061957F4F8F4F9F4F9923A9F0F92F96E975
:102FD000BB279395F695879577956795B795F111EA
:102FE000F8CFFAF4BB0F11F460FF1BC06F5F7F4F87
:102FF0008F4F9F4F16C0882311F096E911C0772399
:1030000021F09EE8872F762F05C0662371F096E8A1
:10301000862F70E060E02AF09A95660F771F881F70
:10302000DAF7880F9695879597F90895990F000814
:10303000550FAA0BE0E8FEEF16161706E807F9078A
:10304000C0F012161306E407F50798F0621B730B25
:10305000840B950B39F40A2661F0232B242B252BA6
:1030600021F408950A2609F4A140A6958FEF811D49
:10307000811D089597F99F6780E870E060E00895EA
:103080009FEF80EC0895DF93CF931F930F93FF92F0
:10309000EF92DF927B018C01689405C0DA2EEF017C
:1030A000E5D0FE01E894A591259135914591559182
:1030B000AEF3EF0129DEFE019701A801DA9479F75A
:1030C000DF90EF90FF900F911F91CF91DF910895C6
:1030D00000240A94161617061806090608950024F7
:1030E0000A9412161306140605060895C9CF50D087
:1030F000E8F3E894E0E0BB279F57F0F02AED3FE0CB
:1031000049EC06C0EE0FBB0F661F771F881F28F023
:10311000B23A62077307840728F0B25A620B730B46
:10312000840BE3959A9572F7803830F49A95BB0F2B
:10313000661F771F881FD2F790483CC1092E039461
:10314000000C11F4882352F0BB0F40F4BF2B11F494
:1031500060FF04C06F5F7F4F8F4F9F4F0895EF93C5
:10316000E0FF06C0A2EA2AED3FE049EC5FEBCCDDD0
:10317000E5DF0F90039401FC9058E1E1F1E02DC1EF
:1031800057FD9058440F551F59F05F3F71F0479518
:10319000880F97FB991F61F09F3F79F087950895FD
:1031A000121613061406551FF2CF4695F1DF08C01C
:1031B000161617061806991FF1CF86957105610539
:1031C00008940895E894BB2766277727CB0197F9E1
:1031D00008952CDF08F48FEF08959B01AC0160E0A7
:1031E00070E080E89FE34CCE45CFE2C0D1DFE8F34A
:1031F0009923D9F3940F511DBBF39150504094F093
:1032000059F0882332F0660F771F881F9150504085
:10321000C1F79E3F510544F7880F911D96958795FC
:1032200097F908955F3FACF0983E9CF0BB278695D8
:1032300077956795B79508F4B1609395C1F7BB0F83
:1032400058F711F460FFE8CF6F5F7F4F8F4F9F4FAC
:10325000E3CFB9CF0BD072CF3BDF28F040DF18F0BF
:10326000952309F007CF0CCF1124ADCF89DFA0F350
:10327000959FD1F3950F50E0551F629FF001729F0B
:10328000BB27F00DB11D639FAA27F00DB11DAA1F2A
:10329000649F6627B00DA11D661F829F2227B00D77
:1032A000A11D621F739FB00DA11D621F839FA00D02
:1032B000611D221F749F3327A00D611D231F849F52
:1032C000600D211D822F762F6A2F11249F575040A9
:1032D0008AF0E1F088234AF0EE0FFF1FBB1F661F44
:1032E000771F881F91505040A9F79E3F510570F0FD
:1032F000C1CE69CF5F3FECF3983EDCF386957795BE
:103300006795B795F795E7959F5FC1F7FE2B880FF7
:10331000911D9695879597F908959F93E8DE0F90F4
:1033200007FCEE5F1CCF11F40EF4AACE41C030DFD3
:10333000D0F39923D9F3CEF39F57550B87FF46D08F
:103340000024A0E640EA900180585695979528F40D
:10335000805C660F771F881F20F026173707480705
:1033600030F4621B730B840B202931294A2BA6955C
:1033700017940794202531254A2758F7660F771FA1
:10338000881F20F026173707480730F4620B730BAD
:10339000840B200D311D411DA09581F7B901842FAB
:1033A0009158880F9695879508959B01AC0152CF4F
:1033B0009F3F31F0915020F4879577956795B795A9
:1033C000880F911D9695879597F9089591505040D3
:1033D000660F771F881FD2F708959F938F937F936F
:1033E0006F93FF93EF939B01AC0134DFEF91FF915B
:1033F0004ADE2F913F914F915F912CCF08958830F5
:1034000008F076C0E82FF0E0EE0FFF1FE851FD4F07
:10341000718360838150873008F03DC0E82FF0E071
:103420008827EA5EF54E8F4F0C942322531A1D1AFB
:10343000251A311A3E1A5F1A6C1A809169008C7F26
:10344000482B40936900E89A089580916900837F32
:10345000440F551F440F551F482B40936900E99AAC
:103460000895809169008F7C74E0440F551F7A9510
:10347000E1F7482B40936900EA9A0895809169002A
:103480008F7366E0440F551F6A95E1F7482B409310
:103490006900EB9A089580916A008C7F482B4093D5
:1034A0006A00EC9A089580916A00837F440F551F4B
:1034B000440F551F482B40936A00ED9A0895809160
:1034C0006A008F7C24E0440F551F2A95E1F7482BB2
:1034D00040936A00EE9A089580916A008F7396E097
:1034E000440F551F9A95E1F7482B40936A00EF9AD5
:1034F00008951F920F920FB60F9211240BB60F92E0
:103500002F933F934F935F936F937F938F939F93EB
:10351000AF93BF93EF93FF93E091EC02F091ED0234
:103520001995FF91EF91BF91AF919F918F917F91ED
:103530006F915F914F913F912F910F900BBE0F9024
:103540000FBE0F901F9018951F920F920FB60F92FB
:1035500011240BB60F922F933F934F935F936F936A
:103560007F938F939F93AF93BF93EF93FF93E091DC
:10357000EE02F091EF021995FF91EF91BF91AF919B
:103580009F918F917F916F915F914F913F912F917B
:103590000F900BBE0F900FBE0F901F9018951F92AB
:1035A0000F920FB60F9211240BB60F922F933F93E9
:1035B0004F935F936F937F938F939F93AF93BF933B
:1035C000EF93FF93E091F002F091F1021995FF91D2
:1035D000EF91BF91AF919F918F917F916F915F918B
:1035E0004F913F912F910F900BBE0F900FBE0F90F8
:1035F0001F9018951F920F920FB60F9211240BB6C1
:103600000F922F933F934F935F936F937F938F937B
:103610009F93AF93BF93EF93FF93E091F202F091EA
:10362000F3021995FF91EF91BF91AF919F918F9107
:103630007F916F915F914F913F912F910F900BBEB2
:103640000F900FBE0F901F9018951F920F920FB6FC
:103650000F9211240BB60F922F933F934F935F93CA
:103660006F937F938F939F93AF93BF93EF93FF934A
:10367000E091E802F091E9021995FF91EF91BF9175
:10368000AF919F918F917F916F915F914F913F91FA
:103690002F910F900BBE0F900FBE0F901F9018959B
:1036A0001F920F920FB60F9211240BB60F922F9309
:1036B0003F934F935F936F937F938F939F93AF93BA
:1036C000BF93EF93FF93E091EA02F091EB0219951B
:1036D000FF91EF91BF91AF919F918F917F916F91EA
:1036E0005F914F913F912F910F900BBE0F900FBEA6
:1036F0000F901F9018951F920F920FB60F921124E2
:103700000BB60F922F933F934F935F936F937F93DB
:103710008F939F93AF93BF93EF93FF93E091F40246
:10372000F091F5021995FF91EF91BF91AF919F91A3
:103730008F917F916F915F914F913F912F910F905A
:103740000BBE0F900FBE0F901F9018951F920F92F7
:103750000FB60F9211240BB60F922F933F934F93F6
:103760005F936F937F938F939F93AF93BF93EF93E9
:10377000FF93E091F602F091F7021995FF91EF9116
:10378000BF91AF919F918F917F916F915F914F9179
:103790003F912F910F900BBE0F900FBE0F901F9077
:1037A00018951F920F920FB60F9211242F933F93EB
:1037B0008F939F93AF93BF9380914E0390914F034C
:1037C000A0915003B091510330914D0323E0230F9A
:1037D0002D3758F50196A11DB11D20934D038093FF
:1037E0004E0390934F03A0935003B09351038091E5
:1037F000520390915303A0915403B0915503019645
:10380000A11DB11D8093520390935303A0935403C1
:10381000B0935503BF91AF919F918F913F912F919D
:103820000F900FBE0F901F90189526E8230F029659
:10383000A11DB11DD2CF789484B5826084BD84B5BA
:10384000816084BD85B5826085BD85B5816085BD9B
:10385000EEE6F0E0808181608083E1E8F0E01082B4
:10386000808182608083808181608083E0E8F0E0F5
:10387000808181608083E1EBF0E0808184608083DF
:10388000E0EBF0E0808181608083E1E9F0E080811D
:1038900082608083808181608083E0E9F0E08081C4
:1038A00081608083E1EAF0E08081826080838081B2
:1038B00081608083E0EAF0E0808181608083E1E2E2
:1038C000F1E0808182608083808181608083E0E29A
:1038D000F1E0808181608083EAE7F0E080818460AC
:1038E0008083808182608083808181608083808109
:1038F000806880831092C1000895863308F0865353
:1039000020917B00982F9870277F922B90937B00BB
:103910002091F80290E4299F900111248770822B56
:1039200080937C0080917A00806480937A008091FB
:103930007A0086FDFCCF80917800909179000895FF
:103940001F93CF93DF93182FEB0161E033D12097C2
:1039500031F460E0812FDF91CF911F9167C1CF3F9C
:10396000D10511F461E0F6CFE12FF0E0E05DFE4F0C
:10397000E491E150E23108F0B2C0F0E08827ED5365
:10398000F34E8F4F60C5D51CDD1CE21CEC1CF61CF1
:103990006F1D001D081D101D1A1D241D2E1D3D1D0F
:1039A000471D6F1D511D5B1D651D84B5806884BD5D
:1039B000C7BDDF91CF911F91089584B5806284BD0A
:1039C000C8BDF7CF80918000806880938000D0933D
:1039D0008900C0938800EDCF809180008062809341
:1039E0008000D0938B00C0938A00E3CF8091800049
:1039F000886080938000D0938D00C0938C00D9CFD5
:103A00008091B00080688093B000C093B300D1CFA4
:103A10008091B00080628093B000C093B400C9CFA1
:103A200080919000806880939000D0939900C0931B
:103A30009800BFCF80919000806280939000D093D7
:103A40009B00C0939A00B5CF8091900088608093CE
:103A50009000D0939D00C0939C00ABCF8091A000BC
:103A600080688093A0008091A0008F7B8093A0004D
:103A7000D093A900C093A8009CCF8091A000806241
:103A80008093A000D093AB00C093AA0092CF809106
:103A9000A00088608093A000D093AD00C093AC00DC
:103AA00088CF80912001806880932001D0932901E4
:103AB000C09328017ECF80912001806280932001F5
:103AC000D0932B01C0932A0174CF8091200188608C
:103AD00080932001D0932D01C0932C016ACFC03870
:103AE000D1050CF03FCF35CF8150823108F059C05D
:103AF000E82FF0E08827E158F24E8F4FA4C49F1DB5
:103B0000A31D911D971D9B1DD11DA61DAC1DB01D94
:103B1000B61DBA1DBE1DC41DC81DD11DCC1DD21D94
:103B2000D61D809180008F778093800008958091CA
:103B300080008F7DF9CF80918000877FF5CF84B59D
:103B40008F7784BD089584B58F7DFBCF8091B000C1
:103B50008F778093B00008958091B0008F7DF9CF6A
:103B6000809190008F7780939000089580919000CD
:103B70008F7DF9CF80919000877FF5CF8091A00055
:103B80008F778093A00008958091A0008F7DF9CF5A
:103B90008091A000877FF5CF809120018F7780935F
:103BA00020010895809120018F7DF9CF809120011F
:103BB000877FF5CFCF93DF9390E0FC01EA58FE4F6B
:103BC000249184549E4FFC0184918823C9F090E095
:103BD000880F991FFC01EA5CFD4FA591B491FC018F
:103BE000E45EFD4FC591D49161110DC09FB7F8946B
:103BF0008C91209582238C938881282328839FBFD2
:103C0000DF91CF910895623051F49FB7F8943C91C1
:103C1000822F809583238C93E8812E2BEFCF8FB753
:103C2000F894EC912E2B2C938FBFEACF1F93CF9358
:103C3000DF93282F30E0F901E05DFE4F8491F90118
:103C4000EA58FE4FD491F901E454FE4FC491CC23BD
:103C5000A1F0162F811148DFEC2FF0E0EE0FFF1FCF
:103C6000E45EFD4FA591B4918FB7F894EC911111DA
:103C700008C0D095DE23DC938FBFDF91CF911F91D9
:103C80000895DE2BF8CFCF93DF93282F30E0F90192
:103C9000E05DFE4F8491F901EA58FE4FD491F9019D
:103CA000E454FE4FC491CC2399F081111DDFEC2F19
:103CB000F0E0EE0FFF1FEE5FFD4FA591B491EC9188
:103CC000ED2381E090E009F480E0DF91CF91089549
:103CD00080E090E0FACFFC01918D228D892F90E059
:103CE000805C9F4F821B91098F7399270895FC0177
:103CF000918D828D981731F0828DE80FF11D858DA1
:103D000090E008958FEF9FEF0895FC01918D828DD3
:103D1000981761F0A28DAE0FBF2FB11D5D968C91EB
:103D2000928D9F5F9F73928F90E008958FEF9FEF2A
:103D30000895FC01538D448D252F30E0842F90E0B1
:103D4000821B930B541710F0CF9608950197089596
:103D5000FC01A48DA80FB92FB11DA35ABF4F2C9100
:103D6000848D90E001968F739927848FA689B789F7
:103D70002C93A089B1898C91837080648C93938DEE
:103D8000848D981306C00288F389E02D80818F7D91
:103D900080830895CF93DF93EC01888D8823B1F061
:103DA000AA89BB89E889F9898C9185FD03C0808146
:103DB00086FD0CC00FB607FCF7CF8C9185FFF2CFC4
:103DC000808185FFEDCFCE01C3DFEACFDF91CF91B8
:103DD0000895EF92FF920F931F93CF93DF93EC011F
:103DE00081E0888F9B8D8C8D98131AC0E889F989A2
:103DF000808185FF15C09FB7F894EE89FF896083A5
:103E0000E889F98980818370806480839FBF81E025
:103E100090E0DF91CF911F910F91FF90EF90089567
:103E2000F62E0B8D10E00F5F1F4F0F731127E02E42
:103E30008C8D8E110BC00FB607FCFACFE889F9897B
:103E4000808185FFF5CFCE0183DFF2CFEB8DEC0FC4
:103E5000FD2FF11DE35AFF4FF0829FB7F8940B8FAF
:103E6000EA89FB8980818062D0CFCF92DF92EF9286
:103E7000FF921F93CF93DF93EC016A017B01122F16
:103E8000E889F98982E08083C11481EED806E104D3
:103E9000F10499F060E079E08DE390E0A7019601EC
:103EA000B0D22150310941095109569547953795AE
:103EB0002795211580E1380790F0E889F98910826B
:103EC00060E874E88EE190E0A70196019AD2215053
:103ED0003109410951095695479537952795EC8544
:103EE000FD853083EE85FF852083188EEC89FD8962
:103EF0001083EA89FB89808180618083EA89FB895C
:103F0000808188608083EA89FB89808180688083E2
:103F1000EA89FB8980818F7D8083DF91CF911F911A
:103F2000FF90EF90DF90CF9008951F920F920FB601
:103F30000F9211240BB60F922F938F939F93EF93B1
:103F4000FF93E0916603F09167038081E0916C0339
:103F5000F0916D0382FD1DC0908180916F038F5F92
:103F60008F7320917003821741F0E0916F03F0E0AE
:103F7000EA5AFC4F958F80936F03FF91EF919F91C9
:103F80008F912F910F900BBE0F900FBE0F901F902F
:103F900018958081F2CF1F920F920FB60F921124C5
:103FA0000BB60F922F933F934F935F936F937F9333
:103FB0008F939F93AF93BF93EF93FF9386E593E027
:103FC000C7DEFF91EF91BF91AF919F918F917F914C
:103FD0006F915F914F913F912F910F900BBE0F907A
:103FE0000FBE0F901F901895E6E5F3E01382128242
:103FF00088EE93E0A0E0B0E084839583A683B78346
:1040000083E193E09183808385EC90E095878487BA
:1040100084EC90E09787868780EC90E0918B808B92
:1040200081EC90E0938B828B82EC90E0958B848B7B
:1040300086EC90E0978B868B118E128E138E148EE9
:1040400008951F920F920FB60F9211240BB60F9284
:104050002F938F939F93EF93FF93E0910304F0913D
:1040600004048081E0910904F0910A0482FD1DC0DE
:10407000908180910C048F5F8F7320910D048217C3
:1040800041F0E0910C04F0E0ED50FC4F958F8093EF
:104090000C04FF91EF919F918F912F910F900BBE88
:1040A0000F900FBE0F901F9018958081F2CF1F9236
:1040B0000F920FB60F9211240BB60F922F933F93CE
:1040C0004F935F936F937F938F939F93AF93BF9320
:1040D000EF93FF9383EF93E03BDEFF91EF91BF916E
:1040E000AF919F918F917F916F915F914F913F9190
:1040F0002F910F900BBE0F900FBE0F901F90189531
:10410000E3EFF3E01382128288EE93E0A0E0B0E0E8
:1041100084839583A683B78383E193E0918380832F
:104120008DEC90E0958784878CEC90E0978786876C
:1041300088EC90E0918B808B89EC90E0938B828B64
:104140008AEC90E0958B848B8EEC90E0978B868B3D
:10415000118E128E138E148E08951F920F920FB629
:104160000F9211240BB60F922F938F939F93EF937F
:10417000FF93E091A004F091A1048081E091A60456
:10418000F091A70482FD1DC090818091A9048F5FEA
:104190008F732091AA04821741F0E091A904F0E006
:1041A000E057FB4F958F8093A904FF91EF919F916A
:1041B0008F912F910F900BBE0F900FBE0F901F90FD
:1041C00018958081F2CF1F920F920FB60F92112493
:1041D0000BB60F922F933F934F935F936F937F9301
:1041E0008F939F93AF93BF93EF93FF9380E994E0F6
:1041F000AFDDFF91EF91BF91AF919F918F917F9133
:104200006F915F914F913F912F910F900BBE0F9047
:104210000FBE0F901F901895E0E9F4E01382128210
:1042200088EE93E0A0E0B0E084839583A683B78313
:1042300083E193E09183808385ED90E09587848787
:1042400084ED90E09787868780ED90E0918B808B5E
:1042500081ED90E0938B828B82ED90E0958B848B47
:1042600086ED90E0978B868B118E128E138E148EB6
:1042700008951F920F920FB60F9211240BB60F9252
:104280002F938F939F93EF93FF93E0913D05F091D0
:104290003E058081E0914305F091440582FD1DC0FB
:1042A0009081809146058F5F8F732091470582171B
:1042B00041F0E0914605F0E0E35DFA4F958F809381
:1042C0004605FF91EF919F918F912F910F900BBE1B
:1042D0000F900FBE0F901F9018958081F2CF1F9204
:1042E0000F920FB60F9211240BB60F922F933F939C
:1042F0004F935F936F937F938F939F93AF93BF93EE
:10430000EF93FF938DE295E023DDFF91EF91BF9155
:10431000AF919F918F917F916F915F914F913F915D
:104320002F910F900BBE0F900FBE0F901F901895FE
:10433000EDE2F5E01382128288EE93E0A0E0B0E0B7
:1043400084839583A683B78383E193E091838083FD
:1043500085E391E09587848784E391E0978786875A
:1043600080E391E0918B808B81E391E0938B828B52
:1043700082E391E0958B848B86E391E0978B868B2B
:10438000118E128E138E148E0895AF92BF92CF921B
:10439000DF92EF92FF920F931F93CF93DF936C0105
:1043A0007B018B01040F151FEB015E01AE18BF08E6
:1043B000C017D10759F06991D601ED91FC91019098
:1043C000F081E02DC6011995892B79F7C501DF91A0
:1043D000CF911F910F91FF90EF90DF90CF90BF9002
:1043E000AF900895DB018F939F9344D0BF91AF911D
:1043F000A29F800D911DA39F900DB29F900D11243F
:104400000895A1E21A2EAA1BBB1BFD010DC0AA1F15
:10441000BB1FEE1FFF1FA217B307E407F50720F02D
:10442000A21BB30BE40BF50B661F771F881F991FA8
:104430001A9469F760957095809590959B01AC01F1
:10444000BD01CF010895EE0FFF1F881F8BBF07909E
:10445000F691E02D1994A29FB001B39FC001A39FD4
:10446000700D811D1124911DB29F700D811D1124AD
:10447000911D0895F0DFA59F900DB49F900DA49F0E
:0C448000800D911D11240895F894FFCFC9
:10448C0000000000000000005577F5445577F54416
:10449C000626E63C000000000000000000000000C2
:1044AC000000000000000000000000000000C842F6
:1044BC000000C842AA98A43FFA98AE42FA98AE42BD
:1044CC00000080BF0000004000000040CDCCCC3F7D
:1044DC0000000000000000C0666666C00000803F5F
:1044EC000000803FCDCCCCBDCDCCCC3D0000003FFE
:1044FC000000A0C00000003F0000A0400AD7233CF1
:10450C000000000000009041000098417C262539F5
:10451C000000C84200000000000000000AD7233C45
:10452C00000000000AD7233C0AD7233C0AD7233CBF
:10453C000AD7233C000080BF00007F43000000002E
:10454C0000007F4300000000000080BF00007F439C
:10455C000000000000007F43000000000000803FCE
:10456C00B76DDBB6C7FC0203FE19FE19FE19FE1966
:10457C00FE19FE19FE19FE190134030001FFFFFF9D
:10458C00FFFFFFFFFFFFFFFFFFFFFF05040302001C
:10459C00000000E91EC521991ECA1E6B1E851E77E0
:0245AC001E00EF
:00000001FF
