:100000002BC100000C94B2160C94DD160C9408174A
:100010000C9433170C945E170C9489170C94B41736
:100020000C94DF174AC1000048C1000046C100001F
:1000300044C1000042C1000040C100003EC10000B8
:100040003CC100003AC1000038C1000036C10000C8
:1000500034C1000032C1000030C100000C940A1805
:100060002CC100000C94AB1B0C94E11B26C10000BA
:1000700024C1000022C1000020C100001EC10000F8
:100080001CC100001AC1000018C1000016C1000008
:100090000C94371C0C946D1C10C100000EC10000A4
:1000A0000CC100000AC1000008C1000006C1000028
:1000B00004C1000002C1000000C10000FEC0000039
:1000C000FCC00000FAC000000C9444120C94C31C45
:1000D0000C94F91CF2C000000C944F1D0C94851D6B
:1000E000ECC00000084AD73B3BCE016E84BCBFFD8C
:1000F000C12F3D6C74319ABD56833DDA3D00C77FF8
:1001000011BED9E4BB4C3E916BAAAABE0000008090
:100110003F05A84CCDB2D44EB93836A9020C50B91F
:10012000918688083CA6AAAA2ABE000000803F004B
:1001300000000A0B02090C0D0E0807030401000061
:1001400000000000000000000000000000000000AF
:10015000000000000000000000000000121110006C
:10016000000000000000000000000000000000008F
:1001700000000000000001021020200808102040AC
:10018000102040800201020108040201010204085B
:1001900010204080804020100804020180040201E9
:1001A0008040201008040201080402010102040832
:1001B000102040800102040810204080050505053C
:1001C000070508080808020202020A0A08080404CF
:1001D00004040101010101010101030303030303FD
:1001E0000303040707070C0C0C0C0C0C0C0C02028C
:1001F000020206060606060606060B0B0B0B0B0B89
:100200000B0B000020002300260029002C002F00EB
:100210003200000100000301060109010000220074
:10022000250028002B002E003100340002010000C0
:10023000050108010B0100002100240027002A000D
:100240002D003000330001010000040107010A0104
:100250000A1C961C221DAE1D11241FBECFEFD1E239
:10026000DEBFCDBF00E00CBF13E0A0E0B2E0E8E6E7
:10027000FCE300E00BBF02C007900D92AE31B10766
:10028000D9F726E0AEE1B3E001C01D92AB35B2076D
:10029000E1F711E0CCE2D1E000E006C021970109CE
:1002A000802FFE010E942A1EC832D10780E0080775
:1002B000A9F70E94AB120C94321EA2CECF92DF920D
:1002C000EF92FF92CF93882351F16A017B01CFEF28
:1002D000C80F20E030E0A901CB01B6010E94A913AC
:1002E00087FF11C0C701B60190580E941B149B01E3
:1002F000AC016C2F70E090E080E0CF91FF90EF9028
:10030000DF90CF90B2C0C701B6010E9416148C2FA7
:10031000CF91FF90EF90DF90CF900C94B618CF91D3
:10032000FF90EF90DF90CF9008950F931F938B0174
:100330009C0183E036952795179507958A95D1F707
:10034000025E1C4F462F477021E030E0F90102C0E9
:10035000EE0FFF1F4A95E2F7AF01F8012081242339
:10036000CB010196211102C090E080E01F910F9116
:1003700008950F931F938B019C0183E03695279579
:10038000179507958A95D1F7677081E090E001C0D5
:10039000880F6A95EAF7F801E25EFC4F2081452B51
:1003A00031F48095822380831F910F910895822BD1
:1003B000FACF2F923F924F925F926F927F928F92DD
:1003C0009F92AF92BF92CF92DF92EF92FF920F93E4
:1003D0001F93CF93DF93D62EC72E782E692E490117
:1003E0005A01280161E08D2D0E94F019CD2DDC2DE0
:1003F0008E010F5F1F4FA8016D2D7C2D872D962D2F
:10040000B8DF20E030E0A901C201B7010E94571512
:10041000181664F4C201B7010E941B142B01C50118
:10042000B4010E941B14A201CE0123D0C801DF91A8
:10043000CF911F910F91FF90EF90DF90CF90BF90E1
:10044000AF909F908F907F906F905F904F903F9074
:100450002F900895882341F08150682F70E090E03C
:1004600080E050E040E085CF0895862FB9010C94DC
:10047000B6189C01FC01E05DFE4FE491E150E231D1
:10048000E0F4F0E08827E85BFD4F8F4F0C942A1EC4
:100490005A02610264027B0290025D02A502B1026F
:1004A000B502CC02E102F6020D0322035D0237031E
:1004B0004E03630384B5806884BD60E0822F0C9492
:1004C0002C1A84B58062F8CF809180008C7F826086
:1004D0008093800080918100807E8061682B609392
:1004E000810050938700409386008091800080684F
:1004F00080938000E2CF809180008C7F8260809327
:10050000800080918100807E8061682B60938100F3
:100510005093870040938600809180008062E8CFEE
:10052000809180008C7F8260809380008091810028
:10053000807E8061682B6093810050938700409398
:100540008600809180008860D3CF8091B000806861
:100550008093B0008091B100887F682B6093B100D8
:10056000ACCF8091B0008062F3CF809190008C7FFF
:1005700082608093900080919100807E8061682BE2
:100580006093910050939700409396008091900063
:1005900080688093900091CF809190008C7F8260E2
:1005A0008093900080919100807E8061682B6093A1
:1005B0009100509397004093960080919000806244
:1005C000E8CF809190008C7F826080939000809132
:1005D0009100807E8061682B60939100509397001A
:1005E00040939600809190008860D3CF8091A000C6
:1005F0008C7F82608093A0008091A100807E8061CA
:10060000682B6093A1005093A7004093A6008091AF
:10061000A00080688093A00050CF8091A0008C7FC4
:1006200082608093A0008091A100807E8061682B11
:100630006093A1005093A7004093A6008091A00072
:100640008062E8CF8091A0008C7F82608093A000C0
:100650008091A100807E8061682B6093A1005093FF
:10066000A7004093A6008091A0008860D3CF80911E
:1006700020018C7F82608093200180912101807E07
:100680008061682B609321015093270140932601DC
:10069000809120018068809320010FCF80912001FC
:1006A0008C7F82608093200180912101807E806117
:1006B000682B60932101509327014093260180917C
:1006C00020018062E8CF809120018C7F826080933E
:1006D000200180912101807E8061682B609321013F
:1006E0005093270140932601809120018860D3CF49
:1006F0008F929F92AF92BF92CF92DF92EF92FF9232
:10070000CF93DF936B017C0149015A010E944D1088
:10071000882399F060914D0670914E0680914F06A6
:1007200090915006DF91CF91FF90EF90DF90CF90A6
:10073000BF90AF909F908F900895C501B4010E9423
:100740004D108111E7CFC701B6010E940A1088231E
:10075000E1F1C501B4010E940A108823B1F120E043
:1007600030E0A901C701B6010E945715CFEFDFEFB6
:10077000181614F4C1E0D0E020E030E0A901C50172
:10078000B4010E9457156FEF7FEF181614F461E063
:1007900070E0072E000C880B990B0E9449146B0126
:1007A0007C01BE01DD0F880B990B0E944914A70143
:1007B0009601DF91CF91FF90EF90DF90CF90BF90A7
:1007C000AF909F908F900C94561320E030E0A901D9
:1007D000C501B4010E94A913811116C020E030E0C8
:1007E000A901C701B6010E945715181694F020E020
:1007F00030E0A901C701B6010E94A91387FD0EC010
:1008000060E070E0CB018ECFA5019401C701B60175
:10081000D0CF6BED7FE089EC9FE384CF6BED7FE081
:1008200089EC9FEB7FCF4F925F926F927F928F9276
:100830009F92AF92BF92CF92DF92EF92FF920F936F
:100840001F93CF93DF93CDB7DEB76C970FB6F894B5
:10085000DEBF0FBECDBF1F9281E08F939CE8892E33
:1008600092E0992EAA24A394B12C38E8C32E32E04A
:10087000D32EEE24E394F12C05EE12E021E030E0DB
:1008800044EE52E061E176E08DED95E00E94391191
:100890008090900290909102A0909202B09093026A
:1008A000C0909402D0909502E0909602F09097024A
:1008B0006091DD057091DE058091DF059091E00586
:1008C0000E944914A50194010E946215A701960196
:1008D0000E9462156D877E878F87988B2091150601
:1008E0003091160640911706509118060E94E212A8
:1008F0006D837E838F8398876091E1057091E20517
:100900008091E3059091E4050E944914A5019401AA
:100910000E946215A70196010E946215698B7A8B6D
:100920008B8B9C8B2091190630911A0640911B06E7
:1009300050911C060E94E21269877A878B879C87F8
:1009400020917002309171024091720250917302B5
:100950006D817E818F8198850E9462156B017C017B
:10096000209178023091790240917A0250917B0275
:1009700069857A858B859C850E9462159B01AC01F7
:10098000C701B6010E94E3126093D9057093DA059E
:100990008093DB059093DC058AE999E9A9E9BEE338
:1009A0008093C5059093C605A093C705B093C8056D
:1009B000C0902106D0902206E0902306F0902406F5
:1009C0000F900F9020E030E040E850E4C701B601FE
:1009D0000E94A91318160CF4DCC42DEC3CEC4CE47A
:1009E0005DE360910D0670910E0680910F06909167
:1009F00010060E94A91320E030E0A90187FF69C119
:100A0000C701B6010E94A913811101C28DEC9CECB3
:100A1000ACE4BDE38093C9059093CA05A093CB05D0
:100A2000B093CC05C0900D06D0900E06E0900F0656
:100A3000F090100620E030E040E85FE360911D0692
:100A400070911E0680911F06909120060E94A913A6
:100A50008111B0C420E030E0A901C701B6010E94B5
:100A6000A91387FFA7C42BED3FE049EC50E4C70171
:100A7000B6010E94E3126093C1057093C205809392
:100A8000C3059093C4052091C1053091C2054091E2
:100A9000C3055091C4056091C9057091CA05809144
:100AA000CB059091CC050E94E2126093C90570932A
:100AB000CA058093CB059093CC05209134023091E8
:100AC000350240913602509137020E946215209102
:100AD00025063091260640912706509128060E944F
:100AE000E3126B017C018090C5059090C605A09033
:100AF000C705B090C8052091600230916102409115
:100B0000620250916302C501B4010E9462152B017B
:100B10003C01209168023091690240916A02509133
:100B20006B02C701B6010E9462159B01AC01C301B3
:100B3000B2010E94E3122091390630913A064091A9
:100B40003B0650913C060E94E2126093BD057093F3
:100B5000BE058093BF059093C0052091640230913B
:100B600065024091660250916702C501B4010E947E
:100B700062154B015C0120916C0230916D02409135
:100B80006E0250916F02C701B6010E9462159B016F
:100B9000AC01C501B4010E94E31220913D063091E1
:100BA0003E0640913F06509140060E94E2126B01C2
:100BB0007C01C092C505D092C605E092C705F092AF
:100BC000C80520910002309101024091020250912B
:100BD00003020E9462152091290630912A06409155
:100BE0002B0650912C060E94E21220912C0230918B
:100BF0002D0240912E0250912F020E9462154B014E
:100C00005C018092CD059092CE05A092CF05B09266
:100C1000D005209138023091390240913A0250912A
:100C20003B02C701B6010E94621520912D0630914A
:100C30002E0640912F06509130060E94E312A50126
:100C400094010E94E3126093D1057093D2058093C2
:100C5000D3059093D4056AE070E080E090E065DB16
:100C60003C019093F4058093F3052091D1053091D8
:100C7000D2054091D3055091D4056091B002709196
:100C8000B1028091B2029091B3020E9462156B0191
:100C90007C01C092C105D092C205E092C305F092DA
:100CA000C4058090B4029090B502A090B602B090B6
:100CB000B702A50194010E94571518160CF083C3C2
:100CC0008092C1059092C205A092C305B092C4055E
:100CD0008AC3C701B6010E94A913811198C020914F
:100CE000050630910606409107065091080680904F
:100CF000090690900A06A0900B06B0900C06412CB5
:100D0000512C80E8682E8FE3782E40922106509275
:100D10002206609223067092240660914002709130
:100D2000410280914202909143020E94E2126B01C3
:100D30007C01A50194016091500270915102809153
:100D40005202909153020E94E212A7019601D0DC58
:100D50006B017C0180900D0690900E06A0900F060E
:100D6000B090100620E030E0A901C501B4010E9456
:100D7000571518160CF017C220E030E0A901C70182
:100D8000B6010E94A91387FF0EC2A7019601C501F3
:100D9000B4010E94E2122BED3FE049E450E40E94CE
:100DA0005715181644F440921D0650921E06609284
:100DB0001F067092200620E030E0A901C501B401B1
:100DC0000E94A91387FF23C020E030E0A901C701DA
:100DD000B6010E9457151816D4F4A5019401C70155
:100DE000B6010E94E2122BED3FE049E450E40E947C
:100DF0005715181664F480E090E0A0E8BFE38093F4
:100E00001D0690931E06A0931F06B09320066091C6
:100E100021067091220680912306909124060E945B
:100E200016146B01FB013F96EE0FFF1FEE0FFF1F25
:100E3000E050FE4F209105063091060640910706CE
:100E40005091080660817181828193810E94E21233
:100E50004B015C018092CD059092CE05A092CF050A
:100E6000B092D00583E1C80ED11CF601EE0FFF1F32
:100E7000EE0FFF1FE050FE4F2091090630910A0649
:100E800040910B0650910C066081718182819381A3
:100E90000E94E2126B017C01C092C905D092CA0582
:100EA000E092CB05F092CC05A5019401C501B401F7
:100EB0000E9462154B015C01A7019601C701B601B2
:100EC0000E9462159B01AC01C501B4010E94E312AE
:100ED0000E94CF156093BD057093BE058093BF053A
:100EE0009093C005C0902106D0902206E090230682
:100EF000F090240640900506509006066090070684
:100F0000709008068090090690900A06A0900B0643
:100F1000B0900C062DEC3CEC4CE45EE36091BD051A
:100F20007091BE058091BF059091C0050E94A913E4
:100F300087FF0AC020E030E040E850E4C701B60176
:100F40000E94A91387FD38C1C701B6010E9416147B
:100F50006B01FB013F96EE0FFF1FEE0FFF1FE050EE
:100F6000FE4FA301920160817181828193810E9471
:100F7000E2122B013C01A3E1CA0ED11CF601EE0FD7
:100F8000FF1FEE0FFF1FE050FE4FA501940160818F
:100F90007181828193810E94E212A3019201A8DBF8
:100FA0006B017C01C092C905D092CA05E092CB05C5
:100FB000F092CC0520E030E040E85FE360911D0650
:100FC00070911E0680911F06909120060E94A91321
:100FD000811128C020E030E0A90160910D067091D8
:100FE0000E0680910F06909110060E94A91387FFAC
:100FF00019C020E030E0A901C701B6010E94A91381
:1010000087FF10C02BED3FE049EC50E4C701B6016B
:101010000E94E3126093C9057093CA058093CB05C3
:101020009093CC058090210690902206A0902306F4
:10103000B09024068091BD059091BE05A091BF059A
:10104000B091C00589839A83AB83BC8320E030E0F4
:1010500040E85FE3C501B4010E94571518160CF073
:101060007FC02DEC3CEC4CE45EE369817A818B819E
:101070009C810E94A91387FF0CC08DEC9CECACE412
:10108000BEE38093C5059093C605A093C705B093B2
:10109000C80520E030E040E85FE3C501B4010E94EC
:1010A000E2120E9416146B01FB013F96EE0FFF1F28
:1010B000EE0FFF1FE050FE4F20910506309106060F
:1010C0004091070650910806608171818281938169
:1010D0000E94E2122B013C0193E1C90ED11CF601E2
:1010E000EE0FFF1FEE0FFF1FE050FE4F209109068D
:1010F00030910A0640910B0650910C066081718177
:10110000828193810E94E2126B017C01A301920112
:10111000C301B2010E9462152B013C01A701960197
:10112000C701B6010E9462159B01AC01C301B20167
:101130000E94E3120E94CF152DEC3CEC4CE45EE3E0
:101140000E94A91387FF0CC08DEC9CECACE4BEE3BD
:101150008093C5059093C605A093C705B093C805B5
:101160002DEC3CEC4CEC5DE369817A818B819C81B8
:101170000E94A91387FF56CC20E030E040E850E4FD
:10118000C501B4010E94A91381114CCC80E090E00C
:10119000A0EAB0E48093210690932206A093230650
:1011A000B09324063FCC10921D0610921E0610929A
:1011B0001F0610922006FFCD20E030E040E85FE3FC
:1011C000C701B6010E94E3126093210670932206C4
:1011D00080932306909324060E9416146B01FB0152
:1011E0003F96EE0FFF1FEE0FFF1FE050FE4FA301D3
:1011F000920160817181828193810E94E2122B01B0
:101200003C014092BD055092BE056092BF057092B0
:10121000C00593E1C90ED11CF601EE0FFF1FEE0FC2
:10122000FF1FE050FE4FA501940160817181828112
:1012300093810E94E2126093CD057093CE05809356
:10124000CF059093D005A301920152DA6B017C0186
:10125000C092C905D092CA05E092CB05F092CC05A8
:101260006091BD057091BE058091BF059091C0054C
:101270008090CD059090CE05A090CF05B090D00580
:101280009B01AC010E9462152B013C01A501940158
:10129000C501B4010E9462159B01AC01C301B201FA
:1012A0000E94E3120E94CF156093BD057093BE05A6
:1012B0008093BF059093C00580900D0690900E0618
:1012C000A0900F06B090100620E030E0A901C50103
:1012D000B4010E94571518160CF052C020E030E0FF
:1012E000A901C701B6010E94A91387FF49C0A70140
:1012F0009601C501B4010E94E2122BED3FE049E4E2
:1013000050E40E945715181664F480E090E0A0E8BD
:10131000BFE380931D0690931E06A0931F06B09313
:10132000200620E030E0A901C501B4010E94A91304
:1013300087FFD8CD20E030E0A901C701B6010E94A7
:10134000571518160CF0CECDA5019401C701B601B2
:101350000E94E2122BED3FE049E450E40E94571551
:1013600018160CF0BFCD80E090E0A0E8BFE38093BA
:101370001D0690931E06A0931F06B0932006B2CDC3
:1013800010921D0610921E0610921F061092200643
:10139000C8CF1092C9051092CA051092CB051092C1
:1013A000CC051092C5051092C6051092C705109283
:1013B000C80538CBC092C105D092C205E092C305E2
:1013C000F092C40560CB8090B8029090B902A090D2
:1013D000BA02B090BB02A5019401C701B6010E94F8
:1013E000A91387FD6DCC20E030E04FE753E4609116
:1013F000C1057091C2058091C3059091C4050E94FA
:10140000A913181664F480E090E0AFE7B3E480938A
:10141000C1059093C205A093C305B093C40520E015
:1014200030E0A9016091C1057091C2058091C305AA
:101430009091C4050E94571587FF08C01092C105FE
:101440001092C2051092C3051092C4054091C105C7
:101450005091C2056091C3057091C405C3010E94FB
:101460005E016BE070E080E090E00E9495013C013D
:101470009093EC058093EB058090D1059090D20578
:10148000A090D305B090D405C090BC02D090BD020E
:10149000E090BE02F090BF02A7019601C501B40121
:1014A0000E94571518164CF4C092D105D092D2055F
:1014B000E092D305F092D40510C0C090C002D09045
:1014C000C102E090C202F090C302A7019601C501DB
:1014D000B4010E94A91387FDE7CF20E030E04FE779
:1014E00053E46091D1057091D2058091D30590911C
:1014F000D4050E94A913181664F480E090E0AFE7C9
:10150000B3E48093D1059093D205A093D305B09313
:10151000D40520E030E0A9016091D1057091D20599
:101520008091D3059091D4050E94571587FF08C07C
:101530001092D1051092D2051092D3051092D405C5
:101540004091D1055091D2056091D3057091D40599
:10155000C3010E945E018090BD059090BE05A090E1
:10156000BF05B090C0052091040230910502409162
:10157000060250910702C501B4010E946215209134
:1015800031063091320640913306509134060E9464
:10159000E21220913002309131024091320250919A
:1015A00033020E9462156B017C01C092D105D0927A
:1015B000D205E092D305F092D40520913C023091FF
:1015C0003D0240913E0250913F02C501B4010E948C
:1015D00062152091350630913606409137065091BC
:1015E0003806F1D7A7019601EED76093D505709321
:1015F000D6058093D7059093D80568E070E080E029
:1016000090E00E9495013C019093040680930306AC
:101610002091D5053091D6054091D7055091D80538
:101620006091CC027091CD028091CE029091CF0258
:101630000E9462156B017C01C092C105D092C20567
:10164000E092C305F092C4058090D0029090D10240
:10165000A090D202B090D302A50194010E94571528
:1016600018164CF48092C1059092C205A092C30551
:10167000B092C40510C08090D4029090D502A09082
:10168000D602B090D702A5019401C701B6010E940D
:10169000A91387FDE7CF20E030E04FE753E46091E6
:1016A000C1057091C2058091C3059091C4050E9447
:1016B000A913181664F480E090E0AFE7B3E48093D8
:1016C000C1059093C205A093C305B093C40520E063
:1016D00030E0A9016091C1057091C2058091C305F8
:1016E0009091C4050E94571587FF08C01092C1054C
:1016F0001092C2051092C3051092C4054091C10515
:101700005091C2056091C3057091C405C3010E9448
:101710005E0169E070E080E090E00E9495013C018C
:101720009093FC058093FB058090D5059090D6059D
:10173000A090D705B090D805C090D802D090D9021B
:10174000E090DA02F090DB02A7019601C501B40136
:101750000E94571518164CF4C092D505D092D605A4
:10176000E092D705F092D8050FC0C090DC02D0906F
:10177000DD02E090DE02F090DF02A7019601C501D4
:10178000B401E7D787FDE8CF20E030E04FE753E42E
:101790006091D5057091D6058091D7059091D805B7
:1017A000D8D7181664F480E090E0AFE7B3E48093F4
:1017B000D5059093D605A093D705B093D80520E022
:1017C00030E0A9016091D5057091D6058091D705CB
:1017D0009091D8050E94571587FF08C01092D50533
:1017E0001092D6051092D7051092D8054091D505D4
:1017F0005091D6056091D7057091D805C3010E941C
:101800005E0180900D0690900E06A0900F06B0909D
:101810001006C501B401A1D7C090D905D090DA0552
:10182000E090DB05F090DC052091E0023091E102D0
:101830004091E2025091E3020E946215A7019601D5
:101840000E9462156D8B7E8B8F8B988F6093D50570
:101850007093D6058093D7059093D805C501B40140
:101860000E94C5159B01AC01C701B6010E9462151B
:101870006B017C01C092D905D092DA05E092DB05BC
:10188000F092DC058091050690910606A09107066E
:10189000B091080689839A83AB83BC838093C1058A
:1018A0009093C205A093C305B093C4058091090627
:1018B00090910A06A0910B06B0910C06898F9A8F21
:1018C000AB8FBC8F4090800250908102609082026A
:1018D00070908302A30192016D897E898F89988D12
:1018E0000E94621529813A814B815C816CD660939C
:1018F0000506709306068093070690930806A301D9
:101900009201C701B6010E946215298D3A8D4B8D57
:101910005C8D59D66093090670930A0680930B0676
:1019200090930C06209174023091750240917602DA
:10193000509177026D817E818F8198850E9462151A
:101940006B017C0120917C0230917D0240917E02EE
:1019500050917F0269857A858B859C850E946215EE
:101960009B01AC01C701B6012ED6A30192010E94D2
:101970006215A501940127D660930D0670930E069B
:1019800080930F06909310061F9281E08F938CE84E
:10199000882E82E0982EAA24A394B12C28E8C22E87
:1019A00022E0D22EEE24E394F12C05EE12E021E0A9
:1019B00030E044EE52E061E176E08DED95E08AD4CE
:1019C0002091C9053091CA054091CB055091CC05B5
:1019D0006091100270911102809112029091130295
:1019E0000E9462152091A0023091A1024091A202B2
:1019F0005091A3020E94621520912506309126067F
:101A00004091270650912806DED5609325067093F5
:101A1000260680932706909328068D859E85AF85A0
:101A2000B8898093150690931606A0931706B09375
:101A300018068D819E81AF81B88580933906909379
:101A40003A06A0933B06B0933C0689899A89AB89F4
:101A5000BC898093190690931A06A0931B06B09335
:101A60001C0689859A85AB85BC8580933D0690933D
:101A70003E06A0933F06B09340062091CD053091DD
:101A8000CE054091CF055091D0056091A80270918C
:101A9000A9028091AA029091AB020E946215209146
:101AA000290630912A0640912B0650912C068BD5A1
:101AB0006093290670932A0680932B0690932C0638
:101AC0002091C5053091C6054091C7055091C805C4
:101AD000609108027091090280910A0290910B02B4
:101AE000F1D72091AC023091AD024091AE025091FD
:101AF000AF02E8D720912D0630912E0640912F0697
:101B00005091300660D560932D0670932E06809319
:101B10002F06909330062091D1053091D205409147
:101B2000D3055091D4056091C4027091C502809193
:101B3000C6029091C702C6D7209131063091320675
:101B400040913306509134063ED560933106709330
:101B5000320680933306909334062091BD05309170
:101B6000BE054091BF055091C00560910C02709177
:101B70000D0280910E0290910F02A4D72091C8020D
:101B80003091C9024091CA025091CB029BD720915B
:101B9000350630913606409137065091380613D5F8
:101BA0006093350670933606809337069093380617
:101BB0000F900F906C960FB6F894DEBF0FBECDBF9E
:101BC000DF91CF911F910F91FF90EF90DF90CF9019
:101BD000BF90AF909F908F907F906F905F904F904D
:101BE00008958F929F92AF92BF92DF92EF92FF92F1
:101BF0000F931F93CF93DF9384E090E0D4D1E0E084
:101C0000F2E08091840290918502A0918602B091C9
:101C10008702C5EED5E088A399A3AAA3BBA38CA392
:101C20009DA3AEA3BFA388A799A7AAA7BBA71CA6DD
:101C30001DA61EA61FA68091980290919902A091C0
:101C40009A02B0919B0288AF99AFAAAFBBAF8091C7
:101C50009C0290919D02A0919E02B0919F028CAF38
:101C60009DAFAEAFBFAF80A191A1A2A1B3A1809360
:101C7000250690932606A0932706B093280644894C
:101C800055896689778948AB59AB6AAB7BAB809144
:101C9000A4029091A502A091A602B091A702809300
:101CA000390690933A06A0933B06B0933C064CABA2
:101CB0005DAB6EAB7FAB80933D0690933E06A093E9
:101CC0003F06B0934006808D918DA28DB38D809399
:101CD000290690932A06A0932B06B0932C0684A184
:101CE00095A1A6A1B7A180932D0690932E06A0934F
:101CF0002F06B0933006848D958DA68DB78D809379
:101D0000310690933206A0933306B093340680A533
:101D100091A5A2A5B3A58093350690933606A0930E
:101D20003706B093380618861D86812C912C5401F5
:101D3000839489869A86AB86BC86E12CF12C870138
:101D4000A80197016AE070E080E090E00E94D9016C
:101D50009F878E87DD24D394DD8618821D82898239
:101D60009A82AB82BC82A80197016BE070E080E0B0
:101D700090E00E94D9019F838E83DD82188E1D8E94
:101D8000898E9A8EAB8EBC8EA801970168E070E0B8
:101D900080E090E00E94D9019F8F8E8FDD8E188A9F
:101DA0001D8A898A9A8AAB8ABC8AA801970169E050
:101DB00070E080E090E00E94D9019F8B8E8BDD8ADD
:101DC000DF91CF911F910F91FF90EF90DF90BF9027
:101DD000AF909F908F9008958091ED0581112EC056
:101DE00081E08093ED058091EE059091EF05A09143
:101DF000F005B091F1050197A105B105F9F48091C5
:101E0000F2058823D9F06AE070E080E090E00E945B
:101E100095019093F4058093F30540E050E0BA01FA
:101E20000E945E016AE070E080E090E00E9495010F
:101E30009093F4058093F3050E942A028091E505B2
:101E400081112EC081E08093E5058091E605909197
:101E5000E705A091E805B091E9050197A105B10555
:101E6000F9F48091EA058823D9F06BE070E080E016
:101E700090E00E9495019093EC058093EB0540E083
:101E800050E0BA010E945E016BE070E080E090E0FB
:101E90000E9495019093EC058093EB050E942A0225
:101EA0008091FD0581112EC081E08093FD05809118
:101EB000FE059091FF05A0910006B09101060197E3
:101EC000A105B105F9F4809102068823D9F068E0F4
:101ED00070E080E090E00E9495019093040680936A
:101EE000030640E050E0BA010E945E0168E070E045
:101EF00080E090E00E949501909304068093030691
:101F00000E942A028091F50581112EC081E0809304
:101F1000F5058091F6059091F705A091F805B0912F
:101F2000F9050197A105B105F9F48091FA05882317
:101F3000D9F069E070E080E090E00E949501909314
:101F4000FC058093FB0540E050E0BA010E945E0171
:101F500069E070E080E090E00E9495019093FC05BC
:101F60008093FB050C942A02089560E070E080E8FD
:101F70009FE7089560E070E080E89FE7089560E0E3
:101F800070E080E89FEF089560E070E080E89FEFE8
:101F9000089560E070E080EC9FEF089560E070E0ED
:101FA00080EC9FEF0895F5DF60934D0670934E0629
:101FB00080934F0690935006F1DF60934106709333
:101FC00042068093430690934406CFDF6093490610
:101FD00070934A0680934B0690934C06CBDF609338
:101FE0004506709346068093470690934806C7DFE0
:101FF0006093510670935206809353069093540653
:10200000C3DF6093550670935606809357069093EE
:1020100058060895CF92DF92EF92FF92CF936B0113
:102020007C01AC019B016091490670914A06809148
:102030004B0690914C068DD3C1E0882369F0A7012F
:1020400096016091510670915206809153069091CD
:1020500054067FD38111C0E08C2FCF91FF90EF9079
:10206000DF90CF9008950F931F938B019C01002761
:10207000112720783F770115110520483F4749F483
:10208000AB01BC016F77772781E0452B462B472BAF
:1020900009F480E01F910F910895E5CFCF93DF936E
:1020A0008091290390912A030E94591AEC01809192
:1020B0002B0390912C030E94591A0197C1F480912F
:1020C0002D0390912E03A0912F03B09130032197FF
:1020D000C1F40196A11DB11D80932D0390932E0391
:1020E000A0932F03B0933003DF91CF910895809197
:1020F0002D0390912E03A0912F03B0913003CD2B8F
:1021000041F30197A109B109E7CFCF93DF93809104
:102110003303909134030E94591AEC0180913503E6
:10212000909136030E94591A0197C1F480913703A8
:1021300090913803A0913903B0913A032197C1F4EB
:102140000196A11DB11D8093370390933803A0938E
:102150003903B0933A03DF91CF910895809137030B
:1021600090913803A0913903B0913A03CD2B41F3FC
:102170000197A109B109E7CFCF93DF938091350390
:10218000909136030E94591AEC018091330390918B
:1021900034030E94591A0197C1F48091370390913A
:1021A0003803A0913903B0913A03CD2BC1F40196C5
:1021B000A11DB11D8093370390933803A093390379
:1021C000B0933A03DF91CF910895809137039091B6
:1021D0003803A0913903B0913A03219741F3019755
:1021E000A109B109E7CFCF93DF9380912B039091A1
:1021F0002C030E94591AEC018091290390912A0323
:102200000E94591A0197C1F480912D0390912E03D9
:10221000A0912F03B0913003CD2BC1F40196A11DE5
:10222000B11D80932D0390932E03A0932F03B093A1
:102230003003DF91CF91089580912D0390912E036B
:10224000A0912F03B0913003219741F30197A10989
:10225000B109E7CF02978431910540F488509D4F32
:10226000FC018081082E000C990B08958FEF9FEFE1
:1022700008950F931F93CF93DF93CDB7DEB78C01F3
:1022800020E030E040E85FE3FB0160817181828102
:1022900093815FD2811119C080912D0390912E03FB
:1022A000A0912F03B0913003F80180839183A28322
:1022B000B3838091370390913803A0913903B09193
:1022C0003A0384839583A683B783DF91CF911F91CF
:1022D0000F9108958F929F92AF92BF92CF92DF920B
:1022E000EF92FF920F931F93CF93DF93CDB7DEB79B
:1022F0007B015A0120E030E040E85FE3FB016081B0
:1023000071818281938125D2882309F48BC0F501E4
:10231000808190E090932A0380932903F8018081C3
:1023200090E090932C0380932B03F60160817181E0
:10233000828193817BD27093340360933303F401E1
:10234000608171818281938171D270933603609331
:1023500035038091290390912A0360E00E94F019CF
:1023600080912B0390912C0360E00E94F0198091E2
:1023700033039091340360E00E94F019809135039B
:102380009091360360E00E94F019809129039091AA
:102390002A0361E00E942C1A80912B0390912C0358
:1023A00061E00E942C1A809133039091340361E024
:1023B0000E942C1A809135039091360361E00E94AF
:1023C0002C1A8091290390912A0344DF41E050E0C8
:1023D00063EF70E14ED480912B0390912C033ADF90
:1023E00041E050E06EE470E144D480913303909179
:1023F000340330DF41E050E06CEB70E13AD480917F
:1024000035039091360326DF41E050E065E870E146
:1024100030D480E090E0A0E8BFE3F70180839183AF
:10242000A283B383DF91CF911F910F91FF90EF9023
:10243000DF90CF90BF90AF909F908F90089540E82D
:1024400055E260E070E090E080E000C081309105EE
:1024500079F01CF4892B39F008958230910561F0F0
:10246000039771F0089526E089E493E00C944B1BE8
:1024700026E086EE93E0FACF26E083E894E0F6CFFC
:1024800026E080E295E0F2CF1F920F920FB60F92F6
:1024900011240BB60F922F933F934F935F936F933B
:1024A0007F938F939F93AF93BF93EF93FF938FE8A7
:1024B0009DEF909325018093240134D0FF91EF91FB
:1024C000BF91AF919F918F917F916F915F914F914C
:1024D0003F912F910F900BBE0F900FBE0F901F904A
:1024E00018958FE89DEF9093250180932401A3E731
:1024F000B0E08C918E7F8C93E0E2F1E080818C7F64
:102500008083E1E2F1E08081877E80838081846046
:10251000808380818C7F80838C9181608C930895EF
:1025200081E0089580913D0391E0980F90933D03E1
:10253000882349F021E030E030933F0320933E03AD
:1025400080933D03089578940E941304F894809139
:102550003D038150F5CFCF93DF9310925A0610922E
:102560005906A2D56CDFC091F602D091F70219820C
:10257000188237DBF894B5DF2881398181E0232B7D
:1025800009F080E0809359067894789480915906F8
:10259000811107C021DCF89490E080E0DF91CF91B9
:1025A00008952881398181E0232B09F480E080930C
:1025B0005A0690915A0681E0911180E08093590665
:1025C000AFDFE4CF5058BB27AA270ED025C2EED1EB
:1025D00030F0F3D120F031F49F3F11F41EF4BEC16E
:1025E0000EF4E095E7FBB4C1E92F38D280F3BA17B7
:1025F000620773078407950718F071F49EF550C2BF
:102600000EF4E0950B2EBA2FA02D0B01B90190010D
:102610000C01CA01A0011124FF27591B99F0593F51
:1026200050F4503E68F11A16F040A22F232F342F99
:102630004427585FF3CF469537952795A795F040E7
:102640005395C9F77EF41F16BA0B620B730B840BFC
:10265000BAF09150A1F0FF0FBB1F661F771F881FB4
:10266000C2F70EC0BA0F621F731F841F48F487950C
:1026700077956795B795F7959E3F08F0B3CF9395FB
:10268000880F08F09927EE0F9795879508958ED1BA
:1026900058F080E891E009F49EEF8FD128F040E8EF
:1026A00051E059F45EEF09C059C1FAC1E92FE07851
:1026B000D5D168F3092E052AC1F326173707480735
:1026C000590738F00E2E07F8E02569F0E025E064A0
:1026D0000AC0EF6307F8009407FADB01B9019D0116
:1026E000DC01CA01AD01EF9348D096D10AD05F91C9
:1026F000552331F02BED3FE049E450FD49EC63CF29
:102700000895DF93DD27B92FBF7740E85FE3161602
:10271000170648075B0710F4D92FCDD19F938F93ED
:102720007F936F937AD2E4EEF0E01BD175D12F91B5
:102730003F914F915F91D2D1DD2349F09058A2EAA9
:102740002AED3FE049EC5FE3D0785D274DDFDF9174
:1027500063C1DAD008F481E0089537D1E3956DC103
:102760002CD140F023D130F021F45F3F19F0F0C0BC
:10277000511197C1F3C072D198F39923C9F355232E
:10278000B1F3951B550BBB27AA2762177307840764
:1027900038F09F5F5F4F220F331F441FAA1FA9F31A
:1027A00033D00E2E3AF0E0E830D091505040E6950C
:1027B000001CCAF729D0FE2F27D0660F771F881F6D
:1027C000BB1F261737074807AB07B0E809F0BB0B5C
:1027D000802DBF01FF2793585F4F2AF09E3F510580
:1027E00068F0B6C05EC15F3FECF3983EDCF38695BF
:1027F00077956795B795F7959F5FC9F7880F911DF6
:102800009695879597F90895E1E0660F771F881FE1
:10281000BB1F621773078407BA0720F0621B730B94
:10282000840BBA0BEE1F88F7E095089504D06894E6
:10283000B11137C108951AD188F09F5790F0B92F80
:102840009927B751A0F0D1F0660F771F881F991F05
:102850001AF0BA95C9F712C0B13081F021D1B1E0B8
:1028600008951EC1672F782F8827B85F39F0B93FC8
:10287000CCF3869577956795B395D9F73EF4909507
:102880008095709561957F4F8F4F9F4F0895E89485
:1028900009C097FB3EF490958095709561957F4FA8
:1028A0008F4F9F4F9923A9F0F92F96E9BB27939556
:1028B000F695879577956795B795F111F8CFFAF466
:1028C000BB0F11F460FF1BC06F5F7F4F8F4F9F4F97
:1028D00016C0882311F096E911C0772321F09EE8F5
:1028E000872F762F05C0662371F096E8862F70E05B
:1028F00060E02AF09A95660F771F881FDAF7880F35
:102900009695879597F90895990F0008550FAA0B8A
:10291000E0E8FEEF16161706E807F907C0F01216F2
:102920001306E407F50798F0621B730B840B950BF5
:1029300039F40A2661F0232B242B252B21F408954A
:102940000A2609F4A140A6958FEF811D811D0895E7
:1029500097F99F6780E870E060E008959FEF80EC52
:102960000895DF93CF931F930F93FF92EF92DF921F
:102970007B018C01689405C0DA2EEF01AFD0FE0117
:10298000E894A5912591359145915591AEF3EF01CC
:102990002BDEFE019701A801DA9479F7DF90EF9022
:1029A000FF900F911F91CF91DF91089500240A9419
:1029B0001616170618060906089500240A9412161A
:1029C0001306140605060895C9CF50D0E8F3E8941D
:1029D000E0E0BB279F57F0F02AED3FE049EC06C04E
:1029E000EE0FBB0F661F771F881F28F0B23A6207F1
:1029F0007307840728F0B25A620B730B840BE395BC
:102A00009A9572F7803830F49A95BB0F661F771F3E
:102A1000881FD2F7904808C1092E0394000C11F4C6
:102A2000882352F0BB0F40F4BF2B11F460FF04C0A9
:102A30006F5F7F4F8F4F9F4F0895EF93E0FF06C06A
:102A4000A2EA2AED3FE049EC5FEBCEDDE5DF0F9037
:102A5000039401FC9058E1E1F1E0F9C057FD905872
:102A6000440F551F59F05F3F71F04795880F97FB52
:102A7000991F61F09F3F79F087950895121613060C
:102A80001406551FF2CF4695F1DF08C0161617063B
:102A90001806991FF1CF8695710561050894089570
:102AA000E894BB2766277727CB0197F908952CDF99
:102AB00008F48FEF08959B01AC0160E070E080E8BE
:102AC0009FE3AEC00BD0A8CF71DF28F076DF18F0FF
:102AD000952309F03DCF42CF1124E3CFBFDFA0F310
:102AE000959FD1F3950F50E0551F629FF001729FA3
:102AF000BB27F00DB11D639FAA27F00DB11DAA1FC2
:102B0000649F6627B00DA11D661F829F2227B00D0E
:102B1000A11D621F739FB00DA11D621F839FA00D99
:102B2000611D221F749F3327A00D611D231F849FE9
:102B3000600D211D822F762F6A2F11249F57504040
:102B40008AF0E1F088234AF0EE0FFF1FBB1F661FDB
:102B5000771F881F91505040A9F79E3F510570F094
:102B6000F7CE9FCF5F3FECF3983EDCF386957795E9
:102B70006795B795F795E7959F5FC1F7FE2B880F8F
:102B8000911D9695879597F908959F931EDF0F9055
:102B900007FCEE5F52CF11F40EF4E0CE43C066DFC7
:102BA000D0F39923D9F3CEF39F57550B87FF48D025
:102BB0000024A0E640EA900180585695979528F4A5
:102BC000805C660F771F881F20F02617370748079D
:102BD00030F4621B730B840B202931294A2BA695F4
:102BE00017940794202531254A2758F7660F771F39
:102BF000881F20F026173707480730F4620B730B45
:102C0000840B200D311D411DA09581F7B901842F42
:102C10009158880F9695879508959B01AC0152CFE6
:102C2000AADDFACE9F3F31F0915020F48795779539
:102C30006795B795880F911D9695879597F9089593
:102C400091505040660F771F881FD2F708959F93C9
:102C50008F937F936F93FF93EF939B01AC0132DFD0
:102C6000EF91FF917EDE2F913F914F915F912ACF9F
:102C70000895883008F075C0E82FF0E0EE0FFF1FD0
:102C8000EA51FD4F718360838150873008F03CC06A
:102C9000E82FF0E08827E15BF94E8F4FDBC78C16F9
:102CA00056165E166A1677169816A5168091690054
:102CB0008C7F482B40936900E89A089580916900C1
:102CC000837F440F551F440F551F482B40936900C5
:102CD000E99A0895809169008F7C74E0440F551F34
:102CE0007A95E1F7482B40936900EA9A089580911C
:102CF00069008F7366E0440F551F6A95E1F7482B12
:102D000040936900EB9A089580916A008C7F482B6C
:102D100040936A00EC9A089580916A00837F440F83
:102D2000551F440F551F482B40936A00ED9A089594
:102D300080916A008F7C24E0440F551F2A95E1F7AB
:102D4000482B40936A00EE9A089580916A008F7331
:102D500096E0440F551F9A95E1F7482B40936A007F
:102D6000EF9A08951F920F920FB60F9211240BB68F
:102D70000F922F933F934F935F936F937F938F9314
:102D80009F93AF93BF93EF93FF93E091EA02F0918B
:102D9000EB021995FF91EF91BF91AF919F918F91A8
:102DA0007F916F915F914F913F912F910F900BBE4B
:102DB0000F900FBE0F901F9018951F920F920FB695
:102DC0000F9211240BB60F922F933F934F935F9363
:102DD0006F937F938F939F93AF93BF93EF93FF93E3
:102DE000E091EC02F091ED021995FF91EF91BF9106
:102DF000AF919F918F917F916F915F914F913F9193
:102E00002F910F900BBE0F900FBE0F901F90189533
:102E10001F920F920FB60F9211240BB60F922F93A1
:102E20003F934F935F936F937F938F939F93AF9352
:102E3000BF93EF93FF93E091EE02F091EF021995AB
:102E4000FF91EF91BF91AF919F918F917F916F9182
:102E50005F914F913F912F910F900BBE0F900FBE3E
:102E60000F901F9018951F920F920FB60F9211247A
:102E70000BB60F922F933F934F935F936F937F9374
:102E80008F939F93AF93BF93EF93FF93E091F002E3
:102E9000F091F1021995FF91EF91BF91AF919F9140
:102EA0008F917F916F915F914F913F912F910F90F3
:102EB0000BBE0F900FBE0F901F9018951F920F9290
:102EC0000FB60F9211240BB60F922F933F934F938F
:102ED0005F936F937F938F939F93AF93BF93EF9382
:102EE000FF93E091E602F091E7021995FF91EF91CF
:102EF000BF91AF919F918F917F916F915F914F9112
:102F00003F912F910F900BBE0F900FBE0F901F900F
:102F100018951F920F920FB60F9211240BB60F92B5
:102F20002F933F934F935F936F937F938F939F93D1
:102F3000AF93BF93EF93FF93E091E802F091E90222
:102F40001995FF91EF91BF91AF919F918F917F91D3
:102F50006F915F914F913F912F910F900BBE0F900A
:102F60000FBE0F901F9018951F920F920FB60F92E1
:102F700011240BB60F922F933F934F935F936F9350
:102F80007F938F939F93AF93BF93EF93FF93E091C2
:102F9000F202F091F3021995FF91EF91BF91AF9179
:102FA0009F918F917F916F915F914F913F912F9161
:102FB0000F900BBE0F900FBE0F901F9018951F9291
:102FC0000F920FB60F9211240BB60F922F933F93CF
:102FD0004F935F936F937F938F939F93AF93BF9321
:102FE000EF93FF93E091F402F091F5021995FF91B0
:102FF000EF91BF91AF919F918F917F916F915F9171
:103000004F913F912F910F900BBE0F900FBE0F90DD
:103010001F9018951F920F920FB60F9211242F93A5
:103020003F938F939F93AF93BF9380914103909170
:103030004203A0914303B09144033091400323E045
:10304000230F2D3758F50196A11DB11D2093400384
:103050008093410390934203A0934303B0934403AE
:103060008091450390914603A0914703B091480396
:103070000196A11DB11D8093450390934603A09333
:103080004703B0934803BF91AF919F918F913F91B8
:103090002F910F900FBE0F901F90189526E8230FC9
:1030A0000296A11DB11DD2CF789484B5826084BDF3
:1030B00084B5816084BD85B5826085BD85B581603C
:1030C00085BDEEE6F0E0808181608083E1E8F0E09C
:1030D0001082808182608083808181608083E0E8CB
:1030E000F0E0808181608083E1EBF0E080818460AA
:1030F0008083E0EBF0E0808181608083E1E9F0E0B3
:10310000808182608083808181608083E0E9F0E05B
:10311000808181608083E1EAF0E080818260808349
:10312000808181608083E0EAF0E08081816080833B
:10313000E1E2F1E080818260808380818160808330
:10314000E0E2F1E0808181608083EAE7F0E0808165
:1031500084608083808182608083808181608083BD
:103160008081806880831092C10008951F93CF935F
:10317000DF93182FEB0161E033D1209731F460E049
:10318000812FDF91CF911F9167C1CF3FD10511F4FE
:1031900061E0F6CFE12FF0E0E05DFE4FE491E15019
:1031A000E23108F0B2C0F0E08827E752F74E8F4FC7
:1031B00051C5EB18F318F81802190C1985191619CE
:1031C0001E19261930193A19441953195D19851910
:1031D000671971197B1984B5806884BDC7BDDF91FB
:1031E000CF911F91089584B5806284BDC8BDF7CF8B
:1031F00080918000806880938000D0938900C09384
:103200008800EDCF80918000806280938000D09311
:103210008B00C0938A00E3CF809180008860809308
:103220008000D0938D00C0938C00D9CF8091B000E6
:1032300080688093B000C093B300D1CF8091B0007C
:1032400080628093B000C093B400C9CF8091900099
:10325000806880939000D0939900C0939800BFCF6E
:1032600080919000806280939000D0939B00C093E7
:103270009A00B5CF80919000886080939000D093A1
:103280009D00C0939C00ABCF8091A000806880938C
:10329000A0008091A0008F7B8093A000D093A90014
:1032A000C093A8009CCF8091A00080628093A00072
:1032B000D093AB00C093AA0092CF8091A000886009
:1032C0008093A000D093AD00C093AC0088CF8091D4
:1032D0002001806880932001D0932901C0932801A8
:1032E0007ECF80912001806280932001D0932B01BA
:1032F000C0932A0174CF80912001886080932001BF
:10330000D0932D01C0932C016ACFC038D1050CF0A9
:103310003FCF35CF8150823108F059C0E82FF0E01F
:103320008827EB56F64E8F4F95C4B519B919A719D2
:10333000AD19B119E719BC19C219C619CC19D019A0
:10334000D419DA19DE19E719E219E819EC19809194
:1033500080008F77809380000895809180008F7D1A
:10336000F9CF80918000877FF5CF84B58F7784BDBA
:10337000089584B58F7DFBCF8091B0008F778093C7
:10338000B00008958091B0008F7DF9CF80919000BA
:103390008F77809390000895809190008F7DF9CF72
:1033A00080919000877FF5CF8091A0008F778093E8
:1033B000A00008958091A0008F7DF9CF8091A0009A
:1033C000877FF5CF809120018F778093200108952A
:1033D000809120018F7DF9CF80912001877FF5CFEB
:1033E000CF93DF9390E0FC01EA58FE4F2491845480
:1033F0009E4FFC0184918823C9F090E0880F991FAB
:10340000FC01EA5CFD4FA591B491FC01E45EFD4F27
:10341000C591D49161110DC09FB7F8948C912095FE
:1034200082238C938881282328839FBFDF91CF91AB
:103430000895623051F49FB7F8943C91822F8095A3
:1034400083238C93E8812E2BEFCF8FB7F894EC91E8
:103450002E2B2C938FBFEACF1F93CF93DF93282F70
:1034600030E0F901E05DFE4F8491F901EA58FE4F2A
:10347000D491F901E454FE4FC491CC23A1F0162F4E
:10348000811148DFEC2FF0E0EE0FFF1FE45EFD4FEF
:10349000A591B4918FB7F894EC91111108C0D09513
:1034A000DE23DC938FBFDF91CF911F910895DE2B38
:1034B000F8CFCF93DF93282F30E0F901E05DFE4F86
:1034C0008491F901EA58FE4FD491F901E454FE4F7A
:1034D000C491CC2399F081111DDFEC2FF0E0EE0FA9
:1034E000FF1FEE5FFD4FA591B491EC91ED2381E0BC
:1034F00090E009F480E0DF91CF91089580E090E0C2
:10350000FACFFC01918D228D892F90E0805C9F4F36
:10351000821B91098F7399270895FC01918D828DEB
:10352000981731F0828DE80FF11D858D90E0089598
:103530008FEF9FEF0895FC01918D828D981761F0B8
:10354000A28DAE0FBF2FB11D5D968C91928D9F5FA6
:103550009F73928F90E008958FEF9FEF0895FC0185
:10356000538D448D252F30E0842F90E0821B930BE8
:10357000541710F0CF96089501970895FC01A48D7B
:10358000A80FB92FB11DA35ABF4F2C91848D90E085
:1035900001968F739927848FA689B7892C93A08968
:1035A000B1898C91837080648C93938D848D9813F2
:1035B00006C00288F389E02D80818F7D8083089585
:1035C000CF93DF93EC01888D8823B1F0AA89BB8962
:1035D000E889F9898C9185FD03C0808186FD0CC046
:1035E0000FB607FCF7CF8C9185FFF2CF808185FF66
:1035F000EDCFCE01C3DFEACFDF91CF910895EF92F7
:10360000FF920F931F93CF93DF93EC0181E0888F9C
:103610009B8D8C8D98131AC0E889F989808185FF6C
:1036200015C09FB7F894EE89FF896083E889F9890E
:1036300080818370806480839FBF81E090E0DF9110
:10364000CF911F910F91FF90EF900895F62E0B8D63
:1036500010E00F5F1F4F0F731127E02E8C8D8E111E
:103660000BC00FB607FCFACFE889F989808185FF86
:10367000F5CFCE0183DFF2CFEB8DEC0FFD2FF11DE7
:10368000E35AFF4FF0829FB7F8940B8FEA89FB89CA
:1036900080818062D0CFCF92DF92EF92FF921F9312
:1036A000CF93DF93EC016A017B01122FE889F9893E
:1036B00082E08083C11481EED806E104F10499F020
:1036C00060E079E08DE390E0A7019601A1D221505E
:1036D0003109410951095695479537952795211587
:1036E00080E1380790F0E889F989108260E874E891
:1036F0008EE190E0A70196018BD22150310941095A
:1037000051095695479537952795EC85FD8530836A
:10371000EE85FF852083188EEC89FD891083EA8968
:10372000FB89808180618083EA89FB898081886050
:103730008083EA89FB89808180688083EA89FB89AC
:1037400080818F7D8083DF91CF911F91FF90EF90DB
:10375000DF90CF9008951F920F920FB60F92112411
:103760000BB60F922F938F939F93EF93FF93E0915C
:103770005903F0915A038081E0915F03F091600357
:1037800082FD1DC09081809162038F5F8F732091B5
:103790006303821741F0E0916203F0E0E75BFC4FC6
:1037A000958F80936203FF91EF919F918F912F915D
:1037B0000F900BBE0F900FBE0F901F901895808139
:1037C000F2CF1F920F920FB60F9211240BB60F92E9
:1037D0002F933F934F935F936F937F938F939F9319
:1037E000AF93BF93EF93FF9389E493E0C7DEFF911C
:1037F000EF91BF91AF919F918F917F916F915F9169
:103800004F913F912F910F900BBE0F900FBE0F90D5
:103810001F901895E9E4F3E01382128288EE93E09A
:10382000A0E0B0E084839583A683B78380E193E032
:103830009183808385EC90E09587848784EC90E089
:103840009787868780EC90E0918B808B81EC90E06D
:10385000938B828B82EC90E0958B848B86EC90E04E
:10386000978B868B118E128E138E148E08951F9255
:103870000F920FB60F9211240BB60F922F938F93C6
:103880009F93EF93FF93E091F603F091F70380810C
:10389000E091FC03F091FD0382FD1DC090818091B9
:1038A000FF038F5F8F7320910004821741F0E09136
:1038B000FF03F0E0EA51FC4F958F8093FF03FF91E7
:1038C000EF919F918F912F910F900BBE0F900FBE94
:1038D0000F901F9018958081F2CF1F920F920FB614
:1038E0000F9211240BB60F922F933F934F935F9338
:1038F0006F937F938F939F93AF93BF93EF93FF93B8
:1039000086EE93E03BDEFF91EF91BF91AF919F91E7
:103910008F917F916F915F914F913F912F910F9078
:103920000BBE0F900FBE0F901F901895E6EEF3E0C0
:103930001382128288EE93E0A0E0B0E08483958346
:10394000A683B78380E193E0918380838DEC90E040
:10395000958784878CEC90E09787868788EC90E049
:10396000918B808B89EC90E0938B828B8AEC90E03A
:10397000958B848B8EEC90E0978B868B118E128EBC
:10398000138E148E08951F920F920FB60F9211246A
:103990000BB60F922F938F939F93EF93FF93E0912A
:1039A0009304F09194048081E0919904F0919A0439
:1039B00082FD1DC0908180919C048F5F8F73209148
:1039C0009D04821741F0E0919C04F0E0ED57FB4F1D
:1039D000958F80939C04FF91EF919F918F912F91F0
:1039E0000F900BBE0F900FBE0F901F901895808107
:1039F000F2CF1F920F920FB60F9211240BB60F92B7
:103A00002F933F934F935F936F937F938F939F93E6
:103A1000AF93BF93EF93FF9383E894E0AFDDFF9103
:103A2000EF91BF91AF919F918F917F916F915F9136
:103A30004F913F912F910F900BBE0F900FBE0F90A3
:103A40001F901895E3E8F4E01382128288EE93E069
:103A5000A0E0B0E084839583A683B78380E193E000
:103A60009183808385ED90E09587848784ED90E055
:103A70009787868780ED90E0918B808B81ED90E039
:103A8000938B828B82ED90E0958B848B86ED90E01A
:103A9000978B868B118E128E138E148E08951F9223
:103AA0000F920FB60F9211240BB60F922F938F9394
:103AB0009F93EF93FF93E0913005F0913105808162
:103AC000E0913605F091370582FD1DC0908180910F
:103AD00039058F5F8F7320913A05821741F0E0918D
:103AE0003905F0E0E05EFA4F958F80933905FF913C
:103AF000EF919F918F912F910F900BBE0F900FBE62
:103B00000F901F9018958081F2CF1F920F920FB6E1
:103B10000F9211240BB60F922F933F934F935F9305
:103B20006F937F938F939F93AF93BF93EF93FF9385
:103B300080E295E023DDFF91EF91BF91AF919F91DE
:103B40008F917F916F915F914F913F912F910F9046
:103B50000BBE0F900FBE0F901F901895E0E2F5E09E
:103B60001382128288EE93E0A0E0B0E08483958314
:103B7000A683B78380E193E09183808385E391E01E
:103B80009587848784E391E09787868780E391E037
:103B9000918B808B81E391E0938B828B82E391E028
:103BA000958B848B86E391E0978B868B118E128E9A
:103BB000138E148E0895AF92BF92CF92DF92EF9240
:103BC000FF920F931F93CF93DF936C017B018B01C7
:103BD000040F151FEB015E01AE18BF08C017D10717
:103BE00059F06991D601ED91FC910190F081E02DA1
:103BF000C6011995892B79F7C501DF91CF911F91E6
:103C00000F91FF90EF90DF90CF90BF90AF9008950D
:103C1000A1E21A2EAA1BBB1BFD010DC0AA1FBB1FD0
:103C2000EE1FFF1FA217B307E407F50720F0A21B42
:103C3000B30BE40BF50B661F771F881F991F1A94AF
:103C400069F760957095809590959B01AC01BD01D9
:103C5000CF010895EE0FFF1F881F8BBF0790F691CD
:083C6000E02D1994F894FFCF48
:103C680000000000000000005577F5445577F54442
:103C78000626E63C000000000000000000000000EE
:103C88000000000000000000000000000000C84222
:103C98000000C842AA98A43FFA98AE42FA98AE42E9
:103CA800CDCC4C3F9A99993F9A9919400000000051
:103CB80000000000CDCC4CBFCDCCCCBE0000000035
:103CC8000000803F0000803FCDCCCCBDCDCCCC3DAA
:103CD8000000003F0000A0C00000003F0000A0401E
:103CE8000AD7233C000000000000904100009841E2
:103CF8007C2625390000C8420000000000000000B2
:103D08000AD7233C000000000AD7233C0AD7233CEB
:103D1800000080BF00007F430000000000007F43D8
:103D2800000000000AD7233C0AD7233C000080BFCC
:103D380000007F430000000000007F4300000000F7
:103D48000000803F02033816381638163816381621
:103D580038163816381627030001FFFFFFFFFFFF4C
:103D6800FFFFFFFFFFFFFFFF050403020000000045
:0E3D7800FF1ADB1DAF1AE01A811A9B1A8D1A72
:00000001FF
