:1000000014C100000C946D110C9498110C94C31140
:100010000C94EE110C9419120C9444120C946F125F
:100020000C949A1233C1000031C100002FC10000AE
:100030002DC100002BC1000029C1000027C1000014
:1000400025C1000023C1000021C100001FC1000024
:100050001DC100001BC1000019C100000C94C51295
:1000600015C100000C9466160C949C160FC100007C
:100070000DC100000BC1000009C1000007C1000054
:1000800005C1000003C1000001C10000FFC0000065
:100090000C94F2160C942817F9C00000F7C0000069
:1000A000F5C00000F3C00000F1C00000EFC0000088
:1000B000EDC00000EBC00000E9C00000E7C0000098
:1000C000E5C00000E3C000000C941C0E0C947E17E9
:1000D0000C94B417DBC000000C940A180C94401860
:1000E000D5C0000005A84CCDB2D44EB93836A9020F
:1000F0000C50B9918688083CA6AAAA2ABE00000026
:10010000803F00000A0B02090C0D0E0807030401D2
:1001100000000000000000000000000000000000DF
:1001200000000000000000000000000000001211AC
:1001300010000000000000000000000000000000AF
:10014000000000000000000001021020200808103C
:100150002040102040800201020108040201010237
:100160000408102040808040201008040201800410
:10017000020180402010080402010804020101026B
:10018000040810204080010204081020408005056A
:100190000505070508080808020202020A0A0808FD
:1001A000040404040101010101010101030303032B
:1001B00003030303040707070C0C0C0C0C0C0C0CBA
:1001C0000202020206060606060606060B0B0B0BCB
:1001D0000B0B0B0B000020002300260029002C0035
:1001E0002F00320000010000030106010901000098
:1001F0002200250028002B002E00310034000201CF
:100200000000050108010B01000021002400270067
:100210002A002D0030003300010100000401070115
:100220000A01C5165117DD17691811241FBECFEF3B
:10023000D1E2DEBFCDBF00E00CBF12E0A0E0B2E033
:10024000EEEDF1E300E00BBF02C007900D92A63F78
:10025000B107D9F726E0A6EFB2E001C01D92A9319F
:10026000B207E1F711E0C5E1D1E000E006C0219757
:100270000109802FFE010E94E518C131D10780E0FD
:100280000807A9F70E94830E0C94ED18B9CECF92FF
:10029000DF92EF92FF92CF93882351F16A017B01A5
:1002A000CFEFC80F20E030E0A901CB01B6010E94DA
:1002B0001F0F87FF11C0C701B60190580E942B0F76
:1002C0009B01AC016C2F70E090E080E0CF91FF903B
:1002D000EF90DF90CF90B2C0C701B6010E94260F09
:1002E0008C2FCF91FF90EF90DF90CF900C947113F3
:1002F000CF91FF90EF90DF90CF9008950F931F93D1
:100300008B019C0183E036952795179507958A9573
:10031000D1F70A501D4F462F477021E030E0F90118
:1003200002C0EE0FFF1F4A95E2F7AF01F8012081EE
:100330002423CB010196211102C090E080E01F919F
:100340000F9108950F931F938B019C0183E03695C5
:100350002795179507958A95D1F7677081E090E00A
:1003600001C0880F6A95EAF7F801EA50FD4F208135
:10037000452B31F48095822380831F910F9108953E
:10038000822BFACF2F923F924F925F926F927F9281
:100390008F929F92AF92BF92CF92DF92EF92FF9295
:1003A0000F931F93CF93DF93D62EC72E782E692EEF
:1003B00049015A01280161E08D2D0E94AB14CD2D19
:1003C000DC2D8E010F5F1F4FA8016D2D7C2D872D19
:1003D000962DB8DF20E030E0A901C201B7010E94EC
:1003E0004210181664F4C201B7010E942B0F2B01B2
:1003F000C501B4010E942B0FA201CE0123D0C80178
:10040000DF91CF911F910F91FF90EF90DF90CF90F0
:10041000BF90AF909F908F907F906F905F904F9024
:100420003F902F900895882341F08150682F70E00D
:1004300090E080E050E040E085CF0895862FB9013C
:100440000C9471139C01FC01EE5FFE4FE491E150AE
:10045000E231E0F4F0E08827EF5CFD4F8F4F0C9421
:10046000E51843024A024D026402790246028E02F6
:100470009A029E02B502CA02DF02F6020B0346028E
:10048000200337034C0384B5806884BD60E0822F6D
:100490000C94E71484B58062F8CF809180008C7F43
:1004A00082608093800080918100807E8061682BD3
:1004B0006093810050938700409386008091800074
:1004C000806880938000E2CF809180008C7F826082
:1004D0008093800080918100807E8061682B609392
:1004E0008100509387004093860080918000806255
:1004F000E8CF809180008C7F826080938000809123
:100500008100807E8061682B60938100509387001A
:1005100040938600809180008860D3CF8091B000A6
:1005200080688093B0008091B100887F682B6093D1
:10053000B100ACCF8091B0008062F3CF8091900089
:100540008C7F82608093900080919100807E80619A
:10055000682B609391005093970040939600809190
:10056000900080688093900091CF809190008C7F64
:1005700082608093900080919100807E8061682BE2
:100580006093910050939700409396008091900063
:100590008062E8CF809190008C7F82608093900091
:1005A00080919100807E8061682B609391005093D0
:1005B000970040939600809190008860D3CF8091FF
:1005C000A0008C7F82608093A0008091A100807E3B
:1005D0008061682B6093A1005093A7004093A60010
:1005E0008091A00080688093A00050CF8091A000EF
:1005F0008C7F82608093A0008091A100807E8061CA
:10060000682B6093A1005093A7004093A6008091AF
:10061000A0008062E8CF8091A0008C7F82608093F0
:10062000A0008091A100807E8061682B6093A10072
:100630005093A7004093A6008091A0008860D3CF7C
:10064000809120018C7F8260809320018091210124
:10065000807E8061682B6093210150932701409335
:100660002601809120018068809320010FCF809126
:1006700020018C7F82608093200180912101807E07
:100680008061682B609321015093270140932601DC
:10069000809120018062E8CF809120018C7F826070
:1006A0008093200180912101807E8061682B60937E
:1006B00021015093270140932601809120018860F9
:1006C000D3CF4F925F926F927F928F929F92AF9211
:1006D000BF92CF92DF92EF92FF920F931F93CF932F
:1006E000DF93CDB7DEB7A0970FB6F894DEBF0FBE8D
:1006F000CDBF8091E9058111DFC181E08093E905DB
:1007000085E08093EA058AE999E9A9E9BEE3809347
:10071000F3059093F405A093F505B093F6051092B8
:10072000EF051092F0051092F1051092F2051F925C
:1007300081E08F934CE6842E42E0942EAA24A39469
:10074000B12C68E6C62E62E0D62EEE24E394F12C9E
:100750000DEB12E021E030E04CEB52E061EC75E093
:100760008FE096E00E941A0D8090700290907102C6
:10077000A0907202B0907302C0907402D090750283
:10078000E0907602F090770260910F06709110066B
:1007900080911106909112060E94590FA5019401B3
:1007A0000E944610A70196010E944610698B7A8B21
:1007B0008B8B9C8B2091C5053091C6054091C70558
:1007C0005091C8050E94BA0E69837A838B839C83FB
:1007D000609113067091140680911506909116068B
:1007E0000E94590FA50194010E944610A70196018D
:1007F0000E9446106D8B7E8B8F8B988F2091C90540
:100800003091CA054091CB055091CC050E94BA0E9B
:100810006D837E838F8398872091BD053091BE05BF
:100820004091BF055091C0056091EF057091F005B2
:100830008091F1059091F2050E94BA0E6093F70540
:100840007093F8058093F9059093FA05209134028E
:100850003091350240913602509137020E94461085
:100860002091CD053091CE054091CF055091D00516
:100870000E94BB0E6B017C0120915002309151020D
:10088000409152025091530269817A818B819C81FF
:100890000E9446104B015C01209158023091590290
:1008A00040915A0250915B026D817E818F819885C3
:1008B0000E9446109B01AC01C501B4010E94BB0E11
:1008C00060930B0670930C0680930D0690930E06B2
:1008D0008090F3059090F405A090F505B090F60592
:1008E00020914002309141024091420250914302D6
:1008F000C501B4010E9446102B013C012091480221
:100900003091490240914A0250914B02C701B60111
:100910000E9446109B01AC01C301B2010E94BB0EB4
:100920002091E1053091E2054091E3055091E40505
:100930000E94BA0E69877A878B879C872091440230
:10094000309145024091460250914702C501B401E1
:100950000E9446104B015C0120914C0230914D02E7
:1009600040914E0250914F02C701B6010E944610BD
:100970009B01AC01C501B4010E94BB0E2091E505AD
:100980003091E6054091E7055091E8050E94BA0EC6
:100990006B017C01C092F305D092F405E092F5055D
:1009A000F092F6052091000230910102409102027E
:1009B000509103020E9446102091D1053091D2053A
:1009C0004091D3055091D4050E94BA0E20912C027B
:1009D00030912D0240912E0250912F020E9446101C
:1009E0004B015C018092FB059092FC05A092FD05F5
:1009F000B092FE05209138023091390240913A02BE
:100A000050913B02C701B6010E9446102091D505C6
:100A10003091D6054091D7055091D8050E94BB0E64
:100A2000A50194010E94BB0E6093FF057093000620
:100A300080930106909302066AE070E080E090E007
:100A40005DDC3C019093A4058093A3052091FF05F4
:100A50003091000640910106509102066091880293
:100A60007091890280918A0290918B020E944610B7
:100A70006B017C01C0920706D0920806E09209063D
:100A8000F0920A0680908C0290908D02A0908E02C7
:100A9000B0908F020F900F90A50194010E94421018
:100AA00018160CF027C18092070690920806A092B3
:100AB0000906B0920A062EC1E091EA05E150E7303E
:100AC00008F0F0C0F0E08827E759FA4F8F4F0C94F8
:100AD000E518710670059805B805D305FF053306BE
:100AE0001092F3051092F4051092F5051092F60598
:100AF0002BED3FE049EC5FE36091BD057091BE05D1
:100B00008091BF059091C0050E94421087FD0FCED5
:100B100086E08093EA0580E090E0A0E0BFE3809368
:100B2000F3059093F405A093F505B093F605FFCD7A
:100B30001092F3051092F4051092F5051092F60547
:100B40002BED3FE049E450E46091BD057091BE0596
:100B50008091BF059091C0050E94421087FDE7CDAE
:100B600087E08093EA058AE999E9A9E9BEE3D7CF4E
:100B70001092F3051092F4051092F5051092F60507
:100B800021E233E149EC5FE36091BD057091BE0560
:100B90008091BF059091C0050E941F0F18160CF49C
:100BA000C6CD88E0DECF8AE999E9A9E9BEE3809362
:100BB000F3059093F405A093F505B093F6052CE5A5
:100BC0003FE842E550E46091B5057091B60580912B
:100BD000B7059091B8050E94421087FDA8CD82E02C
:100BE0008093EA051092F3051092F4051092F50532
:100BF0001092F6058BED9FE0A9ECBFE32BC080E0DF
:100C000090E0A0E0BFE38093F3059093F405A093F8
:100C1000F505B093F6052CEE31E548E351E460911B
:100C2000B9057091BA058091BB059091BC050E94F1
:100C3000421087FD7CCD83E08093EA051092F30596
:100C40001092F4051092F5051092F6058BED9FE0D9
:100C5000A9E4B0E48093EF059093F005A093F1052B
:100C6000B093F20564CD8AE999E9A9E9BEE38093DE
:100C7000F3059093F405A093F505B093F6052CEEDB
:100C800031E548E350E46091B5057091B605809177
:100C9000B7059091B8050E941F0F18160CF447CDA8
:100CA00084E09ECF8AE999E9A9E9BEE38093F30540
:100CB0009093F405A093F505B093F6052FE135E880
:100CC00043E851E46091B9057091BA058091BB0584
:100CD0009091BC050E94421087FD29CD81E0809350
:100CE000EA051092F3051092F4051092F5051092A2
:100CF000F6051DCD8090900290909102A0909202F6
:100D0000B0909302A5019401C701B6010E941F0F84
:100D100087FDC9CE20E030E04FE753E4609107063D
:100D2000709108068091090690910A060E941F0F93
:100D3000181664F480E090E0AFE7B3E48093070610
:100D400090930806A0930906B0930A0620E030E0CD
:100D5000A90160910706709108068091090690919B
:100D60000A060E94421087FF08C0109207061092E0
:100D700008061092090610920A0640910706509143
:100D800008066091090670910A06C30180DA6BE0DB
:100D900070E080E090E0B2DA3C0190939C05809393
:100DA0009B058090FF0590900006A0900106B090F2
:100DB0000206C0909402D0909502E0909602F090C6
:100DC0009702A7019601C501B4010E9442101816AE
:100DD0004CF4C092FF05D0920006E0920106F0921A
:100DE000020610C0C0909802D0909902E0909A023A
:100DF000F0909B02A7019601C501B4010E941F0F4C
:100E000087FDE7CF20E030E04FE753E46091FF0536
:100E10007091000680910106909102060E941F0FBA
:100E2000181664F480E090E0AFE7B3E48093FF0528
:100E300090930006A0930106B093020620E030E0F4
:100E4000A9016091FF0570910006809101069091C3
:100E500002060E94421087FF08C01092FF05109200
:100E6000000610920106109202064091FF05509173
:100E700000066091010670910206C30108DA209114
:100E800004023091050240910602509107026985E3
:100E90007A858B859C850E9446102091D9053091DA
:100EA000DA054091DB055091DC0564D720913002D2
:100EB0003091310240913202509133020E9446102B
:100EC0006B017C01C092FF05D0920006E092010602
:100ED000F092020620913C0230913D0240913E0288
:100EE00050913F0269857A858B859C850E944610CA
:100EF0002091DD053091DE054091DF055091E00540
:100F00003AD7A701960137D760930306709304067A
:100F1000809305069093060668E070E080E090E01C
:100F2000EDD93C019093B4058093B305209103065D
:100F30003091040640910506509106066091A40286
:100F40007091A5028091A6029091A7020E9446107E
:100F50006B017C01C0920706D0920806E092090658
:100F6000F0920A068090A8029090A902A090AA028E
:100F7000B090AB02A50194010E94421018164CF4E7
:100F80008092070690920806A0920906B0920A067F
:100F90000FC08090AC029090AD02A090AE02B090D5
:100FA000AF02A5019401C701B60149D787FDE8CF7B
:100FB00020E030E04FE753E46091070670910806A7
:100FC0008091090690910A063AD7181664F480E0D9
:100FD00090E0AFE7B3E48093070690930806A093F0
:100FE0000906B0930A0620E030E0A90160910706E7
:100FF000709108068091090690910A060E9442109D
:1010000087FF08C010920706109208061092090682
:1010100010920A0640910706509108066091090651
:1010200070910A06C30133D969E070E080E090E076
:1010300065D93C019093AC058093AB058090030685
:1010400090900406A0900506B0900606C090B002ED
:10105000D090B102E090B202F090B302A7019601E5
:10106000C501B4010E94421018164CF4C092030648
:10107000D0920406E0920506F09206060FC0C090DA
:10108000B402D090B502E090B602F090B702A7018A
:101090009601C501B401D3D687FDE8CF20E030E04A
:1010A0004FE753E4609103067091040680910506B2
:1010B00090910606C4D6181664F480E090E0AFE77D
:1010C000B3E48093030690930406A0930506B093BF
:1010D000060620E030E0A901609103067091040645
:1010E0008091050690910606CDD787FF08C0109223
:1010F000030610920406109205061092060640910F
:101100000306509104066091050670910606C3011E
:10111000BED88090BD059090BE05A090BF05B09050
:10112000C005C501B4018FD6C0900B06D0900C0647
:10113000E0900D06F0900E062091B8023091B902B1
:101140004091BA025091BB02A1D7A70196019ED748
:10115000698F7A8F8B8F9C8F609307067093080638
:101160008093090690930A06C501B401F2D79B014A
:10117000AC01C701B6018AD76B017C01C0920B0696
:10118000D0920C06E0920D06F0920E068091B50505
:101190009091B605A091B705B091B8058D879E874F
:1011A000AF87B88B8093030690930406A09305063F
:1011B000B09306068091B9059091BA05A091BB0540
:1011C000B091BC058D8F9E8FAF8FB8A34090600209
:1011D000509061026090620270906302A3019201DC
:1011E000698D7A8D8B8D9C8D51D72D853E854F8550
:1011F0005889C1D56093B5057093B6058093B7053E
:101200009093B805A3019201C701B6013FD72D8D78
:101210003E8D4F8D58A1AFD56093B9057093BA0537
:101220008093BB059093BC052091540230915502E8
:10123000409156025091570269817A818B819C813D
:1012400025D76B017C0120915C0230915D024091B9
:101250005E0250915F026D817E818F81988516D7E5
:101260009B01AC01C701B60186D5A30192010ED73F
:10127000A501940180D56093BD057093BE05809350
:10128000BF059093C0051F9281E08F938CE6882E56
:1012900082E0982EAA24A394B12C28E6C22E22E044
:1012A000D22EEE24E394F12C0DEB12E021E030E09D
:1012B0004CEB52E061EC75E08FE096E0ECD32091CE
:1012C000F7053091F8054091F9055091FA056091C4
:1012D0001002709111028091120290911302D6D6E1
:1012E000209178023091790240917A0250917B02EC
:1012F000CDD62091CD053091CE054091CF055091AE
:10130000D00539D56093CD057093CE058093CF0578
:101310009093D00589899A89AB89BC898093C5054A
:101320009093C605A093C705B093C80589819A819B
:10133000AB81BC818093E1059093E205A093E30526
:10134000B093E4058D899E89AF89B88D8093C905D6
:101350009093CA05A093CB05B093CC058D819E8157
:10136000AF81B8858093E5059093E605A093E705E6
:10137000B093E8052091FB053091FC054091FD05F7
:101380005091FE05609180027091810280918202ED
:10139000909183027BD62091D1053091D205409166
:1013A000D3055091D405E7D46093D1057093D2054D
:1013B0008093D3059093D4052091F3053091F405E3
:1013C0004091F5055091F60560910802709109026F
:1013D00080910A0290910B0259D62091840230919B
:1013E0008502409186025091870250D62091D50502
:1013F0003091D6054091D7055091D805BCD4609363
:10140000D5057093D6058093D7059093D805209184
:10141000FF0530910006409101065091020660914F
:101420009C0270919D0280919E0290919F022ED607
:101430002091D9053091DA054091DB055091DC050A
:101440009AD46093D9057093DA058093DB05909365
:10145000DC0520910C0230910D0240910E0250915A
:101460000F0269857A858B859C8510D62091A00214
:101470003091A1024091A2025091A30207D620917F
:10148000DD053091DE054091DF055091E00573D414
:101490006093DD057093DE058093DF059093E00592
:1014A0000F900F90A0960FB6F894DEBF0FBECDBF81
:1014B000DF91CF911F910F91FF90EF90DF90CF9030
:1014C000BF90AF909F908F907F906F905F904F9064
:1014D00008954F925F926F927F92AF92BF92DF9288
:1014E000EF92FF920F931F93CF93DF93109200031D
:1014F0001092FF028FEEA82E85E0B82E88E2F5014B
:1015000011928A95E9F7C5E9D5E08AE5FE011192C5
:101510008A95E9F7DD24D394D092EC05412C512C27
:101520003201439449865A866B867C86E12CF12CE5
:101530008701A80197016AE070E080E090E00E94D6
:10154000C2019F878E87DD861882D092EB051D82AF
:1015500049825A826B827C82A80197016BE070E01D
:1015600080E090E00E94C2019F838E83DD82188E0E
:10157000D092EE051D8E498E5A8E6B8E7C8EA80100
:10158000970168E070E080E090E00E94C2019F8FC8
:101590008E8FDD8E188AD092ED051D8A498A5A8A6F
:1015A0006B8A7C8AA801970169E070E080E090E096
:1015B0000E94C2019F8B8E8BDD8AE0E0F2E0809179
:1015C000640290916502A0916602B091670288A3BF
:1015D00099A3AAA3BBA38CA39DA3AEA3BFA388A7D3
:1015E00099A7AAA7BBA7ECA6FDA60EA71FA780A137
:1015F00091A1A2A1B3A188AF99AFAAAFBBAF448913
:1016000055896689778948AB59AB6AAB7BAB8091CA
:101610007C0290917D02A0917E02B0917F02809326
:10162000E1059093E205A093E305B093E4054CAB8C
:101630005DAB6EAB7FAB8093E5059093E605A09321
:10164000E705B093E805808D918DA28DB38D8CAFA9
:101650009DAFAEAFBFAF84A195A1A6A1B7A1809366
:10166000D5059093D605A093D705B093D805848D62
:10167000958DA68DB78D8093D9059093DA05A093AB
:10168000DB05B093DC0580A591A5A2A5B3A5809349
:10169000DD059093DE05A093DF05B093E005109281
:1016A000E9051092EA05F501E082F18202831383D5
:1016B000DF91CF911F910F91FF90EF90DF90BF903E
:1016C000AF907F906F905F904F90089580919D05AF
:1016D00081112EC081E080939D0580919E0590919F
:1016E0009F05A091A005B091A1050197A105B105A5
:1016F000F9F48091A2058823D9F06AE070E080E0D7
:1017000090E00E947E019093A4058093A30540E0A1
:1017100050E0BA010E9447016AE070E080E090E08A
:101720000E947E019093A4058093A3050E9413025A
:101730008091950581112EC081E08093950580915F
:10174000960590919705A0919805B09199050197FC
:10175000A105B105F9F480919A058823D9F06BE0D1
:1017600070E080E090E00E947E0190939C05809361
:101770009B0540E050E0BA010E9447016BE070E039
:1017800080E090E00E947E0190939C0580939B05F1
:101790000E9413028091AD0581112EC081E08093DB
:1017A000AD058091AE059091AF05A091B005B091C7
:1017B000B1050197A105B105F9F48091B20588231F
:1017C000D9F068E070E080E090E00E947E019093A4
:1017D000B4058093B30540E050E0BA010E94470190
:1017E00068E070E080E090E00E947E019093B40594
:1017F0008093B3050E9413028091A50581112EC02C
:1018000081E08093A5058091A6059091A705A09100
:10181000A805B091A9050197A105B105F9F480913A
:10182000AA058823D9F069E070E080E090E00E948A
:101830007E019093AC058093AB0540E050E0BA0187
:101840000E94470169E070E080E090E00E947E0124
:101850009093AC058093AB050C9413020895CF933D
:10186000DF9380910103909102030E941415EC0113
:1018700080910303909104030E9414150197C1F411
:101880008091050390910603A0910703B09108038E
:101890002197C1F40196A11DB11D8093050390937A
:1018A0000603A0930703B0930803DF91CF91089537
:1018B0008091050390910603A0910703B09108035E
:1018C000CD2B41F30197A109B109E7CFCF93DF9366
:1018D00080910B0390910C030E941415EC018091F0
:1018E0000D0390910E030E9414150197C1F480918D
:1018F0000F0390911003A0911103B091120321974F
:10190000C1F40196A11DB11D80930F0390931003A4
:10191000A0931103B0931203DF91CF9108958091AA
:101920000F0390911003A0911103B0911203CD2BDE
:1019300041F30197A109B109E7CFCF93DF938091DC
:101940000D0390910E030E941415EC0180910B037E
:1019500090910C030E9414150197C1F480910F031C
:1019600090911003A0911103B0911203CD2BC1F4FB
:101970000196A11DB11D80930F0390931003A093B6
:101980001103B0931203DF91CF91089580910F035B
:1019900090911003A0911103B0911203219741F38C
:1019A0000197A109B109E7CFCF93DF93809103039A
:1019B000909104030E941415EC0180910103909111
:1019C00002030E9414150197C1F4809105039091C0
:1019D0000603A0910703B0910803CD2BC1F4019633
:1019E000A11DB11D8093050390930603A0930703E7
:1019F000B0930803DF91CF910895809105039091F2
:101A00000603A0910703B0910803219741F30197C2
:101A1000A109B109E7CF02978431910540F48053C1
:101A20009D4FFC018081082E000C990B08958FEFCB
:101A30009FEF08950F931F93CF93DF93CDB7DEB73A
:101A40008C0120E030E040E85FE3FB0160817181C0
:101A500082819381F4D1811119C080910503909105
:101A60000603A0910703B0910803F80180839183D6
:101A7000A283B38380910F0390911003A09111036F
:101A8000B091120384839583A683B783DF91CF91AE
:101A90001F910F9108958F929F92AF92BF92CF9214
:101AA000DF92EF92FF920F931F93CF93DF93CDB707
:101AB000DEB77B015A0120E030E040E85FE3FB0144
:101AC0006081718182819381BAD1882309F483C0B6
:101AD000F501808190E09093020380930103F80167
:101AE000808190E09093040380930303F60160816A
:101AF000718182819381AAD170930C0360930B034F
:101B0000F4016081718182819381A0D170930E0371
:101B100060930D03809101039091020360E01BD755
:101B2000809103039091040360E015D780910B032B
:101B300090910C0360E00FD780910D0390910E03FC
:101B400060E009D7809101039091020361E03FD7E3
:101B5000809103039091040361E039D780910B03D6
:101B600090910C0361E033D780910D0390910E03A7
:101B700061E02DD780910103909102034CDF41E099
:101B800050E064ED7CE030D3809103039091040336
:101B900042DF41E050E06FE27CE026D380910B030E
:101BA00090910C0338DF41E050E06DE97CE01CD3FC
:101BB00080910D0390910E032EDF41E050E066E628
:101BC0007CE012D380E090E0A0E8BFE3F7018083DF
:101BD0009183A283B383DF91CF911F910F91FF90E7
:101BE000EF90DF90CF90BF90AF909F908F9008952F
:101BF00040E855E260E070E090E080E000C08130B5
:101C0000910571F01CF4892B39F00895823091050B
:101C100059F0039769F0089526E081E293E0F6C752
:101C200026E08EEB93E0FBCF26E08BE594E0F7CF48
:101C300026E088EF94E0F3CF1F920F920FB60F9239
:101C400011240BB60F922F933F934F935F936F9393
:101C50007F938F939F93AF93BF93EF93FF938FE8FF
:101C60009DEF909325018093240134D0FF91EF9153
:101C7000BF91AF919F918F917F916F915F914F91A4
:101C80003F912F910F900BBE0F900FBE0F901F90A2
:101C900018958FE89DEF9093250180932401A3E789
:101CA000B0E08C918E7F8C93E0E2F1E080818C7FBC
:101CB0008083E1E2F1E08081877E8083808184609F
:101CC000808380818C7F80838C9181608C93089548
:101CD00081E008958091150391E0980F909315038A
:101CE000882349F021E030E0309317032093160356
:101CF00080931503089578940E946103F89480916D
:101D000015038150F5CFCF93DF93109218061092F0
:101D1000170685D46DDFC091CE02D091CF02198213
:101D20001882D7DBF894B5DF81E028813981232B35
:101D300009F080E0809317067894789480911706D4
:101D4000811107C0C3DCF89490E080E0DF91CF916F
:101D5000089581E028813981232B09F480E0809364
:101D600018069091180681E0911180E08093170683
:101D7000AFDFE4CF5058BB27AA270ED038C101D11E
:101D800030F006D120F031F49F3F11F41EF4F6C07C
:101D90000EF4E095E7FBECC0E92F4BD180F3BA17C6
:101DA000620773078407950718F071F49EF563C105
:101DB0000EF4E0950B2EBA2FA02D0B01B901900166
:101DC0000C01CA01A0011124FF27591B99F0593FAA
:101DD00050F4503E68F11A16F040A22F232F342FF2
:101DE0004427585FF3CF469537952795A795F04040
:101DF0005395C9F77EF41F16BA0B620B730B840B55
:101E0000BAF09150A1F0FF0FBB1F661F771F881F0C
:101E1000C2F70EC0BA0F621F731F841F48F4879564
:101E200077956795B795F7959E3F08F0B3CF939553
:101E3000880F08F09927EE0F97958795089574D02D
:101E400008F481E00895ACD0E395E2C004D0689432
:101E5000B11112C10895F5D088F09F5790F0B92FB5
:101E60009927B751A0F0D1F0660F771F881F991FEF
:101E70001AF0BA95C9F712C0B13081F0FCD0B1E0C8
:101E80000895F9C0672F782F8827B85F39F0B93FD8
:101E9000CCF3869577956795B395D9F73EF49095F1
:101EA0008095709561957F4F8F4F9F4F0895E8946F
:101EB00009C097FB3EF490958095709561957F4F92
:101EC0008F4F9F4F9923A9F0F92F96E9BB27939540
:101ED000F695879577956795B795F111F8CFFAF450
:101EE000BB0F11F460FF1BC06F5F7F4F8F4F9F4F81
:101EF00016C0882311F096E911C0772321F09EE8DF
:101F0000872F762F05C0662371F096E8862F70E044
:101F100060E02AF09A95660F771F881FDAF7880F1E
:101F20009695879597F90895990F0008550FAA0B74
:101F3000E0E8FEEF16161706E807F907C0F01216DC
:101F40001306E407F50798F0621B730B840B950BDF
:101F500039F40A2661F0232B242B252B21F4089534
:101F60000A2609F4A140A6958FEF811D811D0895D1
:101F700097F99F6780E870E060E008959FEF80EC3C
:101F8000089500240A9416161706180609060895DF
:101F900000240A9412161306140605060895EECFBF
:101FA00050D0E8F3E894E0E0BB279F57F0F02AED2B
:101FB0003FE049EC06C0EE0FBB0F661F771F881F7E
:101FC00028F0B23A62077307840728F0B25A620B0E
:101FD000730B840BE3959A9572F7803830F49A95D9
:101FE000BB0F661F771F881FD2F79048BAC0092E13
:101FF0000394000C11F4882352F0BB0F40F4BF2B64
:1020000011F460FF04C06F5F7F4F8F4F9F4F0895A3
:10201000EF93E0FF06C0A2EA2AED3FE049EC5FEB58
:10202000BBDEE5DF0F90039401FC9058E4EEF0E096
:10203000A4C057FD9058440F551F59F05F3F71F0F1
:102040004795880F97FB991F61F09F3F79F087951F
:102050000895121613061406551FF2CF4695F1DFA8
:1020600008C0161617061806991FF1CF8695710538
:10207000610508940895E894BB2766277727CB016C
:1020800097F9089551DF08F48FEF08950BD0AFCF83
:1020900078DF28F07DDF18F0952309F069CF6ECF47
:1020A0001124EACFC6DFA0F3959FD1F3950F50E03E
:1020B000551F629FF001729FBB27F00DB11D639FFA
:1020C000AA27F00DB11DAA1F649F6627B00DA11DA0
:1020D000661F829F2227B00DA11D621F739FB00D46
:1020E000A11D621F839FA00D611D221F749F3327B6
:1020F000A00D611D231F849F600D211D822F762F4F
:102100006A2F11249F5750408AF0E1F088234AF04B
:10211000EE0FFF1FBB1F661F771F881F9150504097
:10212000A9F79E3F510570F023CFA6CF5F3FECF398
:10213000983EDCF3869577956795B795F795E79583
:102140009F5FC1F7FE2B880F911D9695879597F994
:1021500008959F9325DF0F9007FCEE5F59CF9F3FB7
:1021600031F0915020F4879577956795B795880F52
:10217000911D9695879597F908959F938F937F93D7
:102180006F93FF93EF939B01AC0180DFEF91FF9181
:1021900005D02F913F914F915F9178CFDF93CF93EF
:1021A0001F930F93FF92EF92DF927B018C01689453
:1021B00005C0DA2EEF0176DFFE01E894A5912591A6
:1021C000359145915591AEF3EF01E6DDFE019701A2
:1021D000A801DA9479F7DF90EF90FF900F911F91AB
:1021E000CF91DF9108950895883008F075C0E82FE9
:1021F000F0E0EE0FFF1FE254FD4F718360838150CA
:10220000873008F03CC0E82FF0E08827E65FFE4EFC
:102210008F4FDBC7471111111911251132115311BD
:102220006011809169008C7F482B40936900E89A87
:10223000089580916900837F440F551F440F551FF7
:10224000482B40936900E99A0895809169008F7C3A
:1022500074E0440F551F7A95E1F7482B40936900CD
:10226000EA9A0895809169008F7366E0440F551FC4
:102270006A95E1F7482B40936900EB9A08958091A5
:102280006A008C7F482B40936A00EC9A08958091F5
:102290006A00837F440F551F440F551F482B4093FE
:1022A0006A00ED9A089580916A008F7C24E0440FC3
:1022B000551F2A95E1F7482B40936A00EE9A08953E
:1022C00080916A008F7396E0440F551F9A95E1F74D
:1022D000482B40936A00EF9A08951F920F920FB611
:1022E0000F9211240BB60F922F933F934F935F934E
:1022F0006F937F938F939F93AF93BF93EF93FF93CE
:10230000E091C202F091C3021995FF91EF91BF9144
:10231000AF919F918F917F916F915F914F913F917D
:102320002F910F900BBE0F900FBE0F901F9018951E
:102330001F920F920FB60F9211240BB60F922F938C
:102340003F934F935F936F937F938F939F93AF933D
:10235000BF93EF93FF93E091C402F091C5021995EA
:10236000FF91EF91BF91AF919F918F917F916F916D
:102370005F914F913F912F910F900BBE0F900FBE29
:102380000F901F9018951F920F920FB60F92112465
:102390000BB60F922F933F934F935F936F937F935F
:1023A0008F939F93AF93BF93EF93FF93E091C602F8
:1023B000F091C7021995FF91EF91BF91AF919F9155
:1023C0008F917F916F915F914F913F912F910F90DE
:1023D0000BBE0F900FBE0F901F9018951F920F927B
:1023E0000FB60F9211240BB60F922F933F934F937A
:1023F0005F936F937F938F939F93AF93BF93EF936D
:10240000FF93E091C802F091C9021995FF91EF91F5
:10241000BF91AF919F918F917F916F915F914F91FC
:102420003F912F910F900BBE0F900FBE0F901F90FA
:1024300018951F920F920FB60F9211240BB60F92A0
:102440002F933F934F935F936F937F938F939F93BC
:10245000AF93BF93EF93FF93E091BE02F091BF0261
:102460001995FF91EF91BF91AF919F918F917F91BE
:102470006F915F914F913F912F910F900BBE0F90F5
:102480000FBE0F901F9018951F920F920FB60F92CC
:1024900011240BB60F922F933F934F935F936F933B
:1024A0007F938F939F93AF93BF93EF93FF93E091AD
:1024B000C002F091C1021995FF91EF91BF91AF91C8
:1024C0009F918F917F916F915F914F913F912F914C
:1024D0000F900BBE0F900FBE0F901F9018951F927C
:1024E0000F920FB60F9211240BB60F922F933F93BA
:1024F0004F935F936F937F938F939F93AF93BF930C
:10250000EF93FF93E091CA02F091CB021995FF91EE
:10251000EF91BF91AF919F918F917F916F915F915B
:102520004F913F912F910F900BBE0F900FBE0F90C8
:102530001F9018951F920F920FB60F9211240BB691
:102540000F922F933F934F935F936F937F938F934C
:102550009F93AF93BF93EF93FF93E091CC02F091E1
:10256000CD021995FF91EF91BF91AF919F918F91FE
:102570007F916F915F914F913F912F910F900BBE83
:102580000F900FBE0F901F9018951F920F920FB6CD
:102590000F9211242F933F938F939F93AF93BF93E9
:1025A0008091190390911A03A0911B03B0911C0311
:1025B0003091180323E0230F2D3758F50196A11D04
:1025C000B11D209318038093190390931A03A093CD
:1025D0001B03B0931C0380911D0390911E03A091D7
:1025E0001F03B09120030196A11DB11D80931D030F
:1025F00090931E03A0931F03B0932003BF91AF914C
:102600009F918F913F912F910F900FBE0F901F9030
:10261000189526E8230F0296A11DB11DD2CF7894FC
:1026200084B5826084BD84B5816084BD85B58260D7
:1026300085BD85B5816085BDEEE6F0E08081816075
:102640008083E1E8F0E01082808182608083808175
:1026500081608083E0E8F0E0808181608083E1EB4D
:10266000F0E0808184608083E0EBF0E08081816035
:102670008083E1E9F0E080818260808380818160F5
:102680008083E0E9F0E0808181608083E1EAF0E02E
:10269000808182608083808181608083E0EAF0E0D5
:1026A000808181608083E1E2F1E0808182608083CB
:1026B000808181608083E0E2F1E0808181608083BD
:1026C000EAE7F0E08081846080838081826080839B
:1026D0008081816080838081806880831092C100C6
:1026E00008951F93CF93DF93182FEB0161E033D14F
:1026F000209731F460E0812FDF91CF911F9167C166
:10270000CF3FD10511F461E0F6CFE12FF0E0EE5FAD
:10271000FE4FE491E150E23108F0B2C0F0E08827CA
:10272000EC56FC4E8F4F51C5A613AE13B313BD1319
:10273000C7134014D113D913E113EB13F513FF138F
:102740000E141814401422142C14361484B5806806
:1027500084BDC7BDDF91CF911F91089584B580627C
:1027600084BDC8BDF7CF80918000806880938000D1
:10277000D0938900C0938800EDCF80918000806263
:1027800080938000D0938B00C0938A00E3CF809128
:102790008000886080938000D0938D00C0938C006F
:1027A000D9CF8091B00080688093B000C093B3000F
:1027B000D1CF8091B00080628093B000C093B4000C
:1027C000C9CF80919000806880939000D093990049
:1027D000C0939800BFCF809190008062809390005A
:1027E000D0939B00C0939A00B5CF809190008860F1
:1027F00080939000D0939D00C0939C00ABCF8091BC
:10280000A00080688093A0008091A0008F7B8093BF
:10281000A000D093A900C093A8009CCF8091A000F5
:1028200080628093A000D093AB00C093AA0092CFA7
:102830008091A00088608093A000D093AD00C093E9
:10284000AC0088CF80912001806880932001D093D4
:102850002901C09328017ECF80912001806280935E
:102860002001D0932B01C0932A0174CF80912001C5
:10287000886080932001D0932D01C0932C016ACFF2
:10288000C038D1050CF03FCF35CF8150823108F0F0
:1028900059C0E82FF0E08827E05BFB4E8F4F95C4CE
:1028A00070147414621468146C14A21477147D14D8
:1028B000811487148B148F1495149914A2149D14E9
:1028C000A314A714809180008F77809380000895CF
:1028D000809180008F7DF9CF80918000877FF5CF38
:1028E00084B58F7784BD089584B58F7DFBCF8091AB
:1028F000B0008F778093B00008958091B0008F7DF5
:10290000F9CF809190008F77809390000895809107
:1029100090008F7DF9CF80919000877FF5CF8091D7
:10292000A0008F778093A00008958091A0008F7DF4
:10293000F9CF8091A000877FF5CF809120018F771C
:10294000809320010895809120018F7DF9CF80919F
:102950002001877FF5CFCF93DF9390E0FC01E85B08
:10296000FE4F249182579E4FFC0184918823C9F029
:1029700090E0880F991FFC01E85FFD4FA591B4918D
:10298000FC01E251FE4FC591D49161110DC09FB77A
:10299000F8948C91209582238C9388812823288316
:1029A0009FBFDF91CF910895623051F49FB7F894A3
:1029B0003C91822F809583238C93E8812E2BEFCF3F
:1029C0008FB7F894EC912E2B2C938FBFEACF1F93E7
:1029D000CF93DF93282F30E0F901EE5FFE4F849113
:1029E000F901E85BFE4FD491F901E257FE4FC49123
:1029F000CC23A1F0162F811148DFEC2FF0E0EE0F71
:102A0000FF1FE251FE4FA591B4918FB7F894EC915E
:102A1000111108C0D095DE23DC938FBFDF91CF91D9
:102A20001F910895DE2BF8CFCF93DF93282F30E04E
:102A3000F901EE5FFE4F8491F901E85BFE4FD491FE
:102A4000F901E257FE4FC491CC2399F081111DDFAB
:102A5000EC2FF0E0EE0FFF1FEC52FE4FA591B4916A
:102A6000EC91ED2381E090E009F480E0DF91CF91DB
:102A7000089580E090E0FACFFC01918D228D892F9E
:102A800090E0805C9F4F821B91098F739927089576
:102A9000FC01918D828D981731F0828DE80FF11D28
:102AA000858D90E008958FEF9FEF0895FC01918D43
:102AB000828D981761F0A28DAE0FBF2FB11D5D966C
:102AC0008C91928D9F5F9F73928F90E008958FEF0E
:102AD0009FEF0895FC01538D448D252F30E0842F06
:102AE00090E0821B930B541710F0CF960895019736
:102AF0000895FC01A48DA80FB92FB11DA35ABF4F93
:102B00002C91848D90E001968F739927848FA689EC
:102B1000B7892C93A089B1898C91837080648C9340
:102B2000938D848D981306C00288F389E02D8081EF
:102B30008F7D80830895CF93DF93EC01888D882368
:102B4000B1F0AA89BB89E889F9898C9185FD03C018
:102B5000808186FD0CC00FB607FCF7CF8C9185FFF6
:102B6000F2CF808185FFEDCFCE01C3DFEACFDF91C9
:102B7000CF910895EF92FF920F931F93CF93DF931E
:102B8000EC0181E0888F9B8D8C8D98131AC0E889A9
:102B9000F989808185FF15C09FB7F894EE89FF8978
:102BA0006083E889F98980818370806480839FBF16
:102BB00081E090E0DF91CF911F910F91FF90EF9016
:102BC0000895F62E0B8D10E00F5F1F4F0F73112726
:102BD000E02E8C8D8E110BC00FB607FCFACFE88962
:102BE000F989808185FFF5CFCE0183DFF2CFEB8DB0
:102BF000EC0FFD2FF11DE35AFF4FF0829FB7F894C1
:102C00000B8FEA89FB8980818062D0CFCF92DF92DF
:102C1000EF92FF921F93CF93DF93EC016A017B0148
:102C2000122FE889F98982E08083C11481EED806E9
:102C3000E104F10499F060E079E08DE390E0A70110
:102C40009601A1D221503109410951095695479564
:102C500037952795211580E1380790F0E889F989A3
:102C6000108260E874E88EE190E0A70196018BD2B3
:102C700021503109410951095695479537952795B6
:102C8000EC85FD853083EE85FF852083188EEC89E9
:102C9000FD891083EA89FB89808180618083EA89CC
:102CA000FB89808188608083EA89FB8980818068D4
:102CB0008083EA89FB8980818F7D8083DF91CF913A
:102CC0001F91FF90EF90DF90CF9008951F920F9289
:102CD0000FB60F9211240BB60F922F938F939F93E1
:102CE000EF93FF93E0913103F09132038081E09103
:102CF0003703F091380382FD1DC0908180913A0323
:102D00008F5F8F7320913B03821741F0E0913A036C
:102D1000F0E0EF5DFC4F958F80933A03FF91EF91C8
:102D20009F918F912F910F900BBE0F900FBE0F9020
:102D30001F9018958081F2CF1F920F920FB60F92BD
:102D400011240BB60F922F933F934F935F936F9382
:102D50007F938F939F93AF93BF93EF93FF9381E202
:102D600093E0C7DEFF91EF91BF91AF919F918F915B
:102D70007F916F915F914F913F912F910F900BBE7B
:102D80000F900FBE0F901F901895E1E2F3E01382B1
:102D9000128288EE93E0A0E0B0E084839583A6835E
:102DA000B78388EE92E09183808385EC90E09587ED
:102DB000848784EC90E09787868780EC90E0918B05
:102DC000808B81EC90E0938B828B82EC90E0958BF2
:102DD000848B86EC90E0978B868B118E128E138EEF
:102DE000148E08951F920F920FB60F9211240BB6F6
:102DF0000F922F938F939F93EF93FF93E091CE03C6
:102E0000F091CF038081E091D403F091D50382FD4E
:102E10001DC090818091D7038F5F8F732091D8035D
:102E2000821741F0E091D703F0E0E254FC4F958F18
:102E30008093D703FF91EF919F918F912F910F90E6
:102E40000BBE0F900FBE0F901F9018958081F2CF90
:102E50001F920F920FB60F9211240BB60F922F9361
:102E60003F934F935F936F937F938F939F93AF9312
:102E7000BF93EF93FF938EEB93E03BDEFF91EF91D7
:102E8000BF91AF919F918F917F916F915F914F9182
:102E90003F912F910F900BBE0F900FBE0F901F9080
:102EA0001895EEEBF3E01382128288EE93E0A0E037
:102EB000B0E084839583A683B78388EE92E0918304
:102EC00080838DEC90E0958784878CEC90E09787E9
:102ED000868788EC90E0918B808B89EC90E0938BD7
:102EE000828B8AEC90E0958B848B8EEC90E0978BB4
:102EF000868B118E128E138E148E08951F920F9250
:102F00000FB60F9211240BB60F922F938F939F93AE
:102F1000EF93FF93E0916B04F0916C048081E0915A
:102F20007104F091720482FD1DC09081809174043F
:102F30008F5F8F7320917504821741F0E0917404C4
:102F4000F0E0E55AFB4F958F80937404FF91EF9169
:102F50009F918F912F910F900BBE0F900FBE0F90EE
:102F60001F9018958081F2CF1F920F920FB60F928B
:102F700011240BB60F922F933F934F935F936F9350
:102F80007F938F939F93AF93BF93EF93FF938BE5C3
:102F900094E0AFDDFF91EF91BF91AF919F918F9141
:102FA0007F916F915F914F913F912F910F900BBE49
:102FB0000F900FBE0F901F901895EBE5F4E0138271
:102FC000128288EE93E0A0E0B0E084839583A6832C
:102FD000B78388EE92E09183808385ED90E09587BA
:102FE000848784ED90E09787868780ED90E0918BD1
:102FF000808B81ED90E0938B828B82ED90E0958BBE
:10300000848B86ED90E0978B868B118E128E138EBB
:10301000148E08951F920F920FB60F9211240BB6C3
:103020000F922F938F939F93EF93FF93E091080557
:10303000F09109058081E0910E05F0910F0582FD68
:103040001DC09081809111058F5F8F7320911205B3
:10305000821741F0E0911105F0E0E850FB4F958FA9
:1030600080931105FF91EF919F918F912F910F9078
:103070000BBE0F900FBE0F901F9018958081F2CF5E
:103080001F920F920FB60F9211240BB60F922F932F
:103090003F934F935F936F937F938F939F93AF93E0
:1030A000BF93EF93FF9388EF94E023DDFF91EF91BF
:1030B000BF91AF919F918F917F916F915F914F9150
:1030C0003F912F910F900BBE0F900FBE0F901F904E
:1030D0001895E8EFF4E01382128288EE93E0A0E006
:1030E000B0E084839583A683B78388EE92E09183D2
:1030F000808385E391E09587848784E391E09787D7
:10310000868780E391E0918B808B81E391E0938BC4
:10311000828B82E391E0958B848B86E391E0978BA1
:10312000868B118E128E138E148E0895AF92BF92DD
:10313000CF92DF92EF92FF920F931F93CF93DF9383
:103140006C017B018B01040F151FEB015E01AE18B2
:10315000BF08C017D10759F06991D601ED91FC91D4
:103160000190F081E02DC6011995892B79F7C501F1
:10317000DF91CF911F910F91FF90EF90DF90CF9053
:10318000BF90AF900895A1E21A2EAA1BBB1BFD01B0
:103190000DC0AA1FBB1FEE1FFF1FA217B307E40736
:1031A000F50720F0A21BB30BE40BF50B661F771F8E
:1031B000881F991F1A9469F760957095809590956E
:1031C0009B01AC01BD01CF010895EE0FFF1F881FC9
:0E31D0008BBF0790F691E02D1994F894FFCF75
:1031DE0000000000000000005577F5445577F544D7
:1031EE000626E63C00000000000000000000000083
:1031FE000000000000000000000000000000C842B7
:10320E000000C842AA98A43FFA98AE42FA98AE427D
:10321E000000803F0000803FCDCCCCBDCDCCCC3D5E
:10322E000000003F0000A0C00000003F0000A040D2
:10323E000AD7233C00000000000090410000984196
:10324E007C2625390000C8420AD7233C0000000026
:10325E000AD7233C0AD7233C000080BF00007F43DF
:10326E000000000000007F43000000000AD7233C4E
:10327E000AD7233C000080BF00007F4300000000FF
:10328E0000007F43000000000000803F0203F310A7
:10329E00F310F310F310F310F310F310F310FF020A
:1032AE000001FFFFFFFFFFFFFFFFFFFFFFFFFFFF1D
:1032BE000504030200000000BA1596186A159B1546
:0632CE003C1556154815E1
:00000001FF
