:1000000005C100000C94E72B0C94122C0C943D2C91
:100010000C94682C0C94932C0C94BE2C0C94E92C0E
:100020000C94142D24C1000022C1000020C1000046
:100030001EC100001CC100001AC1000018C1000050
:1000400016C1000014C1000012C1000010C1000060
:100050000EC100000CC100000AC100000C943F2D2D
:1000600006C100000C943B310C94713100C10000BA
:10007000FEC00000FCC00000FAC00000F8C0000094
:10008000F6C00000F4C00000F2C00000F0C00000A4
:100090000C94C7310C94FD31EAC00000E8C00000A8
:1000A000E6C00000E4C00000E2C00000E0C00000C4
:1000B000DEC00000DCC00000DAC00000D8C00000D4
:1000C000D6C00000D4C000000C94BB270C9453325F
:1000D0000C948932CCC000000C94DF320C941533A0
:1000E000C6C0000000000A0B02090C0D0E08070331
:1000F00004010000000000000000000000000000FB
:1001000000000000000000000000000000000000EF
:1001100012111000000000000000000000000000AC
:100120000000000000000000000001021020200874
:100130000810204010204080020102010804020142
:1001400001020408102040808040201008040201B1
:10015000800402018040201008040201080402010A
:100160000102040810204080010204081020408091
:1001700005050505070508080808020202020A0A23
:100180000808040404040101010101010101030341
:10019000030303030303040707070C0C0C0C0C0CEC
:1001A0000C0C0202020206060606060606060B0BE9
:1001B0000B0B0B0B0B0B000020002300260029006B
:1001C0002C002F003200000100000301060109018C
:1001D00000002200250028002B002E0031003400F2
:1001E00002010000050108010B01000021002400AC
:1001F00027002A002D003000330001010000040117
:1002000007010A019A312632B2323E3311241FBE51
:10021000CFEFD1E2DEBFCDBF00E00CBF13E0A0E026
:10022000B2E0E4EFF7E600E00BBF02C007900D92EA
:10023000A234B107D9F728E0A2E4B3E001C01D92CF
:10024000AD3CB207E1F711E0C6E0D1E000E006C046
:1002500021970109802FFE010E94BB33C230D107D4
:1002600080E00807A9F70E94D7280C94F833C8CE7D
:10027000CF92DF92EF92FF92CF93882351F16A01E0
:100280007B01CFEFC80F20E030E0A901CB01B60120
:100290000E94B62987FF11C0C701B60190580E947D
:1002A000272A9B01AC016C2F70E090E080E0CF9199
:1002B000FF90EF90DF90CF90B2C0C701B6010E94CF
:1002C000222A8C2FCF91FF90EF90DF90CF900C944B
:1002D000462ECF91FF90EF90DF90CF9008950F932F
:1002E0001F938B019C0183E0369527951795079501
:1002F0008A95D1F70E5B1C4F462F477021E030E006
:10030000F90102C0EE0FFF1F4A95E2F7AF01F801B5
:1003100020812423CB010196211102C090E080E0CE
:100320001F910F9108950F931F938B019C0183E000
:1003300036952795179507958A95D1F7677081E0CF
:1003400090E001C0880F6A95EAF7F801EE5BFC4F78
:100350002081452B31F48095822380831F910F915A
:100360000895822BFACF2F923F924F925F926F9215
:100370007F928F929F92AF92BF92CF92DF92EF9235
:10038000FF920F931F93CF93DF93D62EC72E782E15
:10039000692E49015A01280161E08D2D0E94802FAC
:1003A000CD2DDC2D8E010F5F1F4FA8016D2D7C2DF3
:1003B000872D962DB8DF20E030E0A901C201B701FA
:1003C0000E94052B181664F4C201B7010E94272A67
:1003D0002B01C501B4010E94272AA201CE0123D01E
:1003E000C801DF91CF911F910F91FF90EF90DF90A7
:1003F000CF90BF90AF909F908F907F906F905F90C5
:100400004F903F902F900895882341F08150682F9E
:1004100070E090E080E050E040E085CF0895862FC6
:10042000B9010C94462E9C01FC01EC51FF4FE49164
:10043000E150E231E0F4F0E08827EE5DFD4F8F4FB0
:100440000C94BB3334023B023E0255026A0237026F
:100450007F028B028F02A602BB02D002E702FC02DF
:100460003702110328033D0384B5806884BD60E032
:10047000822F0C94BC2F84B58062F8CF80918000CD
:100480008C7F82608093800080918100807E80617B
:10049000682B609381005093870040938600809181
:1004A0008000806880938000E2CF809180008C7F04
:1004B00082608093800080918100807E8061682BC3
:1004C0006093810050938700409386008091800064
:1004D0008062E8CF809180008C7F82608093800072
:1004E00080918100807E8061682B609381005093B1
:1004F000870040938600809180008860D3CF8091F0
:10050000B00080688093B0008091B100887F682B34
:100510006093B100ACCF8091B0008062F3CF809146
:1005200090008C7F82608093900080919100807E0B
:100530008061682B609391005093970040939600E0
:100540008091900080688093900091CF809190007E
:100550008C7F82608093900080919100807E80618A
:10056000682B609391005093970040939600809180
:1005700090008062E8CF809190008C7F82608093B1
:10058000900080919100807E8061682B6093910043
:100590005093970040939600809190008860D3CF4D
:1005A0008091A0008C7F82608093A0008091A10048
:1005B000807E8061682B6093A1005093A7004093D8
:1005C000A6008091A00080688093A00050CF809109
:1005D000A0008C7F82608093A0008091A100807E2B
:1005E0008061682B6093A1005093A7004093A60000
:1005F0008091A0008062E8CF8091A0008C7F826013
:100600008093A0008091A100807E8061682B609320
:10061000A1005093A7004093A6008091A00088609D
:10062000D3CF809120018C7F8260809320018091C4
:100630002101807E8061682B609321015093270106
:1006400040932601809120018068809320010FCF84
:10065000809120018C7F8260809320018091210114
:10066000807E8061682B6093210150932701409325
:100670002601809120018062E8CF809120018C7F4B
:1006800082608093200180912101807E8061682BAF
:10069000609321015093270140932601809120010E
:1006A0008860D3CF90E080E008950F931F93009768
:1006B00009F484C06115710509F480C000916802D5
:1006C0001091690220916A0230916B020E3F1F4F18
:1006D0002F4F3F4F09F063C04FEF5FEFBA014093D8
:1006E00068025093690260936A0270936B024091B2
:1006F00068025091690260916A0270916B02DC019C
:100700001296ED91FC9180819181A281B3818093B9
:10071000B7039093B803A093B903B093BA0384814D
:100720009581A681B7818093B3039093B403A0937E
:10073000B503B093B60380859185A285B385809378
:10074000AF039093B003A093B103B093B203848539
:100750009585A685B7858093AB039093AC03A09352
:10076000AD03B093AE031092A7031092A8031092AA
:10077000A9031092AA030E94AE0C83ED9CE0909313
:100780004C0380934B03E9D7009731F421E030E02C
:100790003093BC032093BB031F910F9108950091E8
:1007A00068021091690220916A0230916B02DB01AC
:1007B0000D931D932D933C93139799CF8FEF9FEF3C
:1007C000EBCF8F929F92AF92BF92CF92DF92EF9238
:1007D000FF921F93CF93DF934B015C011091BE03F7
:1007E00082E090E09093BC038093BB03811491045A
:1007F000A104B10441F48091BE03811104C0809131
:10080000BD03C1E08111C0E0C12CD12C76018091E3
:10081000BE03811106C08091BD03811102C0CC23AB
:10082000D9F083E090E09093BC038093BB03CC238A
:1008300079F1CCE9DFEF111102C00E943710CE012F
:10084000DF91CF911F91FF90EF90DF90CF90BF90FD
:10085000AF909F908F9008956AE070E080E090E004
:100860000E94AE2D80E1C80E87E2D81EE11CF11C6B
:100870008FEF88169806A806B80631F0C1E08C14F0
:100880009D04AE04BF0408F0C0E080E092D7BFCF63
:10089000D0E0C0E0D0CFCF92DF92EF92FF921F93D3
:1008A000CF93DF938F3F910511F008F041C0209165
:1008B000BB033091BC032330310539F02091BB03D9
:1008C0003091BC032130310531F424E030E0309325
:1008D000BC032093BB036A017B01EC01892BA9F0C7
:1008E00011E0AE01C701B60137D7AB01BC0190E002
:1008F00080E01123F9F0CE01DF91CF911F91FF909D
:10090000EF90DF90CF900C944C1280914B0390911C
:100910004C03892B29F30E945312029709F7E091A7
:100920004B03F0914C0390E080E01995182FD9CF3C
:100930008FEF9FEFDF91CF911F91FF90EF90DF90AE
:10094000CF90089580E035C7CF93DF9386E090E0A5
:100950009093BC038093BB0385D7EC0110924C03AA
:1009600010924B030E94CF0F1092BC031092BB0356
:10097000CE01DF91CF9108958091BD0308958091BC
:10098000A6030895609368027093690280936A02D7
:1009900090936B0290E080E008952F923F924F92E7
:1009A0005F926F927F928F929F92AF92BF92CF92FF
:1009B000DF92EF92FF920F931F93CF93DF9300D0BC
:1009C00000D000D01F92CDB7DEB71F9281E08F9389
:1009D00068E3862E62E0962EAA24A394B12CE4E369
:1009E000CE2EE2E0DE2EEE24E394F12C07E612E0B8
:1009F00021E030E046E652E069EA78E085E898E0F8
:100A00000E94BC264091640250916502A091850825
:100A1000B09186089A010E94C33360937D08709359
:100A20007E0880937F08909380080091BD08109104
:100A3000BE082091BF083091C008601B710B820B6B
:100A4000930B609375087093760880937708909362
:100A50007808A0918708B09188089A010E94C33352
:100A60006093810870938208809383089093840830
:100A70000091C1081091C2082091C3083091C408A8
:100A8000601B710B820B930B6093790870937A084B
:100A900080937B0890937C080091AF081091B00878
:100AA000C0907903D0907A03E0907B03F0907C03B0
:100AB000D80154968D909D90AD90BC9057970F9013
:100AC0000F90A7019601C501B4010E94B62987FFC6
:100AD00059C21092690810926A0810926B0810921D
:100AE0006C088091690890916A08A0916B08B09198
:100AF0006C0880936D0890936E08A0936F08B09374
:100B000070088093710890937208A0937308B09353
:100B1000740868E070E080E090E0E1DB7C01909395
:100B2000A8088093A7082091690830916A0840912D
:100B30006B0850916C0860913C0270913D0280916D
:100B40003E0290913F020E94092B5B016C010091D3
:100B5000400210914102B0914202BD83E0914302F4
:100B6000E9839B01AC01B8018B2F9E2F0E94B6290F
:100B700087FD16C00091440210914502F091460293
:100B8000FD838091470289839501A601B8018F2FCB
:100B900099810E94052B18161CF08501CD82D982FF
:100BA00020E030E04FE753E4B8018D8199810E9445
:100BB000B62918160CF4FDC220E030E0A901B801F6
:100BC0008D8199810E94052B87FF04C000E010E011
:100BD0001D821982A8016D817981C70149DB69E015
:100BE00070E080E090E07BDB7C019093A008809334
:100BF0009F08A0906908B0906A08C0906B08D090D8
:100C00006C080091480210914902B0914A02BD83DC
:100C1000E0914B02E98398014B2F5E2FB501C6018D
:100C20000E94052B1816B4F000914C0210914D0251
:100C3000F0914E02FD8380914F02898398014F2FDE
:100C4000582FB501C6010E94B62987FD03C0850152
:100C5000CD82D98220E030E04FE753E4B8018D81A6
:100C600099810E94B62918160CF4AAC220E030E03F
:100C7000A901B8018D8199810E94052B87FF04C0CD
:100C800000E010E01D821982A8016D817981C70101
:100C9000EFDA6AE070E080E090E021DB7C01909385
:100CA0009808809397082091690830916A084091CC
:100CB0006B0850916C0860915002709151028091C4
:100CC0005202909153020E94092B5B016C0100912A
:100CD000540210915502B0915602BD83E091570223
:100CE000E9839B01AC01B8018B2F9E2F0E94B6298E
:100CF00087FD16C00091580210915902F0915A02D6
:100D0000FD8380915B0289839501A601B8018F2F35
:100D100099810E94052B18161CF08501CD82D9827D
:100D200020E030E04FE753E4B8018D8199810E94C3
:100D3000B62918160CF44BC220E030E0A901B80126
:100D40008D8199810E94052B87FF04C000E010E08F
:100D50001D821982A8016D817981C70189DA6BE052
:100D600070E080E090E0BBDA7C0190939008809383
:100D70008F08A0906908B0906A08C0906B08D09066
:100D80006C0800915C0210915D02B0915E02BD831F
:100D9000E0915F02E98398014B2F5E2FB501C601F8
:100DA0000E94052B1816B4F00091600210916102A8
:100DB000F0916202FD8380916302898398014F2F35
:100DC000582FB501C6010E94B62987FD03C08501D1
:100DD000CD82D98220E030E04FE753E4B8018D8125
:100DE00099810E94B62918160CF4F8C120E030E071
:100DF000A901B8018D8199810E94052B87FF04C04C
:100E000000E010E01D821982A8016D817981C7017F
:100E10002FDA1F9281E08F9388E3882E82E0982E4C
:100E2000AA24A394B12C24E3C22E22E0D22EEE24D5
:100E3000E394F12C07E612E021E030E046E652E0D0
:100E400069EA78E085E898E00E94E12680917D08D3
:100E500090917E08A0917F08B09180088093BD0892
:100E60009093BE08A093BF08B093C00880918108FA
:100E700090918208A0918308B09184088093C10862
:100E80009093C208A093C308B093C408C0907D0398
:100E9000D0907E03E0907F03F0908003BFEFCB1AE9
:100EA000DB0AEB0AFB0AC0927D03D0927E03E0923C
:100EB0007F03F09280030F900F90C114D104E104DE
:100EC000F10499F48091810390918203A0918303AE
:100ED000B09184030196A11DB11D8093810390936D
:100EE0008203A0938303B093840380908503909042
:100EF0008603A0908703B09088036091810370916E
:100F0000820380918303909184030E94532AA50158
:100F100094010E94092B20E030E040E85FE40E9449
:100F2000092B2B013C01C701B6010E94532AA501E0
:100F300094010E94092B9B01AC01C301B2010E94E4
:100F400052296093790370937A0380937B03909383
:100F50007C032A960FB6F894DEBF0FBECDBFDF919B
:100F6000CF911F910F91FF90EF90DF90CF90BF90A6
:100F7000AF909F908F907F906F905F904F903F9039
:100F80002F900895A7019601F801608171818281F7
:100F900093810E94052B87FF9AC0A7019601C50186
:100FA000B4010E94B62918160CF094C08091C508AF
:100FB0009091C6089A8389835C01AA0CBB1CAA0C79
:100FC000BB1C48018A0C9B1CA7019601D4016D91A2
:100FD0007D918D919C910E94052BB4E0AB0EB11CCC
:100FE000A00EB11E18160CF065C0F4E08F1A91081F
:100FF000A7019601D40114966D917D918D919C91DC
:1010000017970E94052B18160CF449C02090B108C0
:101010003090B20889819A819093C6088093C50860
:10102000880F991F880F991F9A878987FC01E00F05
:10103000F11F408051806280738004969A83898377
:10104000FC01E00FF11F80819181A281B3818D832A
:101050009E83AF83B8879C01AD01C301B2010E949A
:10106000B629811146C0A3019201C701B6010E94B1
:10107000B62987FF34C0A985BA85A20DB31DBA83EE
:10108000A9838D919D910D90BC91A02D80936908AD
:1010900090936A08A0936B08B0936C0822CDE98105
:1010A000FA813197FA83E983A0CFE981FA813196F9
:1010B000FA83E983D5016D917D918D919D915D01BB
:1010C000A70196010E94B62918167CF79FCF1A82B5
:1010D00019829CCFE4E0F0E0FA83E98397CFE981BD
:1010E000FA812E0E3F1EF10180819181A281B38190
:1010F000CDCF89859A85820D931DDC018D909D90C1
:10110000AD90BC90E981FA812E0E3F1ED1018D91E8
:101110009D910D90BC91A02D89839A83AB83BC8354
:101120009C01AD01C501B4010E94B6298823C1F11B
:10113000A70196016D817E818F8198850E9451293A
:101140006B017C01A30192016D817E818F81988565
:101150000E9451299B01AC01C701B6010E94BA2926
:101160006B017C01AC019B0160E070E080E89FE3D3
:101170000E94512929813A814B815C810E94092B6F
:101180002B013C01A5019401C701B6010E94092B66
:101190009B01AC01C301B2010E9452294B015C01C9
:1011A0008092690890926A08A0926B08B0926C08CD
:1011B00098CC00E010E09FE79D83A3E4A9830ACDCB
:1011C00000E010E09FE79D83A3E4A9835DCD00E0EC
:1011D00010E09FE79D83A3E4A983BCCD00E010E06D
:1011E0009FE79D83A3E4A9830FCE8F929F92AF9236
:1011F000BF92DF92EF92FF920F931F93CF93DF93F3
:10120000E3E6F3E08BE2DF011D928A95E9F780E0E7
:1012100090E0A0EFB1E486A397A3A0A7B1A78FE6C3
:1012200092E1A3E8BAE382A393A3A4A3B5A386E1C2
:1012300090E0A9EAB1E584839583A683B7838EE61F
:101240009AE9A1E9BEE780879187A287B38788ECF6
:1012500090E3AAE3B0E784879587A687B78788E2FB
:101260009FEDADE6BBE8808B918BA28BB38BA7E59E
:10127000B3E0B383A283EDE4F3E01196FC93EE9325
:1012800085E992E09183808393838283958384832D
:10129000978386839187808787E793E015969C9351
:1012A0008E93149787E693E013969C938E931297F0
:1012B00089E793E017969C938E931697E9E6F8E0FA
:1012C00080E2DF011D928A95E9F7C9E8D8E082E45F
:1012D000FE0111928A95E9F788E192E09FA38EA31F
:1012E00080E092E099A788A7DD24D394D092CA0821
:1012F000812C912C54018394898E9A8EAB8EBC8E56
:10130000E12CF12C8701A801970168E070E080E0F2
:1013100090E029D89F8F8E8FDD8E188AD092C908D1
:101320001D8A898A9A8AAB8ABC8AA801970169E0DA
:1013300070E080E090E017D89F8B8E8BDD8A188656
:10134000DFAE1D8689869A86AB86BC86A80197018A
:101350006AE070E080E090E006D89F878E87DD86A7
:101360001882DEAE1D8289829A82AB82BC82A8017D
:1013700097016BE070E080E090E00E94B3019F83F2
:101380008E83DD82E8A2F9A20AA31BA3809130021A
:1013900090913102A0913202B09133028CAB9DAB9F
:1013A000AEABBFAB88AF99AFAAAFBBAFDF91CF9168
:1013B0001F910F91FF90EF90DF90BF90AF909F90A3
:1013C0008F9008958091A10881112EC081E08093B3
:1013D000A1088091A2089091A308A091A408B091BF
:1013E000A5080197A105B105F9F48091A608882305
:1013F000D9F068E070E080E090E00E946F01909387
:10140000A8088093A70840E050E0BA010E94380184
:1014100068E070E080E090E00E946F019093A8087F
:101420008093A7080E9404028091990881112EC020
:1014300081E08093990880919A0890919B08A091EF
:101440009C08B0919D080197A105B105F9F4809120
:101450009E088823D9F069E070E080E090E00E9467
:101460006F019093A00880939F0840E050E0BA017C
:101470000E94380169E070E080E090E00E946F0116
:101480009093A00880939F080E9404028091910885
:1014900081112EC081E080939108809192089091F3
:1014A0009308A0919408B09195080197A105B10502
:1014B000F9F4809196088823D9F06AE070E080E022
:1014C00090E00E946F01909398088093970840E005
:1014D00050E0BA010E9438016AE070E080E090E0DC
:1014E0000E946F0190939808809397080E940402CD
:1014F0008091890881112EC081E0809389088091B4
:101500008A0890918B08A0918C08B0918D08019762
:10151000A105B105F9F480918E088823D9F06BE01C
:1015200070E080E090E00E946F01909390088093BB
:101530008F0840E050E0BA010E9438016BE070E093
:1015400080E090E00E946F019093900880938F0854
:101550000C94040208954F925F926F927F928F9243
:101560009F92AF92BF92CF92DF92EF92FF920F9332
:101570001F93F89440909A0350909B0360909C03B3
:1015800070909D03C0908E03D0908F03E0909003E5
:10159000F0909103452B09F0A4C09B01AC012419E4
:1015A00035094609570929013A010091960310911E
:1015B0009703209198033091990348015901840CB5
:1015C000951CA61CB71C80169106A206B306A0F4B3
:1015D000009192031091930320919403309195030D
:1015E0000F5F1F4F2F4F3F4F0093920310939303B2
:1015F00020939403309395038092960390929703DF
:10160000A0929803B09299030091920310919303D2
:10161000209194033091950380929E0390929F03B2
:10162000A092A003B092A1030093A2031093A3037E
:101630002093A4033093A50360939A0370939B03B4
:1016400080939C0390939D03A8EEB3E0A3019201C5
:101650000E94DE336C0D7D1D8E1D9F1D60938E03D9
:1016600070938F038093900390939103009168028D
:101670001091690220916A0230916B020F3F1F4F57
:101680002F4F3F4FF1F000916802109169022091B5
:101690006A0230916B020E3F1F4F2F4F3F4F89F070
:1016A000C0906802D0906902E0906A02F0906B02EC
:1016B00021E08C149D04AE04BF0408F420E02093C4
:1016C000A60378941F910F91FF90EF90DF90CF9039
:1016D000BF90AF909F908F907F906F905F904F9052
:1016E00008954B015C0184189508A608B708A3016A
:1016F0009201261B370B480B590B6415750586059F
:101700009705D0F082169306A406B50640F420E0B3
:1017100030E0A90181149104A104B10491F4A8EE70
:10172000B3E00E94DE33A7019601261B370B480B5E
:10173000590BCA01B901C5CF82169306A406B50696
:1017400070F7A8EEB3E0A50194010E94DE336C0DA2
:101750007D1D8E1D9F1DB5CFFECECF93DF9300D094
:101760001F92CDB7DEB71C821B821A821982BE017E
:101770006F5F7F4FCE0103960E94042669817A81B4
:101780008B819C810E94341F009761F4BE016F5FC2
:101790007F4FCE0103960E94102669817A818B814A
:1017A0009C8126D50F900F900F900F90DF91CF91D5
:1017B0000895FF920F931F93CF93DF93082F60E05C
:1017C00070E0CB010E94AE2DFF24F3940E941D1EF9
:1017D000EC01892B89F010E0CE3F8FEFD80769F03C
:1017E000002361F160E070E0CB010E94AE2D81E04A
:1017F00090E0892B59F322C011E01DD5EC01892B13
:1018000021F0CE3F8FEFD80759F711111EC011E01C
:10181000229609F410E00E94CD1DEC01892B21F0E5
:10182000CE3F8FEFD807E1F6111111C011E0CE3F86
:101830008FEFD80709F410E001110BC0CE01DF9142
:10184000CF911F910F91FF90089511E0E4CF11E027
:10185000F3CF60E070E0CB010E94AE2D1F25812FF9
:1018600090E0C7CFCF93DF931ED6D0E0C0E0892BA6
:1018700071F06AE070E080E090E00E94AE2D81E0BF
:1018800098DF11D62196C03D27E0D20781F710D608
:101890000E94881F1092BE031092BD031092B703DE
:1018A0001092B8031092B9031092BA031092B303C6
:1018B0001092B4031092B5031092B6031092AF03C6
:1018C0001092B0031092B1031092B2031092AB03C6
:1018D0001092AC031092AD031092AE031092A703C6
:1018E0001092A8031092A9031092AA034EEF5FEF83
:1018F0006FEF7FEF409368025093690260936A0232
:1019000070936B021092A603EEE9F3E028E0DF018A
:101910001D922A95E9F710929A0310929B03109258
:101920009C0310929D0310929603109297031092BD
:1019300098031092990310929203109293031092BD
:1019400094031092950310928E0310928F031092BD
:10195000900310929103DF91CF9108951092CA03E2
:101960001092CB031092CC031092CD031092C903B6
:101970008091D2039091D3039093C8038093C703BF
:101980001092C6031092C5031092C1031092C203B5
:101990001092C3031092C4031092CF031092CE038F
:1019A00090E080E00895CF92DF92EF92FF920F9344
:1019B0001F93CF938C01892B09F055C02091D2033E
:1019C0003091D3038091C7039091C8034091D20313
:1019D0005091D3035093C8034093C7032817390786
:1019E00081F01092C6031092C5031092C1031092A9
:1019F000C2031092C3031092C4031092CF0310923B
:101A0000CE038091D2039091D303019761F5809129
:101A1000CE039091CF03892B21F480916C02811128
:101A200012C08091CE039091CF030197E1F4809191
:101A3000C1039091C203A091C303B091C403019765
:101A4000A105B10581F41092C1031092C203109256
:101A5000C3031092C40310926C0282E090E0909352
:101A6000CF038093CE038091D2039091D30301974B
:101A700009F01CC18091E8039091E9038017910758
:101A800009F014C18091E4039091E503A091E6036D
:101A9000B091E703009709F409C12091E3032111F4
:101AA0000DC04091E4035091E5036091E60370910D
:101AB000E703452B462B472B09F4F8C02091CE03B2
:101AC0003091CF032230310509F0F0C02091C503D9
:101AD0002111ECC0FC01C080D180E280F3808091B4
:101AE000C903882309F4D3C08091D5039091D6030C
:101AF000892B09F4FDC02091D5033091D60381E0F4
:101B00002230310509F080E02091D5033091D603D1
:101B1000C1E02130310549F02091D5033091D60341
:101B2000C1E02230310509F0C0E0882309F456C035
:101B30002091DF033091E0034091E1035091E203F3
:101B4000C701B6010E94052B87FD14C02091DF0359
:101B50003091E0034091E1035091E2036091CA03A8
:101B60007091CB038091CC039091CD030E94B62954
:101B700087FD22C02091DF033091E0034091E10313
:101B80005091E203C701B6010E94052B181634F5E7
:101B90002091DF033091E0034091E1035091E20393
:101BA0006091CA037091CB038091CC039091CD03D7
:101BB0000E94B629811112C08091D7039091D80359
:101BC000A091D903B091DA03892B8A2B8B2B19F4BE
:101BD00081E08093C60381E08093C503CC2309F4A0
:101BE00056C02091DF033091E0034091E103509112
:101BF000E203C701B6010E94B62987FF14C02091F5
:101C0000DF033091E0034091E1035091E2036091E2
:101C1000CA037091CB038091CC039091CD030E94B5
:101C2000052B87FF22C02091DF033091E003409114
:101C3000E1035091E203C701B6010E94B629811168
:101C400026C02091DF033091E0034091E1035091E1
:101C5000E2036091CA037091CB038091CC03909111
:101C6000CD030E94052B181694F48091D703909110
:101C7000D803A091D903B091DA03892B8A2B8B2B3F
:101C800019F481E08093C60381E08093C50381E06D
:101C90009091C503911180E08093C903C092CA035B
:101CA000D092CB03E092CC03F092CD03012B09F04C
:101CB00067C18091CE039091CF03892BD9F4109204
:101CC000D4031092C50380916C02882379F082E0DE
:101CD00090E09093CF038093CE0310926C022091FA
:101CE000D2033091D30381E0232BE9F080E01BC0C5
:101CF00081E00ACF10926C028091D403882349F0CE
:101D00001092C6031092CF031092CE031092D40308
:101D1000EDCF8091D2039091D303892BE1F0809194
:101D2000C5031092C5032091CE033091CF0322301A
:101D3000310509F45EC088F42115310509F448C065
:101D40002130310509F4F3C01092C6031092C50387
:101D50001092D40338C081E0E6CF2330310509F476
:101D6000B1C02430310581F74091C1035091C203C5
:101D70006091C3037091C40341155105610571055C
:101D800061F041505109610971094093C1035093B9
:101D9000C2036093C3037093C4034091C103509185
:101DA000C2036091C3037091C403452B462B472B9C
:101DB000D9F42091D0033091D1032130310509F0BD
:101DC00046C01092C6031092CF031092CE030CC0EF
:101DD00080916C02882341F082E090E09093CF03E1
:101DE0008093CE0310926C021092BF038091C603C1
:101DF000CEC08823C9F38091D7039091D803A091D6
:101E0000D903B091DA03181619061A061B060CF04E
:101E10007DC08091D2039091D303019709F076C0E1
:101E20008091D7039091D803A091D903B091DA03A0
:101E30008093C1039093C203A093C303B093C403E0
:101E400083E090E09093CF038093CE03CDCF409179
:101E5000DB035091DC036091DD037091DE03452BC1
:101E6000462B472BA9F01092C6038091DB0390917B
:101E7000DC03A091DD03B091DE038093C103909356
:101E8000C203A093C303B093C40381E090E0DACF10
:101E9000882399F080916D0290916E02A0916F025B
:101EA000B09170028093C1039093C203A093C303C7
:101EB000B093C40384E090E0C5CF1092C60382E0E3
:101EC00090E0C0CF8091C1039091C203A091C30361
:101ED000B091C4030097A105B10559F00197A1097C
:101EE000B1098093C1039093C203A093C303B0933D
:101EF000C4038091C1039091C203A091C303B09128
:101F0000C403892B8A2B8B2B09F06ECF80916D0235
:101F100090916E02A0916F02B0917002892B8A2B72
:101F20008B2B09F44ECF81E08093C603B3CF409151
:101F3000C1035091C2036091C3037091C403411562
:101F400051056105710561F041505109610971093F
:101F50004093C1035093C2036093C3037093C403BF
:101F60004091C1035091C2036091C3037091C403B7
:101F7000452B462B472B09F037CF8111C7CF9FCF79
:101F80008091BF03882309F431CF8091C003CF91A2
:101F90001F910F91FF90EF90DF90CF9008951092D6
:101FA000CA031092CB031092CC031092CD0310926F
:101FB000C9031092CF031092CE031092C80310925F
:101FC000C7031092E9031092E8031092C60310921F
:101FD000C5031092C1031092C2031092C303109262
:101FE000C4031092C0031092BF031092E403109236
:101FF000E5031092E6031092E7031092E3031092B8
:10200000DF031092E0031092E1031092E20388EEE6
:1020100093E0A0E0B0E080936D0290936E02A093F5
:102020006F02B09370021092DB031092DC031092E7
:10203000DD031092DE031092D7031092D8031092A2
:10204000D9031092DA031092D6031092D50381E0DF
:1020500080936C021092D4031092D3031092D20397
:102060001092D1031092D00390E080E00895809107
:10207000D2039091D303892B19F580916C028823A8
:1020800051F08091D403811106C081E08093C00398
:102090008093BF0308952091D40330916C0281E0B6
:1020A00090E0332311F090E080E030E0822393232E
:1020B000892B21F01092C00381E0EACF1092BF0378
:1020C000089582E090E0FA01918380838FEF9FEF83
:1020D0000895CF93DF93EA01009711F00E94A220A8
:1020E0001982188290E080E0DF91CF910895DB01A2
:1020F000009719F48FEF8C9308952EEF2C93FC0129
:102100003F96EF30F10508F034C08827E557FF4EC1
:102110008F4F0C94BB33B710B510B310B110AF1084
:10212000AB10AD10A910A710A510A2109E109A1008
:10213000A010B91080E311968C93089589E2FBCF2B
:1021400082E2F9CF11961C92089583E2F4CF81E2E6
:10215000F2CF81E1F0CF87E2EECF8AE2ECCF80E1EF
:10216000EACF84E2E8CF88E2E6CF86E2E4CF81E3FB
:10217000E2CF80E2E0CF8091F6039091F7030895DB
:102180009093F7038093F60308958091F5030895E3
:102190009091F503892B8093F5030895982F9095DE
:1021A0008091F50389238093F50308958091F403CA
:1021B00008958091F2039091F303089561157105DC
:1021C00059F0FB0130E020E070E060E024173507B3
:1021D00019F06115710511F0CB010895A081B1814D
:1021E000A817B90709F4BF012F5F3F4F3696EECF0E
:1021F0008091F80381111CC041D247D29093EB0328
:102200008093EA030E94101A0E94221A9093EF030F
:102210008093EE030E94351D0E943C1D9093ED03B8
:102220008093EC0381E08093F80390E080E00895D0
:1022300084EF9FEF08958F929F92AF92BF92CF92BB
:10224000DF92EF92FF920F931F93CF93DF9300D013
:1022500000D000D01F92CDB7DEB71A861986188637
:102260001F821E821D821C821B821A82198280910B
:10227000F80307EF1FEF882309F48BC08E010D5F71
:102280001F4F9E012B5F3F4FAE01495F5F4FBE0165
:10229000675F7F4F90E080E00E94B91E8C0100973D
:1022A00021F00596029708F0C7C089859A850097A6
:1022B00009F4EFC0ED80FE802B813C812E0D3F1D87
:1022C0004F8158854217530708F4E3C0E80EF91E02
:1022D000D7014C912091F6033091F703232B09F499
:1022E00094C0413F08F069C08CE1840F8D3008F440
:1022F00083C08DE2840F803108F481C088E3840FAD
:102300008B3008F47FC097E7C92E90E1D92EE1E623
:10231000F0E16D817E81AE014F5F5F4F89859A85C7
:1023200019955C01C114D104A1F189809A808114AE
:10233000910479F18B819C818815990508F484C0FA
:1023400010E000E04B815C8170E060E0C7010E941A
:10235000F13301151105E9F449815A8169857A85BE
:102360008D819E81680F791FC501F6011995E9805D
:10237000FA800D811E812F81388549855A856FEF3E
:102380007FEF81E090E00E94541E8C01892B09F0C0
:1023900053C0C8012A960FB6F894DEBF0FBECDBF5A
:1023A000DF91CF911F910F91FF90EF90DF90CF9031
:1023B000BF90AF909F908F90089530E020E0220F63
:1023C000331FF901E651FC4F0190F081E02D309769
:1023D00009F499CF842F90E01995009709F493CFD1
:1023E000DC011296ED91FC9113971496CD90DC9040
:1023F000309709F08ECF1EC021E030E0E0CF22E020
:1024000030E0DDCF23E030E0DACFD12CC12CE9E69B
:10241000F0E14F3F09F07DCFE091EA03F091EB034B
:10242000309719F404EF1FEF0CC08FEF90E019956F
:102430000097B1F604EF1FEF89859A85009709F49C
:10244000A8CF0E94A220A5CF0E94831F8C0189855E
:102450009A850E94A22070E060E0C4010E941C1FC7
:1024600098878F830E94511E9E838D836F8178850C
:102470006115710559F0C8010E9438229A87898731
:1024800006EF1FEF892B09F05BCF5CCF08EF1FEF42
:1024900059CF08EF1FEFD0CF2091F8032111D7C7F4
:1024A00087EF9FEF08958091F6039091F7030895C9
:1024B0000E94411D0E949B1CEDD0EAEEF3E088E0F3
:1024C000DF011D928A95E9F71092F80390E080E011
:1024D000089586E090E0FA019183808390E080E0A7
:1024E000089547E050E068E972E068CEDF92EF922D
:1024F000FF920F931F93CF93DF938A01EC01C60FD6
:10250000D71FE090FC03F090FD03D9800E946B1F61
:10251000D816190678F082E090E0F8019183808364
:102520008EEF9FEFDF91CF911F910F91FF90EF9072
:10253000DF900895EF2841F482E090E0F801918364
:10254000808384EF9FEFEECF89818093FB0390E03F
:102550000196F8019183808390E080E0E3CFCF93F0
:10256000DF93EA010E94AF1B882321F00E94781FAD
:102570000E94B01B82E090E0998388838BEF9FEFED
:10258000DF91CF910895CF93DF93EB0186E0FB01BC
:1025900011928A95E9F78FEF8883F7DD898306DE4C
:1025A0008A8307DE9D838C83DF91CF910895CF933B
:1025B000DF93EA010E94B21B811109C082E090E022
:1025C0009983888385EF9FEFDF91CF91089590E005
:1025D00080E0D6DD81E090E09983888390E080E020
:1025E000F3CF0F931F93CF93DF93EA018C01060F74
:1025F000171F0E94B21B81110BC082E090E09983EB
:10260000888385EF9FEFDF91CF911F910F91089500
:10261000F8018181823038F082E090E099838883EC
:102620008EEF9FEFF0CF81E090E0AADD88E090E0B0
:102630009983888390E080E0E6CFCF93DF93009783
:10264000D1F4EB01FB01329686E0DF011D928A9501
:10265000E9F78FEF888385E089831A820E946B1FD8
:102660008B830E946A1F9D838C8381E08E838F837E
:10267000DF91CF910895DF91CF9139CD81E792E13C
:102680009093FA038093F90308958091F903909150
:10269000FA0308951092FA031092F90308958091B5
:1026A000FC039091FD030895411105C0611571056A
:1026B0008105910561F06093FC037093FD038093A5
:1026C000FE039093FF034093000481E0089580E0AF
:1026D0000895FF920F931F93CF93DF938A01EC012C
:1026E000C60FD71FF9800E946B1FF816190668F0F5
:1026F00082E090E0F801918380838EEF9FEFDF917D
:10270000CF911F910F91FF9008956C817D818E81F3
:102710009F814B81C9DF811108C082E090E0F80100
:102720009183808384EF9FEFEACF89818093FB03BD
:1027300090E00196F8019183808390E080E0DFCF04
:10274000CF93DF93EA01FC01E60FF71F64817581E7
:10275000868197814381A8DF811109C082E090E0E2
:102760009983888384EF9FEFDF91CF91089581E073
:1027700090E09983888390E080E0F6CFECEFF3E07F
:102780004081518162817381480F511D611D711D0E
:1027900040835183628373830895CF93C091FB0379
:1027A0004C2F50E06091FC037091FD0301960E9454
:1027B000E8338C2FE3DF1092FB03CF91089500974D
:1027C00099F48091FC039091FD032FEFFB0120838E
:1027D000892B59F02091FB0330E02F5F3F4F2417E6
:1027E000350719F4CB01D9CF82CC0895009799F41D
:1027F0008091FC039091FD032FEFFB012083892B37
:1028000059F02091FB0330E02F5F3F4F241735072D
:1028100019F4CB01C2CF6BCC08952DE0AC01249FFD
:10282000C001259F900D1124E0910504F09106044C
:10283000E80FF91F238134812250310981E02230D1
:10284000310508F080E008950F931F93CF93DF9335
:102850000091070410910804D0E0C0E080E00C175C
:102860001D0749F491E0811190E0892FDF91CF910C
:102870001F910F9108958111F5CFCE01CEDF2196E2
:10288000EECFA0910504B0910604109729F1209194
:1028900007043091080482179307F0F45DE0589F15
:1028A0009001599F300D1124A20FB31FED91FC919F
:1028B0001197309789F012968C91681768F485E02B
:1028C000689FE00DF11D112480819181892B21F0F9
:1028D00081E09281491708F080E00895EF92FF921D
:1028E0000F931F93CF93DF93EA01FC01E60FF71FCD
:1028F00002811381E480F5804F2D6E2DC801C1DF68
:1029000081110DC082E090E0998388838EEF9FEF64
:10291000DF91CF911F910F91FF90EF900895C80123
:102920007CDF882339F082E090E09983888388EF08
:102930009FEFEECF1093780200937702E092790236
:10294000F0927A0281E090E09983888390E080E0C1
:10295000DFCFCF92DF92EF92FF920F931F93CF932F
:10296000DF937A01EC01C60FD71FC0907702D09099
:1029700078020091790210917A02412F602FC601EE
:1029800080DF811110C082E090E0F70191838083A5
:102990008AEF9FEFDF91CF911F910F91FF90EF9002
:1029A000DF90CF900895C60138DF882341F082E0A0
:1029B00090E0F7019183808388EF9FEFEBCF4C810C
:1029C0005D816E817F819A8189818F3F41F082E0B4
:1029D00090E0F701918380838EEF9FEFDBCFEDE0F6
:1029E000EC9D9001ED9D300D1124E0910504F091D6
:1029F0000604E20FF31F0190F081E02D25E0029F15
:102A0000E00DF11D11240190F081E02D27E0129FCF
:102A1000E00DF11D1124808391838B818283438398
:102A20005483658376831F5F10937A0281E090E080
:102A3000F7019183808390E080E0ACCFEF92FF922A
:102A40000F931F93CF93DF937A018C01060F171F0B
:102A5000C0910504D0910604209781F021E030E078
:102A6000F8018281938140910704509108048417F2
:102A7000950710F030E020E0232B71F482E090E025
:102A8000F701918380838EEF9FEFDF91CF911F91AC
:102A90000F91FF90EF9008954DE0489F9001499F5E
:102AA000300D1124C20FD31FB8DE882341F082E01D
:102AB00090E0F7019183808388EF9FEFE6CFF801E4
:102AC0002481358120383105C8F687818111D6CF20
:102AD0004181842F90E08F7E009741F082E090E06A
:102AE000F7019183808386EF9FEFCFCF4F833E83A3
:102AF0002D83268128871986223010F421E028872B
:102B000021E030E0F70131832083BFCF88E090E0FF
:102B1000FA019183808390E080E00895FB018FEFBC
:102B2000808381E181838FEF9FEF9383828380E8AD
:102B300090E095838483168217820895FB018FEFBE
:102B4000808391E0918382839383848384E385836C
:102B500081E090E09783868308954BE050E062EC3B
:102B600072E02CCB8F929F92BF92CF92DF92EF9226
:102B7000FF920F931F93CF93DF93EA01FC01E60FBF
:102B8000F71F828193810481B580E0910504F09163
:102B90000604309791F482E090E0998388838CEF6B
:102BA0009FEFDF91CF911F910F91FF90EF90DF90FA
:102BB000CF90BF909F908F900895209107043091FF
:102BC00008048217930738F082E090E099838883A5
:102BD0008EEF9FEFE6CF2DE0289F6001299FD00C5C
:102BE0001124EC0DFD1DE080F180E114F10499F257
:102BF0008281081748F785E0089F80011124E00EC4
:102C0000F11EF70180819181892B29F6BB20E1F229
:102C1000F7E0BF9E40011124C4010E945420F70137
:102C200091838083E0910504F0910604EC0DFD1D75
:102C30000190F081E02DE00FF11F808191810097DC
:102C400039F482E090E0998388838DEF9FEFA9CFDC
:102C5000A40170E060E00E94F1338091050490913E
:102C60000604C80ED91EF60180819181080F191F34
:102C7000F801B28281E090E09983888390E080E05F
:102C800090CFAF92BF92CF92DF92FF920F931F939C
:102C9000CF93DF93EA01FC01E60FF71F8281938156
:102CA000F48000910504109106040115110581F4CA
:102CB00082E090E0998388838CEF9FEFDF91CF9142
:102CC0001F910F91FF90DF90CF90BF90AF9008952C
:102CD00020910704309108048217930738F082E0AE
:102CE00090E0998388838EEF9FEFE8CF2FEF2F0D31
:102CF0002C3FA8F72DE0289F6001299FD00C1124BC
:102D00000C0D1D1DF80180819181892B89F6F5E05C
:102D1000FF9E50011124C5010E945420F8019183A7
:102D20008083E0910504F0910604EC0DFD1D808187
:102D30009181009739F482E090E0998388838DEF48
:102D40009FEFBCCFA50170E060E00E94F133E091FD
:102D50000504F0910604EC0DFD1DF28281E090E087
:102D60009983888390E080E0A9CFCF92DF92EF92A1
:102D7000FF920F931F93CF93DF93860F971FFC0152
:102D8000028113818091050490910604892B81F0C2
:102D900082E090E0FA01918380838CEF9FEFDF91D6
:102DA000CF911F910F91FF90EF90DF90CF900895FA
:102DB000C801B0E0A0E00197A109B1098F3F9F4F82
:102DC000A105B10540F082E090E0FA019183808393
:102DD0008EEF9FEFE4CF7A018DE0809F6001819FAD
:102DE000D00C1124C6010E945420EC01009741F43C
:102DF00082E090E0F701918380838DEF9FEFCFCF4A
:102E0000A60170E060E00E94F133D0930604C09305
:102E10000504109308040093070490E080E02FEF6E
:102E20003FEF8017910741F481E090E0F701918333
:102E3000808390E080E0B3CF3C872B8701962D966E
:102E4000F0CFCF92DF92EF92FF920F931F93CF9329
:102E5000DF93EC01D12CC12C10E000E0F12CE12C2F
:102E60008A818017110609F0BCF4AE01455F5F4FFF
:102E700063E070E0C7010E94CE20009721F02FEFA1
:102E80003FEF3C872B87DF91CF911F910F91FF90F0
:102E9000EF90DF90CF900895E881F981EC0DFD1D52
:102EA00023813481C90101960115110519F44F815F
:102EB00044FD049661E070E0BFD7E816F90608F417
:102EC0007C010F5F1F4F85E0C80ED11CC9CFF8945D
:102ED000209103043091040481E02115310509F0AB
:102EE00080E0232B09F0789408954F925F926F92BF
:102EF0007F928F929F92AF92BF92CF92DF92EF928A
:102F0000FF920F931F93CF93DF933C01660E771EC2
:102F1000F301828193814C01B12CA12CC091050455
:102F2000D0910604209769F021E030E06091070419
:102F3000709108048617970710F030E020E0232BEB
:102F4000C1F482E090E0FA01918380838EEF9FEFDD
:102F5000DF91CF911F910F91FF90EF90DF90CF9075
:102F6000BF90AF909F908F907F906F905F904F90A9
:102F7000089580927B0290927C02A0927D02B09292
:102F80007E026DE0689F9001699F300D1124C20F91
:102F9000D31FF3018181833040F082E090E0FA0199
:102FA0009183808386EF9FEFD3CF2A012B813C81D1
:102FB000232BF1F4288139819F8191FF2EC0232B8F
:102FC00009F464C020910A049A81422F490F5527C1
:102FD000551FBA0141E050E06138710514F050E02E
:102FE00040E0452B09F452C02A87920F90930A04BF
:102FF0008150823008F476C06ADF882309F4C5C0A6
:10300000F3018181813009F480C008F470C08230FE
:1030100009F4B3C090E080E08EC0232BB9F1209179
:1030200009049A81E22FE90FFF27FF1F41E050E0DA
:10303000ED3FF10514F050E040E0452B39F12A87CF
:10304000920F90930904D4CFA081B181A20FB31F36
:1030500011966C91060F111D0196295F3F4F841741
:10306000950794F3C114D104C9F48F8184FF16C06D
:1030700031D721E0A8014B5F5F4F8417950708F413
:1030800020E0A7014B5F5F4F21110EC082E090E06E
:10309000F2019183808387EF9FEF5ACF1BD721E006
:1030A000A8014F5F5F4FE9CF88819981E80EF91E33
:1030B000F70114830383FFEFCF1ADF0A7A018A81B5
:1030C0008C151D0409F00CF497CFE881F981EE0D01
:1030D000FF1D428150E030E020E010E000E090E091
:1030E00080E0BDCFF12CE12CD12CC12CE8CF81E0C8
:1030F00090E09C838B83A8DB882309F48BCF81E04D
:1031000090E03ED880E44AD885CF8B859C85019697
:1031100051F083E090E09C838B8382E090E030D894
:1031200080E436D877CF89288A288B2879F4CE0195
:1031300088DE009771F3789422E030E0F201318369
:103140002083892BF9F08DEF9FEF02CF2D813E81F7
:10315000809171029091720228173907D1F660911F
:10316000750270917602AE01455F5F4F80917302E8
:10317000909174020E94F721DCCF82E090E09C8362
:103180008B8348CF90E080E0E3CE82E090E0F201D4
:103190009183808385EF9FEFDBCE8F929F92AF92DA
:1031A000BF92CF92DF92EF92FF920F931F93CF9334
:1031B000DF93EA018C01060F171FF801818183302C
:1031C00098F082E090E09983888386EF9FEFDF910B
:1031D000CF911F910F91FF90EF90DF90CF90BF9014
:1031E000AF909F908F900895809105049091060470
:1031F000892B61F081E090E0209107043091080470
:10320000232B11F490E080E0892B39F482E090E0E8
:10321000998388838EEF9FEFDACF59DE882309F4F4
:10322000D5C0F8018181813009F48BC0E8F082308B
:1032300099F42091070430910804E0910504F0917D
:10324000060490E080E041E050E02817390709F0DB
:10325000B3C0FADA811117C0789481E090E09983C5
:10326000888390E080E0B3CF209107043091080478
:10327000E0910504F091060490E080E041E050E028
:103280002817390741F481E090E00E94C01080E4E3
:103290000E94CE10E1CF63817481672B11F05483BB
:1032A000438301963D96ECCFE0910504F09106042E
:1032B000E00FF11F238134812230310561F4238531
:1032C00034852F3F3F4F39F4C114D104E104F10498
:1032D00009F5CF01B6DDEFEFCE1ADE0AEE0AFE0ADF
:1032E000035F1F4F409107045091080470E060E0B5
:1032F000C416D506E606F70664F50097A9F2789499
:10330000892B09F4AACF82E090E0998388838DEF1E
:103310009FEF5DCF458156812091710230917202FD
:1033200042175307C1F6AF01455F5F4F60917502C9
:103330007091760280917302909174020E94F7213D
:10334000CACF10E000E090E080E0C12CD12C7601E3
:10335000C9CF0097A1F610E000E0812C912C540118
:1033600083E0E82EF12C1AC0E0910504F0910604E8
:10337000E00FF11F83819481029749F4F482E38284
:1033800082E090E00E94C01080E40E94C810FFEF2D
:103390008F1A9F0AAF0ABF0A035F1F4F809107046D
:1033A00090910804B0E0A0E088169906AA06BB0632
:1033B000DCF290E080E0A3CF63817481623071051C
:1033C00011F45483438301963D963FCF82E090E011
:1033D0009983888385EF9FEFFACE0097B9F48FEF3A
:1033E000FB01808320917B0230917C024DE0429F63
:1033F000C001439F900D1124E0910504F091060453
:10340000E80FF91F8285FB01818308950C947710E2
:1034100088E090E0FA019183808390E080E0089555
:103420001092040410920304E5E0F4E086E0DF016A
:103430001D928A95E9F78DEA95E1909302048093B5
:1034400001040895809101049091020408952F923F
:103450003F924F925F926F927F928F929F92AF9224
:10346000BF92CF92DF92EF92FF920F931F93CF9371
:10347000DF93CDB7DEB762970FB6F894DEBF0FBE0D
:10348000CDBFF89420910304309104042F5F3F4F87
:103490003093040420930304789420910504309120
:1034A00006043B832A83232B09F456C12091070489
:1034B00030910804232B09F44FC14D875E876F8735
:1034C000788B9C878B878A819B819A8B898BD12C67
:1034D000C12C198210E000E080910704909108044B
:1034E000C816D90618F43981332329F1F89480914C
:1034F00003049091040401979093040480930304BF
:103500007894C80162960FB6F894DEBF0FBECDBFA7
:10351000DF91CF911F910F91FF90EF90DF90CF90AF
:10352000BF90AF909F908F907F906F905F904F90E3
:103530003F902F900895B60190E080E029D38887CE
:10354000A989BA8917968C91179781FD8DC013961A
:103550008D919C911497039709F086C01596ED9173
:10356000FC91FF83EE832B853C85E217F30709F07E
:103570007BC0712C612C512C412C63C092D39A8753
:10358000898710E04114510431F4A989BA8917964A
:103590001C9112951170A989BA89ED91FC91E60DE3
:1035A000F71D23803480111169C0BFEF2B1A3B0A2D
:1035B00061E070E0C10140D45C01A989BA891B9621
:1035C0008D919C918F3F980709F45CC0B50150D74D
:1035D0004C01009709F4BBC0E985FA85E80FF91F93
:1035E000A989BA891A968C91840D808311114DC0D6
:1035F0008F010F5F1F4F8091710290917202AE8117
:10360000BF81A817B90709F09DC081E090E0B88597
:10361000BB2311F090E080E0710109851A859501C6
:10362000A401B6019195819591093ED38C01892B16
:1036300011F0C40187D58FEF481A580A95E0690E3A
:10364000711CA989BA8912968C918415150429F0E8
:1036500024F0B981BB2309F491CFE885EE2321F052
:10366000B60190E080E096D2FFEFCF1ADF0A2989F9
:103670003A89235F3F4F3A8B298B2ECFE5E02E0E00
:10368000311C96CFC50110D5A3CF8D859E85AF8502
:10369000B88981839283A383B4838F010B5F1F4F0B
:1036A000AACFE080F180EC81FD81EE0EFF1ED701F4
:1036B00013966D917C9114978C918F3FE1F1E1E02D
:1036C000F0E002C0EE0FFF1F8A95E2F7CF01092E4E
:1036D000000CAA0BBB0BFB014081518162817381FD
:1036E00084239523A623B72321E0892B8A2B8B2BB8
:1036F00009F420E0D8012C93D70111968C91080F82
:10370000111DEA81FB813196FB83EA832C813D8187
:10371000295F3F4F3D832C83A989BA89ED91FC91A4
:10372000E60DF71D82812A813B818217130611F075
:103730000CF0B7CF6ACFF701418150E0C8010E9479
:10374000E833DACF1D821C821B821A82E5CF31E07A
:10375000398306EF1FEF6FCF10E000E0C7CEB7CB85
:10376000789408952F923F924F925F926F927F923A
:103770009F92AF92BF92CF92DF92EF92FF920F9300
:103780001F93CF93DF9300D000D0CDB7DEB7009169
:10379000050410910604992493940115110509F468
:1037A0003EC0A0900704B090080491DB982E8823B7
:1037B000B1F11092060410920504109208041092C0
:1037C00007041092090410920A048FEF9FEFDC01A6
:1037D00080937B0290937C02A0937D02B0937E0243
:1037E00078947AD31E830D83C12CD12C7601C50128
:1037F000B0E0A0E089839A83AB83BC8322242A941F
:10380000322C89819A81AB81BC81C816D906EA061F
:10381000FB06F4F0C80196D480E40E94CE10892DF6
:1038200026960FB6F894DEBF0FBECDBFDF91CF91C5
:103830001F910F91FF90EF90DF90CF90BF90AF90CE
:103840009F907F906F905F904F903F902F90089542
:10385000C114D104E104F10409F5D8011B968D913E
:103860009C918F3F980709F043D5F8013486238651
:10387000ED81FE8180819181B12CA12C412C512CB4
:103880003201892B69F5BFEFCB1ADB0AEB0AFB0A81
:10389000ED81FE813D96FE83ED83B3CFAD81BE8188
:1038A00015962D913C91169780917102909172021C
:1038B00028173907E9F61B968D919C91C7D5D8CF6B
:1038C0008A0D9B1DDC018D919C91009709F03AD4E3
:1038D000BFEF4B1A5B0A6B0A7B0AE5E0AE0EB11C28
:1038E000AD81BE818D919C91119712964C9150E0C3
:1038F00070E060E044165506660677060CF322D4A5
:10390000C2CFCF93DF93EA012DDF811109C082E09E
:1039100090E09983888385EF9FEFDF91CF910895A1
:1039200081E090E00E94C01081E090E0998388835C
:1039300090E080E0F2CF16DF1092020410920104B2
:10394000089542E050E064E073E00C94DE10FF92D2
:103950000F931F93CF93DF938A01EC01C60FD71FFC
:10396000F980B9D20897F816190671F068F082E06C
:1039700090E0F801918380838EEF9FEFDF91CF91EC
:103980001F910F91FF9008956C817D818E819F81A1
:103990004B810E945413811108C082E090E0F8012D
:1039A0009183808384EF9FEFE9CFF9800E944F13CA
:1039B0004F2D50E0BE01685F7F4F0E94E833898140
:1039C0000E94BE1381E090E0F8019183808390E033
:1039D00080E0D4CFDF92EF92FF920F931F93CF93AB
:1039E000DF938A01EC01C60FD71F0E944F137C01A1
:1039F000D98071D2DD2059F0029721E030E0D8164D
:103A0000190619F010F030E020E0232B79F482E061
:103A100090E0F801918380838EEF9FEFDF91CF914B
:103A20001F910F91FF90EF90DF900895EF2841F4E0
:103A300082E090E0F8019183808384EF9FEFEECFE6
:103A4000F9800E944F134F2D50E0BE016E5F7F4FF3
:103A50000E94E83389810E94BE1381E090E0F80162
:103A60009183808390E080E0D9CF81EA9CE19093BC
:103A70000C0480930B04089580910B0490910C0426
:103A800008950895FC011182108293838283089522
:103A9000DB011D921C92DC011296ED91FC911397B3
:103AA0007183608313967C936E9312970895FC0143
:103AB00080819181DB018D939C93A081B1811097CE
:103AC00041F08D919C9191838083892B11F4F38334
:103AD000E2830895FC0180819181DB018D939C93A9
:103AE000892B11F473836283718360830895FC01D1
:103AF00011821082938382830895CF93DF931F9264
:103B00001F92CDB7DEB71A821982F894BE016F5F9B
:103B10007F4F82E194E0CBDF89819A81009709F0A1
:103B200011D389819A81892B89F7BE016F5F7F4FFD
:103B300086E194E0BCDF89819A81009709F002D385
:103B400089819A81892B89F778940F900F90DF9162
:103B5000CF910895CF93DF931F921F92CDB7DEB719
:103B60001A821982F894BE016F5F7F4F8EE094E055
:103B70009EDF89819A81009709F0E4D289819A8138
:103B8000892B89F778940F900F90DF91CF9108954A
:103B900081E0089590E080E00895EF92FF920F9306
:103BA0001F93CF93DF931F921F92CDB7DEB71A8278
:103BB000198280910D0407EF1FEF8823A1F1F8947B
:103BC000BE016F5F7F4F86E194E071DF7894898159
:103BD0009A81EE24E394F12C892B51F4F894BE01E0
:103BE0006F5F7F4F82E194E062DF7894F12CE12CEB
:103BF00089819A810EEF1FEF0097A9F0FC014281A5
:103C0000538164E070E034D68C01892B61F0F89424
:103C100069817A81C701880F991F880F991F8E5E6D
:103C20009B4F58DF7894C8010F900F90DF91CF9190
:103C30001F910F91FF90EF9008950F931F93CF93D3
:103C4000DF9300D01F92CDB7DEB71C821B821A8291
:103C5000198280910D0407EF1FEF8823C1F0AE0198
:103C60004D5F5F4F64E070E0CE01019674D68C0129
:103C7000892B69F4E981FA818B819C81938382830A
:103C8000F89469817A818EE094E002DF7894C8012B
:103C90000F900F900F900F90DF91CF911F910F9188
:103CA000089579D7049608958F929F92AF92BF920C
:103CB000CF92DF92EF92FF920F931F93CF93DF93F8
:103CC0001F921F92CDB7DEB71A821982BC016F5FB7
:103CD0007F4F6330710598F0AA24AA94BA2CC501CD
:103CE0000F900F90DF91CF911F910F91FF90EF9068
:103CF000DF90CF90BF90AF909F908F900895411527
:103D0000510551F3480159018A016C01CADF881538
:103D1000990511F7E114F104F9F28E0D9F1DA81613
:103D2000B906D0F280910D048823F1F0F894B50122
:103D3000645071099701AE014F5F5F4FC80104964F
:103D40009FD65C01892B71F489819A81F801938354
:103D50008283C601880F991F880F991FB8018E5E54
:103D60009B4F96DE7894BBCF87EFA82EBB24BA94E6
:103D7000B6CFAF92BF92CF92DF92EF92FF920F93A6
:103D80001F93CF93DF931F921F92CDB7DEB71A8296
:103D90001982892B09F047C06115710509F443C0E8
:103DA0004115510509F43FC02115310509F43BC007
:103DB00001151105C1F180910D048823B9F1790134
:103DC0006A015B01F894BE016F5F7F4F8EE094E063
:103DD0006EDE789489819A81009759F1DC01129600
:103DE0006D917C91A801049664D68C01E981FA81D9
:103DF000D501ED93FC93828193810496F601918322
:103E000080834FDFD7018D939C93C8010F900F9053
:103E1000DF91CF911F910F91FF90EF90DF90CF90A6
:103E2000BF90AF9008950FEF1FEFEFCF07EF1FEF99
:103E3000ECCF0EEF1FEFE9CFCF93DF93EC01672BB1
:103E400071F4B2D68C179D0760F0A5D62496C80FE2
:103E5000D91FA4D68C0F9D1FDF91CF910895A1D6B5
:103E6000F1CF90E080E0F8CF0F931F93CF93DF93D3
:103E700020910D0421112BC08B01EC0182E194E013
:103E800001DE86E194E0FEDD8EE094E0FBDD86D08D
:103E90000097C1F489D670E060E0CEDF4FE752E0D2
:103EA00062E070E07BD1009769F480917F0290918D
:103EB00080028CD6B801CE01C1D4009719F421E05C
:103EC00020930D04DF91CF911F910F91089584EFFE
:103ED0009FEFF8CF66C668C6CF93DF9368D6EC0134
:103EE000892B11F40ADE36DECE01DF91CF910895E1
:103EF000CF93DF935CD6EC01892B09F4FEDDCE0174
:103F0000DF91CF91089580917F0290918002089572
:103F1000CF93DF9380910D04D0E0C0E08823D1F0EF
:103F20005AD6EC01892BB1F4E8DD14DE80917F02D2
:103F300090918002DDD1ECD2EC01892B59F482E121
:103F400094E0D5DD86E194E0D2DD8EE094E0CFDD33
:103F500010920D04CE01DF91CF910895CF93DF939E
:103F60000097A1F4DF91CF910895EC011A82198294
:103F7000A883309711F0928381832F5F3F4FFC011C
:103F8000860F971F4217530781F7ECCF30E020E0F0
:103F9000F0E0E0E0AFEF6F5F7F4FF4CFCF92DF92C2
:103FA000EF92FF920F931F93CF93DF930FE415E0EF
:103FB0000C7F80E1E82E83E0F82E96E1C92E93E095
:103FC000D92ECEE9D5E0D7014D915D917D01F60165
:103FD000619171916F01198308835D834C835B83C9
:103FE0004A837F836E839B012F5F3F4F249FC001D5
:103FF000259F900D349F900D112499878887C801C3
:10400000ADDF88859985080F191F2A96F6E1EF160E
:10401000F3E0FF06C1F6ECE1F4E080E391E0DF01BC
:104020009C011D9221503040E1F710921B04109228
:104030001A041092BD051092BC051092C105109291
:10404000C0051092BF051092BE051092C3051092D4
:10405000C2051092C5051092C4051092C7051092B2
:10406000C6051092CB051092CA051092C905109290
:10407000C8051092CD051092CC051092CF05109274
:10408000CE0510929B0510929A0510929D051092F4
:104090009C0590E080E0DF91CF911F910F91FF9000
:1040A000EF90DF90CF900895009799F1F8948131C7
:1040B000910550F48091A0059091A105892B39F0CC
:1040C00020E090E080E018C08931910550F48091A3
:1040D000AA059091AB05892B31F021E081E090E0B9
:1040E0000BC08197A8F48091B4059091B505892BF8
:1040F00079F022E082E090E0EAE0E89FD001E99FD9
:10410000B00D1124A256BA4F8D919C91009721F4C5
:10411000789490E080E00895E29FF0011124E25647
:10412000FA4FDC0111964D915C915183408342819D
:1041300053814150510953834283FC012193CF01A4
:1041400078940895009749F1DC018E91853041F40F
:10415000E0919C05F0919D053097F9F0CD011994FF
:104160008530D8F4282F30E0F8948FEF8C938AE0D4
:10417000829FF001839FF00D1124E256FA4F808157
:10418000918112969C938E931197B183A083828123
:10419000938101969383828378940895CF92DF92DE
:1041A000EF92FF920F931F93CF93DF939C018FE1C8
:1041B00094E08C7F4115510509F497C02115310514
:1041C00009F493C06115710509F48FC07A01AB0140
:1041D000B9016D5F7F4F6C7F9B012F5F3F4F249F25
:1041E0008001259F100D349F100D1124F89420910B
:1041F000BC053091BD05232B59F42091C4053091A5
:10420000C5052115310569F12017310708F056C0A1
:104210002091C6053091C705232B91F42091C40548
:104220003091C505820F931F2091CE053091CF05A7
:104230002115310509F43FC02017310708F052C09D
:104240007894CFEFDFEF86EF9FEFF701D183C08344
:10425000DF91CF911F910F91FF90EF90DF90CF9062
:104260000895C3E0D0E0C0901A04D0901B042DE262
:1042700031E02C193D092017310710F32AE02C9F5B
:10428000F0012D9FF00D1124E256FA4F91838083A7
:1042900055834483538342837783668311870087E2
:1042A0005DDE0C0D1D1D10931B0400931A04789401
:1042B00090E080E0CACFC4E0D0E0D5CFC3E0D0E04A
:1042C0002AE02C9FF0012D9FF00D1124E256FA4FA9
:1042D00091838083558344835383428377836683AA
:1042E0003DDEE5CFC4E0D0E0EBCF8FEF9FEFB0CF66
:1042F000FF920F931F93CF93DF939C0123503109BB
:104300002230310508F070C0EC01F89484E09AE0A6
:104310009C9FD0019D9FB00D1124AA55BA4F082F24
:1043200010E0909FF001919FF00D1124E256FA4F9A
:1043300020813181C017D10714F1FF24F394232B7E
:1043400041F52AE0209FF001219FF00D1124E25653
:10435000FA4F80911A0490911B0440855185841B6B
:10436000950B90931B0480931A042C9FF0012D9FB2
:10437000F00D1124E256FA4F118610861CC0232B33
:1043800039F42D913C911197232BA9F48150C7CF7B
:10439000F12C8AE08C9FF0018D9FF00D1124E256E4
:1043A000FA4F4085518570E060E0808191810E94E4
:1043B000F133F110C6CF8AE08C9FF0018D9FF00D94
:1043C0001124E256FA4F1182108215821482138250
:1043D000128217821682789490E080E0DF91CF916C
:1043E0001F910F91FF9008958FEF9FEFF7CF411529
:1043F000510549F1009739F16115710521F1F894E2
:1044000020919A0530919B05232BB9F420919C05AE
:1044100030919D05232B89F490939B0580939A05F9
:1044200070939D0560939C05789425E030E090E0C2
:1044300080E0FA0131832083089578942FEF3FEFD5
:1044400086EF9FEFF6CF8FEF9FEF0895059769F402
:10445000F89410929B0510929A0510929D05109267
:104460009C05789490E080E008958FEF9FEF089589
:104470006115710519F4F0E0E0E011C08530910597
:1044800081F4E0919A05F0919B053097A1F3CB015F
:1044900001961995009779F3FC0185E08193CF018E
:1044A00008959C01235031092230310520F72AE07C
:1044B000289FD001299FB00D1124A256BA4F2D91EB
:1044C0003C911197232BB9F216962D913C91179799
:1044D0002617370780F2F89412962D913C91139786
:1044E0002115310529F0ED91FC911197309711F4C8
:1044F0007894C1CF4181528111965C934E932150A3
:10450000310913963C932E93129781937894C7CFD9
:10451000ECE4F5E08EE4DF011D928A95E9F7ECE129
:10452000F4E080E391E0DF019C011D9221503040D6
:10453000E1F710921B0410921A04EEE9F5E082E311
:10454000DF011D928A95E9F7EAE9F5E084E0DF01F1
:104550001D928A95E9F790E080E00895CF93DF936C
:10456000C0918102D0918202CF3FDC0759F464D51B
:10457000909382028093810297FF09C0D0938202B8
:10458000C093810284EF9FEFDF91CF91089590E077
:1045900080E0FACF8230910528F48093D00590E036
:1045A00080E008958FEF9FEF08954F925F926F9292
:1045B0007F92AF92BF92CF92DF92EF92FF920F93D2
:1045C0001F93CF93DF931F921F92CDB7DEB71A824E
:1045D0001982009709F479C06115710509F475C055
:1045E000209181023091820207EF1FEF2F3F3F4F52
:1045F00009F445C06B015C01412C512C3201F12CB6
:10460000E12C10E000E09E012F5F3F4FA6014E1904
:104610005F09B5016E0D7F1D80918102909182022C
:104620006AD5892B09F04BC089819A81009741F4A2
:10463000E114F10429F42091D005222309F442C0A9
:10464000E80EF91EEC14FD04D0F480E8481684E866
:1046500058068EE16806710420F560E070E0CB0139
:104660000E94AE2D2AE0420E511C611C711C0A3FB3
:104670004FEF140721F0043F8FEF1807A1F4C80192
:104680000F900F90DF91CF911F910F91FF90EF90BE
:10469000DF90CF90BF90AF907F906F905F904F90E2
:1046A000089501EF1FEF81E090E0013F2FEF120727
:1046B00011F090E080E0892B09F4A5CFE0CF04EF62
:1046C0001FEFDDCF0AEF1FEFDACF0FEF1FEFD7CFCE
:1046D0004F925F926F927F92AF92BF92CF92DF9292
:1046E000EF92FF920F931F93CF93DF931F921F922E
:1046F000CDB7DEB71A821982009709F479C0611527
:10470000710509F475C0209181023091820207EF92
:104710001FEF2F3F3F4F09F445C06B015C01412C57
:10472000512C3201F12CE12C10E000E09E012F5FB2
:104730003F4FA6014E195F09B5016E0D7F1D809197
:104740008102909182028DD4892B09F04BC089811E
:104750009A81009741F4E114F10429F42091D005E5
:10476000222309F442C0E80EF91EEC14FD04D0F433
:1047700080E8481686E9580688E96806710420F53D
:1047800060E070E0CB010E94AE2D2AE0420E511C89
:10479000611C711C0E3F4FEF140721F0043F8FEF97
:1047A0001807A1F4C8010F900F90DF91CF911F91CE
:1047B0000F91FF90EF90DF90CF90BF90AF907F90E0
:1047C0006F905F904F90089502EF1FEF81E090E0AF
:1047D000023F2FEF120711F090E080E0892B09F4DF
:1047E000A5CFE0CF04EF1FEFDDCF0EEF1FEFDACF45
:1047F0000FEF1FEFD7CF80918102909182028F3F00
:10480000980749F011D4892B49F48FEF9FEF9093CB
:1048100082028093810290E080E0089584EF9FEF10
:104820000895FC01680F791F90E080E0E617F70714
:1048300009F408952191820F911DF8CF2091D1059F
:10484000211113C08BDE009791F41092D7051092BE
:10485000D6051092D5051092D4051092D30510926A
:10486000D20521E02093D105089584EF9FEF0895AC
:10487000AF92BF92CF92DF92EF92FF920F931F936E
:10488000CF93DF93009709F460C04630510508F4D8
:104890005CC02091D105C7EFDFEF222309F449C0A6
:1048A0008C01060F171FF801C080D180C114D104FC
:1048B00009F44EC096012A5F3F4F4217530708F490
:1048C00047C07C018091D6059091D7059383828360
:1048D000B6016C5F7F4F5801A60EB71EC801A1DF5D
:1048E000F5019183808364E070E0C8015EDEEC0135
:1048F000892BF9F481E090E04DDEB601C801049601
:1049000054DEEC01892B91F462E070E0C5014DDECC
:10491000EC01892B59F4C70115DC8091D6059091E3
:10492000D70501969093D7058093D60590E080E057
:1049300031DECE01DF91CF911F910F91FF90EF906B
:10494000DF90CF90BF90AF900895CFEFDFEFF1CF22
:10495000C9EFDFEFEECF6F927F928F929F92AF926F
:10496000BF92CF92DF92EF92FF920F931F93CF935C
:10497000DF9300D01F92CDB7DEB7009709F47AC05D
:104980004115510509F476C02091D10507EF1FEFBD
:10499000222309F44DC03A017B015C0164E070E020
:1049A000CE01019695DE8C01892B09F041C0098169
:1049B0001A810115110509F45AC0480186E0880ED4
:1049C000911CB701680D791D80918302909184023A
:1049D0004FDD6C01009709F450C0A70170E060E062
:1049E0000E94F13389819A81AB81BC81EC0CFD1C62
:1049F000F70181939193A193B1937F0181E090E0BE
:104A0000C9DDB801C70164DE892B31F562E070E0D1
:104A1000C701800F911F5CDE8C01892BE9F490E0C7
:104A200080E0B8DDF501D182C082F30191828082FD
:104A3000C8010F900F900F900F90DF91CF911F91B1
:104A40000F91FF90EF90DF90CF90BF90AF909F902D
:104A50008F907F906F90089590E080E09BDDF5014E
:104A600011821082F30111821082C6016BDB09EF03
:104A70001FEFDECF0FEF1FEFDBCF06EF1FEFD8CF1B
:104A80000097A1F04115510589F02115310571F00C
:104A9000F90136966E177F0748F0DC012D933C93A1
:104AA000DA01ED93FC9390E080E008958FEF9FEFA3
:104AB0000895AF92BF92CF92DF92EF92FF920F9341
:104AC0001F93CF93DF93009709F45FC04115510501
:104AD00009F45BC06530710508F457C02091D10519
:104AE000C7EFDFEF222391F1DC01CD90DC9011972D
:104AF0001296ED91FC9196012A5F3F4FC9EFDFEFCF
:104B00002617370719F5C091D205D091D305209704
:104B100049F521E030E03093D3052093D2057A01A6
:104B20008C01F093D505E093D4055601B4E0AB0EAB
:104B3000B11CB50176DE0A0D1B1DF8012081318103
:104B40008217930729F5D701CD92DC92CE01DF9130
:104B5000CF911F910F91FF90EF90DF90CF90BF907A
:104B6000AF9008952091D4053091D5052F5F3F4F28
:104B7000CCEFDFEFE217F30790F2CBEFDFEF2E176A
:104B80003F0768F2D0E0C0E0CACFCFEFDFEFDECF63
:104B9000C3EFDFEFDBCF84E090E0089582E090E0A8
:104BA00008958CEF9FEF089580E290E008951092B1
:104BB000D7051092D6051092D5051092D405109203
:104BC000D3051092D20590E080E00895909384027E
:104BD0008093830208958091D105882391F00BDEA4
:104BE000009789F41092D7051092D6051092D5053A
:104BF0001092D4051092D3051092D2051092D105CF
:104C0000089590E080E00895009749F061157105DE
:104C100031F0FC0111821082FB0111821082089593
:104C2000F3CFCF93DF938091D8059091D9050E945F
:104C3000E92FEC018091DA059091DB050E94E92FC4
:104C4000019771F48091DC059091DD05219771F455
:104C500001969093DD058093DC05DF91CF91089557
:104C60008091DC059091DD05CD2B91F30197F1CF7B
:104C7000CF93DF938091E0059091E1050E94E92FA9
:104C8000EC018091E2059091E3050E94E92F0197E4
:104C900071F48091E4059091E505219771F40196F6
:104CA0009093E5058093E405DF91CF91089580917D
:104CB000E4059091E505CD2B91F30197F1CFCF93CA
:104CC000DF938091E2059091E3050E94E92FEC01CA
:104CD0008091E0059091E1050E94E92F019771F420
:104CE0008091E4059091E505CD2B71F401969093A8
:104CF000E5058093E405DF91CF9108958091E40567
:104D00009091E505219791F30197F1CFCF93DF9330
:104D10008091DA059091DB050E94E92FEC018091EA
:104D2000D8059091D9050E94E92F019771F48091DF
:104D3000DC059091DD05CD2B71F401969093DD0596
:104D40008093DC05DF91CF9108958091DC059091EF
:104D5000DD05219791F30197F1CF029784319105F9
:104D600040F4845E9C4FFC018081082E000C990B5E
:104D700008958FEF9FEF08950F931F93CF93DF93C5
:104D8000CDB7DEB78C0120E030E040E85FE3FB0107
:104D90006081718182819381E9D281110DC08091FE
:104DA000DC059091DD05F801918380838091E40515
:104DB0009091E50593838283DF91CF911F910F91AD
:104DC00008958F929F92AF92BF92CF92DF92EF920F
:104DD000FF920F931F93CF93DF93CDB7DEB77B0185
:104DE0005A0120E030E040E85FE3FB01608171811F
:104DF00082819381BBD2882309F48BC0F501808125
:104E000090E09093D9058093D805F801808190E0D7
:104E10009093DB058093DA05F601608171818281D0
:104E2000938110D37093E1056093E005F4016081F4
:104E300071818281938106D37093E3056093E205CB
:104E40008091D8059091D90560E00E94802F8091D3
:104E5000DA059091DB0560E00E94802F8091E005EB
:104E60009091E10560E00E94802F8091E205909191
:104E7000E30560E00E94802F8091D8059091D905CC
:104E800061E00E94BC2F8091DA059091DB0561E022
:104E90000E94BC2F8091E0059091E10561E00E94A5
:104EA000BC2F8091E2059091E30561E00E94BC2F48
:104EB0008091D8059091D90550DF41E050E066E837
:104EC00076E20BD48091DA059091DB0546DF41E074
:104ED00050E061E176E201D48091E0059091E10536
:104EE0003CDF41E050E06FE576E2F7D38091E205E8
:104EF0009091E30532DF41E050E068E376E2EDD3E4
:104F000080E090E0A0E8BFE3F70180839183A28373
:104F1000B383DF91CF911F910F91FF90EF90DF90BE
:104F2000CF90BF90AF909F908F90089540E052EC4B
:104F300061E070E090E080E000C08130910579F0A0
:104F40001CF4892B39F008958230910561F00397A4
:104F500071F0089526E085EF95E00C94DB3026E0B3
:104F600082E996E0FACF26E08FE297E0F6CF26E0DE
:104F70008CEC97E0F2CF1F920F920FB60F92112494
:104F80000BB60F922F933F934F935F936F937F9343
:104F90008F939F93AF93BF93EF93FF9386E09FEF21
:104FA0009093250180932401BAD0FF91EF91BF9196
:104FB000AF919F918F917F916F915F914F913F91B1
:104FC0002F910F900BBE0F900FBE0F901F90189552
:104FD00086E09FEF9093250180932401A3E7B0E042
:104FE0008C918E7F8C93E0E2F1E080818C7F8083D6
:104FF000E1E2F1E08081877E80838081836080832D
:1050000080818B7F80838C9181608C930895E3E70E
:10501000F0E0808190819E7F90838170089581E08F
:1050200008951092E805089568EE73E080E090E03E
:1050300095D590E080E0089526E040E050E16EE0F4
:1050400070E085EF95E00E94DB3085EF95E0E9D7D1
:10505000892B21F085EF95E0FED7F7CF90E080E037
:105060000895CF92DF92EF92FF920F931F93CF9309
:10507000DF936B017A01E9011982188285EF95E0CF
:10508000D0D7892B69F18601CC24C39482E0D82E35
:105090008091E805811110C085EF95E0DCD702977B
:1050A000B9F7C092E805F801D1928F018881998102
:1050B000019699838883ECCF888199818E159F050D
:1050C00078F485EF95E0C7D78F3F9807A9F3F801EB
:1050D00081938F0188819981019699838883ECCF90
:1050E00090E080E0DF91CF911F910F91FF90EF90C2
:1050F000DF90CF9008950F931F93CF93DF93EA0132
:10510000890185EF95E00E946B33F801D183C0835C
:1051100090E080E0DF91CF911F910F910895CF92A1
:10512000DF92EF92FF92CF93DF938091E90591E0B8
:10513000980F9093E905882379F021E030E03093CF
:10514000EB052093EA058093E905DF91CF91FF906D
:10515000EF90DF90CF9008957894C0919602D0910F
:1051600097026E8D7F8D88A199A19DD120E030E0BE
:1051700040E85FE44ED26B017C016A8D7B8D8C8DA3
:105180009D8D91D19B01AC01C701B6018BD05FD140
:105190006B017C010E94CD04B701A60190E080E084
:1051A0000E944B04F8948091E9058150CCCFCF93B5
:1051B000DF931092CC081092CB0806D5B7DEC091D1
:1051C0009602D09197021982188260E375E780E019
:1051D00090E00E94C20470E060E090E080E00E94F5
:1051E00052030097A9F50E94F508F8947894BE013F
:1051F0006A5D7F4F8A819B810E945503892B59F4F8
:105200006FEF7FEFCB010E94E1030E94BC04882373
:1052100011F081E08AA7F894DBDE0E94BF048111BF
:1052200004C00E94BC0491E0811190E09093CB08EF
:1052300078940E94BB10EC0178948091CB08811186
:105240000AC00E94E2090E94A404F89490E080E061
:10525000DF91CF9108950E94A2040E94BF0491E0C3
:10526000811106C00E94BC0491E0811101C090E050
:105270009093CC089091CC0881E0911180E08093CC
:10528000CB088091CC088111C2DE219729F40E94BD
:10529000BB10892B09F4C5DE0E94BB10EC01BFDEF8
:1052A000CCCF5058BB27AA270ED075C166D130F09D
:1052B0006BD120F031F49F3F11F41EF45BC10EF46A
:1052C000E095E7FB51C1E92F77D180F3BA17620768
:1052D00073078407950718F071F49EF58FC10EF4DB
:1052E000E0950B2EBA2FA02D0B01B90190010C01F6
:1052F000CA01A0011124FF27591B99F0593F50F40E
:10530000503E68F11A16F040A22F232F342F442765
:10531000585FF3CF469537952795A795F04053955D
:10532000C9F77EF41F16BA0B620B730B840BBAF02D
:105330009150A1F0FF0FBB1F661F771F881FC2F798
:105340000EC0BA0F621F731F841F48F487957795AC
:105350006795B795F7959E3F08F0B3CF9395880F63
:1053600008F09927EE0F979587950895D9D008F4FE
:1053700081E008950CD00FC107D140F0FED030F08D
:1053800021F45F3F19F0F0C0511139C1F3C014D1BD
:1053900098F39923C9F35523B1F3951B550BBB27FC
:1053A000AA2762177307840738F09F5F5F4F220FA9
:1053B000331F441FAA1FA9F333D00E2E3AF0E0E8A2
:1053C00030D091505040E695001CCAF729D0FE2FEE
:1053D00027D0660F771F881FBB1F26173707480780
:1053E000AB07B0E809F0BB0B802DBF01FF27935836
:1053F0005F4F2AF09E3F510568F0B6C000C15F3F85
:10540000ECF3983EDCF3869577956795B795F7951D
:105410009F5FC9F7880F911D9695879597F9089515
:10542000E1E0660F771F881FBB1F621773078407B1
:10543000BA0720F0621B730B840BBA0BEE1F88F7C0
:10544000E095089504D06894B111D9C00895BCD0F6
:1054500088F09F5790F0B92F9927B751A0F0D1F05D
:10546000660F771F881F991F1AF0BA95C9F712C0E7
:10547000B13081F0C3D0B1E00895C0C0672F782F5C
:105480008827B85F39F0B93FCCF386957795679553
:10549000B395D9F73EF490958095709561957F4FBF
:1054A0008F4F9F4F0895E89409C097FB3EF4909565
:1054B0008095709561957F4F8F4F9F4F9923A9F0ED
:1054C000F92F96E9BB279395F6958795779567957C
:1054D000B795F111F8CFFAF4BB0F11F460FF1BC0C0
:1054E0006F5F7F4F8F4F9F4F16C0882311F096E953
:1054F00011C0772321F09EE8872F762F05C0662301
:1055000071F096E8862F70E060E02AF09A95660FB9
:10551000771F881FDAF7880F9695879597F9089572
:10552000990F0008550FAA0BE0E8FEEF16161706B4
:10553000E807F907C0F012161306E407F50798F01C
:10554000621B730B840B950B39F40A2661F0232B35
:10555000242B252B21F408950A2609F4A140A695B1
:105560008FEF811D811D089597F99F6780E870E096
:1055700060E008959FEF80EC089500240A941616C9
:10558000170618060906089500240A941216130631
:10559000140605060895092E0394000C11F48823BF
:1055A00052F0BB0F40F4BF2B11F460FF04C06F5FDB
:1055B0007F4F8F4F9F4F089557FD9058440F551FB1
:1055C00059F05F3F71F04795880F97FB991F61F085
:1055D0009F3F79F087950895121613061406551FFC
:1055E000F2CF4695F1DF08C0161617061806991F68
:1055F000F1CF86957105610508940895E894BB275D
:1056000066277727CB0197F908958ADF08F48FEF93
:1056100008950BD0C0CFB1DF28F0B6DF18F0952386
:1056200009F0A2CFA7CF1124EACFC6DFA0F3959F40
:10563000D1F3950F50E0551F629FF001729FBB2779
:10564000F00DB11D639FAA27F00DB11DAA1F649F25
:105650006627B00DA11D661F829F2227B00DA11DD8
:10566000621F739FB00DA11D621F839FA00D611D5E
:10567000221F749F3327A00D611D231F849F600D7F
:10568000211D822F762F6A2F11249F5750408AF0B8
:10569000E1F088234AF0EE0FFF1FBB1F661F771F44
:1056A000881F91505040A9F79E3F510570F05CCF84
:1056B000A6CF5F3FECF3983EDCF386957795679530
:1056C000B795F795E7959F5FC1F7FE2B880F911D62
:1056D0009695879597F908950895883008F076C0D3
:1056E000E82FF0E0EE0FFF1FEB57FD4F7183608353
:1056F0008150873008F03DC0E82FF0E08827EC5754
:10570000F44D8F4F0C94BB33C12B8B2B932B9F2BC2
:10571000AC2BCD2BDA2B809169008C7F482B4093EA
:105720006900E89A089580916900837F440F551FAE
:10573000440F551F482B40936900E99A08958091C2
:1057400069008F7C74E0440F551F7A95E1F7482B70
:1057500040936900EA9A0895809169008F7366E02A
:10576000440F551F6A95E1F7482B40936900EB9A67
:10577000089580916A008C7F482B40936A00EC9AD0
:10578000089580916A00837F440F551F440F551F71
:10579000482B40936A00ED9A089580916A008F7CAF
:1057A00024E0440F551F2A95E1F7482B40936A00E7
:1057B000EE9A089580916A008F7396E0440F551F0A
:1057C0009A95E1F7482B40936A00EF9A08951F924B
:1057D0000F920FB60F9211240BB60F922F933F9397
:1057E0004F935F936F937F938F939F93AF93BF93E9
:1057F000EF93FF93E0918902F0918A021995FF914E
:10580000EF91BF91AF919F918F917F916F915F9138
:105810004F913F912F910F900BBE0F900FBE0F90A5
:105820001F9018951F920F920FB60F9211240BB66E
:105830000F922F933F934F935F936F937F938F9329
:105840009F93AF93BF93EF93FF93E0918B02F091FF
:105850008C021995FF91EF91BF91AF919F918F911C
:105860007F916F915F914F913F912F910F900BBE60
:105870000F900FBE0F901F9018951F920F920FB6AA
:105880000F9211240BB60F922F933F934F935F9378
:105890006F937F938F939F93AF93BF93EF93FF93F8
:1058A000E0918D02F0918E021995FF91EF91BF91D9
:1058B000AF919F918F917F916F915F914F913F91A8
:1058C0002F910F900BBE0F900FBE0F901F90189549
:1058D0001F920F920FB60F9211240BB60F922F93B7
:1058E0003F934F935F936F937F938F939F93AF9368
:1058F000BF93EF93FF93E0918F02F091900219957F
:10590000FF91EF91BF91AF919F918F917F916F9197
:105910005F914F913F912F910F900BBE0F900FBE53
:105920000F901F9018951F920F920FB60F9211248F
:105930000BB60F922F933F934F935F936F937F9389
:105940008F939F93AF93BF93EF93FF93E091850263
:10595000F09186021995FF91EF91BF91AF919F91C0
:105960008F917F916F915F914F913F912F910F9008
:105970000BBE0F900FBE0F901F9018951F920F92A5
:105980000FB60F9211240BB60F922F933F934F93A4
:105990005F936F937F938F939F93AF93BF93EF9397
:1059A000FF93E0918702F09188021995FF91EF91A2
:1059B000BF91AF919F918F917F916F915F914F9127
:1059C0003F912F910F900BBE0F900FBE0F901F9025
:1059D00018951F920F920FB60F9211240BB60F92CB
:1059E0002F933F934F935F936F937F938F939F93E7
:1059F000AF93BF93EF93FF93E0919102F0919202E6
:105A00001995FF91EF91BF91AF919F918F917F91E8
:105A10006F915F914F913F912F910F900BBE0F901F
:105A20000FBE0F901F9018951F920F920FB60F92F6
:105A300011240BB60F922F933F934F935F936F9365
:105A40007F938F939F93AF93BF93EF93FF93E091D7
:105A50009302F09194021995FF91EF91BF91AF914C
:105A60009F918F917F916F915F914F913F912F9176
:105A70000F900BBE0F900FBE0F901F9018951F92A6
:105A80000F920FB60F9211242F933F938F939F93F2
:105A9000AF93BF938091ED059091EE05A091EF0536
:105AA000B091F0053091EC0523E0230F2D3758F528
:105AB0000196A11DB11D2093EC058093ED059093F7
:105AC000EE05A093EF05B093F0058091F10590915C
:105AD000F205A091F305B091F4050196A11DB11D49
