:1000000005C100000C9483250C94AE250C94D925D1
:100010000C9404260C942F260C945A260C948526B6
:100020000C94B02624C1000022C1000020C10000B1
:100030001EC100001CC100001AC1000018C1000050
:1000400016C1000014C1000012C1000010C1000060
:100050000EC100000CC100000AC100000C94DB2698
:1000600006C100000C94032A0C94392A00C1000038
:10007000FEC00000FCC00000FAC00000F8C0000094
:10008000F6C00000F4C00000F2C00000F0C00000A4
:100090000C948F2A0C94C52AEAC00000E8C0000026
:1000A000E6C00000E4C00000E2C00000E0C00000C4
:1000B000DEC00000DCC00000DAC00000D8C00000D4
:1000C000D6C00000D4C000000C94C2210C941B2B9D
:1000D0000C94512BCCC000000C94A72B0C94DD2B5E
:1000E000C6C0000000000A0B02090C0D0E08070331
:1000F00004010000000000000000000000000000FB
:1001000000000000000000000000000000000000EF
:1001100012111000000000000000000000000000AC
:100120000000000000000000000001021020200874
:100130000810204010204080020102010804020142
:1001400001020408102040808040201008040201B1
:10015000800402018040201008040201080402010A
:100160000102040810204080010204081020408091
:1001700005050505070508080808020202020A0A23
:100180000808040404040101010101010101030341
:10019000030303030303040707070C0C0C0C0C0CEC
:1001A0000C0C0202020206060606060606060B0BE9
:1001B0000B0B0B0B0B0B000020002300260029006B
:1001C0002C002F003200000100000301060109018C
:1001D00000002200250028002B002E0031003400F2
:1001E00002010000050108010B01000021002400AC
:1001F00027002A002D003000330001010000040117
:1002000007010A01622AEE2A7A2B062C11241FBE4E
:10021000CFEFD1E2DEBFCDBF00E00CBF12E0A0E027
:10022000B2E0ECE6F9E500E00BBF02C007900D92EA
:10023000A03FB107D9F728E0A0EFB2E001C01D92BE
:10024000A431B207E1F711E0C6E0D1E000E006C05A
:1002500021970109802FFE010E94832CC230D10713
:1002600080E00807A9F70E94DD220C94B42CC8CEC8
:1002700090E080E008950F931F93009709F483C0E6
:100280006115710509F47FC00091160210911702E3
:1002900020911802309119020E3F1F4F2F4F3F4FF0
:1002A00009F062C04FEF5FEFBA014093160250931E
:1002B0001702609318027093190240911602509130
:1002C00017026091180270911902DC011296ED91EB
:1002D000FC9180819181A281B3818093540390939A
:1002E0005503A0935603B093570384819581A6814B
:1002F000B7818093500390935103A0935203B0931E
:10030000530380859185A285B38580934C03909398
:100310004D03A0934E03B0934F0384859585A68526
:10032000B7858093480390934903A0934A03B09301
:100330004B0310924403109245031092460310920F
:100340004703D3D48AE996E09093F1028093F002B8
:10035000CBD3009731F421E030E030935903209360
:1003600058031F910F9108950091160210911702E2
:100370002091180230911902DB010D931D932D93EA
:100380003C9313979ACF8FEF9FEFEBCF8F929F9273
:10039000AF92BF92CF92DF92EF92FF921F93CF93D3
:1003A000DF934B015C0110915B0382E090E090933E
:1003B00059038093580381149104A104B10441F4BA
:1003C00080915B03811104C080915A03C1E08111C7
:1003D000C0E0C12CD12C760180915B03811106C055
:1003E00080915A03811102C0CC23D1F083E090E0C8
:1003F0009093590380935803CC2371F1CCE9DFEF3C
:10040000111101C0FBD7CE01DF91CF911F91FF9059
:10041000EF90DF90CF90BF90AF909F908F90089516
:100420006AE070E080E090E00E944A2780E1C80E18
:1004300087E2D81EE11CF11C8FEF88169806A806EB
:10044000B80631F0C1E08C149D04AE04BF0408F07E
:10045000C0E080E075D3C0CFD0E0C0E0D1CFCF9274
:10046000DF92EF92FF921F93CF93DF938F3F91051F
:1004700011F008F041C02091580330915903233006
:10048000310539F02091580330915903213031055D
:1004900031F424E030E030935903209358036A018B
:1004A0007B01EC01892BA9F011E0AE01C701B60177
:1004B0001AD3AB01BC0190E080E01123F9F0CE012A
:1004C000DF91CF911F91FF90EF90DF90CF900C9430
:1004D000130C8091F0029091F102892B29F30E9474
:1004E0001A0C029709F7E091F002F091F10290E006
:1004F00080E01995182FD9CF8FEF9FEFDF91CF9123
:100500001F91FF90EF90DF90CF90089580E018C387
:10051000CF93DF9386E090E0909359038093580344
:1005200068D3EC011092F1021092F002FFD6109203
:10053000590310925803CE01DF91CF910895809115
:100540005A030895809143030895609316027093AF
:100550001702809318029093190290E080E00895AA
:100560004F925F926F927F928F929F92AF92BF92C3
:10057000CF92DF92EF92FF920F931F93CF93DF936F
:1005800000D01F92CDB7DEB71F9281E08F9388E035
:10059000882E82E0982EAA24A394B12C24E0C22EA7
:1005A00022E0D22EEE24E394F12C05E112E021E0CA
:1005B00030E044E152E06AEE77E08AE098E00E94A1
:1005C000C02080900C0290900D02A0900E02B0907E
:1005D0000F0260910A0870910B0880910C089091AD
:1005E0000D080E94F223A50194010E94A6246093A5
:1005F000FA077093FB078093FC079093FD07C09068
:100600001002D0901102E0901202F0901302A701A4
:1006100096010E94A6242B013C012091EE07309107
:10062000EF074091F0075091F1070E945623609325
:100630000208709303088093040890930508609162
:100640000E0870910F0880911008909111080E9477
:10065000F223A50194010E94A6249B01AC012093E2
:10066000FE073093FF074093000850930108C7012D
:10067000B6010E94A62469837A838B839C83209190
:10068000F2073091F3074091F4075091F5070E946B
:100690005623609306087093070880930808909388
:1006A00009081F9291E09F9348E0842E42E0942E27
:1006B000AA24A394B12C64E0C62E62E0D62EEE24C8
:1006C000E394F12C21E030E044E152E06AEE77E07F
:1006D0008AE098E00E94F1204092EE075092EF07E6
:1006E0006092F0077092F10789819A81AB81BC8199
:1006F0008093F2079093F307A093F407B093F50764
:1007000040901A0350901B0360901C0370901D03CF
:100710009FEF491A590A690A790A40921A035092BE
:100720001B0360921C0370921D030F900F900F909B
:100730000F90411451046104710499F480911E03D7
:1007400090911F03A0912003B09121030196A11D58
:10075000B11D80931E0390931F03A0932003B093B9
:100760002103C0902203D0902303E0902403F09053
:10077000250360911E0370911F03809120039091C7
:1007800021030E94F023A70196010E94A62420E0E5
:1007900030E040E85FE40E94A6244B015C01C30105
:1007A000B2010E94F023A70196010E94A6249B019A
:1007B000AC01C501B4010E945723609316037093E6
:1007C000170380931803909319030F900F900F90C5
:1007D0000F90DF91CF911F910F91FF90EF90DF90DD
:1007E000CF90BF90AF909F908F907F906F905F90D1
:1007F0004F900895E0E0F3E08BE2DF011D928A95CF
:10080000E9F780E090E0A0E8BFEB86A397A3A0A75C
:10081000B1A78AE097EDA3E2BCE382A393A3A4A3CC
:10082000B5A38CE09DE5AAE7B3E984839583A6830D
:10083000B78388E295E5A0E1BEE980879187A2872A
:10084000B38785EB99EEA4E8BBEA84879587A687F2
:10085000B78784E691ECACE8B8E2808B918BA28BF1
:10086000B38BA4EFB2E0B383A28382EF92E0119640
:100870009C938E9383E492E09093F3028093F20230
:1008800084E193E015969C938E93149784E093E013
:1008900013969C938E93129786E193E017969C9300
:1008A0008E931697EAEFF7E088E1DF011D928A95B3
:1008B000E9F7EAEEF7E080E1DF011D928A95E9F7BA
:1008C0008091000290910102A0910202B091030276
:1008D00084839583A683B78380879187A287B38714
:1008E000089508954F925F926F927F928F929F9298
:1008F000AF92BF92CF92DF92EF92FF920F931F932E
:10090000F89440903703509038036090390370900A
:100910003A03C0902B03D0902C03E0902D03F0906D
:100920002E03452B09F0A4C09B01AC012419350905
:100930004609570929013A01009133031091340304
:10094000209135033091360348015901840C951CE0
:10095000A61CB71C80169106A206B306A0F400914F
:100960002F031091300320913103309132030F5F38
:100970001F4F2F4F3F4F00932F03109330032093AF
:100980003103309332038092330390923403A09268
:100990003503B092360300912F031091300320915C
:1009A00031033091320380923B0390923C03A0923A
:1009B0003D03B0923E0300933F0310934003209306
:1009C000410330934203609337037093380380935D
:1009D000390390933A03A0E1B7E2A30192010E9488
:1009E0008B2C6C0D7D1D8E1D9F1D60932B037093B2
:1009F0002C0380932D0390932E03009116021091E7
:100A0000170220911802309119020F3F1F4F2F4FEC
:100A10003F4FF1F000911602109117022091180239
:100A2000309119020E3F1F4F2F4F3F4F89F0C0905A
:100A30001602D0901702E0901802F090190221E0FF
:100A40008C149D04AE04BF0408F420E020934303FB
:100A500078941F910F91FF90EF90DF90CF90BF900F
:100A6000AF909F908F907F906F905F904F90089580
:100A70004B015C0184189508A608B708A3019201F0
:100A8000261B370B480B590B641575058605970512
:100A9000D0F082169306A406B50640F420E030E0BC
:100AA000A90181149104A104B10491F4A0E1B7E279
:100AB0000E948B2CA7019601261B370B480B590B64
:100AC000CA01B901C5CF82169306A406B50670F710
:100AD000A0E1B7E2A50194010E948B2C6C0D7D1D55
:100AE0008E1D9F1DB5CFFECECF93DF9300D01F92FA
:100AF000CDB7DEB71C821B821A821982BE016F5FDE
:100B00007F4FCE0103960E94C81F69817A818B8135
:100B10009C810E94FB18009761F4BE016F5F7F4FBC
:100B2000CE0103960E94D41F69817A818B819C81BA
:100B300026D50F900F900F900F90DF91CF910895D1
:100B4000FF920F931F93CF93DF93082F60E070E025
:100B5000CB010E944A27FF24F3940E94E417EC0182
:100B6000892B89F010E0CE3F8FEFD80769F0002382
:100B700061F160E070E0CB010E944A2781E090E0E3
:100B8000892B59F322C011E01DD5EC01892B21F0EE
:100B9000CE3F8FEFD80759F711111EC011E02296F2
:100BA00009F410E00E949417EC01892B21F0CE3F4C
:100BB0008FEFD807E1F6111111C011E0CE3F8FEF92
:100BC000D80709F410E001110BC0CE01DF91CF91DD
:100BD0001F910F91FF90089511E0E4CF11E0F3CF42
:100BE00060E070E0CB010E944A271F25812F90E032
:100BF000C7CFCF93DF931ED6D0E0C0E0892B71F032
:100C00006AE070E080E090E00E944A2781E098DF8F
:100C100011D62196C03D27E0D20781F710D60E9459
:100C20004F1910925B0310925A03109254031092C2
:100C300055031092560310925703109250031092CE
:100C40005103109252031092530310924C031092CE
:100C50004D0310924E0310924F03109248031092CE
:100C6000490310924A0310924B03109244031092CE
:100C7000450310924603109247034EEF5FEF6FEF6C
:100C80007FEF4093160250931702609318027093FF
:100C9000190210924303EBE3F3E028E0DF011D9219
:100CA0002A95E9F71092370310923803109239030E
:100CB00010923A03109233031092340310923503CA
:100CC0001092360310922F031092300310923103CA
:100CD0001092320310922B0310922C0310922D03CA
:100CE00010922E03DF91CF91089510926703109216
:100CF00068031092690310926A0310926603809150
:100D00006F03909170039093650380936403109236
:100D100063031092620310925E0310925F031092BD
:100D200060031092610310926C0310926B0390E0C9
:100D300080E00895CF92DF92EF92FF920F931F937E
:100D4000CF938C01892B09F055C020916F0330910E
:100D50007003809164039091650340916F035091FB
:100D6000700350936503409364032817390781F09B
:100D7000109263031092620310925E0310925F035D
:100D8000109260031092610310926C0310926B0337
:100D900080916F0390917003019761F580916B03CF
:100DA00090916C03892B21F480911A02811112C059
:100DB00080916B0390916C030197E1F480915E0345
:100DC00090915F03A0916003B09161030197A10529
:100DD000B10581F410925E0310925F0310926003DC
:100DE0001092610310921A0282E090E090936C03DB
:100DF00080936B0380916F0390917003019709F0CA
:100E00001CC180918503909186038017910709F09A
:100E100014C18091810390918203A0918303B091CA
:100E20008403009709F409C12091800321110DC0AA
:100E300040918103509182036091830370918403F8
:100E4000452B462B472B09F4F8C020916B033091BA
:100E50006C032230310509F0F0C0209162032111AA
:100E6000ECC0FC01C080D180E280F38080916603F9
:100E7000882309F4D3C08091720390917303892B66
:100E800009F4FDC0209172033091730381E0223098
:100E9000310509F080E02091720330917303C1E0C5
:100EA0002130310549F02091720330917303C1E084
:100EB0002230310509F0C0E0882309F456C02091A2
:100EC0007C0330917D0340917E0350917F03C701E5
:100ED000B6010E94A22487FD14C020917C033091AA
:100EE0007D0340917E0350917F0360916703709171
:100EF00068038091690390916A030E94BB2387FD78
:100F000022C020917C0330917D0340917E0350915B
:100F10007F03C701B6010E94A224181634F5209160
:100F20007C0330917D0340917E0350917F0360915B
:100F30006703709168038091690390916A030E942E
:100F4000BB23811112C08091740390917503A0910D
:100F50007603B0917703892B8A2B8B2B19F481E0D0
:100F60008093630381E080936203CC2309F456C02D
:100F700020917C0330917D0340917E0350917F034B
:100F8000C701B6010E94BB2387FF14C020917C03D8
:100F900030917D0340917E0350917F036091670300
:100FA000709168038091690390916A030E94A22462
:100FB00087FF22C020917C0330917D0340917E0306
:100FC00050917F03C701B6010E94BB23811126C047
:100FD00020917C0330917D0340917E0350917F03EB
:100FE00060916703709168038091690390916A032F
:100FF0000E94A224181694F48091740390917503B2
:10100000A0917603B0917703892B8A2B8B2B19F44F
:1010100081E08093630381E08093620381E090919B
:101020006203911180E080936603C0926703D092BF
:101030006803E0926903F0926A03012B09F067C12B
:1010400080916B0390916C03892BD9F410927103FA
:101050001092620380911A02882379F082E090E076
:1010600090936C0380936B0310921A0220916F038C
:101070003091700381E0232BE9F080E01BC081E018
:101080000ACF10921A0280917103882349F01092BE
:10109000630310926C0310926B0310927103EDCFF7
:1010A00080916F0390917003892BE1F0809162032E
:1010B0001092620320916B0330916C032230310552
:1010C00009F45EC088F42115310509F448C02130C7
:1010D000310509F4F3C01092630310926203109279
:1010E000710338C081E0E6CF2330310509F4B1C087
:1010F0002430310581F740915E0350915F03609188
:10110000600370916103411551056105710561F03E
:10111000415051096109710940935E0350935F0387
:10112000609360037093610340915E0350915F038D
:101130006091600370916103452B462B472BD9F4D6
:1011400020916D0330916E032130310509F046C0C6
:101150001092630310926C0310926B030CC0809189
:101160001A02882341F082E090E090936C03809310
:101170006B0310921A0210925C0380916303CEC03D
:101180008823C9F38091740390917503A09176032D
:10119000B0917703181619061A061B060CF07DC0CD
:1011A00080916F0390917003019709F076C0809150
:1011B000740390917503A0917603B09177038093A7
:1011C0005E0390935F03A0936003B093610383E099
:1011D00090E090936C0380936B03CDCF40917803A4
:1011E0005091790360917A0370917B03452B462BD4
:1011F000472BA9F0109263038091780390917903B3
:10120000A0917A03B0917B0380935E0390935F0378
:10121000A0936003B093610381E090E0DACF88236C
:1012200099F080911B0290911C02A0911D02B09137
:101230001E0280935E0390935F03A0936003B093BC
:10124000610384E090E0C5CF1092630382E090E0F8
:10125000C0CF80915E0390915F03A0916003B09135
:1012600061030097A105B10559F00197A109B109E2
:1012700080935E0390935F03A0936003B093610338
:1012800080915E0390915F03A0916003B091610330
:10129000892B8A2B8B2B09F06ECF80911B029091AA
:1012A0001C02A0911D02B0911E02892B8A2B8B2B50
:1012B00009F44ECF81E080936303B3CF40915E0386
:1012C00050915F0360916003709161034115510576
:1012D0006105710561F0415051096109710940933F
:1012E0005E0350935F0360936003709361034091CA
:1012F0005E0350915F036091600370916103452B21
:10130000462B472B09F037CF8111C7CF9FCF809154
:101310005C03882309F431CF80915D03CF911F9145
:101320000F91FF90EF90DF90CF9008951092670398
:10133000109268031092690310926A031092660378
:1013400010926C0310926B03109265031092640369
:101350001092860310928503109263031092620329
:1013600010925E0310925F0310926003109261036B
:1013700010925D0310925C0310928103109282031D
:1013800010928303109284031092800310927C03C6
:1013900010927D0310927E0310927F0388EE93E0FB
:1013A000A0E0B0E080931B0290931C02A0931D026A
:1013B000B0931E02109278031092790310927A0370
:1013C00010927B03109274031092750310927603AF
:1013D00010927703109273031092720381E080934E
:1013E0001A02109271031092700310926F03109200
:1013F0006E0310926D0390E080E0089580916F037A
:1014000090917003892B19F580911A02882351F06D
:1014100080917103811106C081E080935D03809308
:101420005C0308952091710330911A0281E090E0ED
:10143000332311F090E080E030E082239323892B66
:1014400021F010925D0381E0EACF10925C030895D1
:1014500082E090E0FA01918380838FEF9FEF0895FF
:10146000CF93DF93EA01009711F00E94661A198268
:10147000188290E080E0DF91CF910895DB01009722
:1014800019F48FEF8C9308952EEF2C93FC013F9667
:10149000EF30F10508F034C08827EE5AF54F8F4F32
:1014A0000C94832C7E0A7C0A7A0A780A760A720ADD
:1014B000740A700A6E0A6C0A690A650A610A670A88
:1014C000800A80E311968C93089589E2FBCF82E233
:1014D000F9CF11961C92089583E2F4CF81E2F2CF06
:1014E00081E1F0CF87E2EECF8AE2ECCF80E1EACF74
:1014F00084E2E8CF88E2E6CF86E2E4CF81E3E2CF80
:1015000080E2E0CF809193039091940308959093AB
:10151000940380939303089580919203089590918A
:101520009203892B809392030895982F9095809130
:1015300092038923809392030895809191030895E3
:1015400080918F039091900308956115710559F072
:10155000FB0130E020E070E060E02417350719F06F
:101560006115710511F0CB010895A081B181A81713
:10157000B90709F4BF012F5F3F4F3696EECF809138
:10158000950381111CC041D247D290938803809368
:1015900087030E94D7130E94E91390938C038093D2
:1015A0008B030E94FC160E94031790938A0380937A
:1015B000890381E08093950390E080E0089584EFB3
:1015C0009FEF08958F929F92AF92BF92CF92DF923A
:1015D000EF92FF920F931F93CF93DF9300D000D031
:1015E00000D01F92CDB7DEB71A86198618861F82E3
:1015F0001E821D821C821B821A8219828091950391
:1016000007EF1FEF882309F48BC08E010D5F1F4F7A
:101610009E012B5F3F4FAE01495F5F4FBE01675F89
:101620007F4F90E080E00E9480188C01009721F0AD
:101630000596029708F0C7C089859A85009709F436
:10164000EFC0ED80FE802B813C812E0D3F1D4F8130
:1016500058854217530708F4E3C0E80EF91ED70176
:101660004C912091930330919403232B09F494C05F
:10167000413F08F069C08CE1840F8D3008F483C0CD
:101680008DE2840F803108F481C088E3840F8B30B1
:1016900008F47FC09EE3C92E9AE0D92EE8E2FAE072
:1016A0006D817E81AE014F5F5F4F89859A85199567
:1016B0005C01C114D104A1F189809A808114910444
:1016C00079F18B819C818815990508F484C010E01C
:1016D00000E04B815C8170E060E0C7010E94AD2CAE
:1016E00001151105E9F449815A8169857A858D8151
:1016F0009E81680F791FC501F6011995E980FA806E
:101700000D811E812F81388549855A856FEF7FEFC6
:1017100081E090E00E941B188C01892B09F053C0D6
:10172000C8012A960FB6F894DEBF0FBECDBFDF9179
:10173000CF911F910F91FF90EF90DF90CF90BF90CE
:10174000AF909F908F90089530E020E0220F331FDC
:10175000F901E957FC4F0190F081E02D309709F431
:1017600099CF842F90E01995009709F493CFDC016D
:101770001296ED91FC9113971496CD90DC903097D2
:1017800009F08ECF1EC021E030E0E0CF22E030E053
:10179000DDCF23E030E0DACFD12CC12CE0E3FAE05A
:1017A0004F3F09F07DCFE0918703F0918803309798
:1017B00019F404EF1FEF0CC08FEF90E0199500971C
:1017C000B1F604EF1FEF89859A85009709F4A8CF39
:1017D0000E94661AA5CF0E944A198C0189859A85B4
:1017E0000E94661A70E060E0C4010E94E3189887C6
:1017F0008F830E9418189E838D836F817885611571
:10180000710559F0C8010E94FC1B9A87898706EF71
:101810001FEF892B09F05BCF5CCF08EF1FEF59CF8B
:1018200008EF1FEFD0CF209195032111D7C787EF85
:101830009FEF0895809193039091940308950E94DF
:1018400008170E946216EDD0E7E8F3E088E0DF01B8
:101850001D928A95E9F71092950390E080E0089533
:1018600086E090E0FA019183808390E080E0089523
:1018700047E050E066E472E068CEDF92EF92FF92BC
:101880000F931F93CF93DF938A01EC01C60FD71FED
:10189000E0909903F0909A03D9800E943219D816EB
:1018A000190678F082E090E0F801918380838EEF52
:1018B0009FEFDF91CF911F910F91FF90EF90DF90FD
:1018C0000895EF2841F482E090E0F801918380834D
:1018D00084EF9FEFEECF89818093980390E001968B
:1018E000F8019183808390E080E0E3CFCF93DF9392
:1018F000EA010E947615882321F00E943F190E9478
:10190000771582E090E0998388838BEF9FEFDF91DA
:10191000CF910895CF93DF93EB0186E0FB01119205
:101920008A95E9F78FEF8883F7DD898306DE8A835E
:1019300007DE9D838C83DF91CF910895CF93DF9352
:10194000EA010E947915811109C082E090E0998333
:10195000888385EF9FEFDF91CF91089590E080E03D
:10196000D6DD81E090E09983888390E080E0F3CF3A
:101970000F931F93CF93DF93EA018C01060F171F7C
:101980000E94791581110BC082E090E099838883D1
:1019900085EF9FEFDF91CF911F910F910895F8018F
:1019A0008181823038F082E090E0998388838EEFE5
:1019B0009FEFF0CF81E090E0AADD88E090E099838E
:1019C000888390E080E0E6CFCF93DF930097D1F457
:1019D000EB01FB01329686E0DF011D928A95E9F763
:1019E0008FEF888385E089831A820E9432198B8366
:1019F0000E9431199D838C8381E08E838F83DF91D8
:101A0000CF910895DF91CF9139CD88E39CE09093F9
:101A1000970380939603089580919603909197037E
:101A20000895109297031092960308958091990358
:101A300090919A030895411105C0611571058105C2
:101A4000910561F06093990370939A0380939B03CF
:101A500090939C0340939D0381E0089580E0089556
:101A6000FF920F931F93CF93DF938A01EC01C60F70
:101A7000D71FF9800E943219F816190668F082E023
:101A800090E0F801918380838EEF9FEFDF91CF91FB
:101A90001F910F91FF9008956C817D818E819F81B0
:101AA0004B81C9DF811108C082E090E0F801918389
:101AB000808384EF9FEFEACF89818093980390E041
:101AC0000196F8019183808390E080E0DFCFCF938F
:101AD000DF93EA01FC01E60FF71F648175818681BF
:101AE00097814381A8DF811109C082E090E099834A
:101AF000888384EF9FEFDF91CF91089581E090E09C
:101B00009983888390E080E0F6CFE9E9F3E04081B3
:101B1000518162817381480F511D611D711D408388
:101B20005183628373830895CF93C09198034C2FA0
:101B300050E06091990370919A0301960E94A42C41
:101B40008C2FE3DF10929803CF910895009799F4BA
:101B50008091990390919A032FEFFB012083892BA9
:101B600059F02091980330E02F5F3F4F241735073D
:101B700019F4CB01D9CF82CC0895009799F48091C4
:101B8000990390919A032FEFFB012083892B59F041
:101B90002091980330E02F5F3F4F2417350719F449
:101BA000CB01C2CF6BCC08952DE0AC01249FC001C6
:101BB000259F900D1124E091A203F091A303E80F5B
:101BC000F91F238134812250310981E0223031050F
:101BD00008F080E008950F931F93CF93DF93009157
:101BE000A4031091A503D0E0C0E080E00C171D070E
:101BF00049F491E0811190E0892FDF91CF911F91FD
:101C00000F9108958111F5CFCE01CEDF2196EECF51
:101C1000A091A203B091A303109729F12091A403EE
:101C20003091A50382179307F0F45DE0589F90016F
:101C3000599F300D1124A20FB31FED91FC91119704
:101C4000309789F012968C91681768F485E0689F48
:101C5000E00DF11D112480819181892B21F081E01B
:101C60009281491708F080E00895EF92FF920F9358
:101C70001F93CF93DF93EA01FC01E60FF71F028168
:101C80001381E480F5804F2D6E2DC801C1DF8111D5
:101C90000DC082E090E0998388838EEF9FEFDF9103
:101CA000CF911F910F91FF90EF900895C8017CDFB5
:101CB000882339F082E090E09983888388EF9FEF52
:101CC000EECF1093260200932502E0922702F092B5
:101CD000280281E090E09983888390E080E0DFCF64
:101CE000CF92DF92EF92FF920F931F93CF93DF93E8
:101CF0007A01EC01C60FD71FC0902502D0902602B2
:101D00000091270210912802412F602FC60180DF29
:101D1000811110C082E090E0F701918380838AEF07
:101D20009FEFDF91CF911F910F91FF90EF90DF9088
:101D3000CF900895C60138DF882341F082E090E01B
:101D4000F7019183808388EF9FEFEBCF4C815D811A
:101D50006E817F819A8189818F3F41F082E090E09E
:101D6000F701918380838EEF9FEFDBCFEDE0EC9D59
:101D70009001ED9D300D1124E091A203F091A30399
:101D8000E20FF31F0190F081E02D25E0029FE00DAE
:101D9000F11D11240190F081E02D27E0129FE00D4C
:101DA000F11D1124808391838B818283438354832B
:101DB000658376831F5F1093280281E090E0F7012E
:101DC0009183808390E080E0ACCFEF92FF920F93FD
:101DD0001F93CF93DF937A018C01060F171FC091D9
:101DE000A203D091A303209781F021E030E0F80115
:101DF000828193814091A4035091A5038417950794
:101E000010F030E020E0232B71F482E090E0F70145
:101E1000918380838EEF9FEFDF91CF911F910F9180
:101E2000FF90EF9008954DE0489F9001499F300D3D
:101E30001124C20FD31FB8DE882341F082E090E066
:101E4000F7019183808388EF9FEFE6CFF80124812B
:101E5000358120383105C8F687818111D6CF41817F
:101E6000842F90E08F7E009741F082E090E0F701B0
:101E70009183808386EF9FEFCFCF4F833E832D8367
:101E8000268128871986223010F421E0288721E056
:101E900030E0F70131832083BFCF88E090E0FA0182
:101EA0009183808390E080E00895FB018FEF808331
:101EB00081E181838FEF9FEF9383828380E890E0BD
:101EC00095838483168217820895FB018FEF8083A8
:101ED00091E0918382839383848384E3858381E08B
:101EE00090E09783868308954BE050E060E772E0CE
:101EF0002CCB8F929F92BF92CF92DF92EF92FF9264
:101F00000F931F93CF93DF93EA01FC01E60FF71FB6
:101F1000828193810481B580E091A203F091A303B3
:101F2000309791F482E090E0998388838CEF9FEF63
:101F3000DF91CF911F910F91FF90EF90DF90CF90A5
:101F4000BF909F908F9008952091A4033091A50396
:101F50008217930738F082E090E0998388838EEFB0
:101F60009FEFE6CF2DE0289F6001299FD00C112420
:101F7000EC0DFD1DE080F180E114F10499F2828105
:101F8000081748F785E0089F80011124E00EF11E34
:101F9000F70180819181892B29F6BB20E1F2F7E0DE
:101FA000BF9E40011124C4010E941B1AF7019183B6
:101FB0008083E091A203F091A303EC0DFD1D01903D
:101FC000F081E02DE00FF11F80819181009739F4BD
:101FD00082E090E0998388838DEF9FEFA9CFA401E1
:101FE00070E060E00E94AD2C8091A2039091A30369
:101FF000C80ED91EF60180819181080F191FF801C2
:10200000B28281E090E09983888390E080E090CF75
:10201000AF92BF92CF92DF92FF920F931F93CF9315
:10202000DF93EA01FC01E60FF71F82819381F480C0
:102030000091A2031091A3030115110581F482E020
:1020400090E0998388838CEF9FEFDF91CF911F9170
:102050000F91FF90DF90CF90BF90AF9008952091A7
:10206000A4033091A5038217930738F082E090E033
:10207000998388838EEF9FEFE8CF2FEF2F0D2C3FB2
:10208000A8F72DE0289F6001299FD00C11240C0D8A
:102090001D1DF80180819181892B89F6F5E0FF9E55
:1020A00050011124C5010E941B1AF80191838083FD
:1020B000E091A203F091A303EC0DFD1D80819181BD
:1020C000009739F482E090E0998388838DEF9FEF49
:1020D000BCCFA50170E060E00E94AD2CE091A203AE
:1020E000F091A303EC0DFD1DF28281E090E0998355
:1020F000888390E080E0A9CFCF92DF92EF92FF92A9
:102100000F931F93CF93DF93860F971FFC010281DC
:1021100013818091A2039091A303892B81F082E027
:1021200090E0FA01918380838CEF9FEFDF91CF9154
:102130001F910F91FF90EF90DF90CF900895C8010D
:10214000B0E0A0E00197A109B1098F3F9F4FA10521
:10215000B10540F082E090E0FA01918380838EEF38
:102160009FEFE4CF7A018DE0809F6001819FD00CCA
:102170001124C6010E941B1AEC01009741F482E071
:1021800090E0F701918380838DEF9FEFCFCFA60181
:1021900070E060E00E94AD2CD093A303C093A20333
:1021A0001093A5030093A40390E080E02FEF3FEF8E
:1021B0008017910741F481E090E0F70191838083DB
:1021C00090E080E0B3CF3C872B8701962D96F0CF2F
:1021D000CF92DF92EF92FF920F931F93CF93DF93F3
:1021E000EC01D12CC12C10E000E0F12CE12C8A8113
:1021F0008017110609F0BCF4AE01455F5F4F63E044
:1022000070E0C7010E94921A009721F02FEF3FEF74
:102210003C872B87DF91CF911F910F91FF90EF901B
:10222000DF90CF900895E881F981EC0DFD1D2381A9
:102230003481C90101960115110519F44F8144FD3E
:10224000049661E070E0BFD7E816F90608F47C0157
:102250000F5F1F4F85E0C80ED11CC9CFF8942091A5
:10226000A0033091A10381E02115310509F080E040
:10227000232B09F0789408954F925F926F927F928A
:102280008F929F92AF92BF92CF92DF92EF92FF9286
:102290000F931F93CF93DF933C01660E771EF301DC
:1022A000828193814C01B12CA12CC091A203D091C9
:1022B000A303209769F021E030E06091A4037091BE
:1022C000A5038617970710F030E020E0232BC1F418
:1022D00082E090E0FA01918380838EEF9FEFDF919F
:1022E000CF911F910F91FF90EF90DF90CF90BF9013
:1022F000AF909F908F907F906F905F904F900895D8
:102300008092290290922A02A0922B02B0922C0273
:102310006DE0689F9001699F300D1124C20FD31F9B
:10232000F3018181833040F082E090E0FA019183F3
:10233000808386EF9FEFD3CF2A012B813C81232B13
:10234000F1F4288139819F8191FF2EC0232B09F45C
:1023500064C02091A7039A81422F490F5527551F2A
:10236000BA0141E050E06138710514F050E040E0FE
:10237000452B09F452C02A87920F9093A7038150EE
:10238000823008F476C06ADF882309F4C5C0F301FF
:102390008181813009F480C008F470C0823009F472
:1023A000B3C090E080E08EC0232BB9F12091A6034A
:1023B0009A81E22FE90FFF27FF1F41E050E0ED3F38
:1023C000F10514F050E040E0452B39F12A87920FD7
:1023D0009093A603D4CFA081B181A20FB31F119611
:1023E0006C91060F111D0196295F3F4F84179507C9
:1023F00094F3C114D104C9F48F8184FF16C031D77E
:1024000021E0A8014B5F5F4F8417950708F420E097
:10241000A7014B5F5F4F21110EC082E090E0F201F7
:102420009183808387EF9FEF5ACF1BD721E0A801CC
:102430004F5F5F4FE9CF88819981E80EF91EF70160
:1024400014830383FFEFCF1ADF0A7A018A818C1588
:102450001D0409F00CF497CFE881F981EE0DFF1D02
:10246000428150E030E020E010E000E090E080E0C9
:10247000BDCFF12CE12CD12CC12CE8CF81E090E034
:102480009C838B83A8DB882309F48BCF81E090E0C9
:102490003ED880E44AD885CF8B859C85019651F043
:1024A00083E090E09C838B8382E090E030D880E4EE
:1024B00036D877CF89288A288B2879F4CE0188DE10
:1024C000009771F3789422E030E0F20131832083A9
:1024D000892BF9F08DEF9FEF02CF2D813E81809106
:1024E0001F029091200228173907D1F6609123022C
:1024F00070912402AE01455F5F4F8091210290915F
:1025000022020E94BB1BDCCF82E090E09C838B8385
:1025100048CF90E080E0E3CE82E090E0F20191834A
:10252000808385EF9FEFDBCE8F929F92AF92BF9219
:10253000CF92DF92EF92FF920F931F93CF93DF938F
:10254000EA018C01060F171FF8018181833098F092
:1025500082E090E09983888386EF9FEFDF91CF91AF
:102560001F910F91FF90EF90DF90CF90BF90AF90B1
:102570009F908F9008958091A2039091A303892B3F
:1025800061F081E090E02091A4033091A503232B1A
:1025900011F490E080E0892B39F482E090E0998397
:1025A00088838EEF9FEFDACF59DE882309F4D5C0F8
:1025B000F8018181813009F48BC0E8F0823099F410
:1025C0002091A4033091A503E091A203F091A3030D
:1025D00090E080E041E050E02817390709F0B3C0EF
:1025E000FADA811117C0789481E090E099838883AA
:1025F00090E080E0B3CF2091A4033091A503E09157
:10260000A203F091A30390E080E041E050E028179E
:10261000390741F481E090E00E94870A80E40E943B
:10262000950AE1CF63817481672B11F05483438352
:1026300001963D96ECCFE091A203F091A303E00F49
:10264000F11F238134812230310561F423853485E3
:102650002F3F3F4F39F4C114D104E104F10409F5CF
:10266000CF01B6DDEFEFCE1ADE0AEE0AFE0A035FF7
:102670001F4F4091A4035091A50370E060E0C41681
:10268000D506E606F70664F50097A9F27894892B3B
:1026900009F4AACF82E090E0998388838DEF9FEFC1
:1026A0005DCF4581568120911F0230912002421753
:1026B0005307C1F6AF01455F5F4F609123027091F0
:1026C000240280912102909122020E94BB1BCACF5A
:1026D00010E000E090E080E0C12CD12C7601C9CF61
:1026E0000097A1F610E000E0812C912C540183E0CA
:1026F000E82EF12C1AC0E091A203F091A303E00FA1
:10270000F11F83819481029749F4F482E38282E08D
:1027100090E00E94870A80E40E948F0AFFEF8F1AE0
:102720009F0AAF0ABF0A035F1F4F8091A4039091D5
:10273000A503B0E0A0E088169906AA06BB06DCF265
:1027400090E080E0A3CF638174816230710511F461
:102750005483438301963D963FCF82E090E0998376
:10276000888385EF9FEFFACE0097B9F48FEFFB01D6
:1027700080832091290230912A024DE0429FC001BE
:10278000439F900D1124E091A203F091A303E80F61
:10279000F91F8285FB01818308950C943E0A88E02D
:1027A00090E0FA019183808390E080E00895109298
:1027B000A1031092A003E2EAF3E086E0DF011D929C
:1027C0008A95E9F784E79FE090939F0380939E03A7
:1027D000089580919E0390919F0308952F923F92B8
:1027E0004F925F926F927F928F929F92AF92BF9221
:1027F000CF92DF92EF92FF920F931F93CF93DF93CD
:10280000CDB7DEB762970FB6F894DEBF0FBECDBF6F
:10281000F8942091A0033091A1032F5F3F4F309394
:10282000A1032093A00378942091A2033091A303E5
:102830003B832A83232B09F456C12091A4033091B2
:10284000A503232B09F44FC14D875E876F87788BD3
:102850009C878B878A819B819A8B898BD12CC12CF9
:10286000198210E000E08091A4039091A503C8169E
:10287000D90618F43981332329F1F8948091A00303
:102880009091A10301979093A1038093A003789462
:10289000C80162960FB6F894DEBF0FBECDBFDF91C0
:1028A000CF911F910F91FF90EF90DF90CF90BF904D
:1028B000AF909F908F907F906F905F904F903F90E0
:1028C0002F900895B60190E080E029D38887A989E8
:1028D000BA8917968C91179781FD8DC013968D91AB
:1028E0009C911497039709F086C01596ED91FC9181
:1028F000FF83EE832B853C85E217F30709F07BC04D
:10290000712C612C512C412C63C092D39A878987FA
:1029100010E04114510431F4A989BA8917961C9129
:1029200012951170A989BA89ED91FC91E60DF71DF8
:1029300023803480111169C0BFEF2B1A3B0A61E07C
:1029400070E0C10140D45C01A989BA891B968D91C0
:102950009C918F3F980709F45CC0B5014DD74C019D
:10296000009709F4BBC0E985FA85E80FF91FA9892A
:10297000BA891A968C91840D808311114DC08F01F4
:102980000F5F1F4F80911F0290912002AE81BF8187
:10299000A817B90709F09DC081E090E0B885BB2376
:1029A00011F090E080E0710109851A859501A4017C
:1029B000B6019195819591093ED38C01892B11F037
:1029C000C40184D58FEF481A580A95E0690E711C2E
:1029D000A989BA8912968C918415150429F024F0DE
:1029E000B981BB2309F491CFE885EE2321F0B6012C
:1029F00090E080E096D2FFEFCF1ADF0A29893A896A
:102A0000235F3F4F3A8B298B2ECFE5E02E0E311CF2
:102A100096CFC50110D5A3CF8D859E85AF85B8898A
:102A200081839283A383B4838F010B5F1F4FAACF4F
:102A3000E080F180EC81FD81EE0EFF1ED701139640
:102A40006D917C9114978C918F3FE1F1E1E0F0E082
:102A500002C0EE0FFF1F8A95E2F7CF01092E000C8E
:102A6000AA0BBB0BFB0140815181628173818423DE
:102A70009523A623B72321E0892B8A2B8B2B09F4DE
:102A800020E0D8012C93D70111968C91080F111DCD
:102A9000EA81FB813196FB83EA832C813D81295FAA
:102AA0003F4F3D832C83A989BA89ED91FC91E60DB6
:102AB000F71D82812A813B818217130611F00CF0E9
:102AC000B7CF6ACFF701418150E0C8010E94A42C22
:102AD000DACF1D821C821B821A82E5CF31E0398356
:102AE00006EF1FEF6FCF10E000E0C7CEB7CB7894B2
:102AF00008952F923F924F925F926F927F929F9292
:102B0000AF92BF92CF92DF92EF92FF920F931F93FB
:102B1000CF93DF9300D000D0CDB7DEB70091A203F2
:102B20001091A303992493940115110509F43EC053
:102B3000A090A403B090A50391DB982E8823B1F157
:102B40001092A3031092A2031092A5031092A40363
:102B50001092A6031092A7038FEF9FEFDC018093E2
:102B6000290290932A02A0932B02B0932C0278940E
:102B70007AD31E830D83C12CD12C7601C501B0E020
:102B8000A0E089839A83AB83BC8322242A94322CCD
:102B900089819A81AB81BC81C816D906EA06FB06F9
:102BA000F4F0C80193D480E40E94950A892D2696FA
:102BB0000FB6F894DEBF0FBECDBFDF91CF911F914E
:102BC0000F91FF90EF90DF90CF90BF90AF909F90CC
:102BD0007F906F905F904F903F902F900895C11419
:102BE000D104E104F10409F5D8011B968D919C9163
:102BF0008F3F980709F040D5F80134862386ED8190
:102C0000FE8180819181B12CA12C412C512C32016B
:102C1000892B69F5BFEFCB1ADB0AEB0AFB0AED81C2
:102C2000FE813D96FE83ED83B3CFAD81BE811596C7
:102C30002D913C91169780911F02909120022817A8
:102C40003907E9F61B968D919C91C4D5D8CF8A0D92
:102C50009B1DDC018D919C91009709F037D4BFEF4B
:102C60004B1A5B0A6B0A7B0AE5E0AE0EB11CAD8124
:102C7000BE818D919C91119712964C9150E070E01D
:102C800060E044165506660677060CF31FD4C2CFE3
:102C9000CF93DF93EA012DDF811109C082E090E03C
:102CA0009983888385EF9FEFDF91CF91089581E02D
:102CB00090E00E94870A81E090E09983888390E009
:102CC00080E0F2CF16DF10929F0310929E030895CA
:102CD00042E050E062EB72E00C94A50AFF920F9381
:102CE0001F93CF93DF938A01EC01C60FD71FF980A2
:102CF000B9D20897F816190671F068F082E090E0F2
:102D0000F801918380838EEF9FEFDF91CF911F9128
:102D10000F91FF9008956C817D818E819F814B8101
:102D20000E941B0D811108C082E090E0F8019183A0
:102D3000808384EF9FEFE9CFF9800E94160D4F2D1D
:102D400050E0BE01685F7F4F0E94A42C89810E94E1
:102D5000850D81E090E0F8019183808390E080E030
:102D6000D4CFDF92EF92FF920F931F93CF93DF9315
:102D70008A01EC01C60FD71F0E94160D7C01D98075
:102D800071D2DD2059F0029721E030E0D816190603
:102D900019F010F030E020E0232B79F482E090E08D
:102DA000F801918380838EEF9FEFDF91CF911F9188
:102DB0000F91FF90EF90DF900895EF2841F482E0AB
:102DC00090E0F8019183808384EF9FEFEECFF9804C
:102DD0000E94160D4F2D50E0BE016E5F7F4F0E9486
:102DE000A42C89810E94850D81E090E0F8019183F7
:102DF000808390E080E0D9CF88E696E19093A903A4
:102E00008093A80308958091A8039091A903089541
:102E10000895FC0111821082938382830895DB015F
:102E20001D921C92DC011296ED91FC911397718317
:102E3000608313967C936E9312970895FC018081B2
:102E40009181DB018D939C93A081B181109741F01A
:102E50008D919C9191838083892B11F4F383E2837C
:102E60000895FC0180819181DB018D939C93892BD6
:102E700011F473836283718360830895FC0111826E
:102E80001082938382830895CF93DF931F921F92C2
:102E9000CDB7DEB71A821982F894BE016F5F7F4FFB
:102EA0008FEA93E0CBDF89819A81009709F00ED3F6
:102EB00089819A81892B89F7BE016F5F7F4F83EBF0
:102EC00093E0BCDF89819A81009709F0FFD2898164
:102ED0009A81892B89F778940F900F90DF91CF9189
:102EE0000895CF93DF931F921F92CDB7DEB71A825A
:102EF0001982F894BE016F5F7F4F8BEA93E09EDFEB
:102F000089819A81009709F0E1D289819A81892B80
:102F100089F778940F900F90DF91CF91089581E019
:102F2000089590E080E00895EF92FF920F931F9331
:102F3000CF93DF931F921F92CDB7DEB71A8219820B
:102F40008091AA0307EF1FEF8823A1F1F894BE0137
:102F50006F5F7F4F83EB93E071DF789489819A8173
:102F6000EE24E394F12C892B51F4F894BE016F5FA9
:102F70007F4F8FEA93E062DF7894F12CE12C898116
:102F80009A810EEF1FEF0097A9F0FC014281538157
:102F900064E070E031D68C01892B61F0F89469818E
:102FA0007A81C701880F991F880F991F81559C4FFF
:102FB00058DF7894C8010F900F90DF91CF911F9147
:102FC0000F91FF90EF9008950F931F93CF93DF938E
:102FD00000D01F92CDB7DEB71C821B821A821982E5
:102FE0008091AA0307EF1FEF8823C1F0AE014D5F68
:102FF0005F4F64E070E0CE01019671D68C01892BA1
:1030000069F4E981FA818B819C8193838283F894AE
:1030100069817A818BEA93E002DF7894C8010F908E
:103020000F900F900F90DF91CF911F910F91089506
:1030300076D7049608958F929F92AF92BF92CF92C7
:10304000DF92EF92FF920F931F93CF93DF931F9224
:103050001F92CDB7DEB71A821982BC016F5F7F4F16
:103060006330710598F0AA24AA94BA2CC5010F9078
:103070000F90DF91CF911F910F91FF90EF90DF9014
:10308000CF90BF90AF909F908F90089541155105BC
:1030900051F3480159018A016C01CADF881599056D
:1030A00011F7E114F104F9F28E0D9F1DA816B9066F
:1030B000D0F28091AA038823F1F0F894B50164500E
:1030C00071099701AE014F5F5F4FC80104969CD60E
:1030D0005C01892B71F489819A81F8019383828341
:1030E000C601880F991F880F991FB80181559C4F01
:1030F00096DE7894BBCF87EFA82EBB24BA94B6CFC8
:10310000AF92BF92CF92DF92EF92FF920F931F93F5
:10311000CF93DF931F921F92CDB7DEB71A82198229
:10312000892B09F047C06115710509F443C04115A9
:10313000510509F43FC02115310509F43BC00115C3
:103140001105C1F18091AA038823B9F179016A01BF
:103150005B01F894BE016F5F7F4F8BEA93E06EDEF8
:10316000789489819A81009759F1DC0112966D91CA
:103170007C91A801049661D68C01E981FA81D50180
:10318000ED93FC93828193810496F6019183808371
:103190004FDFD7018D939C93C8010F900F90DF9163
:1031A000CF911F910F91FF90EF90DF90CF90BF9044
:1031B000AF9008950FEF1FEFEFCF07EF1FEFECCFAA
:1031C0000EEF1FEFE9CFCF93DF93EC01672B71F484
:1031D000AFD68C179D0760F0A2D62496C80FD91FD2
:1031E000A1D68C0F9D1FDF91CF9108959ED6F1CF70
:1031F00090E080E0F8CF0F931F93CF93DF9320915F
:10320000AA0321112BC08B01EC018FEA93E001DEB0
:1032100083EB93E0FEDD8BEA93E0FBDD86D0009745
:10322000C1F486D670E060E0CEDF4DE252E062E0AD
:1032300070E078D1009769F480912D0290912E0270
:1032400089D6B801CE01BED4009719F421E02093AD
:10325000AA03DF91CF911F910F91089584EF9FEF03
:10326000F8CF63C665C6CF93DF9365D6EC01892B93
:1032700011F40ADE36DECE01DF91CF910895CF93AF
:10328000DF9359D6EC01892B09F4FEDDCE01DF91E5
:10329000CF91089580912D0290912E020895CF93A1
:1032A000DF938091AA03D0E0C0E08823D1F057D605
:1032B000EC01892BB1F4E8DD14DE80912D029091B0
:1032C0002E02DAD1E9D2EC01892B59F48FEA93E08E
:1032D000D5DD83EB93E0D2DD8BEA93E0CFDD109276
:1032E000AA03CE01DF91CF910895CF93DF9300978A
:1032F000A1F4DF91CF910895EC011A821982A8837D
:10330000309711F0928381832F5F3F4FFC01860F2E
:10331000971F4217530781F7ECCF30E020E0F0E031
:10332000E0E0AFEF6F5F7F4FF4CFCF92DF92EF928D
:10333000FF920F931F93CF93DF9304ED14E00C7F64
:103340008EEBE82E82E0F82E94ECC92E92E0D92E76
:10335000CBE1D5E0D7014D915D917D01F601619101
:1033600071916F01198308835D834C835B834A836A
:103370007F836E839B012F5F3F4F249FC001259F5A
:10338000900D349F900D112499878887C801ADDF77
:1033900088859985080F191F2A96F4ECEF16F2E03C
:1033A000FF06C1F6E9EBF3E088E191E0DF019C0163
:1033B0001D9221503040E1F71092B8031092B703EC
:1033C00010923A051092390510923E0510923D0573
:1033D00010923C0510923B051092400510923F055B
:1033E0001092420510924105109244051092430537
:1033F0001092480510924705109246051092450517
:1034000010924A051092490510924C0510924B05F6
:10341000109218051092170510921A0510921905AE
:1034200090E080E0DF91CF911F910F91FF90EF909E
:10343000DF90CF900895009761F1F8948131910564
:1034400080F480911D0590911E05892B29F58091AE
:10345000270590912805892B31F021E081E090E04B
:103460000BC08197A8F48091310590913205892B8A
:1034700079F022E082E090E0EAE0E89FD001E99F65
:10348000B00D1124A55EBA4F8D919C91009741F427
:10349000789490E080E0089520E090E080E0ECCF28
:1034A000E29FF0011124E55EFA4FDC0111964D9187
:1034B0005C91518340834281538141505109538330
:1034C0004283FC012193CF0178940895009749F13C
:1034D000DC018E91853041F4E0911905F0911A05D7
:1034E0003097F9F0CD0119948530D8F4282F30E0C9
:1034F000F8948FEF8C938AE0829FF001839FF00D08
:103500001124E55EFA4F8081918112969C938E93EF
:103510001197B183A08382819381019693838283E3
:1035200078940895CF92DF92EF92FF920F931F93BA
:10353000CF93DF939C018CEB93E08C7F4115510579
:1035400009F497C02115310509F493C0611571057F
:1035500009F48FC07A01AB01B9016D5F7F4F6C7FB9
:103560009B012F5F3F4F249F8001259F100D349FAB
:10357000100D1124F8942091390530913A05232B30
:1035800059F420914105309142052115310569F129
:103590002017310708F056C02091430530914405AB
:1035A000232B91F42091410530914205820F931F06
:1035B00020914B0530914C052115310509F43FC090
:1035C0002017310708F052C07894CFEFDFEF86EF75
:1035D0009FEFF701D183C083DF91CF911F910F91AE
:1035E000FF90EF90DF90CF900895C3E0D0E0C090BF
:1035F000B703D090B80325E131E02C193D0920171D
:10360000310710F32AE02C9FF0012D9FF00D1124BB
:10361000E55EFA4F918380835583448353834283CD
:10362000778366831187008760DE0C0D1D1D109364
:10363000B8030093B703789490E080E0CACFC4E069
:10364000D0E0D5CFC3E0D0E02AE02C9FF0012D9F41
:10365000F00D1124E55EFA4F9183808355834483F6
:10366000538342837783668340DEE5CFC4E0D0E0B6
:10367000EBCF8FEF9FEFB0CFFF920F931F93CF93BE
:10368000DF939C01235031092230310508F070C0CE
:10369000EC01F89484E09AE09C9FD0019D9FB00DCE
:1036A0001124AD5DBA4F082F10E0909FF001919F5B
:1036B000F00D1124E55EFA4F20813181C017D1074A
:1036C00014F1FF24F394232B41F52AE0209FF0010D
:1036D000219FF00D1124E55EFA4F8091B703909180
:1036E000B80340855185841B950B9093B803809354
:1036F000B7032C9FF0012D9FF00D1124E55EFA4FCA
:10370000118610861CC0232B39F42D913C91119702
:10371000232BA9F48150C7CFF12C8AE08C9FF001B4
:103720008D9FF00D1124E55EFA4F4085518570E0C4
:1037300060E0808191810E94AD2CF110C6CF8AE0BB
:103740008C9FF0018D9FF00D1124E55EFA4F1182E0
:103750001082158214821382128217821682789444
:1037600090E080E0DF91CF911F910F91FF9008953D
:103770008FEF9FEFF7CF4115510549F1009739F1D0
:103780006115710521F1F894209117053091180504
:10379000232BB9F42091190530911A05232B89F4B4
:1037A000909318058093170570931A056093190577
:1037B000789425E030E090E080E0FA0131832083C6
:1037C000089578942FEF3FEF86EF9FEFF6CF8FEFBE
:1037D0009FEF0895059769F4F894109218051092D8
:1037E000170510921A0510921905789490E080E060
:1037F00008958FEF9FEF08956115710519F4F0E0BA
:10380000E0E011C08530910581F4E0911705F09159
:1038100018053097A1F3CB0101961995009779F31C
:10382000FC0185E08193CF0108959C01235031096B
:103830002230310520F72AE0289FD001299FB00DC2
:103840001124A55EBA4F2D913C911197232BB9F20B
:1038500016962D913C9117972617370780F2F8940A
:1038600012962D913C9113972115310529F0ED9178
:10387000FC911197309711F47894C1CF4181528116
:1038800011965C934E932150310913963C932E93DD
:10389000129781937894C7CFE1EDF4E086E4DF01DD
:1038A0001D928A95E9F7E9EBF3E088E191E0DF0109
:1038B0009C011D9221503040E1F71092B803109204
:1038C000B703EBE1F5E082E3DF011D928A95E9F7AA
:1038D000E7E1F5E084E0DF011D928A95E9F790E0E9
:1038E00080E00895CF93DF93C0912F02D0913002F2
:1038F000CF3FDC0759F4A7D59093300280932F0275
:1039000097FF09C0D0933002C0932F0284EF9FEF3E
:10391000DF91CF91089590E080E0FACF8230910559
:1039200028F480934D0590E080E008958FEF9FEF9D
:1039300008954F925F926F927F92AF92BF92CF9213
:10394000DF92EF92FF920F931F93CF93DF931F921B
:103950001F92CDB7DEB71A821982009709F479C099
:103960006115710509F475C020912F023091300264
:1039700007EF1FEF2F3F3F4F09F445C06B015C017C
:10398000412C512C3201F12CE12C10E000E09E0181
:103990002F5F3F4FA6014E195F09B5016E0D7F1DC8
:1039A00080912F0290913002ACD5892B09F04BC049
:1039B00089819A81009741F4E114F10429F420915E
:1039C0004D05222309F442C0E80EF91EEC14FD0453
:1039D000D0F480E8481684E858068EE16806710441
:1039E00020F560E070E0CB010E944A272AE0420EF9
:1039F000511C611C711C0A3F4FEF140721F0043F5A
:103A00008FEF1807A1F4C8010F900F90DF91CF91AD
:103A10001F910F91FF90EF90DF90CF90BF90AF90EC
:103A20007F906F905F904F90089501EF1FEF81E0BE
:103A300090E0013F2FEF120711F090E080E0892B1A
:103A400009F4A5CFE0CF04EF1FEFDDCF0AEF1FEFA2
:103A5000DACF0FEF1FEFD7CF4F925F926F927F9227
:103A6000AF92BF92CF92DF92EF92FF920F931F938C
:103A7000CF93DF931F921F92CDB7DEB71A821982C0
:103A8000009709F479C06115710509F475C020919A
:103A90002F023091300207EF1FEF2F3F3F4F09F405
:103AA00045C06B015C01412C512C3201F12CE12C01
:103AB00010E000E09E012F5F3F4FA6014E195F0905
:103AC000B5016E0D7F1D80912F0290913002CFD4F1
:103AD000892B09F04BC089819A81009741F4E11448
:103AE000F10429F420914D05222309F442C0E80E87
:103AF000F91EEC14FD04D0F480E8481686E9580657
:103B000088E96806710420F560E070E0CB010E944E
:103B10004A272AE0420E511C611C711C0E3F4FEFD8
:103B2000140721F0043F8FEF1807A1F4C8010F908C
:103B30000F90DF91CF911F910F91FF90EF90DF9049
:103B4000CF90BF90AF907F906F905F904F9008950F
:103B500002EF1FEF81E090E0023F2FEF120711F01C
:103B600090E080E0892B09F4A5CFE0CF04EF1FEFB0
:103B7000DDCF0EEF1FEFDACF0FEF1FEFD7CF809122
:103B80002F02909130028F3F980749F054D4892B2F
:103B900049F48FEF9FEF9093300280932F0290E0D3
:103BA00080E0089584EF9FEF0895FC01680F791F6E
:103BB00090E080E0E617F70709F408952191820F5D
:103BC000911DF8CF20914E05211113C08BDE009777
:103BD00091F41092540510925305109252051092D0
:103BE00051051092500510924F0521E020934E058B
:103BF000089584EF9FEF0895AF92BF92CF92DF9226
:103C0000EF92FF920F931F93CF93DF93009709F4E6
:103C100060C04630510508F45CC020914E05C7EFE6
:103C2000DFEF222309F449C08C01060F171FF801AA
:103C3000C080D180C114D10409F44EC096012A5F1E
:103C40003F4F4217530708F447C07C01809153054A
:103C50009091540593838283B6016C5F7F4F580126
:103C6000A60EB71EC801A1DFF5019183808364E031
:103C700070E0C8015EDEEC01892BF9F481E090E090
:103C80004DDEB601C801049654DEEC01892B91F497
:103C900062E070E0C5014DDEEC01892B59F4C701EB
:103CA00015DC80915305909154050196909354052D
:103CB0008093530590E080E031DECE01DF91CF911B
:103CC0001F910F91FF90EF90DF90CF90BF90AF903A
:103CD0000895CFEFDFEFF1CFC9EFDFEFEECF6F92B7
:103CE0007F928F929F92AF92BF92CF92DF92EF928C
:103CF000FF920F931F93CF93DF9300D01F92CDB706
:103D0000DEB7009709F47AC04115510509F476C071
:103D100020914E0507EF1FEF222309F44DC03A0111
:103D20007B015C0164E070E0CE01019695DE8C01C0
:103D3000892B09F041C009811A810115110509F487
:103D40005AC0480186E0880E911CB701680D791DA4
:103D500080913102909132024FDD6C01009709F49D
:103D600050C0A70170E060E00E94AD2C89819A816B
:103D7000AB81BC81EC0CFD1CF70181939193A19365
:103D8000B1937F0181E090E0C9DDB801C70164DE35
:103D9000892B31F562E070E0C701800F911F5CDE76
:103DA0008C01892BE9F490E080E0B8DDF501D18247
:103DB000C082F30191828082C8010F900F900F9012
:103DC0000F90DF91CF911F910F91FF90EF90DF90B7
:103DD000CF90BF90AF909F908F907F906F900895FD
:103DE00090E080E09BDDF50111821082F3011182E9
:103DF0001082C6016BDB09EF1FEFDECF0FEF1FEF65
:103E0000DBCF06EF1FEFD8CF0097A1F0411551058A
:103E100089F02115310571F0F90136966E177F078B
:103E200048F0DC012D933C93DA01ED93FC9390E094
:103E300080E008958FEF9FEF0895AF92BF92CF92E9
:103E4000DF92EF92FF920F931F93CF93DF93009730
:103E500009F45FC04115510509F45BC06530710577
:103E600008F457C020914E05C7EFDFEF222391F1F0
:103E7000DC01CD90DC9011971296ED91FC919601AA
:103E80002A5F3F4FC9EFDFEF2617370719F5C091BB
:103E90004F05D0915005209749F521E030E030934F
:103EA000500520934F057A018C01F0935205E09361
:103EB00051055601B4E0AB0EB11CB50176DE0A0D1A
:103EC0001B1DF801208131818217930729F5D70145
:103ED000CD92DC92CE01DF91CF911F910F91FF9097
:103EE000EF90DF90CF90BF90AF9008952091510553
:103EF000309152052F5F3F4FCCEFDFEFE217F30712
:103F000090F2CBEFDFEF2E173F0768F2D0E0C0E072
:103F1000CACFCFEFDFEFDECFC3EFDFEFDBCF84E041
:103F200090E0089582E090E008958CEF9FEF08956F
:103F300080E290E00895109254051092530510927B
:103F40005205109251051092500510924F0590E0C5
:103F500080E0089590933202809331020895809119
:103F60004E05882391F00BDE009789F410925405DA
:103F7000109253051092520510925105109250055F
:103F800010924F0510924E05089590E080E008953C
:103F9000009749F06115710531F0FC011182108222
:103FA000FB01118210820895F3CFCF93DF938091AC
:103FB0005505909156050E94B128EC018091570556
:103FC000909158050E94B1280197C1F4809159053C
:103FD00090915A05A0915B05B0915C052197C1F4C1
:103FE0000196A11DB11D8093590590935A05A09388
:103FF0005B05B0935C05DF91CF91089580915905E1
:1040000090915A05A0915B05B0915C05CD2B41F3D1
:104010000197A109B109E7CFCF93DF9380915F05A5
:10402000909160050E94B128EC018091610590910A
:1040300062050E94B1280197C1F4809163059091B7
:104040006405A0916505B09166052197C1F40196BC
:10405000A11DB11D8093630590936405A093650530
:10406000B0936605DF91CF9108958091630590919B
:104070006405A0916505B0916605CD2B41F30197CC
:10408000A109B109E7CFCF93DF93809161059091AA
:1040900062050E94B128EC0180915F059091600556
:1040A0000E94B1280197C1F4809163059091640545
:1040B000A0916505B0916605CD2BC1F40196A11DB7
:1040C000B11D8093630590936405A0936505B0933B
:1040D0006605DF91CF910895809163059091640505
:1040E000A0916505B0916605219741F30197A1095B
:1040F000B109E7CFCF93DF93809157059091580591
:104100000E94B128EC0180915505909156050E94BE
:10411000B1280197C1F48091590590915A05A09159
:104120005B05B0915C05CD2BC1F40196A11DB11DBD
:104130008093590590935A05A0935B05B0935C0555
:10414000DF91CF9108958091590590915A05A091E2
:104150005B05B0915C05219741F30197A109B10975
:10416000E7CF02978431910540F486539D4FFC01BF
:104170008081082E000C990B08958FEF9FEF089512
:104180000F931F93CF93DF93CDB7DEB78C0120E061
:1041900030E040E85FE3FB016081718182819381BF
:1041A000EAD2811119C08091590590915A05A091C8
:1041B0005B05B0915C05F80180839183A283B38392
:1041C0008091630590916405A0916505B0916605A5
:1041D00084839583A683B783DF91CF911F910F913D
:1041E00008958F929F92AF92BF92CF92DF92EF92FB
:1041F000FF920F931F93CF93DF93CDB7DEB77B0171
:104200005A0120E030E040E85FE3FB01608171810A
:1042100082819381B0D2882309F483C0F501808123
:1042200090E09093560580935505F801808190E0C9
:104230009093580580935705F601608171818281C2
:1042400093819DD27093600560935F05F401608156
:1042500071818281938193D270936205609361052D
:10426000809155059091560560E012D780915705D1
:104270009091580560E00CD780915F0590916005A2
:1042800060E006D7809161059091620560E000D7FB
:10429000809155059091560561E036D7809157057C
:1042A0009091580561E030D780915F05909160054D
:1042B00061E02AD7809161059091620561E024D781
:1042C00080915505909156054CDF41E050E06AE73A
:1042D00070E2A0D3809157059091580542DF41E0EC
:1042E00050E065ED7FE196D380915F059091600588
:1042F00038DF41E050E063E470E28CD380916105E7
:10430000909162052EDF41E050E06CE070E282D3D4
:1043100080E090E0A0E8BFE3F70180839183A2836F
:10432000B383DF91CF911F910F91FF90EF90DF90BA
:10433000CF90BF90AF909F908F90089540E855E246
:1043400060E070E090E080E000C08130910571F0A5
:104350001CF4892B39F008958230910559F00397A8
:1043600069F0089526E086E795E0EDC726E083E151
:1043700096E0FBCF26E080EB96E0F7CF26E08DE4D9
:1043800097E0F3CF1F920F920FB60F9211240BB646
:104390000F922F933F934F935F936F937F938F93DE
:1043A0009F93AF93BF93EF93FF938FE89DEF90930D
:1043B000250180932401B9D0FF91EF91BF91AF9176
:1043C0009F918F917F916F915F914F913F912F912D
:1043D0000F900BBE0F900FBE0F901F9018958FE897
:1043E0009DEF9093250180932401A3E7B0E08C9189
:1043F0008E7F8C93E0E2F1E080818C7F8083E1E22C
:10440000F1E08081877E80838081846080838081E9
:104410008C7F80838C9181608C930895E3E7F0E03A
:10442000808190819E7F90838170089581E00895BE
:1044300010926905089568EE73E080E090E02AD557
:1044400090E080E0089526E040E050E16EE070E00A
:1044500086E795E078D786E795E0ABD6892B21F003
:1044600086E795E0C0D6F7CF90E080E00895CF9240
:10447000DF92EF92FF920F931F93CF93DF936B0125
:104480007A01E9011982188286E795E092D6892B94
:1044900069F18601CC24C39482E0D82E809169050D
:1044A000811110C086E795E09ED60297B9F7C092B9
:1044B0006905F801D1928F018881998101969983CC
:1044C0008883ECCF888199818E159F0578F486E7E3
:1044D00095E089D68F3F9807A9F3F80181938F0162
:1044E00088819981019699838883ECCF90E080E060
:1044F000DF91CF911F910F91FF90EF90DF90CF90C0
:1045000008950F931F93CF93DF93EA01890186E704
:1045100095E00E94332CF801D183C08390E080E0C5
:10452000DF91CF911F910F910895CF92DF92EF927B
:10453000FF92CF93DF9380916A0591E0980F90935B
:104540006A05882379F021E030E030936C052093F0
:104550006B0580936A05DF91CF91FF90EF90DF901C
:10456000CF9008957894C0914402D09145026E8D09
:104570007F8D88A199A134D120E030E040E85FE44C
:10458000E5D16B017C016A8D7B8D8C8D9D8D28D151
:104590009B01AC01C701B6018AD0F6D06B017C014A
:1045A0000E94B002B701A60190E080E00E942F02B5
:1045B000F89480916A058150CCCFCF93DF9310920D
:1045C0001308109212089CD4B9DEC0914402D09115
:1045D0004502198218826FEF7FEFCB010E94A5027E
:1045E00070E060E090E080E00E9438010097A9F55B
:1045F0000E94FA03F8947894BE016A5D7F4F8A8125
:104600009B810E943B01892B59F46FEF7FEFCB0117
:104610000E94C6010E949F02882311F081E08AA7B0
:10462000F894DDDE0E94A202811104C00E949F0264
:1046300091E0811190E09093120878940E94820A90
:10464000EC0178948091120881110AC00E947104D3
:104650000E948802F89490E080E0DF91CF91089565
:104660000E9486020E94A20291E0811106C00E946F
:104670009F0291E0811101C090E090931308909106
:10468000130881E0911180E0809312088091130853
:104690008111C4DE219729F40E94820A892B09F432
:1046A000C7DE0E94820AEC01C1DECCCF5058BB2786
:1046B000AA270ED00DC1FED030F003D120F031F486
:1046C0009F3F11F41EF4F3C00EF4E095E7FBE9C040
:1046D000E92F0FD180F3BA17620773078407950794
:1046E00018F071F49EF527C10EF4E0950B2EBA2F49
:1046F000A02D0B01B90190010C01CA01A0011124E8
:10470000FF27591B99F0593F50F4503E68F11A1693
:10471000F040A22F232F342F4427585FF3CF469524
:1047200037952795A795F0405395C9F77EF41F1646
:10473000BA0B620B730B840BBAF09150A1F0FF0F10
:10474000BB1F661F771F881FC2F70EC0BA0F621FFC
:10475000731F841F48F4879577956795B795F795EC
:104760009E3F08F0B3CF9395880F08F09927EE0F7E
:1047700097958795089571D008F481E0089504D045
:104780006894B111D9C00895BCD088F09F5790F0BB
:10479000B92F9927B751A0F0D1F0660F771F881F66
:1047A000991F1AF0BA95C9F712C0B13081F0C3D081
:1047B000B1E00895C0C0672F782F8827B85F39F01F
:1047C000B93FCCF3869577956795B395D9F73EF4C5
:1047D00090958095709561957F4F8F4F9F4F08956D
:1047E000E89409C097FB3EF490958095709561958B
:1047F0007F4F8F4F9F4F9923A9F0F92F96E9BB2741
:104800009395F695879577956795B795F111F8CFBC
:10481000FAF4BB0F11F460FF1BC06F5F7F4F8F4F27
:104820009F4F16C0882311F096E911C0772321F01D
:104830009EE8872F762F05C0662371F096E8862FB5
:1048400070E060E02AF09A95660F771F881FDAF70C
:10485000880F9695879597F90895990F0008550F39
:10486000AA0BE0E8FEEF16161706E807F907C0F0F6
:1048700012161306E407F50798F0621B730B840BFE
:10488000950B39F40A2661F0232B242B252B21F4D8
:1048900008950A2609F4A140A6958FEF811D811D78
:1048A000089597F99F6780E870E060E008959FEFB2
:1048B00080EC089500240A941616170618060906B7
:1048C000089500240A941216130614060506089586
:1048D000092E0394000C11F4882352F0BB0F40F40E
:1048E000BF2B11F460FF04C06F5F7F4F8F4F9F4F4E
:1048F000089557FD9058440F551F59F05F3F71F0D0
:104900004795880F97FB991F61F09F3F79F0879536
:104910000895121613061406551FF2CF4695F1DFBF
:1049200008C0161617061806991FF1CF869571054F
:10493000610508940895E894BB2766277727CB0183
:1049400097F908958ADF08F48FEF08950BD0C0CF50
:10495000B1DF28F0B6DF18F0952309F0A2CFA7CF7A
:104960001124EACFC6DFA0F3959FD1F3950F50E055
:10497000551F629FF001729FBB27F00DB11D639F11
:10498000AA27F00DB11DAA1F649F6627B00DA11DB7
:10499000661F829F2227B00DA11D621F739FB00D5D
:1049A000A11D621F839FA00D611D221F749F3327CD
:1049B000A00D611D231F849F600D211D822F762F66
:1049C0006A2F11249F5750408AF0E1F088234AF063
:1049D000EE0FFF1FBB1F661F771F881F91505040AF
:1049E000A9F79E3F510570F05CCFA6CF5F3FECF377
:1049F000983EDCF3869577956795B795F795E7959B
:104A00009F5FC1F7FE2B880F911D9695879597F9AB
:104A100008950895883008F075C0E82FF0E0EE0F93
:104A2000FF1FED5CFD4F718360838150873008F07C
:104A30003CC0E82FF0E08827E05EFA4D8F4F63C757
:104A40005D2527252F253B2548256925762580913D
:104A500069008C7F482B40936900E89A0895809103
:104A60006900837F440F551F440F551F482B409307
:104A70006900E99A0895809169008F7C74E0440F81
:104A8000551F7A95E1F7482B40936900EA9A0895FB
:104A9000809169008F7366E0440F551F6A95E1F7B6
:104AA000482B40936900EB9A089580916A008C7FAF
:104AB000482B40936A00EC9A089580916A00837FA6
:104AC000440F551F440F551F482B40936A00ED9A21
:104AD000089580916A008F7C24E0440F551F2A9529
:104AE000E1F7482B40936A00EE9A089580916A009E
:104AF0008F7396E0440F551F9A95E1F7482B40932A
:104B00006A00EF9A08951F920F920FB60F92112428
:104B10000BB60F922F933F934F935F936F937F93B7
:104B20008F939F93AF93BF93EF93FF93E0913702DF
:104B3000F09138021995FF91EF91BF91AF919F913C
:104B40008F917F916F915F914F913F912F910F9036
:104B50000BBE0F900FBE0F901F9018951F920F92D3
:104B60000FB60F9211240BB60F922F933F934F93D2
:104B70005F936F937F938F939F93AF93BF93EF93C5
:104B8000FF93E0913902F0913A021995FF91EF916C
:104B9000BF91AF919F918F917F916F915F914F9155
:104BA0003F912F910F900BBE0F900FBE0F901F9053
:104BB00018951F920F920FB60F9211240BB60F92F9
:104BC0002F933F934F935F936F937F938F939F9315
:104BD000AF93BF93EF93FF93E0913B02F0913C02C0
:104BE0001995FF91EF91BF91AF919F918F917F9117
:104BF0006F915F914F913F912F910F900BBE0F904E
:104C00000FBE0F901F9018951F920F920FB60F9224
:104C100011240BB60F922F933F934F935F936F9393
:104C20007F938F939F93AF93BF93EF93FF93E09105
:104C30003D02F0913E021995FF91EF91BF91AF9126
:104C40009F918F917F916F915F914F913F912F91A4
:104C50000F900BBE0F900FBE0F901F9018951F92D4
:104C60000F920FB60F9211240BB60F922F933F9312
:104C70004F935F936F937F938F939F93AF93BF9364
:104C8000EF93FF93E0913302F09134021995FF9175
:104C9000EF91BF91AF919F918F917F916F915F91B4
:104CA0004F913F912F910F900BBE0F900FBE0F9021
:104CB0001F9018951F920F920FB60F9211240BB6EA
:104CC0000F922F933F934F935F936F937F938F93A5
:104CD0009F93AF93BF93EF93FF93E0913502F091D1
:104CE00036021995FF91EF91BF91AF919F918F91EE
:104CF0007F916F915F914F913F912F910F900BBEDC
:104D00000F900FBE0F901F9018951F920F920FB625
:104D10000F9211240BB60F922F933F934F935F93F3
:104D20006F937F938F939F93AF93BF93EF93FF9373
:104D3000E0913F02F09140021995FF91EF91BF91F0
:104D4000AF919F918F917F916F915F914F913F9123
:104D50002F910F900BBE0F900FBE0F901F901895C4
:104D60001F920F920FB60F9211240BB60F922F9332
:104D70003F934F935F936F937F938F939F93AF93E3
:104D8000BF93EF93FF93E0914102F0914202199596
:104D9000FF91EF91BF91AF919F918F917F916F9113
:104DA0005F914F913F912F910F900BBE0F900FBECF
:104DB0000F901F9018951F920F920FB60F9211240B
:104DC0002F933F938F939F93AF93BF9380916E05E3
:104DD00090916F05A0917005B091710530916D05AE
:104DE00023E0230F2D3758F50196A11DB11D209307
:104DF0006D0580936E0590936F05A0937005B09339
:104E000071058091720590917305A0917405B09120
:104E100075050196A11DB11D8093720590937305D0
:104E2000A0937405B0937505BF91AF919F918F9139
:104E30003F912F910F900FBE0F901F90189526E86D
:104E4000230F0296A11DB11DD2CF3FB7F8948091D8
:104E5000720590917305A0917405B091750526B502
:104E6000A89B05C02F3F19F00196A11DB11D3FBFA2
:104E7000BA2FA92F982F8827BC01CD01620F711D71
:104E8000811D911D42E0660F771F881F991F4A956B
:104E9000D1F708958F929F92AF92BF92CF92DF92F7
:104EA000EF92FF926B017C01D0DF4B015C01C114DA
:104EB000D104E104F104D9F003D5C7DF68197909F9
:104EC0008A099B09683E73408105910580F321E0C2
:104ED000C21AD108E108F10888EE880E83E0981E16
:104EE000A11CB11CC114D104E104F10431F7FF90FD
:104EF000EF90DF90CF90BF90AF909F908F900895EC
:104F0000789484B5826084BD84B5816084BD85B5A4
:104F1000826085BD85B5816085BDEEE6F0E080816B
:104F200081608083E1E8F0E010828081826080838C
:104F3000808181608083E0E8F0E08081816080830F
:104F4000E1EBF0E0808184608083E0EBF0E0808141
:104F500081608083E1E9F0E08081826080838081EC
:104F600081608083E0E9F0E0808181608083E1EA14
:104F7000F0E0808182608083808181608083E0EACC
:104F8000F0E0808181608083E1E2F1E080818260F5
:104F90008083808181608083E0E2F1E080818160B4
:104FA0008083EAE7F0E08081846080838081826092
:104FB000808380818160808380818068808310927B
:104FC000C10008958150823108F059C0E82FF0E007
:104FD0008827E351F84D8F4F96C40D281128FF27DD
:104FE000052809283F2814281A281E28242828289C
:104FF0002C28322836283F283A28402844288091F7
:1050000080008F77809380000895809180008F7D4D
:10501000F9CF80918000877FF5CF84B58F7784BDED
:10502000089584B58F7DFBCF8091B0008F778093FA
:10503000B00008958091B0008F7DF9CF80919000ED
:105040008F77809390000895809190008F7DF9CFA5
:1050500080919000877FF5CF8091A0008F7780931B
:10506000A00008958091A0008F7DF9CF8091A000CD
:10507000877FF5CF809120018F778093200108955D
:10508000809120018F7DF9CF80912001877FF5CF1E
:10509000CF93DF9390E0FC01E65DFE4F24918059B1
:1050A0009E4FFC0184918823C9F090E0880F991FDE
:1050B000FC01E651FE4FA591B491FC01E053FE4F77
:1050C000C591D49161110DC09FB7F8948C91209532
:1050D00082238C938881282328839FBFDF91CF91DF
:1050E0000895623051F49FB7F8943C91822F8095D7
:1050F00083238C93E8812E2BEFCF8FB7F894EC911C
:105100002E2B2C938FBFEACF1F93CF93DF93282FA3
:1051100030E0F901EC51FF4F8491F901E65DFE4F5B
:10512000D491F901E059FE4FC491CC23A1F0162F80
:10513000811148DFEC2FF0E0EE0FFF1FE053FE4F30
:10514000A591B4918FB7F894EC91111108C0D09546
:10515000DE23DC938FBFDF91CF911F910895DE2B6B
:10516000F8CFCF93DF93282F30E0F901EC51FF4FB8
:105170008491F901E65DFE4FD491F901E059FE4FAB
:10518000C491CC2399F081111DDFEC2FF0E0EE0FDC
:10519000FF1FEA54FE4FA591B491EC91ED2381E0FD
:1051A00090E009F480E0DF91CF91089580E090E0F5
:1051B000FACFFC01918D228D892F90E0805C9F4F6A
:1051C000821B91098F7399270895FC01918D828D1F
:1051D000981731F0828DE80FF11D858D90E00895CC
:1051E0008FEF9FEF0895FC01918D828D981761F0EC
:1051F000A28DAE0FBF2FB11D5D968C91928D9F5FDA
:105200009F73928F90E008958FEF9FEF0895FC01B8
:10521000538D448D252F30E0842F90E0821B930B1B
:10522000541710F0CF96089501970895FC01A48DAE
:10523000A80FB92FB11DA35ABF4F2C91848D90E0B8
:1052400001968F739927848FA689B7892C93A0899B
:10525000B1898C91837080648C93938D848D981325
:1052600006C00288F389E02D80818F7D80830895B8
:10527000CF93DF93EC01888D8823B1F0AA89BB8995
:10528000E889F9898C9185FD03C0808186FD0CC079
:105290000FB607FCF7CF8C9185FFF2CF808185FF99
:1052A000EDCFCE01C3DFEACFDF91CF910895EF922A
:1052B000FF920F931F93CF93DF93EC0181E0888FD0
:1052C0009B8D8C8D98131AC0E889F989808185FFA0
:1052D00015C09FB7F894EE89FF896083E889F98942
:1052E00080818370806480839FBF81E090E0DF9144
:1052F000CF911F910F91FF90EF900895F62E0B8D97
:1053000010E00F5F1F4F0F731127E02E8C8D8E1151
:105310000BC00FB607FCFACFE889F989808185FFB9
:10532000F5CFCE0183DFF2CFEB8DEC0FFD2FF11D1A
:10533000E35AFF4FF0829FB7F8940B8FEA89FB89FD
:1053400080818062D0CFCF92DF92EF92FF921F9345
:10535000CF93DF93EC016A017B01122FE889F98971
:1053600082E08083C11481EED806E104F10499F053
:1053700060E079E08DE390E0A7019601A2D2215090
:1053800031094109510956954795379527952115BA
:1053900080E1380790F0E889F989108260E874E8C4
:1053A0008EE190E0A70196018CD22150310941098C
:1053B00051095695479537952795EC85FD8530839E
:1053C000EE85FF852083188EEC89FD891083EA899C
:1053D000FB89808180618083EA89FB898081886084
:1053E0008083EA89FB89808180688083EA89FB89E0
:1053F00080818F7D8083DF91CF911F91FF90EF900F
:10540000DF90CF9008951F920F920FB60F92112444
:105410000BB60F922F938F939F93EF93FF93E0918F
:105420008605F09187058081E0918C05F0918D05CE
:1054300082FD1DC0908180918F058F5F8F732091B9
:105440009005821741F0E0918F05F0E0EA58FA4F9D
:10545000958F80938F05FF91EF919F918F912F9161
:105460000F900BBE0F900FBE0F901F90189580816C
:10547000F2CF1F920F920FB60F9211240BB60F921C
:105480002F933F934F935F936F937F938F939F934C
:10549000AF93BF93EF93FF9386E795E0C7DEFF914D
:1054A000EF91BF91AF919F918F917F916F915F919C
:1054B0004F913F912F910F900BBE0F900FBE0F9009
:1054C0001F901895E6E7F5E01382128288EE93E0CC
:1054D000A0E0B0E084839583A683B78382EE92E058
:1054E0009183808385EC90E09587848784EC90E0BD
:1054F0009787868780EC90E0918B808B81EC90E0A1
:10550000938B828B82EC90E0958B848B86EC90E081
:10551000978B868B118E128E138E148E08951F9288
:105520000F920FB60F9211240BB60F922F938F93F9
:105530009F93EF93FF93E0912306F09124068081DF
:10554000E0912906F0912A0682FD1DC0908180918C
:105550002C068F5F8F7320912D06821741F0E0910A
:105560002C06F0E0ED5EF94F958F80932C06FF91AD
:10557000EF919F918F912F910F900BBE0F900FBEC7
:105580000F901F9018958081F2CF1F920F920FB647
:105590000F9211240BB60F922F933F934F935F936B
:1055A0006F937F938F939F93AF93BF93EF93FF93EB
:1055B00083E196E03BDEFF91EF91BF91AF919F9128
:1055C0008F917F916F915F914F913F912F910F90AC
:1055D0000BBE0F900FBE0F901F901895E3E1F6E001
:1055E0001382128288EE93E0A0E0B0E0848395837A
:1055F000A683B78382EE92E0918380838DEC90E066
:10560000958784878CEC90E09787868788EC90E07C
:10561000918B808B89EC90E0938B828B8AEC90E06D
:10562000958B848B8EEC90E0978B868B118E128EEF
:10563000138E148E08951F920F920FB60F9211249D
:105640000BB60F922F938F939F93EF93FF93E0915D
:10565000C006F091C1068081E091C606F091C706B0
:1056600082FD1DC090818091C9068F5F8F7320914C
:10567000CA06821741F0E091C906F0E0E055F94F03
:10568000958F8093C906FF91EF919F918F912F91F4
:105690000F900BBE0F900FBE0F901F90189580813A
:1056A000F2CF1F920F920FB60F9211240BB60F92EA
:1056B0002F933F934F935F936F937F938F939F931A
:1056C000AF93BF93EF93FF9380EB96E0AFDDFF9135
:1056D000EF91BF91AF919F918F917F916F915F916A
:1056E0004F913F912F910F900BBE0F900FBE0F90D7
:1056F0001F901895E0EBF6E01382128288EE93E09B
:10570000A0E0B0E084839583A683B78382EE92E025
:105710009183808385ED90E09587848784ED90E088
:105720009787868780ED90E0918B808B81ED90E06C
:10573000938B828B82ED90E0958B848B86ED90E04D
:10574000978B868B118E128E138E148E08951F9256
:105750000F920FB60F9211240BB60F922F938F93C7
:105760009F93EF93FF93E0915D07F0915E07808137
:10577000E0916307F091640782FD1DC090818091E4
:1057800066078F5F8F7320916707821741F0E09162
:105790006607F0E0E35BF84F958F80936607FF9113
:1057A000EF919F918F912F910F900BBE0F900FBE95
:1057B0000F901F9018958081F2CF1F920F920FB615
:1057C0000F9211240BB60F922F933F934F935F9339
:1057D0006F937F938F939F93AF93BF93EF93FF93B9
:1057E0008DE497E023DDFF91EF91BF91AF919F9101
:1057F0008F917F916F915F914F913F912F910F907A
:105800000BBE0F900FBE0F901F901895EDE4F7E0C0
:105810001382128288EE93E0A0E0B0E08483958347
:10582000A683B78382EE92E09183808385E391E043
:105830009587848784E391E09787868780E391E06A
:10584000918B808B81E391E0938B828B82E391E05B
:10585000958B848B86E391E0978B868B118E128ECD
:10586000138E148E0895AF92BF92CF92DF92EF9273
:10587000FF920F931F93CF93DF936C017B018B01FA
:10588000040F151FEB015E01AE18BF08C017D1074A
:1058900059F06991D601ED91FC910190F081E02DD4
:1058A000C6011995892B79F7C501DF91CF911F9119
:1058B0000F91FF90EF90DF90CF90BF90AF90089541
:1058C0000895A1E21A2EAA1BBB1BFD010DC0AA1F41
:1058D000BB1FEE1FFF1FA217B307E407F50720F059
:1058E000A21BB30BE40BF50B661F771F881F991FD4
:1058F0001A9469F760957095809590959B01AC011D
:10590000BD01CF010895EE0FFF1F881F8BBF0790C9
:10591000F691E02D199409D0A59F900DB49F900D9C
:10592000A49F800D911D11240895A29FB001B39FE3
:10593000C001A39F700D811D1124911DB29F700D98
:10594000811D1124911D0895FB01DC0102C001900D
:105950000D9241505040D8F70895DC0101C06D937D
:0C59600041505040E0F70895F894FFCF4C
:10596C000000000000009041000098417C26253981
:10597C000000C8420203FEFFFFFF01E8030000FF26
:10598C00FF00000000FFFFFFFFFFFFFFFFFFFFFF17
:10599C00FFFFFF09250925092509250925092509E1
:1059AC00250925010003FF00B80CE40CFE009E0C39
:1059BC003E0AFD00300C8A0CFC00760C3E0AF60008
:1059CC00670D3E0AF5003D0CA60DF400300DBD0D23
:1059DC00DE003C11B413DD0094123E0ADA004D0FC8
:1059EC00550FD900CF13650FE200350E3E0AE100CA
:1059FC00700E3E0AE000E50E3E0AD60048163E0A3E
:105A0C00D5007C103E0AD40008103E0AD300790F52
:105A1C003E0AF000B1163E0AED006E163E0A010079
:105A2C00010001001000100020000001FFFFFFFF2B
:105A3C00FFFFFFFFFFFFFFFFFFFF05040302000056
:105A4C0000005729332C07293829D928F328E528B1
:00000001FF
