:1000000005C100000C94150D0C94400D0C946B0D63
:100010000C94960D0C94C10D0C94EC0D0C94170ED1
:100020000C94420E24C1000022C1000020C1000037
:100030001EC100001CC100001AC1000018C1000050
:1000400016C1000014C1000012C1000010C1000060
:100050000EC100000CC100000AC100000C946D0E1E
:1000600006C100000C940E120C94441200C1000052
:10007000FEC00000FCC00000FAC00000F8C0000094
:10008000F6C00000F4C00000F2C00000F0C00000A4
:100090000C949A120C94D012EAC00000E8C0000040
:1000A000E6C00000E4C00000E2C00000E0C00000C4
:1000B000DEC00000DCC00000DAC00000D8C00000D4
:1000C000D6C00000D4C000000C944B0A0C94261338
:1000D0000C945C13CCC000000C94B2130C94E81385
:1000E000C6C0000000000A0B02090C0D0E08070331
:1000F00004010000000000000000000000000000FB
:1001000000000000000000000000000000000000EF
:1001100012111000000000000000000000000000AC
:100120000000000000000000000001021020200874
:100130000810204010204080020102010804020142
:1001400001020408102040808040201008040201B1
:10015000800402018040201008040201080402010A
:100160000102040810204080010204081020408091
:1001700005050505070508080808020202020A0A23
:100180000808040404040101010101010101030341
:10019000030303030303040707070C0C0C0C0C0CEC
:1001A0000C0C0202020206060606060606060B0BE9
:1001B0000B0B0B0B0B0B000020002300260029006B
:1001C0002C002F003200000100000301060109018C
:1001D00000002200250028002B002E0031003400F2
:1001E00002010000050108010B01000021002400AC
:1001F00027002A002D003000330001010000040117
:1002000007010A016D12F9128513111411241FBE82
:10021000CFEFD1E2DEBFCDBF00E00CBF12E0A0E027
:10022000B2E0EEE2F9E200E00BBF02C007900D92EF
:10023000A23CB107D9F725E0A2ECB2E001C01D92C3
:10024000A33CB207E1F711E0C6E0D1E000E006C050
:1002500021970109802FFE010E948D14C230D10721
:1002600080E00807A9F70E94B10A0C949514C8CE43
:10027000CF92DF92EF92FF92CF93882351F16A01E0
:100280007B01CFEFC80F20E030E0A901CB01B60120
:100290000E944D0B87FF11C0C701B60190580E9404
:1002A000560B9B01AC016C2F70E090E080E0CF9189
:1002B000FF90EF90DF90CF90B2C0C701B6010E94CF
:1002C000510B8C2FCF91FF90EF90DF90CF900C943B
:1002D000190FCF91FF90EF90DF90CF9008950F937B
:1002E0001F938B019C0183E0369527951795079501
:1002F0008A95D1F70E531D4F462F477021E030E00D
:10030000F90102C0EE0FFF1F4A95E2F7AF01F801B5
:1003100020812423CB010196211102C090E080E0CE
:100320001F910F9108950F931F938B019C0183E000
:1003300036952795179507958A95D1F7677081E0CF
:1003400090E001C0880F6A95EAF7F801EE53FD4F7F
:100350002081452B31F48095822380831F910F915A
:100360000895822BFACF2F923F924F925F926F9215
:100370007F928F929F92AF92BF92CF92DF92EF9235
:10038000FF920F931F93CF93DF93D62EC72E782E15
:10039000692E49015A01280161E08D2D0E945310F8
:1003A000CD2DDC2D8E010F5F1F4FA8016D2D7C2DF3
:1003B000872D962DB8DF20E030E0A901C201B701FA
:1003C0000E94340C181664F4C201B7010E94560B47
:1003D0002B01C501B4010E94560BA201CE0123D00E
:1003E000C801DF91CF911F910F91FF90EF90DF90A7
:1003F000CF90BF90AF909F908F907F906F905F90C5
:100400004F903F902F900895882341F08150682F9E
:1004100070E090E080E050E040E085CF0895862FC6
:10042000B9010C94190F9C01FC01EC51FF4FE491B0
:10043000E150E231E0F4F0E08827EE5DFD4F8F4FB0
:100440000C948D1434023B023E0255026A023702BC
:100450007F028B028F02A602BB02D002E702FC02DF
:100460003702110328033D0384B5806884BD60E032
:10047000822F0C948F1084B58062F8CF8091800019
:100480008C7F82608093800080918100807E80617B
:10049000682B609381005093870040938600809181
:1004A0008000806880938000E2CF809180008C7F04
:1004B00082608093800080918100807E8061682BC3
:1004C0006093810050938700409386008091800064
:1004D0008062E8CF809180008C7F82608093800072
:1004E00080918100807E8061682B609381005093B1
:1004F000870040938600809180008860D3CF8091F0
:10050000B00080688093B0008091B100887F682B34
:100510006093B100ACCF8091B0008062F3CF809146
:1005200090008C7F82608093900080919100807E0B
:100530008061682B609391005093970040939600E0
:100540008091900080688093900091CF809190007E
:100550008C7F82608093900080919100807E80618A
:10056000682B609391005093970040939600809180
:1005700090008062E8CF809190008C7F82608093B1
:10058000900080919100807E8061682B6093910043
:100590005093970040939600809190008860D3CF4D
:1005A0008091A0008C7F82608093A0008091A10048
:1005B000807E8061682B6093A1005093A7004093D8
:1005C000A6008091A00080688093A00050CF809109
:1005D000A0008C7F82608093A0008091A100807E2B
:1005E0008061682B6093A1005093A7004093A60000
:1005F0008091A0008062E8CF8091A0008C7F826013
:100600008093A0008091A100807E8061682B609320
:10061000A1005093A7004093A6008091A00088609D
:10062000D3CF809120018C7F8260809320018091C4
:100630002101807E8061682B609321015093270106
:1006400040932601809120018068809320010FCF84
:10065000809120018C7F8260809320018091210114
:10066000807E8061682B6093210150932701409325
:100670002601809120018062E8CF809120018C7F4B
:1006800082608093200180912101807E8061682BAF
:10069000609321015093270140932601809120010E
:1006A0008860D3CF2F923F924F925F926F927F924A
:1006B0008F929F92AF92BF92CF92DF92EF92FF9272
:1006C0000F931F93CF93DF93CDB7DEB72F970FB65E
:1006D000F894DEBF0FBECDBF1F9281E08F9348E339
:1006E000842E42E0942EAA24A394B12C64E3C62E57
:1006F00062E0D62EEE24E394F12C09E812E021E02A
:1007000030E048E852E069E975E081E795E0C1D55D
:1007100080903C0290903D02A0903E02B0903F023B
:10072000C0904002D0904102E0904202F09043021B
:1007300060917105709172058091730590917405B7
:10074000E3D7A50194010E94380CA70196010E94ED
:10075000380C69837A838B839C8320919D0530912B
:100760009E0540919F055091A00532D76093690581
:1007700070936A0580936B0590936C052091B50585
:100780003091B6054091B7055091B805609144028B
:1007900070914502809146029091470219D72B0132
:1007A0003C0140926105509262056092630570922F
:1007B000640560917505709176058091770590913B
:1007C0007805A2D7A50194010E94380CA7019601D3
:1007D0000E94380C6D837E838F8398872091A105BA
:1007E0003091A2054091A3055091A405F1D66093E4
:1007F0006D0570936E0580936F0590937005209141
:10080000B9053091BA054091BB055091BC05609186
:1008100048027091490280914A0290914B02D8D6C9
:1008200060936505709366058093670590936805EE
:100830002091000230910102409102025091030286
:10084000C301B2010E94380C2091A5053091A60584
:100850004091A7055091A805BBD620912402309164
:10086000250240912602509127020E94380C698788
:100870007A878B879C8720912C0230912D024091A2
:100880002E0250912F02C301B201F2D72091A90587
:100890003091AA054091AB055091AC059AD62985B7
:1008A0003A854B855C8595D65B016C0168E070E00C
:1008B00080E090E014DD2C019093980580939705DB
:1008C000209158023091590240915A0250915B0296
:1008D000B501C601CDD73B014C01E0905C02F09020
:1008E0005D0280915E028F8790915F029D870F90DD
:1008F0000F909301A401B701D0D687FD14C0E090FA
:100900006002F0906102A0916202AF87B091630231
:10091000BD879301A401B701CD01A6D718161CF01D
:1009200073018F869D8620E030E04FE753E4B701E6
:100930008F859D85B2D618160CF435C220E030E0C4
:10094000A901B7018F859D858FD787FF04C0E12C52
:10095000F12C1F861D86A7016F857D85C20188DC6D
:1009600069E070E080E090E0BADC9E878D8790932C
:10097000900580938F05E0906402F09065020091ED
:100980006602109167029501A601B701C80185D6DC
:1009900087FD11C0E0906802F090690200916A0240
:1009A00010916B029501A601B701C8015DD7181619
:1009B00014F07501860120E030E04FE753E4B70101
:1009C000C8016BD618160CF4F5C120E030E0A9017F
:1009D000B701C80149D787FF04C0E12CF12C00E022
:1009E00010E0A701B8018D859E8542DCC0906505A9
:1009F000D0906605E0906705F090680520910402AC
:100A0000309105024091060250910702C701B601DC
:100A10002FD72091AD053091AE054091AF05509193
:100A2000B005D6D5209128023091290240912A02A2
:100A300050912B021DD72B013C01209130023091A7
:100A400031024091320250913302C701B60110D7F2
:100A50002091B1053091B2054091B3055091B40594
:100A6000B8D5A3019201B5D55B016C016AE070E0D5
:100A700080E090E034DC1C0190938805809387052A
:100A80002091740230917502409176025091770264
:100A9000B501C601EDD68B014C01E0907802F090D3
:100AA0007902A0917A02AF87B0917B02BD879B014A
:100AB000AC01B701CD01F1D587FD13C0E0907C02F8
:100AC000F0907D0280917E028F8790917F029D87BA
:100AD0009801A401B701C8D618161CF078018F86BA
:100AE0009D8620E030E04FE753E4B7018F859D8578
:100AF000D4D518160CF463C120E030E0A901B70189
:100B00008F859D85B1D687FF04C0E12CF12C1F860F
:100B10001D86A7016F857D85C101AADB6BE070E0B2
:100B200080E090E0DCDB9E878D879093800580934A
:100B30007F05E0908002F090810200918202109186
:100B400083029501A601B701C801A7D587FD11C091
:100B5000E0908402F0908502009186021091870255
:100B60009501A601B701C8017FD6181614F07501CA
:100B7000860120E030E04FE753E4B701C8018DD58E
:100B800018160CF423C120E030E0A901B701C80118
:100B90006BD687FF04C0E12CF12C00E010E0A70128
:100BA000B8018D859E8564DB1F9281E08F9388E379
:100BB000882E82E0982EAA24A394B12C24E3C22E7E
:100BC00022E0D22EEE24E394F12C09E812E021E099
:100BD00030E048E852E069E975E081E795E08AD3C2
:100BE00089819A81AB81BC8180939D0590939E05FC
:100BF000A0939F05B093A0058091690590916A0527
:100C0000A0916B05B0916C058093B5059093B605E6
:100C1000A093B705B093B8058D819E81AF81B8854B
:100C20008093A1059093A205A093A305B093A4057A
:100C300080916D0590916E05A0916F05B091700542
:100C40008093B9059093BA05A093BB05B093BC05FA
:100C50002091500230915102409152025091530222
:100C600069857A858B859C8503D62091A505309171
:100C7000A6054091A7055091A805ABD46093A505A2
:100C80007093A6058093A7059093A8052091610510
:100C900030916205409163055091640560910802AE
:100CA0007091090280910A0290910B02E1D5209186
:100CB0005402309155024091560250915702D8D5B6
:100CC0002091A9053091AA054091AB055091AC0542
:100CD00080D46093A9057093AA058093AB05909387
:100CE000AC0520916C0230916D0240916E025091E2
:100CF0006F02C301B201BCD52091AD053091AE05A4
:100D00004091AF055091B00564D46093AD057093E8
:100D1000AE058093AF059093B005209165053091A5
:100D20006605409167055091680560910C027091CD
:100D30000D0280910E0290910F029AD520917002BF
:100D400030917102409172025091730291D52091BD
:100D5000B1053091B2054091B3055091B40539D435
:100D60006093B1057093B2058093B3059093B40579
:100D70000F900F902F960FB6F894DEBF0FBECDBF29
:100D8000DF91CF911F910F91FF90EF90DF90CF9067
:100D9000BF90AF909F908F907F906F905F904F909B
:100DA0003F902F900895E12CF12C8FE78F8793E4EB
:100DB0009D87D1CDE12CF12C0FE713E412CEE12C6D
:100DC000F12CAFE7AF87B3E4BD87A3CEE12CF12CC4
:100DD0000FE713E4E4CE8F929F92AF92BF92DF921F
:100DE000EF92FF920F931F93CF93DF931092CC0259
:100DF0001092CB02E1E6F5E088E1DF011D928A95D1
:100E0000E9F7C9E7D5E088E4FE0111928A95E9F790
:100E1000DD24D394D092C005812C912C540183946D
:100E2000898E9A8EAB8EBC8EE12CF12C8701A801A5
:100E3000970168E070E080E090E095DA9F8F8E8FF8
:100E4000DD8E188AD092BF051D8A898A9A8AAB8A5C
:100E5000BC8AA801970169E070E080E090E083DA45
:100E60009F8B8E8BDD8A1886D092BE051D86898663
:100E70009A86AB86BC86A80197016AE070E080E0A4
:100E800090E071DA9F878E87DD861882D092BD054B
:100E90001D8289829A82AB82BC82A80197016BE095
:100EA00070E080E090E05FDA9F838E83DD82E8A2CD
:100EB000F9A20AA31BA3E0E0F2E04089518962890C
:100EC00073894CA35DA36EA37FA380914C02909184
:100ED0004D02A0914E02B0914F028CAF9DAFAEAFCC
:100EE000BFAF48A759A76AA77BA78093B90590937E
:100EF000BA05A093BB05B093BC0584899589A689E2
:100F0000B7898CA79DA7AEA7BFA7848D958DA68D09
:100F1000B78D88AB99ABAAABBBAB808D918DA28D01
:100F2000B38D8CAB9DABAEABBFAB80A191A1A2A1A9
:100F3000B3A188AF99AFAAAFBBAFDF91CF911F919B
:100F40000F91FF90EF90DF90BF90AF909F908F90A8
:100F500008958091910581112AC081E080939105C7
:100F60008091920590919305A0919405B09195057B
:100F70000197A105B105D9F4809196058823B9F0B0
:100F800068E070E080E090E0AAD9909398058093A3
:100F9000970540E050E0BA016BD968E070E080E06E
:100FA00090E09DD990939805809397052DDA8091D4
:100FB000890581112AC081E08093890580918A0585
:100FC00090918B05A0918C05B0918D050197A1059D
:100FD000B105D9F480918E058823B9F069E070E0FD
:100FE00080E090E07CD99093900580938F0540E05D
:100FF00050E0BA013DD969E070E080E090E06FD93F
:101000009093900580938F05FFD980918105811180
:101010002AC081E0809381058091820590918305AB
:10102000A0918405B09185050197A105B105D9F47A
:10103000809186058823B9F06AE070E080E090E056
:101040004ED9909388058093870540E050E0BA011F
:101050000FD96AE070E080E090E041D99093880574
:1010600080938705D1D98091790581112AC081E0CB
:101070008093790580917A0590917B05A0917C05FC
:10108000B0917D050197A105B105D9F480917E0548
:101090008823B9F06BE070E080E090E020D9909375
:1010A000800580937F0540E050E0BA01E1D86BE015
:1010B00070E080E090E013D99093800580937F05E5
:1010C000A3C90895CF93DF938091CD029091CE0272
:1010D0000E94BC10EC018091CF029091D0020E943E
:1010E000BC100197C1F48091D1029091D202A091DD
:1010F000D302B091D4022197C1F40196A11DB11D74
:101100008093D1029093D202A093D302B093D402E1
:10111000DF91CF9108958091D1029091D202A09158
:10112000D302B091D402CD2B41F30197A109B109AB
:10113000E7CFCF93DF938091D7029091D8020E949E
:10114000BC10EC018091D9029091DA020E94BC108F
:101150000197C1F48091DB029091DC02A091DD0245
:10116000B091DE022197C1F40196A11DB11D8093BB
:10117000DB029093DC02A093DD02B093DE02DF91EC
:10118000CF9108958091DB029091DC02A091DD0265
:10119000B091DE02CD2B41F30197A109B109E7CF50
:1011A000CF93DF938091D9029091DA02E5D7EC01D9
:1011B0008091D7029091D802DFD70197C1F4809136
:1011C000DB029091DC02A091DD02B091DE02CD2B1A
:1011D000C1F40196A11DB11D8093DB029093DC0246
:1011E000A093DD02B093DE02DF91CF91089580914C
:1011F000DB029091DC02A091DD02B091DE0221972A
:1012000041F30197A109B109E7CFCF93DF93809113
:10121000CF029091D002B0D7EC018091CD02909195
:10122000CE02AAD70197C1F48091D1029091D20247
:10123000A091D302B091D402CD2BC1F40196A11D8F
:10124000B11D8093D1029093D202A093D302B093A8
:10125000D402DF91CF9108958091D1029091D20272
:10126000A091D302B091D402219741F30197A10933
:10127000B109E7CF02978431910540F484569D4F20
:10128000FC018081082E000C990B08958FEF9FEFD1
:1012900008950F931F93CF93DF93CDB7DEB78C01E3
:1012A00020E030E040E85FE3FB01608171818281F2
:1012B0009381F3D1811119C08091D1029091D20212
:1012C000A091D302B091D402F80180839183A283CC
:1012D000B3838091DB029091DC02A091DD02B0919A
:1012E000DE0284839583A683B783DF91CF911F911C
:1012F0000F9108958F929F92AF92BF92CF92DF92FB
:10130000EF92FF920F931F93CF93DF93CDB7DEB78A
:101310007B015A0120E030E040E85FE3FB0160819F
:10132000718182819381B9D1882309F483C0F50149
:10133000808190E09093CE028093CD02F80180816D
:1013400090E09093D0028093CF02F601608171818A
:1013500082819381A6D17093D8026093D702F40161
:1013600060817181828193819CD17093DA02609354
:10137000D9028091CD029091CE0260E094D6809106
:10138000CF029091D00260E08ED68091D7029091EA
:10139000D80260E088D68091D9029091DA0260E0AC
:1013A00082D68091CD029091CE0261E0B8D6809134
:1013B000CF029091D00261E0B2D68091D702909195
:1013C000D80261E0ACD68091D9029091DA0261E056
:1013D000A6D68091CD029091CE024CDF41E050E044
:1013E00065E079E0A9D28091CF029091D00242DFEE
:1013F00041E050E062E678E09FD28091D702909180
:10140000D80238DF41E050E060ED78E095D280917D
:10141000D9029091DA022EDF41E050E069E978E0EC
:101420008BD280E090E0A0E8BFE3F7018083918356
:10143000A283B383DF91CF911F910F91FF90EF9023
:10144000DF90CF90BF90AF909F908F90089540E82D
:1014500055E260E070E090E080E000C081309105EE
:1014600071F01CF4892B39F008958230910559F000
:10147000039769F0089526E08DEE92E06FC726E0AD
:101480008AE893E0FBCF26E087E294E0F7CF26E0FE
:1014900084EC94E0F3CF1F920F920FB60F921124B9
:1014A0000BB60F922F933F934F935F936F937F935E
:1014B0008F939F93AF93BF93EF93FF938FE89DEF2D
:1014C000909325018093240134D0FF91EF91BF9137
:1014D000AF919F918F917F916F915F914F913F91CC
:1014E0002F910F900BBE0F900FBE0F901F9018956D
:1014F0008FE89DEF9093250180932401A3E7B0E04E
:101500008C918E7F8C93E0E2F1E080818C7F8083F0
:10151000E1E2F1E08081877E808380818460808346
:1015200080818C7F80838C9181608C93089581E091
:1015300008958091E10291E0980F9093E102882351
:1015400049F021E030E03093E3022093E2028093FF
:10155000E10208957894A6D8F8948091E102815030
:10156000F6CFCF93DF931092C2051092C105FFD33F
:101570006EDFC0919A02D0919B02198218822BDCF7
:10158000F894B6DF81E028813981232B09F080E0CF
:101590008093C105789478948091C105811107C02A
:1015A000D8DCF89490E080E0DF91CF91089581E05D
:1015B00028813981232B09F480E08093C205909122
:1015C000C20581E0911180E08093C105B0DFE4CFD6
:1015D0005058BB27AA270ED00DC1FED030F003D142
:1015E00020F031F49F3F11F41EF4F3C00EF4E095A7
:1015F000E7FBE9C0E92F0FD180F3BA176207730741
:101600008407950718F071F49EF527C10EF4E09554
:101610000B2EBA2FA02D0B01B90190010C01CA01AC
:10162000A0011124FF27591B99F0593F50F4503E57
:1016300068F11A16F040A22F232F342F4427585F49
:10164000F3CF469537952795A795F0405395C9F761
:101650007EF41F16BA0B620B730B840BBAF0915019
:10166000A1F0FF0FBB1F661F771F881FC2F70EC0B8
:10167000BA0F621F731F841F48F48795779567958B
:10168000B795F7959E3F08F0B3CF9395880F08F074
:101690009927EE0F97958795089571D008F481E00A
:1016A000089504D06894B111D9C00895BCD088F0D1
:1016B0009F5790F0B92F9927B751A0F0D1F0660F3E
:1016C000771F881F991F1AF0BA95C9F712C0B13059
:1016D00081F0C3D0B1E00895C0C0672F782F88276C
:1016E000B85F39F0B93FCCF3869577956795B39598
:1016F000D9F73EF490958095709561957F4F8F4F07
:101700009F4F0895E89409C097FB3EF4909580950B
:10171000709561957F4F8F4F9F4F9923A9F0F92FB7
:1017200096E9BB279395F695879577956795B79535
:10173000F111F8CFFAF4BB0F11F460FF1BC06F5F1B
:101740007F4F8F4F9F4F16C0882311F096E911C02D
:10175000772321F09EE8872F762F05C0662371F04E
:1017600096E8862F70E060E02AF09A95660F771F62
:10177000881FDAF7880F9695879597F90895990F3E
:101780000008550FAA0BE0E8FEEF16161706E8074B
:10179000F907C0F012161306E407F50798F0621B6C
:1017A000730B840B950B39F40A2661F0232B242B41
:1017B000252B21F408950A2609F4A140A6958FEF60
:1017C000811D811D089597F99F6780E870E060E0B2
:1017D00008959FEF80EC089500240A9416161706CA
:1017E00018060906089500240A9412161306140612
:1017F00005060895092E0394000C11F4882352F075
:10180000BB0F40F4BF2B11F460FF04C06F5F7F4F2C
:101810008F4F9F4F089557FD9058440F551F59F013
:101820005F3F71F04795880F97FB991F61F09F3FCD
:1018300079F087950895121613061406551FF2CFF6
:101840004695F1DF08C0161617061806991FF1CF46
:1018500086957105610508940895E894BB2766276D
:101860007727CB0197F908958ADF08F48FEF089561
:101870000BD0C0CFB1DF28F0B6DF18F0952309F008
:10188000A2CFA7CF1124EACFC6DFA0F3959FD1F353
:10189000950F50E0551F629FF001729FBB27F00D1E
:1018A000B11D639FAA27F00DB11DAA1F649F662773
:1018B000B00DA11D661F829F2227B00DA11D621FC2
:1018C000739FB00DA11D621F839FA00D611D221F7C
:1018D000749F3327A00D611D231F849F600D211D60
:1018E000822F762F6A2F11249F5750408AF0E1F003
:1018F00088234AF0EE0FFF1FBB1F661F771F881F4C
:1019000091505040A9F79E3F510570F05CCFA6CF93
:101910005F3FECF3983EDCF3869577956795B79536
:10192000F795E7959F5FC1F7FE2B880F911D969560
:10193000879597F908950895883008F075C0E82FC5
:10194000F0E0EE0FFF1FE657FD4F7183608381507B
:10195000873008F03CC0E82FF0E08827EE54F34FC2
:101960008F4FDBC7EF0CB90CC10CCD0CDA0CFB0CA4
:10197000080D809169008C7F482B40936900E89A9C
:10198000089580916900837F440F551F440F551FB0
:10199000482B40936900E99A0895809169008F7CF3
:1019A00074E0440F551F7A95E1F7482B4093690086
:1019B000EA9A0895809169008F7366E0440F551F7D
:1019C0006A95E1F7482B40936900EB9A089580915E
:1019D0006A008C7F482B40936A00EC9A08958091AE
:1019E0006A00837F440F551F440F551F482B4093B7
:1019F0006A00ED9A089580916A008F7C24E0440F7C
:101A0000551F2A95E1F7482B40936A00EE9A0895F6
:101A100080916A008F7396E0440F551F9A95E1F705
:101A2000482B40936A00EF9A08951F920F920FB6C9
:101A30000F9211240BB60F922F933F934F935F9306
:101A40006F937F938F939F93AF93BF93EF93FF9386
:101A5000E0918E02F0918F021995FF91EF91BF9165
:101A6000AF919F918F917F916F915F914F913F9136
:101A70002F910F900BBE0F900FBE0F901F901895D7
:101A80001F920F920FB60F9211240BB60F922F9345
:101A90003F934F935F936F937F938F939F93AF93F6
:101AA000BF93EF93FF93E0919002F091910219950B
:101AB000FF91EF91BF91AF919F918F917F916F9126
:101AC0005F914F913F912F910F900BBE0F900FBEE2
:101AD0000F901F9018951F920F920FB60F9211241E
:101AE0000BB60F922F933F934F935F936F937F9318
:101AF0008F939F93AF93BF93EF93FF93E0919202E5
:101B0000F09193021995FF91EF91BF91AF919F9141
:101B10008F917F916F915F914F913F912F910F9096
:101B20000BBE0F900FBE0F901F9018951F920F9233
:101B30000FB60F9211240BB60F922F933F934F9332
:101B40005F936F937F938F939F93AF93BF93EF9325
:101B5000FF93E0919402F09195021995FF91EF9116
:101B6000BF91AF919F918F917F916F915F914F91B5
:101B70003F912F910F900BBE0F900FBE0F901F90B3
:101B800018951F920F920FB60F9211240BB60F9259
:101B90002F933F934F935F936F937F938F939F9375
:101BA000AF93BF93EF93FF93E0918A02F0918B0282
:101BB0001995FF91EF91BF91AF919F918F917F9177
:101BC0006F915F914F913F912F910F900BBE0F90AE
:101BD0000FBE0F901F9018951F920F920FB60F9285
:101BE00011240BB60F922F933F934F935F936F93F4
:101BF0007F938F939F93AF93BF93EF93FF93E09166
:101C00008C02F0918D021995FF91EF91BF91AF91E8
:101C10009F918F917F916F915F914F913F912F9104
:101C20000F900BBE0F900FBE0F901F9018951F9234
:101C30000F920FB60F9211240BB60F922F933F9372
:101C40004F935F936F937F938F939F93AF93BF93C4
:101C5000EF93FF93E0919602F09197021995FF910F
:101C6000EF91BF91AF919F918F917F916F915F9114
:101C70004F913F912F910F900BBE0F900FBE0F9081
:101C80001F9018951F920F920FB60F9211240BB64A
:101C90000F922F933F934F935F936F937F938F9305
:101CA0009F93AF93BF93EF93FF93E0919802F091CE
:101CB00099021995FF91EF91BF91AF919F918F91EB
:101CC0007F916F915F914F913F912F910F900BBE3C
:101CD0000F900FBE0F901F9018951F920F920FB686
:101CE0000F9211242F933F938F939F93AF93BF93A2
:101CF0008091E5029091E602A091E702B091E8029E
:101D00003091E40223E0230F2D3758F50196A11DF1
:101D1000B11D2093E4028093E5029093E602A09324
:101D2000E702B093E8028091E9029091EA02A09163
:101D3000EB02B091EC020196A11DB11D8093E90266
:101D40009093EA02A093EB02B093EC02BF91AF91A3
:101D50009F918F913F912F910F900FBE0F901F90E9
:101D6000189526E8230F0296A11DB11DD2CF7894B5
:101D700084B5826084BD84B5816084BD85B5826090
:101D800085BD85B5816085BDEEE6F0E0808181602E
:101D90008083E1E8F0E0108280818260808380812E
:101DA00081608083E0E8F0E0808181608083E1EB06
:101DB000F0E0808184608083E0EBF0E080818160EE
:101DC0008083E1E9F0E080818260808380818160AE
:101DD0008083E0E9F0E0808181608083E1EAF0E0E7
:101DE000808182608083808181608083E0EAF0E08E
:101DF000808181608083E1E2F1E080818260808384
:101E0000808181608083E0E2F1E080818160808375
:101E1000EAE7F0E080818460808380818260808353
:101E20008081816080838081806880831092C1007E
:101E300008951F93CF93DF93182FEB0161E033D107
:101E4000209731F460E0812FDF91CF911F9167C11E
:101E5000CF3FD10511F461E0F6CFE12FF0E0EC5176
:101E6000FF4FE491E150E23108F0B2C0F0E0882782
:101E7000E45CF04F8F4F51C54E0F560F5B0F650F4F
:101E80006F0FE80F790F810F890F930F9D0FA70F29
:101E9000B60FC00FE80FCA0FD40FDE0F84B58068ED
:101EA00084BDC7BDDF91CF911F91089584B5806235
:101EB00084BDC8BDF7CF809180008068809380008A
:101EC000D0938900C0938800EDCF8091800080621C
:101ED00080938000D0938B00C0938A00E3CF8091E1
:101EE0008000886080938000D0938D00C0938C0028
:101EF000D9CF8091B00080688093B000C093B300C8
:101F0000D1CF8091B00080628093B000C093B400C4
:101F1000C9CF80919000806880939000D093990001
:101F2000C0939800BFCF8091900080628093900012
:101F3000D0939B00C0939A00B5CF809190008860A9
:101F400080939000D0939D00C0939C00ABCF809174
:101F5000A00080688093A0008091A0008F7B809378
:101F6000A000D093A900C093A8009CCF8091A000AE
:101F700080628093A000D093AB00C093AA0092CF60
:101F80008091A00088608093A000D093AD00C093A2
:101F9000AC0088CF80912001806880932001D0938D
:101FA0002901C09328017ECF809120018062809317
:101FB0002001D0932B01C0932A0174CF809120017E
:101FC000886080932001D0932D01C0932C016ACFAB
:101FD000C038D1050CF03FCF35CF8150823108F0A9
:101FE00059C0E82FF0E08827E850F04F8F4F95C494
:101FF00018101C100A10101014104A101F10251071
:1020000029102F10331037103D1041104A10451081
:102010004B104F10809180008F778093800008953F
:10202000809180008F7DF9CF80918000877FF5CFF0
:1020300084B58F7784BD089584B58F7DFBCF809163
:10204000B0008F778093B00008958091B0008F7DAD
:10205000F9CF809190008F778093900008958091C0
:1020600090008F7DF9CF80919000877FF5CF809190
:10207000A0008F778093A00008958091A0008F7DAD
:10208000F9CF8091A000877FF5CF809120018F77D5
:10209000809320010895809120018F7DF9CF809158
:1020A0002001877FF5CFCF93DF9390E0FC01E65DC1
:1020B000FE4F249180599E4FFC0184918823C9F0E2
:1020C00090E0880F991FFC01E651FE4FA591B49155
:1020D000FC01E053FE4FC591D49161110DC09FB733
:1020E000F8948C91209582238C93888128232883CF
:1020F0009FBFDF91CF910895623051F49FB7F8945C
:102100003C91822F809583238C93E8812E2BEFCFF7
:102110008FB7F894EC912E2B2C938FBFEACF1F939F
:10212000CF93DF93282F30E0F901EC51FF4F8491DA
:10213000F901E65DFE4FD491F901E059FE4FC491DB
:10214000CC23A1F0162F811148DFEC2FF0E0EE0F29
:10215000FF1FE053FE4FA591B4918FB7F894EC9117
:10216000111108C0D095DE23DC938FBFDF91CF9192
:102170001F910895DE2BF8CFCF93DF93282F30E007
:10218000F901EC51FF4F8491F901E65DFE4FD491C6
:10219000F901E059FE4FC491CC2399F081111DDF64
:1021A000EC2FF0E0EE0FFF1FEA54FE4FA591B49123
:1021B000EC91ED2381E090E009F480E0DF91CF9194
:1021C000089580E090E0FACFFC01918D228D892F57
:1021D00090E0805C9F4F821B91098F73992708952F
:1021E000FC01918D828D981731F0828DE80FF11DE1
:1021F000858D90E008958FEF9FEF0895FC01918DFC
:10220000828D981761F0A28DAE0FBF2FB11D5D9624
:102210008C91928D9F5F9F73928F90E008958FEFC6
:102220009FEF0895FC01538D448D252F30E0842FBE
:1022300090E0821B930B541710F0CF9608950197EE
:102240000895FC01A48DA80FB92FB11DA35ABF4F4B
:102250002C91848D90E001968F739927848FA689A5
:10226000B7892C93A089B1898C91837080648C93F9
:10227000938D848D981306C00288F389E02D8081A8
:102280008F7D80830895CF93DF93EC01888D882321
:10229000B1F0AA89BB89E889F9898C9185FD03C0D1
:1022A000808186FD0CC00FB607FCF7CF8C9185FFAF
:1022B000F2CF808185FFEDCFCE01C3DFEACFDF9182
:1022C000CF910895EF92FF920F931F93CF93DF93D7
:1022D000EC0181E0888F9B8D8C8D98131AC0E88962
:1022E000F989808185FF15C09FB7F894EE89FF8931
:1022F0006083E889F98980818370806480839FBFCF
:1023000081E090E0DF91CF911F910F91FF90EF90CE
:102310000895F62E0B8D10E00F5F1F4F0F731127DE
:10232000E02E8C8D8E110BC00FB607FCFACFE8891A
:10233000F989808185FFF5CFCE0183DFF2CFEB8D68
:10234000EC0FFD2FF11DE35AFF4FF0829FB7F89479
:102350000B8FEA89FB8980818062D0CFCF92DF9298
:10236000EF92FF921F93CF93DF93EC016A017B0101
:10237000122FE889F98982E08083C11481EED806A2
:10238000E104F10499F060E079E08DE390E0A701C9
:102390009601A1D22150310941095109569547951D
:1023A00037952795211580E1380790F0E889F9895C
:1023B000108260E874E88EE190E0A70196018BD26C
:1023C000215031094109510956954795379527956F
:1023D000EC85FD853083EE85FF852083188EEC89A2
:1023E000FD891083EA89FB89808180618083EA8985
:1023F000FB89808188608083EA89FB89808180688D
:102400008083EA89FB8980818F7D8083DF91CF91F2
:102410001F91FF90EF90DF90CF9008951F920F9241
:102420000FB60F9211240BB60F922F938F939F9399
:10243000EF93FF93E091FD02F091FE028081E09125
:102440000303F091040382FD1DC090818091060377
:102450008F5F8F7320910703821741F0E09106038D
:10246000F0E0E351FD4F958F80930603FF91EF91CC
:102470009F918F912F910F900BBE0F900FBE0F90D9
:102480001F9018958081F2CF1F920F920FB60F9276
:1024900011240BB60F922F933F934F935F936F933B
:1024A0007F938F939F93AF93BF93EF93FF938DEEA3
:1024B00092E0C7DEFF91EF91BF91AF919F918F9115
:1024C0007F916F915F914F913F912F910F900BBE34
:1024D0000F900FBE0F901F901895EDEEF2E0138253
:1024E000128288EE93E0A0E0B0E084839583A68317
:1024F000B78384EB92E09183808385EC90E09587AD
:10250000848784EC90E09787868780EC90E0918BBD
:10251000808B81EC90E0938B828B82EC90E0958BAA
:10252000848B86EC90E0978B868B118E128E138EA7
:10253000148E08951F920F920FB60F9211240BB6AE
:102540000F922F938F939F93EF93FF93E0919A03B2
:10255000F0919B038081E091A003F091A10382FDA3
:102560001DC090818091A3038F5F8F732091A4037E
:10257000821741F0E091A303F0E0E657FC4F958FFE
:102580008093A303FF91EF919F918F912F910F90D3
:102590000BBE0F900FBE0F901F9018958081F2CF49
:1025A0001F920F920FB60F9211240BB60F922F931A
:1025B0003F934F935F936F937F938F939F93AF93CB
:1025C000BF93EF93FF938AE893E03BDEFF91EF9197
:1025D000BF91AF919F918F917F916F915F914F913B
:1025E0003F912F910F900BBE0F900FBE0F901F9039
:1025F0001895EAE8F3E01382128288EE93E0A0E0F7
:10260000B0E084839583A683B78384EB92E09183C3
:1026100080838DEC90E0958784878CEC90E09787A1
:10262000868788EC90E0918B808B89EC90E0938B8F
:10263000828B8AEC90E0958B848B8EEC90E0978B6C
:10264000868B118E128E138E148E08951F920F9208
:102650000FB60F9211240BB60F922F938F939F9367
:10266000EF93FF93E0913704F09138048081E0917B
:102670003D04F0913E0482FD1DC090818091400494
:102680008F5F8F7320914104821741F0E0914004E5
:10269000F0E0E95DFB4F958F80934004FF91EF914F
:1026A0009F918F912F910F900BBE0F900FBE0F90A7
:1026B0001F9018958081F2CF1F920F920FB60F9244
:1026C00011240BB60F922F933F934F935F936F9309
:1026D0007F938F939F93AF93BF93EF93FF9387E283
:1026E00094E0AFDDFF91EF91BF91AF919F918F91FA
:1026F0007F916F915F914F913F912F910F900BBE02
:102700000F900FBE0F901F901895E7E2F4E0138230
:10271000128288EE93E0A0E0B0E084839583A683E4
:10272000B78384EB92E09183808385ED90E0958779
:10273000848784ED90E09787868780ED90E0918B89
:10274000808B81ED90E0938B828B82ED90E0958B76
:10275000848B86ED90E0978B868B118E128E138E74
:10276000148E08951F920F920FB60F9211240BB67C
:102770000F922F938F939F93EF93FF93E091D40445
:10278000F091D5048081E091DA04F091DB0482FDC0
:102790001DC090818091DD048F5F8F732091DE04D6
:1027A000821741F0E091DD04F0E0EC53FB4F958F90
:1027B0008093DD04FF91EF919F918F912F910F9066
:1027C0000BBE0F900FBE0F901F9018958081F2CF17
:1027D0001F920F920FB60F9211240BB60F922F93E8
:1027E0003F934F935F936F937F938F939F93AF9399
:1027F000BF93EF93FF9384EC94E023DDFF91EF917F
:10280000BF91AF919F918F917F916F915F914F9108
:102810003F912F910F900BBE0F900FBE0F901F9006
:102820001895E4ECF4E01382128288EE93E0A0E0C5
:10283000B0E084839583A683B78384EB92E0918391
:10284000808385E391E09587848784E391E097878F
:10285000868780E391E0918B808B81E391E0938B7D
:10286000828B82E391E0958B848B86E391E0978B5A
:10287000868B118E128E138E148E0895AF92BF9296
:10288000CF92DF92EF92FF920F931F93CF93DF933C
:102890006C017B018B01040F151FEB015E01AE186B
:1028A000BF08C017D10759F06991D601ED91FC918D
:1028B0000190F081E02DC6011995892B79F7C501AA
:1028C000DF91CF911F910F91FF90EF90DF90CF900C
:1028D000BF90AF900895A1E21A2EAA1BBB1BFD0169
:1028E0000DC0AA1FBB1FEE1FFF1FA217B307E407EF
:1028F000F50720F0A21BB30BE40BF50B661F771F47
:10290000881F991F1A9469F7609570958095909526
:102910009B01AC01BD01CF010895EE0FFF1F881F81
:0E2920008BBF0790F691E02D1994F894FFCF2D
:10292E0000000000000000000000803F0000803F1B
:10293E000000000000000000000000000000000089
:10294E00000000000000C8420000C8420000803FA6
:10295E000000803F00009041000098417C26253900
:10296E000000C842CDCCCC3ECDCCCC3E0000000009
:10297E000AD7233C0AD7233C000080BF00007F43C8
:10298E000000000000007F43000000000AD7233C37
:10299E000AD7233C000080BF00007F4300000000E8
:1029AE0000007F430000000002039B0C9B0C9B0C5D
:1029BE009B0C9B0C9B0C9B0C9B0CCB020001FFFFFA
:1029CE00FFFFFFFFFFFFFFFFFFFFFFFF05040302F7
:1029DE000000000062113E1412114311E410FE10AB
:0229EE00F010E7
:00000001FF
